{
	"contracts/voting.sol": {
		"VotingContract": {
			"abi": [
				{
					"inputs": [],
					"stateMutability": "nonpayable",
					"type": "constructor"
				},
				{
					"inputs": [
						{
							"internalType": "string",
							"name": "symbol",
							"type": "string"
						}
					],
					"name": "giveVotes",
					"outputs": [],
					"stateMutability": "nonpayable",
					"type": "function"
				},
				{
					"inputs": [
						{
							"internalType": "string",
							"name": "name",
							"type": "string"
						},
						{
							"internalType": "string",
							"name": "symbol",
							"type": "string"
						}
					],
					"name": "registrationForCandidate",
					"outputs": [],
					"stateMutability": "nonpayable",
					"type": "function"
				},
				{
					"inputs": [],
					"name": "startVote",
					"outputs": [],
					"stateMutability": "nonpayable",
					"type": "function"
				},
				{
					"inputs": [
						{
							"internalType": "string",
							"name": "symbol",
							"type": "string"
						}
					],
					"name": "voteCountStatus",
					"outputs": [
						{
							"components": [
								{
									"internalType": "string",
									"name": "name",
									"type": "string"
								},
								{
									"internalType": "uint256",
									"name": "voteCount",
									"type": "uint256"
								}
							],
							"internalType": "struct VotingContract.candidate",
							"name": "",
							"type": "tuple"
						}
					],
					"stateMutability": "view",
					"type": "function"
				}
			],
			"devdoc": {
				"kind": "dev",
				"methods": {},
				"version": 1
			},
			"evm": {
				"assembly": "    /* \"contracts/voting.sol\":59:1766  contract VotingContract{\r... */\n  mstore(0x40, 0x80)\n    /* \"contracts/voting.sol\":225:230  false */\n  0x00\n    /* \"contracts/voting.sol\":206:230  bool voteStarted = false */\n  0x01\n  exp(0x0100, 0x14)\n  dup2\n  sload\n  dup2\n  0xff\n  mul\n  not\n  and\n  swap1\n  dup4\n  iszero\n  iszero\n  mul\n  or\n  swap1\n  sstore\n  pop\n    /* \"contracts/voting.sol\":469:532  constructor(){\r... */\n  callvalue\n  dup1\n  iszero\n  tag_1\n  jumpi\n  0x00\n  dup1\n  revert\ntag_1:\n  pop\n    /* \"contracts/voting.sol\":514:524  msg.sender */\n  caller\n    /* \"contracts/voting.sol\":493:511  electionCommission */\n  0x01\n  0x00\n    /* \"contracts/voting.sol\":493:524  electionCommission = msg.sender */\n  0x0100\n  exp\n  dup2\n  sload\n  dup2\n  0xffffffffffffffffffffffffffffffffffffffff\n  mul\n  not\n  and\n  swap1\n  dup4\n  0xffffffffffffffffffffffffffffffffffffffff\n  and\n  mul\n  or\n  swap1\n  sstore\n  pop\n    /* \"contracts/voting.sol\":59:1766  contract VotingContract{\r... */\n  dataSize(sub_0)\n  dup1\n  dataOffset(sub_0)\n  0x00\n  codecopy\n  0x00\n  return\nstop\n\nsub_0: assembly {\n        /* \"contracts/voting.sol\":59:1766  contract VotingContract{\r... */\n      mstore(0x40, 0x80)\n      callvalue\n      dup1\n      iszero\n      tag_1\n      jumpi\n      0x00\n      dup1\n      revert\n    tag_1:\n      pop\n      jumpi(tag_2, lt(calldatasize, 0x04))\n      shr(0xe0, calldataload(0x00))\n      dup1\n      0x137967a6\n      eq\n      tag_3\n      jumpi\n      dup1\n      0x196b2e24\n      eq\n      tag_4\n      jumpi\n      dup1\n      0x1f6d52c5\n      eq\n      tag_5\n      jumpi\n      dup1\n      0x4c0a6af0\n      eq\n      tag_6\n      jumpi\n    tag_2:\n      0x00\n      dup1\n      revert\n        /* \"contracts/voting.sol\":853:1232  function registrationForCandidate  (string memory name, string memory symbol)public onlyElectionComission votingStarted\r... */\n    tag_3:\n      tag_7\n      0x04\n      dup1\n      calldatasize\n      sub\n      dup2\n      add\n      swap1\n      tag_8\n      swap2\n      swap1\n      tag_9\n      jump\t// in\n    tag_8:\n      tag_10\n      jump\t// in\n    tag_7:\n      stop\n        /* \"contracts/voting.sol\":1620:1750  function voteCountStatus(string memory symbol) public view returns(candidate memory){\r... */\n    tag_4:\n      tag_11\n      0x04\n      dup1\n      calldatasize\n      sub\n      dup2\n      add\n      swap1\n      tag_12\n      swap2\n      swap1\n      tag_13\n      jump\t// in\n    tag_12:\n      tag_14\n      jump\t// in\n    tag_11:\n      mload(0x40)\n      tag_15\n      swap2\n      swap1\n      tag_16\n      jump\t// in\n    tag_15:\n      mload(0x40)\n      dup1\n      swap2\n      sub\n      swap1\n      return\n        /* \"contracts/voting.sol\":1480:1580  function giveVotes(string memory symbol) public {\r... */\n    tag_5:\n      tag_17\n      0x04\n      dup1\n      calldatasize\n      sub\n      dup2\n      add\n      swap1\n      tag_18\n      swap2\n      swap1\n      tag_13\n      jump\t// in\n    tag_18:\n      tag_19\n      jump\t// in\n    tag_17:\n      stop\n        /* \"contracts/voting.sol\":1262:1444  function startVote() public onlyElectionComission votingStarted{\r... */\n    tag_6:\n      tag_20\n      tag_21\n      jump\t// in\n    tag_20:\n      stop\n        /* \"contracts/voting.sol\":853:1232  function registrationForCandidate  (string memory name, string memory symbol)public onlyElectionComission votingStarted\r... */\n    tag_10:\n        /* \"contracts/voting.sol\":628:646  electionCommission */\n      0x01\n      0x00\n      swap1\n      sload\n      swap1\n      0x0100\n      exp\n      swap1\n      div\n      0xffffffffffffffffffffffffffffffffffffffff\n      and\n        /* \"contracts/voting.sol\":616:646  msg.sender==electionCommission */\n      0xffffffffffffffffffffffffffffffffffffffff\n      and\n        /* \"contracts/voting.sol\":616:626  msg.sender */\n      caller\n        /* \"contracts/voting.sol\":616:646  msg.sender==electionCommission */\n      0xffffffffffffffffffffffffffffffffffffffff\n      and\n      eq\n        /* \"contracts/voting.sol\":608:670  require(msg.sender==electionCommission,\"Unauthorized Access.\") */\n      tag_23\n      jumpi\n      mload(0x40)\n      0x08c379a000000000000000000000000000000000000000000000000000000000\n      dup2\n      mstore\n      0x04\n      add\n      tag_24\n      swap1\n      tag_25\n      jump\t// in\n    tag_24:\n      mload(0x40)\n      dup1\n      swap2\n      sub\n      swap1\n      revert\n    tag_23:\n        /* \"contracts/voting.sol\":774:778  true */\n      0x01\n        /* \"contracts/voting.sol\":761:778  voteStarted==true */\n      iszero\n      iszero\n        /* \"contracts/voting.sol\":761:772  voteStarted */\n      0x01\n      0x14\n      swap1\n      sload\n      swap1\n      0x0100\n      exp\n      swap1\n      div\n      0xff\n      and\n        /* \"contracts/voting.sol\":761:778  voteStarted==true */\n      iszero\n      iszero\n      eq\n        /* \"contracts/voting.sol\":753:798  require(voteStarted==true,\"Already Started.\") */\n      tag_27\n      jumpi\n      mload(0x40)\n      0x08c379a000000000000000000000000000000000000000000000000000000000\n      dup2\n      mstore\n      0x04\n      add\n      tag_28\n      swap1\n      tag_29\n      jump\t// in\n    tag_28:\n      mload(0x40)\n      dup1\n      swap2\n      sub\n      swap1\n      revert\n    tag_27:\n        /* \"contracts/voting.sol\":1018:1019  0 */\n      0x00\n        /* \"contracts/voting.sol\":1004:1008  name */\n      dup3\n        /* \"contracts/voting.sol\":998:1016  bytes(name).length */\n      mload\n        /* \"contracts/voting.sol\":998:1019  bytes(name).length!=0 */\n      eq\n      iszero\n        /* \"contracts/voting.sol\":990:1042  require(bytes(name).length!=0,\"Name Can't be empty\") */\n      tag_31\n      jumpi\n      mload(0x40)\n      0x08c379a000000000000000000000000000000000000000000000000000000000\n      dup2\n      mstore\n      0x04\n      add\n      tag_32\n      swap1\n      tag_33\n      jump\t// in\n    tag_32:\n      mload(0x40)\n      dup1\n      swap2\n      sub\n      swap1\n      revert\n    tag_31:\n        /* \"contracts/voting.sol\":1083:1084  0 */\n      0x00\n        /* \"contracts/voting.sol\":1067:1073  symbol */\n      dup2\n        /* \"contracts/voting.sol\":1061:1081  bytes(symbol).length */\n      mload\n        /* \"contracts/voting.sol\":1061:1084  bytes(symbol).length!=0 */\n      eq\n      iszero\n        /* \"contracts/voting.sol\":1053:1109  require(bytes(symbol).length!=0,\"Symbol can't be empty\") */\n      tag_34\n      jumpi\n      mload(0x40)\n      0x08c379a000000000000000000000000000000000000000000000000000000000\n      dup2\n      mstore\n      0x04\n      add\n      tag_35\n      swap1\n      tag_36\n      jump\t// in\n    tag_35:\n      mload(0x40)\n      dup1\n      swap2\n      sub\n      swap1\n      revert\n    tag_34:\n        /* \"contracts/voting.sol\":1120:1130  symbolList */\n      0x02\n        /* \"contracts/voting.sol\":1136:1142  symbol */\n      dup2\n        /* \"contracts/voting.sol\":1120:1143  symbolList.push(symbol) */\n      swap1\n      dup1\n      0x01\n      dup2\n      sload\n      add\n      dup1\n      dup3\n      sstore\n      dup1\n      swap2\n      pop\n      pop\n      0x01\n      swap1\n      sub\n      swap1\n      0x00\n      mstore\n      keccak256(0x00, 0x20)\n      add\n      0x00\n      swap1\n      swap2\n      swap1\n      swap2\n      swap1\n      swap2\n      pop\n      swap1\n      dup1\n      mload\n      swap1\n      0x20\n      add\n      swap1\n      tag_38\n      swap3\n      swap2\n      swap1\n      tag_39\n      jump\t// in\n    tag_38:\n      pop\n        /* \"contracts/voting.sol\":1178:1182  name */\n      dup2\n        /* \"contracts/voting.sol\":1154:1164  Candidates */\n      0x03\n        /* \"contracts/voting.sol\":1165:1171  symbol */\n      dup3\n        /* \"contracts/voting.sol\":1154:1172  Candidates[symbol] */\n      mload(0x40)\n      tag_40\n      swap2\n      swap1\n      tag_41\n      jump\t// in\n    tag_40:\n      swap1\n      dup2\n      mstore\n      0x20\n      add\n      mload(0x40)\n      dup1\n      swap2\n      sub\n      swap1\n      keccak256\n        /* \"contracts/voting.sol\":1154:1177  Candidates[symbol].name */\n      0x00\n      add\n        /* \"contracts/voting.sol\":1154:1182  Candidates[symbol].name=name */\n      swap1\n      dup1\n      mload\n      swap1\n      0x20\n      add\n      swap1\n      tag_42\n      swap3\n      swap2\n      swap1\n      tag_39\n      jump\t// in\n    tag_42:\n      pop\n        /* \"contracts/voting.sol\":1222:1223  0 */\n      0x00\n        /* \"contracts/voting.sol\":1193:1203  Candidates */\n      0x03\n        /* \"contracts/voting.sol\":1204:1210  symbol */\n      dup3\n        /* \"contracts/voting.sol\":1193:1211  Candidates[symbol] */\n      mload(0x40)\n      tag_43\n      swap2\n      swap1\n      tag_41\n      jump\t// in\n    tag_43:\n      swap1\n      dup2\n      mstore\n      0x20\n      add\n      mload(0x40)\n      dup1\n      swap2\n      sub\n      swap1\n      keccak256\n        /* \"contracts/voting.sol\":1193:1221  Candidates[symbol].voteCount */\n      0x01\n      add\n        /* \"contracts/voting.sol\":1193:1223  Candidates[symbol].voteCount=0 */\n      dup2\n      swap1\n      sstore\n      pop\n        /* \"contracts/voting.sol\":853:1232  function registrationForCandidate  (string memory name, string memory symbol)public onlyElectionComission votingStarted\r... */\n      pop\n      pop\n      jump\t// out\n        /* \"contracts/voting.sol\":1620:1750  function voteCountStatus(string memory symbol) public view returns(candidate memory){\r... */\n    tag_14:\n        /* \"contracts/voting.sol\":1687:1703  candidate memory */\n      tag_44\n      tag_45\n      jump\t// in\n    tag_44:\n        /* \"contracts/voting.sol\":1723:1733  Candidates */\n      0x03\n        /* \"contracts/voting.sol\":1734:1740  symbol */\n      dup3\n        /* \"contracts/voting.sol\":1723:1741  Candidates[symbol] */\n      mload(0x40)\n      tag_47\n      swap2\n      swap1\n      tag_41\n      jump\t// in\n    tag_47:\n      swap1\n      dup2\n      mstore\n      0x20\n      add\n      mload(0x40)\n      dup1\n      swap2\n      sub\n      swap1\n      keccak256\n        /* \"contracts/voting.sol\":1716:1741  return Candidates[symbol] */\n      mload(0x40)\n      dup1\n      0x40\n      add\n      0x40\n      mstore\n      swap1\n      dup2\n      0x00\n      dup3\n      add\n      dup1\n      sload\n      tag_48\n      swap1\n      tag_49\n      jump\t// in\n    tag_48:\n      dup1\n      0x1f\n      add\n      0x20\n      dup1\n      swap2\n      div\n      mul\n      0x20\n      add\n      mload(0x40)\n      swap1\n      dup2\n      add\n      0x40\n      mstore\n      dup1\n      swap3\n      swap2\n      swap1\n      dup2\n      dup2\n      mstore\n      0x20\n      add\n      dup3\n      dup1\n      sload\n      tag_50\n      swap1\n      tag_49\n      jump\t// in\n    tag_50:\n      dup1\n      iszero\n      tag_51\n      jumpi\n      dup1\n      0x1f\n      lt\n      tag_52\n      jumpi\n      0x0100\n      dup1\n      dup4\n      sload\n      div\n      mul\n      dup4\n      mstore\n      swap2\n      0x20\n      add\n      swap2\n      jump(tag_51)\n    tag_52:\n      dup3\n      add\n      swap2\n      swap1\n      0x00\n      mstore\n      keccak256(0x00, 0x20)\n      swap1\n    tag_53:\n      dup2\n      sload\n      dup2\n      mstore\n      swap1\n      0x01\n      add\n      swap1\n      0x20\n      add\n      dup1\n      dup4\n      gt\n      tag_53\n      jumpi\n      dup3\n      swap1\n      sub\n      0x1f\n      and\n      dup3\n      add\n      swap2\n    tag_51:\n      pop\n      pop\n      pop\n      pop\n      pop\n      dup2\n      mstore\n      0x20\n      add\n      0x01\n      dup3\n      add\n      sload\n      dup2\n      mstore\n      pop\n      pop\n      swap1\n      pop\n        /* \"contracts/voting.sol\":1620:1750  function voteCountStatus(string memory symbol) public view returns(candidate memory){\r... */\n      swap2\n      swap1\n      pop\n      jump\t// out\n        /* \"contracts/voting.sol\":1480:1580  function giveVotes(string memory symbol) public {\r... */\n    tag_19:\n        /* \"contracts/voting.sol\":1570:1571  1 */\n      0x01\n        /* \"contracts/voting.sol\":1540:1550  Candidates */\n      0x03\n        /* \"contracts/voting.sol\":1551:1557  symbol */\n      dup3\n        /* \"contracts/voting.sol\":1540:1558  Candidates[symbol] */\n      mload(0x40)\n      tag_55\n      swap2\n      swap1\n      tag_41\n      jump\t// in\n    tag_55:\n      swap1\n      dup2\n      mstore\n      0x20\n      add\n      mload(0x40)\n      dup1\n      swap2\n      sub\n      swap1\n      keccak256\n        /* \"contracts/voting.sol\":1540:1568  Candidates[symbol].voteCount */\n      0x01\n      add\n      0x00\n        /* \"contracts/voting.sol\":1540:1571  Candidates[symbol].voteCount+=1 */\n      dup3\n      dup3\n      sload\n      tag_56\n      swap2\n      swap1\n      tag_57\n      jump\t// in\n    tag_56:\n      swap3\n      pop\n      pop\n      dup2\n      swap1\n      sstore\n      pop\n        /* \"contracts/voting.sol\":1480:1580  function giveVotes(string memory symbol) public {\r... */\n      pop\n      jump\t// out\n        /* \"contracts/voting.sol\":1262:1444  function startVote() public onlyElectionComission votingStarted{\r... */\n    tag_21:\n        /* \"contracts/voting.sol\":628:646  electionCommission */\n      0x01\n      0x00\n      swap1\n      sload\n      swap1\n      0x0100\n      exp\n      swap1\n      div\n      0xffffffffffffffffffffffffffffffffffffffff\n      and\n        /* \"contracts/voting.sol\":616:646  msg.sender==electionCommission */\n      0xffffffffffffffffffffffffffffffffffffffff\n      and\n        /* \"contracts/voting.sol\":616:626  msg.sender */\n      caller\n        /* \"contracts/voting.sol\":616:646  msg.sender==electionCommission */\n      0xffffffffffffffffffffffffffffffffffffffff\n      and\n      eq\n        /* \"contracts/voting.sol\":608:670  require(msg.sender==electionCommission,\"Unauthorized Access.\") */\n      tag_59\n      jumpi\n      mload(0x40)\n      0x08c379a000000000000000000000000000000000000000000000000000000000\n      dup2\n      mstore\n      0x04\n      add\n      tag_60\n      swap1\n      tag_25\n      jump\t// in\n    tag_60:\n      mload(0x40)\n      dup1\n      swap2\n      sub\n      swap1\n      revert\n    tag_59:\n        /* \"contracts/voting.sol\":774:778  true */\n      0x01\n        /* \"contracts/voting.sol\":761:778  voteStarted==true */\n      iszero\n      iszero\n        /* \"contracts/voting.sol\":761:772  voteStarted */\n      0x01\n      0x14\n      swap1\n      sload\n      swap1\n      0x0100\n      exp\n      swap1\n      div\n      0xff\n      and\n        /* \"contracts/voting.sol\":761:778  voteStarted==true */\n      iszero\n      iszero\n      eq\n        /* \"contracts/voting.sol\":753:798  require(voteStarted==true,\"Already Started.\") */\n      tag_62\n      jumpi\n      mload(0x40)\n      0x08c379a000000000000000000000000000000000000000000000000000000000\n      dup2\n      mstore\n      0x04\n      add\n      tag_63\n      swap1\n      tag_29\n      jump\t// in\n    tag_63:\n      mload(0x40)\n      dup1\n      swap2\n      sub\n      swap1\n      revert\n    tag_62:\n        /* \"contracts/voting.sol\":1362:1363  0 */\n      0x00\n        /* \"contracts/voting.sol\":1344:1354  symbolList */\n      0x02\n        /* \"contracts/voting.sol\":1344:1361  symbolList.length */\n      dup1\n      sload\n      swap1\n      pop\n        /* \"contracts/voting.sol\":1344:1363  symbolList.length>0 */\n      gt\n        /* \"contracts/voting.sol\":1336:1406  require(symbolList.length>0,\"Atleast 2 candidate must be registered.\") */\n      tag_65\n      jumpi\n      mload(0x40)\n      0x08c379a000000000000000000000000000000000000000000000000000000000\n      dup2\n      mstore\n      0x04\n      add\n      tag_66\n      swap1\n      tag_67\n      jump\t// in\n    tag_66:\n      mload(0x40)\n      dup1\n      swap2\n      sub\n      swap1\n      revert\n    tag_65:\n        /* \"contracts/voting.sol\":1431:1435  true */\n      0x01\n        /* \"contracts/voting.sol\":1417:1428  voteStarted */\n      dup1\n      0x14\n        /* \"contracts/voting.sol\":1417:1435  voteStarted = true */\n      0x0100\n      exp\n      dup2\n      sload\n      dup2\n      0xff\n      mul\n      not\n      and\n      swap1\n      dup4\n      iszero\n      iszero\n      mul\n      or\n      swap1\n      sstore\n      pop\n        /* \"contracts/voting.sol\":1262:1444  function startVote() public onlyElectionComission votingStarted{\r... */\n      jump\t// out\n    tag_39:\n      dup3\n      dup1\n      sload\n      tag_68\n      swap1\n      tag_49\n      jump\t// in\n    tag_68:\n      swap1\n      0x00\n      mstore\n      keccak256(0x00, 0x20)\n      swap1\n      0x1f\n      add\n      0x20\n      swap1\n      div\n      dup2\n      add\n      swap3\n      dup3\n      tag_70\n      jumpi\n      0x00\n      dup6\n      sstore\n      jump(tag_69)\n    tag_70:\n      dup3\n      0x1f\n      lt\n      tag_71\n      jumpi\n      dup1\n      mload\n      not(0xff)\n      and\n      dup4\n      dup1\n      add\n      or\n      dup6\n      sstore\n      jump(tag_69)\n    tag_71:\n      dup3\n      dup1\n      add\n      0x01\n      add\n      dup6\n      sstore\n      dup3\n      iszero\n      tag_69\n      jumpi\n      swap2\n      dup3\n      add\n    tag_72:\n      dup3\n      dup2\n      gt\n      iszero\n      tag_73\n      jumpi\n      dup3\n      mload\n      dup3\n      sstore\n      swap2\n      0x20\n      add\n      swap2\n      swap1\n      0x01\n      add\n      swap1\n      jump(tag_72)\n    tag_73:\n    tag_69:\n      pop\n      swap1\n      pop\n      tag_74\n      swap2\n      swap1\n      tag_75\n      jump\t// in\n    tag_74:\n      pop\n      swap1\n      jump\t// out\n    tag_45:\n      mload(0x40)\n      dup1\n      0x40\n      add\n      0x40\n      mstore\n      dup1\n      0x60\n      dup2\n      mstore\n      0x20\n      add\n      0x00\n      dup2\n      mstore\n      pop\n      swap1\n      jump\t// out\n    tag_75:\n    tag_76:\n      dup1\n      dup3\n      gt\n      iszero\n      tag_77\n      jumpi\n      0x00\n      dup2\n      0x00\n      swap1\n      sstore\n      pop\n      0x01\n      add\n      jump(tag_76)\n    tag_77:\n      pop\n      swap1\n      jump\t// out\n        /* \"#utility.yul\":7:419   */\n    tag_79:\n        /* \"#utility.yul\":85:90   */\n      0x00\n        /* \"#utility.yul\":110:176   */\n      tag_81\n        /* \"#utility.yul\":126:175   */\n      tag_82\n        /* \"#utility.yul\":168:174   */\n      dup5\n        /* \"#utility.yul\":126:175   */\n      tag_83\n      jump\t// in\n    tag_82:\n        /* \"#utility.yul\":110:176   */\n      tag_84\n      jump\t// in\n    tag_81:\n        /* \"#utility.yul\":101:176   */\n      swap1\n      pop\n        /* \"#utility.yul\":199:205   */\n      dup3\n        /* \"#utility.yul\":192:197   */\n      dup2\n        /* \"#utility.yul\":185:206   */\n      mstore\n        /* \"#utility.yul\":237:241   */\n      0x20\n        /* \"#utility.yul\":230:235   */\n      dup2\n        /* \"#utility.yul\":226:242   */\n      add\n        /* \"#utility.yul\":275:278   */\n      dup5\n        /* \"#utility.yul\":266:272   */\n      dup5\n        /* \"#utility.yul\":261:264   */\n      dup5\n        /* \"#utility.yul\":257:273   */\n      add\n        /* \"#utility.yul\":254:279   */\n      gt\n        /* \"#utility.yul\":251:363   */\n      iszero\n      tag_85\n      jumpi\n        /* \"#utility.yul\":282:361   */\n      tag_86\n      tag_87\n      jump\t// in\n    tag_86:\n        /* \"#utility.yul\":251:363   */\n    tag_85:\n        /* \"#utility.yul\":372:413   */\n      tag_88\n        /* \"#utility.yul\":406:412   */\n      dup5\n        /* \"#utility.yul\":401:404   */\n      dup3\n        /* \"#utility.yul\":396:399   */\n      dup6\n        /* \"#utility.yul\":372:413   */\n      tag_89\n      jump\t// in\n    tag_88:\n        /* \"#utility.yul\":91:419   */\n      pop\n        /* \"#utility.yul\":7:419   */\n      swap4\n      swap3\n      pop\n      pop\n      pop\n      jump\t// out\n        /* \"#utility.yul\":439:779   */\n    tag_90:\n        /* \"#utility.yul\":495:500   */\n      0x00\n        /* \"#utility.yul\":544:547   */\n      dup3\n        /* \"#utility.yul\":537:541   */\n      0x1f\n        /* \"#utility.yul\":529:535   */\n      dup4\n        /* \"#utility.yul\":525:542   */\n      add\n        /* \"#utility.yul\":521:548   */\n      slt\n        /* \"#utility.yul\":511:633   */\n      tag_92\n      jumpi\n        /* \"#utility.yul\":552:631   */\n      tag_93\n      tag_94\n      jump\t// in\n    tag_93:\n        /* \"#utility.yul\":511:633   */\n    tag_92:\n        /* \"#utility.yul\":669:675   */\n      dup2\n        /* \"#utility.yul\":656:676   */\n      calldataload\n        /* \"#utility.yul\":694:773   */\n      tag_95\n        /* \"#utility.yul\":769:772   */\n      dup5\n        /* \"#utility.yul\":761:767   */\n      dup3\n        /* \"#utility.yul\":754:758   */\n      0x20\n        /* \"#utility.yul\":746:752   */\n      dup7\n        /* \"#utility.yul\":742:759   */\n      add\n        /* \"#utility.yul\":694:773   */\n      tag_79\n      jump\t// in\n    tag_95:\n        /* \"#utility.yul\":685:773   */\n      swap2\n      pop\n        /* \"#utility.yul\":501:779   */\n      pop\n        /* \"#utility.yul\":439:779   */\n      swap3\n      swap2\n      pop\n      pop\n      jump\t// out\n        /* \"#utility.yul\":785:1294   */\n    tag_13:\n        /* \"#utility.yul\":854:860   */\n      0x00\n        /* \"#utility.yul\":903:905   */\n      0x20\n        /* \"#utility.yul\":891:900   */\n      dup3\n        /* \"#utility.yul\":882:889   */\n      dup5\n        /* \"#utility.yul\":878:901   */\n      sub\n        /* \"#utility.yul\":874:906   */\n      slt\n        /* \"#utility.yul\":871:990   */\n      iszero\n      tag_97\n      jumpi\n        /* \"#utility.yul\":909:988   */\n      tag_98\n      tag_99\n      jump\t// in\n    tag_98:\n        /* \"#utility.yul\":871:990   */\n    tag_97:\n        /* \"#utility.yul\":1057:1058   */\n      0x00\n        /* \"#utility.yul\":1046:1055   */\n      dup3\n        /* \"#utility.yul\":1042:1059   */\n      add\n        /* \"#utility.yul\":1029:1060   */\n      calldataload\n        /* \"#utility.yul\":1087:1105   */\n      0xffffffffffffffff\n        /* \"#utility.yul\":1079:1085   */\n      dup2\n        /* \"#utility.yul\":1076:1106   */\n      gt\n        /* \"#utility.yul\":1073:1190   */\n      iszero\n      tag_100\n      jumpi\n        /* \"#utility.yul\":1109:1188   */\n      tag_101\n      tag_102\n      jump\t// in\n    tag_101:\n        /* \"#utility.yul\":1073:1190   */\n    tag_100:\n        /* \"#utility.yul\":1214:1277   */\n      tag_103\n        /* \"#utility.yul\":1269:1276   */\n      dup5\n        /* \"#utility.yul\":1260:1266   */\n      dup3\n        /* \"#utility.yul\":1249:1258   */\n      dup6\n        /* \"#utility.yul\":1245:1267   */\n      add\n        /* \"#utility.yul\":1214:1277   */\n      tag_90\n      jump\t// in\n    tag_103:\n        /* \"#utility.yul\":1204:1277   */\n      swap2\n      pop\n        /* \"#utility.yul\":1000:1287   */\n      pop\n        /* \"#utility.yul\":785:1294   */\n      swap3\n      swap2\n      pop\n      pop\n      jump\t// out\n        /* \"#utility.yul\":1300:2134   */\n    tag_9:\n        /* \"#utility.yul\":1388:1394   */\n      0x00\n        /* \"#utility.yul\":1396:1402   */\n      dup1\n        /* \"#utility.yul\":1445:1447   */\n      0x40\n        /* \"#utility.yul\":1433:1442   */\n      dup4\n        /* \"#utility.yul\":1424:1431   */\n      dup6\n        /* \"#utility.yul\":1420:1443   */\n      sub\n        /* \"#utility.yul\":1416:1448   */\n      slt\n        /* \"#utility.yul\":1413:1532   */\n      iszero\n      tag_105\n      jumpi\n        /* \"#utility.yul\":1451:1530   */\n      tag_106\n      tag_99\n      jump\t// in\n    tag_106:\n        /* \"#utility.yul\":1413:1532   */\n    tag_105:\n        /* \"#utility.yul\":1599:1600   */\n      0x00\n        /* \"#utility.yul\":1588:1597   */\n      dup4\n        /* \"#utility.yul\":1584:1601   */\n      add\n        /* \"#utility.yul\":1571:1602   */\n      calldataload\n        /* \"#utility.yul\":1629:1647   */\n      0xffffffffffffffff\n        /* \"#utility.yul\":1621:1627   */\n      dup2\n        /* \"#utility.yul\":1618:1648   */\n      gt\n        /* \"#utility.yul\":1615:1732   */\n      iszero\n      tag_107\n      jumpi\n        /* \"#utility.yul\":1651:1730   */\n      tag_108\n      tag_102\n      jump\t// in\n    tag_108:\n        /* \"#utility.yul\":1615:1732   */\n    tag_107:\n        /* \"#utility.yul\":1756:1819   */\n      tag_109\n        /* \"#utility.yul\":1811:1818   */\n      dup6\n        /* \"#utility.yul\":1802:1808   */\n      dup3\n        /* \"#utility.yul\":1791:1800   */\n      dup7\n        /* \"#utility.yul\":1787:1809   */\n      add\n        /* \"#utility.yul\":1756:1819   */\n      tag_90\n      jump\t// in\n    tag_109:\n        /* \"#utility.yul\":1746:1819   */\n      swap3\n      pop\n        /* \"#utility.yul\":1542:1829   */\n      pop\n        /* \"#utility.yul\":1896:1898   */\n      0x20\n        /* \"#utility.yul\":1885:1894   */\n      dup4\n        /* \"#utility.yul\":1881:1899   */\n      add\n        /* \"#utility.yul\":1868:1900   */\n      calldataload\n        /* \"#utility.yul\":1927:1945   */\n      0xffffffffffffffff\n        /* \"#utility.yul\":1919:1925   */\n      dup2\n        /* \"#utility.yul\":1916:1946   */\n      gt\n        /* \"#utility.yul\":1913:2030   */\n      iszero\n      tag_110\n      jumpi\n        /* \"#utility.yul\":1949:2028   */\n      tag_111\n      tag_102\n      jump\t// in\n    tag_111:\n        /* \"#utility.yul\":1913:2030   */\n    tag_110:\n        /* \"#utility.yul\":2054:2117   */\n      tag_112\n        /* \"#utility.yul\":2109:2116   */\n      dup6\n        /* \"#utility.yul\":2100:2106   */\n      dup3\n        /* \"#utility.yul\":2089:2098   */\n      dup7\n        /* \"#utility.yul\":2085:2107   */\n      add\n        /* \"#utility.yul\":2054:2117   */\n      tag_90\n      jump\t// in\n    tag_112:\n        /* \"#utility.yul\":2044:2117   */\n      swap2\n      pop\n        /* \"#utility.yul\":1839:2127   */\n      pop\n        /* \"#utility.yul\":1300:2134   */\n      swap3\n      pop\n      swap3\n      swap1\n      pop\n      jump\t// out\n        /* \"#utility.yul\":2140:2484   */\n    tag_113:\n        /* \"#utility.yul\":2218:2221   */\n      0x00\n        /* \"#utility.yul\":2246:2285   */\n      tag_115\n        /* \"#utility.yul\":2279:2284   */\n      dup3\n        /* \"#utility.yul\":2246:2285   */\n      tag_116\n      jump\t// in\n    tag_115:\n        /* \"#utility.yul\":2301:2362   */\n      tag_117\n        /* \"#utility.yul\":2355:2361   */\n      dup2\n        /* \"#utility.yul\":2350:2353   */\n      dup6\n        /* \"#utility.yul\":2301:2362   */\n      tag_118\n      jump\t// in\n    tag_117:\n        /* \"#utility.yul\":2294:2362   */\n      swap4\n      pop\n        /* \"#utility.yul\":2371:2423   */\n      tag_119\n        /* \"#utility.yul\":2416:2422   */\n      dup2\n        /* \"#utility.yul\":2411:2414   */\n      dup6\n        /* \"#utility.yul\":2404:2408   */\n      0x20\n        /* \"#utility.yul\":2397:2402   */\n      dup7\n        /* \"#utility.yul\":2393:2409   */\n      add\n        /* \"#utility.yul\":2371:2423   */\n      tag_120\n      jump\t// in\n    tag_119:\n        /* \"#utility.yul\":2448:2477   */\n      tag_121\n        /* \"#utility.yul\":2470:2476   */\n      dup2\n        /* \"#utility.yul\":2448:2477   */\n      tag_122\n      jump\t// in\n    tag_121:\n        /* \"#utility.yul\":2443:2446   */\n      dup5\n        /* \"#utility.yul\":2439:2478   */\n      add\n        /* \"#utility.yul\":2432:2478   */\n      swap2\n      pop\n        /* \"#utility.yul\":2222:2484   */\n      pop\n        /* \"#utility.yul\":2140:2484   */\n      swap3\n      swap2\n      pop\n      pop\n      jump\t// out\n        /* \"#utility.yul\":2490:2867   */\n    tag_123:\n        /* \"#utility.yul\":2596:2599   */\n      0x00\n        /* \"#utility.yul\":2624:2663   */\n      tag_125\n        /* \"#utility.yul\":2657:2662   */\n      dup3\n        /* \"#utility.yul\":2624:2663   */\n      tag_116\n      jump\t// in\n    tag_125:\n        /* \"#utility.yul\":2679:2768   */\n      tag_126\n        /* \"#utility.yul\":2761:2767   */\n      dup2\n        /* \"#utility.yul\":2756:2759   */\n      dup6\n        /* \"#utility.yul\":2679:2768   */\n      tag_127\n      jump\t// in\n    tag_126:\n        /* \"#utility.yul\":2672:2768   */\n      swap4\n      pop\n        /* \"#utility.yul\":2777:2829   */\n      tag_128\n        /* \"#utility.yul\":2822:2828   */\n      dup2\n        /* \"#utility.yul\":2817:2820   */\n      dup6\n        /* \"#utility.yul\":2810:2814   */\n      0x20\n        /* \"#utility.yul\":2803:2808   */\n      dup7\n        /* \"#utility.yul\":2799:2815   */\n      add\n        /* \"#utility.yul\":2777:2829   */\n      tag_120\n      jump\t// in\n    tag_128:\n        /* \"#utility.yul\":2854:2860   */\n      dup1\n        /* \"#utility.yul\":2849:2852   */\n      dup5\n        /* \"#utility.yul\":2845:2861   */\n      add\n        /* \"#utility.yul\":2838:2861   */\n      swap2\n      pop\n        /* \"#utility.yul\":2600:2867   */\n      pop\n        /* \"#utility.yul\":2490:2867   */\n      swap3\n      swap2\n      pop\n      pop\n      jump\t// out\n        /* \"#utility.yul\":2873:3239   */\n    tag_129:\n        /* \"#utility.yul\":3015:3018   */\n      0x00\n        /* \"#utility.yul\":3036:3103   */\n      tag_131\n        /* \"#utility.yul\":3100:3102   */\n      0x14\n        /* \"#utility.yul\":3095:3098   */\n      dup4\n        /* \"#utility.yul\":3036:3103   */\n      tag_132\n      jump\t// in\n    tag_131:\n        /* \"#utility.yul\":3029:3103   */\n      swap2\n      pop\n        /* \"#utility.yul\":3112:3205   */\n      tag_133\n        /* \"#utility.yul\":3201:3204   */\n      dup3\n        /* \"#utility.yul\":3112:3205   */\n      tag_134\n      jump\t// in\n    tag_133:\n        /* \"#utility.yul\":3230:3232   */\n      0x20\n        /* \"#utility.yul\":3225:3228   */\n      dup3\n        /* \"#utility.yul\":3221:3233   */\n      add\n        /* \"#utility.yul\":3214:3233   */\n      swap1\n      pop\n        /* \"#utility.yul\":2873:3239   */\n      swap2\n      swap1\n      pop\n      jump\t// out\n        /* \"#utility.yul\":3245:3611   */\n    tag_135:\n        /* \"#utility.yul\":3387:3390   */\n      0x00\n        /* \"#utility.yul\":3408:3475   */\n      tag_137\n        /* \"#utility.yul\":3472:3474   */\n      0x15\n        /* \"#utility.yul\":3467:3470   */\n      dup4\n        /* \"#utility.yul\":3408:3475   */\n      tag_132\n      jump\t// in\n    tag_137:\n        /* \"#utility.yul\":3401:3475   */\n      swap2\n      pop\n        /* \"#utility.yul\":3484:3577   */\n      tag_138\n        /* \"#utility.yul\":3573:3576   */\n      dup3\n        /* \"#utility.yul\":3484:3577   */\n      tag_139\n      jump\t// in\n    tag_138:\n        /* \"#utility.yul\":3602:3604   */\n      0x20\n        /* \"#utility.yul\":3597:3600   */\n      dup3\n        /* \"#utility.yul\":3593:3605   */\n      add\n        /* \"#utility.yul\":3586:3605   */\n      swap1\n      pop\n        /* \"#utility.yul\":3245:3611   */\n      swap2\n      swap1\n      pop\n      jump\t// out\n        /* \"#utility.yul\":3617:3983   */\n    tag_140:\n        /* \"#utility.yul\":3759:3762   */\n      0x00\n        /* \"#utility.yul\":3780:3847   */\n      tag_142\n        /* \"#utility.yul\":3844:3846   */\n      0x10\n        /* \"#utility.yul\":3839:3842   */\n      dup4\n        /* \"#utility.yul\":3780:3847   */\n      tag_132\n      jump\t// in\n    tag_142:\n        /* \"#utility.yul\":3773:3847   */\n      swap2\n      pop\n        /* \"#utility.yul\":3856:3949   */\n      tag_143\n        /* \"#utility.yul\":3945:3948   */\n      dup3\n        /* \"#utility.yul\":3856:3949   */\n      tag_144\n      jump\t// in\n    tag_143:\n        /* \"#utility.yul\":3974:3976   */\n      0x20\n        /* \"#utility.yul\":3969:3972   */\n      dup3\n        /* \"#utility.yul\":3965:3977   */\n      add\n        /* \"#utility.yul\":3958:3977   */\n      swap1\n      pop\n        /* \"#utility.yul\":3617:3983   */\n      swap2\n      swap1\n      pop\n      jump\t// out\n        /* \"#utility.yul\":3989:4355   */\n    tag_145:\n        /* \"#utility.yul\":4131:4134   */\n      0x00\n        /* \"#utility.yul\":4152:4219   */\n      tag_147\n        /* \"#utility.yul\":4216:4218   */\n      0x27\n        /* \"#utility.yul\":4211:4214   */\n      dup4\n        /* \"#utility.yul\":4152:4219   */\n      tag_132\n      jump\t// in\n    tag_147:\n        /* \"#utility.yul\":4145:4219   */\n      swap2\n      pop\n        /* \"#utility.yul\":4228:4321   */\n      tag_148\n        /* \"#utility.yul\":4317:4320   */\n      dup3\n        /* \"#utility.yul\":4228:4321   */\n      tag_149\n      jump\t// in\n    tag_148:\n        /* \"#utility.yul\":4346:4348   */\n      0x40\n        /* \"#utility.yul\":4341:4344   */\n      dup3\n        /* \"#utility.yul\":4337:4349   */\n      add\n        /* \"#utility.yul\":4330:4349   */\n      swap1\n      pop\n        /* \"#utility.yul\":3989:4355   */\n      swap2\n      swap1\n      pop\n      jump\t// out\n        /* \"#utility.yul\":4361:4727   */\n    tag_150:\n        /* \"#utility.yul\":4503:4506   */\n      0x00\n        /* \"#utility.yul\":4524:4591   */\n      tag_152\n        /* \"#utility.yul\":4588:4590   */\n      0x13\n        /* \"#utility.yul\":4583:4586   */\n      dup4\n        /* \"#utility.yul\":4524:4591   */\n      tag_132\n      jump\t// in\n    tag_152:\n        /* \"#utility.yul\":4517:4591   */\n      swap2\n      pop\n        /* \"#utility.yul\":4600:4693   */\n      tag_153\n        /* \"#utility.yul\":4689:4692   */\n      dup3\n        /* \"#utility.yul\":4600:4693   */\n      tag_154\n      jump\t// in\n    tag_153:\n        /* \"#utility.yul\":4718:4720   */\n      0x20\n        /* \"#utility.yul\":4713:4716   */\n      dup3\n        /* \"#utility.yul\":4709:4721   */\n      add\n        /* \"#utility.yul\":4702:4721   */\n      swap1\n      pop\n        /* \"#utility.yul\":4361:4727   */\n      swap2\n      swap1\n      pop\n      jump\t// out\n        /* \"#utility.yul\":4807:5418   */\n    tag_155:\n        /* \"#utility.yul\":4926:4929   */\n      0x00\n        /* \"#utility.yul\":4962:4966   */\n      0x40\n        /* \"#utility.yul\":4957:4960   */\n      dup4\n        /* \"#utility.yul\":4953:4967   */\n      add\n        /* \"#utility.yul\":5049:5053   */\n      0x00\n        /* \"#utility.yul\":5042:5047   */\n      dup4\n        /* \"#utility.yul\":5038:5054   */\n      add\n        /* \"#utility.yul\":5032:5055   */\n      mload\n        /* \"#utility.yul\":5102:5105   */\n      dup5\n        /* \"#utility.yul\":5096:5100   */\n      dup3\n        /* \"#utility.yul\":5092:5106   */\n      sub\n        /* \"#utility.yul\":5085:5089   */\n      0x00\n        /* \"#utility.yul\":5080:5083   */\n      dup7\n        /* \"#utility.yul\":5076:5090   */\n      add\n        /* \"#utility.yul\":5069:5107   */\n      mstore\n        /* \"#utility.yul\":5128:5201   */\n      tag_157\n        /* \"#utility.yul\":5196:5200   */\n      dup3\n        /* \"#utility.yul\":5182:5194   */\n      dup3\n        /* \"#utility.yul\":5128:5201   */\n      tag_113\n      jump\t// in\n    tag_157:\n        /* \"#utility.yul\":5120:5201   */\n      swap2\n      pop\n        /* \"#utility.yul\":4977:5212   */\n      pop\n        /* \"#utility.yul\":5299:5303   */\n      0x20\n        /* \"#utility.yul\":5292:5297   */\n      dup4\n        /* \"#utility.yul\":5288:5304   */\n      add\n        /* \"#utility.yul\":5282:5305   */\n      mload\n        /* \"#utility.yul\":5318:5381   */\n      tag_158\n        /* \"#utility.yul\":5375:5379   */\n      0x20\n        /* \"#utility.yul\":5370:5373   */\n      dup7\n        /* \"#utility.yul\":5366:5380   */\n      add\n        /* \"#utility.yul\":5352:5364   */\n      dup3\n        /* \"#utility.yul\":5318:5381   */\n      tag_159\n      jump\t// in\n    tag_158:\n        /* \"#utility.yul\":5222:5391   */\n      pop\n        /* \"#utility.yul\":5408:5412   */\n      dup1\n        /* \"#utility.yul\":5401:5412   */\n      swap2\n      pop\n        /* \"#utility.yul\":4931:5418   */\n      pop\n        /* \"#utility.yul\":4807:5418   */\n      swap3\n      swap2\n      pop\n      pop\n      jump\t// out\n        /* \"#utility.yul\":5424:5532   */\n    tag_159:\n        /* \"#utility.yul\":5501:5525   */\n      tag_161\n        /* \"#utility.yul\":5519:5524   */\n      dup2\n        /* \"#utility.yul\":5501:5525   */\n      tag_162\n      jump\t// in\n    tag_161:\n        /* \"#utility.yul\":5496:5499   */\n      dup3\n        /* \"#utility.yul\":5489:5526   */\n      mstore\n        /* \"#utility.yul\":5424:5532   */\n      pop\n      pop\n      jump\t// out\n        /* \"#utility.yul\":5538:5813   */\n    tag_41:\n        /* \"#utility.yul\":5670:5673   */\n      0x00\n        /* \"#utility.yul\":5692:5787   */\n      tag_164\n        /* \"#utility.yul\":5783:5786   */\n      dup3\n        /* \"#utility.yul\":5774:5780   */\n      dup5\n        /* \"#utility.yul\":5692:5787   */\n      tag_123\n      jump\t// in\n    tag_164:\n        /* \"#utility.yul\":5685:5787   */\n      swap2\n      pop\n        /* \"#utility.yul\":5804:5807   */\n      dup2\n        /* \"#utility.yul\":5797:5807   */\n      swap1\n      pop\n        /* \"#utility.yul\":5538:5813   */\n      swap3\n      swap2\n      pop\n      pop\n      jump\t// out\n        /* \"#utility.yul\":5819:6238   */\n    tag_25:\n        /* \"#utility.yul\":5985:5989   */\n      0x00\n        /* \"#utility.yul\":6023:6025   */\n      0x20\n        /* \"#utility.yul\":6012:6021   */\n      dup3\n        /* \"#utility.yul\":6008:6026   */\n      add\n        /* \"#utility.yul\":6000:6026   */\n      swap1\n      pop\n        /* \"#utility.yul\":6072:6081   */\n      dup2\n        /* \"#utility.yul\":6066:6070   */\n      dup2\n        /* \"#utility.yul\":6062:6082   */\n      sub\n        /* \"#utility.yul\":6058:6059   */\n      0x00\n        /* \"#utility.yul\":6047:6056   */\n      dup4\n        /* \"#utility.yul\":6043:6060   */\n      add\n        /* \"#utility.yul\":6036:6083   */\n      mstore\n        /* \"#utility.yul\":6100:6231   */\n      tag_166\n        /* \"#utility.yul\":6226:6230   */\n      dup2\n        /* \"#utility.yul\":6100:6231   */\n      tag_129\n      jump\t// in\n    tag_166:\n        /* \"#utility.yul\":6092:6231   */\n      swap1\n      pop\n        /* \"#utility.yul\":5819:6238   */\n      swap2\n      swap1\n      pop\n      jump\t// out\n        /* \"#utility.yul\":6244:6663   */\n    tag_36:\n        /* \"#utility.yul\":6410:6414   */\n      0x00\n        /* \"#utility.yul\":6448:6450   */\n      0x20\n        /* \"#utility.yul\":6437:6446   */\n      dup3\n        /* \"#utility.yul\":6433:6451   */\n      add\n        /* \"#utility.yul\":6425:6451   */\n      swap1\n      pop\n        /* \"#utility.yul\":6497:6506   */\n      dup2\n        /* \"#utility.yul\":6491:6495   */\n      dup2\n        /* \"#utility.yul\":6487:6507   */\n      sub\n        /* \"#utility.yul\":6483:6484   */\n      0x00\n        /* \"#utility.yul\":6472:6481   */\n      dup4\n        /* \"#utility.yul\":6468:6485   */\n      add\n        /* \"#utility.yul\":6461:6508   */\n      mstore\n        /* \"#utility.yul\":6525:6656   */\n      tag_168\n        /* \"#utility.yul\":6651:6655   */\n      dup2\n        /* \"#utility.yul\":6525:6656   */\n      tag_135\n      jump\t// in\n    tag_168:\n        /* \"#utility.yul\":6517:6656   */\n      swap1\n      pop\n        /* \"#utility.yul\":6244:6663   */\n      swap2\n      swap1\n      pop\n      jump\t// out\n        /* \"#utility.yul\":6669:7088   */\n    tag_29:\n        /* \"#utility.yul\":6835:6839   */\n      0x00\n        /* \"#utility.yul\":6873:6875   */\n      0x20\n        /* \"#utility.yul\":6862:6871   */\n      dup3\n        /* \"#utility.yul\":6858:6876   */\n      add\n        /* \"#utility.yul\":6850:6876   */\n      swap1\n      pop\n        /* \"#utility.yul\":6922:6931   */\n      dup2\n        /* \"#utility.yul\":6916:6920   */\n      dup2\n        /* \"#utility.yul\":6912:6932   */\n      sub\n        /* \"#utility.yul\":6908:6909   */\n      0x00\n        /* \"#utility.yul\":6897:6906   */\n      dup4\n        /* \"#utility.yul\":6893:6910   */\n      add\n        /* \"#utility.yul\":6886:6933   */\n      mstore\n        /* \"#utility.yul\":6950:7081   */\n      tag_170\n        /* \"#utility.yul\":7076:7080   */\n      dup2\n        /* \"#utility.yul\":6950:7081   */\n      tag_140\n      jump\t// in\n    tag_170:\n        /* \"#utility.yul\":6942:7081   */\n      swap1\n      pop\n        /* \"#utility.yul\":6669:7088   */\n      swap2\n      swap1\n      pop\n      jump\t// out\n        /* \"#utility.yul\":7094:7513   */\n    tag_67:\n        /* \"#utility.yul\":7260:7264   */\n      0x00\n        /* \"#utility.yul\":7298:7300   */\n      0x20\n        /* \"#utility.yul\":7287:7296   */\n      dup3\n        /* \"#utility.yul\":7283:7301   */\n      add\n        /* \"#utility.yul\":7275:7301   */\n      swap1\n      pop\n        /* \"#utility.yul\":7347:7356   */\n      dup2\n        /* \"#utility.yul\":7341:7345   */\n      dup2\n        /* \"#utility.yul\":7337:7357   */\n      sub\n        /* \"#utility.yul\":7333:7334   */\n      0x00\n        /* \"#utility.yul\":7322:7331   */\n      dup4\n        /* \"#utility.yul\":7318:7335   */\n      add\n        /* \"#utility.yul\":7311:7358   */\n      mstore\n        /* \"#utility.yul\":7375:7506   */\n      tag_172\n        /* \"#utility.yul\":7501:7505   */\n      dup2\n        /* \"#utility.yul\":7375:7506   */\n      tag_145\n      jump\t// in\n    tag_172:\n        /* \"#utility.yul\":7367:7506   */\n      swap1\n      pop\n        /* \"#utility.yul\":7094:7513   */\n      swap2\n      swap1\n      pop\n      jump\t// out\n        /* \"#utility.yul\":7519:7938   */\n    tag_33:\n        /* \"#utility.yul\":7685:7689   */\n      0x00\n        /* \"#utility.yul\":7723:7725   */\n      0x20\n        /* \"#utility.yul\":7712:7721   */\n      dup3\n        /* \"#utility.yul\":7708:7726   */\n      add\n        /* \"#utility.yul\":7700:7726   */\n      swap1\n      pop\n        /* \"#utility.yul\":7772:7781   */\n      dup2\n        /* \"#utility.yul\":7766:7770   */\n      dup2\n        /* \"#utility.yul\":7762:7782   */\n      sub\n        /* \"#utility.yul\":7758:7759   */\n      0x00\n        /* \"#utility.yul\":7747:7756   */\n      dup4\n        /* \"#utility.yul\":7743:7760   */\n      add\n        /* \"#utility.yul\":7736:7783   */\n      mstore\n        /* \"#utility.yul\":7800:7931   */\n      tag_174\n        /* \"#utility.yul\":7926:7930   */\n      dup2\n        /* \"#utility.yul\":7800:7931   */\n      tag_150\n      jump\t// in\n    tag_174:\n        /* \"#utility.yul\":7792:7931   */\n      swap1\n      pop\n        /* \"#utility.yul\":7519:7938   */\n      swap2\n      swap1\n      pop\n      jump\t// out\n        /* \"#utility.yul\":7944:8317   */\n    tag_16:\n        /* \"#utility.yul\":8087:8091   */\n      0x00\n        /* \"#utility.yul\":8125:8127   */\n      0x20\n        /* \"#utility.yul\":8114:8123   */\n      dup3\n        /* \"#utility.yul\":8110:8128   */\n      add\n        /* \"#utility.yul\":8102:8128   */\n      swap1\n      pop\n        /* \"#utility.yul\":8174:8183   */\n      dup2\n        /* \"#utility.yul\":8168:8172   */\n      dup2\n        /* \"#utility.yul\":8164:8184   */\n      sub\n        /* \"#utility.yul\":8160:8161   */\n      0x00\n        /* \"#utility.yul\":8149:8158   */\n      dup4\n        /* \"#utility.yul\":8145:8162   */\n      add\n        /* \"#utility.yul\":8138:8185   */\n      mstore\n        /* \"#utility.yul\":8202:8310   */\n      tag_176\n        /* \"#utility.yul\":8305:8309   */\n      dup2\n        /* \"#utility.yul\":8296:8302   */\n      dup5\n        /* \"#utility.yul\":8202:8310   */\n      tag_155\n      jump\t// in\n    tag_176:\n        /* \"#utility.yul\":8194:8310   */\n      swap1\n      pop\n        /* \"#utility.yul\":7944:8317   */\n      swap3\n      swap2\n      pop\n      pop\n      jump\t// out\n        /* \"#utility.yul\":8323:8452   */\n    tag_84:\n        /* \"#utility.yul\":8357:8363   */\n      0x00\n        /* \"#utility.yul\":8384:8404   */\n      tag_178\n      tag_179\n      jump\t// in\n    tag_178:\n        /* \"#utility.yul\":8374:8404   */\n      swap1\n      pop\n        /* \"#utility.yul\":8413:8446   */\n      tag_180\n        /* \"#utility.yul\":8441:8445   */\n      dup3\n        /* \"#utility.yul\":8433:8439   */\n      dup3\n        /* \"#utility.yul\":8413:8446   */\n      tag_181\n      jump\t// in\n    tag_180:\n        /* \"#utility.yul\":8323:8452   */\n      swap2\n      swap1\n      pop\n      jump\t// out\n        /* \"#utility.yul\":8458:8533   */\n    tag_179:\n        /* \"#utility.yul\":8491:8497   */\n      0x00\n        /* \"#utility.yul\":8524:8526   */\n      0x40\n        /* \"#utility.yul\":8518:8527   */\n      mload\n        /* \"#utility.yul\":8508:8527   */\n      swap1\n      pop\n        /* \"#utility.yul\":8458:8533   */\n      swap1\n      jump\t// out\n        /* \"#utility.yul\":8539:8847   */\n    tag_83:\n        /* \"#utility.yul\":8601:8605   */\n      0x00\n        /* \"#utility.yul\":8691:8709   */\n      0xffffffffffffffff\n        /* \"#utility.yul\":8683:8689   */\n      dup3\n        /* \"#utility.yul\":8680:8710   */\n      gt\n        /* \"#utility.yul\":8677:8733   */\n      iszero\n      tag_184\n      jumpi\n        /* \"#utility.yul\":8713:8731   */\n      tag_185\n      tag_186\n      jump\t// in\n    tag_185:\n        /* \"#utility.yul\":8677:8733   */\n    tag_184:\n        /* \"#utility.yul\":8751:8780   */\n      tag_187\n        /* \"#utility.yul\":8773:8779   */\n      dup3\n        /* \"#utility.yul\":8751:8780   */\n      tag_122\n      jump\t// in\n    tag_187:\n        /* \"#utility.yul\":8743:8780   */\n      swap1\n      pop\n        /* \"#utility.yul\":8835:8839   */\n      0x20\n        /* \"#utility.yul\":8829:8833   */\n      dup2\n        /* \"#utility.yul\":8825:8840   */\n      add\n        /* \"#utility.yul\":8817:8840   */\n      swap1\n      pop\n        /* \"#utility.yul\":8539:8847   */\n      swap2\n      swap1\n      pop\n      jump\t// out\n        /* \"#utility.yul\":8853:8952   */\n    tag_116:\n        /* \"#utility.yul\":8905:8911   */\n      0x00\n        /* \"#utility.yul\":8939:8944   */\n      dup2\n        /* \"#utility.yul\":8933:8945   */\n      mload\n        /* \"#utility.yul\":8923:8945   */\n      swap1\n      pop\n        /* \"#utility.yul\":8853:8952   */\n      swap2\n      swap1\n      pop\n      jump\t// out\n        /* \"#utility.yul\":8958:9117   */\n    tag_118:\n        /* \"#utility.yul\":9032:9043   */\n      0x00\n        /* \"#utility.yul\":9066:9072   */\n      dup3\n        /* \"#utility.yul\":9061:9064   */\n      dup3\n        /* \"#utility.yul\":9054:9073   */\n      mstore\n        /* \"#utility.yul\":9106:9110   */\n      0x20\n        /* \"#utility.yul\":9101:9104   */\n      dup3\n        /* \"#utility.yul\":9097:9111   */\n      add\n        /* \"#utility.yul\":9082:9111   */\n      swap1\n      pop\n        /* \"#utility.yul\":8958:9117   */\n      swap3\n      swap2\n      pop\n      pop\n      jump\t// out\n        /* \"#utility.yul\":9123:9292   */\n    tag_132:\n        /* \"#utility.yul\":9207:9218   */\n      0x00\n        /* \"#utility.yul\":9241:9247   */\n      dup3\n        /* \"#utility.yul\":9236:9239   */\n      dup3\n        /* \"#utility.yul\":9229:9248   */\n      mstore\n        /* \"#utility.yul\":9281:9285   */\n      0x20\n        /* \"#utility.yul\":9276:9279   */\n      dup3\n        /* \"#utility.yul\":9272:9286   */\n      add\n        /* \"#utility.yul\":9257:9286   */\n      swap1\n      pop\n        /* \"#utility.yul\":9123:9292   */\n      swap3\n      swap2\n      pop\n      pop\n      jump\t// out\n        /* \"#utility.yul\":9298:9446   */\n    tag_127:\n        /* \"#utility.yul\":9400:9411   */\n      0x00\n        /* \"#utility.yul\":9437:9440   */\n      dup2\n        /* \"#utility.yul\":9422:9440   */\n      swap1\n      pop\n        /* \"#utility.yul\":9298:9446   */\n      swap3\n      swap2\n      pop\n      pop\n      jump\t// out\n        /* \"#utility.yul\":9452:9757   */\n    tag_57:\n        /* \"#utility.yul\":9492:9495   */\n      0x00\n        /* \"#utility.yul\":9511:9531   */\n      tag_193\n        /* \"#utility.yul\":9529:9530   */\n      dup3\n        /* \"#utility.yul\":9511:9531   */\n      tag_162\n      jump\t// in\n    tag_193:\n        /* \"#utility.yul\":9506:9531   */\n      swap2\n      pop\n        /* \"#utility.yul\":9545:9565   */\n      tag_194\n        /* \"#utility.yul\":9563:9564   */\n      dup4\n        /* \"#utility.yul\":9545:9565   */\n      tag_162\n      jump\t// in\n    tag_194:\n        /* \"#utility.yul\":9540:9565   */\n      swap3\n      pop\n        /* \"#utility.yul\":9699:9700   */\n      dup3\n        /* \"#utility.yul\":9631:9697   */\n      0xffffffffffffffffffffffffffffffffffffffffffffffffffffffffffffffff\n        /* \"#utility.yul\":9627:9701   */\n      sub\n        /* \"#utility.yul\":9624:9625   */\n      dup3\n        /* \"#utility.yul\":9621:9702   */\n      gt\n        /* \"#utility.yul\":9618:9725   */\n      iszero\n      tag_195\n      jumpi\n        /* \"#utility.yul\":9705:9723   */\n      tag_196\n      tag_197\n      jump\t// in\n    tag_196:\n        /* \"#utility.yul\":9618:9725   */\n    tag_195:\n        /* \"#utility.yul\":9749:9750   */\n      dup3\n        /* \"#utility.yul\":9746:9747   */\n      dup3\n        /* \"#utility.yul\":9742:9751   */\n      add\n        /* \"#utility.yul\":9735:9751   */\n      swap1\n      pop\n        /* \"#utility.yul\":9452:9757   */\n      swap3\n      swap2\n      pop\n      pop\n      jump\t// out\n        /* \"#utility.yul\":9763:9840   */\n    tag_162:\n        /* \"#utility.yul\":9800:9807   */\n      0x00\n        /* \"#utility.yul\":9829:9834   */\n      dup2\n        /* \"#utility.yul\":9818:9834   */\n      swap1\n      pop\n        /* \"#utility.yul\":9763:9840   */\n      swap2\n      swap1\n      pop\n      jump\t// out\n        /* \"#utility.yul\":9846:10000   */\n    tag_89:\n        /* \"#utility.yul\":9930:9936   */\n      dup3\n        /* \"#utility.yul\":9925:9928   */\n      dup2\n        /* \"#utility.yul\":9920:9923   */\n      dup4\n        /* \"#utility.yul\":9907:9937   */\n      calldatacopy\n        /* \"#utility.yul\":9992:9993   */\n      0x00\n        /* \"#utility.yul\":9983:9989   */\n      dup4\n        /* \"#utility.yul\":9978:9981   */\n      dup4\n        /* \"#utility.yul\":9974:9990   */\n      add\n        /* \"#utility.yul\":9967:9994   */\n      mstore\n        /* \"#utility.yul\":9846:10000   */\n      pop\n      pop\n      pop\n      jump\t// out\n        /* \"#utility.yul\":10006:10313   */\n    tag_120:\n        /* \"#utility.yul\":10074:10075   */\n      0x00\n        /* \"#utility.yul\":10084:10197   */\n    tag_201:\n        /* \"#utility.yul\":10098:10104   */\n      dup4\n        /* \"#utility.yul\":10095:10096   */\n      dup2\n        /* \"#utility.yul\":10092:10105   */\n      lt\n        /* \"#utility.yul\":10084:10197   */\n      iszero\n      tag_203\n      jumpi\n        /* \"#utility.yul\":10183:10184   */\n      dup1\n        /* \"#utility.yul\":10178:10181   */\n      dup3\n        /* \"#utility.yul\":10174:10185   */\n      add\n        /* \"#utility.yul\":10168:10186   */\n      mload\n        /* \"#utility.yul\":10164:10165   */\n      dup2\n        /* \"#utility.yul\":10159:10162   */\n      dup5\n        /* \"#utility.yul\":10155:10166   */\n      add\n        /* \"#utility.yul\":10148:10187   */\n      mstore\n        /* \"#utility.yul\":10120:10122   */\n      0x20\n        /* \"#utility.yul\":10117:10118   */\n      dup2\n        /* \"#utility.yul\":10113:10123   */\n      add\n        /* \"#utility.yul\":10108:10123   */\n      swap1\n      pop\n        /* \"#utility.yul\":10084:10197   */\n      jump(tag_201)\n    tag_203:\n        /* \"#utility.yul\":10215:10221   */\n      dup4\n        /* \"#utility.yul\":10212:10213   */\n      dup2\n        /* \"#utility.yul\":10209:10222   */\n      gt\n        /* \"#utility.yul\":10206:10307   */\n      iszero\n      tag_204\n      jumpi\n        /* \"#utility.yul\":10295:10296   */\n      0x00\n        /* \"#utility.yul\":10286:10292   */\n      dup5\n        /* \"#utility.yul\":10281:10284   */\n      dup5\n        /* \"#utility.yul\":10277:10293   */\n      add\n        /* \"#utility.yul\":10270:10297   */\n      mstore\n        /* \"#utility.yul\":10206:10307   */\n    tag_204:\n        /* \"#utility.yul\":10055:10313   */\n      pop\n        /* \"#utility.yul\":10006:10313   */\n      pop\n      pop\n      pop\n      jump\t// out\n        /* \"#utility.yul\":10319:10639   */\n    tag_49:\n        /* \"#utility.yul\":10363:10369   */\n      0x00\n        /* \"#utility.yul\":10400:10401   */\n      0x02\n        /* \"#utility.yul\":10394:10398   */\n      dup3\n        /* \"#utility.yul\":10390:10402   */\n      div\n        /* \"#utility.yul\":10380:10402   */\n      swap1\n      pop\n        /* \"#utility.yul\":10447:10448   */\n      0x01\n        /* \"#utility.yul\":10441:10445   */\n      dup3\n        /* \"#utility.yul\":10437:10449   */\n      and\n        /* \"#utility.yul\":10468:10486   */\n      dup1\n        /* \"#utility.yul\":10458:10539   */\n      tag_206\n      jumpi\n        /* \"#utility.yul\":10524:10528   */\n      0x7f\n        /* \"#utility.yul\":10516:10522   */\n      dup3\n        /* \"#utility.yul\":10512:10529   */\n      and\n        /* \"#utility.yul\":10502:10529   */\n      swap2\n      pop\n        /* \"#utility.yul\":10458:10539   */\n    tag_206:\n        /* \"#utility.yul\":10586:10588   */\n      0x20\n        /* \"#utility.yul\":10578:10584   */\n      dup3\n        /* \"#utility.yul\":10575:10589   */\n      lt\n        /* \"#utility.yul\":10555:10573   */\n      dup2\n        /* \"#utility.yul\":10552:10590   */\n      eq\n        /* \"#utility.yul\":10549:10633   */\n      iszero\n      tag_207\n      jumpi\n        /* \"#utility.yul\":10605:10623   */\n      tag_208\n      tag_209\n      jump\t// in\n    tag_208:\n        /* \"#utility.yul\":10549:10633   */\n    tag_207:\n        /* \"#utility.yul\":10370:10639   */\n      pop\n        /* \"#utility.yul\":10319:10639   */\n      swap2\n      swap1\n      pop\n      jump\t// out\n        /* \"#utility.yul\":10645:10926   */\n    tag_181:\n        /* \"#utility.yul\":10728:10755   */\n      tag_211\n        /* \"#utility.yul\":10750:10754   */\n      dup3\n        /* \"#utility.yul\":10728:10755   */\n      tag_122\n      jump\t// in\n    tag_211:\n        /* \"#utility.yul\":10720:10726   */\n      dup2\n        /* \"#utility.yul\":10716:10756   */\n      add\n        /* \"#utility.yul\":10858:10864   */\n      dup2\n        /* \"#utility.yul\":10846:10856   */\n      dup2\n        /* \"#utility.yul\":10843:10865   */\n      lt\n        /* \"#utility.yul\":10822:10840   */\n      0xffffffffffffffff\n        /* \"#utility.yul\":10810:10820   */\n      dup3\n        /* \"#utility.yul\":10807:10841   */\n      gt\n        /* \"#utility.yul\":10804:10866   */\n      or\n        /* \"#utility.yul\":10801:10889   */\n      iszero\n      tag_212\n      jumpi\n        /* \"#utility.yul\":10869:10887   */\n      tag_213\n      tag_186\n      jump\t// in\n    tag_213:\n        /* \"#utility.yul\":10801:10889   */\n    tag_212:\n        /* \"#utility.yul\":10909:10919   */\n      dup1\n        /* \"#utility.yul\":10905:10907   */\n      0x40\n        /* \"#utility.yul\":10898:10920   */\n      mstore\n        /* \"#utility.yul\":10688:10926   */\n      pop\n        /* \"#utility.yul\":10645:10926   */\n      pop\n      pop\n      jump\t// out\n        /* \"#utility.yul\":10932:11112   */\n    tag_197:\n        /* \"#utility.yul\":10980:11057   */\n      0x4e487b7100000000000000000000000000000000000000000000000000000000\n        /* \"#utility.yul\":10977:10978   */\n      0x00\n        /* \"#utility.yul\":10970:11058   */\n      mstore\n        /* \"#utility.yul\":11077:11081   */\n      0x11\n        /* \"#utility.yul\":11074:11075   */\n      0x04\n        /* \"#utility.yul\":11067:11082   */\n      mstore\n        /* \"#utility.yul\":11101:11105   */\n      0x24\n        /* \"#utility.yul\":11098:11099   */\n      0x00\n        /* \"#utility.yul\":11091:11106   */\n      revert\n        /* \"#utility.yul\":11118:11298   */\n    tag_209:\n        /* \"#utility.yul\":11166:11243   */\n      0x4e487b7100000000000000000000000000000000000000000000000000000000\n        /* \"#utility.yul\":11163:11164   */\n      0x00\n        /* \"#utility.yul\":11156:11244   */\n      mstore\n        /* \"#utility.yul\":11263:11267   */\n      0x22\n        /* \"#utility.yul\":11260:11261   */\n      0x04\n        /* \"#utility.yul\":11253:11268   */\n      mstore\n        /* \"#utility.yul\":11287:11291   */\n      0x24\n        /* \"#utility.yul\":11284:11285   */\n      0x00\n        /* \"#utility.yul\":11277:11292   */\n      revert\n        /* \"#utility.yul\":11304:11484   */\n    tag_186:\n        /* \"#utility.yul\":11352:11429   */\n      0x4e487b7100000000000000000000000000000000000000000000000000000000\n        /* \"#utility.yul\":11349:11350   */\n      0x00\n        /* \"#utility.yul\":11342:11430   */\n      mstore\n        /* \"#utility.yul\":11449:11453   */\n      0x41\n        /* \"#utility.yul\":11446:11447   */\n      0x04\n        /* \"#utility.yul\":11439:11454   */\n      mstore\n        /* \"#utility.yul\":11473:11477   */\n      0x24\n        /* \"#utility.yul\":11470:11471   */\n      0x00\n        /* \"#utility.yul\":11463:11478   */\n      revert\n        /* \"#utility.yul\":11490:11607   */\n    tag_94:\n        /* \"#utility.yul\":11599:11600   */\n      0x00\n        /* \"#utility.yul\":11596:11597   */\n      dup1\n        /* \"#utility.yul\":11589:11601   */\n      revert\n        /* \"#utility.yul\":11613:11730   */\n    tag_87:\n        /* \"#utility.yul\":11722:11723   */\n      0x00\n        /* \"#utility.yul\":11719:11720   */\n      dup1\n        /* \"#utility.yul\":11712:11724   */\n      revert\n        /* \"#utility.yul\":11736:11853   */\n    tag_102:\n        /* \"#utility.yul\":11845:11846   */\n      0x00\n        /* \"#utility.yul\":11842:11843   */\n      dup1\n        /* \"#utility.yul\":11835:11847   */\n      revert\n        /* \"#utility.yul\":11859:11976   */\n    tag_99:\n        /* \"#utility.yul\":11968:11969   */\n      0x00\n        /* \"#utility.yul\":11965:11966   */\n      dup1\n        /* \"#utility.yul\":11958:11970   */\n      revert\n        /* \"#utility.yul\":11982:12084   */\n    tag_122:\n        /* \"#utility.yul\":12023:12029   */\n      0x00\n        /* \"#utility.yul\":12074:12076   */\n      0x1f\n        /* \"#utility.yul\":12070:12077   */\n      not\n        /* \"#utility.yul\":12065:12067   */\n      0x1f\n        /* \"#utility.yul\":12058:12063   */\n      dup4\n        /* \"#utility.yul\":12054:12068   */\n      add\n        /* \"#utility.yul\":12050:12078   */\n      and\n        /* \"#utility.yul\":12040:12078   */\n      swap1\n      pop\n        /* \"#utility.yul\":11982:12084   */\n      swap2\n      swap1\n      pop\n      jump\t// out\n        /* \"#utility.yul\":12090:12260   */\n    tag_134:\n        /* \"#utility.yul\":12230:12252   */\n      0x556e617574686f72697a6564204163636573732e000000000000000000000000\n        /* \"#utility.yul\":12226:12227   */\n      0x00\n        /* \"#utility.yul\":12218:12224   */\n      dup3\n        /* \"#utility.yul\":12214:12228   */\n      add\n        /* \"#utility.yul\":12207:12253   */\n      mstore\n        /* \"#utility.yul\":12090:12260   */\n      pop\n      jump\t// out\n        /* \"#utility.yul\":12266:12437   */\n    tag_139:\n        /* \"#utility.yul\":12406:12429   */\n      0x53796d626f6c2063616e277420626520656d7074790000000000000000000000\n        /* \"#utility.yul\":12402:12403   */\n      0x00\n        /* \"#utility.yul\":12394:12400   */\n      dup3\n        /* \"#utility.yul\":12390:12404   */\n      add\n        /* \"#utility.yul\":12383:12430   */\n      mstore\n        /* \"#utility.yul\":12266:12437   */\n      pop\n      jump\t// out\n        /* \"#utility.yul\":12443:12609   */\n    tag_144:\n        /* \"#utility.yul\":12583:12601   */\n      0x416c726561647920537461727465642e00000000000000000000000000000000\n        /* \"#utility.yul\":12579:12580   */\n      0x00\n        /* \"#utility.yul\":12571:12577   */\n      dup3\n        /* \"#utility.yul\":12567:12581   */\n      add\n        /* \"#utility.yul\":12560:12602   */\n      mstore\n        /* \"#utility.yul\":12443:12609   */\n      pop\n      jump\t// out\n        /* \"#utility.yul\":12615:12841   */\n    tag_149:\n        /* \"#utility.yul\":12755:12789   */\n      0x41746c6561737420322063616e646964617465206d7573742062652072656769\n        /* \"#utility.yul\":12751:12752   */\n      0x00\n        /* \"#utility.yul\":12743:12749   */\n      dup3\n        /* \"#utility.yul\":12739:12753   */\n      add\n        /* \"#utility.yul\":12732:12790   */\n      mstore\n        /* \"#utility.yul\":12824:12833   */\n      0x7374657265642e00000000000000000000000000000000000000000000000000\n        /* \"#utility.yul\":12819:12821   */\n      0x20\n        /* \"#utility.yul\":12811:12817   */\n      dup3\n        /* \"#utility.yul\":12807:12822   */\n      add\n        /* \"#utility.yul\":12800:12834   */\n      mstore\n        /* \"#utility.yul\":12615:12841   */\n      pop\n      jump\t// out\n        /* \"#utility.yul\":12847:13016   */\n    tag_154:\n        /* \"#utility.yul\":12987:13008   */\n      0x4e616d652043616e277420626520656d70747900000000000000000000000000\n        /* \"#utility.yul\":12983:12984   */\n      0x00\n        /* \"#utility.yul\":12975:12981   */\n      dup3\n        /* \"#utility.yul\":12971:12985   */\n      add\n        /* \"#utility.yul\":12964:13009   */\n      mstore\n        /* \"#utility.yul\":12847:13016   */\n      pop\n      jump\t// out\n\n    auxdata: 0xa26469706673582212207e1bc51c03a819808632593878c9f81b787e82aeea8cc0f4bb79837a1b38fa4464736f6c63430008070033\n}\n",
				"bytecode": {
					"linkReferences": {},
					"object": "60806040526000600160146101000a81548160ff02191690831515021790555034801561002b57600080fd5b5033600160006101000a81548173ffffffffffffffffffffffffffffffffffffffff021916908373ffffffffffffffffffffffffffffffffffffffff160217905550610cc48061007c6000396000f3fe608060405234801561001057600080fd5b506004361061004c5760003560e01c8063137967a614610051578063196b2e241461006d5780631f6d52c51461009d5780634c0a6af0146100b9575b600080fd5b61006b600480360381019061006691906106a0565b6100c3565b005b61008760048036038101906100829190610657565b6102d0565b6040516100949190610934565b60405180910390f35b6100b760048036038101906100b29190610657565b6103a4565b005b6100c16103e0565b005b600160009054906101000a900473ffffffffffffffffffffffffffffffffffffffff1673ffffffffffffffffffffffffffffffffffffffff163373ffffffffffffffffffffffffffffffffffffffff1614610153576040517f08c379a000000000000000000000000000000000000000000000000000000000815260040161014a90610894565b60405180910390fd5b60011515600160149054906101000a900460ff161515146101a9576040517f08c379a00000000000000000000000000000000000000000000000000000000081526004016101a0906108d4565b60405180910390fd5b6000825114156101ee576040517f08c379a00000000000000000000000000000000000000000000000000000000081526004016101e590610914565b60405180910390fd5b600081511415610233576040517f08c379a000000000000000000000000000000000000000000000000000000000815260040161022a906108b4565b60405180910390fd5b60028190806001815401808255809150506001900390600052602060002001600090919091909150908051906020019061026e92919061052a565b5081600382604051610280919061087d565b908152602001604051809103902060000190805190602001906102a492919061052a565b5060006003826040516102b7919061087d565b9081526020016040518091039020600101819055505050565b6102d86105b0565b6003826040516102e8919061087d565b908152602001604051809103902060405180604001604052908160008201805461031190610a86565b80601f016020809104026020016040519081016040528092919081815260200182805461033d90610a86565b801561038a5780601f1061035f5761010080835404028352916020019161038a565b820191906000526020600020905b81548152906001019060200180831161036d57829003601f168201915b505050505081526020016001820154815250509050919050565b60016003826040516103b6919061087d565b908152602001604051809103902060010160008282546103d691906109e4565b9250508190555050565b600160009054906101000a900473ffffffffffffffffffffffffffffffffffffffff1673ffffffffffffffffffffffffffffffffffffffff163373ffffffffffffffffffffffffffffffffffffffff1614610470576040517f08c379a000000000000000000000000000000000000000000000000000000000815260040161046790610894565b60405180910390fd5b60011515600160149054906101000a900460ff161515146104c6576040517f08c379a00000000000000000000000000000000000000000000000000000000081526004016104bd906108d4565b60405180910390fd5b60006002805490501161050e576040517f08c379a0000000000000000000000000000000000000000000000000000000008152600401610505906108f4565b60405180910390fd5b60018060146101000a81548160ff021916908315150217905550565b82805461053690610a86565b90600052602060002090601f016020900481019282610558576000855561059f565b82601f1061057157805160ff191683800117855561059f565b8280016001018555821561059f579182015b8281111561059e578251825591602001919060010190610583565b5b5090506105ac91906105ca565b5090565b604051806040016040528060608152602001600081525090565b5b808211156105e35760008160009055506001016105cb565b5090565b60006105fa6105f58461097b565b610956565b90508281526020810184848401111561061657610615610b7b565b5b610621848285610a44565b509392505050565b600082601f83011261063e5761063d610b76565b5b813561064e8482602086016105e7565b91505092915050565b60006020828403121561066d5761066c610b85565b5b600082013567ffffffffffffffff81111561068b5761068a610b80565b5b61069784828501610629565b91505092915050565b600080604083850312156106b7576106b6610b85565b5b600083013567ffffffffffffffff8111156106d5576106d4610b80565b5b6106e185828601610629565b925050602083013567ffffffffffffffff81111561070257610701610b80565b5b61070e85828601610629565b9150509250929050565b6000610723826109ac565b61072d81856109b7565b935061073d818560208601610a53565b61074681610b8a565b840191505092915050565b600061075c826109ac565b61076681856109d9565b9350610776818560208601610a53565b80840191505092915050565b600061078f6014836109c8565b915061079a82610b9b565b602082019050919050565b60006107b26015836109c8565b91506107bd82610bc4565b602082019050919050565b60006107d56010836109c8565b91506107e082610bed565b602082019050919050565b60006107f86027836109c8565b915061080382610c16565b604082019050919050565b600061081b6013836109c8565b915061082682610c65565b602082019050919050565b6000604083016000830151848203600086015261084e8282610718565b9150506020830151610863602086018261086e565b508091505092915050565b61087781610a3a565b82525050565b60006108898284610751565b915081905092915050565b600060208201905081810360008301526108ad81610782565b9050919050565b600060208201905081810360008301526108cd816107a5565b9050919050565b600060208201905081810360008301526108ed816107c8565b9050919050565b6000602082019050818103600083015261090d816107eb565b9050919050565b6000602082019050818103600083015261092d8161080e565b9050919050565b6000602082019050818103600083015261094e8184610831565b905092915050565b6000610960610971565b905061096c8282610ab8565b919050565b6000604051905090565b600067ffffffffffffffff82111561099657610995610b47565b5b61099f82610b8a565b9050602081019050919050565b600081519050919050565b600082825260208201905092915050565b600082825260208201905092915050565b600081905092915050565b60006109ef82610a3a565b91506109fa83610a3a565b9250827fffffffffffffffffffffffffffffffffffffffffffffffffffffffffffffffff03821115610a2f57610a2e610ae9565b5b828201905092915050565b6000819050919050565b82818337600083830152505050565b60005b83811015610a71578082015181840152602081019050610a56565b83811115610a80576000848401525b50505050565b60006002820490506001821680610a9e57607f821691505b60208210811415610ab257610ab1610b18565b5b50919050565b610ac182610b8a565b810181811067ffffffffffffffff82111715610ae057610adf610b47565b5b80604052505050565b7f4e487b7100000000000000000000000000000000000000000000000000000000600052601160045260246000fd5b7f4e487b7100000000000000000000000000000000000000000000000000000000600052602260045260246000fd5b7f4e487b7100000000000000000000000000000000000000000000000000000000600052604160045260246000fd5b600080fd5b600080fd5b600080fd5b600080fd5b6000601f19601f8301169050919050565b7f556e617574686f72697a6564204163636573732e000000000000000000000000600082015250565b7f53796d626f6c2063616e277420626520656d7074790000000000000000000000600082015250565b7f416c726561647920537461727465642e00000000000000000000000000000000600082015250565b7f41746c6561737420322063616e646964617465206d757374206265207265676960008201527f7374657265642e00000000000000000000000000000000000000000000000000602082015250565b7f4e616d652043616e277420626520656d7074790000000000000000000000000060008201525056fea26469706673582212207e1bc51c03a819808632593878c9f81b787e82aeea8cc0f4bb79837a1b38fa4464736f6c63430008070033",
					"opcodes": "PUSH1 0x80 PUSH1 0x40 MSTORE PUSH1 0x0 PUSH1 0x1 PUSH1 0x14 PUSH2 0x100 EXP DUP2 SLOAD DUP2 PUSH1 0xFF MUL NOT AND SWAP1 DUP4 ISZERO ISZERO MUL OR SWAP1 SSTORE POP CALLVALUE DUP1 ISZERO PUSH2 0x2B JUMPI PUSH1 0x0 DUP1 REVERT JUMPDEST POP CALLER PUSH1 0x1 PUSH1 0x0 PUSH2 0x100 EXP DUP2 SLOAD DUP2 PUSH20 0xFFFFFFFFFFFFFFFFFFFFFFFFFFFFFFFFFFFFFFFF MUL NOT AND SWAP1 DUP4 PUSH20 0xFFFFFFFFFFFFFFFFFFFFFFFFFFFFFFFFFFFFFFFF AND MUL OR SWAP1 SSTORE POP PUSH2 0xCC4 DUP1 PUSH2 0x7C PUSH1 0x0 CODECOPY PUSH1 0x0 RETURN INVALID PUSH1 0x80 PUSH1 0x40 MSTORE CALLVALUE DUP1 ISZERO PUSH2 0x10 JUMPI PUSH1 0x0 DUP1 REVERT JUMPDEST POP PUSH1 0x4 CALLDATASIZE LT PUSH2 0x4C JUMPI PUSH1 0x0 CALLDATALOAD PUSH1 0xE0 SHR DUP1 PUSH4 0x137967A6 EQ PUSH2 0x51 JUMPI DUP1 PUSH4 0x196B2E24 EQ PUSH2 0x6D JUMPI DUP1 PUSH4 0x1F6D52C5 EQ PUSH2 0x9D JUMPI DUP1 PUSH4 0x4C0A6AF0 EQ PUSH2 0xB9 JUMPI JUMPDEST PUSH1 0x0 DUP1 REVERT JUMPDEST PUSH2 0x6B PUSH1 0x4 DUP1 CALLDATASIZE SUB DUP2 ADD SWAP1 PUSH2 0x66 SWAP2 SWAP1 PUSH2 0x6A0 JUMP JUMPDEST PUSH2 0xC3 JUMP JUMPDEST STOP JUMPDEST PUSH2 0x87 PUSH1 0x4 DUP1 CALLDATASIZE SUB DUP2 ADD SWAP1 PUSH2 0x82 SWAP2 SWAP1 PUSH2 0x657 JUMP JUMPDEST PUSH2 0x2D0 JUMP JUMPDEST PUSH1 0x40 MLOAD PUSH2 0x94 SWAP2 SWAP1 PUSH2 0x934 JUMP JUMPDEST PUSH1 0x40 MLOAD DUP1 SWAP2 SUB SWAP1 RETURN JUMPDEST PUSH2 0xB7 PUSH1 0x4 DUP1 CALLDATASIZE SUB DUP2 ADD SWAP1 PUSH2 0xB2 SWAP2 SWAP1 PUSH2 0x657 JUMP JUMPDEST PUSH2 0x3A4 JUMP JUMPDEST STOP JUMPDEST PUSH2 0xC1 PUSH2 0x3E0 JUMP JUMPDEST STOP JUMPDEST PUSH1 0x1 PUSH1 0x0 SWAP1 SLOAD SWAP1 PUSH2 0x100 EXP SWAP1 DIV PUSH20 0xFFFFFFFFFFFFFFFFFFFFFFFFFFFFFFFFFFFFFFFF AND PUSH20 0xFFFFFFFFFFFFFFFFFFFFFFFFFFFFFFFFFFFFFFFF AND CALLER PUSH20 0xFFFFFFFFFFFFFFFFFFFFFFFFFFFFFFFFFFFFFFFF AND EQ PUSH2 0x153 JUMPI PUSH1 0x40 MLOAD PUSH32 0x8C379A000000000000000000000000000000000000000000000000000000000 DUP2 MSTORE PUSH1 0x4 ADD PUSH2 0x14A SWAP1 PUSH2 0x894 JUMP JUMPDEST PUSH1 0x40 MLOAD DUP1 SWAP2 SUB SWAP1 REVERT JUMPDEST PUSH1 0x1 ISZERO ISZERO PUSH1 0x1 PUSH1 0x14 SWAP1 SLOAD SWAP1 PUSH2 0x100 EXP SWAP1 DIV PUSH1 0xFF AND ISZERO ISZERO EQ PUSH2 0x1A9 JUMPI PUSH1 0x40 MLOAD PUSH32 0x8C379A000000000000000000000000000000000000000000000000000000000 DUP2 MSTORE PUSH1 0x4 ADD PUSH2 0x1A0 SWAP1 PUSH2 0x8D4 JUMP JUMPDEST PUSH1 0x40 MLOAD DUP1 SWAP2 SUB SWAP1 REVERT JUMPDEST PUSH1 0x0 DUP3 MLOAD EQ ISZERO PUSH2 0x1EE JUMPI PUSH1 0x40 MLOAD PUSH32 0x8C379A000000000000000000000000000000000000000000000000000000000 DUP2 MSTORE PUSH1 0x4 ADD PUSH2 0x1E5 SWAP1 PUSH2 0x914 JUMP JUMPDEST PUSH1 0x40 MLOAD DUP1 SWAP2 SUB SWAP1 REVERT JUMPDEST PUSH1 0x0 DUP2 MLOAD EQ ISZERO PUSH2 0x233 JUMPI PUSH1 0x40 MLOAD PUSH32 0x8C379A000000000000000000000000000000000000000000000000000000000 DUP2 MSTORE PUSH1 0x4 ADD PUSH2 0x22A SWAP1 PUSH2 0x8B4 JUMP JUMPDEST PUSH1 0x40 MLOAD DUP1 SWAP2 SUB SWAP1 REVERT JUMPDEST PUSH1 0x2 DUP2 SWAP1 DUP1 PUSH1 0x1 DUP2 SLOAD ADD DUP1 DUP3 SSTORE DUP1 SWAP2 POP POP PUSH1 0x1 SWAP1 SUB SWAP1 PUSH1 0x0 MSTORE PUSH1 0x20 PUSH1 0x0 KECCAK256 ADD PUSH1 0x0 SWAP1 SWAP2 SWAP1 SWAP2 SWAP1 SWAP2 POP SWAP1 DUP1 MLOAD SWAP1 PUSH1 0x20 ADD SWAP1 PUSH2 0x26E SWAP3 SWAP2 SWAP1 PUSH2 0x52A JUMP JUMPDEST POP DUP2 PUSH1 0x3 DUP3 PUSH1 0x40 MLOAD PUSH2 0x280 SWAP2 SWAP1 PUSH2 0x87D JUMP JUMPDEST SWAP1 DUP2 MSTORE PUSH1 0x20 ADD PUSH1 0x40 MLOAD DUP1 SWAP2 SUB SWAP1 KECCAK256 PUSH1 0x0 ADD SWAP1 DUP1 MLOAD SWAP1 PUSH1 0x20 ADD SWAP1 PUSH2 0x2A4 SWAP3 SWAP2 SWAP1 PUSH2 0x52A JUMP JUMPDEST POP PUSH1 0x0 PUSH1 0x3 DUP3 PUSH1 0x40 MLOAD PUSH2 0x2B7 SWAP2 SWAP1 PUSH2 0x87D JUMP JUMPDEST SWAP1 DUP2 MSTORE PUSH1 0x20 ADD PUSH1 0x40 MLOAD DUP1 SWAP2 SUB SWAP1 KECCAK256 PUSH1 0x1 ADD DUP2 SWAP1 SSTORE POP POP POP JUMP JUMPDEST PUSH2 0x2D8 PUSH2 0x5B0 JUMP JUMPDEST PUSH1 0x3 DUP3 PUSH1 0x40 MLOAD PUSH2 0x2E8 SWAP2 SWAP1 PUSH2 0x87D JUMP JUMPDEST SWAP1 DUP2 MSTORE PUSH1 0x20 ADD PUSH1 0x40 MLOAD DUP1 SWAP2 SUB SWAP1 KECCAK256 PUSH1 0x40 MLOAD DUP1 PUSH1 0x40 ADD PUSH1 0x40 MSTORE SWAP1 DUP2 PUSH1 0x0 DUP3 ADD DUP1 SLOAD PUSH2 0x311 SWAP1 PUSH2 0xA86 JUMP JUMPDEST DUP1 PUSH1 0x1F ADD PUSH1 0x20 DUP1 SWAP2 DIV MUL PUSH1 0x20 ADD PUSH1 0x40 MLOAD SWAP1 DUP2 ADD PUSH1 0x40 MSTORE DUP1 SWAP3 SWAP2 SWAP1 DUP2 DUP2 MSTORE PUSH1 0x20 ADD DUP3 DUP1 SLOAD PUSH2 0x33D SWAP1 PUSH2 0xA86 JUMP JUMPDEST DUP1 ISZERO PUSH2 0x38A JUMPI DUP1 PUSH1 0x1F LT PUSH2 0x35F JUMPI PUSH2 0x100 DUP1 DUP4 SLOAD DIV MUL DUP4 MSTORE SWAP2 PUSH1 0x20 ADD SWAP2 PUSH2 0x38A JUMP JUMPDEST DUP3 ADD SWAP2 SWAP1 PUSH1 0x0 MSTORE PUSH1 0x20 PUSH1 0x0 KECCAK256 SWAP1 JUMPDEST DUP2 SLOAD DUP2 MSTORE SWAP1 PUSH1 0x1 ADD SWAP1 PUSH1 0x20 ADD DUP1 DUP4 GT PUSH2 0x36D JUMPI DUP3 SWAP1 SUB PUSH1 0x1F AND DUP3 ADD SWAP2 JUMPDEST POP POP POP POP POP DUP2 MSTORE PUSH1 0x20 ADD PUSH1 0x1 DUP3 ADD SLOAD DUP2 MSTORE POP POP SWAP1 POP SWAP2 SWAP1 POP JUMP JUMPDEST PUSH1 0x1 PUSH1 0x3 DUP3 PUSH1 0x40 MLOAD PUSH2 0x3B6 SWAP2 SWAP1 PUSH2 0x87D JUMP JUMPDEST SWAP1 DUP2 MSTORE PUSH1 0x20 ADD PUSH1 0x40 MLOAD DUP1 SWAP2 SUB SWAP1 KECCAK256 PUSH1 0x1 ADD PUSH1 0x0 DUP3 DUP3 SLOAD PUSH2 0x3D6 SWAP2 SWAP1 PUSH2 0x9E4 JUMP JUMPDEST SWAP3 POP POP DUP2 SWAP1 SSTORE POP POP JUMP JUMPDEST PUSH1 0x1 PUSH1 0x0 SWAP1 SLOAD SWAP1 PUSH2 0x100 EXP SWAP1 DIV PUSH20 0xFFFFFFFFFFFFFFFFFFFFFFFFFFFFFFFFFFFFFFFF AND PUSH20 0xFFFFFFFFFFFFFFFFFFFFFFFFFFFFFFFFFFFFFFFF AND CALLER PUSH20 0xFFFFFFFFFFFFFFFFFFFFFFFFFFFFFFFFFFFFFFFF AND EQ PUSH2 0x470 JUMPI PUSH1 0x40 MLOAD PUSH32 0x8C379A000000000000000000000000000000000000000000000000000000000 DUP2 MSTORE PUSH1 0x4 ADD PUSH2 0x467 SWAP1 PUSH2 0x894 JUMP JUMPDEST PUSH1 0x40 MLOAD DUP1 SWAP2 SUB SWAP1 REVERT JUMPDEST PUSH1 0x1 ISZERO ISZERO PUSH1 0x1 PUSH1 0x14 SWAP1 SLOAD SWAP1 PUSH2 0x100 EXP SWAP1 DIV PUSH1 0xFF AND ISZERO ISZERO EQ PUSH2 0x4C6 JUMPI PUSH1 0x40 MLOAD PUSH32 0x8C379A000000000000000000000000000000000000000000000000000000000 DUP2 MSTORE PUSH1 0x4 ADD PUSH2 0x4BD SWAP1 PUSH2 0x8D4 JUMP JUMPDEST PUSH1 0x40 MLOAD DUP1 SWAP2 SUB SWAP1 REVERT JUMPDEST PUSH1 0x0 PUSH1 0x2 DUP1 SLOAD SWAP1 POP GT PUSH2 0x50E JUMPI PUSH1 0x40 MLOAD PUSH32 0x8C379A000000000000000000000000000000000000000000000000000000000 DUP2 MSTORE PUSH1 0x4 ADD PUSH2 0x505 SWAP1 PUSH2 0x8F4 JUMP JUMPDEST PUSH1 0x40 MLOAD DUP1 SWAP2 SUB SWAP1 REVERT JUMPDEST PUSH1 0x1 DUP1 PUSH1 0x14 PUSH2 0x100 EXP DUP2 SLOAD DUP2 PUSH1 0xFF MUL NOT AND SWAP1 DUP4 ISZERO ISZERO MUL OR SWAP1 SSTORE POP JUMP JUMPDEST DUP3 DUP1 SLOAD PUSH2 0x536 SWAP1 PUSH2 0xA86 JUMP JUMPDEST SWAP1 PUSH1 0x0 MSTORE PUSH1 0x20 PUSH1 0x0 KECCAK256 SWAP1 PUSH1 0x1F ADD PUSH1 0x20 SWAP1 DIV DUP2 ADD SWAP3 DUP3 PUSH2 0x558 JUMPI PUSH1 0x0 DUP6 SSTORE PUSH2 0x59F JUMP JUMPDEST DUP3 PUSH1 0x1F LT PUSH2 0x571 JUMPI DUP1 MLOAD PUSH1 0xFF NOT AND DUP4 DUP1 ADD OR DUP6 SSTORE PUSH2 0x59F JUMP JUMPDEST DUP3 DUP1 ADD PUSH1 0x1 ADD DUP6 SSTORE DUP3 ISZERO PUSH2 0x59F JUMPI SWAP2 DUP3 ADD JUMPDEST DUP3 DUP2 GT ISZERO PUSH2 0x59E JUMPI DUP3 MLOAD DUP3 SSTORE SWAP2 PUSH1 0x20 ADD SWAP2 SWAP1 PUSH1 0x1 ADD SWAP1 PUSH2 0x583 JUMP JUMPDEST JUMPDEST POP SWAP1 POP PUSH2 0x5AC SWAP2 SWAP1 PUSH2 0x5CA JUMP JUMPDEST POP SWAP1 JUMP JUMPDEST PUSH1 0x40 MLOAD DUP1 PUSH1 0x40 ADD PUSH1 0x40 MSTORE DUP1 PUSH1 0x60 DUP2 MSTORE PUSH1 0x20 ADD PUSH1 0x0 DUP2 MSTORE POP SWAP1 JUMP JUMPDEST JUMPDEST DUP1 DUP3 GT ISZERO PUSH2 0x5E3 JUMPI PUSH1 0x0 DUP2 PUSH1 0x0 SWAP1 SSTORE POP PUSH1 0x1 ADD PUSH2 0x5CB JUMP JUMPDEST POP SWAP1 JUMP JUMPDEST PUSH1 0x0 PUSH2 0x5FA PUSH2 0x5F5 DUP5 PUSH2 0x97B JUMP JUMPDEST PUSH2 0x956 JUMP JUMPDEST SWAP1 POP DUP3 DUP2 MSTORE PUSH1 0x20 DUP2 ADD DUP5 DUP5 DUP5 ADD GT ISZERO PUSH2 0x616 JUMPI PUSH2 0x615 PUSH2 0xB7B JUMP JUMPDEST JUMPDEST PUSH2 0x621 DUP5 DUP3 DUP6 PUSH2 0xA44 JUMP JUMPDEST POP SWAP4 SWAP3 POP POP POP JUMP JUMPDEST PUSH1 0x0 DUP3 PUSH1 0x1F DUP4 ADD SLT PUSH2 0x63E JUMPI PUSH2 0x63D PUSH2 0xB76 JUMP JUMPDEST JUMPDEST DUP2 CALLDATALOAD PUSH2 0x64E DUP5 DUP3 PUSH1 0x20 DUP7 ADD PUSH2 0x5E7 JUMP JUMPDEST SWAP2 POP POP SWAP3 SWAP2 POP POP JUMP JUMPDEST PUSH1 0x0 PUSH1 0x20 DUP3 DUP5 SUB SLT ISZERO PUSH2 0x66D JUMPI PUSH2 0x66C PUSH2 0xB85 JUMP JUMPDEST JUMPDEST PUSH1 0x0 DUP3 ADD CALLDATALOAD PUSH8 0xFFFFFFFFFFFFFFFF DUP2 GT ISZERO PUSH2 0x68B JUMPI PUSH2 0x68A PUSH2 0xB80 JUMP JUMPDEST JUMPDEST PUSH2 0x697 DUP5 DUP3 DUP6 ADD PUSH2 0x629 JUMP JUMPDEST SWAP2 POP POP SWAP3 SWAP2 POP POP JUMP JUMPDEST PUSH1 0x0 DUP1 PUSH1 0x40 DUP4 DUP6 SUB SLT ISZERO PUSH2 0x6B7 JUMPI PUSH2 0x6B6 PUSH2 0xB85 JUMP JUMPDEST JUMPDEST PUSH1 0x0 DUP4 ADD CALLDATALOAD PUSH8 0xFFFFFFFFFFFFFFFF DUP2 GT ISZERO PUSH2 0x6D5 JUMPI PUSH2 0x6D4 PUSH2 0xB80 JUMP JUMPDEST JUMPDEST PUSH2 0x6E1 DUP6 DUP3 DUP7 ADD PUSH2 0x629 JUMP JUMPDEST SWAP3 POP POP PUSH1 0x20 DUP4 ADD CALLDATALOAD PUSH8 0xFFFFFFFFFFFFFFFF DUP2 GT ISZERO PUSH2 0x702 JUMPI PUSH2 0x701 PUSH2 0xB80 JUMP JUMPDEST JUMPDEST PUSH2 0x70E DUP6 DUP3 DUP7 ADD PUSH2 0x629 JUMP JUMPDEST SWAP2 POP POP SWAP3 POP SWAP3 SWAP1 POP JUMP JUMPDEST PUSH1 0x0 PUSH2 0x723 DUP3 PUSH2 0x9AC JUMP JUMPDEST PUSH2 0x72D DUP2 DUP6 PUSH2 0x9B7 JUMP JUMPDEST SWAP4 POP PUSH2 0x73D DUP2 DUP6 PUSH1 0x20 DUP7 ADD PUSH2 0xA53 JUMP JUMPDEST PUSH2 0x746 DUP2 PUSH2 0xB8A JUMP JUMPDEST DUP5 ADD SWAP2 POP POP SWAP3 SWAP2 POP POP JUMP JUMPDEST PUSH1 0x0 PUSH2 0x75C DUP3 PUSH2 0x9AC JUMP JUMPDEST PUSH2 0x766 DUP2 DUP6 PUSH2 0x9D9 JUMP JUMPDEST SWAP4 POP PUSH2 0x776 DUP2 DUP6 PUSH1 0x20 DUP7 ADD PUSH2 0xA53 JUMP JUMPDEST DUP1 DUP5 ADD SWAP2 POP POP SWAP3 SWAP2 POP POP JUMP JUMPDEST PUSH1 0x0 PUSH2 0x78F PUSH1 0x14 DUP4 PUSH2 0x9C8 JUMP JUMPDEST SWAP2 POP PUSH2 0x79A DUP3 PUSH2 0xB9B JUMP JUMPDEST PUSH1 0x20 DUP3 ADD SWAP1 POP SWAP2 SWAP1 POP JUMP JUMPDEST PUSH1 0x0 PUSH2 0x7B2 PUSH1 0x15 DUP4 PUSH2 0x9C8 JUMP JUMPDEST SWAP2 POP PUSH2 0x7BD DUP3 PUSH2 0xBC4 JUMP JUMPDEST PUSH1 0x20 DUP3 ADD SWAP1 POP SWAP2 SWAP1 POP JUMP JUMPDEST PUSH1 0x0 PUSH2 0x7D5 PUSH1 0x10 DUP4 PUSH2 0x9C8 JUMP JUMPDEST SWAP2 POP PUSH2 0x7E0 DUP3 PUSH2 0xBED JUMP JUMPDEST PUSH1 0x20 DUP3 ADD SWAP1 POP SWAP2 SWAP1 POP JUMP JUMPDEST PUSH1 0x0 PUSH2 0x7F8 PUSH1 0x27 DUP4 PUSH2 0x9C8 JUMP JUMPDEST SWAP2 POP PUSH2 0x803 DUP3 PUSH2 0xC16 JUMP JUMPDEST PUSH1 0x40 DUP3 ADD SWAP1 POP SWAP2 SWAP1 POP JUMP JUMPDEST PUSH1 0x0 PUSH2 0x81B PUSH1 0x13 DUP4 PUSH2 0x9C8 JUMP JUMPDEST SWAP2 POP PUSH2 0x826 DUP3 PUSH2 0xC65 JUMP JUMPDEST PUSH1 0x20 DUP3 ADD SWAP1 POP SWAP2 SWAP1 POP JUMP JUMPDEST PUSH1 0x0 PUSH1 0x40 DUP4 ADD PUSH1 0x0 DUP4 ADD MLOAD DUP5 DUP3 SUB PUSH1 0x0 DUP7 ADD MSTORE PUSH2 0x84E DUP3 DUP3 PUSH2 0x718 JUMP JUMPDEST SWAP2 POP POP PUSH1 0x20 DUP4 ADD MLOAD PUSH2 0x863 PUSH1 0x20 DUP7 ADD DUP3 PUSH2 0x86E JUMP JUMPDEST POP DUP1 SWAP2 POP POP SWAP3 SWAP2 POP POP JUMP JUMPDEST PUSH2 0x877 DUP2 PUSH2 0xA3A JUMP JUMPDEST DUP3 MSTORE POP POP JUMP JUMPDEST PUSH1 0x0 PUSH2 0x889 DUP3 DUP5 PUSH2 0x751 JUMP JUMPDEST SWAP2 POP DUP2 SWAP1 POP SWAP3 SWAP2 POP POP JUMP JUMPDEST PUSH1 0x0 PUSH1 0x20 DUP3 ADD SWAP1 POP DUP2 DUP2 SUB PUSH1 0x0 DUP4 ADD MSTORE PUSH2 0x8AD DUP2 PUSH2 0x782 JUMP JUMPDEST SWAP1 POP SWAP2 SWAP1 POP JUMP JUMPDEST PUSH1 0x0 PUSH1 0x20 DUP3 ADD SWAP1 POP DUP2 DUP2 SUB PUSH1 0x0 DUP4 ADD MSTORE PUSH2 0x8CD DUP2 PUSH2 0x7A5 JUMP JUMPDEST SWAP1 POP SWAP2 SWAP1 POP JUMP JUMPDEST PUSH1 0x0 PUSH1 0x20 DUP3 ADD SWAP1 POP DUP2 DUP2 SUB PUSH1 0x0 DUP4 ADD MSTORE PUSH2 0x8ED DUP2 PUSH2 0x7C8 JUMP JUMPDEST SWAP1 POP SWAP2 SWAP1 POP JUMP JUMPDEST PUSH1 0x0 PUSH1 0x20 DUP3 ADD SWAP1 POP DUP2 DUP2 SUB PUSH1 0x0 DUP4 ADD MSTORE PUSH2 0x90D DUP2 PUSH2 0x7EB JUMP JUMPDEST SWAP1 POP SWAP2 SWAP1 POP JUMP JUMPDEST PUSH1 0x0 PUSH1 0x20 DUP3 ADD SWAP1 POP DUP2 DUP2 SUB PUSH1 0x0 DUP4 ADD MSTORE PUSH2 0x92D DUP2 PUSH2 0x80E JUMP JUMPDEST SWAP1 POP SWAP2 SWAP1 POP JUMP JUMPDEST PUSH1 0x0 PUSH1 0x20 DUP3 ADD SWAP1 POP DUP2 DUP2 SUB PUSH1 0x0 DUP4 ADD MSTORE PUSH2 0x94E DUP2 DUP5 PUSH2 0x831 JUMP JUMPDEST SWAP1 POP SWAP3 SWAP2 POP POP JUMP JUMPDEST PUSH1 0x0 PUSH2 0x960 PUSH2 0x971 JUMP JUMPDEST SWAP1 POP PUSH2 0x96C DUP3 DUP3 PUSH2 0xAB8 JUMP JUMPDEST SWAP2 SWAP1 POP JUMP JUMPDEST PUSH1 0x0 PUSH1 0x40 MLOAD SWAP1 POP SWAP1 JUMP JUMPDEST PUSH1 0x0 PUSH8 0xFFFFFFFFFFFFFFFF DUP3 GT ISZERO PUSH2 0x996 JUMPI PUSH2 0x995 PUSH2 0xB47 JUMP JUMPDEST JUMPDEST PUSH2 0x99F DUP3 PUSH2 0xB8A JUMP JUMPDEST SWAP1 POP PUSH1 0x20 DUP2 ADD SWAP1 POP SWAP2 SWAP1 POP JUMP JUMPDEST PUSH1 0x0 DUP2 MLOAD SWAP1 POP SWAP2 SWAP1 POP JUMP JUMPDEST PUSH1 0x0 DUP3 DUP3 MSTORE PUSH1 0x20 DUP3 ADD SWAP1 POP SWAP3 SWAP2 POP POP JUMP JUMPDEST PUSH1 0x0 DUP3 DUP3 MSTORE PUSH1 0x20 DUP3 ADD SWAP1 POP SWAP3 SWAP2 POP POP JUMP JUMPDEST PUSH1 0x0 DUP2 SWAP1 POP SWAP3 SWAP2 POP POP JUMP JUMPDEST PUSH1 0x0 PUSH2 0x9EF DUP3 PUSH2 0xA3A JUMP JUMPDEST SWAP2 POP PUSH2 0x9FA DUP4 PUSH2 0xA3A JUMP JUMPDEST SWAP3 POP DUP3 PUSH32 0xFFFFFFFFFFFFFFFFFFFFFFFFFFFFFFFFFFFFFFFFFFFFFFFFFFFFFFFFFFFFFFFF SUB DUP3 GT ISZERO PUSH2 0xA2F JUMPI PUSH2 0xA2E PUSH2 0xAE9 JUMP JUMPDEST JUMPDEST DUP3 DUP3 ADD SWAP1 POP SWAP3 SWAP2 POP POP JUMP JUMPDEST PUSH1 0x0 DUP2 SWAP1 POP SWAP2 SWAP1 POP JUMP JUMPDEST DUP3 DUP2 DUP4 CALLDATACOPY PUSH1 0x0 DUP4 DUP4 ADD MSTORE POP POP POP JUMP JUMPDEST PUSH1 0x0 JUMPDEST DUP4 DUP2 LT ISZERO PUSH2 0xA71 JUMPI DUP1 DUP3 ADD MLOAD DUP2 DUP5 ADD MSTORE PUSH1 0x20 DUP2 ADD SWAP1 POP PUSH2 0xA56 JUMP JUMPDEST DUP4 DUP2 GT ISZERO PUSH2 0xA80 JUMPI PUSH1 0x0 DUP5 DUP5 ADD MSTORE JUMPDEST POP POP POP POP JUMP JUMPDEST PUSH1 0x0 PUSH1 0x2 DUP3 DIV SWAP1 POP PUSH1 0x1 DUP3 AND DUP1 PUSH2 0xA9E JUMPI PUSH1 0x7F DUP3 AND SWAP2 POP JUMPDEST PUSH1 0x20 DUP3 LT DUP2 EQ ISZERO PUSH2 0xAB2 JUMPI PUSH2 0xAB1 PUSH2 0xB18 JUMP JUMPDEST JUMPDEST POP SWAP2 SWAP1 POP JUMP JUMPDEST PUSH2 0xAC1 DUP3 PUSH2 0xB8A JUMP JUMPDEST DUP2 ADD DUP2 DUP2 LT PUSH8 0xFFFFFFFFFFFFFFFF DUP3 GT OR ISZERO PUSH2 0xAE0 JUMPI PUSH2 0xADF PUSH2 0xB47 JUMP JUMPDEST JUMPDEST DUP1 PUSH1 0x40 MSTORE POP POP POP JUMP JUMPDEST PUSH32 0x4E487B7100000000000000000000000000000000000000000000000000000000 PUSH1 0x0 MSTORE PUSH1 0x11 PUSH1 0x4 MSTORE PUSH1 0x24 PUSH1 0x0 REVERT JUMPDEST PUSH32 0x4E487B7100000000000000000000000000000000000000000000000000000000 PUSH1 0x0 MSTORE PUSH1 0x22 PUSH1 0x4 MSTORE PUSH1 0x24 PUSH1 0x0 REVERT JUMPDEST PUSH32 0x4E487B7100000000000000000000000000000000000000000000000000000000 PUSH1 0x0 MSTORE PUSH1 0x41 PUSH1 0x4 MSTORE PUSH1 0x24 PUSH1 0x0 REVERT JUMPDEST PUSH1 0x0 DUP1 REVERT JUMPDEST PUSH1 0x0 DUP1 REVERT JUMPDEST PUSH1 0x0 DUP1 REVERT JUMPDEST PUSH1 0x0 DUP1 REVERT JUMPDEST PUSH1 0x0 PUSH1 0x1F NOT PUSH1 0x1F DUP4 ADD AND SWAP1 POP SWAP2 SWAP1 POP JUMP JUMPDEST PUSH32 0x556E617574686F72697A6564204163636573732E000000000000000000000000 PUSH1 0x0 DUP3 ADD MSTORE POP JUMP JUMPDEST PUSH32 0x53796D626F6C2063616E277420626520656D7074790000000000000000000000 PUSH1 0x0 DUP3 ADD MSTORE POP JUMP JUMPDEST PUSH32 0x416C726561647920537461727465642E00000000000000000000000000000000 PUSH1 0x0 DUP3 ADD MSTORE POP JUMP JUMPDEST PUSH32 0x41746C6561737420322063616E646964617465206D7573742062652072656769 PUSH1 0x0 DUP3 ADD MSTORE PUSH32 0x7374657265642E00000000000000000000000000000000000000000000000000 PUSH1 0x20 DUP3 ADD MSTORE POP JUMP JUMPDEST PUSH32 0x4E616D652043616E277420626520656D70747900000000000000000000000000 PUSH1 0x0 DUP3 ADD MSTORE POP JUMP INVALID LOG2 PUSH5 0x6970667358 0x22 SLT KECCAK256 PUSH31 0x1BC51C03A819808632593878C9F81B787E82AEEA8CC0F4BB79837A1B38FA44 PUSH5 0x736F6C6343 STOP ADDMOD SMOD STOP CALLER "
				},
				"gasEstimates": {
					"creation": {
						"codeDepositCost": "653600",
						"executionCost": "49272",
						"totalCost": "702872"
					},
					"external": {
						"giveVotes(string)": "infinite",
						"registrationForCandidate(string,string)": "infinite",
						"startVote()": "31027",
						"voteCountStatus(string)": "infinite"
					}
				},
				"methodIdentifiers": {
					"giveVotes(string)": "1f6d52c5",
					"registrationForCandidate(string,string)": "137967a6",
					"startVote()": "4c0a6af0",
					"voteCountStatus(string)": "196b2e24"
				}
			},
			"storageLayout": {
				"storage": [
					{
						"astId": 4,
						"contract": "contracts/voting.sol:VotingContract",
						"label": "voterList",
						"offset": 0,
						"slot": "0",
						"type": "t_array(t_address)dyn_storage"
					},
					{
						"astId": 6,
						"contract": "contracts/voting.sol:VotingContract",
						"label": "electionCommission",
						"offset": 0,
						"slot": "1",
						"type": "t_address"
					},
					{
						"astId": 9,
						"contract": "contracts/voting.sol:VotingContract",
						"label": "voteStarted",
						"offset": 20,
						"slot": "1",
						"type": "t_bool"
					},
					{
						"astId": 12,
						"contract": "contracts/voting.sol:VotingContract",
						"label": "symbolList",
						"offset": 0,
						"slot": "2",
						"type": "t_array(t_string_storage)dyn_storage"
					},
					{
						"astId": 22,
						"contract": "contracts/voting.sol:VotingContract",
						"label": "Candidates",
						"offset": 0,
						"slot": "3",
						"type": "t_mapping(t_string_memory_ptr,t_struct(candidate)17_storage)"
					}
				],
				"types": {
					"t_address": {
						"encoding": "inplace",
						"label": "address",
						"numberOfBytes": "20"
					},
					"t_array(t_address)dyn_storage": {
						"base": "t_address",
						"encoding": "dynamic_array",
						"label": "address[]",
						"numberOfBytes": "32"
					},
					"t_array(t_string_storage)dyn_storage": {
						"base": "t_string_storage",
						"encoding": "dynamic_array",
						"label": "string[]",
						"numberOfBytes": "32"
					},
					"t_bool": {
						"encoding": "inplace",
						"label": "bool",
						"numberOfBytes": "1"
					},
					"t_mapping(t_string_memory_ptr,t_struct(candidate)17_storage)": {
						"encoding": "mapping",
						"key": "t_string_memory_ptr",
						"label": "mapping(string => struct VotingContract.candidate)",
						"numberOfBytes": "32",
						"value": "t_struct(candidate)17_storage"
					},
					"t_string_memory_ptr": {
						"encoding": "bytes",
						"label": "string",
						"numberOfBytes": "32"
					},
					"t_string_storage": {
						"encoding": "bytes",
						"label": "string",
						"numberOfBytes": "32"
					},
					"t_struct(candidate)17_storage": {
						"encoding": "inplace",
						"label": "struct VotingContract.candidate",
						"members": [
							{
								"astId": 14,
								"contract": "contracts/voting.sol:VotingContract",
								"label": "name",
								"offset": 0,
								"slot": "0",
								"type": "t_string_storage"
							},
							{
								"astId": 16,
								"contract": "contracts/voting.sol:VotingContract",
								"label": "voteCount",
								"offset": 0,
								"slot": "1",
								"type": "t_uint256"
							}
						],
						"numberOfBytes": "64"
					},
					"t_uint256": {
						"encoding": "inplace",
						"label": "uint256",
						"numberOfBytes": "32"
					}
				}
			},
			"userdoc": {
				"kind": "user",
				"methods": {},
				"version": 1
			}
		}
	}
}