{
	"contracts/voting.sol": {
		"VotingContract": {
			"abi": [
				{
					"inputs": [],
					"stateMutability": "nonpayable",
					"type": "constructor"
				},
				{
					"inputs": [
						{
							"internalType": "string",
							"name": "symbol",
							"type": "string"
						}
					],
					"name": "deleteCandidate",
					"outputs": [],
					"stateMutability": "nonpayable",
					"type": "function"
				},
				{
					"inputs": [
						{
							"internalType": "string",
							"name": "symbol",
							"type": "string"
						}
					],
					"name": "giveVotes",
					"outputs": [],
					"stateMutability": "nonpayable",
					"type": "function"
				},
				{
					"inputs": [
						{
							"internalType": "string",
							"name": "name",
							"type": "string"
						},
						{
							"internalType": "string",
							"name": "symbol",
							"type": "string"
						}
					],
					"name": "registrationForCandidate",
					"outputs": [],
					"stateMutability": "nonpayable",
					"type": "function"
				},
				{
					"inputs": [],
					"name": "startVote",
					"outputs": [],
					"stateMutability": "nonpayable",
					"type": "function"
				},
				{
					"inputs": [
						{
							"internalType": "string",
							"name": "symbol",
							"type": "string"
						}
					],
					"name": "voteCountStatus",
					"outputs": [
						{
							"components": [
								{
									"internalType": "string",
									"name": "name",
									"type": "string"
								},
								{
									"internalType": "uint256",
									"name": "voteCount",
									"type": "uint256"
								}
							],
							"internalType": "struct VotingContract.candidate",
							"name": "",
							"type": "tuple"
						}
					],
					"stateMutability": "view",
					"type": "function"
				}
			],
			"devdoc": {
				"kind": "dev",
				"methods": {},
				"version": 1
			},
			"evm": {
				"assembly": "    /* \"contracts/voting.sol\":59:2015  contract VotingContract{\r... */\n  mstore(0x40, 0x80)\n    /* \"contracts/voting.sol\":225:230  false */\n  0x00\n    /* \"contracts/voting.sol\":206:230  bool voteStarted = false */\n  0x01\n  exp(0x0100, 0x14)\n  dup2\n  sload\n  dup2\n  0xff\n  mul\n  not\n  and\n  swap1\n  dup4\n  iszero\n  iszero\n  mul\n  or\n  swap1\n  sstore\n  pop\n    /* \"contracts/voting.sol\":469:532  constructor(){\r... */\n  callvalue\n  dup1\n  iszero\n  tag_1\n  jumpi\n  0x00\n  dup1\n  revert\ntag_1:\n  pop\n    /* \"contracts/voting.sol\":514:524  msg.sender */\n  caller\n    /* \"contracts/voting.sol\":493:511  electionCommission */\n  0x01\n  0x00\n    /* \"contracts/voting.sol\":493:524  electionCommission = msg.sender */\n  0x0100\n  exp\n  dup2\n  sload\n  dup2\n  0xffffffffffffffffffffffffffffffffffffffff\n  mul\n  not\n  and\n  swap1\n  dup4\n  0xffffffffffffffffffffffffffffffffffffffff\n  and\n  mul\n  or\n  swap1\n  sstore\n  pop\n    /* \"contracts/voting.sol\":59:2015  contract VotingContract{\r... */\n  dataSize(sub_0)\n  dup1\n  dataOffset(sub_0)\n  0x00\n  codecopy\n  0x00\n  return\nstop\n\nsub_0: assembly {\n        /* \"contracts/voting.sol\":59:2015  contract VotingContract{\r... */\n      mstore(0x40, 0x80)\n      callvalue\n      dup1\n      iszero\n      tag_1\n      jumpi\n      0x00\n      dup1\n      revert\n    tag_1:\n      pop\n      jumpi(tag_2, lt(calldatasize, 0x04))\n      shr(0xe0, calldataload(0x00))\n      dup1\n      0x137967a6\n      eq\n      tag_3\n      jumpi\n      dup1\n      0x196b2e24\n      eq\n      tag_4\n      jumpi\n      dup1\n      0x1f6d52c5\n      eq\n      tag_5\n      jumpi\n      dup1\n      0x4c0a6af0\n      eq\n      tag_6\n      jumpi\n      dup1\n      0x88feb516\n      eq\n      tag_7\n      jumpi\n    tag_2:\n      0x00\n      dup1\n      revert\n        /* \"contracts/voting.sol\":853:1232  function registrationForCandidate  (string memory name, string memory symbol)public onlyElectionComission votingStarted\r... */\n    tag_3:\n      tag_8\n      0x04\n      dup1\n      calldatasize\n      sub\n      dup2\n      add\n      swap1\n      tag_9\n      swap2\n      swap1\n      tag_10\n      jump\t// in\n    tag_9:\n      tag_11\n      jump\t// in\n    tag_8:\n      stop\n        /* \"contracts/voting.sol\":1620:1750  function voteCountStatus(string memory symbol) public view returns(candidate memory){\r... */\n    tag_4:\n      tag_12\n      0x04\n      dup1\n      calldatasize\n      sub\n      dup2\n      add\n      swap1\n      tag_13\n      swap2\n      swap1\n      tag_14\n      jump\t// in\n    tag_13:\n      tag_15\n      jump\t// in\n    tag_12:\n      mload(0x40)\n      tag_16\n      swap2\n      swap1\n      tag_17\n      jump\t// in\n    tag_16:\n      mload(0x40)\n      dup1\n      swap2\n      sub\n      swap1\n      return\n        /* \"contracts/voting.sol\":1480:1580  function giveVotes(string memory symbol) public {\r... */\n    tag_5:\n      tag_18\n      0x04\n      dup1\n      calldatasize\n      sub\n      dup2\n      add\n      swap1\n      tag_19\n      swap2\n      swap1\n      tag_14\n      jump\t// in\n    tag_19:\n      tag_20\n      jump\t// in\n    tag_18:\n      stop\n        /* \"contracts/voting.sol\":1262:1444  function startVote() public onlyElectionComission votingStarted{\r... */\n    tag_6:\n      tag_21\n      tag_22\n      jump\t// in\n    tag_21:\n      stop\n        /* \"contracts/voting.sol\":1784:1999  function deleteCandidate(string memory symbol)public onlyElectionComission votingStarted{\r... */\n    tag_7:\n      tag_23\n      0x04\n      dup1\n      calldatasize\n      sub\n      dup2\n      add\n      swap1\n      tag_24\n      swap2\n      swap1\n      tag_14\n      jump\t// in\n    tag_24:\n      tag_25\n      jump\t// in\n    tag_23:\n      stop\n        /* \"contracts/voting.sol\":853:1232  function registrationForCandidate  (string memory name, string memory symbol)public onlyElectionComission votingStarted\r... */\n    tag_11:\n        /* \"contracts/voting.sol\":628:646  electionCommission */\n      0x01\n      0x00\n      swap1\n      sload\n      swap1\n      0x0100\n      exp\n      swap1\n      div\n      0xffffffffffffffffffffffffffffffffffffffff\n      and\n        /* \"contracts/voting.sol\":616:646  msg.sender==electionCommission */\n      0xffffffffffffffffffffffffffffffffffffffff\n      and\n        /* \"contracts/voting.sol\":616:626  msg.sender */\n      caller\n        /* \"contracts/voting.sol\":616:646  msg.sender==electionCommission */\n      0xffffffffffffffffffffffffffffffffffffffff\n      and\n      eq\n        /* \"contracts/voting.sol\":608:670  require(msg.sender==electionCommission,\"Unauthorized Access.\") */\n      tag_27\n      jumpi\n      mload(0x40)\n      0x08c379a000000000000000000000000000000000000000000000000000000000\n      dup2\n      mstore\n      0x04\n      add\n      tag_28\n      swap1\n      tag_29\n      jump\t// in\n    tag_28:\n      mload(0x40)\n      dup1\n      swap2\n      sub\n      swap1\n      revert\n    tag_27:\n        /* \"contracts/voting.sol\":774:778  true */\n      0x01\n        /* \"contracts/voting.sol\":761:778  voteStarted!=true */\n      iszero\n      iszero\n        /* \"contracts/voting.sol\":761:772  voteStarted */\n      0x01\n      0x14\n      swap1\n      sload\n      swap1\n      0x0100\n      exp\n      swap1\n      div\n      0xff\n      and\n        /* \"contracts/voting.sol\":761:778  voteStarted!=true */\n      iszero\n      iszero\n      eq\n      iszero\n        /* \"contracts/voting.sol\":753:798  require(voteStarted!=true,\"Already Started.\") */\n      tag_31\n      jumpi\n      mload(0x40)\n      0x08c379a000000000000000000000000000000000000000000000000000000000\n      dup2\n      mstore\n      0x04\n      add\n      tag_32\n      swap1\n      tag_33\n      jump\t// in\n    tag_32:\n      mload(0x40)\n      dup1\n      swap2\n      sub\n      swap1\n      revert\n    tag_31:\n        /* \"contracts/voting.sol\":1018:1019  0 */\n      0x00\n        /* \"contracts/voting.sol\":1004:1008  name */\n      dup3\n        /* \"contracts/voting.sol\":998:1016  bytes(name).length */\n      mload\n        /* \"contracts/voting.sol\":998:1019  bytes(name).length!=0 */\n      eq\n      iszero\n        /* \"contracts/voting.sol\":990:1042  require(bytes(name).length!=0,\"Name Can't be empty\") */\n      tag_35\n      jumpi\n      mload(0x40)\n      0x08c379a000000000000000000000000000000000000000000000000000000000\n      dup2\n      mstore\n      0x04\n      add\n      tag_36\n      swap1\n      tag_37\n      jump\t// in\n    tag_36:\n      mload(0x40)\n      dup1\n      swap2\n      sub\n      swap1\n      revert\n    tag_35:\n        /* \"contracts/voting.sol\":1083:1084  0 */\n      0x00\n        /* \"contracts/voting.sol\":1067:1073  symbol */\n      dup2\n        /* \"contracts/voting.sol\":1061:1081  bytes(symbol).length */\n      mload\n        /* \"contracts/voting.sol\":1061:1084  bytes(symbol).length!=0 */\n      eq\n      iszero\n        /* \"contracts/voting.sol\":1053:1109  require(bytes(symbol).length!=0,\"Symbol can't be empty\") */\n      tag_38\n      jumpi\n      mload(0x40)\n      0x08c379a000000000000000000000000000000000000000000000000000000000\n      dup2\n      mstore\n      0x04\n      add\n      tag_39\n      swap1\n      tag_40\n      jump\t// in\n    tag_39:\n      mload(0x40)\n      dup1\n      swap2\n      sub\n      swap1\n      revert\n    tag_38:\n        /* \"contracts/voting.sol\":1120:1130  symbolList */\n      0x02\n        /* \"contracts/voting.sol\":1136:1142  symbol */\n      dup2\n        /* \"contracts/voting.sol\":1120:1143  symbolList.push(symbol) */\n      swap1\n      dup1\n      0x01\n      dup2\n      sload\n      add\n      dup1\n      dup3\n      sstore\n      dup1\n      swap2\n      pop\n      pop\n      0x01\n      swap1\n      sub\n      swap1\n      0x00\n      mstore\n      keccak256(0x00, 0x20)\n      add\n      0x00\n      swap1\n      swap2\n      swap1\n      swap2\n      swap1\n      swap2\n      pop\n      swap1\n      dup1\n      mload\n      swap1\n      0x20\n      add\n      swap1\n      tag_42\n      swap3\n      swap2\n      swap1\n      tag_43\n      jump\t// in\n    tag_42:\n      pop\n        /* \"contracts/voting.sol\":1178:1182  name */\n      dup2\n        /* \"contracts/voting.sol\":1154:1164  Candidates */\n      0x03\n        /* \"contracts/voting.sol\":1165:1171  symbol */\n      dup3\n        /* \"contracts/voting.sol\":1154:1172  Candidates[symbol] */\n      mload(0x40)\n      tag_44\n      swap2\n      swap1\n      tag_45\n      jump\t// in\n    tag_44:\n      swap1\n      dup2\n      mstore\n      0x20\n      add\n      mload(0x40)\n      dup1\n      swap2\n      sub\n      swap1\n      keccak256\n        /* \"contracts/voting.sol\":1154:1177  Candidates[symbol].name */\n      0x00\n      add\n        /* \"contracts/voting.sol\":1154:1182  Candidates[symbol].name=name */\n      swap1\n      dup1\n      mload\n      swap1\n      0x20\n      add\n      swap1\n      tag_46\n      swap3\n      swap2\n      swap1\n      tag_43\n      jump\t// in\n    tag_46:\n      pop\n        /* \"contracts/voting.sol\":1222:1223  0 */\n      0x00\n        /* \"contracts/voting.sol\":1193:1203  Candidates */\n      0x03\n        /* \"contracts/voting.sol\":1204:1210  symbol */\n      dup3\n        /* \"contracts/voting.sol\":1193:1211  Candidates[symbol] */\n      mload(0x40)\n      tag_47\n      swap2\n      swap1\n      tag_45\n      jump\t// in\n    tag_47:\n      swap1\n      dup2\n      mstore\n      0x20\n      add\n      mload(0x40)\n      dup1\n      swap2\n      sub\n      swap1\n      keccak256\n        /* \"contracts/voting.sol\":1193:1221  Candidates[symbol].voteCount */\n      0x01\n      add\n        /* \"contracts/voting.sol\":1193:1223  Candidates[symbol].voteCount=0 */\n      dup2\n      swap1\n      sstore\n      pop\n        /* \"contracts/voting.sol\":853:1232  function registrationForCandidate  (string memory name, string memory symbol)public onlyElectionComission votingStarted\r... */\n      pop\n      pop\n      jump\t// out\n        /* \"contracts/voting.sol\":1620:1750  function voteCountStatus(string memory symbol) public view returns(candidate memory){\r... */\n    tag_15:\n        /* \"contracts/voting.sol\":1687:1703  candidate memory */\n      tag_48\n      tag_49\n      jump\t// in\n    tag_48:\n        /* \"contracts/voting.sol\":1723:1733  Candidates */\n      0x03\n        /* \"contracts/voting.sol\":1734:1740  symbol */\n      dup3\n        /* \"contracts/voting.sol\":1723:1741  Candidates[symbol] */\n      mload(0x40)\n      tag_51\n      swap2\n      swap1\n      tag_45\n      jump\t// in\n    tag_51:\n      swap1\n      dup2\n      mstore\n      0x20\n      add\n      mload(0x40)\n      dup1\n      swap2\n      sub\n      swap1\n      keccak256\n        /* \"contracts/voting.sol\":1716:1741  return Candidates[symbol] */\n      mload(0x40)\n      dup1\n      0x40\n      add\n      0x40\n      mstore\n      swap1\n      dup2\n      0x00\n      dup3\n      add\n      dup1\n      sload\n      tag_52\n      swap1\n      tag_53\n      jump\t// in\n    tag_52:\n      dup1\n      0x1f\n      add\n      0x20\n      dup1\n      swap2\n      div\n      mul\n      0x20\n      add\n      mload(0x40)\n      swap1\n      dup2\n      add\n      0x40\n      mstore\n      dup1\n      swap3\n      swap2\n      swap1\n      dup2\n      dup2\n      mstore\n      0x20\n      add\n      dup3\n      dup1\n      sload\n      tag_54\n      swap1\n      tag_53\n      jump\t// in\n    tag_54:\n      dup1\n      iszero\n      tag_55\n      jumpi\n      dup1\n      0x1f\n      lt\n      tag_56\n      jumpi\n      0x0100\n      dup1\n      dup4\n      sload\n      div\n      mul\n      dup4\n      mstore\n      swap2\n      0x20\n      add\n      swap2\n      jump(tag_55)\n    tag_56:\n      dup3\n      add\n      swap2\n      swap1\n      0x00\n      mstore\n      keccak256(0x00, 0x20)\n      swap1\n    tag_57:\n      dup2\n      sload\n      dup2\n      mstore\n      swap1\n      0x01\n      add\n      swap1\n      0x20\n      add\n      dup1\n      dup4\n      gt\n      tag_57\n      jumpi\n      dup3\n      swap1\n      sub\n      0x1f\n      and\n      dup3\n      add\n      swap2\n    tag_55:\n      pop\n      pop\n      pop\n      pop\n      pop\n      dup2\n      mstore\n      0x20\n      add\n      0x01\n      dup3\n      add\n      sload\n      dup2\n      mstore\n      pop\n      pop\n      swap1\n      pop\n        /* \"contracts/voting.sol\":1620:1750  function voteCountStatus(string memory symbol) public view returns(candidate memory){\r... */\n      swap2\n      swap1\n      pop\n      jump\t// out\n        /* \"contracts/voting.sol\":1480:1580  function giveVotes(string memory symbol) public {\r... */\n    tag_20:\n        /* \"contracts/voting.sol\":1570:1571  1 */\n      0x01\n        /* \"contracts/voting.sol\":1540:1550  Candidates */\n      0x03\n        /* \"contracts/voting.sol\":1551:1557  symbol */\n      dup3\n        /* \"contracts/voting.sol\":1540:1558  Candidates[symbol] */\n      mload(0x40)\n      tag_59\n      swap2\n      swap1\n      tag_45\n      jump\t// in\n    tag_59:\n      swap1\n      dup2\n      mstore\n      0x20\n      add\n      mload(0x40)\n      dup1\n      swap2\n      sub\n      swap1\n      keccak256\n        /* \"contracts/voting.sol\":1540:1568  Candidates[symbol].voteCount */\n      0x01\n      add\n      0x00\n        /* \"contracts/voting.sol\":1540:1571  Candidates[symbol].voteCount+=1 */\n      dup3\n      dup3\n      sload\n      tag_60\n      swap2\n      swap1\n      tag_61\n      jump\t// in\n    tag_60:\n      swap3\n      pop\n      pop\n      dup2\n      swap1\n      sstore\n      pop\n        /* \"contracts/voting.sol\":1480:1580  function giveVotes(string memory symbol) public {\r... */\n      pop\n      jump\t// out\n        /* \"contracts/voting.sol\":1262:1444  function startVote() public onlyElectionComission votingStarted{\r... */\n    tag_22:\n        /* \"contracts/voting.sol\":628:646  electionCommission */\n      0x01\n      0x00\n      swap1\n      sload\n      swap1\n      0x0100\n      exp\n      swap1\n      div\n      0xffffffffffffffffffffffffffffffffffffffff\n      and\n        /* \"contracts/voting.sol\":616:646  msg.sender==electionCommission */\n      0xffffffffffffffffffffffffffffffffffffffff\n      and\n        /* \"contracts/voting.sol\":616:626  msg.sender */\n      caller\n        /* \"contracts/voting.sol\":616:646  msg.sender==electionCommission */\n      0xffffffffffffffffffffffffffffffffffffffff\n      and\n      eq\n        /* \"contracts/voting.sol\":608:670  require(msg.sender==electionCommission,\"Unauthorized Access.\") */\n      tag_63\n      jumpi\n      mload(0x40)\n      0x08c379a000000000000000000000000000000000000000000000000000000000\n      dup2\n      mstore\n      0x04\n      add\n      tag_64\n      swap1\n      tag_29\n      jump\t// in\n    tag_64:\n      mload(0x40)\n      dup1\n      swap2\n      sub\n      swap1\n      revert\n    tag_63:\n        /* \"contracts/voting.sol\":774:778  true */\n      0x01\n        /* \"contracts/voting.sol\":761:778  voteStarted!=true */\n      iszero\n      iszero\n        /* \"contracts/voting.sol\":761:772  voteStarted */\n      0x01\n      0x14\n      swap1\n      sload\n      swap1\n      0x0100\n      exp\n      swap1\n      div\n      0xff\n      and\n        /* \"contracts/voting.sol\":761:778  voteStarted!=true */\n      iszero\n      iszero\n      eq\n      iszero\n        /* \"contracts/voting.sol\":753:798  require(voteStarted!=true,\"Already Started.\") */\n      tag_66\n      jumpi\n      mload(0x40)\n      0x08c379a000000000000000000000000000000000000000000000000000000000\n      dup2\n      mstore\n      0x04\n      add\n      tag_67\n      swap1\n      tag_33\n      jump\t// in\n    tag_67:\n      mload(0x40)\n      dup1\n      swap2\n      sub\n      swap1\n      revert\n    tag_66:\n        /* \"contracts/voting.sol\":1362:1363  0 */\n      0x00\n        /* \"contracts/voting.sol\":1344:1354  symbolList */\n      0x02\n        /* \"contracts/voting.sol\":1344:1361  symbolList.length */\n      dup1\n      sload\n      swap1\n      pop\n        /* \"contracts/voting.sol\":1344:1363  symbolList.length>0 */\n      gt\n        /* \"contracts/voting.sol\":1336:1406  require(symbolList.length>0,\"Atleast 2 candidate must be registered.\") */\n      tag_69\n      jumpi\n      mload(0x40)\n      0x08c379a000000000000000000000000000000000000000000000000000000000\n      dup2\n      mstore\n      0x04\n      add\n      tag_70\n      swap1\n      tag_71\n      jump\t// in\n    tag_70:\n      mload(0x40)\n      dup1\n      swap2\n      sub\n      swap1\n      revert\n    tag_69:\n        /* \"contracts/voting.sol\":1431:1435  true */\n      0x01\n        /* \"contracts/voting.sol\":1417:1428  voteStarted */\n      dup1\n      0x14\n        /* \"contracts/voting.sol\":1417:1435  voteStarted = true */\n      0x0100\n      exp\n      dup2\n      sload\n      dup2\n      0xff\n      mul\n      not\n      and\n      swap1\n      dup4\n      iszero\n      iszero\n      mul\n      or\n      swap1\n      sstore\n      pop\n        /* \"contracts/voting.sol\":1262:1444  function startVote() public onlyElectionComission votingStarted{\r... */\n      jump\t// out\n        /* \"contracts/voting.sol\":1784:1999  function deleteCandidate(string memory symbol)public onlyElectionComission votingStarted{\r... */\n    tag_25:\n        /* \"contracts/voting.sol\":628:646  electionCommission */\n      0x01\n      0x00\n      swap1\n      sload\n      swap1\n      0x0100\n      exp\n      swap1\n      div\n      0xffffffffffffffffffffffffffffffffffffffff\n      and\n        /* \"contracts/voting.sol\":616:646  msg.sender==electionCommission */\n      0xffffffffffffffffffffffffffffffffffffffff\n      and\n        /* \"contracts/voting.sol\":616:626  msg.sender */\n      caller\n        /* \"contracts/voting.sol\":616:646  msg.sender==electionCommission */\n      0xffffffffffffffffffffffffffffffffffffffff\n      and\n      eq\n        /* \"contracts/voting.sol\":608:670  require(msg.sender==electionCommission,\"Unauthorized Access.\") */\n      tag_73\n      jumpi\n      mload(0x40)\n      0x08c379a000000000000000000000000000000000000000000000000000000000\n      dup2\n      mstore\n      0x04\n      add\n      tag_74\n      swap1\n      tag_29\n      jump\t// in\n    tag_74:\n      mload(0x40)\n      dup1\n      swap2\n      sub\n      swap1\n      revert\n    tag_73:\n        /* \"contracts/voting.sol\":774:778  true */\n      0x01\n        /* \"contracts/voting.sol\":761:778  voteStarted!=true */\n      iszero\n      iszero\n        /* \"contracts/voting.sol\":761:772  voteStarted */\n      0x01\n      0x14\n      swap1\n      sload\n      swap1\n      0x0100\n      exp\n      swap1\n      div\n      0xff\n      and\n        /* \"contracts/voting.sol\":761:778  voteStarted!=true */\n      iszero\n      iszero\n      eq\n      iszero\n        /* \"contracts/voting.sol\":753:798  require(voteStarted!=true,\"Already Started.\") */\n      tag_76\n      jumpi\n      mload(0x40)\n      0x08c379a000000000000000000000000000000000000000000000000000000000\n      dup2\n      mstore\n      0x04\n      add\n      tag_77\n      swap1\n      tag_33\n      jump\t// in\n    tag_77:\n      mload(0x40)\n      dup1\n      swap2\n      sub\n      swap1\n      revert\n    tag_76:\n        /* \"contracts/voting.sol\":1909:1910  0 */\n      0x00\n        /* \"contracts/voting.sol\":1891:1901  symbolList */\n      0x02\n        /* \"contracts/voting.sol\":1891:1908  symbolList.length */\n      dup1\n      sload\n      swap1\n      pop\n        /* \"contracts/voting.sol\":1891:1910  symbolList.length>0 */\n      gt\n        /* \"contracts/voting.sol\":1883:1953  require(symbolList.length>0,\"Atleast 1 candidate must be registered.\") */\n      tag_79\n      jumpi\n      mload(0x40)\n      0x08c379a000000000000000000000000000000000000000000000000000000000\n      dup2\n      mstore\n      0x04\n      add\n      tag_80\n      swap1\n      tag_81\n      jump\t// in\n    tag_80:\n      mload(0x40)\n      dup1\n      swap2\n      sub\n      swap1\n      revert\n    tag_79:\n        /* \"contracts/voting.sol\":1972:1982  Candidates */\n      0x03\n        /* \"contracts/voting.sol\":1983:1989  symbol */\n      dup2\n        /* \"contracts/voting.sol\":1972:1990  Candidates[symbol] */\n      mload(0x40)\n      tag_82\n      swap2\n      swap1\n      tag_45\n      jump\t// in\n    tag_82:\n      swap1\n      dup2\n      mstore\n      0x20\n      add\n      mload(0x40)\n      dup1\n      swap2\n      sub\n      swap1\n      keccak256\n      0x00\n        /* \"contracts/voting.sol\":1965:1990  delete Candidates[symbol] */\n      dup1\n      dup3\n      add\n      0x00\n      tag_83\n      swap2\n      swap1\n      tag_84\n      jump\t// in\n    tag_83:\n      0x01\n      dup3\n      add\n      0x00\n      swap1\n      sstore\n      pop\n      pop\n        /* \"contracts/voting.sol\":1784:1999  function deleteCandidate(string memory symbol)public onlyElectionComission votingStarted{\r... */\n      pop\n      jump\t// out\n    tag_43:\n      dup3\n      dup1\n      sload\n      tag_85\n      swap1\n      tag_53\n      jump\t// in\n    tag_85:\n      swap1\n      0x00\n      mstore\n      keccak256(0x00, 0x20)\n      swap1\n      0x1f\n      add\n      0x20\n      swap1\n      div\n      dup2\n      add\n      swap3\n      dup3\n      tag_87\n      jumpi\n      0x00\n      dup6\n      sstore\n      jump(tag_86)\n    tag_87:\n      dup3\n      0x1f\n      lt\n      tag_88\n      jumpi\n      dup1\n      mload\n      not(0xff)\n      and\n      dup4\n      dup1\n      add\n      or\n      dup6\n      sstore\n      jump(tag_86)\n    tag_88:\n      dup3\n      dup1\n      add\n      0x01\n      add\n      dup6\n      sstore\n      dup3\n      iszero\n      tag_86\n      jumpi\n      swap2\n      dup3\n      add\n    tag_89:\n      dup3\n      dup2\n      gt\n      iszero\n      tag_90\n      jumpi\n      dup3\n      mload\n      dup3\n      sstore\n      swap2\n      0x20\n      add\n      swap2\n      swap1\n      0x01\n      add\n      swap1\n      jump(tag_89)\n    tag_90:\n    tag_86:\n      pop\n      swap1\n      pop\n      tag_91\n      swap2\n      swap1\n      tag_92\n      jump\t// in\n    tag_91:\n      pop\n      swap1\n      jump\t// out\n    tag_49:\n      mload(0x40)\n      dup1\n      0x40\n      add\n      0x40\n      mstore\n      dup1\n      0x60\n      dup2\n      mstore\n      0x20\n      add\n      0x00\n      dup2\n      mstore\n      pop\n      swap1\n      jump\t// out\n    tag_84:\n      pop\n      dup1\n      sload\n      tag_93\n      swap1\n      tag_53\n      jump\t// in\n    tag_93:\n      0x00\n      dup3\n      sstore\n      dup1\n      0x1f\n      lt\n      tag_95\n      jumpi\n      pop\n      jump(tag_94)\n    tag_95:\n      0x1f\n      add\n      0x20\n      swap1\n      div\n      swap1\n      0x00\n      mstore\n      keccak256(0x00, 0x20)\n      swap1\n      dup2\n      add\n      swap1\n      tag_96\n      swap2\n      swap1\n      tag_92\n      jump\t// in\n    tag_96:\n    tag_94:\n      pop\n      jump\t// out\n    tag_92:\n    tag_97:\n      dup1\n      dup3\n      gt\n      iszero\n      tag_98\n      jumpi\n      0x00\n      dup2\n      0x00\n      swap1\n      sstore\n      pop\n      0x01\n      add\n      jump(tag_97)\n    tag_98:\n      pop\n      swap1\n      jump\t// out\n        /* \"#utility.yul\":7:419   */\n    tag_100:\n        /* \"#utility.yul\":85:90   */\n      0x00\n        /* \"#utility.yul\":110:176   */\n      tag_102\n        /* \"#utility.yul\":126:175   */\n      tag_103\n        /* \"#utility.yul\":168:174   */\n      dup5\n        /* \"#utility.yul\":126:175   */\n      tag_104\n      jump\t// in\n    tag_103:\n        /* \"#utility.yul\":110:176   */\n      tag_105\n      jump\t// in\n    tag_102:\n        /* \"#utility.yul\":101:176   */\n      swap1\n      pop\n        /* \"#utility.yul\":199:205   */\n      dup3\n        /* \"#utility.yul\":192:197   */\n      dup2\n        /* \"#utility.yul\":185:206   */\n      mstore\n        /* \"#utility.yul\":237:241   */\n      0x20\n        /* \"#utility.yul\":230:235   */\n      dup2\n        /* \"#utility.yul\":226:242   */\n      add\n        /* \"#utility.yul\":275:278   */\n      dup5\n        /* \"#utility.yul\":266:272   */\n      dup5\n        /* \"#utility.yul\":261:264   */\n      dup5\n        /* \"#utility.yul\":257:273   */\n      add\n        /* \"#utility.yul\":254:279   */\n      gt\n        /* \"#utility.yul\":251:363   */\n      iszero\n      tag_106\n      jumpi\n        /* \"#utility.yul\":282:361   */\n      tag_107\n      tag_108\n      jump\t// in\n    tag_107:\n        /* \"#utility.yul\":251:363   */\n    tag_106:\n        /* \"#utility.yul\":372:413   */\n      tag_109\n        /* \"#utility.yul\":406:412   */\n      dup5\n        /* \"#utility.yul\":401:404   */\n      dup3\n        /* \"#utility.yul\":396:399   */\n      dup6\n        /* \"#utility.yul\":372:413   */\n      tag_110\n      jump\t// in\n    tag_109:\n        /* \"#utility.yul\":91:419   */\n      pop\n        /* \"#utility.yul\":7:419   */\n      swap4\n      swap3\n      pop\n      pop\n      pop\n      jump\t// out\n        /* \"#utility.yul\":439:779   */\n    tag_111:\n        /* \"#utility.yul\":495:500   */\n      0x00\n        /* \"#utility.yul\":544:547   */\n      dup3\n        /* \"#utility.yul\":537:541   */\n      0x1f\n        /* \"#utility.yul\":529:535   */\n      dup4\n        /* \"#utility.yul\":525:542   */\n      add\n        /* \"#utility.yul\":521:548   */\n      slt\n        /* \"#utility.yul\":511:633   */\n      tag_113\n      jumpi\n        /* \"#utility.yul\":552:631   */\n      tag_114\n      tag_115\n      jump\t// in\n    tag_114:\n        /* \"#utility.yul\":511:633   */\n    tag_113:\n        /* \"#utility.yul\":669:675   */\n      dup2\n        /* \"#utility.yul\":656:676   */\n      calldataload\n        /* \"#utility.yul\":694:773   */\n      tag_116\n        /* \"#utility.yul\":769:772   */\n      dup5\n        /* \"#utility.yul\":761:767   */\n      dup3\n        /* \"#utility.yul\":754:758   */\n      0x20\n        /* \"#utility.yul\":746:752   */\n      dup7\n        /* \"#utility.yul\":742:759   */\n      add\n        /* \"#utility.yul\":694:773   */\n      tag_100\n      jump\t// in\n    tag_116:\n        /* \"#utility.yul\":685:773   */\n      swap2\n      pop\n        /* \"#utility.yul\":501:779   */\n      pop\n        /* \"#utility.yul\":439:779   */\n      swap3\n      swap2\n      pop\n      pop\n      jump\t// out\n        /* \"#utility.yul\":785:1294   */\n    tag_14:\n        /* \"#utility.yul\":854:860   */\n      0x00\n        /* \"#utility.yul\":903:905   */\n      0x20\n        /* \"#utility.yul\":891:900   */\n      dup3\n        /* \"#utility.yul\":882:889   */\n      dup5\n        /* \"#utility.yul\":878:901   */\n      sub\n        /* \"#utility.yul\":874:906   */\n      slt\n        /* \"#utility.yul\":871:990   */\n      iszero\n      tag_118\n      jumpi\n        /* \"#utility.yul\":909:988   */\n      tag_119\n      tag_120\n      jump\t// in\n    tag_119:\n        /* \"#utility.yul\":871:990   */\n    tag_118:\n        /* \"#utility.yul\":1057:1058   */\n      0x00\n        /* \"#utility.yul\":1046:1055   */\n      dup3\n        /* \"#utility.yul\":1042:1059   */\n      add\n        /* \"#utility.yul\":1029:1060   */\n      calldataload\n        /* \"#utility.yul\":1087:1105   */\n      0xffffffffffffffff\n        /* \"#utility.yul\":1079:1085   */\n      dup2\n        /* \"#utility.yul\":1076:1106   */\n      gt\n        /* \"#utility.yul\":1073:1190   */\n      iszero\n      tag_121\n      jumpi\n        /* \"#utility.yul\":1109:1188   */\n      tag_122\n      tag_123\n      jump\t// in\n    tag_122:\n        /* \"#utility.yul\":1073:1190   */\n    tag_121:\n        /* \"#utility.yul\":1214:1277   */\n      tag_124\n        /* \"#utility.yul\":1269:1276   */\n      dup5\n        /* \"#utility.yul\":1260:1266   */\n      dup3\n        /* \"#utility.yul\":1249:1258   */\n      dup6\n        /* \"#utility.yul\":1245:1267   */\n      add\n        /* \"#utility.yul\":1214:1277   */\n      tag_111\n      jump\t// in\n    tag_124:\n        /* \"#utility.yul\":1204:1277   */\n      swap2\n      pop\n        /* \"#utility.yul\":1000:1287   */\n      pop\n        /* \"#utility.yul\":785:1294   */\n      swap3\n      swap2\n      pop\n      pop\n      jump\t// out\n        /* \"#utility.yul\":1300:2134   */\n    tag_10:\n        /* \"#utility.yul\":1388:1394   */\n      0x00\n        /* \"#utility.yul\":1396:1402   */\n      dup1\n        /* \"#utility.yul\":1445:1447   */\n      0x40\n        /* \"#utility.yul\":1433:1442   */\n      dup4\n        /* \"#utility.yul\":1424:1431   */\n      dup6\n        /* \"#utility.yul\":1420:1443   */\n      sub\n        /* \"#utility.yul\":1416:1448   */\n      slt\n        /* \"#utility.yul\":1413:1532   */\n      iszero\n      tag_126\n      jumpi\n        /* \"#utility.yul\":1451:1530   */\n      tag_127\n      tag_120\n      jump\t// in\n    tag_127:\n        /* \"#utility.yul\":1413:1532   */\n    tag_126:\n        /* \"#utility.yul\":1599:1600   */\n      0x00\n        /* \"#utility.yul\":1588:1597   */\n      dup4\n        /* \"#utility.yul\":1584:1601   */\n      add\n        /* \"#utility.yul\":1571:1602   */\n      calldataload\n        /* \"#utility.yul\":1629:1647   */\n      0xffffffffffffffff\n        /* \"#utility.yul\":1621:1627   */\n      dup2\n        /* \"#utility.yul\":1618:1648   */\n      gt\n        /* \"#utility.yul\":1615:1732   */\n      iszero\n      tag_128\n      jumpi\n        /* \"#utility.yul\":1651:1730   */\n      tag_129\n      tag_123\n      jump\t// in\n    tag_129:\n        /* \"#utility.yul\":1615:1732   */\n    tag_128:\n        /* \"#utility.yul\":1756:1819   */\n      tag_130\n        /* \"#utility.yul\":1811:1818   */\n      dup6\n        /* \"#utility.yul\":1802:1808   */\n      dup3\n        /* \"#utility.yul\":1791:1800   */\n      dup7\n        /* \"#utility.yul\":1787:1809   */\n      add\n        /* \"#utility.yul\":1756:1819   */\n      tag_111\n      jump\t// in\n    tag_130:\n        /* \"#utility.yul\":1746:1819   */\n      swap3\n      pop\n        /* \"#utility.yul\":1542:1829   */\n      pop\n        /* \"#utility.yul\":1896:1898   */\n      0x20\n        /* \"#utility.yul\":1885:1894   */\n      dup4\n        /* \"#utility.yul\":1881:1899   */\n      add\n        /* \"#utility.yul\":1868:1900   */\n      calldataload\n        /* \"#utility.yul\":1927:1945   */\n      0xffffffffffffffff\n        /* \"#utility.yul\":1919:1925   */\n      dup2\n        /* \"#utility.yul\":1916:1946   */\n      gt\n        /* \"#utility.yul\":1913:2030   */\n      iszero\n      tag_131\n      jumpi\n        /* \"#utility.yul\":1949:2028   */\n      tag_132\n      tag_123\n      jump\t// in\n    tag_132:\n        /* \"#utility.yul\":1913:2030   */\n    tag_131:\n        /* \"#utility.yul\":2054:2117   */\n      tag_133\n        /* \"#utility.yul\":2109:2116   */\n      dup6\n        /* \"#utility.yul\":2100:2106   */\n      dup3\n        /* \"#utility.yul\":2089:2098   */\n      dup7\n        /* \"#utility.yul\":2085:2107   */\n      add\n        /* \"#utility.yul\":2054:2117   */\n      tag_111\n      jump\t// in\n    tag_133:\n        /* \"#utility.yul\":2044:2117   */\n      swap2\n      pop\n        /* \"#utility.yul\":1839:2127   */\n      pop\n        /* \"#utility.yul\":1300:2134   */\n      swap3\n      pop\n      swap3\n      swap1\n      pop\n      jump\t// out\n        /* \"#utility.yul\":2140:2484   */\n    tag_134:\n        /* \"#utility.yul\":2218:2221   */\n      0x00\n        /* \"#utility.yul\":2246:2285   */\n      tag_136\n        /* \"#utility.yul\":2279:2284   */\n      dup3\n        /* \"#utility.yul\":2246:2285   */\n      tag_137\n      jump\t// in\n    tag_136:\n        /* \"#utility.yul\":2301:2362   */\n      tag_138\n        /* \"#utility.yul\":2355:2361   */\n      dup2\n        /* \"#utility.yul\":2350:2353   */\n      dup6\n        /* \"#utility.yul\":2301:2362   */\n      tag_139\n      jump\t// in\n    tag_138:\n        /* \"#utility.yul\":2294:2362   */\n      swap4\n      pop\n        /* \"#utility.yul\":2371:2423   */\n      tag_140\n        /* \"#utility.yul\":2416:2422   */\n      dup2\n        /* \"#utility.yul\":2411:2414   */\n      dup6\n        /* \"#utility.yul\":2404:2408   */\n      0x20\n        /* \"#utility.yul\":2397:2402   */\n      dup7\n        /* \"#utility.yul\":2393:2409   */\n      add\n        /* \"#utility.yul\":2371:2423   */\n      tag_141\n      jump\t// in\n    tag_140:\n        /* \"#utility.yul\":2448:2477   */\n      tag_142\n        /* \"#utility.yul\":2470:2476   */\n      dup2\n        /* \"#utility.yul\":2448:2477   */\n      tag_143\n      jump\t// in\n    tag_142:\n        /* \"#utility.yul\":2443:2446   */\n      dup5\n        /* \"#utility.yul\":2439:2478   */\n      add\n        /* \"#utility.yul\":2432:2478   */\n      swap2\n      pop\n        /* \"#utility.yul\":2222:2484   */\n      pop\n        /* \"#utility.yul\":2140:2484   */\n      swap3\n      swap2\n      pop\n      pop\n      jump\t// out\n        /* \"#utility.yul\":2490:2867   */\n    tag_144:\n        /* \"#utility.yul\":2596:2599   */\n      0x00\n        /* \"#utility.yul\":2624:2663   */\n      tag_146\n        /* \"#utility.yul\":2657:2662   */\n      dup3\n        /* \"#utility.yul\":2624:2663   */\n      tag_137\n      jump\t// in\n    tag_146:\n        /* \"#utility.yul\":2679:2768   */\n      tag_147\n        /* \"#utility.yul\":2761:2767   */\n      dup2\n        /* \"#utility.yul\":2756:2759   */\n      dup6\n        /* \"#utility.yul\":2679:2768   */\n      tag_148\n      jump\t// in\n    tag_147:\n        /* \"#utility.yul\":2672:2768   */\n      swap4\n      pop\n        /* \"#utility.yul\":2777:2829   */\n      tag_149\n        /* \"#utility.yul\":2822:2828   */\n      dup2\n        /* \"#utility.yul\":2817:2820   */\n      dup6\n        /* \"#utility.yul\":2810:2814   */\n      0x20\n        /* \"#utility.yul\":2803:2808   */\n      dup7\n        /* \"#utility.yul\":2799:2815   */\n      add\n        /* \"#utility.yul\":2777:2829   */\n      tag_141\n      jump\t// in\n    tag_149:\n        /* \"#utility.yul\":2854:2860   */\n      dup1\n        /* \"#utility.yul\":2849:2852   */\n      dup5\n        /* \"#utility.yul\":2845:2861   */\n      add\n        /* \"#utility.yul\":2838:2861   */\n      swap2\n      pop\n        /* \"#utility.yul\":2600:2867   */\n      pop\n        /* \"#utility.yul\":2490:2867   */\n      swap3\n      swap2\n      pop\n      pop\n      jump\t// out\n        /* \"#utility.yul\":2873:3239   */\n    tag_150:\n        /* \"#utility.yul\":3015:3018   */\n      0x00\n        /* \"#utility.yul\":3036:3103   */\n      tag_152\n        /* \"#utility.yul\":3100:3102   */\n      0x14\n        /* \"#utility.yul\":3095:3098   */\n      dup4\n        /* \"#utility.yul\":3036:3103   */\n      tag_153\n      jump\t// in\n    tag_152:\n        /* \"#utility.yul\":3029:3103   */\n      swap2\n      pop\n        /* \"#utility.yul\":3112:3205   */\n      tag_154\n        /* \"#utility.yul\":3201:3204   */\n      dup3\n        /* \"#utility.yul\":3112:3205   */\n      tag_155\n      jump\t// in\n    tag_154:\n        /* \"#utility.yul\":3230:3232   */\n      0x20\n        /* \"#utility.yul\":3225:3228   */\n      dup3\n        /* \"#utility.yul\":3221:3233   */\n      add\n        /* \"#utility.yul\":3214:3233   */\n      swap1\n      pop\n        /* \"#utility.yul\":2873:3239   */\n      swap2\n      swap1\n      pop\n      jump\t// out\n        /* \"#utility.yul\":3245:3611   */\n    tag_156:\n        /* \"#utility.yul\":3387:3390   */\n      0x00\n        /* \"#utility.yul\":3408:3475   */\n      tag_158\n        /* \"#utility.yul\":3472:3474   */\n      0x15\n        /* \"#utility.yul\":3467:3470   */\n      dup4\n        /* \"#utility.yul\":3408:3475   */\n      tag_153\n      jump\t// in\n    tag_158:\n        /* \"#utility.yul\":3401:3475   */\n      swap2\n      pop\n        /* \"#utility.yul\":3484:3577   */\n      tag_159\n        /* \"#utility.yul\":3573:3576   */\n      dup3\n        /* \"#utility.yul\":3484:3577   */\n      tag_160\n      jump\t// in\n    tag_159:\n        /* \"#utility.yul\":3602:3604   */\n      0x20\n        /* \"#utility.yul\":3597:3600   */\n      dup3\n        /* \"#utility.yul\":3593:3605   */\n      add\n        /* \"#utility.yul\":3586:3605   */\n      swap1\n      pop\n        /* \"#utility.yul\":3245:3611   */\n      swap2\n      swap1\n      pop\n      jump\t// out\n        /* \"#utility.yul\":3617:3983   */\n    tag_161:\n        /* \"#utility.yul\":3759:3762   */\n      0x00\n        /* \"#utility.yul\":3780:3847   */\n      tag_163\n        /* \"#utility.yul\":3844:3846   */\n      0x10\n        /* \"#utility.yul\":3839:3842   */\n      dup4\n        /* \"#utility.yul\":3780:3847   */\n      tag_153\n      jump\t// in\n    tag_163:\n        /* \"#utility.yul\":3773:3847   */\n      swap2\n      pop\n        /* \"#utility.yul\":3856:3949   */\n      tag_164\n        /* \"#utility.yul\":3945:3948   */\n      dup3\n        /* \"#utility.yul\":3856:3949   */\n      tag_165\n      jump\t// in\n    tag_164:\n        /* \"#utility.yul\":3974:3976   */\n      0x20\n        /* \"#utility.yul\":3969:3972   */\n      dup3\n        /* \"#utility.yul\":3965:3977   */\n      add\n        /* \"#utility.yul\":3958:3977   */\n      swap1\n      pop\n        /* \"#utility.yul\":3617:3983   */\n      swap2\n      swap1\n      pop\n      jump\t// out\n        /* \"#utility.yul\":3989:4355   */\n    tag_166:\n        /* \"#utility.yul\":4131:4134   */\n      0x00\n        /* \"#utility.yul\":4152:4219   */\n      tag_168\n        /* \"#utility.yul\":4216:4218   */\n      0x27\n        /* \"#utility.yul\":4211:4214   */\n      dup4\n        /* \"#utility.yul\":4152:4219   */\n      tag_153\n      jump\t// in\n    tag_168:\n        /* \"#utility.yul\":4145:4219   */\n      swap2\n      pop\n        /* \"#utility.yul\":4228:4321   */\n      tag_169\n        /* \"#utility.yul\":4317:4320   */\n      dup3\n        /* \"#utility.yul\":4228:4321   */\n      tag_170\n      jump\t// in\n    tag_169:\n        /* \"#utility.yul\":4346:4348   */\n      0x40\n        /* \"#utility.yul\":4341:4344   */\n      dup3\n        /* \"#utility.yul\":4337:4349   */\n      add\n        /* \"#utility.yul\":4330:4349   */\n      swap1\n      pop\n        /* \"#utility.yul\":3989:4355   */\n      swap2\n      swap1\n      pop\n      jump\t// out\n        /* \"#utility.yul\":4361:4727   */\n    tag_171:\n        /* \"#utility.yul\":4503:4506   */\n      0x00\n        /* \"#utility.yul\":4524:4591   */\n      tag_173\n        /* \"#utility.yul\":4588:4590   */\n      0x13\n        /* \"#utility.yul\":4583:4586   */\n      dup4\n        /* \"#utility.yul\":4524:4591   */\n      tag_153\n      jump\t// in\n    tag_173:\n        /* \"#utility.yul\":4517:4591   */\n      swap2\n      pop\n        /* \"#utility.yul\":4600:4693   */\n      tag_174\n        /* \"#utility.yul\":4689:4692   */\n      dup3\n        /* \"#utility.yul\":4600:4693   */\n      tag_175\n      jump\t// in\n    tag_174:\n        /* \"#utility.yul\":4718:4720   */\n      0x20\n        /* \"#utility.yul\":4713:4716   */\n      dup3\n        /* \"#utility.yul\":4709:4721   */\n      add\n        /* \"#utility.yul\":4702:4721   */\n      swap1\n      pop\n        /* \"#utility.yul\":4361:4727   */\n      swap2\n      swap1\n      pop\n      jump\t// out\n        /* \"#utility.yul\":4733:5099   */\n    tag_176:\n        /* \"#utility.yul\":4875:4878   */\n      0x00\n        /* \"#utility.yul\":4896:4963   */\n      tag_178\n        /* \"#utility.yul\":4960:4962   */\n      0x27\n        /* \"#utility.yul\":4955:4958   */\n      dup4\n        /* \"#utility.yul\":4896:4963   */\n      tag_153\n      jump\t// in\n    tag_178:\n        /* \"#utility.yul\":4889:4963   */\n      swap2\n      pop\n        /* \"#utility.yul\":4972:5065   */\n      tag_179\n        /* \"#utility.yul\":5061:5064   */\n      dup3\n        /* \"#utility.yul\":4972:5065   */\n      tag_180\n      jump\t// in\n    tag_179:\n        /* \"#utility.yul\":5090:5092   */\n      0x40\n        /* \"#utility.yul\":5085:5088   */\n      dup3\n        /* \"#utility.yul\":5081:5093   */\n      add\n        /* \"#utility.yul\":5074:5093   */\n      swap1\n      pop\n        /* \"#utility.yul\":4733:5099   */\n      swap2\n      swap1\n      pop\n      jump\t// out\n        /* \"#utility.yul\":5179:5790   */\n    tag_181:\n        /* \"#utility.yul\":5298:5301   */\n      0x00\n        /* \"#utility.yul\":5334:5338   */\n      0x40\n        /* \"#utility.yul\":5329:5332   */\n      dup4\n        /* \"#utility.yul\":5325:5339   */\n      add\n        /* \"#utility.yul\":5421:5425   */\n      0x00\n        /* \"#utility.yul\":5414:5419   */\n      dup4\n        /* \"#utility.yul\":5410:5426   */\n      add\n        /* \"#utility.yul\":5404:5427   */\n      mload\n        /* \"#utility.yul\":5474:5477   */\n      dup5\n        /* \"#utility.yul\":5468:5472   */\n      dup3\n        /* \"#utility.yul\":5464:5478   */\n      sub\n        /* \"#utility.yul\":5457:5461   */\n      0x00\n        /* \"#utility.yul\":5452:5455   */\n      dup7\n        /* \"#utility.yul\":5448:5462   */\n      add\n        /* \"#utility.yul\":5441:5479   */\n      mstore\n        /* \"#utility.yul\":5500:5573   */\n      tag_183\n        /* \"#utility.yul\":5568:5572   */\n      dup3\n        /* \"#utility.yul\":5554:5566   */\n      dup3\n        /* \"#utility.yul\":5500:5573   */\n      tag_134\n      jump\t// in\n    tag_183:\n        /* \"#utility.yul\":5492:5573   */\n      swap2\n      pop\n        /* \"#utility.yul\":5349:5584   */\n      pop\n        /* \"#utility.yul\":5671:5675   */\n      0x20\n        /* \"#utility.yul\":5664:5669   */\n      dup4\n        /* \"#utility.yul\":5660:5676   */\n      add\n        /* \"#utility.yul\":5654:5677   */\n      mload\n        /* \"#utility.yul\":5690:5753   */\n      tag_184\n        /* \"#utility.yul\":5747:5751   */\n      0x20\n        /* \"#utility.yul\":5742:5745   */\n      dup7\n        /* \"#utility.yul\":5738:5752   */\n      add\n        /* \"#utility.yul\":5724:5736   */\n      dup3\n        /* \"#utility.yul\":5690:5753   */\n      tag_185\n      jump\t// in\n    tag_184:\n        /* \"#utility.yul\":5594:5763   */\n      pop\n        /* \"#utility.yul\":5780:5784   */\n      dup1\n        /* \"#utility.yul\":5773:5784   */\n      swap2\n      pop\n        /* \"#utility.yul\":5303:5790   */\n      pop\n        /* \"#utility.yul\":5179:5790   */\n      swap3\n      swap2\n      pop\n      pop\n      jump\t// out\n        /* \"#utility.yul\":5796:5904   */\n    tag_185:\n        /* \"#utility.yul\":5873:5897   */\n      tag_187\n        /* \"#utility.yul\":5891:5896   */\n      dup2\n        /* \"#utility.yul\":5873:5897   */\n      tag_188\n      jump\t// in\n    tag_187:\n        /* \"#utility.yul\":5868:5871   */\n      dup3\n        /* \"#utility.yul\":5861:5898   */\n      mstore\n        /* \"#utility.yul\":5796:5904   */\n      pop\n      pop\n      jump\t// out\n        /* \"#utility.yul\":5910:6185   */\n    tag_45:\n        /* \"#utility.yul\":6042:6045   */\n      0x00\n        /* \"#utility.yul\":6064:6159   */\n      tag_190\n        /* \"#utility.yul\":6155:6158   */\n      dup3\n        /* \"#utility.yul\":6146:6152   */\n      dup5\n        /* \"#utility.yul\":6064:6159   */\n      tag_144\n      jump\t// in\n    tag_190:\n        /* \"#utility.yul\":6057:6159   */\n      swap2\n      pop\n        /* \"#utility.yul\":6176:6179   */\n      dup2\n        /* \"#utility.yul\":6169:6179   */\n      swap1\n      pop\n        /* \"#utility.yul\":5910:6185   */\n      swap3\n      swap2\n      pop\n      pop\n      jump\t// out\n        /* \"#utility.yul\":6191:6610   */\n    tag_29:\n        /* \"#utility.yul\":6357:6361   */\n      0x00\n        /* \"#utility.yul\":6395:6397   */\n      0x20\n        /* \"#utility.yul\":6384:6393   */\n      dup3\n        /* \"#utility.yul\":6380:6398   */\n      add\n        /* \"#utility.yul\":6372:6398   */\n      swap1\n      pop\n        /* \"#utility.yul\":6444:6453   */\n      dup2\n        /* \"#utility.yul\":6438:6442   */\n      dup2\n        /* \"#utility.yul\":6434:6454   */\n      sub\n        /* \"#utility.yul\":6430:6431   */\n      0x00\n        /* \"#utility.yul\":6419:6428   */\n      dup4\n        /* \"#utility.yul\":6415:6432   */\n      add\n        /* \"#utility.yul\":6408:6455   */\n      mstore\n        /* \"#utility.yul\":6472:6603   */\n      tag_192\n        /* \"#utility.yul\":6598:6602   */\n      dup2\n        /* \"#utility.yul\":6472:6603   */\n      tag_150\n      jump\t// in\n    tag_192:\n        /* \"#utility.yul\":6464:6603   */\n      swap1\n      pop\n        /* \"#utility.yul\":6191:6610   */\n      swap2\n      swap1\n      pop\n      jump\t// out\n        /* \"#utility.yul\":6616:7035   */\n    tag_40:\n        /* \"#utility.yul\":6782:6786   */\n      0x00\n        /* \"#utility.yul\":6820:6822   */\n      0x20\n        /* \"#utility.yul\":6809:6818   */\n      dup3\n        /* \"#utility.yul\":6805:6823   */\n      add\n        /* \"#utility.yul\":6797:6823   */\n      swap1\n      pop\n        /* \"#utility.yul\":6869:6878   */\n      dup2\n        /* \"#utility.yul\":6863:6867   */\n      dup2\n        /* \"#utility.yul\":6859:6879   */\n      sub\n        /* \"#utility.yul\":6855:6856   */\n      0x00\n        /* \"#utility.yul\":6844:6853   */\n      dup4\n        /* \"#utility.yul\":6840:6857   */\n      add\n        /* \"#utility.yul\":6833:6880   */\n      mstore\n        /* \"#utility.yul\":6897:7028   */\n      tag_194\n        /* \"#utility.yul\":7023:7027   */\n      dup2\n        /* \"#utility.yul\":6897:7028   */\n      tag_156\n      jump\t// in\n    tag_194:\n        /* \"#utility.yul\":6889:7028   */\n      swap1\n      pop\n        /* \"#utility.yul\":6616:7035   */\n      swap2\n      swap1\n      pop\n      jump\t// out\n        /* \"#utility.yul\":7041:7460   */\n    tag_33:\n        /* \"#utility.yul\":7207:7211   */\n      0x00\n        /* \"#utility.yul\":7245:7247   */\n      0x20\n        /* \"#utility.yul\":7234:7243   */\n      dup3\n        /* \"#utility.yul\":7230:7248   */\n      add\n        /* \"#utility.yul\":7222:7248   */\n      swap1\n      pop\n        /* \"#utility.yul\":7294:7303   */\n      dup2\n        /* \"#utility.yul\":7288:7292   */\n      dup2\n        /* \"#utility.yul\":7284:7304   */\n      sub\n        /* \"#utility.yul\":7280:7281   */\n      0x00\n        /* \"#utility.yul\":7269:7278   */\n      dup4\n        /* \"#utility.yul\":7265:7282   */\n      add\n        /* \"#utility.yul\":7258:7305   */\n      mstore\n        /* \"#utility.yul\":7322:7453   */\n      tag_196\n        /* \"#utility.yul\":7448:7452   */\n      dup2\n        /* \"#utility.yul\":7322:7453   */\n      tag_161\n      jump\t// in\n    tag_196:\n        /* \"#utility.yul\":7314:7453   */\n      swap1\n      pop\n        /* \"#utility.yul\":7041:7460   */\n      swap2\n      swap1\n      pop\n      jump\t// out\n        /* \"#utility.yul\":7466:7885   */\n    tag_71:\n        /* \"#utility.yul\":7632:7636   */\n      0x00\n        /* \"#utility.yul\":7670:7672   */\n      0x20\n        /* \"#utility.yul\":7659:7668   */\n      dup3\n        /* \"#utility.yul\":7655:7673   */\n      add\n        /* \"#utility.yul\":7647:7673   */\n      swap1\n      pop\n        /* \"#utility.yul\":7719:7728   */\n      dup2\n        /* \"#utility.yul\":7713:7717   */\n      dup2\n        /* \"#utility.yul\":7709:7729   */\n      sub\n        /* \"#utility.yul\":7705:7706   */\n      0x00\n        /* \"#utility.yul\":7694:7703   */\n      dup4\n        /* \"#utility.yul\":7690:7707   */\n      add\n        /* \"#utility.yul\":7683:7730   */\n      mstore\n        /* \"#utility.yul\":7747:7878   */\n      tag_198\n        /* \"#utility.yul\":7873:7877   */\n      dup2\n        /* \"#utility.yul\":7747:7878   */\n      tag_166\n      jump\t// in\n    tag_198:\n        /* \"#utility.yul\":7739:7878   */\n      swap1\n      pop\n        /* \"#utility.yul\":7466:7885   */\n      swap2\n      swap1\n      pop\n      jump\t// out\n        /* \"#utility.yul\":7891:8310   */\n    tag_37:\n        /* \"#utility.yul\":8057:8061   */\n      0x00\n        /* \"#utility.yul\":8095:8097   */\n      0x20\n        /* \"#utility.yul\":8084:8093   */\n      dup3\n        /* \"#utility.yul\":8080:8098   */\n      add\n        /* \"#utility.yul\":8072:8098   */\n      swap1\n      pop\n        /* \"#utility.yul\":8144:8153   */\n      dup2\n        /* \"#utility.yul\":8138:8142   */\n      dup2\n        /* \"#utility.yul\":8134:8154   */\n      sub\n        /* \"#utility.yul\":8130:8131   */\n      0x00\n        /* \"#utility.yul\":8119:8128   */\n      dup4\n        /* \"#utility.yul\":8115:8132   */\n      add\n        /* \"#utility.yul\":8108:8155   */\n      mstore\n        /* \"#utility.yul\":8172:8303   */\n      tag_200\n        /* \"#utility.yul\":8298:8302   */\n      dup2\n        /* \"#utility.yul\":8172:8303   */\n      tag_171\n      jump\t// in\n    tag_200:\n        /* \"#utility.yul\":8164:8303   */\n      swap1\n      pop\n        /* \"#utility.yul\":7891:8310   */\n      swap2\n      swap1\n      pop\n      jump\t// out\n        /* \"#utility.yul\":8316:8735   */\n    tag_81:\n        /* \"#utility.yul\":8482:8486   */\n      0x00\n        /* \"#utility.yul\":8520:8522   */\n      0x20\n        /* \"#utility.yul\":8509:8518   */\n      dup3\n        /* \"#utility.yul\":8505:8523   */\n      add\n        /* \"#utility.yul\":8497:8523   */\n      swap1\n      pop\n        /* \"#utility.yul\":8569:8578   */\n      dup2\n        /* \"#utility.yul\":8563:8567   */\n      dup2\n        /* \"#utility.yul\":8559:8579   */\n      sub\n        /* \"#utility.yul\":8555:8556   */\n      0x00\n        /* \"#utility.yul\":8544:8553   */\n      dup4\n        /* \"#utility.yul\":8540:8557   */\n      add\n        /* \"#utility.yul\":8533:8580   */\n      mstore\n        /* \"#utility.yul\":8597:8728   */\n      tag_202\n        /* \"#utility.yul\":8723:8727   */\n      dup2\n        /* \"#utility.yul\":8597:8728   */\n      tag_176\n      jump\t// in\n    tag_202:\n        /* \"#utility.yul\":8589:8728   */\n      swap1\n      pop\n        /* \"#utility.yul\":8316:8735   */\n      swap2\n      swap1\n      pop\n      jump\t// out\n        /* \"#utility.yul\":8741:9114   */\n    tag_17:\n        /* \"#utility.yul\":8884:8888   */\n      0x00\n        /* \"#utility.yul\":8922:8924   */\n      0x20\n        /* \"#utility.yul\":8911:8920   */\n      dup3\n        /* \"#utility.yul\":8907:8925   */\n      add\n        /* \"#utility.yul\":8899:8925   */\n      swap1\n      pop\n        /* \"#utility.yul\":8971:8980   */\n      dup2\n        /* \"#utility.yul\":8965:8969   */\n      dup2\n        /* \"#utility.yul\":8961:8981   */\n      sub\n        /* \"#utility.yul\":8957:8958   */\n      0x00\n        /* \"#utility.yul\":8946:8955   */\n      dup4\n        /* \"#utility.yul\":8942:8959   */\n      add\n        /* \"#utility.yul\":8935:8982   */\n      mstore\n        /* \"#utility.yul\":8999:9107   */\n      tag_204\n        /* \"#utility.yul\":9102:9106   */\n      dup2\n        /* \"#utility.yul\":9093:9099   */\n      dup5\n        /* \"#utility.yul\":8999:9107   */\n      tag_181\n      jump\t// in\n    tag_204:\n        /* \"#utility.yul\":8991:9107   */\n      swap1\n      pop\n        /* \"#utility.yul\":8741:9114   */\n      swap3\n      swap2\n      pop\n      pop\n      jump\t// out\n        /* \"#utility.yul\":9120:9249   */\n    tag_105:\n        /* \"#utility.yul\":9154:9160   */\n      0x00\n        /* \"#utility.yul\":9181:9201   */\n      tag_206\n      tag_207\n      jump\t// in\n    tag_206:\n        /* \"#utility.yul\":9171:9201   */\n      swap1\n      pop\n        /* \"#utility.yul\":9210:9243   */\n      tag_208\n        /* \"#utility.yul\":9238:9242   */\n      dup3\n        /* \"#utility.yul\":9230:9236   */\n      dup3\n        /* \"#utility.yul\":9210:9243   */\n      tag_209\n      jump\t// in\n    tag_208:\n        /* \"#utility.yul\":9120:9249   */\n      swap2\n      swap1\n      pop\n      jump\t// out\n        /* \"#utility.yul\":9255:9330   */\n    tag_207:\n        /* \"#utility.yul\":9288:9294   */\n      0x00\n        /* \"#utility.yul\":9321:9323   */\n      0x40\n        /* \"#utility.yul\":9315:9324   */\n      mload\n        /* \"#utility.yul\":9305:9324   */\n      swap1\n      pop\n        /* \"#utility.yul\":9255:9330   */\n      swap1\n      jump\t// out\n        /* \"#utility.yul\":9336:9644   */\n    tag_104:\n        /* \"#utility.yul\":9398:9402   */\n      0x00\n        /* \"#utility.yul\":9488:9506   */\n      0xffffffffffffffff\n        /* \"#utility.yul\":9480:9486   */\n      dup3\n        /* \"#utility.yul\":9477:9507   */\n      gt\n        /* \"#utility.yul\":9474:9530   */\n      iszero\n      tag_212\n      jumpi\n        /* \"#utility.yul\":9510:9528   */\n      tag_213\n      tag_214\n      jump\t// in\n    tag_213:\n        /* \"#utility.yul\":9474:9530   */\n    tag_212:\n        /* \"#utility.yul\":9548:9577   */\n      tag_215\n        /* \"#utility.yul\":9570:9576   */\n      dup3\n        /* \"#utility.yul\":9548:9577   */\n      tag_143\n      jump\t// in\n    tag_215:\n        /* \"#utility.yul\":9540:9577   */\n      swap1\n      pop\n        /* \"#utility.yul\":9632:9636   */\n      0x20\n        /* \"#utility.yul\":9626:9630   */\n      dup2\n        /* \"#utility.yul\":9622:9637   */\n      add\n        /* \"#utility.yul\":9614:9637   */\n      swap1\n      pop\n        /* \"#utility.yul\":9336:9644   */\n      swap2\n      swap1\n      pop\n      jump\t// out\n        /* \"#utility.yul\":9650:9749   */\n    tag_137:\n        /* \"#utility.yul\":9702:9708   */\n      0x00\n        /* \"#utility.yul\":9736:9741   */\n      dup2\n        /* \"#utility.yul\":9730:9742   */\n      mload\n        /* \"#utility.yul\":9720:9742   */\n      swap1\n      pop\n        /* \"#utility.yul\":9650:9749   */\n      swap2\n      swap1\n      pop\n      jump\t// out\n        /* \"#utility.yul\":9755:9914   */\n    tag_139:\n        /* \"#utility.yul\":9829:9840   */\n      0x00\n        /* \"#utility.yul\":9863:9869   */\n      dup3\n        /* \"#utility.yul\":9858:9861   */\n      dup3\n        /* \"#utility.yul\":9851:9870   */\n      mstore\n        /* \"#utility.yul\":9903:9907   */\n      0x20\n        /* \"#utility.yul\":9898:9901   */\n      dup3\n        /* \"#utility.yul\":9894:9908   */\n      add\n        /* \"#utility.yul\":9879:9908   */\n      swap1\n      pop\n        /* \"#utility.yul\":9755:9914   */\n      swap3\n      swap2\n      pop\n      pop\n      jump\t// out\n        /* \"#utility.yul\":9920:10089   */\n    tag_153:\n        /* \"#utility.yul\":10004:10015   */\n      0x00\n        /* \"#utility.yul\":10038:10044   */\n      dup3\n        /* \"#utility.yul\":10033:10036   */\n      dup3\n        /* \"#utility.yul\":10026:10045   */\n      mstore\n        /* \"#utility.yul\":10078:10082   */\n      0x20\n        /* \"#utility.yul\":10073:10076   */\n      dup3\n        /* \"#utility.yul\":10069:10083   */\n      add\n        /* \"#utility.yul\":10054:10083   */\n      swap1\n      pop\n        /* \"#utility.yul\":9920:10089   */\n      swap3\n      swap2\n      pop\n      pop\n      jump\t// out\n        /* \"#utility.yul\":10095:10243   */\n    tag_148:\n        /* \"#utility.yul\":10197:10208   */\n      0x00\n        /* \"#utility.yul\":10234:10237   */\n      dup2\n        /* \"#utility.yul\":10219:10237   */\n      swap1\n      pop\n        /* \"#utility.yul\":10095:10243   */\n      swap3\n      swap2\n      pop\n      pop\n      jump\t// out\n        /* \"#utility.yul\":10249:10554   */\n    tag_61:\n        /* \"#utility.yul\":10289:10292   */\n      0x00\n        /* \"#utility.yul\":10308:10328   */\n      tag_221\n        /* \"#utility.yul\":10326:10327   */\n      dup3\n        /* \"#utility.yul\":10308:10328   */\n      tag_188\n      jump\t// in\n    tag_221:\n        /* \"#utility.yul\":10303:10328   */\n      swap2\n      pop\n        /* \"#utility.yul\":10342:10362   */\n      tag_222\n        /* \"#utility.yul\":10360:10361   */\n      dup4\n        /* \"#utility.yul\":10342:10362   */\n      tag_188\n      jump\t// in\n    tag_222:\n        /* \"#utility.yul\":10337:10362   */\n      swap3\n      pop\n        /* \"#utility.yul\":10496:10497   */\n      dup3\n        /* \"#utility.yul\":10428:10494   */\n      0xffffffffffffffffffffffffffffffffffffffffffffffffffffffffffffffff\n        /* \"#utility.yul\":10424:10498   */\n      sub\n        /* \"#utility.yul\":10421:10422   */\n      dup3\n        /* \"#utility.yul\":10418:10499   */\n      gt\n        /* \"#utility.yul\":10415:10522   */\n      iszero\n      tag_223\n      jumpi\n        /* \"#utility.yul\":10502:10520   */\n      tag_224\n      tag_225\n      jump\t// in\n    tag_224:\n        /* \"#utility.yul\":10415:10522   */\n    tag_223:\n        /* \"#utility.yul\":10546:10547   */\n      dup3\n        /* \"#utility.yul\":10543:10544   */\n      dup3\n        /* \"#utility.yul\":10539:10548   */\n      add\n        /* \"#utility.yul\":10532:10548   */\n      swap1\n      pop\n        /* \"#utility.yul\":10249:10554   */\n      swap3\n      swap2\n      pop\n      pop\n      jump\t// out\n        /* \"#utility.yul\":10560:10637   */\n    tag_188:\n        /* \"#utility.yul\":10597:10604   */\n      0x00\n        /* \"#utility.yul\":10626:10631   */\n      dup2\n        /* \"#utility.yul\":10615:10631   */\n      swap1\n      pop\n        /* \"#utility.yul\":10560:10637   */\n      swap2\n      swap1\n      pop\n      jump\t// out\n        /* \"#utility.yul\":10643:10797   */\n    tag_110:\n        /* \"#utility.yul\":10727:10733   */\n      dup3\n        /* \"#utility.yul\":10722:10725   */\n      dup2\n        /* \"#utility.yul\":10717:10720   */\n      dup4\n        /* \"#utility.yul\":10704:10734   */\n      calldatacopy\n        /* \"#utility.yul\":10789:10790   */\n      0x00\n        /* \"#utility.yul\":10780:10786   */\n      dup4\n        /* \"#utility.yul\":10775:10778   */\n      dup4\n        /* \"#utility.yul\":10771:10787   */\n      add\n        /* \"#utility.yul\":10764:10791   */\n      mstore\n        /* \"#utility.yul\":10643:10797   */\n      pop\n      pop\n      pop\n      jump\t// out\n        /* \"#utility.yul\":10803:11110   */\n    tag_141:\n        /* \"#utility.yul\":10871:10872   */\n      0x00\n        /* \"#utility.yul\":10881:10994   */\n    tag_229:\n        /* \"#utility.yul\":10895:10901   */\n      dup4\n        /* \"#utility.yul\":10892:10893   */\n      dup2\n        /* \"#utility.yul\":10889:10902   */\n      lt\n        /* \"#utility.yul\":10881:10994   */\n      iszero\n      tag_231\n      jumpi\n        /* \"#utility.yul\":10980:10981   */\n      dup1\n        /* \"#utility.yul\":10975:10978   */\n      dup3\n        /* \"#utility.yul\":10971:10982   */\n      add\n        /* \"#utility.yul\":10965:10983   */\n      mload\n        /* \"#utility.yul\":10961:10962   */\n      dup2\n        /* \"#utility.yul\":10956:10959   */\n      dup5\n        /* \"#utility.yul\":10952:10963   */\n      add\n        /* \"#utility.yul\":10945:10984   */\n      mstore\n        /* \"#utility.yul\":10917:10919   */\n      0x20\n        /* \"#utility.yul\":10914:10915   */\n      dup2\n        /* \"#utility.yul\":10910:10920   */\n      add\n        /* \"#utility.yul\":10905:10920   */\n      swap1\n      pop\n        /* \"#utility.yul\":10881:10994   */\n      jump(tag_229)\n    tag_231:\n        /* \"#utility.yul\":11012:11018   */\n      dup4\n        /* \"#utility.yul\":11009:11010   */\n      dup2\n        /* \"#utility.yul\":11006:11019   */\n      gt\n        /* \"#utility.yul\":11003:11104   */\n      iszero\n      tag_232\n      jumpi\n        /* \"#utility.yul\":11092:11093   */\n      0x00\n        /* \"#utility.yul\":11083:11089   */\n      dup5\n        /* \"#utility.yul\":11078:11081   */\n      dup5\n        /* \"#utility.yul\":11074:11090   */\n      add\n        /* \"#utility.yul\":11067:11094   */\n      mstore\n        /* \"#utility.yul\":11003:11104   */\n    tag_232:\n        /* \"#utility.yul\":10852:11110   */\n      pop\n        /* \"#utility.yul\":10803:11110   */\n      pop\n      pop\n      pop\n      jump\t// out\n        /* \"#utility.yul\":11116:11436   */\n    tag_53:\n        /* \"#utility.yul\":11160:11166   */\n      0x00\n        /* \"#utility.yul\":11197:11198   */\n      0x02\n        /* \"#utility.yul\":11191:11195   */\n      dup3\n        /* \"#utility.yul\":11187:11199   */\n      div\n        /* \"#utility.yul\":11177:11199   */\n      swap1\n      pop\n        /* \"#utility.yul\":11244:11245   */\n      0x01\n        /* \"#utility.yul\":11238:11242   */\n      dup3\n        /* \"#utility.yul\":11234:11246   */\n      and\n        /* \"#utility.yul\":11265:11283   */\n      dup1\n        /* \"#utility.yul\":11255:11336   */\n      tag_234\n      jumpi\n        /* \"#utility.yul\":11321:11325   */\n      0x7f\n        /* \"#utility.yul\":11313:11319   */\n      dup3\n        /* \"#utility.yul\":11309:11326   */\n      and\n        /* \"#utility.yul\":11299:11326   */\n      swap2\n      pop\n        /* \"#utility.yul\":11255:11336   */\n    tag_234:\n        /* \"#utility.yul\":11383:11385   */\n      0x20\n        /* \"#utility.yul\":11375:11381   */\n      dup3\n        /* \"#utility.yul\":11372:11386   */\n      lt\n        /* \"#utility.yul\":11352:11370   */\n      dup2\n        /* \"#utility.yul\":11349:11387   */\n      eq\n        /* \"#utility.yul\":11346:11430   */\n      iszero\n      tag_235\n      jumpi\n        /* \"#utility.yul\":11402:11420   */\n      tag_236\n      tag_237\n      jump\t// in\n    tag_236:\n        /* \"#utility.yul\":11346:11430   */\n    tag_235:\n        /* \"#utility.yul\":11167:11436   */\n      pop\n        /* \"#utility.yul\":11116:11436   */\n      swap2\n      swap1\n      pop\n      jump\t// out\n        /* \"#utility.yul\":11442:11723   */\n    tag_209:\n        /* \"#utility.yul\":11525:11552   */\n      tag_239\n        /* \"#utility.yul\":11547:11551   */\n      dup3\n        /* \"#utility.yul\":11525:11552   */\n      tag_143\n      jump\t// in\n    tag_239:\n        /* \"#utility.yul\":11517:11523   */\n      dup2\n        /* \"#utility.yul\":11513:11553   */\n      add\n        /* \"#utility.yul\":11655:11661   */\n      dup2\n        /* \"#utility.yul\":11643:11653   */\n      dup2\n        /* \"#utility.yul\":11640:11662   */\n      lt\n        /* \"#utility.yul\":11619:11637   */\n      0xffffffffffffffff\n        /* \"#utility.yul\":11607:11617   */\n      dup3\n        /* \"#utility.yul\":11604:11638   */\n      gt\n        /* \"#utility.yul\":11601:11663   */\n      or\n        /* \"#utility.yul\":11598:11686   */\n      iszero\n      tag_240\n      jumpi\n        /* \"#utility.yul\":11666:11684   */\n      tag_241\n      tag_214\n      jump\t// in\n    tag_241:\n        /* \"#utility.yul\":11598:11686   */\n    tag_240:\n        /* \"#utility.yul\":11706:11716   */\n      dup1\n        /* \"#utility.yul\":11702:11704   */\n      0x40\n        /* \"#utility.yul\":11695:11717   */\n      mstore\n        /* \"#utility.yul\":11485:11723   */\n      pop\n        /* \"#utility.yul\":11442:11723   */\n      pop\n      pop\n      jump\t// out\n        /* \"#utility.yul\":11729:11909   */\n    tag_225:\n        /* \"#utility.yul\":11777:11854   */\n      0x4e487b7100000000000000000000000000000000000000000000000000000000\n        /* \"#utility.yul\":11774:11775   */\n      0x00\n        /* \"#utility.yul\":11767:11855   */\n      mstore\n        /* \"#utility.yul\":11874:11878   */\n      0x11\n        /* \"#utility.yul\":11871:11872   */\n      0x04\n        /* \"#utility.yul\":11864:11879   */\n      mstore\n        /* \"#utility.yul\":11898:11902   */\n      0x24\n        /* \"#utility.yul\":11895:11896   */\n      0x00\n        /* \"#utility.yul\":11888:11903   */\n      revert\n        /* \"#utility.yul\":11915:12095   */\n    tag_237:\n        /* \"#utility.yul\":11963:12040   */\n      0x4e487b7100000000000000000000000000000000000000000000000000000000\n        /* \"#utility.yul\":11960:11961   */\n      0x00\n        /* \"#utility.yul\":11953:12041   */\n      mstore\n        /* \"#utility.yul\":12060:12064   */\n      0x22\n        /* \"#utility.yul\":12057:12058   */\n      0x04\n        /* \"#utility.yul\":12050:12065   */\n      mstore\n        /* \"#utility.yul\":12084:12088   */\n      0x24\n        /* \"#utility.yul\":12081:12082   */\n      0x00\n        /* \"#utility.yul\":12074:12089   */\n      revert\n        /* \"#utility.yul\":12101:12281   */\n    tag_214:\n        /* \"#utility.yul\":12149:12226   */\n      0x4e487b7100000000000000000000000000000000000000000000000000000000\n        /* \"#utility.yul\":12146:12147   */\n      0x00\n        /* \"#utility.yul\":12139:12227   */\n      mstore\n        /* \"#utility.yul\":12246:12250   */\n      0x41\n        /* \"#utility.yul\":12243:12244   */\n      0x04\n        /* \"#utility.yul\":12236:12251   */\n      mstore\n        /* \"#utility.yul\":12270:12274   */\n      0x24\n        /* \"#utility.yul\":12267:12268   */\n      0x00\n        /* \"#utility.yul\":12260:12275   */\n      revert\n        /* \"#utility.yul\":12287:12404   */\n    tag_115:\n        /* \"#utility.yul\":12396:12397   */\n      0x00\n        /* \"#utility.yul\":12393:12394   */\n      dup1\n        /* \"#utility.yul\":12386:12398   */\n      revert\n        /* \"#utility.yul\":12410:12527   */\n    tag_108:\n        /* \"#utility.yul\":12519:12520   */\n      0x00\n        /* \"#utility.yul\":12516:12517   */\n      dup1\n        /* \"#utility.yul\":12509:12521   */\n      revert\n        /* \"#utility.yul\":12533:12650   */\n    tag_123:\n        /* \"#utility.yul\":12642:12643   */\n      0x00\n        /* \"#utility.yul\":12639:12640   */\n      dup1\n        /* \"#utility.yul\":12632:12644   */\n      revert\n        /* \"#utility.yul\":12656:12773   */\n    tag_120:\n        /* \"#utility.yul\":12765:12766   */\n      0x00\n        /* \"#utility.yul\":12762:12763   */\n      dup1\n        /* \"#utility.yul\":12755:12767   */\n      revert\n        /* \"#utility.yul\":12779:12881   */\n    tag_143:\n        /* \"#utility.yul\":12820:12826   */\n      0x00\n        /* \"#utility.yul\":12871:12873   */\n      0x1f\n        /* \"#utility.yul\":12867:12874   */\n      not\n        /* \"#utility.yul\":12862:12864   */\n      0x1f\n        /* \"#utility.yul\":12855:12860   */\n      dup4\n        /* \"#utility.yul\":12851:12865   */\n      add\n        /* \"#utility.yul\":12847:12875   */\n      and\n        /* \"#utility.yul\":12837:12875   */\n      swap1\n      pop\n        /* \"#utility.yul\":12779:12881   */\n      swap2\n      swap1\n      pop\n      jump\t// out\n        /* \"#utility.yul\":12887:13057   */\n    tag_155:\n        /* \"#utility.yul\":13027:13049   */\n      0x556e617574686f72697a6564204163636573732e000000000000000000000000\n        /* \"#utility.yul\":13023:13024   */\n      0x00\n        /* \"#utility.yul\":13015:13021   */\n      dup3\n        /* \"#utility.yul\":13011:13025   */\n      add\n        /* \"#utility.yul\":13004:13050   */\n      mstore\n        /* \"#utility.yul\":12887:13057   */\n      pop\n      jump\t// out\n        /* \"#utility.yul\":13063:13234   */\n    tag_160:\n        /* \"#utility.yul\":13203:13226   */\n      0x53796d626f6c2063616e277420626520656d7074790000000000000000000000\n        /* \"#utility.yul\":13199:13200   */\n      0x00\n        /* \"#utility.yul\":13191:13197   */\n      dup3\n        /* \"#utility.yul\":13187:13201   */\n      add\n        /* \"#utility.yul\":13180:13227   */\n      mstore\n        /* \"#utility.yul\":13063:13234   */\n      pop\n      jump\t// out\n        /* \"#utility.yul\":13240:13406   */\n    tag_165:\n        /* \"#utility.yul\":13380:13398   */\n      0x416c726561647920537461727465642e00000000000000000000000000000000\n        /* \"#utility.yul\":13376:13377   */\n      0x00\n        /* \"#utility.yul\":13368:13374   */\n      dup3\n        /* \"#utility.yul\":13364:13378   */\n      add\n        /* \"#utility.yul\":13357:13399   */\n      mstore\n        /* \"#utility.yul\":13240:13406   */\n      pop\n      jump\t// out\n        /* \"#utility.yul\":13412:13638   */\n    tag_170:\n        /* \"#utility.yul\":13552:13586   */\n      0x41746c6561737420322063616e646964617465206d7573742062652072656769\n        /* \"#utility.yul\":13548:13549   */\n      0x00\n        /* \"#utility.yul\":13540:13546   */\n      dup3\n        /* \"#utility.yul\":13536:13550   */\n      add\n        /* \"#utility.yul\":13529:13587   */\n      mstore\n        /* \"#utility.yul\":13621:13630   */\n      0x7374657265642e00000000000000000000000000000000000000000000000000\n        /* \"#utility.yul\":13616:13618   */\n      0x20\n        /* \"#utility.yul\":13608:13614   */\n      dup3\n        /* \"#utility.yul\":13604:13619   */\n      add\n        /* \"#utility.yul\":13597:13631   */\n      mstore\n        /* \"#utility.yul\":13412:13638   */\n      pop\n      jump\t// out\n        /* \"#utility.yul\":13644:13813   */\n    tag_175:\n        /* \"#utility.yul\":13784:13805   */\n      0x4e616d652043616e277420626520656d70747900000000000000000000000000\n        /* \"#utility.yul\":13780:13781   */\n      0x00\n        /* \"#utility.yul\":13772:13778   */\n      dup3\n        /* \"#utility.yul\":13768:13782   */\n      add\n        /* \"#utility.yul\":13761:13806   */\n      mstore\n        /* \"#utility.yul\":13644:13813   */\n      pop\n      jump\t// out\n        /* \"#utility.yul\":13819:14045   */\n    tag_180:\n        /* \"#utility.yul\":13959:13993   */\n      0x41746c6561737420312063616e646964617465206d7573742062652072656769\n        /* \"#utility.yul\":13955:13956   */\n      0x00\n        /* \"#utility.yul\":13947:13953   */\n      dup3\n        /* \"#utility.yul\":13943:13957   */\n      add\n        /* \"#utility.yul\":13936:13994   */\n      mstore\n        /* \"#utility.yul\":14028:14037   */\n      0x7374657265642e00000000000000000000000000000000000000000000000000\n        /* \"#utility.yul\":14023:14025   */\n      0x20\n        /* \"#utility.yul\":14015:14021   */\n      dup3\n        /* \"#utility.yul\":14011:14026   */\n      add\n        /* \"#utility.yul\":14004:14038   */\n      mstore\n        /* \"#utility.yul\":13819:14045   */\n      pop\n      jump\t// out\n\n    auxdata: 0xa26469706673582212207f7ac05a117b782b65e9dbada282dbb2b6f9c61f69b6fc037d3d1fd684b93fa664736f6c63430008070033\n}\n",
				"bytecode": {
					"linkReferences": {},
					"object": "60806040526000600160146101000a81548160ff02191690831515021790555034801561002b57600080fd5b5033600160006101000a81548173ffffffffffffffffffffffffffffffffffffffff021916908373ffffffffffffffffffffffffffffffffffffffff160217905550610f2a8061007c6000396000f3fe608060405234801561001057600080fd5b50600436106100575760003560e01c8063137967a61461005c578063196b2e24146100785780631f6d52c5146100a85780634c0a6af0146100c457806388feb516146100ce575b600080fd5b61007660048036038101906100719190610874565b6100ea565b005b610092600480360381019061008d919061082b565b6102f8565b60405161009f9190610b4b565b60405180910390f35b6100c260048036038101906100bd919061082b565b6103cc565b005b6100cc610408565b005b6100e860048036038101906100e3919061082b565b610553565b005b600160009054906101000a900473ffffffffffffffffffffffffffffffffffffffff1673ffffffffffffffffffffffffffffffffffffffff163373ffffffffffffffffffffffffffffffffffffffff161461017a576040517f08c379a000000000000000000000000000000000000000000000000000000000815260040161017190610a8b565b60405180910390fd5b60011515600160149054906101000a900460ff16151514156101d1576040517f08c379a00000000000000000000000000000000000000000000000000000000081526004016101c890610acb565b60405180910390fd5b600082511415610216576040517f08c379a000000000000000000000000000000000000000000000000000000000815260040161020d90610b0b565b60405180910390fd5b60008151141561025b576040517f08c379a000000000000000000000000000000000000000000000000000000000815260040161025290610aab565b60405180910390fd5b6002819080600181540180825580915050600190039060005260206000200160009091909190915090805190602001906102969291906106be565b50816003826040516102a89190610a74565b908152602001604051809103902060000190805190602001906102cc9291906106be565b5060006003826040516102df9190610a74565b9081526020016040518091039020600101819055505050565b610300610744565b6003826040516103109190610a74565b908152602001604051809103902060405180604001604052908160008201805461033990610c9d565b80601f016020809104026020016040519081016040528092919081815260200182805461036590610c9d565b80156103b25780601f10610387576101008083540402835291602001916103b2565b820191906000526020600020905b81548152906001019060200180831161039557829003601f168201915b505050505081526020016001820154815250509050919050565b60016003826040516103de9190610a74565b908152602001604051809103902060010160008282546103fe9190610bfb565b9250508190555050565b600160009054906101000a900473ffffffffffffffffffffffffffffffffffffffff1673ffffffffffffffffffffffffffffffffffffffff163373ffffffffffffffffffffffffffffffffffffffff1614610498576040517f08c379a000000000000000000000000000000000000000000000000000000000815260040161048f90610a8b565b60405180910390fd5b60011515600160149054906101000a900460ff16151514156104ef576040517f08c379a00000000000000000000000000000000000000000000000000000000081526004016104e690610acb565b60405180910390fd5b600060028054905011610537576040517f08c379a000000000000000000000000000000000000000000000000000000000815260040161052e90610aeb565b60405180910390fd5b60018060146101000a81548160ff021916908315150217905550565b600160009054906101000a900473ffffffffffffffffffffffffffffffffffffffff1673ffffffffffffffffffffffffffffffffffffffff163373ffffffffffffffffffffffffffffffffffffffff16146105e3576040517f08c379a00000000000000000000000000000000000000000000000000000000081526004016105da90610a8b565b60405180910390fd5b60011515600160149054906101000a900460ff161515141561063a576040517f08c379a000000000000000000000000000000000000000000000000000000000815260040161063190610acb565b60405180910390fd5b600060028054905011610682576040517f08c379a000000000000000000000000000000000000000000000000000000000815260040161067990610b2b565b60405180910390fd5b6003816040516106929190610a74565b9081526020016040518091039020600080820160006106b1919061075e565b6001820160009055505050565b8280546106ca90610c9d565b90600052602060002090601f0160209004810192826106ec5760008555610733565b82601f1061070557805160ff1916838001178555610733565b82800160010185558215610733579182015b82811115610732578251825591602001919060010190610717565b5b509050610740919061079e565b5090565b604051806040016040528060608152602001600081525090565b50805461076a90610c9d565b6000825580601f1061077c575061079b565b601f01602090049060005260206000209081019061079a919061079e565b5b50565b5b808211156107b757600081600090555060010161079f565b5090565b60006107ce6107c984610b92565b610b6d565b9050828152602081018484840111156107ea576107e9610d92565b5b6107f5848285610c5b565b509392505050565b600082601f83011261081257610811610d8d565b5b81356108228482602086016107bb565b91505092915050565b60006020828403121561084157610840610d9c565b5b600082013567ffffffffffffffff81111561085f5761085e610d97565b5b61086b848285016107fd565b91505092915050565b6000806040838503121561088b5761088a610d9c565b5b600083013567ffffffffffffffff8111156108a9576108a8610d97565b5b6108b5858286016107fd565b925050602083013567ffffffffffffffff8111156108d6576108d5610d97565b5b6108e2858286016107fd565b9150509250929050565b60006108f782610bc3565b6109018185610bce565b9350610911818560208601610c6a565b61091a81610da1565b840191505092915050565b600061093082610bc3565b61093a8185610bf0565b935061094a818560208601610c6a565b80840191505092915050565b6000610963601483610bdf565b915061096e82610db2565b602082019050919050565b6000610986601583610bdf565b915061099182610ddb565b602082019050919050565b60006109a9601083610bdf565b91506109b482610e04565b602082019050919050565b60006109cc602783610bdf565b91506109d782610e2d565b604082019050919050565b60006109ef601383610bdf565b91506109fa82610e7c565b602082019050919050565b6000610a12602783610bdf565b9150610a1d82610ea5565b604082019050919050565b60006040830160008301518482036000860152610a4582826108ec565b9150506020830151610a5a6020860182610a65565b508091505092915050565b610a6e81610c51565b82525050565b6000610a808284610925565b915081905092915050565b60006020820190508181036000830152610aa481610956565b9050919050565b60006020820190508181036000830152610ac481610979565b9050919050565b60006020820190508181036000830152610ae48161099c565b9050919050565b60006020820190508181036000830152610b04816109bf565b9050919050565b60006020820190508181036000830152610b24816109e2565b9050919050565b60006020820190508181036000830152610b4481610a05565b9050919050565b60006020820190508181036000830152610b658184610a28565b905092915050565b6000610b77610b88565b9050610b838282610ccf565b919050565b6000604051905090565b600067ffffffffffffffff821115610bad57610bac610d5e565b5b610bb682610da1565b9050602081019050919050565b600081519050919050565b600082825260208201905092915050565b600082825260208201905092915050565b600081905092915050565b6000610c0682610c51565b9150610c1183610c51565b9250827fffffffffffffffffffffffffffffffffffffffffffffffffffffffffffffffff03821115610c4657610c45610d00565b5b828201905092915050565b6000819050919050565b82818337600083830152505050565b60005b83811015610c88578082015181840152602081019050610c6d565b83811115610c97576000848401525b50505050565b60006002820490506001821680610cb557607f821691505b60208210811415610cc957610cc8610d2f565b5b50919050565b610cd882610da1565b810181811067ffffffffffffffff82111715610cf757610cf6610d5e565b5b80604052505050565b7f4e487b7100000000000000000000000000000000000000000000000000000000600052601160045260246000fd5b7f4e487b7100000000000000000000000000000000000000000000000000000000600052602260045260246000fd5b7f4e487b7100000000000000000000000000000000000000000000000000000000600052604160045260246000fd5b600080fd5b600080fd5b600080fd5b600080fd5b6000601f19601f8301169050919050565b7f556e617574686f72697a6564204163636573732e000000000000000000000000600082015250565b7f53796d626f6c2063616e277420626520656d7074790000000000000000000000600082015250565b7f416c726561647920537461727465642e00000000000000000000000000000000600082015250565b7f41746c6561737420322063616e646964617465206d757374206265207265676960008201527f7374657265642e00000000000000000000000000000000000000000000000000602082015250565b7f4e616d652043616e277420626520656d70747900000000000000000000000000600082015250565b7f41746c6561737420312063616e646964617465206d757374206265207265676960008201527f7374657265642e0000000000000000000000000000000000000000000000000060208201525056fea26469706673582212207f7ac05a117b782b65e9dbada282dbb2b6f9c61f69b6fc037d3d1fd684b93fa664736f6c63430008070033",
					"opcodes": "PUSH1 0x80 PUSH1 0x40 MSTORE PUSH1 0x0 PUSH1 0x1 PUSH1 0x14 PUSH2 0x100 EXP DUP2 SLOAD DUP2 PUSH1 0xFF MUL NOT AND SWAP1 DUP4 ISZERO ISZERO MUL OR SWAP1 SSTORE POP CALLVALUE DUP1 ISZERO PUSH2 0x2B JUMPI PUSH1 0x0 DUP1 REVERT JUMPDEST POP CALLER PUSH1 0x1 PUSH1 0x0 PUSH2 0x100 EXP DUP2 SLOAD DUP2 PUSH20 0xFFFFFFFFFFFFFFFFFFFFFFFFFFFFFFFFFFFFFFFF MUL NOT AND SWAP1 DUP4 PUSH20 0xFFFFFFFFFFFFFFFFFFFFFFFFFFFFFFFFFFFFFFFF AND MUL OR SWAP1 SSTORE POP PUSH2 0xF2A DUP1 PUSH2 0x7C PUSH1 0x0 CODECOPY PUSH1 0x0 RETURN INVALID PUSH1 0x80 PUSH1 0x40 MSTORE CALLVALUE DUP1 ISZERO PUSH2 0x10 JUMPI PUSH1 0x0 DUP1 REVERT JUMPDEST POP PUSH1 0x4 CALLDATASIZE LT PUSH2 0x57 JUMPI PUSH1 0x0 CALLDATALOAD PUSH1 0xE0 SHR DUP1 PUSH4 0x137967A6 EQ PUSH2 0x5C JUMPI DUP1 PUSH4 0x196B2E24 EQ PUSH2 0x78 JUMPI DUP1 PUSH4 0x1F6D52C5 EQ PUSH2 0xA8 JUMPI DUP1 PUSH4 0x4C0A6AF0 EQ PUSH2 0xC4 JUMPI DUP1 PUSH4 0x88FEB516 EQ PUSH2 0xCE JUMPI JUMPDEST PUSH1 0x0 DUP1 REVERT JUMPDEST PUSH2 0x76 PUSH1 0x4 DUP1 CALLDATASIZE SUB DUP2 ADD SWAP1 PUSH2 0x71 SWAP2 SWAP1 PUSH2 0x874 JUMP JUMPDEST PUSH2 0xEA JUMP JUMPDEST STOP JUMPDEST PUSH2 0x92 PUSH1 0x4 DUP1 CALLDATASIZE SUB DUP2 ADD SWAP1 PUSH2 0x8D SWAP2 SWAP1 PUSH2 0x82B JUMP JUMPDEST PUSH2 0x2F8 JUMP JUMPDEST PUSH1 0x40 MLOAD PUSH2 0x9F SWAP2 SWAP1 PUSH2 0xB4B JUMP JUMPDEST PUSH1 0x40 MLOAD DUP1 SWAP2 SUB SWAP1 RETURN JUMPDEST PUSH2 0xC2 PUSH1 0x4 DUP1 CALLDATASIZE SUB DUP2 ADD SWAP1 PUSH2 0xBD SWAP2 SWAP1 PUSH2 0x82B JUMP JUMPDEST PUSH2 0x3CC JUMP JUMPDEST STOP JUMPDEST PUSH2 0xCC PUSH2 0x408 JUMP JUMPDEST STOP JUMPDEST PUSH2 0xE8 PUSH1 0x4 DUP1 CALLDATASIZE SUB DUP2 ADD SWAP1 PUSH2 0xE3 SWAP2 SWAP1 PUSH2 0x82B JUMP JUMPDEST PUSH2 0x553 JUMP JUMPDEST STOP JUMPDEST PUSH1 0x1 PUSH1 0x0 SWAP1 SLOAD SWAP1 PUSH2 0x100 EXP SWAP1 DIV PUSH20 0xFFFFFFFFFFFFFFFFFFFFFFFFFFFFFFFFFFFFFFFF AND PUSH20 0xFFFFFFFFFFFFFFFFFFFFFFFFFFFFFFFFFFFFFFFF AND CALLER PUSH20 0xFFFFFFFFFFFFFFFFFFFFFFFFFFFFFFFFFFFFFFFF AND EQ PUSH2 0x17A JUMPI PUSH1 0x40 MLOAD PUSH32 0x8C379A000000000000000000000000000000000000000000000000000000000 DUP2 MSTORE PUSH1 0x4 ADD PUSH2 0x171 SWAP1 PUSH2 0xA8B JUMP JUMPDEST PUSH1 0x40 MLOAD DUP1 SWAP2 SUB SWAP1 REVERT JUMPDEST PUSH1 0x1 ISZERO ISZERO PUSH1 0x1 PUSH1 0x14 SWAP1 SLOAD SWAP1 PUSH2 0x100 EXP SWAP1 DIV PUSH1 0xFF AND ISZERO ISZERO EQ ISZERO PUSH2 0x1D1 JUMPI PUSH1 0x40 MLOAD PUSH32 0x8C379A000000000000000000000000000000000000000000000000000000000 DUP2 MSTORE PUSH1 0x4 ADD PUSH2 0x1C8 SWAP1 PUSH2 0xACB JUMP JUMPDEST PUSH1 0x40 MLOAD DUP1 SWAP2 SUB SWAP1 REVERT JUMPDEST PUSH1 0x0 DUP3 MLOAD EQ ISZERO PUSH2 0x216 JUMPI PUSH1 0x40 MLOAD PUSH32 0x8C379A000000000000000000000000000000000000000000000000000000000 DUP2 MSTORE PUSH1 0x4 ADD PUSH2 0x20D SWAP1 PUSH2 0xB0B JUMP JUMPDEST PUSH1 0x40 MLOAD DUP1 SWAP2 SUB SWAP1 REVERT JUMPDEST PUSH1 0x0 DUP2 MLOAD EQ ISZERO PUSH2 0x25B JUMPI PUSH1 0x40 MLOAD PUSH32 0x8C379A000000000000000000000000000000000000000000000000000000000 DUP2 MSTORE PUSH1 0x4 ADD PUSH2 0x252 SWAP1 PUSH2 0xAAB JUMP JUMPDEST PUSH1 0x40 MLOAD DUP1 SWAP2 SUB SWAP1 REVERT JUMPDEST PUSH1 0x2 DUP2 SWAP1 DUP1 PUSH1 0x1 DUP2 SLOAD ADD DUP1 DUP3 SSTORE DUP1 SWAP2 POP POP PUSH1 0x1 SWAP1 SUB SWAP1 PUSH1 0x0 MSTORE PUSH1 0x20 PUSH1 0x0 KECCAK256 ADD PUSH1 0x0 SWAP1 SWAP2 SWAP1 SWAP2 SWAP1 SWAP2 POP SWAP1 DUP1 MLOAD SWAP1 PUSH1 0x20 ADD SWAP1 PUSH2 0x296 SWAP3 SWAP2 SWAP1 PUSH2 0x6BE JUMP JUMPDEST POP DUP2 PUSH1 0x3 DUP3 PUSH1 0x40 MLOAD PUSH2 0x2A8 SWAP2 SWAP1 PUSH2 0xA74 JUMP JUMPDEST SWAP1 DUP2 MSTORE PUSH1 0x20 ADD PUSH1 0x40 MLOAD DUP1 SWAP2 SUB SWAP1 KECCAK256 PUSH1 0x0 ADD SWAP1 DUP1 MLOAD SWAP1 PUSH1 0x20 ADD SWAP1 PUSH2 0x2CC SWAP3 SWAP2 SWAP1 PUSH2 0x6BE JUMP JUMPDEST POP PUSH1 0x0 PUSH1 0x3 DUP3 PUSH1 0x40 MLOAD PUSH2 0x2DF SWAP2 SWAP1 PUSH2 0xA74 JUMP JUMPDEST SWAP1 DUP2 MSTORE PUSH1 0x20 ADD PUSH1 0x40 MLOAD DUP1 SWAP2 SUB SWAP1 KECCAK256 PUSH1 0x1 ADD DUP2 SWAP1 SSTORE POP POP POP JUMP JUMPDEST PUSH2 0x300 PUSH2 0x744 JUMP JUMPDEST PUSH1 0x3 DUP3 PUSH1 0x40 MLOAD PUSH2 0x310 SWAP2 SWAP1 PUSH2 0xA74 JUMP JUMPDEST SWAP1 DUP2 MSTORE PUSH1 0x20 ADD PUSH1 0x40 MLOAD DUP1 SWAP2 SUB SWAP1 KECCAK256 PUSH1 0x40 MLOAD DUP1 PUSH1 0x40 ADD PUSH1 0x40 MSTORE SWAP1 DUP2 PUSH1 0x0 DUP3 ADD DUP1 SLOAD PUSH2 0x339 SWAP1 PUSH2 0xC9D JUMP JUMPDEST DUP1 PUSH1 0x1F ADD PUSH1 0x20 DUP1 SWAP2 DIV MUL PUSH1 0x20 ADD PUSH1 0x40 MLOAD SWAP1 DUP2 ADD PUSH1 0x40 MSTORE DUP1 SWAP3 SWAP2 SWAP1 DUP2 DUP2 MSTORE PUSH1 0x20 ADD DUP3 DUP1 SLOAD PUSH2 0x365 SWAP1 PUSH2 0xC9D JUMP JUMPDEST DUP1 ISZERO PUSH2 0x3B2 JUMPI DUP1 PUSH1 0x1F LT PUSH2 0x387 JUMPI PUSH2 0x100 DUP1 DUP4 SLOAD DIV MUL DUP4 MSTORE SWAP2 PUSH1 0x20 ADD SWAP2 PUSH2 0x3B2 JUMP JUMPDEST DUP3 ADD SWAP2 SWAP1 PUSH1 0x0 MSTORE PUSH1 0x20 PUSH1 0x0 KECCAK256 SWAP1 JUMPDEST DUP2 SLOAD DUP2 MSTORE SWAP1 PUSH1 0x1 ADD SWAP1 PUSH1 0x20 ADD DUP1 DUP4 GT PUSH2 0x395 JUMPI DUP3 SWAP1 SUB PUSH1 0x1F AND DUP3 ADD SWAP2 JUMPDEST POP POP POP POP POP DUP2 MSTORE PUSH1 0x20 ADD PUSH1 0x1 DUP3 ADD SLOAD DUP2 MSTORE POP POP SWAP1 POP SWAP2 SWAP1 POP JUMP JUMPDEST PUSH1 0x1 PUSH1 0x3 DUP3 PUSH1 0x40 MLOAD PUSH2 0x3DE SWAP2 SWAP1 PUSH2 0xA74 JUMP JUMPDEST SWAP1 DUP2 MSTORE PUSH1 0x20 ADD PUSH1 0x40 MLOAD DUP1 SWAP2 SUB SWAP1 KECCAK256 PUSH1 0x1 ADD PUSH1 0x0 DUP3 DUP3 SLOAD PUSH2 0x3FE SWAP2 SWAP1 PUSH2 0xBFB JUMP JUMPDEST SWAP3 POP POP DUP2 SWAP1 SSTORE POP POP JUMP JUMPDEST PUSH1 0x1 PUSH1 0x0 SWAP1 SLOAD SWAP1 PUSH2 0x100 EXP SWAP1 DIV PUSH20 0xFFFFFFFFFFFFFFFFFFFFFFFFFFFFFFFFFFFFFFFF AND PUSH20 0xFFFFFFFFFFFFFFFFFFFFFFFFFFFFFFFFFFFFFFFF AND CALLER PUSH20 0xFFFFFFFFFFFFFFFFFFFFFFFFFFFFFFFFFFFFFFFF AND EQ PUSH2 0x498 JUMPI PUSH1 0x40 MLOAD PUSH32 0x8C379A000000000000000000000000000000000000000000000000000000000 DUP2 MSTORE PUSH1 0x4 ADD PUSH2 0x48F SWAP1 PUSH2 0xA8B JUMP JUMPDEST PUSH1 0x40 MLOAD DUP1 SWAP2 SUB SWAP1 REVERT JUMPDEST PUSH1 0x1 ISZERO ISZERO PUSH1 0x1 PUSH1 0x14 SWAP1 SLOAD SWAP1 PUSH2 0x100 EXP SWAP1 DIV PUSH1 0xFF AND ISZERO ISZERO EQ ISZERO PUSH2 0x4EF JUMPI PUSH1 0x40 MLOAD PUSH32 0x8C379A000000000000000000000000000000000000000000000000000000000 DUP2 MSTORE PUSH1 0x4 ADD PUSH2 0x4E6 SWAP1 PUSH2 0xACB JUMP JUMPDEST PUSH1 0x40 MLOAD DUP1 SWAP2 SUB SWAP1 REVERT JUMPDEST PUSH1 0x0 PUSH1 0x2 DUP1 SLOAD SWAP1 POP GT PUSH2 0x537 JUMPI PUSH1 0x40 MLOAD PUSH32 0x8C379A000000000000000000000000000000000000000000000000000000000 DUP2 MSTORE PUSH1 0x4 ADD PUSH2 0x52E SWAP1 PUSH2 0xAEB JUMP JUMPDEST PUSH1 0x40 MLOAD DUP1 SWAP2 SUB SWAP1 REVERT JUMPDEST PUSH1 0x1 DUP1 PUSH1 0x14 PUSH2 0x100 EXP DUP2 SLOAD DUP2 PUSH1 0xFF MUL NOT AND SWAP1 DUP4 ISZERO ISZERO MUL OR SWAP1 SSTORE POP JUMP JUMPDEST PUSH1 0x1 PUSH1 0x0 SWAP1 SLOAD SWAP1 PUSH2 0x100 EXP SWAP1 DIV PUSH20 0xFFFFFFFFFFFFFFFFFFFFFFFFFFFFFFFFFFFFFFFF AND PUSH20 0xFFFFFFFFFFFFFFFFFFFFFFFFFFFFFFFFFFFFFFFF AND CALLER PUSH20 0xFFFFFFFFFFFFFFFFFFFFFFFFFFFFFFFFFFFFFFFF AND EQ PUSH2 0x5E3 JUMPI PUSH1 0x40 MLOAD PUSH32 0x8C379A000000000000000000000000000000000000000000000000000000000 DUP2 MSTORE PUSH1 0x4 ADD PUSH2 0x5DA SWAP1 PUSH2 0xA8B JUMP JUMPDEST PUSH1 0x40 MLOAD DUP1 SWAP2 SUB SWAP1 REVERT JUMPDEST PUSH1 0x1 ISZERO ISZERO PUSH1 0x1 PUSH1 0x14 SWAP1 SLOAD SWAP1 PUSH2 0x100 EXP SWAP1 DIV PUSH1 0xFF AND ISZERO ISZERO EQ ISZERO PUSH2 0x63A JUMPI PUSH1 0x40 MLOAD PUSH32 0x8C379A000000000000000000000000000000000000000000000000000000000 DUP2 MSTORE PUSH1 0x4 ADD PUSH2 0x631 SWAP1 PUSH2 0xACB JUMP JUMPDEST PUSH1 0x40 MLOAD DUP1 SWAP2 SUB SWAP1 REVERT JUMPDEST PUSH1 0x0 PUSH1 0x2 DUP1 SLOAD SWAP1 POP GT PUSH2 0x682 JUMPI PUSH1 0x40 MLOAD PUSH32 0x8C379A000000000000000000000000000000000000000000000000000000000 DUP2 MSTORE PUSH1 0x4 ADD PUSH2 0x679 SWAP1 PUSH2 0xB2B JUMP JUMPDEST PUSH1 0x40 MLOAD DUP1 SWAP2 SUB SWAP1 REVERT JUMPDEST PUSH1 0x3 DUP2 PUSH1 0x40 MLOAD PUSH2 0x692 SWAP2 SWAP1 PUSH2 0xA74 JUMP JUMPDEST SWAP1 DUP2 MSTORE PUSH1 0x20 ADD PUSH1 0x40 MLOAD DUP1 SWAP2 SUB SWAP1 KECCAK256 PUSH1 0x0 DUP1 DUP3 ADD PUSH1 0x0 PUSH2 0x6B1 SWAP2 SWAP1 PUSH2 0x75E JUMP JUMPDEST PUSH1 0x1 DUP3 ADD PUSH1 0x0 SWAP1 SSTORE POP POP POP JUMP JUMPDEST DUP3 DUP1 SLOAD PUSH2 0x6CA SWAP1 PUSH2 0xC9D JUMP JUMPDEST SWAP1 PUSH1 0x0 MSTORE PUSH1 0x20 PUSH1 0x0 KECCAK256 SWAP1 PUSH1 0x1F ADD PUSH1 0x20 SWAP1 DIV DUP2 ADD SWAP3 DUP3 PUSH2 0x6EC JUMPI PUSH1 0x0 DUP6 SSTORE PUSH2 0x733 JUMP JUMPDEST DUP3 PUSH1 0x1F LT PUSH2 0x705 JUMPI DUP1 MLOAD PUSH1 0xFF NOT AND DUP4 DUP1 ADD OR DUP6 SSTORE PUSH2 0x733 JUMP JUMPDEST DUP3 DUP1 ADD PUSH1 0x1 ADD DUP6 SSTORE DUP3 ISZERO PUSH2 0x733 JUMPI SWAP2 DUP3 ADD JUMPDEST DUP3 DUP2 GT ISZERO PUSH2 0x732 JUMPI DUP3 MLOAD DUP3 SSTORE SWAP2 PUSH1 0x20 ADD SWAP2 SWAP1 PUSH1 0x1 ADD SWAP1 PUSH2 0x717 JUMP JUMPDEST JUMPDEST POP SWAP1 POP PUSH2 0x740 SWAP2 SWAP1 PUSH2 0x79E JUMP JUMPDEST POP SWAP1 JUMP JUMPDEST PUSH1 0x40 MLOAD DUP1 PUSH1 0x40 ADD PUSH1 0x40 MSTORE DUP1 PUSH1 0x60 DUP2 MSTORE PUSH1 0x20 ADD PUSH1 0x0 DUP2 MSTORE POP SWAP1 JUMP JUMPDEST POP DUP1 SLOAD PUSH2 0x76A SWAP1 PUSH2 0xC9D JUMP JUMPDEST PUSH1 0x0 DUP3 SSTORE DUP1 PUSH1 0x1F LT PUSH2 0x77C JUMPI POP PUSH2 0x79B JUMP JUMPDEST PUSH1 0x1F ADD PUSH1 0x20 SWAP1 DIV SWAP1 PUSH1 0x0 MSTORE PUSH1 0x20 PUSH1 0x0 KECCAK256 SWAP1 DUP2 ADD SWAP1 PUSH2 0x79A SWAP2 SWAP1 PUSH2 0x79E JUMP JUMPDEST JUMPDEST POP JUMP JUMPDEST JUMPDEST DUP1 DUP3 GT ISZERO PUSH2 0x7B7 JUMPI PUSH1 0x0 DUP2 PUSH1 0x0 SWAP1 SSTORE POP PUSH1 0x1 ADD PUSH2 0x79F JUMP JUMPDEST POP SWAP1 JUMP JUMPDEST PUSH1 0x0 PUSH2 0x7CE PUSH2 0x7C9 DUP5 PUSH2 0xB92 JUMP JUMPDEST PUSH2 0xB6D JUMP JUMPDEST SWAP1 POP DUP3 DUP2 MSTORE PUSH1 0x20 DUP2 ADD DUP5 DUP5 DUP5 ADD GT ISZERO PUSH2 0x7EA JUMPI PUSH2 0x7E9 PUSH2 0xD92 JUMP JUMPDEST JUMPDEST PUSH2 0x7F5 DUP5 DUP3 DUP6 PUSH2 0xC5B JUMP JUMPDEST POP SWAP4 SWAP3 POP POP POP JUMP JUMPDEST PUSH1 0x0 DUP3 PUSH1 0x1F DUP4 ADD SLT PUSH2 0x812 JUMPI PUSH2 0x811 PUSH2 0xD8D JUMP JUMPDEST JUMPDEST DUP2 CALLDATALOAD PUSH2 0x822 DUP5 DUP3 PUSH1 0x20 DUP7 ADD PUSH2 0x7BB JUMP JUMPDEST SWAP2 POP POP SWAP3 SWAP2 POP POP JUMP JUMPDEST PUSH1 0x0 PUSH1 0x20 DUP3 DUP5 SUB SLT ISZERO PUSH2 0x841 JUMPI PUSH2 0x840 PUSH2 0xD9C JUMP JUMPDEST JUMPDEST PUSH1 0x0 DUP3 ADD CALLDATALOAD PUSH8 0xFFFFFFFFFFFFFFFF DUP2 GT ISZERO PUSH2 0x85F JUMPI PUSH2 0x85E PUSH2 0xD97 JUMP JUMPDEST JUMPDEST PUSH2 0x86B DUP5 DUP3 DUP6 ADD PUSH2 0x7FD JUMP JUMPDEST SWAP2 POP POP SWAP3 SWAP2 POP POP JUMP JUMPDEST PUSH1 0x0 DUP1 PUSH1 0x40 DUP4 DUP6 SUB SLT ISZERO PUSH2 0x88B JUMPI PUSH2 0x88A PUSH2 0xD9C JUMP JUMPDEST JUMPDEST PUSH1 0x0 DUP4 ADD CALLDATALOAD PUSH8 0xFFFFFFFFFFFFFFFF DUP2 GT ISZERO PUSH2 0x8A9 JUMPI PUSH2 0x8A8 PUSH2 0xD97 JUMP JUMPDEST JUMPDEST PUSH2 0x8B5 DUP6 DUP3 DUP7 ADD PUSH2 0x7FD JUMP JUMPDEST SWAP3 POP POP PUSH1 0x20 DUP4 ADD CALLDATALOAD PUSH8 0xFFFFFFFFFFFFFFFF DUP2 GT ISZERO PUSH2 0x8D6 JUMPI PUSH2 0x8D5 PUSH2 0xD97 JUMP JUMPDEST JUMPDEST PUSH2 0x8E2 DUP6 DUP3 DUP7 ADD PUSH2 0x7FD JUMP JUMPDEST SWAP2 POP POP SWAP3 POP SWAP3 SWAP1 POP JUMP JUMPDEST PUSH1 0x0 PUSH2 0x8F7 DUP3 PUSH2 0xBC3 JUMP JUMPDEST PUSH2 0x901 DUP2 DUP6 PUSH2 0xBCE JUMP JUMPDEST SWAP4 POP PUSH2 0x911 DUP2 DUP6 PUSH1 0x20 DUP7 ADD PUSH2 0xC6A JUMP JUMPDEST PUSH2 0x91A DUP2 PUSH2 0xDA1 JUMP JUMPDEST DUP5 ADD SWAP2 POP POP SWAP3 SWAP2 POP POP JUMP JUMPDEST PUSH1 0x0 PUSH2 0x930 DUP3 PUSH2 0xBC3 JUMP JUMPDEST PUSH2 0x93A DUP2 DUP6 PUSH2 0xBF0 JUMP JUMPDEST SWAP4 POP PUSH2 0x94A DUP2 DUP6 PUSH1 0x20 DUP7 ADD PUSH2 0xC6A JUMP JUMPDEST DUP1 DUP5 ADD SWAP2 POP POP SWAP3 SWAP2 POP POP JUMP JUMPDEST PUSH1 0x0 PUSH2 0x963 PUSH1 0x14 DUP4 PUSH2 0xBDF JUMP JUMPDEST SWAP2 POP PUSH2 0x96E DUP3 PUSH2 0xDB2 JUMP JUMPDEST PUSH1 0x20 DUP3 ADD SWAP1 POP SWAP2 SWAP1 POP JUMP JUMPDEST PUSH1 0x0 PUSH2 0x986 PUSH1 0x15 DUP4 PUSH2 0xBDF JUMP JUMPDEST SWAP2 POP PUSH2 0x991 DUP3 PUSH2 0xDDB JUMP JUMPDEST PUSH1 0x20 DUP3 ADD SWAP1 POP SWAP2 SWAP1 POP JUMP JUMPDEST PUSH1 0x0 PUSH2 0x9A9 PUSH1 0x10 DUP4 PUSH2 0xBDF JUMP JUMPDEST SWAP2 POP PUSH2 0x9B4 DUP3 PUSH2 0xE04 JUMP JUMPDEST PUSH1 0x20 DUP3 ADD SWAP1 POP SWAP2 SWAP1 POP JUMP JUMPDEST PUSH1 0x0 PUSH2 0x9CC PUSH1 0x27 DUP4 PUSH2 0xBDF JUMP JUMPDEST SWAP2 POP PUSH2 0x9D7 DUP3 PUSH2 0xE2D JUMP JUMPDEST PUSH1 0x40 DUP3 ADD SWAP1 POP SWAP2 SWAP1 POP JUMP JUMPDEST PUSH1 0x0 PUSH2 0x9EF PUSH1 0x13 DUP4 PUSH2 0xBDF JUMP JUMPDEST SWAP2 POP PUSH2 0x9FA DUP3 PUSH2 0xE7C JUMP JUMPDEST PUSH1 0x20 DUP3 ADD SWAP1 POP SWAP2 SWAP1 POP JUMP JUMPDEST PUSH1 0x0 PUSH2 0xA12 PUSH1 0x27 DUP4 PUSH2 0xBDF JUMP JUMPDEST SWAP2 POP PUSH2 0xA1D DUP3 PUSH2 0xEA5 JUMP JUMPDEST PUSH1 0x40 DUP3 ADD SWAP1 POP SWAP2 SWAP1 POP JUMP JUMPDEST PUSH1 0x0 PUSH1 0x40 DUP4 ADD PUSH1 0x0 DUP4 ADD MLOAD DUP5 DUP3 SUB PUSH1 0x0 DUP7 ADD MSTORE PUSH2 0xA45 DUP3 DUP3 PUSH2 0x8EC JUMP JUMPDEST SWAP2 POP POP PUSH1 0x20 DUP4 ADD MLOAD PUSH2 0xA5A PUSH1 0x20 DUP7 ADD DUP3 PUSH2 0xA65 JUMP JUMPDEST POP DUP1 SWAP2 POP POP SWAP3 SWAP2 POP POP JUMP JUMPDEST PUSH2 0xA6E DUP2 PUSH2 0xC51 JUMP JUMPDEST DUP3 MSTORE POP POP JUMP JUMPDEST PUSH1 0x0 PUSH2 0xA80 DUP3 DUP5 PUSH2 0x925 JUMP JUMPDEST SWAP2 POP DUP2 SWAP1 POP SWAP3 SWAP2 POP POP JUMP JUMPDEST PUSH1 0x0 PUSH1 0x20 DUP3 ADD SWAP1 POP DUP2 DUP2 SUB PUSH1 0x0 DUP4 ADD MSTORE PUSH2 0xAA4 DUP2 PUSH2 0x956 JUMP JUMPDEST SWAP1 POP SWAP2 SWAP1 POP JUMP JUMPDEST PUSH1 0x0 PUSH1 0x20 DUP3 ADD SWAP1 POP DUP2 DUP2 SUB PUSH1 0x0 DUP4 ADD MSTORE PUSH2 0xAC4 DUP2 PUSH2 0x979 JUMP JUMPDEST SWAP1 POP SWAP2 SWAP1 POP JUMP JUMPDEST PUSH1 0x0 PUSH1 0x20 DUP3 ADD SWAP1 POP DUP2 DUP2 SUB PUSH1 0x0 DUP4 ADD MSTORE PUSH2 0xAE4 DUP2 PUSH2 0x99C JUMP JUMPDEST SWAP1 POP SWAP2 SWAP1 POP JUMP JUMPDEST PUSH1 0x0 PUSH1 0x20 DUP3 ADD SWAP1 POP DUP2 DUP2 SUB PUSH1 0x0 DUP4 ADD MSTORE PUSH2 0xB04 DUP2 PUSH2 0x9BF JUMP JUMPDEST SWAP1 POP SWAP2 SWAP1 POP JUMP JUMPDEST PUSH1 0x0 PUSH1 0x20 DUP3 ADD SWAP1 POP DUP2 DUP2 SUB PUSH1 0x0 DUP4 ADD MSTORE PUSH2 0xB24 DUP2 PUSH2 0x9E2 JUMP JUMPDEST SWAP1 POP SWAP2 SWAP1 POP JUMP JUMPDEST PUSH1 0x0 PUSH1 0x20 DUP3 ADD SWAP1 POP DUP2 DUP2 SUB PUSH1 0x0 DUP4 ADD MSTORE PUSH2 0xB44 DUP2 PUSH2 0xA05 JUMP JUMPDEST SWAP1 POP SWAP2 SWAP1 POP JUMP JUMPDEST PUSH1 0x0 PUSH1 0x20 DUP3 ADD SWAP1 POP DUP2 DUP2 SUB PUSH1 0x0 DUP4 ADD MSTORE PUSH2 0xB65 DUP2 DUP5 PUSH2 0xA28 JUMP JUMPDEST SWAP1 POP SWAP3 SWAP2 POP POP JUMP JUMPDEST PUSH1 0x0 PUSH2 0xB77 PUSH2 0xB88 JUMP JUMPDEST SWAP1 POP PUSH2 0xB83 DUP3 DUP3 PUSH2 0xCCF JUMP JUMPDEST SWAP2 SWAP1 POP JUMP JUMPDEST PUSH1 0x0 PUSH1 0x40 MLOAD SWAP1 POP SWAP1 JUMP JUMPDEST PUSH1 0x0 PUSH8 0xFFFFFFFFFFFFFFFF DUP3 GT ISZERO PUSH2 0xBAD JUMPI PUSH2 0xBAC PUSH2 0xD5E JUMP JUMPDEST JUMPDEST PUSH2 0xBB6 DUP3 PUSH2 0xDA1 JUMP JUMPDEST SWAP1 POP PUSH1 0x20 DUP2 ADD SWAP1 POP SWAP2 SWAP1 POP JUMP JUMPDEST PUSH1 0x0 DUP2 MLOAD SWAP1 POP SWAP2 SWAP1 POP JUMP JUMPDEST PUSH1 0x0 DUP3 DUP3 MSTORE PUSH1 0x20 DUP3 ADD SWAP1 POP SWAP3 SWAP2 POP POP JUMP JUMPDEST PUSH1 0x0 DUP3 DUP3 MSTORE PUSH1 0x20 DUP3 ADD SWAP1 POP SWAP3 SWAP2 POP POP JUMP JUMPDEST PUSH1 0x0 DUP2 SWAP1 POP SWAP3 SWAP2 POP POP JUMP JUMPDEST PUSH1 0x0 PUSH2 0xC06 DUP3 PUSH2 0xC51 JUMP JUMPDEST SWAP2 POP PUSH2 0xC11 DUP4 PUSH2 0xC51 JUMP JUMPDEST SWAP3 POP DUP3 PUSH32 0xFFFFFFFFFFFFFFFFFFFFFFFFFFFFFFFFFFFFFFFFFFFFFFFFFFFFFFFFFFFFFFFF SUB DUP3 GT ISZERO PUSH2 0xC46 JUMPI PUSH2 0xC45 PUSH2 0xD00 JUMP JUMPDEST JUMPDEST DUP3 DUP3 ADD SWAP1 POP SWAP3 SWAP2 POP POP JUMP JUMPDEST PUSH1 0x0 DUP2 SWAP1 POP SWAP2 SWAP1 POP JUMP JUMPDEST DUP3 DUP2 DUP4 CALLDATACOPY PUSH1 0x0 DUP4 DUP4 ADD MSTORE POP POP POP JUMP JUMPDEST PUSH1 0x0 JUMPDEST DUP4 DUP2 LT ISZERO PUSH2 0xC88 JUMPI DUP1 DUP3 ADD MLOAD DUP2 DUP5 ADD MSTORE PUSH1 0x20 DUP2 ADD SWAP1 POP PUSH2 0xC6D JUMP JUMPDEST DUP4 DUP2 GT ISZERO PUSH2 0xC97 JUMPI PUSH1 0x0 DUP5 DUP5 ADD MSTORE JUMPDEST POP POP POP POP JUMP JUMPDEST PUSH1 0x0 PUSH1 0x2 DUP3 DIV SWAP1 POP PUSH1 0x1 DUP3 AND DUP1 PUSH2 0xCB5 JUMPI PUSH1 0x7F DUP3 AND SWAP2 POP JUMPDEST PUSH1 0x20 DUP3 LT DUP2 EQ ISZERO PUSH2 0xCC9 JUMPI PUSH2 0xCC8 PUSH2 0xD2F JUMP JUMPDEST JUMPDEST POP SWAP2 SWAP1 POP JUMP JUMPDEST PUSH2 0xCD8 DUP3 PUSH2 0xDA1 JUMP JUMPDEST DUP2 ADD DUP2 DUP2 LT PUSH8 0xFFFFFFFFFFFFFFFF DUP3 GT OR ISZERO PUSH2 0xCF7 JUMPI PUSH2 0xCF6 PUSH2 0xD5E JUMP JUMPDEST JUMPDEST DUP1 PUSH1 0x40 MSTORE POP POP POP JUMP JUMPDEST PUSH32 0x4E487B7100000000000000000000000000000000000000000000000000000000 PUSH1 0x0 MSTORE PUSH1 0x11 PUSH1 0x4 MSTORE PUSH1 0x24 PUSH1 0x0 REVERT JUMPDEST PUSH32 0x4E487B7100000000000000000000000000000000000000000000000000000000 PUSH1 0x0 MSTORE PUSH1 0x22 PUSH1 0x4 MSTORE PUSH1 0x24 PUSH1 0x0 REVERT JUMPDEST PUSH32 0x4E487B7100000000000000000000000000000000000000000000000000000000 PUSH1 0x0 MSTORE PUSH1 0x41 PUSH1 0x4 MSTORE PUSH1 0x24 PUSH1 0x0 REVERT JUMPDEST PUSH1 0x0 DUP1 REVERT JUMPDEST PUSH1 0x0 DUP1 REVERT JUMPDEST PUSH1 0x0 DUP1 REVERT JUMPDEST PUSH1 0x0 DUP1 REVERT JUMPDEST PUSH1 0x0 PUSH1 0x1F NOT PUSH1 0x1F DUP4 ADD AND SWAP1 POP SWAP2 SWAP1 POP JUMP JUMPDEST PUSH32 0x556E617574686F72697A6564204163636573732E000000000000000000000000 PUSH1 0x0 DUP3 ADD MSTORE POP JUMP JUMPDEST PUSH32 0x53796D626F6C2063616E277420626520656D7074790000000000000000000000 PUSH1 0x0 DUP3 ADD MSTORE POP JUMP JUMPDEST PUSH32 0x416C726561647920537461727465642E00000000000000000000000000000000 PUSH1 0x0 DUP3 ADD MSTORE POP JUMP JUMPDEST PUSH32 0x41746C6561737420322063616E646964617465206D7573742062652072656769 PUSH1 0x0 DUP3 ADD MSTORE PUSH32 0x7374657265642E00000000000000000000000000000000000000000000000000 PUSH1 0x20 DUP3 ADD MSTORE POP JUMP JUMPDEST PUSH32 0x4E616D652043616E277420626520656D70747900000000000000000000000000 PUSH1 0x0 DUP3 ADD MSTORE POP JUMP JUMPDEST PUSH32 0x41746C6561737420312063616E646964617465206D7573742062652072656769 PUSH1 0x0 DUP3 ADD MSTORE PUSH32 0x7374657265642E00000000000000000000000000000000000000000000000000 PUSH1 0x20 DUP3 ADD MSTORE POP JUMP INVALID LOG2 PUSH5 0x6970667358 0x22 SLT KECCAK256 PUSH32 0x7AC05A117B782B65E9DBADA282DBB2B6F9C61F69B6FC037D3D1FD684B93FA664 PUSH20 0x6F6C634300080700330000000000000000000000 "
				},
				"gasEstimates": {
					"creation": {
						"codeDepositCost": "776400",
						"executionCost": "49395",
						"totalCost": "825795"
					},
					"external": {
						"deleteCandidate(string)": "infinite",
						"giveVotes(string)": "infinite",
						"registrationForCandidate(string,string)": "infinite",
						"startVote()": "31030",
						"voteCountStatus(string)": "infinite"
					}
				},
				"methodIdentifiers": {
					"deleteCandidate(string)": "88feb516",
					"giveVotes(string)": "1f6d52c5",
					"registrationForCandidate(string,string)": "137967a6",
					"startVote()": "4c0a6af0",
					"voteCountStatus(string)": "196b2e24"
				}
			},
			"storageLayout": {
				"storage": [
					{
						"astId": 4,
						"contract": "contracts/voting.sol:VotingContract",
						"label": "voterList",
						"offset": 0,
						"slot": "0",
						"type": "t_array(t_address)dyn_storage"
					},
					{
						"astId": 6,
						"contract": "contracts/voting.sol:VotingContract",
						"label": "electionCommission",
						"offset": 0,
						"slot": "1",
						"type": "t_address"
					},
					{
						"astId": 9,
						"contract": "contracts/voting.sol:VotingContract",
						"label": "voteStarted",
						"offset": 20,
						"slot": "1",
						"type": "t_bool"
					},
					{
						"astId": 12,
						"contract": "contracts/voting.sol:VotingContract",
						"label": "symbolList",
						"offset": 0,
						"slot": "2",
						"type": "t_array(t_string_storage)dyn_storage"
					},
					{
						"astId": 22,
						"contract": "contracts/voting.sol:VotingContract",
						"label": "Candidates",
						"offset": 0,
						"slot": "3",
						"type": "t_mapping(t_string_memory_ptr,t_struct(candidate)17_storage)"
					}
				],
				"types": {
					"t_address": {
						"encoding": "inplace",
						"label": "address",
						"numberOfBytes": "20"
					},
					"t_array(t_address)dyn_storage": {
						"base": "t_address",
						"encoding": "dynamic_array",
						"label": "address[]",
						"numberOfBytes": "32"
					},
					"t_array(t_string_storage)dyn_storage": {
						"base": "t_string_storage",
						"encoding": "dynamic_array",
						"label": "string[]",
						"numberOfBytes": "32"
					},
					"t_bool": {
						"encoding": "inplace",
						"label": "bool",
						"numberOfBytes": "1"
					},
					"t_mapping(t_string_memory_ptr,t_struct(candidate)17_storage)": {
						"encoding": "mapping",
						"key": "t_string_memory_ptr",
						"label": "mapping(string => struct VotingContract.candidate)",
						"numberOfBytes": "32",
						"value": "t_struct(candidate)17_storage"
					},
					"t_string_memory_ptr": {
						"encoding": "bytes",
						"label": "string",
						"numberOfBytes": "32"
					},
					"t_string_storage": {
						"encoding": "bytes",
						"label": "string",
						"numberOfBytes": "32"
					},
					"t_struct(candidate)17_storage": {
						"encoding": "inplace",
						"label": "struct VotingContract.candidate",
						"members": [
							{
								"astId": 14,
								"contract": "contracts/voting.sol:VotingContract",
								"label": "name",
								"offset": 0,
								"slot": "0",
								"type": "t_string_storage"
							},
							{
								"astId": 16,
								"contract": "contracts/voting.sol:VotingContract",
								"label": "voteCount",
								"offset": 0,
								"slot": "1",
								"type": "t_uint256"
							}
						],
						"numberOfBytes": "64"
					},
					"t_uint256": {
						"encoding": "inplace",
						"label": "uint256",
						"numberOfBytes": "32"
					}
				}
			},
			"userdoc": {
				"kind": "user",
				"methods": {},
				"version": 1
			}
		}
	}
}