{
	"contracts/votingSystem.sol": {
		"VotingContract": {
			"abi": [
				{
					"inputs": [
						{
							"internalType": "string",
							"name": "_name",
							"type": "string"
						}
					],
					"name": "addCanditate",
					"outputs": [],
					"stateMutability": "view",
					"type": "function"
				}
			],
			"devdoc": {
				"kind": "dev",
				"methods": {},
				"version": 1
			},
			"evm": {
				"assembly": "    /* \"contracts/votingSystem.sol\":60:235  contract VotingContract{\r... */\n  mstore(0x40, 0x80)\n    /* \"contracts/votingSystem.sol\":116:126  msg.sender */\n  caller\n    /* \"contracts/votingSystem.sol\":90:126  address electionOfficer = msg.sender */\n  0x00\n  dup1\n  0x0100\n  exp\n  dup2\n  sload\n  dup2\n  0xffffffffffffffffffffffffffffffffffffffff\n  mul\n  not\n  and\n  swap1\n  dup4\n  0xffffffffffffffffffffffffffffffffffffffff\n  and\n  mul\n  or\n  swap1\n  sstore\n  pop\n    /* \"contracts/votingSystem.sol\":60:235  contract VotingContract{\r... */\n  callvalue\n  dup1\n  iszero\n  tag_1\n  jumpi\n  0x00\n  dup1\n  revert\ntag_1:\n  pop\n  dataSize(sub_0)\n  dup1\n  dataOffset(sub_0)\n  0x00\n  codecopy\n  0x00\n  return\nstop\n\nsub_0: assembly {\n        /* \"contracts/votingSystem.sol\":60:235  contract VotingContract{\r... */\n      mstore(0x40, 0x80)\n      callvalue\n      dup1\n      iszero\n      tag_1\n      jumpi\n      0x00\n      dup1\n      revert\n    tag_1:\n      pop\n      jumpi(tag_2, lt(calldatasize, 0x04))\n      shr(0xe0, calldataload(0x00))\n      dup1\n      0xb06425f1\n      eq\n      tag_3\n      jumpi\n    tag_2:\n      0x00\n      dup1\n      revert\n        /* \"contracts/votingSystem.sol\":158:222  function addCanditate(string memory _name) public view{\r... */\n    tag_3:\n      tag_4\n      0x04\n      dup1\n      calldatasize\n      sub\n      dup2\n      add\n      swap1\n      tag_5\n      swap2\n      swap1\n      tag_6\n      jump\t// in\n    tag_5:\n      tag_7\n      jump\t// in\n    tag_4:\n      stop\n    tag_7:\n      pop\n      jump\t// out\n        /* \"#utility.yul\":7:419   */\n    tag_10:\n        /* \"#utility.yul\":85:90   */\n      0x00\n        /* \"#utility.yul\":110:176   */\n      tag_12\n        /* \"#utility.yul\":126:175   */\n      tag_13\n        /* \"#utility.yul\":168:174   */\n      dup5\n        /* \"#utility.yul\":126:175   */\n      tag_14\n      jump\t// in\n    tag_13:\n        /* \"#utility.yul\":110:176   */\n      tag_15\n      jump\t// in\n    tag_12:\n        /* \"#utility.yul\":101:176   */\n      swap1\n      pop\n        /* \"#utility.yul\":199:205   */\n      dup3\n        /* \"#utility.yul\":192:197   */\n      dup2\n        /* \"#utility.yul\":185:206   */\n      mstore\n        /* \"#utility.yul\":237:241   */\n      0x20\n        /* \"#utility.yul\":230:235   */\n      dup2\n        /* \"#utility.yul\":226:242   */\n      add\n        /* \"#utility.yul\":275:278   */\n      dup5\n        /* \"#utility.yul\":266:272   */\n      dup5\n        /* \"#utility.yul\":261:264   */\n      dup5\n        /* \"#utility.yul\":257:273   */\n      add\n        /* \"#utility.yul\":254:279   */\n      gt\n        /* \"#utility.yul\":251:363   */\n      iszero\n      tag_16\n      jumpi\n        /* \"#utility.yul\":282:361   */\n      tag_17\n      tag_18\n      jump\t// in\n    tag_17:\n        /* \"#utility.yul\":251:363   */\n    tag_16:\n        /* \"#utility.yul\":372:413   */\n      tag_19\n        /* \"#utility.yul\":406:412   */\n      dup5\n        /* \"#utility.yul\":401:404   */\n      dup3\n        /* \"#utility.yul\":396:399   */\n      dup6\n        /* \"#utility.yul\":372:413   */\n      tag_20\n      jump\t// in\n    tag_19:\n        /* \"#utility.yul\":91:419   */\n      pop\n        /* \"#utility.yul\":7:419   */\n      swap4\n      swap3\n      pop\n      pop\n      pop\n      jump\t// out\n        /* \"#utility.yul\":439:779   */\n    tag_21:\n        /* \"#utility.yul\":495:500   */\n      0x00\n        /* \"#utility.yul\":544:547   */\n      dup3\n        /* \"#utility.yul\":537:541   */\n      0x1f\n        /* \"#utility.yul\":529:535   */\n      dup4\n        /* \"#utility.yul\":525:542   */\n      add\n        /* \"#utility.yul\":521:548   */\n      slt\n        /* \"#utility.yul\":511:633   */\n      tag_23\n      jumpi\n        /* \"#utility.yul\":552:631   */\n      tag_24\n      tag_25\n      jump\t// in\n    tag_24:\n        /* \"#utility.yul\":511:633   */\n    tag_23:\n        /* \"#utility.yul\":669:675   */\n      dup2\n        /* \"#utility.yul\":656:676   */\n      calldataload\n        /* \"#utility.yul\":694:773   */\n      tag_26\n        /* \"#utility.yul\":769:772   */\n      dup5\n        /* \"#utility.yul\":761:767   */\n      dup3\n        /* \"#utility.yul\":754:758   */\n      0x20\n        /* \"#utility.yul\":746:752   */\n      dup7\n        /* \"#utility.yul\":742:759   */\n      add\n        /* \"#utility.yul\":694:773   */\n      tag_10\n      jump\t// in\n    tag_26:\n        /* \"#utility.yul\":685:773   */\n      swap2\n      pop\n        /* \"#utility.yul\":501:779   */\n      pop\n        /* \"#utility.yul\":439:779   */\n      swap3\n      swap2\n      pop\n      pop\n      jump\t// out\n        /* \"#utility.yul\":785:1294   */\n    tag_6:\n        /* \"#utility.yul\":854:860   */\n      0x00\n        /* \"#utility.yul\":903:905   */\n      0x20\n        /* \"#utility.yul\":891:900   */\n      dup3\n        /* \"#utility.yul\":882:889   */\n      dup5\n        /* \"#utility.yul\":878:901   */\n      sub\n        /* \"#utility.yul\":874:906   */\n      slt\n        /* \"#utility.yul\":871:990   */\n      iszero\n      tag_28\n      jumpi\n        /* \"#utility.yul\":909:988   */\n      tag_29\n      tag_30\n      jump\t// in\n    tag_29:\n        /* \"#utility.yul\":871:990   */\n    tag_28:\n        /* \"#utility.yul\":1057:1058   */\n      0x00\n        /* \"#utility.yul\":1046:1055   */\n      dup3\n        /* \"#utility.yul\":1042:1059   */\n      add\n        /* \"#utility.yul\":1029:1060   */\n      calldataload\n        /* \"#utility.yul\":1087:1105   */\n      0xffffffffffffffff\n        /* \"#utility.yul\":1079:1085   */\n      dup2\n        /* \"#utility.yul\":1076:1106   */\n      gt\n        /* \"#utility.yul\":1073:1190   */\n      iszero\n      tag_31\n      jumpi\n        /* \"#utility.yul\":1109:1188   */\n      tag_32\n      tag_33\n      jump\t// in\n    tag_32:\n        /* \"#utility.yul\":1073:1190   */\n    tag_31:\n        /* \"#utility.yul\":1214:1277   */\n      tag_34\n        /* \"#utility.yul\":1269:1276   */\n      dup5\n        /* \"#utility.yul\":1260:1266   */\n      dup3\n        /* \"#utility.yul\":1249:1258   */\n      dup6\n        /* \"#utility.yul\":1245:1267   */\n      add\n        /* \"#utility.yul\":1214:1277   */\n      tag_21\n      jump\t// in\n    tag_34:\n        /* \"#utility.yul\":1204:1277   */\n      swap2\n      pop\n        /* \"#utility.yul\":1000:1287   */\n      pop\n        /* \"#utility.yul\":785:1294   */\n      swap3\n      swap2\n      pop\n      pop\n      jump\t// out\n        /* \"#utility.yul\":1300:1429   */\n    tag_15:\n        /* \"#utility.yul\":1334:1340   */\n      0x00\n        /* \"#utility.yul\":1361:1381   */\n      tag_36\n      tag_37\n      jump\t// in\n    tag_36:\n        /* \"#utility.yul\":1351:1381   */\n      swap1\n      pop\n        /* \"#utility.yul\":1390:1423   */\n      tag_38\n        /* \"#utility.yul\":1418:1422   */\n      dup3\n        /* \"#utility.yul\":1410:1416   */\n      dup3\n        /* \"#utility.yul\":1390:1423   */\n      tag_39\n      jump\t// in\n    tag_38:\n        /* \"#utility.yul\":1300:1429   */\n      swap2\n      swap1\n      pop\n      jump\t// out\n        /* \"#utility.yul\":1435:1510   */\n    tag_37:\n        /* \"#utility.yul\":1468:1474   */\n      0x00\n        /* \"#utility.yul\":1501:1503   */\n      0x40\n        /* \"#utility.yul\":1495:1504   */\n      mload\n        /* \"#utility.yul\":1485:1504   */\n      swap1\n      pop\n        /* \"#utility.yul\":1435:1510   */\n      swap1\n      jump\t// out\n        /* \"#utility.yul\":1516:1824   */\n    tag_14:\n        /* \"#utility.yul\":1578:1582   */\n      0x00\n        /* \"#utility.yul\":1668:1686   */\n      0xffffffffffffffff\n        /* \"#utility.yul\":1660:1666   */\n      dup3\n        /* \"#utility.yul\":1657:1687   */\n      gt\n        /* \"#utility.yul\":1654:1710   */\n      iszero\n      tag_42\n      jumpi\n        /* \"#utility.yul\":1690:1708   */\n      tag_43\n      tag_44\n      jump\t// in\n    tag_43:\n        /* \"#utility.yul\":1654:1710   */\n    tag_42:\n        /* \"#utility.yul\":1728:1757   */\n      tag_45\n        /* \"#utility.yul\":1750:1756   */\n      dup3\n        /* \"#utility.yul\":1728:1757   */\n      tag_46\n      jump\t// in\n    tag_45:\n        /* \"#utility.yul\":1720:1757   */\n      swap1\n      pop\n        /* \"#utility.yul\":1812:1816   */\n      0x20\n        /* \"#utility.yul\":1806:1810   */\n      dup2\n        /* \"#utility.yul\":1802:1817   */\n      add\n        /* \"#utility.yul\":1794:1817   */\n      swap1\n      pop\n        /* \"#utility.yul\":1516:1824   */\n      swap2\n      swap1\n      pop\n      jump\t// out\n        /* \"#utility.yul\":1830:1984   */\n    tag_20:\n        /* \"#utility.yul\":1914:1920   */\n      dup3\n        /* \"#utility.yul\":1909:1912   */\n      dup2\n        /* \"#utility.yul\":1904:1907   */\n      dup4\n        /* \"#utility.yul\":1891:1921   */\n      calldatacopy\n        /* \"#utility.yul\":1976:1977   */\n      0x00\n        /* \"#utility.yul\":1967:1973   */\n      dup4\n        /* \"#utility.yul\":1962:1965   */\n      dup4\n        /* \"#utility.yul\":1958:1974   */\n      add\n        /* \"#utility.yul\":1951:1978   */\n      mstore\n        /* \"#utility.yul\":1830:1984   */\n      pop\n      pop\n      pop\n      jump\t// out\n        /* \"#utility.yul\":1990:2271   */\n    tag_39:\n        /* \"#utility.yul\":2073:2100   */\n      tag_49\n        /* \"#utility.yul\":2095:2099   */\n      dup3\n        /* \"#utility.yul\":2073:2100   */\n      tag_46\n      jump\t// in\n    tag_49:\n        /* \"#utility.yul\":2065:2071   */\n      dup2\n        /* \"#utility.yul\":2061:2101   */\n      add\n        /* \"#utility.yul\":2203:2209   */\n      dup2\n        /* \"#utility.yul\":2191:2201   */\n      dup2\n        /* \"#utility.yul\":2188:2210   */\n      lt\n        /* \"#utility.yul\":2167:2185   */\n      0xffffffffffffffff\n        /* \"#utility.yul\":2155:2165   */\n      dup3\n        /* \"#utility.yul\":2152:2186   */\n      gt\n        /* \"#utility.yul\":2149:2211   */\n      or\n        /* \"#utility.yul\":2146:2234   */\n      iszero\n      tag_50\n      jumpi\n        /* \"#utility.yul\":2214:2232   */\n      tag_51\n      tag_44\n      jump\t// in\n    tag_51:\n        /* \"#utility.yul\":2146:2234   */\n    tag_50:\n        /* \"#utility.yul\":2254:2264   */\n      dup1\n        /* \"#utility.yul\":2250:2252   */\n      0x40\n        /* \"#utility.yul\":2243:2265   */\n      mstore\n        /* \"#utility.yul\":2033:2271   */\n      pop\n        /* \"#utility.yul\":1990:2271   */\n      pop\n      pop\n      jump\t// out\n        /* \"#utility.yul\":2277:2457   */\n    tag_44:\n        /* \"#utility.yul\":2325:2402   */\n      0x4e487b7100000000000000000000000000000000000000000000000000000000\n        /* \"#utility.yul\":2322:2323   */\n      0x00\n        /* \"#utility.yul\":2315:2403   */\n      mstore\n        /* \"#utility.yul\":2422:2426   */\n      0x41\n        /* \"#utility.yul\":2419:2420   */\n      0x04\n        /* \"#utility.yul\":2412:2427   */\n      mstore\n        /* \"#utility.yul\":2446:2450   */\n      0x24\n        /* \"#utility.yul\":2443:2444   */\n      0x00\n        /* \"#utility.yul\":2436:2451   */\n      revert\n        /* \"#utility.yul\":2463:2580   */\n    tag_25:\n        /* \"#utility.yul\":2572:2573   */\n      0x00\n        /* \"#utility.yul\":2569:2570   */\n      dup1\n        /* \"#utility.yul\":2562:2574   */\n      revert\n        /* \"#utility.yul\":2586:2703   */\n    tag_18:\n        /* \"#utility.yul\":2695:2696   */\n      0x00\n        /* \"#utility.yul\":2692:2693   */\n      dup1\n        /* \"#utility.yul\":2685:2697   */\n      revert\n        /* \"#utility.yul\":2709:2826   */\n    tag_33:\n        /* \"#utility.yul\":2818:2819   */\n      0x00\n        /* \"#utility.yul\":2815:2816   */\n      dup1\n        /* \"#utility.yul\":2808:2820   */\n      revert\n        /* \"#utility.yul\":2832:2949   */\n    tag_30:\n        /* \"#utility.yul\":2941:2942   */\n      0x00\n        /* \"#utility.yul\":2938:2939   */\n      dup1\n        /* \"#utility.yul\":2931:2943   */\n      revert\n        /* \"#utility.yul\":2955:3057   */\n    tag_46:\n        /* \"#utility.yul\":2996:3002   */\n      0x00\n        /* \"#utility.yul\":3047:3049   */\n      0x1f\n        /* \"#utility.yul\":3043:3050   */\n      not\n        /* \"#utility.yul\":3038:3040   */\n      0x1f\n        /* \"#utility.yul\":3031:3036   */\n      dup4\n        /* \"#utility.yul\":3027:3041   */\n      add\n        /* \"#utility.yul\":3023:3051   */\n      and\n        /* \"#utility.yul\":3013:3051   */\n      swap1\n      pop\n        /* \"#utility.yul\":2955:3057   */\n      swap2\n      swap1\n      pop\n      jump\t// out\n\n    auxdata: 0xa2646970667358221220f524a987a67092c2807dc8c4185398fdc54ae4123bda4b2565eabed6857f1d1e64736f6c63430008070033\n}\n",
				"bytecode": {
					"linkReferences": {},
					"object": "6080604052336000806101000a81548173ffffffffffffffffffffffffffffffffffffffff021916908373ffffffffffffffffffffffffffffffffffffffff16021790555034801561005057600080fd5b50610228806100606000396000f3fe608060405234801561001057600080fd5b506004361061002b5760003560e01c8063b06425f114610030575b600080fd5b61004a600480360381019061004591906100bf565b61004c565b005b50565b600061006261005d8461012d565b610108565b90508281526020810184848401111561007e5761007d6101d2565b5b61008984828561015e565b509392505050565b600082601f8301126100a6576100a56101cd565b5b81356100b684826020860161004f565b91505092915050565b6000602082840312156100d5576100d46101dc565b5b600082013567ffffffffffffffff8111156100f3576100f26101d7565b5b6100ff84828501610091565b91505092915050565b6000610112610123565b905061011e828261016d565b919050565b6000604051905090565b600067ffffffffffffffff8211156101485761014761019e565b5b610151826101e1565b9050602081019050919050565b82818337600083830152505050565b610176826101e1565b810181811067ffffffffffffffff821117156101955761019461019e565b5b80604052505050565b7f4e487b7100000000000000000000000000000000000000000000000000000000600052604160045260246000fd5b600080fd5b600080fd5b600080fd5b600080fd5b6000601f19601f830116905091905056fea2646970667358221220f524a987a67092c2807dc8c4185398fdc54ae4123bda4b2565eabed6857f1d1e64736f6c63430008070033",
					"opcodes": "PUSH1 0x80 PUSH1 0x40 MSTORE CALLER PUSH1 0x0 DUP1 PUSH2 0x100 EXP DUP2 SLOAD DUP2 PUSH20 0xFFFFFFFFFFFFFFFFFFFFFFFFFFFFFFFFFFFFFFFF MUL NOT AND SWAP1 DUP4 PUSH20 0xFFFFFFFFFFFFFFFFFFFFFFFFFFFFFFFFFFFFFFFF AND MUL OR SWAP1 SSTORE POP CALLVALUE DUP1 ISZERO PUSH2 0x50 JUMPI PUSH1 0x0 DUP1 REVERT JUMPDEST POP PUSH2 0x228 DUP1 PUSH2 0x60 PUSH1 0x0 CODECOPY PUSH1 0x0 RETURN INVALID PUSH1 0x80 PUSH1 0x40 MSTORE CALLVALUE DUP1 ISZERO PUSH2 0x10 JUMPI PUSH1 0x0 DUP1 REVERT JUMPDEST POP PUSH1 0x4 CALLDATASIZE LT PUSH2 0x2B JUMPI PUSH1 0x0 CALLDATALOAD PUSH1 0xE0 SHR DUP1 PUSH4 0xB06425F1 EQ PUSH2 0x30 JUMPI JUMPDEST PUSH1 0x0 DUP1 REVERT JUMPDEST PUSH2 0x4A PUSH1 0x4 DUP1 CALLDATASIZE SUB DUP2 ADD SWAP1 PUSH2 0x45 SWAP2 SWAP1 PUSH2 0xBF JUMP JUMPDEST PUSH2 0x4C JUMP JUMPDEST STOP JUMPDEST POP JUMP JUMPDEST PUSH1 0x0 PUSH2 0x62 PUSH2 0x5D DUP5 PUSH2 0x12D JUMP JUMPDEST PUSH2 0x108 JUMP JUMPDEST SWAP1 POP DUP3 DUP2 MSTORE PUSH1 0x20 DUP2 ADD DUP5 DUP5 DUP5 ADD GT ISZERO PUSH2 0x7E JUMPI PUSH2 0x7D PUSH2 0x1D2 JUMP JUMPDEST JUMPDEST PUSH2 0x89 DUP5 DUP3 DUP6 PUSH2 0x15E JUMP JUMPDEST POP SWAP4 SWAP3 POP POP POP JUMP JUMPDEST PUSH1 0x0 DUP3 PUSH1 0x1F DUP4 ADD SLT PUSH2 0xA6 JUMPI PUSH2 0xA5 PUSH2 0x1CD JUMP JUMPDEST JUMPDEST DUP2 CALLDATALOAD PUSH2 0xB6 DUP5 DUP3 PUSH1 0x20 DUP7 ADD PUSH2 0x4F JUMP JUMPDEST SWAP2 POP POP SWAP3 SWAP2 POP POP JUMP JUMPDEST PUSH1 0x0 PUSH1 0x20 DUP3 DUP5 SUB SLT ISZERO PUSH2 0xD5 JUMPI PUSH2 0xD4 PUSH2 0x1DC JUMP JUMPDEST JUMPDEST PUSH1 0x0 DUP3 ADD CALLDATALOAD PUSH8 0xFFFFFFFFFFFFFFFF DUP2 GT ISZERO PUSH2 0xF3 JUMPI PUSH2 0xF2 PUSH2 0x1D7 JUMP JUMPDEST JUMPDEST PUSH2 0xFF DUP5 DUP3 DUP6 ADD PUSH2 0x91 JUMP JUMPDEST SWAP2 POP POP SWAP3 SWAP2 POP POP JUMP JUMPDEST PUSH1 0x0 PUSH2 0x112 PUSH2 0x123 JUMP JUMPDEST SWAP1 POP PUSH2 0x11E DUP3 DUP3 PUSH2 0x16D JUMP JUMPDEST SWAP2 SWAP1 POP JUMP JUMPDEST PUSH1 0x0 PUSH1 0x40 MLOAD SWAP1 POP SWAP1 JUMP JUMPDEST PUSH1 0x0 PUSH8 0xFFFFFFFFFFFFFFFF DUP3 GT ISZERO PUSH2 0x148 JUMPI PUSH2 0x147 PUSH2 0x19E JUMP JUMPDEST JUMPDEST PUSH2 0x151 DUP3 PUSH2 0x1E1 JUMP JUMPDEST SWAP1 POP PUSH1 0x20 DUP2 ADD SWAP1 POP SWAP2 SWAP1 POP JUMP JUMPDEST DUP3 DUP2 DUP4 CALLDATACOPY PUSH1 0x0 DUP4 DUP4 ADD MSTORE POP POP POP JUMP JUMPDEST PUSH2 0x176 DUP3 PUSH2 0x1E1 JUMP JUMPDEST DUP2 ADD DUP2 DUP2 LT PUSH8 0xFFFFFFFFFFFFFFFF DUP3 GT OR ISZERO PUSH2 0x195 JUMPI PUSH2 0x194 PUSH2 0x19E JUMP JUMPDEST JUMPDEST DUP1 PUSH1 0x40 MSTORE POP POP POP JUMP JUMPDEST PUSH32 0x4E487B7100000000000000000000000000000000000000000000000000000000 PUSH1 0x0 MSTORE PUSH1 0x41 PUSH1 0x4 MSTORE PUSH1 0x24 PUSH1 0x0 REVERT JUMPDEST PUSH1 0x0 DUP1 REVERT JUMPDEST PUSH1 0x0 DUP1 REVERT JUMPDEST PUSH1 0x0 DUP1 REVERT JUMPDEST PUSH1 0x0 DUP1 REVERT JUMPDEST PUSH1 0x0 PUSH1 0x1F NOT PUSH1 0x1F DUP4 ADD AND SWAP1 POP SWAP2 SWAP1 POP JUMP INVALID LOG2 PUSH5 0x6970667358 0x22 SLT KECCAK256 CREATE2 0x24 0xA9 DUP8 0xA6 PUSH17 0x92C2807DC8C4185398FDC54AE4123BDA4B 0x25 PUSH6 0xEABED6857F1D 0x1E PUSH5 0x736F6C6343 STOP ADDMOD SMOD STOP CALLER "
				},
				"gasEstimates": {
					"creation": {
						"codeDepositCost": "110400",
						"executionCost": "24425",
						"totalCost": "134825"
					},
					"external": {
						"addCanditate(string)": "infinite"
					}
				},
				"methodIdentifiers": {
					"addCanditate(string)": "b06425f1"
				}
			},
			"storageLayout": {
				"storage": [
					{
						"astId": 5,
						"contract": "contracts/votingSystem.sol:VotingContract",
						"label": "electionOfficer",
						"offset": 0,
						"slot": "0",
						"type": "t_address"
					},
					{
						"astId": 8,
						"contract": "contracts/votingSystem.sol:VotingContract",
						"label": "canditate",
						"offset": 0,
						"slot": "1",
						"type": "t_array(t_string_storage)dyn_storage"
					}
				],
				"types": {
					"t_address": {
						"encoding": "inplace",
						"label": "address",
						"numberOfBytes": "20"
					},
					"t_array(t_string_storage)dyn_storage": {
						"base": "t_string_storage",
						"encoding": "dynamic_array",
						"label": "string[]",
						"numberOfBytes": "32"
					},
					"t_string_storage": {
						"encoding": "bytes",
						"label": "string",
						"numberOfBytes": "32"
					}
				}
			},
			"userdoc": {
				"kind": "user",
				"methods": {},
				"version": 1
			}
		}
	}
}