{
	"contracts/votingSystem.sol": {
		"VotingContract": {
			"abi": [
				{
					"inputs": [],
					"name": "getAllCandidates",
					"outputs": [
						{
							"components": [
								{
									"internalType": "string",
									"name": "candidateName",
									"type": "string"
								},
								{
									"internalType": "string",
									"name": "symbols",
									"type": "string"
								},
								{
									"internalType": "bytes32",
									"name": "identifire",
									"type": "bytes32"
								}
							],
							"internalType": "struct VotingContract.candidateInfo[]",
							"name": "",
							"type": "tuple[]"
						}
					],
					"stateMutability": "view",
					"type": "function"
				},
				{
					"inputs": [
						{
							"internalType": "string",
							"name": "_name",
							"type": "string"
						},
						{
							"internalType": "string",
							"name": "_symbol",
							"type": "string"
						}
					],
					"name": "registerCandidates",
					"outputs": [],
					"stateMutability": "nonpayable",
					"type": "function"
				},
				{
					"inputs": [],
					"name": "voteCandidate",
					"outputs": [],
					"stateMutability": "nonpayable",
					"type": "function"
				}
			],
			"devdoc": {
				"kind": "dev",
				"methods": {},
				"version": 1
			},
			"evm": {
				"assembly": "    /* \"contracts/votingSystem.sol\":60:1251  contract VotingContract{\r... */\n  mstore(0x40, 0x80)\n    /* \"contracts/votingSystem.sol\":313:323  msg.sender */\n  caller\n    /* \"contracts/votingSystem.sol\":287:323  address electionOfficer = msg.sender */\n  0x01\n  exp(0x0100, 0x00)\n  dup2\n  sload\n  dup2\n  0xffffffffffffffffffffffffffffffffffffffff\n  mul\n  not\n  and\n  swap1\n  dup4\n  0xffffffffffffffffffffffffffffffffffffffff\n  and\n  mul\n  or\n  swap1\n  sstore\n  pop\n    /* \"contracts/votingSystem.sol\":60:1251  contract VotingContract{\r... */\n  callvalue\n  dup1\n  iszero\n  tag_1\n  jumpi\n  0x00\n  dup1\n  revert\ntag_1:\n  pop\n  dataSize(sub_0)\n  dup1\n  dataOffset(sub_0)\n  0x00\n  codecopy\n  0x00\n  return\nstop\n\nsub_0: assembly {\n        /* \"contracts/votingSystem.sol\":60:1251  contract VotingContract{\r... */\n      mstore(0x40, 0x80)\n      callvalue\n      dup1\n      iszero\n      tag_1\n      jumpi\n      0x00\n      dup1\n      revert\n    tag_1:\n      pop\n      jumpi(tag_2, lt(calldatasize, 0x04))\n      shr(0xe0, calldataload(0x00))\n      dup1\n      0x2e6997fe\n      eq\n      tag_3\n      jumpi\n      dup1\n      0xc1700e00\n      eq\n      tag_4\n      jumpi\n      dup1\n      0xd73323a6\n      eq\n      tag_5\n      jumpi\n    tag_2:\n      0x00\n      dup1\n      revert\n        /* \"contracts/votingSystem.sol\":1139:1244  function getAllCandidates()view public returns(candidateInfo[] memory){\r... */\n    tag_3:\n      tag_6\n      tag_7\n      jump\t// in\n    tag_6:\n      mload(0x40)\n      tag_8\n      swap2\n      swap1\n      tag_9\n      jump\t// in\n    tag_8:\n      mload(0x40)\n      dup1\n      swap2\n      sub\n      swap1\n      return\n        /* \"contracts/votingSystem.sol\":410:705  function registerCandidates(string memory _name,string memory _symbol) public {\r... */\n    tag_4:\n      tag_10\n      0x04\n      dup1\n      calldatasize\n      sub\n      dup2\n      add\n      swap1\n      tag_11\n      swap2\n      swap1\n      tag_12\n      jump\t// in\n    tag_11:\n      tag_13\n      jump\t// in\n    tag_10:\n      stop\n        /* \"contracts/votingSystem.sol\":717:836  function voteCandidate() public\r... */\n    tag_5:\n      tag_14\n      tag_15\n      jump\t// in\n    tag_14:\n      stop\n        /* \"contracts/votingSystem.sol\":1139:1244  function getAllCandidates()view public returns(candidateInfo[] memory){\r... */\n    tag_7:\n        /* \"contracts/votingSystem.sol\":1186:1208  candidateInfo[] memory */\n      0x60\n        /* \"contracts/votingSystem.sol\":1223:1236  candidateList */\n      0x02\n        /* \"contracts/votingSystem.sol\":1216:1236  return candidateList */\n      dup1\n      sload\n      dup1\n      0x20\n      mul\n      0x20\n      add\n      mload(0x40)\n      swap1\n      dup2\n      add\n      0x40\n      mstore\n      dup1\n      swap3\n      swap2\n      swap1\n      dup2\n      dup2\n      mstore\n      0x20\n      add\n      0x00\n      swap1\n    tag_17:\n      dup3\n      dup3\n      lt\n      iszero\n      tag_18\n      jumpi\n      dup4\n      dup3\n      swap1\n      0x00\n      mstore\n      keccak256(0x00, 0x20)\n      swap1\n      0x03\n      mul\n      add\n      mload(0x40)\n      dup1\n      0x60\n      add\n      0x40\n      mstore\n      swap1\n      dup2\n      0x00\n      dup3\n      add\n      dup1\n      sload\n      tag_20\n      swap1\n      tag_21\n      jump\t// in\n    tag_20:\n      dup1\n      0x1f\n      add\n      0x20\n      dup1\n      swap2\n      div\n      mul\n      0x20\n      add\n      mload(0x40)\n      swap1\n      dup2\n      add\n      0x40\n      mstore\n      dup1\n      swap3\n      swap2\n      swap1\n      dup2\n      dup2\n      mstore\n      0x20\n      add\n      dup3\n      dup1\n      sload\n      tag_22\n      swap1\n      tag_21\n      jump\t// in\n    tag_22:\n      dup1\n      iszero\n      tag_23\n      jumpi\n      dup1\n      0x1f\n      lt\n      tag_24\n      jumpi\n      0x0100\n      dup1\n      dup4\n      sload\n      div\n      mul\n      dup4\n      mstore\n      swap2\n      0x20\n      add\n      swap2\n      jump(tag_23)\n    tag_24:\n      dup3\n      add\n      swap2\n      swap1\n      0x00\n      mstore\n      keccak256(0x00, 0x20)\n      swap1\n    tag_25:\n      dup2\n      sload\n      dup2\n      mstore\n      swap1\n      0x01\n      add\n      swap1\n      0x20\n      add\n      dup1\n      dup4\n      gt\n      tag_25\n      jumpi\n      dup3\n      swap1\n      sub\n      0x1f\n      and\n      dup3\n      add\n      swap2\n    tag_23:\n      pop\n      pop\n      pop\n      pop\n      pop\n      dup2\n      mstore\n      0x20\n      add\n      0x01\n      dup3\n      add\n      dup1\n      sload\n      tag_26\n      swap1\n      tag_21\n      jump\t// in\n    tag_26:\n      dup1\n      0x1f\n      add\n      0x20\n      dup1\n      swap2\n      div\n      mul\n      0x20\n      add\n      mload(0x40)\n      swap1\n      dup2\n      add\n      0x40\n      mstore\n      dup1\n      swap3\n      swap2\n      swap1\n      dup2\n      dup2\n      mstore\n      0x20\n      add\n      dup3\n      dup1\n      sload\n      tag_27\n      swap1\n      tag_21\n      jump\t// in\n    tag_27:\n      dup1\n      iszero\n      tag_28\n      jumpi\n      dup1\n      0x1f\n      lt\n      tag_29\n      jumpi\n      0x0100\n      dup1\n      dup4\n      sload\n      div\n      mul\n      dup4\n      mstore\n      swap2\n      0x20\n      add\n      swap2\n      jump(tag_28)\n    tag_29:\n      dup3\n      add\n      swap2\n      swap1\n      0x00\n      mstore\n      keccak256(0x00, 0x20)\n      swap1\n    tag_30:\n      dup2\n      sload\n      dup2\n      mstore\n      swap1\n      0x01\n      add\n      swap1\n      0x20\n      add\n      dup1\n      dup4\n      gt\n      tag_30\n      jumpi\n      dup3\n      swap1\n      sub\n      0x1f\n      and\n      dup3\n      add\n      swap2\n    tag_28:\n      pop\n      pop\n      pop\n      pop\n      pop\n      dup2\n      mstore\n      0x20\n      add\n      0x02\n      dup3\n      add\n      sload\n      dup2\n      mstore\n      pop\n      pop\n      dup2\n      mstore\n      0x20\n      add\n      swap1\n      0x01\n      add\n      swap1\n      jump(tag_17)\n    tag_18:\n      pop\n      pop\n      pop\n      pop\n      swap1\n      pop\n        /* \"contracts/votingSystem.sol\":1139:1244  function getAllCandidates()view public returns(candidateInfo[] memory){\r... */\n      swap1\n      jump\t// out\n        /* \"contracts/votingSystem.sol\":410:705  function registerCandidates(string memory _name,string memory _symbol) public {\r... */\n    tag_13:\n        /* \"contracts/votingSystem.sol\":519:534  electionOfficer */\n      0x01\n      0x00\n      swap1\n      sload\n      swap1\n      0x0100\n      exp\n      swap1\n      div\n      0xffffffffffffffffffffffffffffffffffffffff\n      and\n        /* \"contracts/votingSystem.sol\":507:534  msg.sender==electionOfficer */\n      0xffffffffffffffffffffffffffffffffffffffff\n      and\n        /* \"contracts/votingSystem.sol\":507:517  msg.sender */\n      caller\n        /* \"contracts/votingSystem.sol\":507:534  msg.sender==electionOfficer */\n      0xffffffffffffffffffffffffffffffffffffffff\n      and\n      eq\n        /* \"contracts/votingSystem.sol\":499:557  require(msg.sender==electionOfficer,\"Unauthorized Person\") */\n      tag_32\n      jumpi\n      mload(0x40)\n      0x08c379a000000000000000000000000000000000000000000000000000000000\n      dup2\n      mstore\n      0x04\n      add\n      tag_33\n      swap1\n      tag_34\n      jump\t// in\n    tag_33:\n      mload(0x40)\n      dup1\n      swap2\n      sub\n      swap1\n      revert\n    tag_32:\n        /* \"contracts/votingSystem.sol\":568:581  candidateList */\n      0x02\n        /* \"contracts/votingSystem.sol\":587:686  candidateInfo(\r... */\n      mload(0x40)\n      dup1\n      0x60\n      add\n      0x40\n      mstore\n      dup1\n        /* \"contracts/votingSystem.sol\":615:620  _name */\n      dup5\n        /* \"contracts/votingSystem.sol\":587:686  candidateInfo(\r... */\n      dup2\n      mstore\n      0x20\n      add\n        /* \"contracts/votingSystem.sol\":621:628  _symbol */\n      dup4\n        /* \"contracts/votingSystem.sol\":587:686  candidateInfo(\r... */\n      dup2\n      mstore\n      0x20\n      add\n        /* \"contracts/votingSystem.sol\":670:675  _name */\n      dup5\n        /* \"contracts/votingSystem.sol\":676:683  _symbol */\n      dup5\n        /* \"contracts/votingSystem.sol\":653:684  abi.encodePacked(_name,_symbol) */\n      add(0x20, mload(0x40))\n      tag_35\n      swap3\n      swap2\n      swap1\n      tag_36\n      jump\t// in\n    tag_35:\n      mload(0x40)\n      0x20\n      dup2\n      dup4\n      sub\n      sub\n      dup2\n      mstore\n      swap1\n      0x40\n      mstore\n        /* \"contracts/votingSystem.sol\":643:685  keccak256(abi.encodePacked(_name,_symbol)) */\n      dup1\n      mload\n      swap1\n      0x20\n      add\n      keccak256\n        /* \"contracts/votingSystem.sol\":587:686  candidateInfo(\r... */\n      dup2\n      mstore\n      pop\n        /* \"contracts/votingSystem.sol\":568:697  candidateList.push(candidateInfo(\r... */\n      swap1\n      dup1\n      0x01\n      dup2\n      sload\n      add\n      dup1\n      dup3\n      sstore\n      dup1\n      swap2\n      pop\n      pop\n      0x01\n      swap1\n      sub\n      swap1\n      0x00\n      mstore\n      keccak256(0x00, 0x20)\n      swap1\n      0x03\n      mul\n      add\n      0x00\n      swap1\n      swap2\n      swap1\n      swap2\n      swap1\n      swap2\n      pop\n      0x00\n      dup3\n      add\n      mload\n      dup2\n      0x00\n      add\n      swap1\n      dup1\n      mload\n      swap1\n      0x20\n      add\n      swap1\n      tag_38\n      swap3\n      swap2\n      swap1\n      tag_39\n      jump\t// in\n    tag_38:\n      pop\n      0x20\n      dup3\n      add\n      mload\n      dup2\n      0x01\n      add\n      swap1\n      dup1\n      mload\n      swap1\n      0x20\n      add\n      swap1\n      tag_40\n      swap3\n      swap2\n      swap1\n      tag_39\n      jump\t// in\n    tag_40:\n      pop\n      0x40\n      dup3\n      add\n      mload\n      dup2\n      0x02\n      add\n      sstore\n      pop\n      pop\n        /* \"contracts/votingSystem.sol\":410:705  function registerCandidates(string memory _name,string memory _symbol) public {\r... */\n      pop\n      pop\n      jump\t// out\n        /* \"contracts/votingSystem.sol\":717:836  function voteCandidate() public\r... */\n    tag_15:\n        /* \"contracts/votingSystem.sol\":789:794  false */\n      0x00\n        /* \"contracts/votingSystem.sol\":773:794  checkVoter() == false */\n      iszero\n      iszero\n        /* \"contracts/votingSystem.sol\":773:785  checkVoter() */\n      tag_42\n        /* \"contracts/votingSystem.sol\":773:783  checkVoter */\n      tag_43\n        /* \"contracts/votingSystem.sol\":773:785  checkVoter() */\n      jump\t// in\n    tag_42:\n        /* \"contracts/votingSystem.sol\":773:794  checkVoter() == false */\n      iszero\n      iszero\n      eq\n        /* \"contracts/votingSystem.sol\":765:824  require(checkVoter() == false, \"Voter can give vote once.\") */\n      tag_44\n      jumpi\n      mload(0x40)\n      0x08c379a000000000000000000000000000000000000000000000000000000000\n      dup2\n      mstore\n      0x04\n      add\n      tag_45\n      swap1\n      tag_46\n      jump\t// in\n    tag_45:\n      mload(0x40)\n      dup1\n      swap2\n      sub\n      swap1\n      revert\n    tag_44:\n        /* \"contracts/votingSystem.sol\":717:836  function voteCandidate() public\r... */\n      jump\t// out\n        /* \"contracts/votingSystem.sol\":873:1104  function checkVoter() private view returns(bool)\r... */\n    tag_43:\n        /* \"contracts/votingSystem.sol\":916:920  bool */\n      0x00\n        /* \"contracts/votingSystem.sol\":942:948  uint i */\n      dup1\n        /* \"contracts/votingSystem.sol\":949:950  0 */\n      0x00\n        /* \"contracts/votingSystem.sol\":942:950  uint i=0 */\n      swap1\n      pop\n        /* \"contracts/votingSystem.sol\":938:1074  for(uint i=0; i<voterAddress.length; i++)\r... */\n    tag_48:\n        /* \"contracts/votingSystem.sol\":954:966  voterAddress */\n      0x00\n        /* \"contracts/votingSystem.sol\":954:973  voterAddress.length */\n      dup1\n      sload\n      swap1\n      pop\n        /* \"contracts/votingSystem.sol\":952:953  i */\n      dup2\n        /* \"contracts/votingSystem.sol\":952:973  i<voterAddress.length */\n      lt\n        /* \"contracts/votingSystem.sol\":938:1074  for(uint i=0; i<voterAddress.length; i++)\r... */\n      iszero\n      tag_49\n      jumpi\n        /* \"contracts/votingSystem.sol\":1021:1033  voterAddress */\n      0x00\n        /* \"contracts/votingSystem.sol\":1034:1035  i */\n      dup2\n        /* \"contracts/votingSystem.sol\":1021:1036  voterAddress[i] */\n      dup2\n      sload\n      dup2\n      lt\n      tag_51\n      jumpi\n      tag_52\n      tag_53\n      jump\t// in\n    tag_52:\n    tag_51:\n      swap1\n      0x00\n      mstore\n      keccak256(0x00, 0x20)\n      add\n      0x00\n      swap1\n      sload\n      swap1\n      0x0100\n      exp\n      swap1\n      div\n      0xffffffffffffffffffffffffffffffffffffffff\n      and\n        /* \"contracts/votingSystem.sol\":1007:1036  msg.sender == voterAddress[i] */\n      0xffffffffffffffffffffffffffffffffffffffff\n      and\n        /* \"contracts/votingSystem.sol\":1007:1017  msg.sender */\n      caller\n        /* \"contracts/votingSystem.sol\":1007:1036  msg.sender == voterAddress[i] */\n      0xffffffffffffffffffffffffffffffffffffffff\n      and\n      eq\n        /* \"contracts/votingSystem.sol\":1004:1062  if(msg.sender == voterAddress[i])\r... */\n      iszero\n      tag_55\n      jumpi\n        /* \"contracts/votingSystem.sol\":1058:1062  true */\n      0x01\n        /* \"contracts/votingSystem.sol\":1051:1062  return true */\n      swap2\n      pop\n      pop\n      jump(tag_47)\n        /* \"contracts/votingSystem.sol\":1004:1062  if(msg.sender == voterAddress[i])\r... */\n    tag_55:\n        /* \"contracts/votingSystem.sol\":975:978  i++ */\n      dup1\n      dup1\n      tag_56\n      swap1\n      tag_57\n      jump\t// in\n    tag_56:\n      swap2\n      pop\n      pop\n        /* \"contracts/votingSystem.sol\":938:1074  for(uint i=0; i<voterAddress.length; i++)\r... */\n      jump(tag_48)\n    tag_49:\n      pop\n        /* \"contracts/votingSystem.sol\":1091:1096  false */\n      0x00\n        /* \"contracts/votingSystem.sol\":1084:1096  return false */\n      swap1\n      pop\n        /* \"contracts/votingSystem.sol\":873:1104  function checkVoter() private view returns(bool)\r... */\n    tag_47:\n      swap1\n      jump\t// out\n    tag_39:\n      dup3\n      dup1\n      sload\n      tag_58\n      swap1\n      tag_21\n      jump\t// in\n    tag_58:\n      swap1\n      0x00\n      mstore\n      keccak256(0x00, 0x20)\n      swap1\n      0x1f\n      add\n      0x20\n      swap1\n      div\n      dup2\n      add\n      swap3\n      dup3\n      tag_60\n      jumpi\n      0x00\n      dup6\n      sstore\n      jump(tag_59)\n    tag_60:\n      dup3\n      0x1f\n      lt\n      tag_61\n      jumpi\n      dup1\n      mload\n      not(0xff)\n      and\n      dup4\n      dup1\n      add\n      or\n      dup6\n      sstore\n      jump(tag_59)\n    tag_61:\n      dup3\n      dup1\n      add\n      0x01\n      add\n      dup6\n      sstore\n      dup3\n      iszero\n      tag_59\n      jumpi\n      swap2\n      dup3\n      add\n    tag_62:\n      dup3\n      dup2\n      gt\n      iszero\n      tag_63\n      jumpi\n      dup3\n      mload\n      dup3\n      sstore\n      swap2\n      0x20\n      add\n      swap2\n      swap1\n      0x01\n      add\n      swap1\n      jump(tag_62)\n    tag_63:\n    tag_59:\n      pop\n      swap1\n      pop\n      tag_64\n      swap2\n      swap1\n      tag_65\n      jump\t// in\n    tag_64:\n      pop\n      swap1\n      jump\t// out\n    tag_65:\n    tag_66:\n      dup1\n      dup3\n      gt\n      iszero\n      tag_67\n      jumpi\n      0x00\n      dup2\n      0x00\n      swap1\n      sstore\n      pop\n      0x01\n      add\n      jump(tag_66)\n    tag_67:\n      pop\n      swap1\n      jump\t// out\n        /* \"#utility.yul\":7:419   */\n    tag_69:\n        /* \"#utility.yul\":85:90   */\n      0x00\n        /* \"#utility.yul\":110:176   */\n      tag_71\n        /* \"#utility.yul\":126:175   */\n      tag_72\n        /* \"#utility.yul\":168:174   */\n      dup5\n        /* \"#utility.yul\":126:175   */\n      tag_73\n      jump\t// in\n    tag_72:\n        /* \"#utility.yul\":110:176   */\n      tag_74\n      jump\t// in\n    tag_71:\n        /* \"#utility.yul\":101:176   */\n      swap1\n      pop\n        /* \"#utility.yul\":199:205   */\n      dup3\n        /* \"#utility.yul\":192:197   */\n      dup2\n        /* \"#utility.yul\":185:206   */\n      mstore\n        /* \"#utility.yul\":237:241   */\n      0x20\n        /* \"#utility.yul\":230:235   */\n      dup2\n        /* \"#utility.yul\":226:242   */\n      add\n        /* \"#utility.yul\":275:278   */\n      dup5\n        /* \"#utility.yul\":266:272   */\n      dup5\n        /* \"#utility.yul\":261:264   */\n      dup5\n        /* \"#utility.yul\":257:273   */\n      add\n        /* \"#utility.yul\":254:279   */\n      gt\n        /* \"#utility.yul\":251:363   */\n      iszero\n      tag_75\n      jumpi\n        /* \"#utility.yul\":282:361   */\n      tag_76\n      tag_77\n      jump\t// in\n    tag_76:\n        /* \"#utility.yul\":251:363   */\n    tag_75:\n        /* \"#utility.yul\":372:413   */\n      tag_78\n        /* \"#utility.yul\":406:412   */\n      dup5\n        /* \"#utility.yul\":401:404   */\n      dup3\n        /* \"#utility.yul\":396:399   */\n      dup6\n        /* \"#utility.yul\":372:413   */\n      tag_79\n      jump\t// in\n    tag_78:\n        /* \"#utility.yul\":91:419   */\n      pop\n        /* \"#utility.yul\":7:419   */\n      swap4\n      swap3\n      pop\n      pop\n      pop\n      jump\t// out\n        /* \"#utility.yul\":439:779   */\n    tag_80:\n        /* \"#utility.yul\":495:500   */\n      0x00\n        /* \"#utility.yul\":544:547   */\n      dup3\n        /* \"#utility.yul\":537:541   */\n      0x1f\n        /* \"#utility.yul\":529:535   */\n      dup4\n        /* \"#utility.yul\":525:542   */\n      add\n        /* \"#utility.yul\":521:548   */\n      slt\n        /* \"#utility.yul\":511:633   */\n      tag_82\n      jumpi\n        /* \"#utility.yul\":552:631   */\n      tag_83\n      tag_84\n      jump\t// in\n    tag_83:\n        /* \"#utility.yul\":511:633   */\n    tag_82:\n        /* \"#utility.yul\":669:675   */\n      dup2\n        /* \"#utility.yul\":656:676   */\n      calldataload\n        /* \"#utility.yul\":694:773   */\n      tag_85\n        /* \"#utility.yul\":769:772   */\n      dup5\n        /* \"#utility.yul\":761:767   */\n      dup3\n        /* \"#utility.yul\":754:758   */\n      0x20\n        /* \"#utility.yul\":746:752   */\n      dup7\n        /* \"#utility.yul\":742:759   */\n      add\n        /* \"#utility.yul\":694:773   */\n      tag_69\n      jump\t// in\n    tag_85:\n        /* \"#utility.yul\":685:773   */\n      swap2\n      pop\n        /* \"#utility.yul\":501:779   */\n      pop\n        /* \"#utility.yul\":439:779   */\n      swap3\n      swap2\n      pop\n      pop\n      jump\t// out\n        /* \"#utility.yul\":785:1619   */\n    tag_12:\n        /* \"#utility.yul\":873:879   */\n      0x00\n        /* \"#utility.yul\":881:887   */\n      dup1\n        /* \"#utility.yul\":930:932   */\n      0x40\n        /* \"#utility.yul\":918:927   */\n      dup4\n        /* \"#utility.yul\":909:916   */\n      dup6\n        /* \"#utility.yul\":905:928   */\n      sub\n        /* \"#utility.yul\":901:933   */\n      slt\n        /* \"#utility.yul\":898:1017   */\n      iszero\n      tag_87\n      jumpi\n        /* \"#utility.yul\":936:1015   */\n      tag_88\n      tag_89\n      jump\t// in\n    tag_88:\n        /* \"#utility.yul\":898:1017   */\n    tag_87:\n        /* \"#utility.yul\":1084:1085   */\n      0x00\n        /* \"#utility.yul\":1073:1082   */\n      dup4\n        /* \"#utility.yul\":1069:1086   */\n      add\n        /* \"#utility.yul\":1056:1087   */\n      calldataload\n        /* \"#utility.yul\":1114:1132   */\n      0xffffffffffffffff\n        /* \"#utility.yul\":1106:1112   */\n      dup2\n        /* \"#utility.yul\":1103:1133   */\n      gt\n        /* \"#utility.yul\":1100:1217   */\n      iszero\n      tag_90\n      jumpi\n        /* \"#utility.yul\":1136:1215   */\n      tag_91\n      tag_92\n      jump\t// in\n    tag_91:\n        /* \"#utility.yul\":1100:1217   */\n    tag_90:\n        /* \"#utility.yul\":1241:1304   */\n      tag_93\n        /* \"#utility.yul\":1296:1303   */\n      dup6\n        /* \"#utility.yul\":1287:1293   */\n      dup3\n        /* \"#utility.yul\":1276:1285   */\n      dup7\n        /* \"#utility.yul\":1272:1294   */\n      add\n        /* \"#utility.yul\":1241:1304   */\n      tag_80\n      jump\t// in\n    tag_93:\n        /* \"#utility.yul\":1231:1304   */\n      swap3\n      pop\n        /* \"#utility.yul\":1027:1314   */\n      pop\n        /* \"#utility.yul\":1381:1383   */\n      0x20\n        /* \"#utility.yul\":1370:1379   */\n      dup4\n        /* \"#utility.yul\":1366:1384   */\n      add\n        /* \"#utility.yul\":1353:1385   */\n      calldataload\n        /* \"#utility.yul\":1412:1430   */\n      0xffffffffffffffff\n        /* \"#utility.yul\":1404:1410   */\n      dup2\n        /* \"#utility.yul\":1401:1431   */\n      gt\n        /* \"#utility.yul\":1398:1515   */\n      iszero\n      tag_94\n      jumpi\n        /* \"#utility.yul\":1434:1513   */\n      tag_95\n      tag_92\n      jump\t// in\n    tag_95:\n        /* \"#utility.yul\":1398:1515   */\n    tag_94:\n        /* \"#utility.yul\":1539:1602   */\n      tag_96\n        /* \"#utility.yul\":1594:1601   */\n      dup6\n        /* \"#utility.yul\":1585:1591   */\n      dup3\n        /* \"#utility.yul\":1574:1583   */\n      dup7\n        /* \"#utility.yul\":1570:1592   */\n      add\n        /* \"#utility.yul\":1539:1602   */\n      tag_80\n      jump\t// in\n    tag_96:\n        /* \"#utility.yul\":1529:1602   */\n      swap2\n      pop\n        /* \"#utility.yul\":1324:1612   */\n      pop\n        /* \"#utility.yul\":785:1619   */\n      swap3\n      pop\n      swap3\n      swap1\n      pop\n      jump\t// out\n        /* \"#utility.yul\":1625:1893   */\n    tag_97:\n        /* \"#utility.yul\":1750:1760   */\n      0x00\n        /* \"#utility.yul\":1785:1887   */\n      tag_99\n        /* \"#utility.yul\":1883:1886   */\n      dup4\n        /* \"#utility.yul\":1875:1881   */\n      dup4\n        /* \"#utility.yul\":1785:1887   */\n      tag_100\n      jump\t// in\n    tag_99:\n        /* \"#utility.yul\":1771:1887   */\n      swap1\n      pop\n        /* \"#utility.yul\":1625:1893   */\n      swap3\n      swap2\n      pop\n      pop\n      jump\t// out\n        /* \"#utility.yul\":1985:3120   */\n    tag_101:\n        /* \"#utility.yul\":2160:2163   */\n      0x00\n        /* \"#utility.yul\":2189:2271   */\n      tag_103\n        /* \"#utility.yul\":2265:2270   */\n      dup3\n        /* \"#utility.yul\":2189:2271   */\n      tag_104\n      jump\t// in\n    tag_103:\n        /* \"#utility.yul\":2287:2401   */\n      tag_105\n        /* \"#utility.yul\":2394:2400   */\n      dup2\n        /* \"#utility.yul\":2389:2392   */\n      dup6\n        /* \"#utility.yul\":2287:2401   */\n      tag_106\n      jump\t// in\n    tag_105:\n        /* \"#utility.yul\":2280:2401   */\n      swap4\n      pop\n        /* \"#utility.yul\":2427:2430   */\n      dup4\n        /* \"#utility.yul\":2472:2476   */\n      0x20\n        /* \"#utility.yul\":2464:2470   */\n      dup3\n        /* \"#utility.yul\":2460:2477   */\n      mul\n        /* \"#utility.yul\":2455:2458   */\n      dup6\n        /* \"#utility.yul\":2451:2478   */\n      add\n        /* \"#utility.yul\":2502:2586   */\n      tag_107\n        /* \"#utility.yul\":2580:2585   */\n      dup6\n        /* \"#utility.yul\":2502:2586   */\n      tag_108\n      jump\t// in\n    tag_107:\n        /* \"#utility.yul\":2609:2616   */\n      dup1\n        /* \"#utility.yul\":2640:2641   */\n      0x00\n        /* \"#utility.yul\":2625:3075   */\n    tag_109:\n        /* \"#utility.yul\":2650:2656   */\n      dup6\n        /* \"#utility.yul\":2647:2648   */\n      dup2\n        /* \"#utility.yul\":2644:2657   */\n      lt\n        /* \"#utility.yul\":2625:3075   */\n      iszero\n      tag_111\n      jumpi\n        /* \"#utility.yul\":2721:2730   */\n      dup5\n        /* \"#utility.yul\":2715:2719   */\n      dup5\n        /* \"#utility.yul\":2711:2731   */\n      sub\n        /* \"#utility.yul\":2706:2709   */\n      dup10\n        /* \"#utility.yul\":2699:2732   */\n      mstore\n        /* \"#utility.yul\":2772:2778   */\n      dup2\n        /* \"#utility.yul\":2766:2779   */\n      mload\n        /* \"#utility.yul\":2800:2920   */\n      tag_112\n        /* \"#utility.yul\":2915:2919   */\n      dup6\n        /* \"#utility.yul\":2900:2913   */\n      dup3\n        /* \"#utility.yul\":2800:2920   */\n      tag_97\n      jump\t// in\n    tag_112:\n        /* \"#utility.yul\":2792:2920   */\n      swap5\n      pop\n        /* \"#utility.yul\":2943:3031   */\n      tag_113\n        /* \"#utility.yul\":3024:3030   */\n      dup4\n        /* \"#utility.yul\":2943:3031   */\n      tag_114\n      jump\t// in\n    tag_113:\n        /* \"#utility.yul\":2933:3031   */\n      swap3\n      pop\n        /* \"#utility.yul\":3060:3064   */\n      0x20\n        /* \"#utility.yul\":3055:3058   */\n      dup11\n        /* \"#utility.yul\":3051:3065   */\n      add\n        /* \"#utility.yul\":3044:3065   */\n      swap10\n      pop\n        /* \"#utility.yul\":2685:3075   */\n      pop\n        /* \"#utility.yul\":2672:2673   */\n      0x01\n        /* \"#utility.yul\":2669:2670   */\n      dup2\n        /* \"#utility.yul\":2665:2674   */\n      add\n        /* \"#utility.yul\":2660:2674   */\n      swap1\n      pop\n        /* \"#utility.yul\":2625:3075   */\n      jump(tag_109)\n    tag_111:\n        /* \"#utility.yul\":2629:2643   */\n      pop\n        /* \"#utility.yul\":3091:3095   */\n      dup3\n        /* \"#utility.yul\":3084:3095   */\n      swap8\n      pop\n        /* \"#utility.yul\":3111:3114   */\n      dup8\n        /* \"#utility.yul\":3104:3114   */\n      swap6\n      pop\n        /* \"#utility.yul\":2165:3120   */\n      pop\n      pop\n      pop\n      pop\n      pop\n        /* \"#utility.yul\":1985:3120   */\n      swap3\n      swap2\n      pop\n      pop\n      jump\t// out\n        /* \"#utility.yul\":3126:3234   */\n    tag_115:\n        /* \"#utility.yul\":3203:3227   */\n      tag_117\n        /* \"#utility.yul\":3221:3226   */\n      dup2\n        /* \"#utility.yul\":3203:3227   */\n      tag_118\n      jump\t// in\n    tag_117:\n        /* \"#utility.yul\":3198:3201   */\n      dup3\n        /* \"#utility.yul\":3191:3228   */\n      mstore\n        /* \"#utility.yul\":3126:3234   */\n      pop\n      pop\n      jump\t// out\n        /* \"#utility.yul\":3240:3584   */\n    tag_119:\n        /* \"#utility.yul\":3318:3321   */\n      0x00\n        /* \"#utility.yul\":3346:3385   */\n      tag_121\n        /* \"#utility.yul\":3379:3384   */\n      dup3\n        /* \"#utility.yul\":3346:3385   */\n      tag_122\n      jump\t// in\n    tag_121:\n        /* \"#utility.yul\":3401:3462   */\n      tag_123\n        /* \"#utility.yul\":3455:3461   */\n      dup2\n        /* \"#utility.yul\":3450:3453   */\n      dup6\n        /* \"#utility.yul\":3401:3462   */\n      tag_124\n      jump\t// in\n    tag_123:\n        /* \"#utility.yul\":3394:3462   */\n      swap4\n      pop\n        /* \"#utility.yul\":3471:3523   */\n      tag_125\n        /* \"#utility.yul\":3516:3522   */\n      dup2\n        /* \"#utility.yul\":3511:3514   */\n      dup6\n        /* \"#utility.yul\":3504:3508   */\n      0x20\n        /* \"#utility.yul\":3497:3502   */\n      dup7\n        /* \"#utility.yul\":3493:3509   */\n      add\n        /* \"#utility.yul\":3471:3523   */\n      tag_126\n      jump\t// in\n    tag_125:\n        /* \"#utility.yul\":3548:3577   */\n      tag_127\n        /* \"#utility.yul\":3570:3576   */\n      dup2\n        /* \"#utility.yul\":3548:3577   */\n      tag_128\n      jump\t// in\n    tag_127:\n        /* \"#utility.yul\":3543:3546   */\n      dup5\n        /* \"#utility.yul\":3539:3578   */\n      add\n        /* \"#utility.yul\":3532:3578   */\n      swap2\n      pop\n        /* \"#utility.yul\":3322:3584   */\n      pop\n        /* \"#utility.yul\":3240:3584   */\n      swap3\n      swap2\n      pop\n      pop\n      jump\t// out\n        /* \"#utility.yul\":3590:3967   */\n    tag_129:\n        /* \"#utility.yul\":3696:3699   */\n      0x00\n        /* \"#utility.yul\":3724:3763   */\n      tag_131\n        /* \"#utility.yul\":3757:3762   */\n      dup3\n        /* \"#utility.yul\":3724:3763   */\n      tag_122\n      jump\t// in\n    tag_131:\n        /* \"#utility.yul\":3779:3868   */\n      tag_132\n        /* \"#utility.yul\":3861:3867   */\n      dup2\n        /* \"#utility.yul\":3856:3859   */\n      dup6\n        /* \"#utility.yul\":3779:3868   */\n      tag_133\n      jump\t// in\n    tag_132:\n        /* \"#utility.yul\":3772:3868   */\n      swap4\n      pop\n        /* \"#utility.yul\":3877:3929   */\n      tag_134\n        /* \"#utility.yul\":3922:3928   */\n      dup2\n        /* \"#utility.yul\":3917:3920   */\n      dup6\n        /* \"#utility.yul\":3910:3914   */\n      0x20\n        /* \"#utility.yul\":3903:3908   */\n      dup7\n        /* \"#utility.yul\":3899:3915   */\n      add\n        /* \"#utility.yul\":3877:3929   */\n      tag_126\n      jump\t// in\n    tag_134:\n        /* \"#utility.yul\":3954:3960   */\n      dup1\n        /* \"#utility.yul\":3949:3952   */\n      dup5\n        /* \"#utility.yul\":3945:3961   */\n      add\n        /* \"#utility.yul\":3938:3961   */\n      swap2\n      pop\n        /* \"#utility.yul\":3700:3967   */\n      pop\n        /* \"#utility.yul\":3590:3967   */\n      swap3\n      swap2\n      pop\n      pop\n      jump\t// out\n        /* \"#utility.yul\":3973:4339   */\n    tag_135:\n        /* \"#utility.yul\":4115:4118   */\n      0x00\n        /* \"#utility.yul\":4136:4203   */\n      tag_137\n        /* \"#utility.yul\":4200:4202   */\n      0x19\n        /* \"#utility.yul\":4195:4198   */\n      dup4\n        /* \"#utility.yul\":4136:4203   */\n      tag_138\n      jump\t// in\n    tag_137:\n        /* \"#utility.yul\":4129:4203   */\n      swap2\n      pop\n        /* \"#utility.yul\":4212:4305   */\n      tag_139\n        /* \"#utility.yul\":4301:4304   */\n      dup3\n        /* \"#utility.yul\":4212:4305   */\n      tag_140\n      jump\t// in\n    tag_139:\n        /* \"#utility.yul\":4330:4332   */\n      0x20\n        /* \"#utility.yul\":4325:4328   */\n      dup3\n        /* \"#utility.yul\":4321:4333   */\n      add\n        /* \"#utility.yul\":4314:4333   */\n      swap1\n      pop\n        /* \"#utility.yul\":3973:4339   */\n      swap2\n      swap1\n      pop\n      jump\t// out\n        /* \"#utility.yul\":4345:4711   */\n    tag_141:\n        /* \"#utility.yul\":4487:4490   */\n      0x00\n        /* \"#utility.yul\":4508:4575   */\n      tag_143\n        /* \"#utility.yul\":4572:4574   */\n      0x13\n        /* \"#utility.yul\":4567:4570   */\n      dup4\n        /* \"#utility.yul\":4508:4575   */\n      tag_138\n      jump\t// in\n    tag_143:\n        /* \"#utility.yul\":4501:4575   */\n      swap2\n      pop\n        /* \"#utility.yul\":4584:4677   */\n      tag_144\n        /* \"#utility.yul\":4673:4676   */\n      dup3\n        /* \"#utility.yul\":4584:4677   */\n      tag_145\n      jump\t// in\n    tag_144:\n        /* \"#utility.yul\":4702:4704   */\n      0x20\n        /* \"#utility.yul\":4697:4700   */\n      dup3\n        /* \"#utility.yul\":4693:4705   */\n      add\n        /* \"#utility.yul\":4686:4705   */\n      swap1\n      pop\n        /* \"#utility.yul\":4345:4711   */\n      swap2\n      swap1\n      pop\n      jump\t// out\n        /* \"#utility.yul\":4799:5664   */\n    tag_100:\n        /* \"#utility.yul\":4914:4917   */\n      0x00\n        /* \"#utility.yul\":4950:4954   */\n      0x60\n        /* \"#utility.yul\":4945:4948   */\n      dup4\n        /* \"#utility.yul\":4941:4955   */\n      add\n        /* \"#utility.yul\":5046:5050   */\n      0x00\n        /* \"#utility.yul\":5039:5044   */\n      dup4\n        /* \"#utility.yul\":5035:5051   */\n      add\n        /* \"#utility.yul\":5029:5052   */\n      mload\n        /* \"#utility.yul\":5099:5102   */\n      dup5\n        /* \"#utility.yul\":5093:5097   */\n      dup3\n        /* \"#utility.yul\":5089:5103   */\n      sub\n        /* \"#utility.yul\":5082:5086   */\n      0x00\n        /* \"#utility.yul\":5077:5080   */\n      dup7\n        /* \"#utility.yul\":5073:5087   */\n      add\n        /* \"#utility.yul\":5066:5104   */\n      mstore\n        /* \"#utility.yul\":5125:5198   */\n      tag_147\n        /* \"#utility.yul\":5193:5197   */\n      dup3\n        /* \"#utility.yul\":5179:5191   */\n      dup3\n        /* \"#utility.yul\":5125:5198   */\n      tag_119\n      jump\t// in\n    tag_147:\n        /* \"#utility.yul\":5117:5198   */\n      swap2\n      pop\n        /* \"#utility.yul\":4965:5209   */\n      pop\n        /* \"#utility.yul\":5294:5298   */\n      0x20\n        /* \"#utility.yul\":5287:5292   */\n      dup4\n        /* \"#utility.yul\":5283:5299   */\n      add\n        /* \"#utility.yul\":5277:5300   */\n      mload\n        /* \"#utility.yul\":5347:5350   */\n      dup5\n        /* \"#utility.yul\":5341:5345   */\n      dup3\n        /* \"#utility.yul\":5337:5351   */\n      sub\n        /* \"#utility.yul\":5330:5334   */\n      0x20\n        /* \"#utility.yul\":5325:5328   */\n      dup7\n        /* \"#utility.yul\":5321:5335   */\n      add\n        /* \"#utility.yul\":5314:5352   */\n      mstore\n        /* \"#utility.yul\":5373:5446   */\n      tag_148\n        /* \"#utility.yul\":5441:5445   */\n      dup3\n        /* \"#utility.yul\":5427:5439   */\n      dup3\n        /* \"#utility.yul\":5373:5446   */\n      tag_119\n      jump\t// in\n    tag_148:\n        /* \"#utility.yul\":5365:5446   */\n      swap2\n      pop\n        /* \"#utility.yul\":5219:5457   */\n      pop\n        /* \"#utility.yul\":5545:5549   */\n      0x40\n        /* \"#utility.yul\":5538:5543   */\n      dup4\n        /* \"#utility.yul\":5534:5550   */\n      add\n        /* \"#utility.yul\":5528:5551   */\n      mload\n        /* \"#utility.yul\":5564:5627   */\n      tag_149\n        /* \"#utility.yul\":5621:5625   */\n      0x40\n        /* \"#utility.yul\":5616:5619   */\n      dup7\n        /* \"#utility.yul\":5612:5626   */\n      add\n        /* \"#utility.yul\":5598:5610   */\n      dup3\n        /* \"#utility.yul\":5564:5627   */\n      tag_115\n      jump\t// in\n    tag_149:\n        /* \"#utility.yul\":5467:5637   */\n      pop\n        /* \"#utility.yul\":5654:5658   */\n      dup1\n        /* \"#utility.yul\":5647:5658   */\n      swap2\n      pop\n        /* \"#utility.yul\":4919:5664   */\n      pop\n        /* \"#utility.yul\":4799:5664   */\n      swap3\n      swap2\n      pop\n      pop\n      jump\t// out\n        /* \"#utility.yul\":5670:6105   */\n    tag_36:\n        /* \"#utility.yul\":5850:5853   */\n      0x00\n        /* \"#utility.yul\":5872:5967   */\n      tag_151\n        /* \"#utility.yul\":5963:5966   */\n      dup3\n        /* \"#utility.yul\":5954:5960   */\n      dup6\n        /* \"#utility.yul\":5872:5967   */\n      tag_129\n      jump\t// in\n    tag_151:\n        /* \"#utility.yul\":5865:5967   */\n      swap2\n      pop\n        /* \"#utility.yul\":5984:6079   */\n      tag_152\n        /* \"#utility.yul\":6075:6078   */\n      dup3\n        /* \"#utility.yul\":6066:6072   */\n      dup5\n        /* \"#utility.yul\":5984:6079   */\n      tag_129\n      jump\t// in\n    tag_152:\n        /* \"#utility.yul\":5977:6079   */\n      swap2\n      pop\n        /* \"#utility.yul\":6096:6099   */\n      dup2\n        /* \"#utility.yul\":6089:6099   */\n      swap1\n      pop\n        /* \"#utility.yul\":5670:6105   */\n      swap4\n      swap3\n      pop\n      pop\n      pop\n      jump\t// out\n        /* \"#utility.yul\":6111:6596   */\n    tag_9:\n        /* \"#utility.yul\":6310:6314   */\n      0x00\n        /* \"#utility.yul\":6348:6350   */\n      0x20\n        /* \"#utility.yul\":6337:6346   */\n      dup3\n        /* \"#utility.yul\":6333:6351   */\n      add\n        /* \"#utility.yul\":6325:6351   */\n      swap1\n      pop\n        /* \"#utility.yul\":6397:6406   */\n      dup2\n        /* \"#utility.yul\":6391:6395   */\n      dup2\n        /* \"#utility.yul\":6387:6407   */\n      sub\n        /* \"#utility.yul\":6383:6384   */\n      0x00\n        /* \"#utility.yul\":6372:6381   */\n      dup4\n        /* \"#utility.yul\":6368:6385   */\n      add\n        /* \"#utility.yul\":6361:6408   */\n      mstore\n        /* \"#utility.yul\":6425:6589   */\n      tag_154\n        /* \"#utility.yul\":6584:6588   */\n      dup2\n        /* \"#utility.yul\":6575:6581   */\n      dup5\n        /* \"#utility.yul\":6425:6589   */\n      tag_101\n      jump\t// in\n    tag_154:\n        /* \"#utility.yul\":6417:6589   */\n      swap1\n      pop\n        /* \"#utility.yul\":6111:6596   */\n      swap3\n      swap2\n      pop\n      pop\n      jump\t// out\n        /* \"#utility.yul\":6602:7021   */\n    tag_46:\n        /* \"#utility.yul\":6768:6772   */\n      0x00\n        /* \"#utility.yul\":6806:6808   */\n      0x20\n        /* \"#utility.yul\":6795:6804   */\n      dup3\n        /* \"#utility.yul\":6791:6809   */\n      add\n        /* \"#utility.yul\":6783:6809   */\n      swap1\n      pop\n        /* \"#utility.yul\":6855:6864   */\n      dup2\n        /* \"#utility.yul\":6849:6853   */\n      dup2\n        /* \"#utility.yul\":6845:6865   */\n      sub\n        /* \"#utility.yul\":6841:6842   */\n      0x00\n        /* \"#utility.yul\":6830:6839   */\n      dup4\n        /* \"#utility.yul\":6826:6843   */\n      add\n        /* \"#utility.yul\":6819:6866   */\n      mstore\n        /* \"#utility.yul\":6883:7014   */\n      tag_156\n        /* \"#utility.yul\":7009:7013   */\n      dup2\n        /* \"#utility.yul\":6883:7014   */\n      tag_135\n      jump\t// in\n    tag_156:\n        /* \"#utility.yul\":6875:7014   */\n      swap1\n      pop\n        /* \"#utility.yul\":6602:7021   */\n      swap2\n      swap1\n      pop\n      jump\t// out\n        /* \"#utility.yul\":7027:7446   */\n    tag_34:\n        /* \"#utility.yul\":7193:7197   */\n      0x00\n        /* \"#utility.yul\":7231:7233   */\n      0x20\n        /* \"#utility.yul\":7220:7229   */\n      dup3\n        /* \"#utility.yul\":7216:7234   */\n      add\n        /* \"#utility.yul\":7208:7234   */\n      swap1\n      pop\n        /* \"#utility.yul\":7280:7289   */\n      dup2\n        /* \"#utility.yul\":7274:7278   */\n      dup2\n        /* \"#utility.yul\":7270:7290   */\n      sub\n        /* \"#utility.yul\":7266:7267   */\n      0x00\n        /* \"#utility.yul\":7255:7264   */\n      dup4\n        /* \"#utility.yul\":7251:7268   */\n      add\n        /* \"#utility.yul\":7244:7291   */\n      mstore\n        /* \"#utility.yul\":7308:7439   */\n      tag_158\n        /* \"#utility.yul\":7434:7438   */\n      dup2\n        /* \"#utility.yul\":7308:7439   */\n      tag_141\n      jump\t// in\n    tag_158:\n        /* \"#utility.yul\":7300:7439   */\n      swap1\n      pop\n        /* \"#utility.yul\":7027:7446   */\n      swap2\n      swap1\n      pop\n      jump\t// out\n        /* \"#utility.yul\":7452:7581   */\n    tag_74:\n        /* \"#utility.yul\":7486:7492   */\n      0x00\n        /* \"#utility.yul\":7513:7533   */\n      tag_160\n      tag_161\n      jump\t// in\n    tag_160:\n        /* \"#utility.yul\":7503:7533   */\n      swap1\n      pop\n        /* \"#utility.yul\":7542:7575   */\n      tag_162\n        /* \"#utility.yul\":7570:7574   */\n      dup3\n        /* \"#utility.yul\":7562:7568   */\n      dup3\n        /* \"#utility.yul\":7542:7575   */\n      tag_163\n      jump\t// in\n    tag_162:\n        /* \"#utility.yul\":7452:7581   */\n      swap2\n      swap1\n      pop\n      jump\t// out\n        /* \"#utility.yul\":7587:7662   */\n    tag_161:\n        /* \"#utility.yul\":7620:7626   */\n      0x00\n        /* \"#utility.yul\":7653:7655   */\n      0x40\n        /* \"#utility.yul\":7647:7656   */\n      mload\n        /* \"#utility.yul\":7637:7656   */\n      swap1\n      pop\n        /* \"#utility.yul\":7587:7662   */\n      swap1\n      jump\t// out\n        /* \"#utility.yul\":7668:7976   */\n    tag_73:\n        /* \"#utility.yul\":7730:7734   */\n      0x00\n        /* \"#utility.yul\":7820:7838   */\n      0xffffffffffffffff\n        /* \"#utility.yul\":7812:7818   */\n      dup3\n        /* \"#utility.yul\":7809:7839   */\n      gt\n        /* \"#utility.yul\":7806:7862   */\n      iszero\n      tag_166\n      jumpi\n        /* \"#utility.yul\":7842:7860   */\n      tag_167\n      tag_168\n      jump\t// in\n    tag_167:\n        /* \"#utility.yul\":7806:7862   */\n    tag_166:\n        /* \"#utility.yul\":7880:7909   */\n      tag_169\n        /* \"#utility.yul\":7902:7908   */\n      dup3\n        /* \"#utility.yul\":7880:7909   */\n      tag_128\n      jump\t// in\n    tag_169:\n        /* \"#utility.yul\":7872:7909   */\n      swap1\n      pop\n        /* \"#utility.yul\":7964:7968   */\n      0x20\n        /* \"#utility.yul\":7958:7962   */\n      dup2\n        /* \"#utility.yul\":7954:7969   */\n      add\n        /* \"#utility.yul\":7946:7969   */\n      swap1\n      pop\n        /* \"#utility.yul\":7668:7976   */\n      swap2\n      swap1\n      pop\n      jump\t// out\n        /* \"#utility.yul\":7982:8142   */\n    tag_108:\n        /* \"#utility.yul\":8077:8081   */\n      0x00\n        /* \"#utility.yul\":8100:8103   */\n      dup2\n        /* \"#utility.yul\":8092:8103   */\n      swap1\n      pop\n        /* \"#utility.yul\":8130:8134   */\n      0x20\n        /* \"#utility.yul\":8125:8128   */\n      dup3\n        /* \"#utility.yul\":8121:8135   */\n      add\n        /* \"#utility.yul\":8113:8135   */\n      swap1\n      pop\n        /* \"#utility.yul\":7982:8142   */\n      swap2\n      swap1\n      pop\n      jump\t// out\n        /* \"#utility.yul\":8148:8290   */\n    tag_104:\n        /* \"#utility.yul\":8243:8249   */\n      0x00\n        /* \"#utility.yul\":8277:8282   */\n      dup2\n        /* \"#utility.yul\":8271:8283   */\n      mload\n        /* \"#utility.yul\":8261:8283   */\n      swap1\n      pop\n        /* \"#utility.yul\":8148:8290   */\n      swap2\n      swap1\n      pop\n      jump\t// out\n        /* \"#utility.yul\":8296:8395   */\n    tag_122:\n        /* \"#utility.yul\":8348:8354   */\n      0x00\n        /* \"#utility.yul\":8382:8387   */\n      dup2\n        /* \"#utility.yul\":8376:8388   */\n      mload\n        /* \"#utility.yul\":8366:8388   */\n      swap1\n      pop\n        /* \"#utility.yul\":8296:8395   */\n      swap2\n      swap1\n      pop\n      jump\t// out\n        /* \"#utility.yul\":8401:8542   */\n    tag_114:\n        /* \"#utility.yul\":8499:8503   */\n      0x00\n        /* \"#utility.yul\":8531:8535   */\n      0x20\n        /* \"#utility.yul\":8526:8529   */\n      dup3\n        /* \"#utility.yul\":8522:8536   */\n      add\n        /* \"#utility.yul\":8514:8536   */\n      swap1\n      pop\n        /* \"#utility.yul\":8401:8542   */\n      swap2\n      swap1\n      pop\n      jump\t// out\n        /* \"#utility.yul\":8548:8760   */\n    tag_106:\n        /* \"#utility.yul\":8675:8686   */\n      0x00\n        /* \"#utility.yul\":8709:8715   */\n      dup3\n        /* \"#utility.yul\":8704:8707   */\n      dup3\n        /* \"#utility.yul\":8697:8716   */\n      mstore\n        /* \"#utility.yul\":8749:8753   */\n      0x20\n        /* \"#utility.yul\":8744:8747   */\n      dup3\n        /* \"#utility.yul\":8740:8754   */\n      add\n        /* \"#utility.yul\":8725:8754   */\n      swap1\n      pop\n        /* \"#utility.yul\":8548:8760   */\n      swap3\n      swap2\n      pop\n      pop\n      jump\t// out\n        /* \"#utility.yul\":8766:8925   */\n    tag_124:\n        /* \"#utility.yul\":8840:8851   */\n      0x00\n        /* \"#utility.yul\":8874:8880   */\n      dup3\n        /* \"#utility.yul\":8869:8872   */\n      dup3\n        /* \"#utility.yul\":8862:8881   */\n      mstore\n        /* \"#utility.yul\":8914:8918   */\n      0x20\n        /* \"#utility.yul\":8909:8912   */\n      dup3\n        /* \"#utility.yul\":8905:8919   */\n      add\n        /* \"#utility.yul\":8890:8919   */\n      swap1\n      pop\n        /* \"#utility.yul\":8766:8925   */\n      swap3\n      swap2\n      pop\n      pop\n      jump\t// out\n        /* \"#utility.yul\":8931:9100   */\n    tag_138:\n        /* \"#utility.yul\":9015:9026   */\n      0x00\n        /* \"#utility.yul\":9049:9055   */\n      dup3\n        /* \"#utility.yul\":9044:9047   */\n      dup3\n        /* \"#utility.yul\":9037:9056   */\n      mstore\n        /* \"#utility.yul\":9089:9093   */\n      0x20\n        /* \"#utility.yul\":9084:9087   */\n      dup3\n        /* \"#utility.yul\":9080:9094   */\n      add\n        /* \"#utility.yul\":9065:9094   */\n      swap1\n      pop\n        /* \"#utility.yul\":8931:9100   */\n      swap3\n      swap2\n      pop\n      pop\n      jump\t// out\n        /* \"#utility.yul\":9106:9254   */\n    tag_133:\n        /* \"#utility.yul\":9208:9219   */\n      0x00\n        /* \"#utility.yul\":9245:9248   */\n      dup2\n        /* \"#utility.yul\":9230:9248   */\n      swap1\n      pop\n        /* \"#utility.yul\":9106:9254   */\n      swap3\n      swap2\n      pop\n      pop\n      jump\t// out\n        /* \"#utility.yul\":9260:9337   */\n    tag_118:\n        /* \"#utility.yul\":9297:9304   */\n      0x00\n        /* \"#utility.yul\":9326:9331   */\n      dup2\n        /* \"#utility.yul\":9315:9331   */\n      swap1\n      pop\n        /* \"#utility.yul\":9260:9337   */\n      swap2\n      swap1\n      pop\n      jump\t// out\n        /* \"#utility.yul\":9343:9420   */\n    tag_179:\n        /* \"#utility.yul\":9380:9387   */\n      0x00\n        /* \"#utility.yul\":9409:9414   */\n      dup2\n        /* \"#utility.yul\":9398:9414   */\n      swap1\n      pop\n        /* \"#utility.yul\":9343:9420   */\n      swap2\n      swap1\n      pop\n      jump\t// out\n        /* \"#utility.yul\":9426:9580   */\n    tag_79:\n        /* \"#utility.yul\":9510:9516   */\n      dup3\n        /* \"#utility.yul\":9505:9508   */\n      dup2\n        /* \"#utility.yul\":9500:9503   */\n      dup4\n        /* \"#utility.yul\":9487:9517   */\n      calldatacopy\n        /* \"#utility.yul\":9572:9573   */\n      0x00\n        /* \"#utility.yul\":9563:9569   */\n      dup4\n        /* \"#utility.yul\":9558:9561   */\n      dup4\n        /* \"#utility.yul\":9554:9570   */\n      add\n        /* \"#utility.yul\":9547:9574   */\n      mstore\n        /* \"#utility.yul\":9426:9580   */\n      pop\n      pop\n      pop\n      jump\t// out\n        /* \"#utility.yul\":9586:9893   */\n    tag_126:\n        /* \"#utility.yul\":9654:9655   */\n      0x00\n        /* \"#utility.yul\":9664:9777   */\n    tag_183:\n        /* \"#utility.yul\":9678:9684   */\n      dup4\n        /* \"#utility.yul\":9675:9676   */\n      dup2\n        /* \"#utility.yul\":9672:9685   */\n      lt\n        /* \"#utility.yul\":9664:9777   */\n      iszero\n      tag_185\n      jumpi\n        /* \"#utility.yul\":9763:9764   */\n      dup1\n        /* \"#utility.yul\":9758:9761   */\n      dup3\n        /* \"#utility.yul\":9754:9765   */\n      add\n        /* \"#utility.yul\":9748:9766   */\n      mload\n        /* \"#utility.yul\":9744:9745   */\n      dup2\n        /* \"#utility.yul\":9739:9742   */\n      dup5\n        /* \"#utility.yul\":9735:9746   */\n      add\n        /* \"#utility.yul\":9728:9767   */\n      mstore\n        /* \"#utility.yul\":9700:9702   */\n      0x20\n        /* \"#utility.yul\":9697:9698   */\n      dup2\n        /* \"#utility.yul\":9693:9703   */\n      add\n        /* \"#utility.yul\":9688:9703   */\n      swap1\n      pop\n        /* \"#utility.yul\":9664:9777   */\n      jump(tag_183)\n    tag_185:\n        /* \"#utility.yul\":9795:9801   */\n      dup4\n        /* \"#utility.yul\":9792:9793   */\n      dup2\n        /* \"#utility.yul\":9789:9802   */\n      gt\n        /* \"#utility.yul\":9786:9887   */\n      iszero\n      tag_186\n      jumpi\n        /* \"#utility.yul\":9875:9876   */\n      0x00\n        /* \"#utility.yul\":9866:9872   */\n      dup5\n        /* \"#utility.yul\":9861:9864   */\n      dup5\n        /* \"#utility.yul\":9857:9873   */\n      add\n        /* \"#utility.yul\":9850:9877   */\n      mstore\n        /* \"#utility.yul\":9786:9887   */\n    tag_186:\n        /* \"#utility.yul\":9635:9893   */\n      pop\n        /* \"#utility.yul\":9586:9893   */\n      pop\n      pop\n      pop\n      jump\t// out\n        /* \"#utility.yul\":9899:10219   */\n    tag_21:\n        /* \"#utility.yul\":9943:9949   */\n      0x00\n        /* \"#utility.yul\":9980:9981   */\n      0x02\n        /* \"#utility.yul\":9974:9978   */\n      dup3\n        /* \"#utility.yul\":9970:9982   */\n      div\n        /* \"#utility.yul\":9960:9982   */\n      swap1\n      pop\n        /* \"#utility.yul\":10027:10028   */\n      0x01\n        /* \"#utility.yul\":10021:10025   */\n      dup3\n        /* \"#utility.yul\":10017:10029   */\n      and\n        /* \"#utility.yul\":10048:10066   */\n      dup1\n        /* \"#utility.yul\":10038:10119   */\n      tag_188\n      jumpi\n        /* \"#utility.yul\":10104:10108   */\n      0x7f\n        /* \"#utility.yul\":10096:10102   */\n      dup3\n        /* \"#utility.yul\":10092:10109   */\n      and\n        /* \"#utility.yul\":10082:10109   */\n      swap2\n      pop\n        /* \"#utility.yul\":10038:10119   */\n    tag_188:\n        /* \"#utility.yul\":10166:10168   */\n      0x20\n        /* \"#utility.yul\":10158:10164   */\n      dup3\n        /* \"#utility.yul\":10155:10169   */\n      lt\n        /* \"#utility.yul\":10135:10153   */\n      dup2\n        /* \"#utility.yul\":10132:10170   */\n      eq\n        /* \"#utility.yul\":10129:10213   */\n      iszero\n      tag_189\n      jumpi\n        /* \"#utility.yul\":10185:10203   */\n      tag_190\n      tag_191\n      jump\t// in\n    tag_190:\n        /* \"#utility.yul\":10129:10213   */\n    tag_189:\n        /* \"#utility.yul\":9950:10219   */\n      pop\n        /* \"#utility.yul\":9899:10219   */\n      swap2\n      swap1\n      pop\n      jump\t// out\n        /* \"#utility.yul\":10225:10506   */\n    tag_163:\n        /* \"#utility.yul\":10308:10335   */\n      tag_193\n        /* \"#utility.yul\":10330:10334   */\n      dup3\n        /* \"#utility.yul\":10308:10335   */\n      tag_128\n      jump\t// in\n    tag_193:\n        /* \"#utility.yul\":10300:10306   */\n      dup2\n        /* \"#utility.yul\":10296:10336   */\n      add\n        /* \"#utility.yul\":10438:10444   */\n      dup2\n        /* \"#utility.yul\":10426:10436   */\n      dup2\n        /* \"#utility.yul\":10423:10445   */\n      lt\n        /* \"#utility.yul\":10402:10420   */\n      0xffffffffffffffff\n        /* \"#utility.yul\":10390:10400   */\n      dup3\n        /* \"#utility.yul\":10387:10421   */\n      gt\n        /* \"#utility.yul\":10384:10446   */\n      or\n        /* \"#utility.yul\":10381:10469   */\n      iszero\n      tag_194\n      jumpi\n        /* \"#utility.yul\":10449:10467   */\n      tag_195\n      tag_168\n      jump\t// in\n    tag_195:\n        /* \"#utility.yul\":10381:10469   */\n    tag_194:\n        /* \"#utility.yul\":10489:10499   */\n      dup1\n        /* \"#utility.yul\":10485:10487   */\n      0x40\n        /* \"#utility.yul\":10478:10500   */\n      mstore\n        /* \"#utility.yul\":10268:10506   */\n      pop\n        /* \"#utility.yul\":10225:10506   */\n      pop\n      pop\n      jump\t// out\n        /* \"#utility.yul\":10512:10745   */\n    tag_57:\n        /* \"#utility.yul\":10551:10554   */\n      0x00\n        /* \"#utility.yul\":10574:10598   */\n      tag_197\n        /* \"#utility.yul\":10592:10597   */\n      dup3\n        /* \"#utility.yul\":10574:10598   */\n      tag_179\n      jump\t// in\n    tag_197:\n        /* \"#utility.yul\":10565:10598   */\n      swap2\n      pop\n        /* \"#utility.yul\":10620:10686   */\n      0xffffffffffffffffffffffffffffffffffffffffffffffffffffffffffffffff\n        /* \"#utility.yul\":10613:10618   */\n      dup3\n        /* \"#utility.yul\":10610:10687   */\n      eq\n        /* \"#utility.yul\":10607:10710   */\n      iszero\n      tag_198\n      jumpi\n        /* \"#utility.yul\":10690:10708   */\n      tag_199\n      tag_200\n      jump\t// in\n    tag_199:\n        /* \"#utility.yul\":10607:10710   */\n    tag_198:\n        /* \"#utility.yul\":10737:10738   */\n      0x01\n        /* \"#utility.yul\":10730:10735   */\n      dup3\n        /* \"#utility.yul\":10726:10739   */\n      add\n        /* \"#utility.yul\":10719:10739   */\n      swap1\n      pop\n        /* \"#utility.yul\":10512:10745   */\n      swap2\n      swap1\n      pop\n      jump\t// out\n        /* \"#utility.yul\":10751:10931   */\n    tag_200:\n        /* \"#utility.yul\":10799:10876   */\n      0x4e487b7100000000000000000000000000000000000000000000000000000000\n        /* \"#utility.yul\":10796:10797   */\n      0x00\n        /* \"#utility.yul\":10789:10877   */\n      mstore\n        /* \"#utility.yul\":10896:10900   */\n      0x11\n        /* \"#utility.yul\":10893:10894   */\n      0x04\n        /* \"#utility.yul\":10886:10901   */\n      mstore\n        /* \"#utility.yul\":10920:10924   */\n      0x24\n        /* \"#utility.yul\":10917:10918   */\n      0x00\n        /* \"#utility.yul\":10910:10925   */\n      revert\n        /* \"#utility.yul\":10937:11117   */\n    tag_191:\n        /* \"#utility.yul\":10985:11062   */\n      0x4e487b7100000000000000000000000000000000000000000000000000000000\n        /* \"#utility.yul\":10982:10983   */\n      0x00\n        /* \"#utility.yul\":10975:11063   */\n      mstore\n        /* \"#utility.yul\":11082:11086   */\n      0x22\n        /* \"#utility.yul\":11079:11080   */\n      0x04\n        /* \"#utility.yul\":11072:11087   */\n      mstore\n        /* \"#utility.yul\":11106:11110   */\n      0x24\n        /* \"#utility.yul\":11103:11104   */\n      0x00\n        /* \"#utility.yul\":11096:11111   */\n      revert\n        /* \"#utility.yul\":11123:11303   */\n    tag_53:\n        /* \"#utility.yul\":11171:11248   */\n      0x4e487b7100000000000000000000000000000000000000000000000000000000\n        /* \"#utility.yul\":11168:11169   */\n      0x00\n        /* \"#utility.yul\":11161:11249   */\n      mstore\n        /* \"#utility.yul\":11268:11272   */\n      0x32\n        /* \"#utility.yul\":11265:11266   */\n      0x04\n        /* \"#utility.yul\":11258:11273   */\n      mstore\n        /* \"#utility.yul\":11292:11296   */\n      0x24\n        /* \"#utility.yul\":11289:11290   */\n      0x00\n        /* \"#utility.yul\":11282:11297   */\n      revert\n        /* \"#utility.yul\":11309:11489   */\n    tag_168:\n        /* \"#utility.yul\":11357:11434   */\n      0x4e487b7100000000000000000000000000000000000000000000000000000000\n        /* \"#utility.yul\":11354:11355   */\n      0x00\n        /* \"#utility.yul\":11347:11435   */\n      mstore\n        /* \"#utility.yul\":11454:11458   */\n      0x41\n        /* \"#utility.yul\":11451:11452   */\n      0x04\n        /* \"#utility.yul\":11444:11459   */\n      mstore\n        /* \"#utility.yul\":11478:11482   */\n      0x24\n        /* \"#utility.yul\":11475:11476   */\n      0x00\n        /* \"#utility.yul\":11468:11483   */\n      revert\n        /* \"#utility.yul\":11495:11612   */\n    tag_84:\n        /* \"#utility.yul\":11604:11605   */\n      0x00\n        /* \"#utility.yul\":11601:11602   */\n      dup1\n        /* \"#utility.yul\":11594:11606   */\n      revert\n        /* \"#utility.yul\":11618:11735   */\n    tag_77:\n        /* \"#utility.yul\":11727:11728   */\n      0x00\n        /* \"#utility.yul\":11724:11725   */\n      dup1\n        /* \"#utility.yul\":11717:11729   */\n      revert\n        /* \"#utility.yul\":11741:11858   */\n    tag_92:\n        /* \"#utility.yul\":11850:11851   */\n      0x00\n        /* \"#utility.yul\":11847:11848   */\n      dup1\n        /* \"#utility.yul\":11840:11852   */\n      revert\n        /* \"#utility.yul\":11864:11981   */\n    tag_89:\n        /* \"#utility.yul\":11973:11974   */\n      0x00\n        /* \"#utility.yul\":11970:11971   */\n      dup1\n        /* \"#utility.yul\":11963:11975   */\n      revert\n        /* \"#utility.yul\":11987:12089   */\n    tag_128:\n        /* \"#utility.yul\":12028:12034   */\n      0x00\n        /* \"#utility.yul\":12079:12081   */\n      0x1f\n        /* \"#utility.yul\":12075:12082   */\n      not\n        /* \"#utility.yul\":12070:12072   */\n      0x1f\n        /* \"#utility.yul\":12063:12068   */\n      dup4\n        /* \"#utility.yul\":12059:12073   */\n      add\n        /* \"#utility.yul\":12055:12083   */\n      and\n        /* \"#utility.yul\":12045:12083   */\n      swap1\n      pop\n        /* \"#utility.yul\":11987:12089   */\n      swap2\n      swap1\n      pop\n      jump\t// out\n        /* \"#utility.yul\":12095:12270   */\n    tag_140:\n        /* \"#utility.yul\":12235:12262   */\n      0x566f7465722063616e206769766520766f7465206f6e63652e00000000000000\n        /* \"#utility.yul\":12231:12232   */\n      0x00\n        /* \"#utility.yul\":12223:12229   */\n      dup3\n        /* \"#utility.yul\":12219:12233   */\n      add\n        /* \"#utility.yul\":12212:12263   */\n      mstore\n        /* \"#utility.yul\":12095:12270   */\n      pop\n      jump\t// out\n        /* \"#utility.yul\":12276:12445   */\n    tag_145:\n        /* \"#utility.yul\":12416:12437   */\n      0x556e617574686f72697a656420506572736f6e00000000000000000000000000\n        /* \"#utility.yul\":12412:12413   */\n      0x00\n        /* \"#utility.yul\":12404:12410   */\n      dup3\n        /* \"#utility.yul\":12400:12414   */\n      add\n        /* \"#utility.yul\":12393:12438   */\n      mstore\n        /* \"#utility.yul\":12276:12445   */\n      pop\n      jump\t// out\n\n    auxdata: 0xa2646970667358221220be1a4da98854ea04929a80d755536f5809e783d36d0b6247857d9e9dc473a60664736f6c63430008070033\n}\n",
				"bytecode": {
					"linkReferences": {},
					"object": "608060405233600160006101000a81548173ffffffffffffffffffffffffffffffffffffffff021916908373ffffffffffffffffffffffffffffffffffffffff16021790555034801561005157600080fd5b50610b3e806100616000396000f3fe608060405234801561001057600080fd5b50600436106100415760003560e01c80632e6997fe14610046578063c1700e0014610064578063d73323a614610080575b600080fd5b61004e61008a565b60405161005b91906107aa565b60405180910390f35b61007e6004803603810190610079919061056f565b610217565b005b61008861035f565b005b60606002805480602002602001604051908101604052809291908181526020016000905b8282101561020e57838290600052602060002090600302016040518060600160405290816000820180546100e190610929565b80601f016020809104026020016040519081016040528092919081815260200182805461010d90610929565b801561015a5780601f1061012f5761010080835404028352916020019161015a565b820191906000526020600020905b81548152906001019060200180831161013d57829003601f168201915b5050505050815260200160018201805461017390610929565b80601f016020809104026020016040519081016040528092919081815260200182805461019f90610929565b80156101ec5780601f106101c1576101008083540402835291602001916101ec565b820191906000526020600020905b8154815290600101906020018083116101cf57829003601f168201915b50505050508152602001600282015481525050815260200190600101906100ae565b50505050905090565b600160009054906101000a900473ffffffffffffffffffffffffffffffffffffffff1673ffffffffffffffffffffffffffffffffffffffff163373ffffffffffffffffffffffffffffffffffffffff16146102a7576040517f08c379a000000000000000000000000000000000000000000000000000000000815260040161029e906107ec565b60405180910390fd5b6002604051806060016040528084815260200183815260200184846040516020016102d3929190610786565b604051602081830303815290604052805190602001208152509080600181540180825580915050600190039060005260206000209060030201600090919091909150600082015181600001908051906020019061033192919061045c565b50602082015181600101908051906020019061034e92919061045c565b506040820151816002015550505050565b6000151561036b6103af565b1515146103ad576040517f08c379a00000000000000000000000000000000000000000000000000000000081526004016103a4906107cc565b60405180910390fd5b565b600080600090505b60008054905081101561045357600081815481106103d8576103d7610a33565b5b9060005260206000200160009054906101000a900473ffffffffffffffffffffffffffffffffffffffff1673ffffffffffffffffffffffffffffffffffffffff163373ffffffffffffffffffffffffffffffffffffffff161415610440576001915050610459565b808061044b9061098c565b9150506103b7565b50600090505b90565b82805461046890610929565b90600052602060002090601f01602090048101928261048a57600085556104d1565b82601f106104a357805160ff19168380011785556104d1565b828001600101855582156104d1579182015b828111156104d05782518255916020019190600101906104b5565b5b5090506104de91906104e2565b5090565b5b808211156104fb5760008160009055506001016104e3565b5090565b600061051261050d84610831565b61080c565b90508281526020810184848401111561052e5761052d610a96565b5b6105398482856108e7565b509392505050565b600082601f83011261055657610555610a91565b5b81356105668482602086016104ff565b91505092915050565b6000806040838503121561058657610585610aa0565b5b600083013567ffffffffffffffff8111156105a4576105a3610a9b565b5b6105b085828601610541565b925050602083013567ffffffffffffffff8111156105d1576105d0610a9b565b5b6105dd85828601610541565b9150509250929050565b60006105f3838361072f565b905092915050565b600061060682610872565b6106108185610895565b93508360208202850161062285610862565b8060005b8581101561065e578484038952815161063f85826105e7565b945061064a83610888565b925060208a01995050600181019050610626565b50829750879550505050505092915050565b610679816108d3565b82525050565b600061068a8261087d565b61069481856108a6565b93506106a48185602086016108f6565b6106ad81610aa5565b840191505092915050565b60006106c38261087d565b6106cd81856108c8565b93506106dd8185602086016108f6565b80840191505092915050565b60006106f66019836108b7565b915061070182610ab6565b602082019050919050565b60006107196013836108b7565b915061072482610adf565b602082019050919050565b6000606083016000830151848203600086015261074c828261067f565b91505060208301518482036020860152610766828261067f565b915050604083015161077b6040860182610670565b508091505092915050565b600061079282856106b8565b915061079e82846106b8565b91508190509392505050565b600060208201905081810360008301526107c481846105fb565b905092915050565b600060208201905081810360008301526107e5816106e9565b9050919050565b600060208201905081810360008301526108058161070c565b9050919050565b6000610816610827565b9050610822828261095b565b919050565b6000604051905090565b600067ffffffffffffffff82111561084c5761084b610a62565b5b61085582610aa5565b9050602081019050919050565b6000819050602082019050919050565b600081519050919050565b600081519050919050565b6000602082019050919050565b600082825260208201905092915050565b600082825260208201905092915050565b600082825260208201905092915050565b600081905092915050565b6000819050919050565b6000819050919050565b82818337600083830152505050565b60005b838110156109145780820151818401526020810190506108f9565b83811115610923576000848401525b50505050565b6000600282049050600182168061094157607f821691505b6020821081141561095557610954610a04565b5b50919050565b61096482610aa5565b810181811067ffffffffffffffff8211171561098357610982610a62565b5b80604052505050565b6000610997826108dd565b91507fffffffffffffffffffffffffffffffffffffffffffffffffffffffffffffffff8214156109ca576109c96109d5565b5b600182019050919050565b7f4e487b7100000000000000000000000000000000000000000000000000000000600052601160045260246000fd5b7f4e487b7100000000000000000000000000000000000000000000000000000000600052602260045260246000fd5b7f4e487b7100000000000000000000000000000000000000000000000000000000600052603260045260246000fd5b7f4e487b7100000000000000000000000000000000000000000000000000000000600052604160045260246000fd5b600080fd5b600080fd5b600080fd5b600080fd5b6000601f19601f8301169050919050565b7f566f7465722063616e206769766520766f7465206f6e63652e00000000000000600082015250565b7f556e617574686f72697a656420506572736f6e0000000000000000000000000060008201525056fea2646970667358221220be1a4da98854ea04929a80d755536f5809e783d36d0b6247857d9e9dc473a60664736f6c63430008070033",
					"opcodes": "PUSH1 0x80 PUSH1 0x40 MSTORE CALLER PUSH1 0x1 PUSH1 0x0 PUSH2 0x100 EXP DUP2 SLOAD DUP2 PUSH20 0xFFFFFFFFFFFFFFFFFFFFFFFFFFFFFFFFFFFFFFFF MUL NOT AND SWAP1 DUP4 PUSH20 0xFFFFFFFFFFFFFFFFFFFFFFFFFFFFFFFFFFFFFFFF AND MUL OR SWAP1 SSTORE POP CALLVALUE DUP1 ISZERO PUSH2 0x51 JUMPI PUSH1 0x0 DUP1 REVERT JUMPDEST POP PUSH2 0xB3E DUP1 PUSH2 0x61 PUSH1 0x0 CODECOPY PUSH1 0x0 RETURN INVALID PUSH1 0x80 PUSH1 0x40 MSTORE CALLVALUE DUP1 ISZERO PUSH2 0x10 JUMPI PUSH1 0x0 DUP1 REVERT JUMPDEST POP PUSH1 0x4 CALLDATASIZE LT PUSH2 0x41 JUMPI PUSH1 0x0 CALLDATALOAD PUSH1 0xE0 SHR DUP1 PUSH4 0x2E6997FE EQ PUSH2 0x46 JUMPI DUP1 PUSH4 0xC1700E00 EQ PUSH2 0x64 JUMPI DUP1 PUSH4 0xD73323A6 EQ PUSH2 0x80 JUMPI JUMPDEST PUSH1 0x0 DUP1 REVERT JUMPDEST PUSH2 0x4E PUSH2 0x8A JUMP JUMPDEST PUSH1 0x40 MLOAD PUSH2 0x5B SWAP2 SWAP1 PUSH2 0x7AA JUMP JUMPDEST PUSH1 0x40 MLOAD DUP1 SWAP2 SUB SWAP1 RETURN JUMPDEST PUSH2 0x7E PUSH1 0x4 DUP1 CALLDATASIZE SUB DUP2 ADD SWAP1 PUSH2 0x79 SWAP2 SWAP1 PUSH2 0x56F JUMP JUMPDEST PUSH2 0x217 JUMP JUMPDEST STOP JUMPDEST PUSH2 0x88 PUSH2 0x35F JUMP JUMPDEST STOP JUMPDEST PUSH1 0x60 PUSH1 0x2 DUP1 SLOAD DUP1 PUSH1 0x20 MUL PUSH1 0x20 ADD PUSH1 0x40 MLOAD SWAP1 DUP2 ADD PUSH1 0x40 MSTORE DUP1 SWAP3 SWAP2 SWAP1 DUP2 DUP2 MSTORE PUSH1 0x20 ADD PUSH1 0x0 SWAP1 JUMPDEST DUP3 DUP3 LT ISZERO PUSH2 0x20E JUMPI DUP4 DUP3 SWAP1 PUSH1 0x0 MSTORE PUSH1 0x20 PUSH1 0x0 KECCAK256 SWAP1 PUSH1 0x3 MUL ADD PUSH1 0x40 MLOAD DUP1 PUSH1 0x60 ADD PUSH1 0x40 MSTORE SWAP1 DUP2 PUSH1 0x0 DUP3 ADD DUP1 SLOAD PUSH2 0xE1 SWAP1 PUSH2 0x929 JUMP JUMPDEST DUP1 PUSH1 0x1F ADD PUSH1 0x20 DUP1 SWAP2 DIV MUL PUSH1 0x20 ADD PUSH1 0x40 MLOAD SWAP1 DUP2 ADD PUSH1 0x40 MSTORE DUP1 SWAP3 SWAP2 SWAP1 DUP2 DUP2 MSTORE PUSH1 0x20 ADD DUP3 DUP1 SLOAD PUSH2 0x10D SWAP1 PUSH2 0x929 JUMP JUMPDEST DUP1 ISZERO PUSH2 0x15A JUMPI DUP1 PUSH1 0x1F LT PUSH2 0x12F JUMPI PUSH2 0x100 DUP1 DUP4 SLOAD DIV MUL DUP4 MSTORE SWAP2 PUSH1 0x20 ADD SWAP2 PUSH2 0x15A JUMP JUMPDEST DUP3 ADD SWAP2 SWAP1 PUSH1 0x0 MSTORE PUSH1 0x20 PUSH1 0x0 KECCAK256 SWAP1 JUMPDEST DUP2 SLOAD DUP2 MSTORE SWAP1 PUSH1 0x1 ADD SWAP1 PUSH1 0x20 ADD DUP1 DUP4 GT PUSH2 0x13D JUMPI DUP3 SWAP1 SUB PUSH1 0x1F AND DUP3 ADD SWAP2 JUMPDEST POP POP POP POP POP DUP2 MSTORE PUSH1 0x20 ADD PUSH1 0x1 DUP3 ADD DUP1 SLOAD PUSH2 0x173 SWAP1 PUSH2 0x929 JUMP JUMPDEST DUP1 PUSH1 0x1F ADD PUSH1 0x20 DUP1 SWAP2 DIV MUL PUSH1 0x20 ADD PUSH1 0x40 MLOAD SWAP1 DUP2 ADD PUSH1 0x40 MSTORE DUP1 SWAP3 SWAP2 SWAP1 DUP2 DUP2 MSTORE PUSH1 0x20 ADD DUP3 DUP1 SLOAD PUSH2 0x19F SWAP1 PUSH2 0x929 JUMP JUMPDEST DUP1 ISZERO PUSH2 0x1EC JUMPI DUP1 PUSH1 0x1F LT PUSH2 0x1C1 JUMPI PUSH2 0x100 DUP1 DUP4 SLOAD DIV MUL DUP4 MSTORE SWAP2 PUSH1 0x20 ADD SWAP2 PUSH2 0x1EC JUMP JUMPDEST DUP3 ADD SWAP2 SWAP1 PUSH1 0x0 MSTORE PUSH1 0x20 PUSH1 0x0 KECCAK256 SWAP1 JUMPDEST DUP2 SLOAD DUP2 MSTORE SWAP1 PUSH1 0x1 ADD SWAP1 PUSH1 0x20 ADD DUP1 DUP4 GT PUSH2 0x1CF JUMPI DUP3 SWAP1 SUB PUSH1 0x1F AND DUP3 ADD SWAP2 JUMPDEST POP POP POP POP POP DUP2 MSTORE PUSH1 0x20 ADD PUSH1 0x2 DUP3 ADD SLOAD DUP2 MSTORE POP POP DUP2 MSTORE PUSH1 0x20 ADD SWAP1 PUSH1 0x1 ADD SWAP1 PUSH2 0xAE JUMP JUMPDEST POP POP POP POP SWAP1 POP SWAP1 JUMP JUMPDEST PUSH1 0x1 PUSH1 0x0 SWAP1 SLOAD SWAP1 PUSH2 0x100 EXP SWAP1 DIV PUSH20 0xFFFFFFFFFFFFFFFFFFFFFFFFFFFFFFFFFFFFFFFF AND PUSH20 0xFFFFFFFFFFFFFFFFFFFFFFFFFFFFFFFFFFFFFFFF AND CALLER PUSH20 0xFFFFFFFFFFFFFFFFFFFFFFFFFFFFFFFFFFFFFFFF AND EQ PUSH2 0x2A7 JUMPI PUSH1 0x40 MLOAD PUSH32 0x8C379A000000000000000000000000000000000000000000000000000000000 DUP2 MSTORE PUSH1 0x4 ADD PUSH2 0x29E SWAP1 PUSH2 0x7EC JUMP JUMPDEST PUSH1 0x40 MLOAD DUP1 SWAP2 SUB SWAP1 REVERT JUMPDEST PUSH1 0x2 PUSH1 0x40 MLOAD DUP1 PUSH1 0x60 ADD PUSH1 0x40 MSTORE DUP1 DUP5 DUP2 MSTORE PUSH1 0x20 ADD DUP4 DUP2 MSTORE PUSH1 0x20 ADD DUP5 DUP5 PUSH1 0x40 MLOAD PUSH1 0x20 ADD PUSH2 0x2D3 SWAP3 SWAP2 SWAP1 PUSH2 0x786 JUMP JUMPDEST PUSH1 0x40 MLOAD PUSH1 0x20 DUP2 DUP4 SUB SUB DUP2 MSTORE SWAP1 PUSH1 0x40 MSTORE DUP1 MLOAD SWAP1 PUSH1 0x20 ADD KECCAK256 DUP2 MSTORE POP SWAP1 DUP1 PUSH1 0x1 DUP2 SLOAD ADD DUP1 DUP3 SSTORE DUP1 SWAP2 POP POP PUSH1 0x1 SWAP1 SUB SWAP1 PUSH1 0x0 MSTORE PUSH1 0x20 PUSH1 0x0 KECCAK256 SWAP1 PUSH1 0x3 MUL ADD PUSH1 0x0 SWAP1 SWAP2 SWAP1 SWAP2 SWAP1 SWAP2 POP PUSH1 0x0 DUP3 ADD MLOAD DUP2 PUSH1 0x0 ADD SWAP1 DUP1 MLOAD SWAP1 PUSH1 0x20 ADD SWAP1 PUSH2 0x331 SWAP3 SWAP2 SWAP1 PUSH2 0x45C JUMP JUMPDEST POP PUSH1 0x20 DUP3 ADD MLOAD DUP2 PUSH1 0x1 ADD SWAP1 DUP1 MLOAD SWAP1 PUSH1 0x20 ADD SWAP1 PUSH2 0x34E SWAP3 SWAP2 SWAP1 PUSH2 0x45C JUMP JUMPDEST POP PUSH1 0x40 DUP3 ADD MLOAD DUP2 PUSH1 0x2 ADD SSTORE POP POP POP POP JUMP JUMPDEST PUSH1 0x0 ISZERO ISZERO PUSH2 0x36B PUSH2 0x3AF JUMP JUMPDEST ISZERO ISZERO EQ PUSH2 0x3AD JUMPI PUSH1 0x40 MLOAD PUSH32 0x8C379A000000000000000000000000000000000000000000000000000000000 DUP2 MSTORE PUSH1 0x4 ADD PUSH2 0x3A4 SWAP1 PUSH2 0x7CC JUMP JUMPDEST PUSH1 0x40 MLOAD DUP1 SWAP2 SUB SWAP1 REVERT JUMPDEST JUMP JUMPDEST PUSH1 0x0 DUP1 PUSH1 0x0 SWAP1 POP JUMPDEST PUSH1 0x0 DUP1 SLOAD SWAP1 POP DUP2 LT ISZERO PUSH2 0x453 JUMPI PUSH1 0x0 DUP2 DUP2 SLOAD DUP2 LT PUSH2 0x3D8 JUMPI PUSH2 0x3D7 PUSH2 0xA33 JUMP JUMPDEST JUMPDEST SWAP1 PUSH1 0x0 MSTORE PUSH1 0x20 PUSH1 0x0 KECCAK256 ADD PUSH1 0x0 SWAP1 SLOAD SWAP1 PUSH2 0x100 EXP SWAP1 DIV PUSH20 0xFFFFFFFFFFFFFFFFFFFFFFFFFFFFFFFFFFFFFFFF AND PUSH20 0xFFFFFFFFFFFFFFFFFFFFFFFFFFFFFFFFFFFFFFFF AND CALLER PUSH20 0xFFFFFFFFFFFFFFFFFFFFFFFFFFFFFFFFFFFFFFFF AND EQ ISZERO PUSH2 0x440 JUMPI PUSH1 0x1 SWAP2 POP POP PUSH2 0x459 JUMP JUMPDEST DUP1 DUP1 PUSH2 0x44B SWAP1 PUSH2 0x98C JUMP JUMPDEST SWAP2 POP POP PUSH2 0x3B7 JUMP JUMPDEST POP PUSH1 0x0 SWAP1 POP JUMPDEST SWAP1 JUMP JUMPDEST DUP3 DUP1 SLOAD PUSH2 0x468 SWAP1 PUSH2 0x929 JUMP JUMPDEST SWAP1 PUSH1 0x0 MSTORE PUSH1 0x20 PUSH1 0x0 KECCAK256 SWAP1 PUSH1 0x1F ADD PUSH1 0x20 SWAP1 DIV DUP2 ADD SWAP3 DUP3 PUSH2 0x48A JUMPI PUSH1 0x0 DUP6 SSTORE PUSH2 0x4D1 JUMP JUMPDEST DUP3 PUSH1 0x1F LT PUSH2 0x4A3 JUMPI DUP1 MLOAD PUSH1 0xFF NOT AND DUP4 DUP1 ADD OR DUP6 SSTORE PUSH2 0x4D1 JUMP JUMPDEST DUP3 DUP1 ADD PUSH1 0x1 ADD DUP6 SSTORE DUP3 ISZERO PUSH2 0x4D1 JUMPI SWAP2 DUP3 ADD JUMPDEST DUP3 DUP2 GT ISZERO PUSH2 0x4D0 JUMPI DUP3 MLOAD DUP3 SSTORE SWAP2 PUSH1 0x20 ADD SWAP2 SWAP1 PUSH1 0x1 ADD SWAP1 PUSH2 0x4B5 JUMP JUMPDEST JUMPDEST POP SWAP1 POP PUSH2 0x4DE SWAP2 SWAP1 PUSH2 0x4E2 JUMP JUMPDEST POP SWAP1 JUMP JUMPDEST JUMPDEST DUP1 DUP3 GT ISZERO PUSH2 0x4FB JUMPI PUSH1 0x0 DUP2 PUSH1 0x0 SWAP1 SSTORE POP PUSH1 0x1 ADD PUSH2 0x4E3 JUMP JUMPDEST POP SWAP1 JUMP JUMPDEST PUSH1 0x0 PUSH2 0x512 PUSH2 0x50D DUP5 PUSH2 0x831 JUMP JUMPDEST PUSH2 0x80C JUMP JUMPDEST SWAP1 POP DUP3 DUP2 MSTORE PUSH1 0x20 DUP2 ADD DUP5 DUP5 DUP5 ADD GT ISZERO PUSH2 0x52E JUMPI PUSH2 0x52D PUSH2 0xA96 JUMP JUMPDEST JUMPDEST PUSH2 0x539 DUP5 DUP3 DUP6 PUSH2 0x8E7 JUMP JUMPDEST POP SWAP4 SWAP3 POP POP POP JUMP JUMPDEST PUSH1 0x0 DUP3 PUSH1 0x1F DUP4 ADD SLT PUSH2 0x556 JUMPI PUSH2 0x555 PUSH2 0xA91 JUMP JUMPDEST JUMPDEST DUP2 CALLDATALOAD PUSH2 0x566 DUP5 DUP3 PUSH1 0x20 DUP7 ADD PUSH2 0x4FF JUMP JUMPDEST SWAP2 POP POP SWAP3 SWAP2 POP POP JUMP JUMPDEST PUSH1 0x0 DUP1 PUSH1 0x40 DUP4 DUP6 SUB SLT ISZERO PUSH2 0x586 JUMPI PUSH2 0x585 PUSH2 0xAA0 JUMP JUMPDEST JUMPDEST PUSH1 0x0 DUP4 ADD CALLDATALOAD PUSH8 0xFFFFFFFFFFFFFFFF DUP2 GT ISZERO PUSH2 0x5A4 JUMPI PUSH2 0x5A3 PUSH2 0xA9B JUMP JUMPDEST JUMPDEST PUSH2 0x5B0 DUP6 DUP3 DUP7 ADD PUSH2 0x541 JUMP JUMPDEST SWAP3 POP POP PUSH1 0x20 DUP4 ADD CALLDATALOAD PUSH8 0xFFFFFFFFFFFFFFFF DUP2 GT ISZERO PUSH2 0x5D1 JUMPI PUSH2 0x5D0 PUSH2 0xA9B JUMP JUMPDEST JUMPDEST PUSH2 0x5DD DUP6 DUP3 DUP7 ADD PUSH2 0x541 JUMP JUMPDEST SWAP2 POP POP SWAP3 POP SWAP3 SWAP1 POP JUMP JUMPDEST PUSH1 0x0 PUSH2 0x5F3 DUP4 DUP4 PUSH2 0x72F JUMP JUMPDEST SWAP1 POP SWAP3 SWAP2 POP POP JUMP JUMPDEST PUSH1 0x0 PUSH2 0x606 DUP3 PUSH2 0x872 JUMP JUMPDEST PUSH2 0x610 DUP2 DUP6 PUSH2 0x895 JUMP JUMPDEST SWAP4 POP DUP4 PUSH1 0x20 DUP3 MUL DUP6 ADD PUSH2 0x622 DUP6 PUSH2 0x862 JUMP JUMPDEST DUP1 PUSH1 0x0 JUMPDEST DUP6 DUP2 LT ISZERO PUSH2 0x65E JUMPI DUP5 DUP5 SUB DUP10 MSTORE DUP2 MLOAD PUSH2 0x63F DUP6 DUP3 PUSH2 0x5E7 JUMP JUMPDEST SWAP5 POP PUSH2 0x64A DUP4 PUSH2 0x888 JUMP JUMPDEST SWAP3 POP PUSH1 0x20 DUP11 ADD SWAP10 POP POP PUSH1 0x1 DUP2 ADD SWAP1 POP PUSH2 0x626 JUMP JUMPDEST POP DUP3 SWAP8 POP DUP8 SWAP6 POP POP POP POP POP POP SWAP3 SWAP2 POP POP JUMP JUMPDEST PUSH2 0x679 DUP2 PUSH2 0x8D3 JUMP JUMPDEST DUP3 MSTORE POP POP JUMP JUMPDEST PUSH1 0x0 PUSH2 0x68A DUP3 PUSH2 0x87D JUMP JUMPDEST PUSH2 0x694 DUP2 DUP6 PUSH2 0x8A6 JUMP JUMPDEST SWAP4 POP PUSH2 0x6A4 DUP2 DUP6 PUSH1 0x20 DUP7 ADD PUSH2 0x8F6 JUMP JUMPDEST PUSH2 0x6AD DUP2 PUSH2 0xAA5 JUMP JUMPDEST DUP5 ADD SWAP2 POP POP SWAP3 SWAP2 POP POP JUMP JUMPDEST PUSH1 0x0 PUSH2 0x6C3 DUP3 PUSH2 0x87D JUMP JUMPDEST PUSH2 0x6CD DUP2 DUP6 PUSH2 0x8C8 JUMP JUMPDEST SWAP4 POP PUSH2 0x6DD DUP2 DUP6 PUSH1 0x20 DUP7 ADD PUSH2 0x8F6 JUMP JUMPDEST DUP1 DUP5 ADD SWAP2 POP POP SWAP3 SWAP2 POP POP JUMP JUMPDEST PUSH1 0x0 PUSH2 0x6F6 PUSH1 0x19 DUP4 PUSH2 0x8B7 JUMP JUMPDEST SWAP2 POP PUSH2 0x701 DUP3 PUSH2 0xAB6 JUMP JUMPDEST PUSH1 0x20 DUP3 ADD SWAP1 POP SWAP2 SWAP1 POP JUMP JUMPDEST PUSH1 0x0 PUSH2 0x719 PUSH1 0x13 DUP4 PUSH2 0x8B7 JUMP JUMPDEST SWAP2 POP PUSH2 0x724 DUP3 PUSH2 0xADF JUMP JUMPDEST PUSH1 0x20 DUP3 ADD SWAP1 POP SWAP2 SWAP1 POP JUMP JUMPDEST PUSH1 0x0 PUSH1 0x60 DUP4 ADD PUSH1 0x0 DUP4 ADD MLOAD DUP5 DUP3 SUB PUSH1 0x0 DUP7 ADD MSTORE PUSH2 0x74C DUP3 DUP3 PUSH2 0x67F JUMP JUMPDEST SWAP2 POP POP PUSH1 0x20 DUP4 ADD MLOAD DUP5 DUP3 SUB PUSH1 0x20 DUP7 ADD MSTORE PUSH2 0x766 DUP3 DUP3 PUSH2 0x67F JUMP JUMPDEST SWAP2 POP POP PUSH1 0x40 DUP4 ADD MLOAD PUSH2 0x77B PUSH1 0x40 DUP7 ADD DUP3 PUSH2 0x670 JUMP JUMPDEST POP DUP1 SWAP2 POP POP SWAP3 SWAP2 POP POP JUMP JUMPDEST PUSH1 0x0 PUSH2 0x792 DUP3 DUP6 PUSH2 0x6B8 JUMP JUMPDEST SWAP2 POP PUSH2 0x79E DUP3 DUP5 PUSH2 0x6B8 JUMP JUMPDEST SWAP2 POP DUP2 SWAP1 POP SWAP4 SWAP3 POP POP POP JUMP JUMPDEST PUSH1 0x0 PUSH1 0x20 DUP3 ADD SWAP1 POP DUP2 DUP2 SUB PUSH1 0x0 DUP4 ADD MSTORE PUSH2 0x7C4 DUP2 DUP5 PUSH2 0x5FB JUMP JUMPDEST SWAP1 POP SWAP3 SWAP2 POP POP JUMP JUMPDEST PUSH1 0x0 PUSH1 0x20 DUP3 ADD SWAP1 POP DUP2 DUP2 SUB PUSH1 0x0 DUP4 ADD MSTORE PUSH2 0x7E5 DUP2 PUSH2 0x6E9 JUMP JUMPDEST SWAP1 POP SWAP2 SWAP1 POP JUMP JUMPDEST PUSH1 0x0 PUSH1 0x20 DUP3 ADD SWAP1 POP DUP2 DUP2 SUB PUSH1 0x0 DUP4 ADD MSTORE PUSH2 0x805 DUP2 PUSH2 0x70C JUMP JUMPDEST SWAP1 POP SWAP2 SWAP1 POP JUMP JUMPDEST PUSH1 0x0 PUSH2 0x816 PUSH2 0x827 JUMP JUMPDEST SWAP1 POP PUSH2 0x822 DUP3 DUP3 PUSH2 0x95B JUMP JUMPDEST SWAP2 SWAP1 POP JUMP JUMPDEST PUSH1 0x0 PUSH1 0x40 MLOAD SWAP1 POP SWAP1 JUMP JUMPDEST PUSH1 0x0 PUSH8 0xFFFFFFFFFFFFFFFF DUP3 GT ISZERO PUSH2 0x84C JUMPI PUSH2 0x84B PUSH2 0xA62 JUMP JUMPDEST JUMPDEST PUSH2 0x855 DUP3 PUSH2 0xAA5 JUMP JUMPDEST SWAP1 POP PUSH1 0x20 DUP2 ADD SWAP1 POP SWAP2 SWAP1 POP JUMP JUMPDEST PUSH1 0x0 DUP2 SWAP1 POP PUSH1 0x20 DUP3 ADD SWAP1 POP SWAP2 SWAP1 POP JUMP JUMPDEST PUSH1 0x0 DUP2 MLOAD SWAP1 POP SWAP2 SWAP1 POP JUMP JUMPDEST PUSH1 0x0 DUP2 MLOAD SWAP1 POP SWAP2 SWAP1 POP JUMP JUMPDEST PUSH1 0x0 PUSH1 0x20 DUP3 ADD SWAP1 POP SWAP2 SWAP1 POP JUMP JUMPDEST PUSH1 0x0 DUP3 DUP3 MSTORE PUSH1 0x20 DUP3 ADD SWAP1 POP SWAP3 SWAP2 POP POP JUMP JUMPDEST PUSH1 0x0 DUP3 DUP3 MSTORE PUSH1 0x20 DUP3 ADD SWAP1 POP SWAP3 SWAP2 POP POP JUMP JUMPDEST PUSH1 0x0 DUP3 DUP3 MSTORE PUSH1 0x20 DUP3 ADD SWAP1 POP SWAP3 SWAP2 POP POP JUMP JUMPDEST PUSH1 0x0 DUP2 SWAP1 POP SWAP3 SWAP2 POP POP JUMP JUMPDEST PUSH1 0x0 DUP2 SWAP1 POP SWAP2 SWAP1 POP JUMP JUMPDEST PUSH1 0x0 DUP2 SWAP1 POP SWAP2 SWAP1 POP JUMP JUMPDEST DUP3 DUP2 DUP4 CALLDATACOPY PUSH1 0x0 DUP4 DUP4 ADD MSTORE POP POP POP JUMP JUMPDEST PUSH1 0x0 JUMPDEST DUP4 DUP2 LT ISZERO PUSH2 0x914 JUMPI DUP1 DUP3 ADD MLOAD DUP2 DUP5 ADD MSTORE PUSH1 0x20 DUP2 ADD SWAP1 POP PUSH2 0x8F9 JUMP JUMPDEST DUP4 DUP2 GT ISZERO PUSH2 0x923 JUMPI PUSH1 0x0 DUP5 DUP5 ADD MSTORE JUMPDEST POP POP POP POP JUMP JUMPDEST PUSH1 0x0 PUSH1 0x2 DUP3 DIV SWAP1 POP PUSH1 0x1 DUP3 AND DUP1 PUSH2 0x941 JUMPI PUSH1 0x7F DUP3 AND SWAP2 POP JUMPDEST PUSH1 0x20 DUP3 LT DUP2 EQ ISZERO PUSH2 0x955 JUMPI PUSH2 0x954 PUSH2 0xA04 JUMP JUMPDEST JUMPDEST POP SWAP2 SWAP1 POP JUMP JUMPDEST PUSH2 0x964 DUP3 PUSH2 0xAA5 JUMP JUMPDEST DUP2 ADD DUP2 DUP2 LT PUSH8 0xFFFFFFFFFFFFFFFF DUP3 GT OR ISZERO PUSH2 0x983 JUMPI PUSH2 0x982 PUSH2 0xA62 JUMP JUMPDEST JUMPDEST DUP1 PUSH1 0x40 MSTORE POP POP POP JUMP JUMPDEST PUSH1 0x0 PUSH2 0x997 DUP3 PUSH2 0x8DD JUMP JUMPDEST SWAP2 POP PUSH32 0xFFFFFFFFFFFFFFFFFFFFFFFFFFFFFFFFFFFFFFFFFFFFFFFFFFFFFFFFFFFFFFFF DUP3 EQ ISZERO PUSH2 0x9CA JUMPI PUSH2 0x9C9 PUSH2 0x9D5 JUMP JUMPDEST JUMPDEST PUSH1 0x1 DUP3 ADD SWAP1 POP SWAP2 SWAP1 POP JUMP JUMPDEST PUSH32 0x4E487B7100000000000000000000000000000000000000000000000000000000 PUSH1 0x0 MSTORE PUSH1 0x11 PUSH1 0x4 MSTORE PUSH1 0x24 PUSH1 0x0 REVERT JUMPDEST PUSH32 0x4E487B7100000000000000000000000000000000000000000000000000000000 PUSH1 0x0 MSTORE PUSH1 0x22 PUSH1 0x4 MSTORE PUSH1 0x24 PUSH1 0x0 REVERT JUMPDEST PUSH32 0x4E487B7100000000000000000000000000000000000000000000000000000000 PUSH1 0x0 MSTORE PUSH1 0x32 PUSH1 0x4 MSTORE PUSH1 0x24 PUSH1 0x0 REVERT JUMPDEST PUSH32 0x4E487B7100000000000000000000000000000000000000000000000000000000 PUSH1 0x0 MSTORE PUSH1 0x41 PUSH1 0x4 MSTORE PUSH1 0x24 PUSH1 0x0 REVERT JUMPDEST PUSH1 0x0 DUP1 REVERT JUMPDEST PUSH1 0x0 DUP1 REVERT JUMPDEST PUSH1 0x0 DUP1 REVERT JUMPDEST PUSH1 0x0 DUP1 REVERT JUMPDEST PUSH1 0x0 PUSH1 0x1F NOT PUSH1 0x1F DUP4 ADD AND SWAP1 POP SWAP2 SWAP1 POP JUMP JUMPDEST PUSH32 0x566F7465722063616E206769766520766F7465206F6E63652E00000000000000 PUSH1 0x0 DUP3 ADD MSTORE POP JUMP JUMPDEST PUSH32 0x556E617574686F72697A656420506572736F6E00000000000000000000000000 PUSH1 0x0 DUP3 ADD MSTORE POP JUMP INVALID LOG2 PUSH5 0x6970667358 0x22 SLT KECCAK256 0xBE BYTE 0x4D 0xA9 DUP9 SLOAD 0xEA DIV SWAP3 SWAP11 DUP1 0xD7 SSTORE MSTORE8 PUSH16 0x5809E783D36D0B6247857D9E9DC473A6 MOD PUSH5 0x736F6C6343 STOP ADDMOD SMOD STOP CALLER "
				},
				"gasEstimates": {
					"creation": {
						"codeDepositCost": "575600",
						"executionCost": "24872",
						"totalCost": "600472"
					},
					"external": {
						"getAllCandidates()": "infinite",
						"registerCandidates(string,string)": "infinite",
						"voteCandidate()": "infinite"
					},
					"internal": {
						"checkVoter()": "infinite"
					}
				},
				"methodIdentifiers": {
					"getAllCandidates()": "2e6997fe",
					"registerCandidates(string,string)": "c1700e00",
					"voteCandidate()": "d73323a6"
				}
			},
			"storageLayout": {
				"storage": [
					{
						"astId": 11,
						"contract": "contracts/votingSystem.sol:VotingContract",
						"label": "voterAddress",
						"offset": 0,
						"slot": "0",
						"type": "t_array(t_address)dyn_storage"
					},
					{
						"astId": 15,
						"contract": "contracts/votingSystem.sol:VotingContract",
						"label": "electionOfficer",
						"offset": 0,
						"slot": "1",
						"type": "t_address"
					},
					{
						"astId": 19,
						"contract": "contracts/votingSystem.sol:VotingContract",
						"label": "candidateList",
						"offset": 0,
						"slot": "2",
						"type": "t_array(t_struct(candidateInfo)8_storage)dyn_storage"
					}
				],
				"types": {
					"t_address": {
						"encoding": "inplace",
						"label": "address",
						"numberOfBytes": "20"
					},
					"t_array(t_address)dyn_storage": {
						"base": "t_address",
						"encoding": "dynamic_array",
						"label": "address[]",
						"numberOfBytes": "32"
					},
					"t_array(t_struct(candidateInfo)8_storage)dyn_storage": {
						"base": "t_struct(candidateInfo)8_storage",
						"encoding": "dynamic_array",
						"label": "struct VotingContract.candidateInfo[]",
						"numberOfBytes": "32"
					},
					"t_bytes32": {
						"encoding": "inplace",
						"label": "bytes32",
						"numberOfBytes": "32"
					},
					"t_string_storage": {
						"encoding": "bytes",
						"label": "string",
						"numberOfBytes": "32"
					},
					"t_struct(candidateInfo)8_storage": {
						"encoding": "inplace",
						"label": "struct VotingContract.candidateInfo",
						"members": [
							{
								"astId": 3,
								"contract": "contracts/votingSystem.sol:VotingContract",
								"label": "candidateName",
								"offset": 0,
								"slot": "0",
								"type": "t_string_storage"
							},
							{
								"astId": 5,
								"contract": "contracts/votingSystem.sol:VotingContract",
								"label": "symbols",
								"offset": 0,
								"slot": "1",
								"type": "t_string_storage"
							},
							{
								"astId": 7,
								"contract": "contracts/votingSystem.sol:VotingContract",
								"label": "identifire",
								"offset": 0,
								"slot": "2",
								"type": "t_bytes32"
							}
						],
						"numberOfBytes": "96"
					}
				}
			},
			"userdoc": {
				"kind": "user",
				"methods": {},
				"version": 1
			}
		}
	}
}