{
	"contracts/voting.sol": {
		"VotingContract": {
			"abi": [
				{
					"inputs": [],
					"stateMutability": "nonpayable",
					"type": "constructor"
				},
				{
					"inputs": [
						{
							"internalType": "string",
							"name": "symbol",
							"type": "string"
						}
					],
					"name": "deleteCandidate",
					"outputs": [],
					"stateMutability": "nonpayable",
					"type": "function"
				},
				{
					"inputs": [
						{
							"internalType": "string",
							"name": "symbol",
							"type": "string"
						}
					],
					"name": "giveVotes",
					"outputs": [],
					"stateMutability": "nonpayable",
					"type": "function"
				},
				{
					"inputs": [
						{
							"internalType": "string",
							"name": "name",
							"type": "string"
						},
						{
							"internalType": "string",
							"name": "symbol",
							"type": "string"
						}
					],
					"name": "registrationForCandidate",
					"outputs": [],
					"stateMutability": "nonpayable",
					"type": "function"
				},
				{
					"inputs": [],
					"name": "startVote",
					"outputs": [],
					"stateMutability": "nonpayable",
					"type": "function"
				},
				{
					"inputs": [
						{
							"internalType": "string",
							"name": "symbol",
							"type": "string"
						}
					],
					"name": "voteCountStatus",
					"outputs": [
						{
							"components": [
								{
									"internalType": "string",
									"name": "name",
									"type": "string"
								},
								{
									"internalType": "uint256",
									"name": "voteCount",
									"type": "uint256"
								}
							],
							"internalType": "struct VotingContract.candidate",
							"name": "",
							"type": "tuple"
						}
					],
					"stateMutability": "view",
					"type": "function"
				}
			],
			"devdoc": {
				"kind": "dev",
				"methods": {},
				"version": 1
			},
			"evm": {
				"assembly": "    /* \"contracts/voting.sol\":59:2103  contract VotingContract{\r... */\n  mstore(0x40, 0x80)\n    /* \"contracts/voting.sol\":225:230  false */\n  0x00\n    /* \"contracts/voting.sol\":206:230  bool voteStarted = false */\n  0x01\n  exp(0x0100, 0x14)\n  dup2\n  sload\n  dup2\n  0xff\n  mul\n  not\n  and\n  swap1\n  dup4\n  iszero\n  iszero\n  mul\n  or\n  swap1\n  sstore\n  pop\n    /* \"contracts/voting.sol\":469:532  constructor(){\r... */\n  callvalue\n  dup1\n  iszero\n  tag_1\n  jumpi\n  0x00\n  dup1\n  revert\ntag_1:\n  pop\n    /* \"contracts/voting.sol\":514:524  msg.sender */\n  caller\n    /* \"contracts/voting.sol\":493:511  electionCommission */\n  0x01\n  0x00\n    /* \"contracts/voting.sol\":493:524  electionCommission = msg.sender */\n  0x0100\n  exp\n  dup2\n  sload\n  dup2\n  0xffffffffffffffffffffffffffffffffffffffff\n  mul\n  not\n  and\n  swap1\n  dup4\n  0xffffffffffffffffffffffffffffffffffffffff\n  and\n  mul\n  or\n  swap1\n  sstore\n  pop\n    /* \"contracts/voting.sol\":59:2103  contract VotingContract{\r... */\n  dataSize(sub_0)\n  dup1\n  dataOffset(sub_0)\n  0x00\n  codecopy\n  0x00\n  return\nstop\n\nsub_0: assembly {\n        /* \"contracts/voting.sol\":59:2103  contract VotingContract{\r... */\n      mstore(0x40, 0x80)\n      callvalue\n      dup1\n      iszero\n      tag_1\n      jumpi\n      0x00\n      dup1\n      revert\n    tag_1:\n      pop\n      jumpi(tag_2, lt(calldatasize, 0x04))\n      shr(0xe0, calldataload(0x00))\n      dup1\n      0x137967a6\n      eq\n      tag_3\n      jumpi\n      dup1\n      0x196b2e24\n      eq\n      tag_4\n      jumpi\n      dup1\n      0x1f6d52c5\n      eq\n      tag_5\n      jumpi\n      dup1\n      0x4c0a6af0\n      eq\n      tag_6\n      jumpi\n      dup1\n      0x88feb516\n      eq\n      tag_7\n      jumpi\n    tag_2:\n      0x00\n      dup1\n      revert\n        /* \"contracts/voting.sol\":853:1232  function registrationForCandidate  (string memory name, string memory symbol)public onlyElectionComission votingStarted\r... */\n    tag_3:\n      tag_8\n      0x04\n      dup1\n      calldatasize\n      sub\n      dup2\n      add\n      swap1\n      tag_9\n      swap2\n      swap1\n      tag_10\n      jump\t// in\n    tag_9:\n      tag_11\n      jump\t// in\n    tag_8:\n      stop\n        /* \"contracts/voting.sol\":1708:1838  function voteCountStatus(string memory symbol) public view returns(candidate memory){\r... */\n    tag_4:\n      tag_12\n      0x04\n      dup1\n      calldatasize\n      sub\n      dup2\n      add\n      swap1\n      tag_13\n      swap2\n      swap1\n      tag_14\n      jump\t// in\n    tag_13:\n      tag_15\n      jump\t// in\n    tag_12:\n      mload(0x40)\n      tag_16\n      swap2\n      swap1\n      tag_17\n      jump\t// in\n    tag_16:\n      mload(0x40)\n      dup1\n      swap2\n      sub\n      swap1\n      return\n        /* \"contracts/voting.sol\":1480:1668  function giveVotes(string memory symbol) votingStarted public {\r... */\n    tag_5:\n      tag_18\n      0x04\n      dup1\n      calldatasize\n      sub\n      dup2\n      add\n      swap1\n      tag_19\n      swap2\n      swap1\n      tag_14\n      jump\t// in\n    tag_19:\n      tag_20\n      jump\t// in\n    tag_18:\n      stop\n        /* \"contracts/voting.sol\":1262:1444  function startVote() public onlyElectionComission votingStarted{\r... */\n    tag_6:\n      tag_21\n      tag_22\n      jump\t// in\n    tag_21:\n      stop\n        /* \"contracts/voting.sol\":1872:2087  function deleteCandidate(string memory symbol)public onlyElectionComission votingStarted{\r... */\n    tag_7:\n      tag_23\n      0x04\n      dup1\n      calldatasize\n      sub\n      dup2\n      add\n      swap1\n      tag_24\n      swap2\n      swap1\n      tag_14\n      jump\t// in\n    tag_24:\n      tag_25\n      jump\t// in\n    tag_23:\n      stop\n        /* \"contracts/voting.sol\":853:1232  function registrationForCandidate  (string memory name, string memory symbol)public onlyElectionComission votingStarted\r... */\n    tag_11:\n        /* \"contracts/voting.sol\":628:646  electionCommission */\n      0x01\n      0x00\n      swap1\n      sload\n      swap1\n      0x0100\n      exp\n      swap1\n      div\n      0xffffffffffffffffffffffffffffffffffffffff\n      and\n        /* \"contracts/voting.sol\":616:646  msg.sender==electionCommission */\n      0xffffffffffffffffffffffffffffffffffffffff\n      and\n        /* \"contracts/voting.sol\":616:626  msg.sender */\n      caller\n        /* \"contracts/voting.sol\":616:646  msg.sender==electionCommission */\n      0xffffffffffffffffffffffffffffffffffffffff\n      and\n      eq\n        /* \"contracts/voting.sol\":608:670  require(msg.sender==electionCommission,\"Unauthorized Access.\") */\n      tag_27\n      jumpi\n      mload(0x40)\n      0x08c379a000000000000000000000000000000000000000000000000000000000\n      dup2\n      mstore\n      0x04\n      add\n      tag_28\n      swap1\n      tag_29\n      jump\t// in\n    tag_28:\n      mload(0x40)\n      dup1\n      swap2\n      sub\n      swap1\n      revert\n    tag_27:\n        /* \"contracts/voting.sol\":774:778  true */\n      0x01\n        /* \"contracts/voting.sol\":761:778  voteStarted!=true */\n      iszero\n      iszero\n        /* \"contracts/voting.sol\":761:772  voteStarted */\n      0x01\n      0x14\n      swap1\n      sload\n      swap1\n      0x0100\n      exp\n      swap1\n      div\n      0xff\n      and\n        /* \"contracts/voting.sol\":761:778  voteStarted!=true */\n      iszero\n      iszero\n      eq\n      iszero\n        /* \"contracts/voting.sol\":753:798  require(voteStarted!=true,\"Already Started.\") */\n      tag_31\n      jumpi\n      mload(0x40)\n      0x08c379a000000000000000000000000000000000000000000000000000000000\n      dup2\n      mstore\n      0x04\n      add\n      tag_32\n      swap1\n      tag_33\n      jump\t// in\n    tag_32:\n      mload(0x40)\n      dup1\n      swap2\n      sub\n      swap1\n      revert\n    tag_31:\n        /* \"contracts/voting.sol\":1018:1019  0 */\n      0x00\n        /* \"contracts/voting.sol\":1004:1008  name */\n      dup3\n        /* \"contracts/voting.sol\":998:1016  bytes(name).length */\n      mload\n        /* \"contracts/voting.sol\":998:1019  bytes(name).length!=0 */\n      eq\n      iszero\n        /* \"contracts/voting.sol\":990:1042  require(bytes(name).length!=0,\"Name Can't be empty\") */\n      tag_35\n      jumpi\n      mload(0x40)\n      0x08c379a000000000000000000000000000000000000000000000000000000000\n      dup2\n      mstore\n      0x04\n      add\n      tag_36\n      swap1\n      tag_37\n      jump\t// in\n    tag_36:\n      mload(0x40)\n      dup1\n      swap2\n      sub\n      swap1\n      revert\n    tag_35:\n        /* \"contracts/voting.sol\":1083:1084  0 */\n      0x00\n        /* \"contracts/voting.sol\":1067:1073  symbol */\n      dup2\n        /* \"contracts/voting.sol\":1061:1081  bytes(symbol).length */\n      mload\n        /* \"contracts/voting.sol\":1061:1084  bytes(symbol).length!=0 */\n      eq\n      iszero\n        /* \"contracts/voting.sol\":1053:1109  require(bytes(symbol).length!=0,\"Symbol can't be empty\") */\n      tag_38\n      jumpi\n      mload(0x40)\n      0x08c379a000000000000000000000000000000000000000000000000000000000\n      dup2\n      mstore\n      0x04\n      add\n      tag_39\n      swap1\n      tag_40\n      jump\t// in\n    tag_39:\n      mload(0x40)\n      dup1\n      swap2\n      sub\n      swap1\n      revert\n    tag_38:\n        /* \"contracts/voting.sol\":1120:1130  symbolList */\n      0x02\n        /* \"contracts/voting.sol\":1136:1142  symbol */\n      dup2\n        /* \"contracts/voting.sol\":1120:1143  symbolList.push(symbol) */\n      swap1\n      dup1\n      0x01\n      dup2\n      sload\n      add\n      dup1\n      dup3\n      sstore\n      dup1\n      swap2\n      pop\n      pop\n      0x01\n      swap1\n      sub\n      swap1\n      0x00\n      mstore\n      keccak256(0x00, 0x20)\n      add\n      0x00\n      swap1\n      swap2\n      swap1\n      swap2\n      swap1\n      swap2\n      pop\n      swap1\n      dup1\n      mload\n      swap1\n      0x20\n      add\n      swap1\n      tag_42\n      swap3\n      swap2\n      swap1\n      tag_43\n      jump\t// in\n    tag_42:\n      pop\n        /* \"contracts/voting.sol\":1178:1182  name */\n      dup2\n        /* \"contracts/voting.sol\":1154:1164  Candidates */\n      0x03\n        /* \"contracts/voting.sol\":1165:1171  symbol */\n      dup3\n        /* \"contracts/voting.sol\":1154:1172  Candidates[symbol] */\n      mload(0x40)\n      tag_44\n      swap2\n      swap1\n      tag_45\n      jump\t// in\n    tag_44:\n      swap1\n      dup2\n      mstore\n      0x20\n      add\n      mload(0x40)\n      dup1\n      swap2\n      sub\n      swap1\n      keccak256\n        /* \"contracts/voting.sol\":1154:1177  Candidates[symbol].name */\n      0x00\n      add\n        /* \"contracts/voting.sol\":1154:1182  Candidates[symbol].name=name */\n      swap1\n      dup1\n      mload\n      swap1\n      0x20\n      add\n      swap1\n      tag_46\n      swap3\n      swap2\n      swap1\n      tag_43\n      jump\t// in\n    tag_46:\n      pop\n        /* \"contracts/voting.sol\":1222:1223  0 */\n      0x00\n        /* \"contracts/voting.sol\":1193:1203  Candidates */\n      0x03\n        /* \"contracts/voting.sol\":1204:1210  symbol */\n      dup3\n        /* \"contracts/voting.sol\":1193:1211  Candidates[symbol] */\n      mload(0x40)\n      tag_47\n      swap2\n      swap1\n      tag_45\n      jump\t// in\n    tag_47:\n      swap1\n      dup2\n      mstore\n      0x20\n      add\n      mload(0x40)\n      dup1\n      swap2\n      sub\n      swap1\n      keccak256\n        /* \"contracts/voting.sol\":1193:1221  Candidates[symbol].voteCount */\n      0x01\n      add\n        /* \"contracts/voting.sol\":1193:1223  Candidates[symbol].voteCount=0 */\n      dup2\n      swap1\n      sstore\n      pop\n        /* \"contracts/voting.sol\":853:1232  function registrationForCandidate  (string memory name, string memory symbol)public onlyElectionComission votingStarted\r... */\n      pop\n      pop\n      jump\t// out\n        /* \"contracts/voting.sol\":1708:1838  function voteCountStatus(string memory symbol) public view returns(candidate memory){\r... */\n    tag_15:\n        /* \"contracts/voting.sol\":1775:1791  candidate memory */\n      tag_48\n      tag_49\n      jump\t// in\n    tag_48:\n        /* \"contracts/voting.sol\":1811:1821  Candidates */\n      0x03\n        /* \"contracts/voting.sol\":1822:1828  symbol */\n      dup3\n        /* \"contracts/voting.sol\":1811:1829  Candidates[symbol] */\n      mload(0x40)\n      tag_51\n      swap2\n      swap1\n      tag_45\n      jump\t// in\n    tag_51:\n      swap1\n      dup2\n      mstore\n      0x20\n      add\n      mload(0x40)\n      dup1\n      swap2\n      sub\n      swap1\n      keccak256\n        /* \"contracts/voting.sol\":1804:1829  return Candidates[symbol] */\n      mload(0x40)\n      dup1\n      0x40\n      add\n      0x40\n      mstore\n      swap1\n      dup2\n      0x00\n      dup3\n      add\n      dup1\n      sload\n      tag_52\n      swap1\n      tag_53\n      jump\t// in\n    tag_52:\n      dup1\n      0x1f\n      add\n      0x20\n      dup1\n      swap2\n      div\n      mul\n      0x20\n      add\n      mload(0x40)\n      swap1\n      dup2\n      add\n      0x40\n      mstore\n      dup1\n      swap3\n      swap2\n      swap1\n      dup2\n      dup2\n      mstore\n      0x20\n      add\n      dup3\n      dup1\n      sload\n      tag_54\n      swap1\n      tag_53\n      jump\t// in\n    tag_54:\n      dup1\n      iszero\n      tag_55\n      jumpi\n      dup1\n      0x1f\n      lt\n      tag_56\n      jumpi\n      0x0100\n      dup1\n      dup4\n      sload\n      div\n      mul\n      dup4\n      mstore\n      swap2\n      0x20\n      add\n      swap2\n      jump(tag_55)\n    tag_56:\n      dup3\n      add\n      swap2\n      swap1\n      0x00\n      mstore\n      keccak256(0x00, 0x20)\n      swap1\n    tag_57:\n      dup2\n      sload\n      dup2\n      mstore\n      swap1\n      0x01\n      add\n      swap1\n      0x20\n      add\n      dup1\n      dup4\n      gt\n      tag_57\n      jumpi\n      dup3\n      swap1\n      sub\n      0x1f\n      and\n      dup3\n      add\n      swap2\n    tag_55:\n      pop\n      pop\n      pop\n      pop\n      pop\n      dup2\n      mstore\n      0x20\n      add\n      0x01\n      dup3\n      add\n      sload\n      dup2\n      mstore\n      pop\n      pop\n      swap1\n      pop\n        /* \"contracts/voting.sol\":1708:1838  function voteCountStatus(string memory symbol) public view returns(candidate memory){\r... */\n      swap2\n      swap1\n      pop\n      jump\t// out\n        /* \"contracts/voting.sol\":1480:1668  function giveVotes(string memory symbol) votingStarted public {\r... */\n    tag_20:\n        /* \"contracts/voting.sol\":774:778  true */\n      0x01\n        /* \"contracts/voting.sol\":761:778  voteStarted!=true */\n      iszero\n      iszero\n        /* \"contracts/voting.sol\":761:772  voteStarted */\n      0x01\n      0x14\n      swap1\n      sload\n      swap1\n      0x0100\n      exp\n      swap1\n      div\n      0xff\n      and\n        /* \"contracts/voting.sol\":761:778  voteStarted!=true */\n      iszero\n      iszero\n      eq\n      iszero\n        /* \"contracts/voting.sol\":753:798  require(voteStarted!=true,\"Already Started.\") */\n      tag_59\n      jumpi\n      mload(0x40)\n      0x08c379a000000000000000000000000000000000000000000000000000000000\n      dup2\n      mstore\n      0x04\n      add\n      tag_60\n      swap1\n      tag_33\n      jump\t// in\n    tag_60:\n      mload(0x40)\n      dup1\n      swap2\n      sub\n      swap1\n      revert\n    tag_59:\n        /* \"contracts/voting.sol\":1599:1600  0 */\n      0x00\n        /* \"contracts/voting.sol\":1566:1576  Candidates */\n      0x03\n        /* \"contracts/voting.sol\":1577:1583  symbol */\n      dup3\n        /* \"contracts/voting.sol\":1566:1584  Candidates[symbol] */\n      mload(0x40)\n      tag_62\n      swap2\n      swap1\n      tag_45\n      jump\t// in\n    tag_62:\n      swap1\n      dup2\n      mstore\n      0x20\n      add\n      mload(0x40)\n      dup1\n      swap2\n      sub\n      swap1\n      keccak256\n        /* \"contracts/voting.sol\":1566:1589  Candidates[symbol].name */\n      0x00\n      add\n        /* \"contracts/voting.sol\":1560:1597  bytes(Candidates[symbol].name).length */\n      dup1\n      sload\n      tag_63\n      swap1\n      tag_53\n      jump\t// in\n    tag_63:\n      swap1\n      pop\n        /* \"contracts/voting.sol\":1560:1600  bytes(Candidates[symbol].name).length!=0 */\n      eq\n      iszero\n        /* \"contracts/voting.sol\":1552:1617  require(bytes(Candidates[symbol].name).length!=0,\"Invalid Input\") */\n      tag_64\n      jumpi\n      mload(0x40)\n      0x08c379a000000000000000000000000000000000000000000000000000000000\n      dup2\n      mstore\n      0x04\n      add\n      tag_65\n      swap1\n      tag_66\n      jump\t// in\n    tag_65:\n      mload(0x40)\n      dup1\n      swap2\n      sub\n      swap1\n      revert\n    tag_64:\n        /* \"contracts/voting.sol\":1658:1659  1 */\n      0x01\n        /* \"contracts/voting.sol\":1628:1638  Candidates */\n      0x03\n        /* \"contracts/voting.sol\":1639:1645  symbol */\n      dup3\n        /* \"contracts/voting.sol\":1628:1646  Candidates[symbol] */\n      mload(0x40)\n      tag_67\n      swap2\n      swap1\n      tag_45\n      jump\t// in\n    tag_67:\n      swap1\n      dup2\n      mstore\n      0x20\n      add\n      mload(0x40)\n      dup1\n      swap2\n      sub\n      swap1\n      keccak256\n        /* \"contracts/voting.sol\":1628:1656  Candidates[symbol].voteCount */\n      0x01\n      add\n      0x00\n        /* \"contracts/voting.sol\":1628:1659  Candidates[symbol].voteCount+=1 */\n      dup3\n      dup3\n      sload\n      tag_68\n      swap2\n      swap1\n      tag_69\n      jump\t// in\n    tag_68:\n      swap3\n      pop\n      pop\n      dup2\n      swap1\n      sstore\n      pop\n        /* \"contracts/voting.sol\":1480:1668  function giveVotes(string memory symbol) votingStarted public {\r... */\n      pop\n      jump\t// out\n        /* \"contracts/voting.sol\":1262:1444  function startVote() public onlyElectionComission votingStarted{\r... */\n    tag_22:\n        /* \"contracts/voting.sol\":628:646  electionCommission */\n      0x01\n      0x00\n      swap1\n      sload\n      swap1\n      0x0100\n      exp\n      swap1\n      div\n      0xffffffffffffffffffffffffffffffffffffffff\n      and\n        /* \"contracts/voting.sol\":616:646  msg.sender==electionCommission */\n      0xffffffffffffffffffffffffffffffffffffffff\n      and\n        /* \"contracts/voting.sol\":616:626  msg.sender */\n      caller\n        /* \"contracts/voting.sol\":616:646  msg.sender==electionCommission */\n      0xffffffffffffffffffffffffffffffffffffffff\n      and\n      eq\n        /* \"contracts/voting.sol\":608:670  require(msg.sender==electionCommission,\"Unauthorized Access.\") */\n      tag_71\n      jumpi\n      mload(0x40)\n      0x08c379a000000000000000000000000000000000000000000000000000000000\n      dup2\n      mstore\n      0x04\n      add\n      tag_72\n      swap1\n      tag_29\n      jump\t// in\n    tag_72:\n      mload(0x40)\n      dup1\n      swap2\n      sub\n      swap1\n      revert\n    tag_71:\n        /* \"contracts/voting.sol\":774:778  true */\n      0x01\n        /* \"contracts/voting.sol\":761:778  voteStarted!=true */\n      iszero\n      iszero\n        /* \"contracts/voting.sol\":761:772  voteStarted */\n      0x01\n      0x14\n      swap1\n      sload\n      swap1\n      0x0100\n      exp\n      swap1\n      div\n      0xff\n      and\n        /* \"contracts/voting.sol\":761:778  voteStarted!=true */\n      iszero\n      iszero\n      eq\n      iszero\n        /* \"contracts/voting.sol\":753:798  require(voteStarted!=true,\"Already Started.\") */\n      tag_74\n      jumpi\n      mload(0x40)\n      0x08c379a000000000000000000000000000000000000000000000000000000000\n      dup2\n      mstore\n      0x04\n      add\n      tag_75\n      swap1\n      tag_33\n      jump\t// in\n    tag_75:\n      mload(0x40)\n      dup1\n      swap2\n      sub\n      swap1\n      revert\n    tag_74:\n        /* \"contracts/voting.sol\":1362:1363  0 */\n      0x00\n        /* \"contracts/voting.sol\":1344:1354  symbolList */\n      0x02\n        /* \"contracts/voting.sol\":1344:1361  symbolList.length */\n      dup1\n      sload\n      swap1\n      pop\n        /* \"contracts/voting.sol\":1344:1363  symbolList.length>0 */\n      gt\n        /* \"contracts/voting.sol\":1336:1406  require(symbolList.length>0,\"Atleast 2 candidate must be registered.\") */\n      tag_77\n      jumpi\n      mload(0x40)\n      0x08c379a000000000000000000000000000000000000000000000000000000000\n      dup2\n      mstore\n      0x04\n      add\n      tag_78\n      swap1\n      tag_79\n      jump\t// in\n    tag_78:\n      mload(0x40)\n      dup1\n      swap2\n      sub\n      swap1\n      revert\n    tag_77:\n        /* \"contracts/voting.sol\":1431:1435  true */\n      0x01\n        /* \"contracts/voting.sol\":1417:1428  voteStarted */\n      dup1\n      0x14\n        /* \"contracts/voting.sol\":1417:1435  voteStarted = true */\n      0x0100\n      exp\n      dup2\n      sload\n      dup2\n      0xff\n      mul\n      not\n      and\n      swap1\n      dup4\n      iszero\n      iszero\n      mul\n      or\n      swap1\n      sstore\n      pop\n        /* \"contracts/voting.sol\":1262:1444  function startVote() public onlyElectionComission votingStarted{\r... */\n      jump\t// out\n        /* \"contracts/voting.sol\":1872:2087  function deleteCandidate(string memory symbol)public onlyElectionComission votingStarted{\r... */\n    tag_25:\n        /* \"contracts/voting.sol\":628:646  electionCommission */\n      0x01\n      0x00\n      swap1\n      sload\n      swap1\n      0x0100\n      exp\n      swap1\n      div\n      0xffffffffffffffffffffffffffffffffffffffff\n      and\n        /* \"contracts/voting.sol\":616:646  msg.sender==electionCommission */\n      0xffffffffffffffffffffffffffffffffffffffff\n      and\n        /* \"contracts/voting.sol\":616:626  msg.sender */\n      caller\n        /* \"contracts/voting.sol\":616:646  msg.sender==electionCommission */\n      0xffffffffffffffffffffffffffffffffffffffff\n      and\n      eq\n        /* \"contracts/voting.sol\":608:670  require(msg.sender==electionCommission,\"Unauthorized Access.\") */\n      tag_81\n      jumpi\n      mload(0x40)\n      0x08c379a000000000000000000000000000000000000000000000000000000000\n      dup2\n      mstore\n      0x04\n      add\n      tag_82\n      swap1\n      tag_29\n      jump\t// in\n    tag_82:\n      mload(0x40)\n      dup1\n      swap2\n      sub\n      swap1\n      revert\n    tag_81:\n        /* \"contracts/voting.sol\":774:778  true */\n      0x01\n        /* \"contracts/voting.sol\":761:778  voteStarted!=true */\n      iszero\n      iszero\n        /* \"contracts/voting.sol\":761:772  voteStarted */\n      0x01\n      0x14\n      swap1\n      sload\n      swap1\n      0x0100\n      exp\n      swap1\n      div\n      0xff\n      and\n        /* \"contracts/voting.sol\":761:778  voteStarted!=true */\n      iszero\n      iszero\n      eq\n      iszero\n        /* \"contracts/voting.sol\":753:798  require(voteStarted!=true,\"Already Started.\") */\n      tag_84\n      jumpi\n      mload(0x40)\n      0x08c379a000000000000000000000000000000000000000000000000000000000\n      dup2\n      mstore\n      0x04\n      add\n      tag_85\n      swap1\n      tag_33\n      jump\t// in\n    tag_85:\n      mload(0x40)\n      dup1\n      swap2\n      sub\n      swap1\n      revert\n    tag_84:\n        /* \"contracts/voting.sol\":1997:1998  0 */\n      0x00\n        /* \"contracts/voting.sol\":1979:1989  symbolList */\n      0x02\n        /* \"contracts/voting.sol\":1979:1996  symbolList.length */\n      dup1\n      sload\n      swap1\n      pop\n        /* \"contracts/voting.sol\":1979:1998  symbolList.length>0 */\n      gt\n        /* \"contracts/voting.sol\":1971:2041  require(symbolList.length>0,\"Atleast 1 candidate must be registered.\") */\n      tag_87\n      jumpi\n      mload(0x40)\n      0x08c379a000000000000000000000000000000000000000000000000000000000\n      dup2\n      mstore\n      0x04\n      add\n      tag_88\n      swap1\n      tag_89\n      jump\t// in\n    tag_88:\n      mload(0x40)\n      dup1\n      swap2\n      sub\n      swap1\n      revert\n    tag_87:\n        /* \"contracts/voting.sol\":2060:2070  Candidates */\n      0x03\n        /* \"contracts/voting.sol\":2071:2077  symbol */\n      dup2\n        /* \"contracts/voting.sol\":2060:2078  Candidates[symbol] */\n      mload(0x40)\n      tag_90\n      swap2\n      swap1\n      tag_45\n      jump\t// in\n    tag_90:\n      swap1\n      dup2\n      mstore\n      0x20\n      add\n      mload(0x40)\n      dup1\n      swap2\n      sub\n      swap1\n      keccak256\n      0x00\n        /* \"contracts/voting.sol\":2053:2078  delete Candidates[symbol] */\n      dup1\n      dup3\n      add\n      0x00\n      tag_91\n      swap2\n      swap1\n      tag_92\n      jump\t// in\n    tag_91:\n      0x01\n      dup3\n      add\n      0x00\n      swap1\n      sstore\n      pop\n      pop\n        /* \"contracts/voting.sol\":1872:2087  function deleteCandidate(string memory symbol)public onlyElectionComission votingStarted{\r... */\n      pop\n      jump\t// out\n    tag_43:\n      dup3\n      dup1\n      sload\n      tag_93\n      swap1\n      tag_53\n      jump\t// in\n    tag_93:\n      swap1\n      0x00\n      mstore\n      keccak256(0x00, 0x20)\n      swap1\n      0x1f\n      add\n      0x20\n      swap1\n      div\n      dup2\n      add\n      swap3\n      dup3\n      tag_95\n      jumpi\n      0x00\n      dup6\n      sstore\n      jump(tag_94)\n    tag_95:\n      dup3\n      0x1f\n      lt\n      tag_96\n      jumpi\n      dup1\n      mload\n      not(0xff)\n      and\n      dup4\n      dup1\n      add\n      or\n      dup6\n      sstore\n      jump(tag_94)\n    tag_96:\n      dup3\n      dup1\n      add\n      0x01\n      add\n      dup6\n      sstore\n      dup3\n      iszero\n      tag_94\n      jumpi\n      swap2\n      dup3\n      add\n    tag_97:\n      dup3\n      dup2\n      gt\n      iszero\n      tag_98\n      jumpi\n      dup3\n      mload\n      dup3\n      sstore\n      swap2\n      0x20\n      add\n      swap2\n      swap1\n      0x01\n      add\n      swap1\n      jump(tag_97)\n    tag_98:\n    tag_94:\n      pop\n      swap1\n      pop\n      tag_99\n      swap2\n      swap1\n      tag_100\n      jump\t// in\n    tag_99:\n      pop\n      swap1\n      jump\t// out\n    tag_49:\n      mload(0x40)\n      dup1\n      0x40\n      add\n      0x40\n      mstore\n      dup1\n      0x60\n      dup2\n      mstore\n      0x20\n      add\n      0x00\n      dup2\n      mstore\n      pop\n      swap1\n      jump\t// out\n    tag_92:\n      pop\n      dup1\n      sload\n      tag_101\n      swap1\n      tag_53\n      jump\t// in\n    tag_101:\n      0x00\n      dup3\n      sstore\n      dup1\n      0x1f\n      lt\n      tag_103\n      jumpi\n      pop\n      jump(tag_102)\n    tag_103:\n      0x1f\n      add\n      0x20\n      swap1\n      div\n      swap1\n      0x00\n      mstore\n      keccak256(0x00, 0x20)\n      swap1\n      dup2\n      add\n      swap1\n      tag_104\n      swap2\n      swap1\n      tag_100\n      jump\t// in\n    tag_104:\n    tag_102:\n      pop\n      jump\t// out\n    tag_100:\n    tag_105:\n      dup1\n      dup3\n      gt\n      iszero\n      tag_106\n      jumpi\n      0x00\n      dup2\n      0x00\n      swap1\n      sstore\n      pop\n      0x01\n      add\n      jump(tag_105)\n    tag_106:\n      pop\n      swap1\n      jump\t// out\n        /* \"#utility.yul\":7:419   */\n    tag_108:\n        /* \"#utility.yul\":85:90   */\n      0x00\n        /* \"#utility.yul\":110:176   */\n      tag_110\n        /* \"#utility.yul\":126:175   */\n      tag_111\n        /* \"#utility.yul\":168:174   */\n      dup5\n        /* \"#utility.yul\":126:175   */\n      tag_112\n      jump\t// in\n    tag_111:\n        /* \"#utility.yul\":110:176   */\n      tag_113\n      jump\t// in\n    tag_110:\n        /* \"#utility.yul\":101:176   */\n      swap1\n      pop\n        /* \"#utility.yul\":199:205   */\n      dup3\n        /* \"#utility.yul\":192:197   */\n      dup2\n        /* \"#utility.yul\":185:206   */\n      mstore\n        /* \"#utility.yul\":237:241   */\n      0x20\n        /* \"#utility.yul\":230:235   */\n      dup2\n        /* \"#utility.yul\":226:242   */\n      add\n        /* \"#utility.yul\":275:278   */\n      dup5\n        /* \"#utility.yul\":266:272   */\n      dup5\n        /* \"#utility.yul\":261:264   */\n      dup5\n        /* \"#utility.yul\":257:273   */\n      add\n        /* \"#utility.yul\":254:279   */\n      gt\n        /* \"#utility.yul\":251:363   */\n      iszero\n      tag_114\n      jumpi\n        /* \"#utility.yul\":282:361   */\n      tag_115\n      tag_116\n      jump\t// in\n    tag_115:\n        /* \"#utility.yul\":251:363   */\n    tag_114:\n        /* \"#utility.yul\":372:413   */\n      tag_117\n        /* \"#utility.yul\":406:412   */\n      dup5\n        /* \"#utility.yul\":401:404   */\n      dup3\n        /* \"#utility.yul\":396:399   */\n      dup6\n        /* \"#utility.yul\":372:413   */\n      tag_118\n      jump\t// in\n    tag_117:\n        /* \"#utility.yul\":91:419   */\n      pop\n        /* \"#utility.yul\":7:419   */\n      swap4\n      swap3\n      pop\n      pop\n      pop\n      jump\t// out\n        /* \"#utility.yul\":439:779   */\n    tag_119:\n        /* \"#utility.yul\":495:500   */\n      0x00\n        /* \"#utility.yul\":544:547   */\n      dup3\n        /* \"#utility.yul\":537:541   */\n      0x1f\n        /* \"#utility.yul\":529:535   */\n      dup4\n        /* \"#utility.yul\":525:542   */\n      add\n        /* \"#utility.yul\":521:548   */\n      slt\n        /* \"#utility.yul\":511:633   */\n      tag_121\n      jumpi\n        /* \"#utility.yul\":552:631   */\n      tag_122\n      tag_123\n      jump\t// in\n    tag_122:\n        /* \"#utility.yul\":511:633   */\n    tag_121:\n        /* \"#utility.yul\":669:675   */\n      dup2\n        /* \"#utility.yul\":656:676   */\n      calldataload\n        /* \"#utility.yul\":694:773   */\n      tag_124\n        /* \"#utility.yul\":769:772   */\n      dup5\n        /* \"#utility.yul\":761:767   */\n      dup3\n        /* \"#utility.yul\":754:758   */\n      0x20\n        /* \"#utility.yul\":746:752   */\n      dup7\n        /* \"#utility.yul\":742:759   */\n      add\n        /* \"#utility.yul\":694:773   */\n      tag_108\n      jump\t// in\n    tag_124:\n        /* \"#utility.yul\":685:773   */\n      swap2\n      pop\n        /* \"#utility.yul\":501:779   */\n      pop\n        /* \"#utility.yul\":439:779   */\n      swap3\n      swap2\n      pop\n      pop\n      jump\t// out\n        /* \"#utility.yul\":785:1294   */\n    tag_14:\n        /* \"#utility.yul\":854:860   */\n      0x00\n        /* \"#utility.yul\":903:905   */\n      0x20\n        /* \"#utility.yul\":891:900   */\n      dup3\n        /* \"#utility.yul\":882:889   */\n      dup5\n        /* \"#utility.yul\":878:901   */\n      sub\n        /* \"#utility.yul\":874:906   */\n      slt\n        /* \"#utility.yul\":871:990   */\n      iszero\n      tag_126\n      jumpi\n        /* \"#utility.yul\":909:988   */\n      tag_127\n      tag_128\n      jump\t// in\n    tag_127:\n        /* \"#utility.yul\":871:990   */\n    tag_126:\n        /* \"#utility.yul\":1057:1058   */\n      0x00\n        /* \"#utility.yul\":1046:1055   */\n      dup3\n        /* \"#utility.yul\":1042:1059   */\n      add\n        /* \"#utility.yul\":1029:1060   */\n      calldataload\n        /* \"#utility.yul\":1087:1105   */\n      0xffffffffffffffff\n        /* \"#utility.yul\":1079:1085   */\n      dup2\n        /* \"#utility.yul\":1076:1106   */\n      gt\n        /* \"#utility.yul\":1073:1190   */\n      iszero\n      tag_129\n      jumpi\n        /* \"#utility.yul\":1109:1188   */\n      tag_130\n      tag_131\n      jump\t// in\n    tag_130:\n        /* \"#utility.yul\":1073:1190   */\n    tag_129:\n        /* \"#utility.yul\":1214:1277   */\n      tag_132\n        /* \"#utility.yul\":1269:1276   */\n      dup5\n        /* \"#utility.yul\":1260:1266   */\n      dup3\n        /* \"#utility.yul\":1249:1258   */\n      dup6\n        /* \"#utility.yul\":1245:1267   */\n      add\n        /* \"#utility.yul\":1214:1277   */\n      tag_119\n      jump\t// in\n    tag_132:\n        /* \"#utility.yul\":1204:1277   */\n      swap2\n      pop\n        /* \"#utility.yul\":1000:1287   */\n      pop\n        /* \"#utility.yul\":785:1294   */\n      swap3\n      swap2\n      pop\n      pop\n      jump\t// out\n        /* \"#utility.yul\":1300:2134   */\n    tag_10:\n        /* \"#utility.yul\":1388:1394   */\n      0x00\n        /* \"#utility.yul\":1396:1402   */\n      dup1\n        /* \"#utility.yul\":1445:1447   */\n      0x40\n        /* \"#utility.yul\":1433:1442   */\n      dup4\n        /* \"#utility.yul\":1424:1431   */\n      dup6\n        /* \"#utility.yul\":1420:1443   */\n      sub\n        /* \"#utility.yul\":1416:1448   */\n      slt\n        /* \"#utility.yul\":1413:1532   */\n      iszero\n      tag_134\n      jumpi\n        /* \"#utility.yul\":1451:1530   */\n      tag_135\n      tag_128\n      jump\t// in\n    tag_135:\n        /* \"#utility.yul\":1413:1532   */\n    tag_134:\n        /* \"#utility.yul\":1599:1600   */\n      0x00\n        /* \"#utility.yul\":1588:1597   */\n      dup4\n        /* \"#utility.yul\":1584:1601   */\n      add\n        /* \"#utility.yul\":1571:1602   */\n      calldataload\n        /* \"#utility.yul\":1629:1647   */\n      0xffffffffffffffff\n        /* \"#utility.yul\":1621:1627   */\n      dup2\n        /* \"#utility.yul\":1618:1648   */\n      gt\n        /* \"#utility.yul\":1615:1732   */\n      iszero\n      tag_136\n      jumpi\n        /* \"#utility.yul\":1651:1730   */\n      tag_137\n      tag_131\n      jump\t// in\n    tag_137:\n        /* \"#utility.yul\":1615:1732   */\n    tag_136:\n        /* \"#utility.yul\":1756:1819   */\n      tag_138\n        /* \"#utility.yul\":1811:1818   */\n      dup6\n        /* \"#utility.yul\":1802:1808   */\n      dup3\n        /* \"#utility.yul\":1791:1800   */\n      dup7\n        /* \"#utility.yul\":1787:1809   */\n      add\n        /* \"#utility.yul\":1756:1819   */\n      tag_119\n      jump\t// in\n    tag_138:\n        /* \"#utility.yul\":1746:1819   */\n      swap3\n      pop\n        /* \"#utility.yul\":1542:1829   */\n      pop\n        /* \"#utility.yul\":1896:1898   */\n      0x20\n        /* \"#utility.yul\":1885:1894   */\n      dup4\n        /* \"#utility.yul\":1881:1899   */\n      add\n        /* \"#utility.yul\":1868:1900   */\n      calldataload\n        /* \"#utility.yul\":1927:1945   */\n      0xffffffffffffffff\n        /* \"#utility.yul\":1919:1925   */\n      dup2\n        /* \"#utility.yul\":1916:1946   */\n      gt\n        /* \"#utility.yul\":1913:2030   */\n      iszero\n      tag_139\n      jumpi\n        /* \"#utility.yul\":1949:2028   */\n      tag_140\n      tag_131\n      jump\t// in\n    tag_140:\n        /* \"#utility.yul\":1913:2030   */\n    tag_139:\n        /* \"#utility.yul\":2054:2117   */\n      tag_141\n        /* \"#utility.yul\":2109:2116   */\n      dup6\n        /* \"#utility.yul\":2100:2106   */\n      dup3\n        /* \"#utility.yul\":2089:2098   */\n      dup7\n        /* \"#utility.yul\":2085:2107   */\n      add\n        /* \"#utility.yul\":2054:2117   */\n      tag_119\n      jump\t// in\n    tag_141:\n        /* \"#utility.yul\":2044:2117   */\n      swap2\n      pop\n        /* \"#utility.yul\":1839:2127   */\n      pop\n        /* \"#utility.yul\":1300:2134   */\n      swap3\n      pop\n      swap3\n      swap1\n      pop\n      jump\t// out\n        /* \"#utility.yul\":2140:2484   */\n    tag_142:\n        /* \"#utility.yul\":2218:2221   */\n      0x00\n        /* \"#utility.yul\":2246:2285   */\n      tag_144\n        /* \"#utility.yul\":2279:2284   */\n      dup3\n        /* \"#utility.yul\":2246:2285   */\n      tag_145\n      jump\t// in\n    tag_144:\n        /* \"#utility.yul\":2301:2362   */\n      tag_146\n        /* \"#utility.yul\":2355:2361   */\n      dup2\n        /* \"#utility.yul\":2350:2353   */\n      dup6\n        /* \"#utility.yul\":2301:2362   */\n      tag_147\n      jump\t// in\n    tag_146:\n        /* \"#utility.yul\":2294:2362   */\n      swap4\n      pop\n        /* \"#utility.yul\":2371:2423   */\n      tag_148\n        /* \"#utility.yul\":2416:2422   */\n      dup2\n        /* \"#utility.yul\":2411:2414   */\n      dup6\n        /* \"#utility.yul\":2404:2408   */\n      0x20\n        /* \"#utility.yul\":2397:2402   */\n      dup7\n        /* \"#utility.yul\":2393:2409   */\n      add\n        /* \"#utility.yul\":2371:2423   */\n      tag_149\n      jump\t// in\n    tag_148:\n        /* \"#utility.yul\":2448:2477   */\n      tag_150\n        /* \"#utility.yul\":2470:2476   */\n      dup2\n        /* \"#utility.yul\":2448:2477   */\n      tag_151\n      jump\t// in\n    tag_150:\n        /* \"#utility.yul\":2443:2446   */\n      dup5\n        /* \"#utility.yul\":2439:2478   */\n      add\n        /* \"#utility.yul\":2432:2478   */\n      swap2\n      pop\n        /* \"#utility.yul\":2222:2484   */\n      pop\n        /* \"#utility.yul\":2140:2484   */\n      swap3\n      swap2\n      pop\n      pop\n      jump\t// out\n        /* \"#utility.yul\":2490:2867   */\n    tag_152:\n        /* \"#utility.yul\":2596:2599   */\n      0x00\n        /* \"#utility.yul\":2624:2663   */\n      tag_154\n        /* \"#utility.yul\":2657:2662   */\n      dup3\n        /* \"#utility.yul\":2624:2663   */\n      tag_145\n      jump\t// in\n    tag_154:\n        /* \"#utility.yul\":2679:2768   */\n      tag_155\n        /* \"#utility.yul\":2761:2767   */\n      dup2\n        /* \"#utility.yul\":2756:2759   */\n      dup6\n        /* \"#utility.yul\":2679:2768   */\n      tag_156\n      jump\t// in\n    tag_155:\n        /* \"#utility.yul\":2672:2768   */\n      swap4\n      pop\n        /* \"#utility.yul\":2777:2829   */\n      tag_157\n        /* \"#utility.yul\":2822:2828   */\n      dup2\n        /* \"#utility.yul\":2817:2820   */\n      dup6\n        /* \"#utility.yul\":2810:2814   */\n      0x20\n        /* \"#utility.yul\":2803:2808   */\n      dup7\n        /* \"#utility.yul\":2799:2815   */\n      add\n        /* \"#utility.yul\":2777:2829   */\n      tag_149\n      jump\t// in\n    tag_157:\n        /* \"#utility.yul\":2854:2860   */\n      dup1\n        /* \"#utility.yul\":2849:2852   */\n      dup5\n        /* \"#utility.yul\":2845:2861   */\n      add\n        /* \"#utility.yul\":2838:2861   */\n      swap2\n      pop\n        /* \"#utility.yul\":2600:2867   */\n      pop\n        /* \"#utility.yul\":2490:2867   */\n      swap3\n      swap2\n      pop\n      pop\n      jump\t// out\n        /* \"#utility.yul\":2873:3239   */\n    tag_158:\n        /* \"#utility.yul\":3015:3018   */\n      0x00\n        /* \"#utility.yul\":3036:3103   */\n      tag_160\n        /* \"#utility.yul\":3100:3102   */\n      0x14\n        /* \"#utility.yul\":3095:3098   */\n      dup4\n        /* \"#utility.yul\":3036:3103   */\n      tag_161\n      jump\t// in\n    tag_160:\n        /* \"#utility.yul\":3029:3103   */\n      swap2\n      pop\n        /* \"#utility.yul\":3112:3205   */\n      tag_162\n        /* \"#utility.yul\":3201:3204   */\n      dup3\n        /* \"#utility.yul\":3112:3205   */\n      tag_163\n      jump\t// in\n    tag_162:\n        /* \"#utility.yul\":3230:3232   */\n      0x20\n        /* \"#utility.yul\":3225:3228   */\n      dup3\n        /* \"#utility.yul\":3221:3233   */\n      add\n        /* \"#utility.yul\":3214:3233   */\n      swap1\n      pop\n        /* \"#utility.yul\":2873:3239   */\n      swap2\n      swap1\n      pop\n      jump\t// out\n        /* \"#utility.yul\":3245:3611   */\n    tag_164:\n        /* \"#utility.yul\":3387:3390   */\n      0x00\n        /* \"#utility.yul\":3408:3475   */\n      tag_166\n        /* \"#utility.yul\":3472:3474   */\n      0x15\n        /* \"#utility.yul\":3467:3470   */\n      dup4\n        /* \"#utility.yul\":3408:3475   */\n      tag_161\n      jump\t// in\n    tag_166:\n        /* \"#utility.yul\":3401:3475   */\n      swap2\n      pop\n        /* \"#utility.yul\":3484:3577   */\n      tag_167\n        /* \"#utility.yul\":3573:3576   */\n      dup3\n        /* \"#utility.yul\":3484:3577   */\n      tag_168\n      jump\t// in\n    tag_167:\n        /* \"#utility.yul\":3602:3604   */\n      0x20\n        /* \"#utility.yul\":3597:3600   */\n      dup3\n        /* \"#utility.yul\":3593:3605   */\n      add\n        /* \"#utility.yul\":3586:3605   */\n      swap1\n      pop\n        /* \"#utility.yul\":3245:3611   */\n      swap2\n      swap1\n      pop\n      jump\t// out\n        /* \"#utility.yul\":3617:3983   */\n    tag_169:\n        /* \"#utility.yul\":3759:3762   */\n      0x00\n        /* \"#utility.yul\":3780:3847   */\n      tag_171\n        /* \"#utility.yul\":3844:3846   */\n      0x10\n        /* \"#utility.yul\":3839:3842   */\n      dup4\n        /* \"#utility.yul\":3780:3847   */\n      tag_161\n      jump\t// in\n    tag_171:\n        /* \"#utility.yul\":3773:3847   */\n      swap2\n      pop\n        /* \"#utility.yul\":3856:3949   */\n      tag_172\n        /* \"#utility.yul\":3945:3948   */\n      dup3\n        /* \"#utility.yul\":3856:3949   */\n      tag_173\n      jump\t// in\n    tag_172:\n        /* \"#utility.yul\":3974:3976   */\n      0x20\n        /* \"#utility.yul\":3969:3972   */\n      dup3\n        /* \"#utility.yul\":3965:3977   */\n      add\n        /* \"#utility.yul\":3958:3977   */\n      swap1\n      pop\n        /* \"#utility.yul\":3617:3983   */\n      swap2\n      swap1\n      pop\n      jump\t// out\n        /* \"#utility.yul\":3989:4355   */\n    tag_174:\n        /* \"#utility.yul\":4131:4134   */\n      0x00\n        /* \"#utility.yul\":4152:4219   */\n      tag_176\n        /* \"#utility.yul\":4216:4218   */\n      0x27\n        /* \"#utility.yul\":4211:4214   */\n      dup4\n        /* \"#utility.yul\":4152:4219   */\n      tag_161\n      jump\t// in\n    tag_176:\n        /* \"#utility.yul\":4145:4219   */\n      swap2\n      pop\n        /* \"#utility.yul\":4228:4321   */\n      tag_177\n        /* \"#utility.yul\":4317:4320   */\n      dup3\n        /* \"#utility.yul\":4228:4321   */\n      tag_178\n      jump\t// in\n    tag_177:\n        /* \"#utility.yul\":4346:4348   */\n      0x40\n        /* \"#utility.yul\":4341:4344   */\n      dup3\n        /* \"#utility.yul\":4337:4349   */\n      add\n        /* \"#utility.yul\":4330:4349   */\n      swap1\n      pop\n        /* \"#utility.yul\":3989:4355   */\n      swap2\n      swap1\n      pop\n      jump\t// out\n        /* \"#utility.yul\":4361:4727   */\n    tag_179:\n        /* \"#utility.yul\":4503:4506   */\n      0x00\n        /* \"#utility.yul\":4524:4591   */\n      tag_181\n        /* \"#utility.yul\":4588:4590   */\n      0x0d\n        /* \"#utility.yul\":4583:4586   */\n      dup4\n        /* \"#utility.yul\":4524:4591   */\n      tag_161\n      jump\t// in\n    tag_181:\n        /* \"#utility.yul\":4517:4591   */\n      swap2\n      pop\n        /* \"#utility.yul\":4600:4693   */\n      tag_182\n        /* \"#utility.yul\":4689:4692   */\n      dup3\n        /* \"#utility.yul\":4600:4693   */\n      tag_183\n      jump\t// in\n    tag_182:\n        /* \"#utility.yul\":4718:4720   */\n      0x20\n        /* \"#utility.yul\":4713:4716   */\n      dup3\n        /* \"#utility.yul\":4709:4721   */\n      add\n        /* \"#utility.yul\":4702:4721   */\n      swap1\n      pop\n        /* \"#utility.yul\":4361:4727   */\n      swap2\n      swap1\n      pop\n      jump\t// out\n        /* \"#utility.yul\":4733:5099   */\n    tag_184:\n        /* \"#utility.yul\":4875:4878   */\n      0x00\n        /* \"#utility.yul\":4896:4963   */\n      tag_186\n        /* \"#utility.yul\":4960:4962   */\n      0x13\n        /* \"#utility.yul\":4955:4958   */\n      dup4\n        /* \"#utility.yul\":4896:4963   */\n      tag_161\n      jump\t// in\n    tag_186:\n        /* \"#utility.yul\":4889:4963   */\n      swap2\n      pop\n        /* \"#utility.yul\":4972:5065   */\n      tag_187\n        /* \"#utility.yul\":5061:5064   */\n      dup3\n        /* \"#utility.yul\":4972:5065   */\n      tag_188\n      jump\t// in\n    tag_187:\n        /* \"#utility.yul\":5090:5092   */\n      0x20\n        /* \"#utility.yul\":5085:5088   */\n      dup3\n        /* \"#utility.yul\":5081:5093   */\n      add\n        /* \"#utility.yul\":5074:5093   */\n      swap1\n      pop\n        /* \"#utility.yul\":4733:5099   */\n      swap2\n      swap1\n      pop\n      jump\t// out\n        /* \"#utility.yul\":5105:5471   */\n    tag_189:\n        /* \"#utility.yul\":5247:5250   */\n      0x00\n        /* \"#utility.yul\":5268:5335   */\n      tag_191\n        /* \"#utility.yul\":5332:5334   */\n      0x27\n        /* \"#utility.yul\":5327:5330   */\n      dup4\n        /* \"#utility.yul\":5268:5335   */\n      tag_161\n      jump\t// in\n    tag_191:\n        /* \"#utility.yul\":5261:5335   */\n      swap2\n      pop\n        /* \"#utility.yul\":5344:5437   */\n      tag_192\n        /* \"#utility.yul\":5433:5436   */\n      dup3\n        /* \"#utility.yul\":5344:5437   */\n      tag_193\n      jump\t// in\n    tag_192:\n        /* \"#utility.yul\":5462:5464   */\n      0x40\n        /* \"#utility.yul\":5457:5460   */\n      dup3\n        /* \"#utility.yul\":5453:5465   */\n      add\n        /* \"#utility.yul\":5446:5465   */\n      swap1\n      pop\n        /* \"#utility.yul\":5105:5471   */\n      swap2\n      swap1\n      pop\n      jump\t// out\n        /* \"#utility.yul\":5551:6162   */\n    tag_194:\n        /* \"#utility.yul\":5670:5673   */\n      0x00\n        /* \"#utility.yul\":5706:5710   */\n      0x40\n        /* \"#utility.yul\":5701:5704   */\n      dup4\n        /* \"#utility.yul\":5697:5711   */\n      add\n        /* \"#utility.yul\":5793:5797   */\n      0x00\n        /* \"#utility.yul\":5786:5791   */\n      dup4\n        /* \"#utility.yul\":5782:5798   */\n      add\n        /* \"#utility.yul\":5776:5799   */\n      mload\n        /* \"#utility.yul\":5846:5849   */\n      dup5\n        /* \"#utility.yul\":5840:5844   */\n      dup3\n        /* \"#utility.yul\":5836:5850   */\n      sub\n        /* \"#utility.yul\":5829:5833   */\n      0x00\n        /* \"#utility.yul\":5824:5827   */\n      dup7\n        /* \"#utility.yul\":5820:5834   */\n      add\n        /* \"#utility.yul\":5813:5851   */\n      mstore\n        /* \"#utility.yul\":5872:5945   */\n      tag_196\n        /* \"#utility.yul\":5940:5944   */\n      dup3\n        /* \"#utility.yul\":5926:5938   */\n      dup3\n        /* \"#utility.yul\":5872:5945   */\n      tag_142\n      jump\t// in\n    tag_196:\n        /* \"#utility.yul\":5864:5945   */\n      swap2\n      pop\n        /* \"#utility.yul\":5721:5956   */\n      pop\n        /* \"#utility.yul\":6043:6047   */\n      0x20\n        /* \"#utility.yul\":6036:6041   */\n      dup4\n        /* \"#utility.yul\":6032:6048   */\n      add\n        /* \"#utility.yul\":6026:6049   */\n      mload\n        /* \"#utility.yul\":6062:6125   */\n      tag_197\n        /* \"#utility.yul\":6119:6123   */\n      0x20\n        /* \"#utility.yul\":6114:6117   */\n      dup7\n        /* \"#utility.yul\":6110:6124   */\n      add\n        /* \"#utility.yul\":6096:6108   */\n      dup3\n        /* \"#utility.yul\":6062:6125   */\n      tag_198\n      jump\t// in\n    tag_197:\n        /* \"#utility.yul\":5966:6135   */\n      pop\n        /* \"#utility.yul\":6152:6156   */\n      dup1\n        /* \"#utility.yul\":6145:6156   */\n      swap2\n      pop\n        /* \"#utility.yul\":5675:6162   */\n      pop\n        /* \"#utility.yul\":5551:6162   */\n      swap3\n      swap2\n      pop\n      pop\n      jump\t// out\n        /* \"#utility.yul\":6168:6276   */\n    tag_198:\n        /* \"#utility.yul\":6245:6269   */\n      tag_200\n        /* \"#utility.yul\":6263:6268   */\n      dup2\n        /* \"#utility.yul\":6245:6269   */\n      tag_201\n      jump\t// in\n    tag_200:\n        /* \"#utility.yul\":6240:6243   */\n      dup3\n        /* \"#utility.yul\":6233:6270   */\n      mstore\n        /* \"#utility.yul\":6168:6276   */\n      pop\n      pop\n      jump\t// out\n        /* \"#utility.yul\":6282:6557   */\n    tag_45:\n        /* \"#utility.yul\":6414:6417   */\n      0x00\n        /* \"#utility.yul\":6436:6531   */\n      tag_203\n        /* \"#utility.yul\":6527:6530   */\n      dup3\n        /* \"#utility.yul\":6518:6524   */\n      dup5\n        /* \"#utility.yul\":6436:6531   */\n      tag_152\n      jump\t// in\n    tag_203:\n        /* \"#utility.yul\":6429:6531   */\n      swap2\n      pop\n        /* \"#utility.yul\":6548:6551   */\n      dup2\n        /* \"#utility.yul\":6541:6551   */\n      swap1\n      pop\n        /* \"#utility.yul\":6282:6557   */\n      swap3\n      swap2\n      pop\n      pop\n      jump\t// out\n        /* \"#utility.yul\":6563:6982   */\n    tag_29:\n        /* \"#utility.yul\":6729:6733   */\n      0x00\n        /* \"#utility.yul\":6767:6769   */\n      0x20\n        /* \"#utility.yul\":6756:6765   */\n      dup3\n        /* \"#utility.yul\":6752:6770   */\n      add\n        /* \"#utility.yul\":6744:6770   */\n      swap1\n      pop\n        /* \"#utility.yul\":6816:6825   */\n      dup2\n        /* \"#utility.yul\":6810:6814   */\n      dup2\n        /* \"#utility.yul\":6806:6826   */\n      sub\n        /* \"#utility.yul\":6802:6803   */\n      0x00\n        /* \"#utility.yul\":6791:6800   */\n      dup4\n        /* \"#utility.yul\":6787:6804   */\n      add\n        /* \"#utility.yul\":6780:6827   */\n      mstore\n        /* \"#utility.yul\":6844:6975   */\n      tag_205\n        /* \"#utility.yul\":6970:6974   */\n      dup2\n        /* \"#utility.yul\":6844:6975   */\n      tag_158\n      jump\t// in\n    tag_205:\n        /* \"#utility.yul\":6836:6975   */\n      swap1\n      pop\n        /* \"#utility.yul\":6563:6982   */\n      swap2\n      swap1\n      pop\n      jump\t// out\n        /* \"#utility.yul\":6988:7407   */\n    tag_40:\n        /* \"#utility.yul\":7154:7158   */\n      0x00\n        /* \"#utility.yul\":7192:7194   */\n      0x20\n        /* \"#utility.yul\":7181:7190   */\n      dup3\n        /* \"#utility.yul\":7177:7195   */\n      add\n        /* \"#utility.yul\":7169:7195   */\n      swap1\n      pop\n        /* \"#utility.yul\":7241:7250   */\n      dup2\n        /* \"#utility.yul\":7235:7239   */\n      dup2\n        /* \"#utility.yul\":7231:7251   */\n      sub\n        /* \"#utility.yul\":7227:7228   */\n      0x00\n        /* \"#utility.yul\":7216:7225   */\n      dup4\n        /* \"#utility.yul\":7212:7229   */\n      add\n        /* \"#utility.yul\":7205:7252   */\n      mstore\n        /* \"#utility.yul\":7269:7400   */\n      tag_207\n        /* \"#utility.yul\":7395:7399   */\n      dup2\n        /* \"#utility.yul\":7269:7400   */\n      tag_164\n      jump\t// in\n    tag_207:\n        /* \"#utility.yul\":7261:7400   */\n      swap1\n      pop\n        /* \"#utility.yul\":6988:7407   */\n      swap2\n      swap1\n      pop\n      jump\t// out\n        /* \"#utility.yul\":7413:7832   */\n    tag_33:\n        /* \"#utility.yul\":7579:7583   */\n      0x00\n        /* \"#utility.yul\":7617:7619   */\n      0x20\n        /* \"#utility.yul\":7606:7615   */\n      dup3\n        /* \"#utility.yul\":7602:7620   */\n      add\n        /* \"#utility.yul\":7594:7620   */\n      swap1\n      pop\n        /* \"#utility.yul\":7666:7675   */\n      dup2\n        /* \"#utility.yul\":7660:7664   */\n      dup2\n        /* \"#utility.yul\":7656:7676   */\n      sub\n        /* \"#utility.yul\":7652:7653   */\n      0x00\n        /* \"#utility.yul\":7641:7650   */\n      dup4\n        /* \"#utility.yul\":7637:7654   */\n      add\n        /* \"#utility.yul\":7630:7677   */\n      mstore\n        /* \"#utility.yul\":7694:7825   */\n      tag_209\n        /* \"#utility.yul\":7820:7824   */\n      dup2\n        /* \"#utility.yul\":7694:7825   */\n      tag_169\n      jump\t// in\n    tag_209:\n        /* \"#utility.yul\":7686:7825   */\n      swap1\n      pop\n        /* \"#utility.yul\":7413:7832   */\n      swap2\n      swap1\n      pop\n      jump\t// out\n        /* \"#utility.yul\":7838:8257   */\n    tag_79:\n        /* \"#utility.yul\":8004:8008   */\n      0x00\n        /* \"#utility.yul\":8042:8044   */\n      0x20\n        /* \"#utility.yul\":8031:8040   */\n      dup3\n        /* \"#utility.yul\":8027:8045   */\n      add\n        /* \"#utility.yul\":8019:8045   */\n      swap1\n      pop\n        /* \"#utility.yul\":8091:8100   */\n      dup2\n        /* \"#utility.yul\":8085:8089   */\n      dup2\n        /* \"#utility.yul\":8081:8101   */\n      sub\n        /* \"#utility.yul\":8077:8078   */\n      0x00\n        /* \"#utility.yul\":8066:8075   */\n      dup4\n        /* \"#utility.yul\":8062:8079   */\n      add\n        /* \"#utility.yul\":8055:8102   */\n      mstore\n        /* \"#utility.yul\":8119:8250   */\n      tag_211\n        /* \"#utility.yul\":8245:8249   */\n      dup2\n        /* \"#utility.yul\":8119:8250   */\n      tag_174\n      jump\t// in\n    tag_211:\n        /* \"#utility.yul\":8111:8250   */\n      swap1\n      pop\n        /* \"#utility.yul\":7838:8257   */\n      swap2\n      swap1\n      pop\n      jump\t// out\n        /* \"#utility.yul\":8263:8682   */\n    tag_66:\n        /* \"#utility.yul\":8429:8433   */\n      0x00\n        /* \"#utility.yul\":8467:8469   */\n      0x20\n        /* \"#utility.yul\":8456:8465   */\n      dup3\n        /* \"#utility.yul\":8452:8470   */\n      add\n        /* \"#utility.yul\":8444:8470   */\n      swap1\n      pop\n        /* \"#utility.yul\":8516:8525   */\n      dup2\n        /* \"#utility.yul\":8510:8514   */\n      dup2\n        /* \"#utility.yul\":8506:8526   */\n      sub\n        /* \"#utility.yul\":8502:8503   */\n      0x00\n        /* \"#utility.yul\":8491:8500   */\n      dup4\n        /* \"#utility.yul\":8487:8504   */\n      add\n        /* \"#utility.yul\":8480:8527   */\n      mstore\n        /* \"#utility.yul\":8544:8675   */\n      tag_213\n        /* \"#utility.yul\":8670:8674   */\n      dup2\n        /* \"#utility.yul\":8544:8675   */\n      tag_179\n      jump\t// in\n    tag_213:\n        /* \"#utility.yul\":8536:8675   */\n      swap1\n      pop\n        /* \"#utility.yul\":8263:8682   */\n      swap2\n      swap1\n      pop\n      jump\t// out\n        /* \"#utility.yul\":8688:9107   */\n    tag_37:\n        /* \"#utility.yul\":8854:8858   */\n      0x00\n        /* \"#utility.yul\":8892:8894   */\n      0x20\n        /* \"#utility.yul\":8881:8890   */\n      dup3\n        /* \"#utility.yul\":8877:8895   */\n      add\n        /* \"#utility.yul\":8869:8895   */\n      swap1\n      pop\n        /* \"#utility.yul\":8941:8950   */\n      dup2\n        /* \"#utility.yul\":8935:8939   */\n      dup2\n        /* \"#utility.yul\":8931:8951   */\n      sub\n        /* \"#utility.yul\":8927:8928   */\n      0x00\n        /* \"#utility.yul\":8916:8925   */\n      dup4\n        /* \"#utility.yul\":8912:8929   */\n      add\n        /* \"#utility.yul\":8905:8952   */\n      mstore\n        /* \"#utility.yul\":8969:9100   */\n      tag_215\n        /* \"#utility.yul\":9095:9099   */\n      dup2\n        /* \"#utility.yul\":8969:9100   */\n      tag_184\n      jump\t// in\n    tag_215:\n        /* \"#utility.yul\":8961:9100   */\n      swap1\n      pop\n        /* \"#utility.yul\":8688:9107   */\n      swap2\n      swap1\n      pop\n      jump\t// out\n        /* \"#utility.yul\":9113:9532   */\n    tag_89:\n        /* \"#utility.yul\":9279:9283   */\n      0x00\n        /* \"#utility.yul\":9317:9319   */\n      0x20\n        /* \"#utility.yul\":9306:9315   */\n      dup3\n        /* \"#utility.yul\":9302:9320   */\n      add\n        /* \"#utility.yul\":9294:9320   */\n      swap1\n      pop\n        /* \"#utility.yul\":9366:9375   */\n      dup2\n        /* \"#utility.yul\":9360:9364   */\n      dup2\n        /* \"#utility.yul\":9356:9376   */\n      sub\n        /* \"#utility.yul\":9352:9353   */\n      0x00\n        /* \"#utility.yul\":9341:9350   */\n      dup4\n        /* \"#utility.yul\":9337:9354   */\n      add\n        /* \"#utility.yul\":9330:9377   */\n      mstore\n        /* \"#utility.yul\":9394:9525   */\n      tag_217\n        /* \"#utility.yul\":9520:9524   */\n      dup2\n        /* \"#utility.yul\":9394:9525   */\n      tag_189\n      jump\t// in\n    tag_217:\n        /* \"#utility.yul\":9386:9525   */\n      swap1\n      pop\n        /* \"#utility.yul\":9113:9532   */\n      swap2\n      swap1\n      pop\n      jump\t// out\n        /* \"#utility.yul\":9538:9911   */\n    tag_17:\n        /* \"#utility.yul\":9681:9685   */\n      0x00\n        /* \"#utility.yul\":9719:9721   */\n      0x20\n        /* \"#utility.yul\":9708:9717   */\n      dup3\n        /* \"#utility.yul\":9704:9722   */\n      add\n        /* \"#utility.yul\":9696:9722   */\n      swap1\n      pop\n        /* \"#utility.yul\":9768:9777   */\n      dup2\n        /* \"#utility.yul\":9762:9766   */\n      dup2\n        /* \"#utility.yul\":9758:9778   */\n      sub\n        /* \"#utility.yul\":9754:9755   */\n      0x00\n        /* \"#utility.yul\":9743:9752   */\n      dup4\n        /* \"#utility.yul\":9739:9756   */\n      add\n        /* \"#utility.yul\":9732:9779   */\n      mstore\n        /* \"#utility.yul\":9796:9904   */\n      tag_219\n        /* \"#utility.yul\":9899:9903   */\n      dup2\n        /* \"#utility.yul\":9890:9896   */\n      dup5\n        /* \"#utility.yul\":9796:9904   */\n      tag_194\n      jump\t// in\n    tag_219:\n        /* \"#utility.yul\":9788:9904   */\n      swap1\n      pop\n        /* \"#utility.yul\":9538:9911   */\n      swap3\n      swap2\n      pop\n      pop\n      jump\t// out\n        /* \"#utility.yul\":9917:10046   */\n    tag_113:\n        /* \"#utility.yul\":9951:9957   */\n      0x00\n        /* \"#utility.yul\":9978:9998   */\n      tag_221\n      tag_222\n      jump\t// in\n    tag_221:\n        /* \"#utility.yul\":9968:9998   */\n      swap1\n      pop\n        /* \"#utility.yul\":10007:10040   */\n      tag_223\n        /* \"#utility.yul\":10035:10039   */\n      dup3\n        /* \"#utility.yul\":10027:10033   */\n      dup3\n        /* \"#utility.yul\":10007:10040   */\n      tag_224\n      jump\t// in\n    tag_223:\n        /* \"#utility.yul\":9917:10046   */\n      swap2\n      swap1\n      pop\n      jump\t// out\n        /* \"#utility.yul\":10052:10127   */\n    tag_222:\n        /* \"#utility.yul\":10085:10091   */\n      0x00\n        /* \"#utility.yul\":10118:10120   */\n      0x40\n        /* \"#utility.yul\":10112:10121   */\n      mload\n        /* \"#utility.yul\":10102:10121   */\n      swap1\n      pop\n        /* \"#utility.yul\":10052:10127   */\n      swap1\n      jump\t// out\n        /* \"#utility.yul\":10133:10441   */\n    tag_112:\n        /* \"#utility.yul\":10195:10199   */\n      0x00\n        /* \"#utility.yul\":10285:10303   */\n      0xffffffffffffffff\n        /* \"#utility.yul\":10277:10283   */\n      dup3\n        /* \"#utility.yul\":10274:10304   */\n      gt\n        /* \"#utility.yul\":10271:10327   */\n      iszero\n      tag_227\n      jumpi\n        /* \"#utility.yul\":10307:10325   */\n      tag_228\n      tag_229\n      jump\t// in\n    tag_228:\n        /* \"#utility.yul\":10271:10327   */\n    tag_227:\n        /* \"#utility.yul\":10345:10374   */\n      tag_230\n        /* \"#utility.yul\":10367:10373   */\n      dup3\n        /* \"#utility.yul\":10345:10374   */\n      tag_151\n      jump\t// in\n    tag_230:\n        /* \"#utility.yul\":10337:10374   */\n      swap1\n      pop\n        /* \"#utility.yul\":10429:10433   */\n      0x20\n        /* \"#utility.yul\":10423:10427   */\n      dup2\n        /* \"#utility.yul\":10419:10434   */\n      add\n        /* \"#utility.yul\":10411:10434   */\n      swap1\n      pop\n        /* \"#utility.yul\":10133:10441   */\n      swap2\n      swap1\n      pop\n      jump\t// out\n        /* \"#utility.yul\":10447:10546   */\n    tag_145:\n        /* \"#utility.yul\":10499:10505   */\n      0x00\n        /* \"#utility.yul\":10533:10538   */\n      dup2\n        /* \"#utility.yul\":10527:10539   */\n      mload\n        /* \"#utility.yul\":10517:10539   */\n      swap1\n      pop\n        /* \"#utility.yul\":10447:10546   */\n      swap2\n      swap1\n      pop\n      jump\t// out\n        /* \"#utility.yul\":10552:10711   */\n    tag_147:\n        /* \"#utility.yul\":10626:10637   */\n      0x00\n        /* \"#utility.yul\":10660:10666   */\n      dup3\n        /* \"#utility.yul\":10655:10658   */\n      dup3\n        /* \"#utility.yul\":10648:10667   */\n      mstore\n        /* \"#utility.yul\":10700:10704   */\n      0x20\n        /* \"#utility.yul\":10695:10698   */\n      dup3\n        /* \"#utility.yul\":10691:10705   */\n      add\n        /* \"#utility.yul\":10676:10705   */\n      swap1\n      pop\n        /* \"#utility.yul\":10552:10711   */\n      swap3\n      swap2\n      pop\n      pop\n      jump\t// out\n        /* \"#utility.yul\":10717:10886   */\n    tag_161:\n        /* \"#utility.yul\":10801:10812   */\n      0x00\n        /* \"#utility.yul\":10835:10841   */\n      dup3\n        /* \"#utility.yul\":10830:10833   */\n      dup3\n        /* \"#utility.yul\":10823:10842   */\n      mstore\n        /* \"#utility.yul\":10875:10879   */\n      0x20\n        /* \"#utility.yul\":10870:10873   */\n      dup3\n        /* \"#utility.yul\":10866:10880   */\n      add\n        /* \"#utility.yul\":10851:10880   */\n      swap1\n      pop\n        /* \"#utility.yul\":10717:10886   */\n      swap3\n      swap2\n      pop\n      pop\n      jump\t// out\n        /* \"#utility.yul\":10892:11040   */\n    tag_156:\n        /* \"#utility.yul\":10994:11005   */\n      0x00\n        /* \"#utility.yul\":11031:11034   */\n      dup2\n        /* \"#utility.yul\":11016:11034   */\n      swap1\n      pop\n        /* \"#utility.yul\":10892:11040   */\n      swap3\n      swap2\n      pop\n      pop\n      jump\t// out\n        /* \"#utility.yul\":11046:11351   */\n    tag_69:\n        /* \"#utility.yul\":11086:11089   */\n      0x00\n        /* \"#utility.yul\":11105:11125   */\n      tag_236\n        /* \"#utility.yul\":11123:11124   */\n      dup3\n        /* \"#utility.yul\":11105:11125   */\n      tag_201\n      jump\t// in\n    tag_236:\n        /* \"#utility.yul\":11100:11125   */\n      swap2\n      pop\n        /* \"#utility.yul\":11139:11159   */\n      tag_237\n        /* \"#utility.yul\":11157:11158   */\n      dup4\n        /* \"#utility.yul\":11139:11159   */\n      tag_201\n      jump\t// in\n    tag_237:\n        /* \"#utility.yul\":11134:11159   */\n      swap3\n      pop\n        /* \"#utility.yul\":11293:11294   */\n      dup3\n        /* \"#utility.yul\":11225:11291   */\n      0xffffffffffffffffffffffffffffffffffffffffffffffffffffffffffffffff\n        /* \"#utility.yul\":11221:11295   */\n      sub\n        /* \"#utility.yul\":11218:11219   */\n      dup3\n        /* \"#utility.yul\":11215:11296   */\n      gt\n        /* \"#utility.yul\":11212:11319   */\n      iszero\n      tag_238\n      jumpi\n        /* \"#utility.yul\":11299:11317   */\n      tag_239\n      tag_240\n      jump\t// in\n    tag_239:\n        /* \"#utility.yul\":11212:11319   */\n    tag_238:\n        /* \"#utility.yul\":11343:11344   */\n      dup3\n        /* \"#utility.yul\":11340:11341   */\n      dup3\n        /* \"#utility.yul\":11336:11345   */\n      add\n        /* \"#utility.yul\":11329:11345   */\n      swap1\n      pop\n        /* \"#utility.yul\":11046:11351   */\n      swap3\n      swap2\n      pop\n      pop\n      jump\t// out\n        /* \"#utility.yul\":11357:11434   */\n    tag_201:\n        /* \"#utility.yul\":11394:11401   */\n      0x00\n        /* \"#utility.yul\":11423:11428   */\n      dup2\n        /* \"#utility.yul\":11412:11428   */\n      swap1\n      pop\n        /* \"#utility.yul\":11357:11434   */\n      swap2\n      swap1\n      pop\n      jump\t// out\n        /* \"#utility.yul\":11440:11594   */\n    tag_118:\n        /* \"#utility.yul\":11524:11530   */\n      dup3\n        /* \"#utility.yul\":11519:11522   */\n      dup2\n        /* \"#utility.yul\":11514:11517   */\n      dup4\n        /* \"#utility.yul\":11501:11531   */\n      calldatacopy\n        /* \"#utility.yul\":11586:11587   */\n      0x00\n        /* \"#utility.yul\":11577:11583   */\n      dup4\n        /* \"#utility.yul\":11572:11575   */\n      dup4\n        /* \"#utility.yul\":11568:11584   */\n      add\n        /* \"#utility.yul\":11561:11588   */\n      mstore\n        /* \"#utility.yul\":11440:11594   */\n      pop\n      pop\n      pop\n      jump\t// out\n        /* \"#utility.yul\":11600:11907   */\n    tag_149:\n        /* \"#utility.yul\":11668:11669   */\n      0x00\n        /* \"#utility.yul\":11678:11791   */\n    tag_244:\n        /* \"#utility.yul\":11692:11698   */\n      dup4\n        /* \"#utility.yul\":11689:11690   */\n      dup2\n        /* \"#utility.yul\":11686:11699   */\n      lt\n        /* \"#utility.yul\":11678:11791   */\n      iszero\n      tag_246\n      jumpi\n        /* \"#utility.yul\":11777:11778   */\n      dup1\n        /* \"#utility.yul\":11772:11775   */\n      dup3\n        /* \"#utility.yul\":11768:11779   */\n      add\n        /* \"#utility.yul\":11762:11780   */\n      mload\n        /* \"#utility.yul\":11758:11759   */\n      dup2\n        /* \"#utility.yul\":11753:11756   */\n      dup5\n        /* \"#utility.yul\":11749:11760   */\n      add\n        /* \"#utility.yul\":11742:11781   */\n      mstore\n        /* \"#utility.yul\":11714:11716   */\n      0x20\n        /* \"#utility.yul\":11711:11712   */\n      dup2\n        /* \"#utility.yul\":11707:11717   */\n      add\n        /* \"#utility.yul\":11702:11717   */\n      swap1\n      pop\n        /* \"#utility.yul\":11678:11791   */\n      jump(tag_244)\n    tag_246:\n        /* \"#utility.yul\":11809:11815   */\n      dup4\n        /* \"#utility.yul\":11806:11807   */\n      dup2\n        /* \"#utility.yul\":11803:11816   */\n      gt\n        /* \"#utility.yul\":11800:11901   */\n      iszero\n      tag_247\n      jumpi\n        /* \"#utility.yul\":11889:11890   */\n      0x00\n        /* \"#utility.yul\":11880:11886   */\n      dup5\n        /* \"#utility.yul\":11875:11878   */\n      dup5\n        /* \"#utility.yul\":11871:11887   */\n      add\n        /* \"#utility.yul\":11864:11891   */\n      mstore\n        /* \"#utility.yul\":11800:11901   */\n    tag_247:\n        /* \"#utility.yul\":11649:11907   */\n      pop\n        /* \"#utility.yul\":11600:11907   */\n      pop\n      pop\n      pop\n      jump\t// out\n        /* \"#utility.yul\":11913:12233   */\n    tag_53:\n        /* \"#utility.yul\":11957:11963   */\n      0x00\n        /* \"#utility.yul\":11994:11995   */\n      0x02\n        /* \"#utility.yul\":11988:11992   */\n      dup3\n        /* \"#utility.yul\":11984:11996   */\n      div\n        /* \"#utility.yul\":11974:11996   */\n      swap1\n      pop\n        /* \"#utility.yul\":12041:12042   */\n      0x01\n        /* \"#utility.yul\":12035:12039   */\n      dup3\n        /* \"#utility.yul\":12031:12043   */\n      and\n        /* \"#utility.yul\":12062:12080   */\n      dup1\n        /* \"#utility.yul\":12052:12133   */\n      tag_249\n      jumpi\n        /* \"#utility.yul\":12118:12122   */\n      0x7f\n        /* \"#utility.yul\":12110:12116   */\n      dup3\n        /* \"#utility.yul\":12106:12123   */\n      and\n        /* \"#utility.yul\":12096:12123   */\n      swap2\n      pop\n        /* \"#utility.yul\":12052:12133   */\n    tag_249:\n        /* \"#utility.yul\":12180:12182   */\n      0x20\n        /* \"#utility.yul\":12172:12178   */\n      dup3\n        /* \"#utility.yul\":12169:12183   */\n      lt\n        /* \"#utility.yul\":12149:12167   */\n      dup2\n        /* \"#utility.yul\":12146:12184   */\n      eq\n        /* \"#utility.yul\":12143:12227   */\n      iszero\n      tag_250\n      jumpi\n        /* \"#utility.yul\":12199:12217   */\n      tag_251\n      tag_252\n      jump\t// in\n    tag_251:\n        /* \"#utility.yul\":12143:12227   */\n    tag_250:\n        /* \"#utility.yul\":11964:12233   */\n      pop\n        /* \"#utility.yul\":11913:12233   */\n      swap2\n      swap1\n      pop\n      jump\t// out\n        /* \"#utility.yul\":12239:12520   */\n    tag_224:\n        /* \"#utility.yul\":12322:12349   */\n      tag_254\n        /* \"#utility.yul\":12344:12348   */\n      dup3\n        /* \"#utility.yul\":12322:12349   */\n      tag_151\n      jump\t// in\n    tag_254:\n        /* \"#utility.yul\":12314:12320   */\n      dup2\n        /* \"#utility.yul\":12310:12350   */\n      add\n        /* \"#utility.yul\":12452:12458   */\n      dup2\n        /* \"#utility.yul\":12440:12450   */\n      dup2\n        /* \"#utility.yul\":12437:12459   */\n      lt\n        /* \"#utility.yul\":12416:12434   */\n      0xffffffffffffffff\n        /* \"#utility.yul\":12404:12414   */\n      dup3\n        /* \"#utility.yul\":12401:12435   */\n      gt\n        /* \"#utility.yul\":12398:12460   */\n      or\n        /* \"#utility.yul\":12395:12483   */\n      iszero\n      tag_255\n      jumpi\n        /* \"#utility.yul\":12463:12481   */\n      tag_256\n      tag_229\n      jump\t// in\n    tag_256:\n        /* \"#utility.yul\":12395:12483   */\n    tag_255:\n        /* \"#utility.yul\":12503:12513   */\n      dup1\n        /* \"#utility.yul\":12499:12501   */\n      0x40\n        /* \"#utility.yul\":12492:12514   */\n      mstore\n        /* \"#utility.yul\":12282:12520   */\n      pop\n        /* \"#utility.yul\":12239:12520   */\n      pop\n      pop\n      jump\t// out\n        /* \"#utility.yul\":12526:12706   */\n    tag_240:\n        /* \"#utility.yul\":12574:12651   */\n      0x4e487b7100000000000000000000000000000000000000000000000000000000\n        /* \"#utility.yul\":12571:12572   */\n      0x00\n        /* \"#utility.yul\":12564:12652   */\n      mstore\n        /* \"#utility.yul\":12671:12675   */\n      0x11\n        /* \"#utility.yul\":12668:12669   */\n      0x04\n        /* \"#utility.yul\":12661:12676   */\n      mstore\n        /* \"#utility.yul\":12695:12699   */\n      0x24\n        /* \"#utility.yul\":12692:12693   */\n      0x00\n        /* \"#utility.yul\":12685:12700   */\n      revert\n        /* \"#utility.yul\":12712:12892   */\n    tag_252:\n        /* \"#utility.yul\":12760:12837   */\n      0x4e487b7100000000000000000000000000000000000000000000000000000000\n        /* \"#utility.yul\":12757:12758   */\n      0x00\n        /* \"#utility.yul\":12750:12838   */\n      mstore\n        /* \"#utility.yul\":12857:12861   */\n      0x22\n        /* \"#utility.yul\":12854:12855   */\n      0x04\n        /* \"#utility.yul\":12847:12862   */\n      mstore\n        /* \"#utility.yul\":12881:12885   */\n      0x24\n        /* \"#utility.yul\":12878:12879   */\n      0x00\n        /* \"#utility.yul\":12871:12886   */\n      revert\n        /* \"#utility.yul\":12898:13078   */\n    tag_229:\n        /* \"#utility.yul\":12946:13023   */\n      0x4e487b7100000000000000000000000000000000000000000000000000000000\n        /* \"#utility.yul\":12943:12944   */\n      0x00\n        /* \"#utility.yul\":12936:13024   */\n      mstore\n        /* \"#utility.yul\":13043:13047   */\n      0x41\n        /* \"#utility.yul\":13040:13041   */\n      0x04\n        /* \"#utility.yul\":13033:13048   */\n      mstore\n        /* \"#utility.yul\":13067:13071   */\n      0x24\n        /* \"#utility.yul\":13064:13065   */\n      0x00\n        /* \"#utility.yul\":13057:13072   */\n      revert\n        /* \"#utility.yul\":13084:13201   */\n    tag_123:\n        /* \"#utility.yul\":13193:13194   */\n      0x00\n        /* \"#utility.yul\":13190:13191   */\n      dup1\n        /* \"#utility.yul\":13183:13195   */\n      revert\n        /* \"#utility.yul\":13207:13324   */\n    tag_116:\n        /* \"#utility.yul\":13316:13317   */\n      0x00\n        /* \"#utility.yul\":13313:13314   */\n      dup1\n        /* \"#utility.yul\":13306:13318   */\n      revert\n        /* \"#utility.yul\":13330:13447   */\n    tag_131:\n        /* \"#utility.yul\":13439:13440   */\n      0x00\n        /* \"#utility.yul\":13436:13437   */\n      dup1\n        /* \"#utility.yul\":13429:13441   */\n      revert\n        /* \"#utility.yul\":13453:13570   */\n    tag_128:\n        /* \"#utility.yul\":13562:13563   */\n      0x00\n        /* \"#utility.yul\":13559:13560   */\n      dup1\n        /* \"#utility.yul\":13552:13564   */\n      revert\n        /* \"#utility.yul\":13576:13678   */\n    tag_151:\n        /* \"#utility.yul\":13617:13623   */\n      0x00\n        /* \"#utility.yul\":13668:13670   */\n      0x1f\n        /* \"#utility.yul\":13664:13671   */\n      not\n        /* \"#utility.yul\":13659:13661   */\n      0x1f\n        /* \"#utility.yul\":13652:13657   */\n      dup4\n        /* \"#utility.yul\":13648:13662   */\n      add\n        /* \"#utility.yul\":13644:13672   */\n      and\n        /* \"#utility.yul\":13634:13672   */\n      swap1\n      pop\n        /* \"#utility.yul\":13576:13678   */\n      swap2\n      swap1\n      pop\n      jump\t// out\n        /* \"#utility.yul\":13684:13854   */\n    tag_163:\n        /* \"#utility.yul\":13824:13846   */\n      0x556e617574686f72697a6564204163636573732e000000000000000000000000\n        /* \"#utility.yul\":13820:13821   */\n      0x00\n        /* \"#utility.yul\":13812:13818   */\n      dup3\n        /* \"#utility.yul\":13808:13822   */\n      add\n        /* \"#utility.yul\":13801:13847   */\n      mstore\n        /* \"#utility.yul\":13684:13854   */\n      pop\n      jump\t// out\n        /* \"#utility.yul\":13860:14031   */\n    tag_168:\n        /* \"#utility.yul\":14000:14023   */\n      0x53796d626f6c2063616e277420626520656d7074790000000000000000000000\n        /* \"#utility.yul\":13996:13997   */\n      0x00\n        /* \"#utility.yul\":13988:13994   */\n      dup3\n        /* \"#utility.yul\":13984:13998   */\n      add\n        /* \"#utility.yul\":13977:14024   */\n      mstore\n        /* \"#utility.yul\":13860:14031   */\n      pop\n      jump\t// out\n        /* \"#utility.yul\":14037:14203   */\n    tag_173:\n        /* \"#utility.yul\":14177:14195   */\n      0x416c726561647920537461727465642e00000000000000000000000000000000\n        /* \"#utility.yul\":14173:14174   */\n      0x00\n        /* \"#utility.yul\":14165:14171   */\n      dup3\n        /* \"#utility.yul\":14161:14175   */\n      add\n        /* \"#utility.yul\":14154:14196   */\n      mstore\n        /* \"#utility.yul\":14037:14203   */\n      pop\n      jump\t// out\n        /* \"#utility.yul\":14209:14435   */\n    tag_178:\n        /* \"#utility.yul\":14349:14383   */\n      0x41746c6561737420322063616e646964617465206d7573742062652072656769\n        /* \"#utility.yul\":14345:14346   */\n      0x00\n        /* \"#utility.yul\":14337:14343   */\n      dup3\n        /* \"#utility.yul\":14333:14347   */\n      add\n        /* \"#utility.yul\":14326:14384   */\n      mstore\n        /* \"#utility.yul\":14418:14427   */\n      0x7374657265642e00000000000000000000000000000000000000000000000000\n        /* \"#utility.yul\":14413:14415   */\n      0x20\n        /* \"#utility.yul\":14405:14411   */\n      dup3\n        /* \"#utility.yul\":14401:14416   */\n      add\n        /* \"#utility.yul\":14394:14428   */\n      mstore\n        /* \"#utility.yul\":14209:14435   */\n      pop\n      jump\t// out\n        /* \"#utility.yul\":14441:14604   */\n    tag_183:\n        /* \"#utility.yul\":14581:14596   */\n      0x496e76616c696420496e70757400000000000000000000000000000000000000\n        /* \"#utility.yul\":14577:14578   */\n      0x00\n        /* \"#utility.yul\":14569:14575   */\n      dup3\n        /* \"#utility.yul\":14565:14579   */\n      add\n        /* \"#utility.yul\":14558:14597   */\n      mstore\n        /* \"#utility.yul\":14441:14604   */\n      pop\n      jump\t// out\n        /* \"#utility.yul\":14610:14779   */\n    tag_188:\n        /* \"#utility.yul\":14750:14771   */\n      0x4e616d652043616e277420626520656d70747900000000000000000000000000\n        /* \"#utility.yul\":14746:14747   */\n      0x00\n        /* \"#utility.yul\":14738:14744   */\n      dup3\n        /* \"#utility.yul\":14734:14748   */\n      add\n        /* \"#utility.yul\":14727:14772   */\n      mstore\n        /* \"#utility.yul\":14610:14779   */\n      pop\n      jump\t// out\n        /* \"#utility.yul\":14785:15011   */\n    tag_193:\n        /* \"#utility.yul\":14925:14959   */\n      0x41746c6561737420312063616e646964617465206d7573742062652072656769\n        /* \"#utility.yul\":14921:14922   */\n      0x00\n        /* \"#utility.yul\":14913:14919   */\n      dup3\n        /* \"#utility.yul\":14909:14923   */\n      add\n        /* \"#utility.yul\":14902:14960   */\n      mstore\n        /* \"#utility.yul\":14994:15003   */\n      0x7374657265642e00000000000000000000000000000000000000000000000000\n        /* \"#utility.yul\":14989:14991   */\n      0x20\n        /* \"#utility.yul\":14981:14987   */\n      dup3\n        /* \"#utility.yul\":14977:14992   */\n      add\n        /* \"#utility.yul\":14970:15004   */\n      mstore\n        /* \"#utility.yul\":14785:15011   */\n      pop\n      jump\t// out\n\n    auxdata: 0xa26469706673582212200b265aebd63ed4e2269693a5cb8b98b1c4b63f9ffb4597a52bdbe10d187f57cf64736f6c63430008070033\n}\n",
				"bytecode": {
					"linkReferences": {},
					"object": "60806040526000600160146101000a81548160ff02191690831515021790555034801561002b57600080fd5b5033600160006101000a81548173ffffffffffffffffffffffffffffffffffffffff021916908373ffffffffffffffffffffffffffffffffffffffff16021790555061105e8061007c6000396000f3fe608060405234801561001057600080fd5b50600436106100575760003560e01c8063137967a61461005c578063196b2e24146100785780631f6d52c5146100a85780634c0a6af0146100c457806388feb516146100ce575b600080fd5b6100766004803603810190610071919061093c565b6100ea565b005b610092600480360381019061008d91906108f3565b6102f8565b60405161009f9190610c56565b60405180910390f35b6100c260048036038101906100bd91906108f3565b6103cc565b005b6100cc6104d0565b005b6100e860048036038101906100e391906108f3565b61061b565b005b600160009054906101000a900473ffffffffffffffffffffffffffffffffffffffff1673ffffffffffffffffffffffffffffffffffffffff163373ffffffffffffffffffffffffffffffffffffffff161461017a576040517f08c379a000000000000000000000000000000000000000000000000000000000815260040161017190610b76565b60405180910390fd5b60011515600160149054906101000a900460ff16151514156101d1576040517f08c379a00000000000000000000000000000000000000000000000000000000081526004016101c890610bb6565b60405180910390fd5b600082511415610216576040517f08c379a000000000000000000000000000000000000000000000000000000000815260040161020d90610c16565b60405180910390fd5b60008151141561025b576040517f08c379a000000000000000000000000000000000000000000000000000000000815260040161025290610b96565b60405180910390fd5b600281908060018154018082558091505060019003906000526020600020016000909190919091509080519060200190610296929190610786565b50816003826040516102a89190610b5f565b908152602001604051809103902060000190805190602001906102cc929190610786565b5060006003826040516102df9190610b5f565b9081526020016040518091039020600101819055505050565b61030061080c565b6003826040516103109190610b5f565b908152602001604051809103902060405180604001604052908160008201805461033990610da8565b80601f016020809104026020016040519081016040528092919081815260200182805461036590610da8565b80156103b25780601f10610387576101008083540402835291602001916103b2565b820191906000526020600020905b81548152906001019060200180831161039557829003601f168201915b505050505081526020016001820154815250509050919050565b60011515600160149054906101000a900460ff1615151415610423576040517f08c379a000000000000000000000000000000000000000000000000000000000815260040161041a90610bb6565b60405180910390fd5b60006003826040516104359190610b5f565b9081526020016040518091039020600001805461045190610da8565b90501415610494576040517f08c379a000000000000000000000000000000000000000000000000000000000815260040161048b90610bf6565b60405180910390fd5b60016003826040516104a69190610b5f565b908152602001604051809103902060010160008282546104c69190610d06565b9250508190555050565b600160009054906101000a900473ffffffffffffffffffffffffffffffffffffffff1673ffffffffffffffffffffffffffffffffffffffff163373ffffffffffffffffffffffffffffffffffffffff1614610560576040517f08c379a000000000000000000000000000000000000000000000000000000000815260040161055790610b76565b60405180910390fd5b60011515600160149054906101000a900460ff16151514156105b7576040517f08c379a00000000000000000000000000000000000000000000000000000000081526004016105ae90610bb6565b60405180910390fd5b6000600280549050116105ff576040517f08c379a00000000000000000000000000000000000000000000000000000000081526004016105f690610bd6565b60405180910390fd5b60018060146101000a81548160ff021916908315150217905550565b600160009054906101000a900473ffffffffffffffffffffffffffffffffffffffff1673ffffffffffffffffffffffffffffffffffffffff163373ffffffffffffffffffffffffffffffffffffffff16146106ab576040517f08c379a00000000000000000000000000000000000000000000000000000000081526004016106a290610b76565b60405180910390fd5b60011515600160149054906101000a900460ff1615151415610702576040517f08c379a00000000000000000000000000000000000000000000000000000000081526004016106f990610bb6565b60405180910390fd5b60006002805490501161074a576040517f08c379a000000000000000000000000000000000000000000000000000000000815260040161074190610c36565b60405180910390fd5b60038160405161075a9190610b5f565b9081526020016040518091039020600080820160006107799190610826565b6001820160009055505050565b82805461079290610da8565b90600052602060002090601f0160209004810192826107b457600085556107fb565b82601f106107cd57805160ff19168380011785556107fb565b828001600101855582156107fb579182015b828111156107fa5782518255916020019190600101906107df565b5b5090506108089190610866565b5090565b604051806040016040528060608152602001600081525090565b50805461083290610da8565b6000825580601f106108445750610863565b601f0160209004906000526020600020908101906108629190610866565b5b50565b5b8082111561087f576000816000905550600101610867565b5090565b600061089661089184610c9d565b610c78565b9050828152602081018484840111156108b2576108b1610e9d565b5b6108bd848285610d66565b509392505050565b600082601f8301126108da576108d9610e98565b5b81356108ea848260208601610883565b91505092915050565b60006020828403121561090957610908610ea7565b5b600082013567ffffffffffffffff81111561092757610926610ea2565b5b610933848285016108c5565b91505092915050565b6000806040838503121561095357610952610ea7565b5b600083013567ffffffffffffffff81111561097157610970610ea2565b5b61097d858286016108c5565b925050602083013567ffffffffffffffff81111561099e5761099d610ea2565b5b6109aa858286016108c5565b9150509250929050565b60006109bf82610cce565b6109c98185610cd9565b93506109d9818560208601610d75565b6109e281610eac565b840191505092915050565b60006109f882610cce565b610a028185610cfb565b9350610a12818560208601610d75565b80840191505092915050565b6000610a2b601483610cea565b9150610a3682610ebd565b602082019050919050565b6000610a4e601583610cea565b9150610a5982610ee6565b602082019050919050565b6000610a71601083610cea565b9150610a7c82610f0f565b602082019050919050565b6000610a94602783610cea565b9150610a9f82610f38565b604082019050919050565b6000610ab7600d83610cea565b9150610ac282610f87565b602082019050919050565b6000610ada601383610cea565b9150610ae582610fb0565b602082019050919050565b6000610afd602783610cea565b9150610b0882610fd9565b604082019050919050565b60006040830160008301518482036000860152610b3082826109b4565b9150506020830151610b456020860182610b50565b508091505092915050565b610b5981610d5c565b82525050565b6000610b6b82846109ed565b915081905092915050565b60006020820190508181036000830152610b8f81610a1e565b9050919050565b60006020820190508181036000830152610baf81610a41565b9050919050565b60006020820190508181036000830152610bcf81610a64565b9050919050565b60006020820190508181036000830152610bef81610a87565b9050919050565b60006020820190508181036000830152610c0f81610aaa565b9050919050565b60006020820190508181036000830152610c2f81610acd565b9050919050565b60006020820190508181036000830152610c4f81610af0565b9050919050565b60006020820190508181036000830152610c708184610b13565b905092915050565b6000610c82610c93565b9050610c8e8282610dda565b919050565b6000604051905090565b600067ffffffffffffffff821115610cb857610cb7610e69565b5b610cc182610eac565b9050602081019050919050565b600081519050919050565b600082825260208201905092915050565b600082825260208201905092915050565b600081905092915050565b6000610d1182610d5c565b9150610d1c83610d5c565b9250827fffffffffffffffffffffffffffffffffffffffffffffffffffffffffffffffff03821115610d5157610d50610e0b565b5b828201905092915050565b6000819050919050565b82818337600083830152505050565b60005b83811015610d93578082015181840152602081019050610d78565b83811115610da2576000848401525b50505050565b60006002820490506001821680610dc057607f821691505b60208210811415610dd457610dd3610e3a565b5b50919050565b610de382610eac565b810181811067ffffffffffffffff82111715610e0257610e01610e69565b5b80604052505050565b7f4e487b7100000000000000000000000000000000000000000000000000000000600052601160045260246000fd5b7f4e487b7100000000000000000000000000000000000000000000000000000000600052602260045260246000fd5b7f4e487b7100000000000000000000000000000000000000000000000000000000600052604160045260246000fd5b600080fd5b600080fd5b600080fd5b600080fd5b6000601f19601f8301169050919050565b7f556e617574686f72697a6564204163636573732e000000000000000000000000600082015250565b7f53796d626f6c2063616e277420626520656d7074790000000000000000000000600082015250565b7f416c726561647920537461727465642e00000000000000000000000000000000600082015250565b7f41746c6561737420322063616e646964617465206d757374206265207265676960008201527f7374657265642e00000000000000000000000000000000000000000000000000602082015250565b7f496e76616c696420496e70757400000000000000000000000000000000000000600082015250565b7f4e616d652043616e277420626520656d70747900000000000000000000000000600082015250565b7f41746c6561737420312063616e646964617465206d757374206265207265676960008201527f7374657265642e0000000000000000000000000000000000000000000000000060208201525056fea26469706673582212200b265aebd63ed4e2269693a5cb8b98b1c4b63f9ffb4597a52bdbe10d187f57cf64736f6c63430008070033",
					"opcodes": "PUSH1 0x80 PUSH1 0x40 MSTORE PUSH1 0x0 PUSH1 0x1 PUSH1 0x14 PUSH2 0x100 EXP DUP2 SLOAD DUP2 PUSH1 0xFF MUL NOT AND SWAP1 DUP4 ISZERO ISZERO MUL OR SWAP1 SSTORE POP CALLVALUE DUP1 ISZERO PUSH2 0x2B JUMPI PUSH1 0x0 DUP1 REVERT JUMPDEST POP CALLER PUSH1 0x1 PUSH1 0x0 PUSH2 0x100 EXP DUP2 SLOAD DUP2 PUSH20 0xFFFFFFFFFFFFFFFFFFFFFFFFFFFFFFFFFFFFFFFF MUL NOT AND SWAP1 DUP4 PUSH20 0xFFFFFFFFFFFFFFFFFFFFFFFFFFFFFFFFFFFFFFFF AND MUL OR SWAP1 SSTORE POP PUSH2 0x105E DUP1 PUSH2 0x7C PUSH1 0x0 CODECOPY PUSH1 0x0 RETURN INVALID PUSH1 0x80 PUSH1 0x40 MSTORE CALLVALUE DUP1 ISZERO PUSH2 0x10 JUMPI PUSH1 0x0 DUP1 REVERT JUMPDEST POP PUSH1 0x4 CALLDATASIZE LT PUSH2 0x57 JUMPI PUSH1 0x0 CALLDATALOAD PUSH1 0xE0 SHR DUP1 PUSH4 0x137967A6 EQ PUSH2 0x5C JUMPI DUP1 PUSH4 0x196B2E24 EQ PUSH2 0x78 JUMPI DUP1 PUSH4 0x1F6D52C5 EQ PUSH2 0xA8 JUMPI DUP1 PUSH4 0x4C0A6AF0 EQ PUSH2 0xC4 JUMPI DUP1 PUSH4 0x88FEB516 EQ PUSH2 0xCE JUMPI JUMPDEST PUSH1 0x0 DUP1 REVERT JUMPDEST PUSH2 0x76 PUSH1 0x4 DUP1 CALLDATASIZE SUB DUP2 ADD SWAP1 PUSH2 0x71 SWAP2 SWAP1 PUSH2 0x93C JUMP JUMPDEST PUSH2 0xEA JUMP JUMPDEST STOP JUMPDEST PUSH2 0x92 PUSH1 0x4 DUP1 CALLDATASIZE SUB DUP2 ADD SWAP1 PUSH2 0x8D SWAP2 SWAP1 PUSH2 0x8F3 JUMP JUMPDEST PUSH2 0x2F8 JUMP JUMPDEST PUSH1 0x40 MLOAD PUSH2 0x9F SWAP2 SWAP1 PUSH2 0xC56 JUMP JUMPDEST PUSH1 0x40 MLOAD DUP1 SWAP2 SUB SWAP1 RETURN JUMPDEST PUSH2 0xC2 PUSH1 0x4 DUP1 CALLDATASIZE SUB DUP2 ADD SWAP1 PUSH2 0xBD SWAP2 SWAP1 PUSH2 0x8F3 JUMP JUMPDEST PUSH2 0x3CC JUMP JUMPDEST STOP JUMPDEST PUSH2 0xCC PUSH2 0x4D0 JUMP JUMPDEST STOP JUMPDEST PUSH2 0xE8 PUSH1 0x4 DUP1 CALLDATASIZE SUB DUP2 ADD SWAP1 PUSH2 0xE3 SWAP2 SWAP1 PUSH2 0x8F3 JUMP JUMPDEST PUSH2 0x61B JUMP JUMPDEST STOP JUMPDEST PUSH1 0x1 PUSH1 0x0 SWAP1 SLOAD SWAP1 PUSH2 0x100 EXP SWAP1 DIV PUSH20 0xFFFFFFFFFFFFFFFFFFFFFFFFFFFFFFFFFFFFFFFF AND PUSH20 0xFFFFFFFFFFFFFFFFFFFFFFFFFFFFFFFFFFFFFFFF AND CALLER PUSH20 0xFFFFFFFFFFFFFFFFFFFFFFFFFFFFFFFFFFFFFFFF AND EQ PUSH2 0x17A JUMPI PUSH1 0x40 MLOAD PUSH32 0x8C379A000000000000000000000000000000000000000000000000000000000 DUP2 MSTORE PUSH1 0x4 ADD PUSH2 0x171 SWAP1 PUSH2 0xB76 JUMP JUMPDEST PUSH1 0x40 MLOAD DUP1 SWAP2 SUB SWAP1 REVERT JUMPDEST PUSH1 0x1 ISZERO ISZERO PUSH1 0x1 PUSH1 0x14 SWAP1 SLOAD SWAP1 PUSH2 0x100 EXP SWAP1 DIV PUSH1 0xFF AND ISZERO ISZERO EQ ISZERO PUSH2 0x1D1 JUMPI PUSH1 0x40 MLOAD PUSH32 0x8C379A000000000000000000000000000000000000000000000000000000000 DUP2 MSTORE PUSH1 0x4 ADD PUSH2 0x1C8 SWAP1 PUSH2 0xBB6 JUMP JUMPDEST PUSH1 0x40 MLOAD DUP1 SWAP2 SUB SWAP1 REVERT JUMPDEST PUSH1 0x0 DUP3 MLOAD EQ ISZERO PUSH2 0x216 JUMPI PUSH1 0x40 MLOAD PUSH32 0x8C379A000000000000000000000000000000000000000000000000000000000 DUP2 MSTORE PUSH1 0x4 ADD PUSH2 0x20D SWAP1 PUSH2 0xC16 JUMP JUMPDEST PUSH1 0x40 MLOAD DUP1 SWAP2 SUB SWAP1 REVERT JUMPDEST PUSH1 0x0 DUP2 MLOAD EQ ISZERO PUSH2 0x25B JUMPI PUSH1 0x40 MLOAD PUSH32 0x8C379A000000000000000000000000000000000000000000000000000000000 DUP2 MSTORE PUSH1 0x4 ADD PUSH2 0x252 SWAP1 PUSH2 0xB96 JUMP JUMPDEST PUSH1 0x40 MLOAD DUP1 SWAP2 SUB SWAP1 REVERT JUMPDEST PUSH1 0x2 DUP2 SWAP1 DUP1 PUSH1 0x1 DUP2 SLOAD ADD DUP1 DUP3 SSTORE DUP1 SWAP2 POP POP PUSH1 0x1 SWAP1 SUB SWAP1 PUSH1 0x0 MSTORE PUSH1 0x20 PUSH1 0x0 KECCAK256 ADD PUSH1 0x0 SWAP1 SWAP2 SWAP1 SWAP2 SWAP1 SWAP2 POP SWAP1 DUP1 MLOAD SWAP1 PUSH1 0x20 ADD SWAP1 PUSH2 0x296 SWAP3 SWAP2 SWAP1 PUSH2 0x786 JUMP JUMPDEST POP DUP2 PUSH1 0x3 DUP3 PUSH1 0x40 MLOAD PUSH2 0x2A8 SWAP2 SWAP1 PUSH2 0xB5F JUMP JUMPDEST SWAP1 DUP2 MSTORE PUSH1 0x20 ADD PUSH1 0x40 MLOAD DUP1 SWAP2 SUB SWAP1 KECCAK256 PUSH1 0x0 ADD SWAP1 DUP1 MLOAD SWAP1 PUSH1 0x20 ADD SWAP1 PUSH2 0x2CC SWAP3 SWAP2 SWAP1 PUSH2 0x786 JUMP JUMPDEST POP PUSH1 0x0 PUSH1 0x3 DUP3 PUSH1 0x40 MLOAD PUSH2 0x2DF SWAP2 SWAP1 PUSH2 0xB5F JUMP JUMPDEST SWAP1 DUP2 MSTORE PUSH1 0x20 ADD PUSH1 0x40 MLOAD DUP1 SWAP2 SUB SWAP1 KECCAK256 PUSH1 0x1 ADD DUP2 SWAP1 SSTORE POP POP POP JUMP JUMPDEST PUSH2 0x300 PUSH2 0x80C JUMP JUMPDEST PUSH1 0x3 DUP3 PUSH1 0x40 MLOAD PUSH2 0x310 SWAP2 SWAP1 PUSH2 0xB5F JUMP JUMPDEST SWAP1 DUP2 MSTORE PUSH1 0x20 ADD PUSH1 0x40 MLOAD DUP1 SWAP2 SUB SWAP1 KECCAK256 PUSH1 0x40 MLOAD DUP1 PUSH1 0x40 ADD PUSH1 0x40 MSTORE SWAP1 DUP2 PUSH1 0x0 DUP3 ADD DUP1 SLOAD PUSH2 0x339 SWAP1 PUSH2 0xDA8 JUMP JUMPDEST DUP1 PUSH1 0x1F ADD PUSH1 0x20 DUP1 SWAP2 DIV MUL PUSH1 0x20 ADD PUSH1 0x40 MLOAD SWAP1 DUP2 ADD PUSH1 0x40 MSTORE DUP1 SWAP3 SWAP2 SWAP1 DUP2 DUP2 MSTORE PUSH1 0x20 ADD DUP3 DUP1 SLOAD PUSH2 0x365 SWAP1 PUSH2 0xDA8 JUMP JUMPDEST DUP1 ISZERO PUSH2 0x3B2 JUMPI DUP1 PUSH1 0x1F LT PUSH2 0x387 JUMPI PUSH2 0x100 DUP1 DUP4 SLOAD DIV MUL DUP4 MSTORE SWAP2 PUSH1 0x20 ADD SWAP2 PUSH2 0x3B2 JUMP JUMPDEST DUP3 ADD SWAP2 SWAP1 PUSH1 0x0 MSTORE PUSH1 0x20 PUSH1 0x0 KECCAK256 SWAP1 JUMPDEST DUP2 SLOAD DUP2 MSTORE SWAP1 PUSH1 0x1 ADD SWAP1 PUSH1 0x20 ADD DUP1 DUP4 GT PUSH2 0x395 JUMPI DUP3 SWAP1 SUB PUSH1 0x1F AND DUP3 ADD SWAP2 JUMPDEST POP POP POP POP POP DUP2 MSTORE PUSH1 0x20 ADD PUSH1 0x1 DUP3 ADD SLOAD DUP2 MSTORE POP POP SWAP1 POP SWAP2 SWAP1 POP JUMP JUMPDEST PUSH1 0x1 ISZERO ISZERO PUSH1 0x1 PUSH1 0x14 SWAP1 SLOAD SWAP1 PUSH2 0x100 EXP SWAP1 DIV PUSH1 0xFF AND ISZERO ISZERO EQ ISZERO PUSH2 0x423 JUMPI PUSH1 0x40 MLOAD PUSH32 0x8C379A000000000000000000000000000000000000000000000000000000000 DUP2 MSTORE PUSH1 0x4 ADD PUSH2 0x41A SWAP1 PUSH2 0xBB6 JUMP JUMPDEST PUSH1 0x40 MLOAD DUP1 SWAP2 SUB SWAP1 REVERT JUMPDEST PUSH1 0x0 PUSH1 0x3 DUP3 PUSH1 0x40 MLOAD PUSH2 0x435 SWAP2 SWAP1 PUSH2 0xB5F JUMP JUMPDEST SWAP1 DUP2 MSTORE PUSH1 0x20 ADD PUSH1 0x40 MLOAD DUP1 SWAP2 SUB SWAP1 KECCAK256 PUSH1 0x0 ADD DUP1 SLOAD PUSH2 0x451 SWAP1 PUSH2 0xDA8 JUMP JUMPDEST SWAP1 POP EQ ISZERO PUSH2 0x494 JUMPI PUSH1 0x40 MLOAD PUSH32 0x8C379A000000000000000000000000000000000000000000000000000000000 DUP2 MSTORE PUSH1 0x4 ADD PUSH2 0x48B SWAP1 PUSH2 0xBF6 JUMP JUMPDEST PUSH1 0x40 MLOAD DUP1 SWAP2 SUB SWAP1 REVERT JUMPDEST PUSH1 0x1 PUSH1 0x3 DUP3 PUSH1 0x40 MLOAD PUSH2 0x4A6 SWAP2 SWAP1 PUSH2 0xB5F JUMP JUMPDEST SWAP1 DUP2 MSTORE PUSH1 0x20 ADD PUSH1 0x40 MLOAD DUP1 SWAP2 SUB SWAP1 KECCAK256 PUSH1 0x1 ADD PUSH1 0x0 DUP3 DUP3 SLOAD PUSH2 0x4C6 SWAP2 SWAP1 PUSH2 0xD06 JUMP JUMPDEST SWAP3 POP POP DUP2 SWAP1 SSTORE POP POP JUMP JUMPDEST PUSH1 0x1 PUSH1 0x0 SWAP1 SLOAD SWAP1 PUSH2 0x100 EXP SWAP1 DIV PUSH20 0xFFFFFFFFFFFFFFFFFFFFFFFFFFFFFFFFFFFFFFFF AND PUSH20 0xFFFFFFFFFFFFFFFFFFFFFFFFFFFFFFFFFFFFFFFF AND CALLER PUSH20 0xFFFFFFFFFFFFFFFFFFFFFFFFFFFFFFFFFFFFFFFF AND EQ PUSH2 0x560 JUMPI PUSH1 0x40 MLOAD PUSH32 0x8C379A000000000000000000000000000000000000000000000000000000000 DUP2 MSTORE PUSH1 0x4 ADD PUSH2 0x557 SWAP1 PUSH2 0xB76 JUMP JUMPDEST PUSH1 0x40 MLOAD DUP1 SWAP2 SUB SWAP1 REVERT JUMPDEST PUSH1 0x1 ISZERO ISZERO PUSH1 0x1 PUSH1 0x14 SWAP1 SLOAD SWAP1 PUSH2 0x100 EXP SWAP1 DIV PUSH1 0xFF AND ISZERO ISZERO EQ ISZERO PUSH2 0x5B7 JUMPI PUSH1 0x40 MLOAD PUSH32 0x8C379A000000000000000000000000000000000000000000000000000000000 DUP2 MSTORE PUSH1 0x4 ADD PUSH2 0x5AE SWAP1 PUSH2 0xBB6 JUMP JUMPDEST PUSH1 0x40 MLOAD DUP1 SWAP2 SUB SWAP1 REVERT JUMPDEST PUSH1 0x0 PUSH1 0x2 DUP1 SLOAD SWAP1 POP GT PUSH2 0x5FF JUMPI PUSH1 0x40 MLOAD PUSH32 0x8C379A000000000000000000000000000000000000000000000000000000000 DUP2 MSTORE PUSH1 0x4 ADD PUSH2 0x5F6 SWAP1 PUSH2 0xBD6 JUMP JUMPDEST PUSH1 0x40 MLOAD DUP1 SWAP2 SUB SWAP1 REVERT JUMPDEST PUSH1 0x1 DUP1 PUSH1 0x14 PUSH2 0x100 EXP DUP2 SLOAD DUP2 PUSH1 0xFF MUL NOT AND SWAP1 DUP4 ISZERO ISZERO MUL OR SWAP1 SSTORE POP JUMP JUMPDEST PUSH1 0x1 PUSH1 0x0 SWAP1 SLOAD SWAP1 PUSH2 0x100 EXP SWAP1 DIV PUSH20 0xFFFFFFFFFFFFFFFFFFFFFFFFFFFFFFFFFFFFFFFF AND PUSH20 0xFFFFFFFFFFFFFFFFFFFFFFFFFFFFFFFFFFFFFFFF AND CALLER PUSH20 0xFFFFFFFFFFFFFFFFFFFFFFFFFFFFFFFFFFFFFFFF AND EQ PUSH2 0x6AB JUMPI PUSH1 0x40 MLOAD PUSH32 0x8C379A000000000000000000000000000000000000000000000000000000000 DUP2 MSTORE PUSH1 0x4 ADD PUSH2 0x6A2 SWAP1 PUSH2 0xB76 JUMP JUMPDEST PUSH1 0x40 MLOAD DUP1 SWAP2 SUB SWAP1 REVERT JUMPDEST PUSH1 0x1 ISZERO ISZERO PUSH1 0x1 PUSH1 0x14 SWAP1 SLOAD SWAP1 PUSH2 0x100 EXP SWAP1 DIV PUSH1 0xFF AND ISZERO ISZERO EQ ISZERO PUSH2 0x702 JUMPI PUSH1 0x40 MLOAD PUSH32 0x8C379A000000000000000000000000000000000000000000000000000000000 DUP2 MSTORE PUSH1 0x4 ADD PUSH2 0x6F9 SWAP1 PUSH2 0xBB6 JUMP JUMPDEST PUSH1 0x40 MLOAD DUP1 SWAP2 SUB SWAP1 REVERT JUMPDEST PUSH1 0x0 PUSH1 0x2 DUP1 SLOAD SWAP1 POP GT PUSH2 0x74A JUMPI PUSH1 0x40 MLOAD PUSH32 0x8C379A000000000000000000000000000000000000000000000000000000000 DUP2 MSTORE PUSH1 0x4 ADD PUSH2 0x741 SWAP1 PUSH2 0xC36 JUMP JUMPDEST PUSH1 0x40 MLOAD DUP1 SWAP2 SUB SWAP1 REVERT JUMPDEST PUSH1 0x3 DUP2 PUSH1 0x40 MLOAD PUSH2 0x75A SWAP2 SWAP1 PUSH2 0xB5F JUMP JUMPDEST SWAP1 DUP2 MSTORE PUSH1 0x20 ADD PUSH1 0x40 MLOAD DUP1 SWAP2 SUB SWAP1 KECCAK256 PUSH1 0x0 DUP1 DUP3 ADD PUSH1 0x0 PUSH2 0x779 SWAP2 SWAP1 PUSH2 0x826 JUMP JUMPDEST PUSH1 0x1 DUP3 ADD PUSH1 0x0 SWAP1 SSTORE POP POP POP JUMP JUMPDEST DUP3 DUP1 SLOAD PUSH2 0x792 SWAP1 PUSH2 0xDA8 JUMP JUMPDEST SWAP1 PUSH1 0x0 MSTORE PUSH1 0x20 PUSH1 0x0 KECCAK256 SWAP1 PUSH1 0x1F ADD PUSH1 0x20 SWAP1 DIV DUP2 ADD SWAP3 DUP3 PUSH2 0x7B4 JUMPI PUSH1 0x0 DUP6 SSTORE PUSH2 0x7FB JUMP JUMPDEST DUP3 PUSH1 0x1F LT PUSH2 0x7CD JUMPI DUP1 MLOAD PUSH1 0xFF NOT AND DUP4 DUP1 ADD OR DUP6 SSTORE PUSH2 0x7FB JUMP JUMPDEST DUP3 DUP1 ADD PUSH1 0x1 ADD DUP6 SSTORE DUP3 ISZERO PUSH2 0x7FB JUMPI SWAP2 DUP3 ADD JUMPDEST DUP3 DUP2 GT ISZERO PUSH2 0x7FA JUMPI DUP3 MLOAD DUP3 SSTORE SWAP2 PUSH1 0x20 ADD SWAP2 SWAP1 PUSH1 0x1 ADD SWAP1 PUSH2 0x7DF JUMP JUMPDEST JUMPDEST POP SWAP1 POP PUSH2 0x808 SWAP2 SWAP1 PUSH2 0x866 JUMP JUMPDEST POP SWAP1 JUMP JUMPDEST PUSH1 0x40 MLOAD DUP1 PUSH1 0x40 ADD PUSH1 0x40 MSTORE DUP1 PUSH1 0x60 DUP2 MSTORE PUSH1 0x20 ADD PUSH1 0x0 DUP2 MSTORE POP SWAP1 JUMP JUMPDEST POP DUP1 SLOAD PUSH2 0x832 SWAP1 PUSH2 0xDA8 JUMP JUMPDEST PUSH1 0x0 DUP3 SSTORE DUP1 PUSH1 0x1F LT PUSH2 0x844 JUMPI POP PUSH2 0x863 JUMP JUMPDEST PUSH1 0x1F ADD PUSH1 0x20 SWAP1 DIV SWAP1 PUSH1 0x0 MSTORE PUSH1 0x20 PUSH1 0x0 KECCAK256 SWAP1 DUP2 ADD SWAP1 PUSH2 0x862 SWAP2 SWAP1 PUSH2 0x866 JUMP JUMPDEST JUMPDEST POP JUMP JUMPDEST JUMPDEST DUP1 DUP3 GT ISZERO PUSH2 0x87F JUMPI PUSH1 0x0 DUP2 PUSH1 0x0 SWAP1 SSTORE POP PUSH1 0x1 ADD PUSH2 0x867 JUMP JUMPDEST POP SWAP1 JUMP JUMPDEST PUSH1 0x0 PUSH2 0x896 PUSH2 0x891 DUP5 PUSH2 0xC9D JUMP JUMPDEST PUSH2 0xC78 JUMP JUMPDEST SWAP1 POP DUP3 DUP2 MSTORE PUSH1 0x20 DUP2 ADD DUP5 DUP5 DUP5 ADD GT ISZERO PUSH2 0x8B2 JUMPI PUSH2 0x8B1 PUSH2 0xE9D JUMP JUMPDEST JUMPDEST PUSH2 0x8BD DUP5 DUP3 DUP6 PUSH2 0xD66 JUMP JUMPDEST POP SWAP4 SWAP3 POP POP POP JUMP JUMPDEST PUSH1 0x0 DUP3 PUSH1 0x1F DUP4 ADD SLT PUSH2 0x8DA JUMPI PUSH2 0x8D9 PUSH2 0xE98 JUMP JUMPDEST JUMPDEST DUP2 CALLDATALOAD PUSH2 0x8EA DUP5 DUP3 PUSH1 0x20 DUP7 ADD PUSH2 0x883 JUMP JUMPDEST SWAP2 POP POP SWAP3 SWAP2 POP POP JUMP JUMPDEST PUSH1 0x0 PUSH1 0x20 DUP3 DUP5 SUB SLT ISZERO PUSH2 0x909 JUMPI PUSH2 0x908 PUSH2 0xEA7 JUMP JUMPDEST JUMPDEST PUSH1 0x0 DUP3 ADD CALLDATALOAD PUSH8 0xFFFFFFFFFFFFFFFF DUP2 GT ISZERO PUSH2 0x927 JUMPI PUSH2 0x926 PUSH2 0xEA2 JUMP JUMPDEST JUMPDEST PUSH2 0x933 DUP5 DUP3 DUP6 ADD PUSH2 0x8C5 JUMP JUMPDEST SWAP2 POP POP SWAP3 SWAP2 POP POP JUMP JUMPDEST PUSH1 0x0 DUP1 PUSH1 0x40 DUP4 DUP6 SUB SLT ISZERO PUSH2 0x953 JUMPI PUSH2 0x952 PUSH2 0xEA7 JUMP JUMPDEST JUMPDEST PUSH1 0x0 DUP4 ADD CALLDATALOAD PUSH8 0xFFFFFFFFFFFFFFFF DUP2 GT ISZERO PUSH2 0x971 JUMPI PUSH2 0x970 PUSH2 0xEA2 JUMP JUMPDEST JUMPDEST PUSH2 0x97D DUP6 DUP3 DUP7 ADD PUSH2 0x8C5 JUMP JUMPDEST SWAP3 POP POP PUSH1 0x20 DUP4 ADD CALLDATALOAD PUSH8 0xFFFFFFFFFFFFFFFF DUP2 GT ISZERO PUSH2 0x99E JUMPI PUSH2 0x99D PUSH2 0xEA2 JUMP JUMPDEST JUMPDEST PUSH2 0x9AA DUP6 DUP3 DUP7 ADD PUSH2 0x8C5 JUMP JUMPDEST SWAP2 POP POP SWAP3 POP SWAP3 SWAP1 POP JUMP JUMPDEST PUSH1 0x0 PUSH2 0x9BF DUP3 PUSH2 0xCCE JUMP JUMPDEST PUSH2 0x9C9 DUP2 DUP6 PUSH2 0xCD9 JUMP JUMPDEST SWAP4 POP PUSH2 0x9D9 DUP2 DUP6 PUSH1 0x20 DUP7 ADD PUSH2 0xD75 JUMP JUMPDEST PUSH2 0x9E2 DUP2 PUSH2 0xEAC JUMP JUMPDEST DUP5 ADD SWAP2 POP POP SWAP3 SWAP2 POP POP JUMP JUMPDEST PUSH1 0x0 PUSH2 0x9F8 DUP3 PUSH2 0xCCE JUMP JUMPDEST PUSH2 0xA02 DUP2 DUP6 PUSH2 0xCFB JUMP JUMPDEST SWAP4 POP PUSH2 0xA12 DUP2 DUP6 PUSH1 0x20 DUP7 ADD PUSH2 0xD75 JUMP JUMPDEST DUP1 DUP5 ADD SWAP2 POP POP SWAP3 SWAP2 POP POP JUMP JUMPDEST PUSH1 0x0 PUSH2 0xA2B PUSH1 0x14 DUP4 PUSH2 0xCEA JUMP JUMPDEST SWAP2 POP PUSH2 0xA36 DUP3 PUSH2 0xEBD JUMP JUMPDEST PUSH1 0x20 DUP3 ADD SWAP1 POP SWAP2 SWAP1 POP JUMP JUMPDEST PUSH1 0x0 PUSH2 0xA4E PUSH1 0x15 DUP4 PUSH2 0xCEA JUMP JUMPDEST SWAP2 POP PUSH2 0xA59 DUP3 PUSH2 0xEE6 JUMP JUMPDEST PUSH1 0x20 DUP3 ADD SWAP1 POP SWAP2 SWAP1 POP JUMP JUMPDEST PUSH1 0x0 PUSH2 0xA71 PUSH1 0x10 DUP4 PUSH2 0xCEA JUMP JUMPDEST SWAP2 POP PUSH2 0xA7C DUP3 PUSH2 0xF0F JUMP JUMPDEST PUSH1 0x20 DUP3 ADD SWAP1 POP SWAP2 SWAP1 POP JUMP JUMPDEST PUSH1 0x0 PUSH2 0xA94 PUSH1 0x27 DUP4 PUSH2 0xCEA JUMP JUMPDEST SWAP2 POP PUSH2 0xA9F DUP3 PUSH2 0xF38 JUMP JUMPDEST PUSH1 0x40 DUP3 ADD SWAP1 POP SWAP2 SWAP1 POP JUMP JUMPDEST PUSH1 0x0 PUSH2 0xAB7 PUSH1 0xD DUP4 PUSH2 0xCEA JUMP JUMPDEST SWAP2 POP PUSH2 0xAC2 DUP3 PUSH2 0xF87 JUMP JUMPDEST PUSH1 0x20 DUP3 ADD SWAP1 POP SWAP2 SWAP1 POP JUMP JUMPDEST PUSH1 0x0 PUSH2 0xADA PUSH1 0x13 DUP4 PUSH2 0xCEA JUMP JUMPDEST SWAP2 POP PUSH2 0xAE5 DUP3 PUSH2 0xFB0 JUMP JUMPDEST PUSH1 0x20 DUP3 ADD SWAP1 POP SWAP2 SWAP1 POP JUMP JUMPDEST PUSH1 0x0 PUSH2 0xAFD PUSH1 0x27 DUP4 PUSH2 0xCEA JUMP JUMPDEST SWAP2 POP PUSH2 0xB08 DUP3 PUSH2 0xFD9 JUMP JUMPDEST PUSH1 0x40 DUP3 ADD SWAP1 POP SWAP2 SWAP1 POP JUMP JUMPDEST PUSH1 0x0 PUSH1 0x40 DUP4 ADD PUSH1 0x0 DUP4 ADD MLOAD DUP5 DUP3 SUB PUSH1 0x0 DUP7 ADD MSTORE PUSH2 0xB30 DUP3 DUP3 PUSH2 0x9B4 JUMP JUMPDEST SWAP2 POP POP PUSH1 0x20 DUP4 ADD MLOAD PUSH2 0xB45 PUSH1 0x20 DUP7 ADD DUP3 PUSH2 0xB50 JUMP JUMPDEST POP DUP1 SWAP2 POP POP SWAP3 SWAP2 POP POP JUMP JUMPDEST PUSH2 0xB59 DUP2 PUSH2 0xD5C JUMP JUMPDEST DUP3 MSTORE POP POP JUMP JUMPDEST PUSH1 0x0 PUSH2 0xB6B DUP3 DUP5 PUSH2 0x9ED JUMP JUMPDEST SWAP2 POP DUP2 SWAP1 POP SWAP3 SWAP2 POP POP JUMP JUMPDEST PUSH1 0x0 PUSH1 0x20 DUP3 ADD SWAP1 POP DUP2 DUP2 SUB PUSH1 0x0 DUP4 ADD MSTORE PUSH2 0xB8F DUP2 PUSH2 0xA1E JUMP JUMPDEST SWAP1 POP SWAP2 SWAP1 POP JUMP JUMPDEST PUSH1 0x0 PUSH1 0x20 DUP3 ADD SWAP1 POP DUP2 DUP2 SUB PUSH1 0x0 DUP4 ADD MSTORE PUSH2 0xBAF DUP2 PUSH2 0xA41 JUMP JUMPDEST SWAP1 POP SWAP2 SWAP1 POP JUMP JUMPDEST PUSH1 0x0 PUSH1 0x20 DUP3 ADD SWAP1 POP DUP2 DUP2 SUB PUSH1 0x0 DUP4 ADD MSTORE PUSH2 0xBCF DUP2 PUSH2 0xA64 JUMP JUMPDEST SWAP1 POP SWAP2 SWAP1 POP JUMP JUMPDEST PUSH1 0x0 PUSH1 0x20 DUP3 ADD SWAP1 POP DUP2 DUP2 SUB PUSH1 0x0 DUP4 ADD MSTORE PUSH2 0xBEF DUP2 PUSH2 0xA87 JUMP JUMPDEST SWAP1 POP SWAP2 SWAP1 POP JUMP JUMPDEST PUSH1 0x0 PUSH1 0x20 DUP3 ADD SWAP1 POP DUP2 DUP2 SUB PUSH1 0x0 DUP4 ADD MSTORE PUSH2 0xC0F DUP2 PUSH2 0xAAA JUMP JUMPDEST SWAP1 POP SWAP2 SWAP1 POP JUMP JUMPDEST PUSH1 0x0 PUSH1 0x20 DUP3 ADD SWAP1 POP DUP2 DUP2 SUB PUSH1 0x0 DUP4 ADD MSTORE PUSH2 0xC2F DUP2 PUSH2 0xACD JUMP JUMPDEST SWAP1 POP SWAP2 SWAP1 POP JUMP JUMPDEST PUSH1 0x0 PUSH1 0x20 DUP3 ADD SWAP1 POP DUP2 DUP2 SUB PUSH1 0x0 DUP4 ADD MSTORE PUSH2 0xC4F DUP2 PUSH2 0xAF0 JUMP JUMPDEST SWAP1 POP SWAP2 SWAP1 POP JUMP JUMPDEST PUSH1 0x0 PUSH1 0x20 DUP3 ADD SWAP1 POP DUP2 DUP2 SUB PUSH1 0x0 DUP4 ADD MSTORE PUSH2 0xC70 DUP2 DUP5 PUSH2 0xB13 JUMP JUMPDEST SWAP1 POP SWAP3 SWAP2 POP POP JUMP JUMPDEST PUSH1 0x0 PUSH2 0xC82 PUSH2 0xC93 JUMP JUMPDEST SWAP1 POP PUSH2 0xC8E DUP3 DUP3 PUSH2 0xDDA JUMP JUMPDEST SWAP2 SWAP1 POP JUMP JUMPDEST PUSH1 0x0 PUSH1 0x40 MLOAD SWAP1 POP SWAP1 JUMP JUMPDEST PUSH1 0x0 PUSH8 0xFFFFFFFFFFFFFFFF DUP3 GT ISZERO PUSH2 0xCB8 JUMPI PUSH2 0xCB7 PUSH2 0xE69 JUMP JUMPDEST JUMPDEST PUSH2 0xCC1 DUP3 PUSH2 0xEAC JUMP JUMPDEST SWAP1 POP PUSH1 0x20 DUP2 ADD SWAP1 POP SWAP2 SWAP1 POP JUMP JUMPDEST PUSH1 0x0 DUP2 MLOAD SWAP1 POP SWAP2 SWAP1 POP JUMP JUMPDEST PUSH1 0x0 DUP3 DUP3 MSTORE PUSH1 0x20 DUP3 ADD SWAP1 POP SWAP3 SWAP2 POP POP JUMP JUMPDEST PUSH1 0x0 DUP3 DUP3 MSTORE PUSH1 0x20 DUP3 ADD SWAP1 POP SWAP3 SWAP2 POP POP JUMP JUMPDEST PUSH1 0x0 DUP2 SWAP1 POP SWAP3 SWAP2 POP POP JUMP JUMPDEST PUSH1 0x0 PUSH2 0xD11 DUP3 PUSH2 0xD5C JUMP JUMPDEST SWAP2 POP PUSH2 0xD1C DUP4 PUSH2 0xD5C JUMP JUMPDEST SWAP3 POP DUP3 PUSH32 0xFFFFFFFFFFFFFFFFFFFFFFFFFFFFFFFFFFFFFFFFFFFFFFFFFFFFFFFFFFFFFFFF SUB DUP3 GT ISZERO PUSH2 0xD51 JUMPI PUSH2 0xD50 PUSH2 0xE0B JUMP JUMPDEST JUMPDEST DUP3 DUP3 ADD SWAP1 POP SWAP3 SWAP2 POP POP JUMP JUMPDEST PUSH1 0x0 DUP2 SWAP1 POP SWAP2 SWAP1 POP JUMP JUMPDEST DUP3 DUP2 DUP4 CALLDATACOPY PUSH1 0x0 DUP4 DUP4 ADD MSTORE POP POP POP JUMP JUMPDEST PUSH1 0x0 JUMPDEST DUP4 DUP2 LT ISZERO PUSH2 0xD93 JUMPI DUP1 DUP3 ADD MLOAD DUP2 DUP5 ADD MSTORE PUSH1 0x20 DUP2 ADD SWAP1 POP PUSH2 0xD78 JUMP JUMPDEST DUP4 DUP2 GT ISZERO PUSH2 0xDA2 JUMPI PUSH1 0x0 DUP5 DUP5 ADD MSTORE JUMPDEST POP POP POP POP JUMP JUMPDEST PUSH1 0x0 PUSH1 0x2 DUP3 DIV SWAP1 POP PUSH1 0x1 DUP3 AND DUP1 PUSH2 0xDC0 JUMPI PUSH1 0x7F DUP3 AND SWAP2 POP JUMPDEST PUSH1 0x20 DUP3 LT DUP2 EQ ISZERO PUSH2 0xDD4 JUMPI PUSH2 0xDD3 PUSH2 0xE3A JUMP JUMPDEST JUMPDEST POP SWAP2 SWAP1 POP JUMP JUMPDEST PUSH2 0xDE3 DUP3 PUSH2 0xEAC JUMP JUMPDEST DUP2 ADD DUP2 DUP2 LT PUSH8 0xFFFFFFFFFFFFFFFF DUP3 GT OR ISZERO PUSH2 0xE02 JUMPI PUSH2 0xE01 PUSH2 0xE69 JUMP JUMPDEST JUMPDEST DUP1 PUSH1 0x40 MSTORE POP POP POP JUMP JUMPDEST PUSH32 0x4E487B7100000000000000000000000000000000000000000000000000000000 PUSH1 0x0 MSTORE PUSH1 0x11 PUSH1 0x4 MSTORE PUSH1 0x24 PUSH1 0x0 REVERT JUMPDEST PUSH32 0x4E487B7100000000000000000000000000000000000000000000000000000000 PUSH1 0x0 MSTORE PUSH1 0x22 PUSH1 0x4 MSTORE PUSH1 0x24 PUSH1 0x0 REVERT JUMPDEST PUSH32 0x4E487B7100000000000000000000000000000000000000000000000000000000 PUSH1 0x0 MSTORE PUSH1 0x41 PUSH1 0x4 MSTORE PUSH1 0x24 PUSH1 0x0 REVERT JUMPDEST PUSH1 0x0 DUP1 REVERT JUMPDEST PUSH1 0x0 DUP1 REVERT JUMPDEST PUSH1 0x0 DUP1 REVERT JUMPDEST PUSH1 0x0 DUP1 REVERT JUMPDEST PUSH1 0x0 PUSH1 0x1F NOT PUSH1 0x1F DUP4 ADD AND SWAP1 POP SWAP2 SWAP1 POP JUMP JUMPDEST PUSH32 0x556E617574686F72697A6564204163636573732E000000000000000000000000 PUSH1 0x0 DUP3 ADD MSTORE POP JUMP JUMPDEST PUSH32 0x53796D626F6C2063616E277420626520656D7074790000000000000000000000 PUSH1 0x0 DUP3 ADD MSTORE POP JUMP JUMPDEST PUSH32 0x416C726561647920537461727465642E00000000000000000000000000000000 PUSH1 0x0 DUP3 ADD MSTORE POP JUMP JUMPDEST PUSH32 0x41746C6561737420322063616E646964617465206D7573742062652072656769 PUSH1 0x0 DUP3 ADD MSTORE PUSH32 0x7374657265642E00000000000000000000000000000000000000000000000000 PUSH1 0x20 DUP3 ADD MSTORE POP JUMP JUMPDEST PUSH32 0x496E76616C696420496E70757400000000000000000000000000000000000000 PUSH1 0x0 DUP3 ADD MSTORE POP JUMP JUMPDEST PUSH32 0x4E616D652043616E277420626520656D70747900000000000000000000000000 PUSH1 0x0 DUP3 ADD MSTORE POP JUMP JUMPDEST PUSH32 0x41746C6561737420312063616E646964617465206D7573742062652072656769 PUSH1 0x0 DUP3 ADD MSTORE PUSH32 0x7374657265642E00000000000000000000000000000000000000000000000000 PUSH1 0x20 DUP3 ADD MSTORE POP JUMP INVALID LOG2 PUSH5 0x6970667358 0x22 SLT KECCAK256 SIGNEXTEND 0x26 GAS 0xEB 0xD6 RETURNDATACOPY 0xD4 0xE2 0x26 SWAP7 SWAP4 0xA5 0xCB DUP12 SWAP9 0xB1 0xC4 0xB6 EXTCODEHASH SWAP16 0xFB GASLIMIT SWAP8 0xA5 0x2B 0xDB 0xE1 0xD XOR PUSH32 0x57CF64736F6C6343000807003300000000000000000000000000000000000000 "
				},
				"gasEstimates": {
					"creation": {
						"codeDepositCost": "838000",
						"executionCost": "49453",
						"totalCost": "887453"
					},
					"external": {
						"deleteCandidate(string)": "infinite",
						"giveVotes(string)": "infinite",
						"registrationForCandidate(string,string)": "infinite",
						"startVote()": "31030",
						"voteCountStatus(string)": "infinite"
					}
				},
				"methodIdentifiers": {
					"deleteCandidate(string)": "88feb516",
					"giveVotes(string)": "1f6d52c5",
					"registrationForCandidate(string,string)": "137967a6",
					"startVote()": "4c0a6af0",
					"voteCountStatus(string)": "196b2e24"
				}
			},
			"storageLayout": {
				"storage": [
					{
						"astId": 4,
						"contract": "contracts/voting.sol:VotingContract",
						"label": "voterList",
						"offset": 0,
						"slot": "0",
						"type": "t_array(t_address)dyn_storage"
					},
					{
						"astId": 6,
						"contract": "contracts/voting.sol:VotingContract",
						"label": "electionCommission",
						"offset": 0,
						"slot": "1",
						"type": "t_address"
					},
					{
						"astId": 9,
						"contract": "contracts/voting.sol:VotingContract",
						"label": "voteStarted",
						"offset": 20,
						"slot": "1",
						"type": "t_bool"
					},
					{
						"astId": 12,
						"contract": "contracts/voting.sol:VotingContract",
						"label": "symbolList",
						"offset": 0,
						"slot": "2",
						"type": "t_array(t_string_storage)dyn_storage"
					},
					{
						"astId": 22,
						"contract": "contracts/voting.sol:VotingContract",
						"label": "Candidates",
						"offset": 0,
						"slot": "3",
						"type": "t_mapping(t_string_memory_ptr,t_struct(candidate)17_storage)"
					}
				],
				"types": {
					"t_address": {
						"encoding": "inplace",
						"label": "address",
						"numberOfBytes": "20"
					},
					"t_array(t_address)dyn_storage": {
						"base": "t_address",
						"encoding": "dynamic_array",
						"label": "address[]",
						"numberOfBytes": "32"
					},
					"t_array(t_string_storage)dyn_storage": {
						"base": "t_string_storage",
						"encoding": "dynamic_array",
						"label": "string[]",
						"numberOfBytes": "32"
					},
					"t_bool": {
						"encoding": "inplace",
						"label": "bool",
						"numberOfBytes": "1"
					},
					"t_mapping(t_string_memory_ptr,t_struct(candidate)17_storage)": {
						"encoding": "mapping",
						"key": "t_string_memory_ptr",
						"label": "mapping(string => struct VotingContract.candidate)",
						"numberOfBytes": "32",
						"value": "t_struct(candidate)17_storage"
					},
					"t_string_memory_ptr": {
						"encoding": "bytes",
						"label": "string",
						"numberOfBytes": "32"
					},
					"t_string_storage": {
						"encoding": "bytes",
						"label": "string",
						"numberOfBytes": "32"
					},
					"t_struct(candidate)17_storage": {
						"encoding": "inplace",
						"label": "struct VotingContract.candidate",
						"members": [
							{
								"astId": 14,
								"contract": "contracts/voting.sol:VotingContract",
								"label": "name",
								"offset": 0,
								"slot": "0",
								"type": "t_string_storage"
							},
							{
								"astId": 16,
								"contract": "contracts/voting.sol:VotingContract",
								"label": "voteCount",
								"offset": 0,
								"slot": "1",
								"type": "t_uint256"
							}
						],
						"numberOfBytes": "64"
					},
					"t_uint256": {
						"encoding": "inplace",
						"label": "uint256",
						"numberOfBytes": "32"
					}
				}
			},
			"userdoc": {
				"kind": "user",
				"methods": {},
				"version": 1
			}
		}
	}
}