{
	"contracts/voting.sol": {
		"VotingContract": {
			"abi": [
				{
					"inputs": [],
					"stateMutability": "nonpayable",
					"type": "constructor"
				},
				{
					"inputs": [
						{
							"internalType": "string",
							"name": "symbol",
							"type": "string"
						}
					],
					"name": "deleteCandidate",
					"outputs": [],
					"stateMutability": "nonpayable",
					"type": "function"
				},
				{
					"inputs": [
						{
							"internalType": "string",
							"name": "symbol",
							"type": "string"
						}
					],
					"name": "giveVotes",
					"outputs": [],
					"stateMutability": "nonpayable",
					"type": "function"
				},
				{
					"inputs": [
						{
							"internalType": "string",
							"name": "name",
							"type": "string"
						},
						{
							"internalType": "string",
							"name": "symbol",
							"type": "string"
						}
					],
					"name": "registrationForCandidate",
					"outputs": [],
					"stateMutability": "nonpayable",
					"type": "function"
				},
				{
					"inputs": [],
					"name": "startVote",
					"outputs": [],
					"stateMutability": "nonpayable",
					"type": "function"
				},
				{
					"inputs": [],
					"name": "stopVoting",
					"outputs": [],
					"stateMutability": "nonpayable",
					"type": "function"
				},
				{
					"inputs": [
						{
							"internalType": "string",
							"name": "symbol",
							"type": "string"
						}
					],
					"name": "voteCountStatus",
					"outputs": [
						{
							"components": [
								{
									"internalType": "string",
									"name": "name",
									"type": "string"
								},
								{
									"internalType": "uint256",
									"name": "voteCount",
									"type": "uint256"
								}
							],
							"internalType": "struct VotingContract.candidate",
							"name": "",
							"type": "tuple"
						}
					],
					"stateMutability": "view",
					"type": "function"
				}
			],
			"devdoc": {
				"kind": "dev",
				"methods": {},
				"version": 1
			},
			"evm": {
				"assembly": "    /* \"contracts/voting.sol\":59:2463  contract VotingContract{\r... */\n  mstore(0x40, 0x80)\n    /* \"contracts/voting.sol\":110:115  false */\n  0x00\n    /* \"contracts/voting.sol\":89:115  bool votingStartEver=false */\n  dup1\n  exp(0x0100, 0x00)\n  dup2\n  sload\n  dup2\n  0xff\n  mul\n  not\n  and\n  swap1\n  dup4\n  iszero\n  iszero\n  mul\n  or\n  swap1\n  sstore\n  pop\n    /* \"contracts/voting.sol\":256:261  false */\n  0x00\n    /* \"contracts/voting.sol\":237:261  bool voteStarted = false */\n  0x02\n  exp(0x0100, 0x14)\n  dup2\n  sload\n  dup2\n  0xff\n  mul\n  not\n  and\n  swap1\n  dup4\n  iszero\n  iszero\n  mul\n  or\n  swap1\n  sstore\n  pop\n    /* \"contracts/voting.sol\":499:562  constructor(){\r... */\n  callvalue\n  dup1\n  iszero\n  tag_1\n  jumpi\n  0x00\n  dup1\n  revert\ntag_1:\n  pop\n    /* \"contracts/voting.sol\":544:554  msg.sender */\n  caller\n    /* \"contracts/voting.sol\":523:541  electionCommission */\n  0x02\n  0x00\n    /* \"contracts/voting.sol\":523:554  electionCommission = msg.sender */\n  0x0100\n  exp\n  dup2\n  sload\n  dup2\n  0xffffffffffffffffffffffffffffffffffffffff\n  mul\n  not\n  and\n  swap1\n  dup4\n  0xffffffffffffffffffffffffffffffffffffffff\n  and\n  mul\n  or\n  swap1\n  sstore\n  pop\n    /* \"contracts/voting.sol\":59:2463  contract VotingContract{\r... */\n  dataSize(sub_0)\n  dup1\n  dataOffset(sub_0)\n  0x00\n  codecopy\n  0x00\n  return\nstop\n\nsub_0: assembly {\n        /* \"contracts/voting.sol\":59:2463  contract VotingContract{\r... */\n      mstore(0x40, 0x80)\n      callvalue\n      dup1\n      iszero\n      tag_1\n      jumpi\n      0x00\n      dup1\n      revert\n    tag_1:\n      pop\n      jumpi(tag_2, lt(calldatasize, 0x04))\n      shr(0xe0, calldataload(0x00))\n      dup1\n      0x137967a6\n      eq\n      tag_3\n      jumpi\n      dup1\n      0x196b2e24\n      eq\n      tag_4\n      jumpi\n      dup1\n      0x1f6d52c5\n      eq\n      tag_5\n      jumpi\n      dup1\n      0x4c0a6af0\n      eq\n      tag_6\n      jumpi\n      dup1\n      0x88feb516\n      eq\n      tag_7\n      jumpi\n      dup1\n      0xfab2f86b\n      eq\n      tag_8\n      jumpi\n    tag_2:\n      0x00\n      dup1\n      revert\n        /* \"contracts/voting.sol\":883:1262  function registrationForCandidate  (string memory name, string memory symbol)public onlyElectionComission votingStarted\r... */\n    tag_3:\n      tag_9\n      0x04\n      dup1\n      calldatasize\n      sub\n      dup2\n      add\n      swap1\n      tag_10\n      swap2\n      swap1\n      tag_11\n      jump\t// in\n    tag_10:\n      tag_12\n      jump\t// in\n    tag_9:\n      stop\n        /* \"contracts/voting.sol\":1997:2127  function voteCountStatus(string memory symbol) public view returns(candidate memory){\r... */\n    tag_4:\n      tag_13\n      0x04\n      dup1\n      calldatasize\n      sub\n      dup2\n      add\n      swap1\n      tag_14\n      swap2\n      swap1\n      tag_15\n      jump\t// in\n    tag_14:\n      tag_16\n      jump\t// in\n    tag_13:\n      mload(0x40)\n      tag_17\n      swap2\n      swap1\n      tag_18\n      jump\t// in\n    tag_17:\n      mload(0x40)\n      dup1\n      swap2\n      sub\n      swap1\n      return\n        /* \"contracts/voting.sol\":1768:1957  function giveVotes(string memory symbol)  public votingStarted {\r... */\n    tag_5:\n      tag_19\n      0x04\n      dup1\n      calldatasize\n      sub\n      dup2\n      add\n      swap1\n      tag_20\n      swap2\n      swap1\n      tag_15\n      jump\t// in\n    tag_20:\n      tag_21\n      jump\t// in\n    tag_19:\n      stop\n        /* \"contracts/voting.sol\":1292:1550  function startVote() public onlyElectionComission{\r... */\n    tag_6:\n      tag_22\n      tag_23\n      jump\t// in\n    tag_22:\n      stop\n        /* \"contracts/voting.sol\":2161:2447  function deleteCandidate(string memory symbol)public onlyElectionComission votingStarted{\r... */\n    tag_7:\n      tag_24\n      0x04\n      dup1\n      calldatasize\n      sub\n      dup2\n      add\n      swap1\n      tag_25\n      swap2\n      swap1\n      tag_15\n      jump\t// in\n    tag_25:\n      tag_26\n      jump\t// in\n    tag_24:\n      stop\n        /* \"contracts/voting.sol\":1579:1731  function stopVoting() public onlyElectionComission{\r... */\n    tag_8:\n      tag_27\n      tag_28\n      jump\t// in\n    tag_27:\n      stop\n        /* \"contracts/voting.sol\":883:1262  function registrationForCandidate  (string memory name, string memory symbol)public onlyElectionComission votingStarted\r... */\n    tag_12:\n        /* \"contracts/voting.sol\":658:676  electionCommission */\n      0x02\n      0x00\n      swap1\n      sload\n      swap1\n      0x0100\n      exp\n      swap1\n      div\n      0xffffffffffffffffffffffffffffffffffffffff\n      and\n        /* \"contracts/voting.sol\":646:676  msg.sender==electionCommission */\n      0xffffffffffffffffffffffffffffffffffffffff\n      and\n        /* \"contracts/voting.sol\":646:656  msg.sender */\n      caller\n        /* \"contracts/voting.sol\":646:676  msg.sender==electionCommission */\n      0xffffffffffffffffffffffffffffffffffffffff\n      and\n      eq\n        /* \"contracts/voting.sol\":638:700  require(msg.sender==electionCommission,\"Unauthorized Access.\") */\n      tag_30\n      jumpi\n      mload(0x40)\n      0x08c379a000000000000000000000000000000000000000000000000000000000\n      dup2\n      mstore\n      0x04\n      add\n      tag_31\n      swap1\n      tag_32\n      jump\t// in\n    tag_31:\n      mload(0x40)\n      dup1\n      swap2\n      sub\n      swap1\n      revert\n    tag_30:\n        /* \"contracts/voting.sol\":804:808  true */\n      0x01\n        /* \"contracts/voting.sol\":791:808  voteStarted==true */\n      iszero\n      iszero\n        /* \"contracts/voting.sol\":791:802  voteStarted */\n      0x02\n      0x14\n      swap1\n      sload\n      swap1\n      0x0100\n      exp\n      swap1\n      div\n      0xff\n      and\n        /* \"contracts/voting.sol\":791:808  voteStarted==true */\n      iszero\n      iszero\n      eq\n        /* \"contracts/voting.sol\":783:828  require(voteStarted==true,\"Already Started.\") */\n      tag_34\n      jumpi\n      mload(0x40)\n      0x08c379a000000000000000000000000000000000000000000000000000000000\n      dup2\n      mstore\n      0x04\n      add\n      tag_35\n      swap1\n      tag_36\n      jump\t// in\n    tag_35:\n      mload(0x40)\n      dup1\n      swap2\n      sub\n      swap1\n      revert\n    tag_34:\n        /* \"contracts/voting.sol\":1048:1049  0 */\n      0x00\n        /* \"contracts/voting.sol\":1034:1038  name */\n      dup3\n        /* \"contracts/voting.sol\":1028:1046  bytes(name).length */\n      mload\n        /* \"contracts/voting.sol\":1028:1049  bytes(name).length!=0 */\n      eq\n      iszero\n        /* \"contracts/voting.sol\":1020:1072  require(bytes(name).length!=0,\"Name Can't be empty\") */\n      tag_38\n      jumpi\n      mload(0x40)\n      0x08c379a000000000000000000000000000000000000000000000000000000000\n      dup2\n      mstore\n      0x04\n      add\n      tag_39\n      swap1\n      tag_40\n      jump\t// in\n    tag_39:\n      mload(0x40)\n      dup1\n      swap2\n      sub\n      swap1\n      revert\n    tag_38:\n        /* \"contracts/voting.sol\":1113:1114  0 */\n      0x00\n        /* \"contracts/voting.sol\":1097:1103  symbol */\n      dup2\n        /* \"contracts/voting.sol\":1091:1111  bytes(symbol).length */\n      mload\n        /* \"contracts/voting.sol\":1091:1114  bytes(symbol).length!=0 */\n      eq\n      iszero\n        /* \"contracts/voting.sol\":1083:1139  require(bytes(symbol).length!=0,\"Symbol can't be empty\") */\n      tag_41\n      jumpi\n      mload(0x40)\n      0x08c379a000000000000000000000000000000000000000000000000000000000\n      dup2\n      mstore\n      0x04\n      add\n      tag_42\n      swap1\n      tag_43\n      jump\t// in\n    tag_42:\n      mload(0x40)\n      dup1\n      swap2\n      sub\n      swap1\n      revert\n    tag_41:\n        /* \"contracts/voting.sol\":1150:1160  symbolList */\n      0x03\n        /* \"contracts/voting.sol\":1166:1172  symbol */\n      dup2\n        /* \"contracts/voting.sol\":1150:1173  symbolList.push(symbol) */\n      swap1\n      dup1\n      0x01\n      dup2\n      sload\n      add\n      dup1\n      dup3\n      sstore\n      dup1\n      swap2\n      pop\n      pop\n      0x01\n      swap1\n      sub\n      swap1\n      0x00\n      mstore\n      keccak256(0x00, 0x20)\n      add\n      0x00\n      swap1\n      swap2\n      swap1\n      swap2\n      swap1\n      swap2\n      pop\n      swap1\n      dup1\n      mload\n      swap1\n      0x20\n      add\n      swap1\n      tag_45\n      swap3\n      swap2\n      swap1\n      tag_46\n      jump\t// in\n    tag_45:\n      pop\n        /* \"contracts/voting.sol\":1208:1212  name */\n      dup2\n        /* \"contracts/voting.sol\":1184:1194  Candidates */\n      0x04\n        /* \"contracts/voting.sol\":1195:1201  symbol */\n      dup3\n        /* \"contracts/voting.sol\":1184:1202  Candidates[symbol] */\n      mload(0x40)\n      tag_47\n      swap2\n      swap1\n      tag_48\n      jump\t// in\n    tag_47:\n      swap1\n      dup2\n      mstore\n      0x20\n      add\n      mload(0x40)\n      dup1\n      swap2\n      sub\n      swap1\n      keccak256\n        /* \"contracts/voting.sol\":1184:1207  Candidates[symbol].name */\n      0x00\n      add\n        /* \"contracts/voting.sol\":1184:1212  Candidates[symbol].name=name */\n      swap1\n      dup1\n      mload\n      swap1\n      0x20\n      add\n      swap1\n      tag_49\n      swap3\n      swap2\n      swap1\n      tag_46\n      jump\t// in\n    tag_49:\n      pop\n        /* \"contracts/voting.sol\":1252:1253  0 */\n      0x00\n        /* \"contracts/voting.sol\":1223:1233  Candidates */\n      0x04\n        /* \"contracts/voting.sol\":1234:1240  symbol */\n      dup3\n        /* \"contracts/voting.sol\":1223:1241  Candidates[symbol] */\n      mload(0x40)\n      tag_50\n      swap2\n      swap1\n      tag_48\n      jump\t// in\n    tag_50:\n      swap1\n      dup2\n      mstore\n      0x20\n      add\n      mload(0x40)\n      dup1\n      swap2\n      sub\n      swap1\n      keccak256\n        /* \"contracts/voting.sol\":1223:1251  Candidates[symbol].voteCount */\n      0x01\n      add\n        /* \"contracts/voting.sol\":1223:1253  Candidates[symbol].voteCount=0 */\n      dup2\n      swap1\n      sstore\n      pop\n        /* \"contracts/voting.sol\":883:1262  function registrationForCandidate  (string memory name, string memory symbol)public onlyElectionComission votingStarted\r... */\n      pop\n      pop\n      jump\t// out\n        /* \"contracts/voting.sol\":1997:2127  function voteCountStatus(string memory symbol) public view returns(candidate memory){\r... */\n    tag_16:\n        /* \"contracts/voting.sol\":2064:2080  candidate memory */\n      tag_51\n      tag_52\n      jump\t// in\n    tag_51:\n        /* \"contracts/voting.sol\":2100:2110  Candidates */\n      0x04\n        /* \"contracts/voting.sol\":2111:2117  symbol */\n      dup3\n        /* \"contracts/voting.sol\":2100:2118  Candidates[symbol] */\n      mload(0x40)\n      tag_54\n      swap2\n      swap1\n      tag_48\n      jump\t// in\n    tag_54:\n      swap1\n      dup2\n      mstore\n      0x20\n      add\n      mload(0x40)\n      dup1\n      swap2\n      sub\n      swap1\n      keccak256\n        /* \"contracts/voting.sol\":2093:2118  return Candidates[symbol] */\n      mload(0x40)\n      dup1\n      0x40\n      add\n      0x40\n      mstore\n      swap1\n      dup2\n      0x00\n      dup3\n      add\n      dup1\n      sload\n      tag_55\n      swap1\n      tag_56\n      jump\t// in\n    tag_55:\n      dup1\n      0x1f\n      add\n      0x20\n      dup1\n      swap2\n      div\n      mul\n      0x20\n      add\n      mload(0x40)\n      swap1\n      dup2\n      add\n      0x40\n      mstore\n      dup1\n      swap3\n      swap2\n      swap1\n      dup2\n      dup2\n      mstore\n      0x20\n      add\n      dup3\n      dup1\n      sload\n      tag_57\n      swap1\n      tag_56\n      jump\t// in\n    tag_57:\n      dup1\n      iszero\n      tag_58\n      jumpi\n      dup1\n      0x1f\n      lt\n      tag_59\n      jumpi\n      0x0100\n      dup1\n      dup4\n      sload\n      div\n      mul\n      dup4\n      mstore\n      swap2\n      0x20\n      add\n      swap2\n      jump(tag_58)\n    tag_59:\n      dup3\n      add\n      swap2\n      swap1\n      0x00\n      mstore\n      keccak256(0x00, 0x20)\n      swap1\n    tag_60:\n      dup2\n      sload\n      dup2\n      mstore\n      swap1\n      0x01\n      add\n      swap1\n      0x20\n      add\n      dup1\n      dup4\n      gt\n      tag_60\n      jumpi\n      dup3\n      swap1\n      sub\n      0x1f\n      and\n      dup3\n      add\n      swap2\n    tag_58:\n      pop\n      pop\n      pop\n      pop\n      pop\n      dup2\n      mstore\n      0x20\n      add\n      0x01\n      dup3\n      add\n      sload\n      dup2\n      mstore\n      pop\n      pop\n      swap1\n      pop\n        /* \"contracts/voting.sol\":1997:2127  function voteCountStatus(string memory symbol) public view returns(candidate memory){\r... */\n      swap2\n      swap1\n      pop\n      jump\t// out\n        /* \"contracts/voting.sol\":1768:1957  function giveVotes(string memory symbol)  public votingStarted {\r... */\n    tag_21:\n        /* \"contracts/voting.sol\":804:808  true */\n      0x01\n        /* \"contracts/voting.sol\":791:808  voteStarted==true */\n      iszero\n      iszero\n        /* \"contracts/voting.sol\":791:802  voteStarted */\n      0x02\n      0x14\n      swap1\n      sload\n      swap1\n      0x0100\n      exp\n      swap1\n      div\n      0xff\n      and\n        /* \"contracts/voting.sol\":791:808  voteStarted==true */\n      iszero\n      iszero\n      eq\n        /* \"contracts/voting.sol\":783:828  require(voteStarted==true,\"Already Started.\") */\n      tag_62\n      jumpi\n      mload(0x40)\n      0x08c379a000000000000000000000000000000000000000000000000000000000\n      dup2\n      mstore\n      0x04\n      add\n      tag_63\n      swap1\n      tag_36\n      jump\t// in\n    tag_63:\n      mload(0x40)\n      dup1\n      swap2\n      sub\n      swap1\n      revert\n    tag_62:\n        /* \"contracts/voting.sol\":1888:1889  0 */\n      0x00\n        /* \"contracts/voting.sol\":1855:1865  Candidates */\n      0x04\n        /* \"contracts/voting.sol\":1866:1872  symbol */\n      dup3\n        /* \"contracts/voting.sol\":1855:1873  Candidates[symbol] */\n      mload(0x40)\n      tag_65\n      swap2\n      swap1\n      tag_48\n      jump\t// in\n    tag_65:\n      swap1\n      dup2\n      mstore\n      0x20\n      add\n      mload(0x40)\n      dup1\n      swap2\n      sub\n      swap1\n      keccak256\n        /* \"contracts/voting.sol\":1855:1878  Candidates[symbol].name */\n      0x00\n      add\n        /* \"contracts/voting.sol\":1849:1886  bytes(Candidates[symbol].name).length */\n      dup1\n      sload\n      tag_66\n      swap1\n      tag_56\n      jump\t// in\n    tag_66:\n      swap1\n      pop\n        /* \"contracts/voting.sol\":1849:1889  bytes(Candidates[symbol].name).length!=0 */\n      eq\n      iszero\n        /* \"contracts/voting.sol\":1841:1906  require(bytes(Candidates[symbol].name).length!=0,\"Invalid Input\") */\n      tag_67\n      jumpi\n      mload(0x40)\n      0x08c379a000000000000000000000000000000000000000000000000000000000\n      dup2\n      mstore\n      0x04\n      add\n      tag_68\n      swap1\n      tag_69\n      jump\t// in\n    tag_68:\n      mload(0x40)\n      dup1\n      swap2\n      sub\n      swap1\n      revert\n    tag_67:\n        /* \"contracts/voting.sol\":1947:1948  1 */\n      0x01\n        /* \"contracts/voting.sol\":1917:1927  Candidates */\n      0x04\n        /* \"contracts/voting.sol\":1928:1934  symbol */\n      dup3\n        /* \"contracts/voting.sol\":1917:1935  Candidates[symbol] */\n      mload(0x40)\n      tag_70\n      swap2\n      swap1\n      tag_48\n      jump\t// in\n    tag_70:\n      swap1\n      dup2\n      mstore\n      0x20\n      add\n      mload(0x40)\n      dup1\n      swap2\n      sub\n      swap1\n      keccak256\n        /* \"contracts/voting.sol\":1917:1945  Candidates[symbol].voteCount */\n      0x01\n      add\n      0x00\n        /* \"contracts/voting.sol\":1917:1948  Candidates[symbol].voteCount+=1 */\n      dup3\n      dup3\n      sload\n      tag_71\n      swap2\n      swap1\n      tag_72\n      jump\t// in\n    tag_71:\n      swap3\n      pop\n      pop\n      dup2\n      swap1\n      sstore\n      pop\n        /* \"contracts/voting.sol\":1768:1957  function giveVotes(string memory symbol)  public votingStarted {\r... */\n      pop\n      jump\t// out\n        /* \"contracts/voting.sol\":1292:1550  function startVote() public onlyElectionComission{\r... */\n    tag_23:\n        /* \"contracts/voting.sol\":658:676  electionCommission */\n      0x02\n      0x00\n      swap1\n      sload\n      swap1\n      0x0100\n      exp\n      swap1\n      div\n      0xffffffffffffffffffffffffffffffffffffffff\n      and\n        /* \"contracts/voting.sol\":646:676  msg.sender==electionCommission */\n      0xffffffffffffffffffffffffffffffffffffffff\n      and\n        /* \"contracts/voting.sol\":646:656  msg.sender */\n      caller\n        /* \"contracts/voting.sol\":646:676  msg.sender==electionCommission */\n      0xffffffffffffffffffffffffffffffffffffffff\n      and\n      eq\n        /* \"contracts/voting.sol\":638:700  require(msg.sender==electionCommission,\"Unauthorized Access.\") */\n      tag_74\n      jumpi\n      mload(0x40)\n      0x08c379a000000000000000000000000000000000000000000000000000000000\n      dup2\n      mstore\n      0x04\n      add\n      tag_75\n      swap1\n      tag_32\n      jump\t// in\n    tag_75:\n      mload(0x40)\n      dup1\n      swap2\n      sub\n      swap1\n      revert\n    tag_74:\n        /* \"contracts/voting.sol\":1378:1379  0 */\n      0x00\n        /* \"contracts/voting.sol\":1360:1370  symbolList */\n      0x03\n        /* \"contracts/voting.sol\":1360:1377  symbolList.length */\n      dup1\n      sload\n      swap1\n      pop\n        /* \"contracts/voting.sol\":1360:1379  symbolList.length>0 */\n      gt\n        /* \"contracts/voting.sol\":1352:1422  require(symbolList.length>0,\"Atleast 2 candidate must be registered.\") */\n      tag_77\n      jumpi\n      mload(0x40)\n      0x08c379a000000000000000000000000000000000000000000000000000000000\n      dup2\n      mstore\n      0x04\n      add\n      tag_78\n      swap1\n      tag_79\n      jump\t// in\n    tag_78:\n      mload(0x40)\n      dup1\n      swap2\n      sub\n      swap1\n      revert\n    tag_77:\n        /* \"contracts/voting.sol\":1454:1459  false */\n      0x00\n        /* \"contracts/voting.sol\":1441:1459  voteStarted==false */\n      iszero\n      iszero\n        /* \"contracts/voting.sol\":1441:1452  voteStarted */\n      0x02\n      0x14\n      swap1\n      sload\n      swap1\n      0x0100\n      exp\n      swap1\n      div\n      0xff\n      and\n        /* \"contracts/voting.sol\":1441:1459  voteStarted==false */\n      iszero\n      iszero\n      eq\n        /* \"contracts/voting.sol\":1433:1479  require(voteStarted==false,\"Already Started.\") */\n      tag_80\n      jumpi\n      mload(0x40)\n      0x08c379a000000000000000000000000000000000000000000000000000000000\n      dup2\n      mstore\n      0x04\n      add\n      tag_81\n      swap1\n      tag_36\n      jump\t// in\n    tag_81:\n      mload(0x40)\n      dup1\n      swap2\n      sub\n      swap1\n      revert\n    tag_80:\n        /* \"contracts/voting.sol\":1504:1508  true */\n      0x01\n        /* \"contracts/voting.sol\":1490:1501  voteStarted */\n      0x02\n      0x14\n        /* \"contracts/voting.sol\":1490:1508  voteStarted = true */\n      0x0100\n      exp\n      dup2\n      sload\n      dup2\n      0xff\n      mul\n      not\n      and\n      swap1\n      dup4\n      iszero\n      iszero\n      mul\n      or\n      swap1\n      sstore\n      pop\n        /* \"contracts/voting.sol\":1537:1541  true */\n      0x01\n        /* \"contracts/voting.sol\":1519:1534  votingStartEver */\n      0x00\n      dup1\n        /* \"contracts/voting.sol\":1519:1541  votingStartEver = true */\n      0x0100\n      exp\n      dup2\n      sload\n      dup2\n      0xff\n      mul\n      not\n      and\n      swap1\n      dup4\n      iszero\n      iszero\n      mul\n      or\n      swap1\n      sstore\n      pop\n        /* \"contracts/voting.sol\":1292:1550  function startVote() public onlyElectionComission{\r... */\n      jump\t// out\n        /* \"contracts/voting.sol\":2161:2447  function deleteCandidate(string memory symbol)public onlyElectionComission votingStarted{\r... */\n    tag_26:\n        /* \"contracts/voting.sol\":658:676  electionCommission */\n      0x02\n      0x00\n      swap1\n      sload\n      swap1\n      0x0100\n      exp\n      swap1\n      div\n      0xffffffffffffffffffffffffffffffffffffffff\n      and\n        /* \"contracts/voting.sol\":646:676  msg.sender==electionCommission */\n      0xffffffffffffffffffffffffffffffffffffffff\n      and\n        /* \"contracts/voting.sol\":646:656  msg.sender */\n      caller\n        /* \"contracts/voting.sol\":646:676  msg.sender==electionCommission */\n      0xffffffffffffffffffffffffffffffffffffffff\n      and\n      eq\n        /* \"contracts/voting.sol\":638:700  require(msg.sender==electionCommission,\"Unauthorized Access.\") */\n      tag_83\n      jumpi\n      mload(0x40)\n      0x08c379a000000000000000000000000000000000000000000000000000000000\n      dup2\n      mstore\n      0x04\n      add\n      tag_84\n      swap1\n      tag_32\n      jump\t// in\n    tag_84:\n      mload(0x40)\n      dup1\n      swap2\n      sub\n      swap1\n      revert\n    tag_83:\n        /* \"contracts/voting.sol\":804:808  true */\n      0x01\n        /* \"contracts/voting.sol\":791:808  voteStarted==true */\n      iszero\n      iszero\n        /* \"contracts/voting.sol\":791:802  voteStarted */\n      0x02\n      0x14\n      swap1\n      sload\n      swap1\n      0x0100\n      exp\n      swap1\n      div\n      0xff\n      and\n        /* \"contracts/voting.sol\":791:808  voteStarted==true */\n      iszero\n      iszero\n      eq\n        /* \"contracts/voting.sol\":783:828  require(voteStarted==true,\"Already Started.\") */\n      tag_86\n      jumpi\n      mload(0x40)\n      0x08c379a000000000000000000000000000000000000000000000000000000000\n      dup2\n      mstore\n      0x04\n      add\n      tag_87\n      swap1\n      tag_36\n      jump\t// in\n    tag_87:\n      mload(0x40)\n      dup1\n      swap2\n      sub\n      swap1\n      revert\n    tag_86:\n        /* \"contracts/voting.sol\":2286:2287  0 */\n      0x00\n        /* \"contracts/voting.sol\":2268:2278  symbolList */\n      0x03\n        /* \"contracts/voting.sol\":2268:2285  symbolList.length */\n      dup1\n      sload\n      swap1\n      pop\n        /* \"contracts/voting.sol\":2268:2287  symbolList.length>0 */\n      gt\n        /* \"contracts/voting.sol\":2260:2330  require(symbolList.length>0,\"Atleast 1 candidate must be registered.\") */\n      tag_89\n      jumpi\n      mload(0x40)\n      0x08c379a000000000000000000000000000000000000000000000000000000000\n      dup2\n      mstore\n      0x04\n      add\n      tag_90\n      swap1\n      tag_91\n      jump\t// in\n    tag_90:\n      mload(0x40)\n      dup1\n      swap2\n      sub\n      swap1\n      revert\n    tag_89:\n        /* \"contracts/voting.sol\":2366:2371  false */\n      0x00\n        /* \"contracts/voting.sol\":2349:2371  votingStartEver==false */\n      iszero\n      iszero\n        /* \"contracts/voting.sol\":2349:2364  votingStartEver */\n      0x00\n      dup1\n      sload\n      swap1\n      0x0100\n      exp\n      swap1\n      div\n      0xff\n      and\n        /* \"contracts/voting.sol\":2349:2371  votingStartEver==false */\n      iszero\n      iszero\n      eq\n        /* \"contracts/voting.sol\":2341:2402  require(votingStartEver==false,\"You can't remove candidate.\") */\n      tag_92\n      jumpi\n      mload(0x40)\n      0x08c379a000000000000000000000000000000000000000000000000000000000\n      dup2\n      mstore\n      0x04\n      add\n      tag_93\n      swap1\n      tag_94\n      jump\t// in\n    tag_93:\n      mload(0x40)\n      dup1\n      swap2\n      sub\n      swap1\n      revert\n    tag_92:\n        /* \"contracts/voting.sol\":2420:2430  Candidates */\n      0x04\n        /* \"contracts/voting.sol\":2431:2437  symbol */\n      dup2\n        /* \"contracts/voting.sol\":2420:2438  Candidates[symbol] */\n      mload(0x40)\n      tag_95\n      swap2\n      swap1\n      tag_48\n      jump\t// in\n    tag_95:\n      swap1\n      dup2\n      mstore\n      0x20\n      add\n      mload(0x40)\n      dup1\n      swap2\n      sub\n      swap1\n      keccak256\n      0x00\n        /* \"contracts/voting.sol\":2413:2438  delete Candidates[symbol] */\n      dup1\n      dup3\n      add\n      0x00\n      tag_96\n      swap2\n      swap1\n      tag_97\n      jump\t// in\n    tag_96:\n      0x01\n      dup3\n      add\n      0x00\n      swap1\n      sstore\n      pop\n      pop\n        /* \"contracts/voting.sol\":2161:2447  function deleteCandidate(string memory symbol)public onlyElectionComission votingStarted{\r... */\n      pop\n      jump\t// out\n        /* \"contracts/voting.sol\":1579:1731  function stopVoting() public onlyElectionComission{\r... */\n    tag_28:\n        /* \"contracts/voting.sol\":658:676  electionCommission */\n      0x02\n      0x00\n      swap1\n      sload\n      swap1\n      0x0100\n      exp\n      swap1\n      div\n      0xffffffffffffffffffffffffffffffffffffffff\n      and\n        /* \"contracts/voting.sol\":646:676  msg.sender==electionCommission */\n      0xffffffffffffffffffffffffffffffffffffffff\n      and\n        /* \"contracts/voting.sol\":646:656  msg.sender */\n      caller\n        /* \"contracts/voting.sol\":646:676  msg.sender==electionCommission */\n      0xffffffffffffffffffffffffffffffffffffffff\n      and\n      eq\n        /* \"contracts/voting.sol\":638:700  require(msg.sender==electionCommission,\"Unauthorized Access.\") */\n      tag_99\n      jumpi\n      mload(0x40)\n      0x08c379a000000000000000000000000000000000000000000000000000000000\n      dup2\n      mstore\n      0x04\n      add\n      tag_100\n      swap1\n      tag_32\n      jump\t// in\n    tag_100:\n      mload(0x40)\n      dup1\n      swap2\n      sub\n      swap1\n      revert\n    tag_99:\n        /* \"contracts/voting.sol\":1662:1666  true */\n      0x01\n        /* \"contracts/voting.sol\":1649:1666  voteStarted==true */\n      iszero\n      iszero\n        /* \"contracts/voting.sol\":1649:1660  voteStarted */\n      0x02\n      0x14\n      swap1\n      sload\n      swap1\n      0x0100\n      exp\n      swap1\n      div\n      0xff\n      and\n        /* \"contracts/voting.sol\":1649:1666  voteStarted==true */\n      iszero\n      iszero\n      eq\n        /* \"contracts/voting.sol\":1641:1693  require(voteStarted==true,\"Voting not started yet.\") */\n      tag_102\n      jumpi\n      mload(0x40)\n      0x08c379a000000000000000000000000000000000000000000000000000000000\n      dup2\n      mstore\n      0x04\n      add\n      tag_103\n      swap1\n      tag_104\n      jump\t// in\n    tag_103:\n      mload(0x40)\n      dup1\n      swap2\n      sub\n      swap1\n      revert\n    tag_102:\n        /* \"contracts/voting.sol\":1717:1722  false */\n      0x00\n        /* \"contracts/voting.sol\":1705:1716  voteStarted */\n      0x02\n      0x14\n        /* \"contracts/voting.sol\":1705:1722  voteStarted=false */\n      0x0100\n      exp\n      dup2\n      sload\n      dup2\n      0xff\n      mul\n      not\n      and\n      swap1\n      dup4\n      iszero\n      iszero\n      mul\n      or\n      swap1\n      sstore\n      pop\n        /* \"contracts/voting.sol\":1579:1731  function stopVoting() public onlyElectionComission{\r... */\n      jump\t// out\n    tag_46:\n      dup3\n      dup1\n      sload\n      tag_105\n      swap1\n      tag_56\n      jump\t// in\n    tag_105:\n      swap1\n      0x00\n      mstore\n      keccak256(0x00, 0x20)\n      swap1\n      0x1f\n      add\n      0x20\n      swap1\n      div\n      dup2\n      add\n      swap3\n      dup3\n      tag_107\n      jumpi\n      0x00\n      dup6\n      sstore\n      jump(tag_106)\n    tag_107:\n      dup3\n      0x1f\n      lt\n      tag_108\n      jumpi\n      dup1\n      mload\n      not(0xff)\n      and\n      dup4\n      dup1\n      add\n      or\n      dup6\n      sstore\n      jump(tag_106)\n    tag_108:\n      dup3\n      dup1\n      add\n      0x01\n      add\n      dup6\n      sstore\n      dup3\n      iszero\n      tag_106\n      jumpi\n      swap2\n      dup3\n      add\n    tag_109:\n      dup3\n      dup2\n      gt\n      iszero\n      tag_110\n      jumpi\n      dup3\n      mload\n      dup3\n      sstore\n      swap2\n      0x20\n      add\n      swap2\n      swap1\n      0x01\n      add\n      swap1\n      jump(tag_109)\n    tag_110:\n    tag_106:\n      pop\n      swap1\n      pop\n      tag_111\n      swap2\n      swap1\n      tag_112\n      jump\t// in\n    tag_111:\n      pop\n      swap1\n      jump\t// out\n    tag_52:\n      mload(0x40)\n      dup1\n      0x40\n      add\n      0x40\n      mstore\n      dup1\n      0x60\n      dup2\n      mstore\n      0x20\n      add\n      0x00\n      dup2\n      mstore\n      pop\n      swap1\n      jump\t// out\n    tag_97:\n      pop\n      dup1\n      sload\n      tag_113\n      swap1\n      tag_56\n      jump\t// in\n    tag_113:\n      0x00\n      dup3\n      sstore\n      dup1\n      0x1f\n      lt\n      tag_115\n      jumpi\n      pop\n      jump(tag_114)\n    tag_115:\n      0x1f\n      add\n      0x20\n      swap1\n      div\n      swap1\n      0x00\n      mstore\n      keccak256(0x00, 0x20)\n      swap1\n      dup2\n      add\n      swap1\n      tag_116\n      swap2\n      swap1\n      tag_112\n      jump\t// in\n    tag_116:\n    tag_114:\n      pop\n      jump\t// out\n    tag_112:\n    tag_117:\n      dup1\n      dup3\n      gt\n      iszero\n      tag_118\n      jumpi\n      0x00\n      dup2\n      0x00\n      swap1\n      sstore\n      pop\n      0x01\n      add\n      jump(tag_117)\n    tag_118:\n      pop\n      swap1\n      jump\t// out\n        /* \"#utility.yul\":7:419   */\n    tag_120:\n        /* \"#utility.yul\":85:90   */\n      0x00\n        /* \"#utility.yul\":110:176   */\n      tag_122\n        /* \"#utility.yul\":126:175   */\n      tag_123\n        /* \"#utility.yul\":168:174   */\n      dup5\n        /* \"#utility.yul\":126:175   */\n      tag_124\n      jump\t// in\n    tag_123:\n        /* \"#utility.yul\":110:176   */\n      tag_125\n      jump\t// in\n    tag_122:\n        /* \"#utility.yul\":101:176   */\n      swap1\n      pop\n        /* \"#utility.yul\":199:205   */\n      dup3\n        /* \"#utility.yul\":192:197   */\n      dup2\n        /* \"#utility.yul\":185:206   */\n      mstore\n        /* \"#utility.yul\":237:241   */\n      0x20\n        /* \"#utility.yul\":230:235   */\n      dup2\n        /* \"#utility.yul\":226:242   */\n      add\n        /* \"#utility.yul\":275:278   */\n      dup5\n        /* \"#utility.yul\":266:272   */\n      dup5\n        /* \"#utility.yul\":261:264   */\n      dup5\n        /* \"#utility.yul\":257:273   */\n      add\n        /* \"#utility.yul\":254:279   */\n      gt\n        /* \"#utility.yul\":251:363   */\n      iszero\n      tag_126\n      jumpi\n        /* \"#utility.yul\":282:361   */\n      tag_127\n      tag_128\n      jump\t// in\n    tag_127:\n        /* \"#utility.yul\":251:363   */\n    tag_126:\n        /* \"#utility.yul\":372:413   */\n      tag_129\n        /* \"#utility.yul\":406:412   */\n      dup5\n        /* \"#utility.yul\":401:404   */\n      dup3\n        /* \"#utility.yul\":396:399   */\n      dup6\n        /* \"#utility.yul\":372:413   */\n      tag_130\n      jump\t// in\n    tag_129:\n        /* \"#utility.yul\":91:419   */\n      pop\n        /* \"#utility.yul\":7:419   */\n      swap4\n      swap3\n      pop\n      pop\n      pop\n      jump\t// out\n        /* \"#utility.yul\":439:779   */\n    tag_131:\n        /* \"#utility.yul\":495:500   */\n      0x00\n        /* \"#utility.yul\":544:547   */\n      dup3\n        /* \"#utility.yul\":537:541   */\n      0x1f\n        /* \"#utility.yul\":529:535   */\n      dup4\n        /* \"#utility.yul\":525:542   */\n      add\n        /* \"#utility.yul\":521:548   */\n      slt\n        /* \"#utility.yul\":511:633   */\n      tag_133\n      jumpi\n        /* \"#utility.yul\":552:631   */\n      tag_134\n      tag_135\n      jump\t// in\n    tag_134:\n        /* \"#utility.yul\":511:633   */\n    tag_133:\n        /* \"#utility.yul\":669:675   */\n      dup2\n        /* \"#utility.yul\":656:676   */\n      calldataload\n        /* \"#utility.yul\":694:773   */\n      tag_136\n        /* \"#utility.yul\":769:772   */\n      dup5\n        /* \"#utility.yul\":761:767   */\n      dup3\n        /* \"#utility.yul\":754:758   */\n      0x20\n        /* \"#utility.yul\":746:752   */\n      dup7\n        /* \"#utility.yul\":742:759   */\n      add\n        /* \"#utility.yul\":694:773   */\n      tag_120\n      jump\t// in\n    tag_136:\n        /* \"#utility.yul\":685:773   */\n      swap2\n      pop\n        /* \"#utility.yul\":501:779   */\n      pop\n        /* \"#utility.yul\":439:779   */\n      swap3\n      swap2\n      pop\n      pop\n      jump\t// out\n        /* \"#utility.yul\":785:1294   */\n    tag_15:\n        /* \"#utility.yul\":854:860   */\n      0x00\n        /* \"#utility.yul\":903:905   */\n      0x20\n        /* \"#utility.yul\":891:900   */\n      dup3\n        /* \"#utility.yul\":882:889   */\n      dup5\n        /* \"#utility.yul\":878:901   */\n      sub\n        /* \"#utility.yul\":874:906   */\n      slt\n        /* \"#utility.yul\":871:990   */\n      iszero\n      tag_138\n      jumpi\n        /* \"#utility.yul\":909:988   */\n      tag_139\n      tag_140\n      jump\t// in\n    tag_139:\n        /* \"#utility.yul\":871:990   */\n    tag_138:\n        /* \"#utility.yul\":1057:1058   */\n      0x00\n        /* \"#utility.yul\":1046:1055   */\n      dup3\n        /* \"#utility.yul\":1042:1059   */\n      add\n        /* \"#utility.yul\":1029:1060   */\n      calldataload\n        /* \"#utility.yul\":1087:1105   */\n      0xffffffffffffffff\n        /* \"#utility.yul\":1079:1085   */\n      dup2\n        /* \"#utility.yul\":1076:1106   */\n      gt\n        /* \"#utility.yul\":1073:1190   */\n      iszero\n      tag_141\n      jumpi\n        /* \"#utility.yul\":1109:1188   */\n      tag_142\n      tag_143\n      jump\t// in\n    tag_142:\n        /* \"#utility.yul\":1073:1190   */\n    tag_141:\n        /* \"#utility.yul\":1214:1277   */\n      tag_144\n        /* \"#utility.yul\":1269:1276   */\n      dup5\n        /* \"#utility.yul\":1260:1266   */\n      dup3\n        /* \"#utility.yul\":1249:1258   */\n      dup6\n        /* \"#utility.yul\":1245:1267   */\n      add\n        /* \"#utility.yul\":1214:1277   */\n      tag_131\n      jump\t// in\n    tag_144:\n        /* \"#utility.yul\":1204:1277   */\n      swap2\n      pop\n        /* \"#utility.yul\":1000:1287   */\n      pop\n        /* \"#utility.yul\":785:1294   */\n      swap3\n      swap2\n      pop\n      pop\n      jump\t// out\n        /* \"#utility.yul\":1300:2134   */\n    tag_11:\n        /* \"#utility.yul\":1388:1394   */\n      0x00\n        /* \"#utility.yul\":1396:1402   */\n      dup1\n        /* \"#utility.yul\":1445:1447   */\n      0x40\n        /* \"#utility.yul\":1433:1442   */\n      dup4\n        /* \"#utility.yul\":1424:1431   */\n      dup6\n        /* \"#utility.yul\":1420:1443   */\n      sub\n        /* \"#utility.yul\":1416:1448   */\n      slt\n        /* \"#utility.yul\":1413:1532   */\n      iszero\n      tag_146\n      jumpi\n        /* \"#utility.yul\":1451:1530   */\n      tag_147\n      tag_140\n      jump\t// in\n    tag_147:\n        /* \"#utility.yul\":1413:1532   */\n    tag_146:\n        /* \"#utility.yul\":1599:1600   */\n      0x00\n        /* \"#utility.yul\":1588:1597   */\n      dup4\n        /* \"#utility.yul\":1584:1601   */\n      add\n        /* \"#utility.yul\":1571:1602   */\n      calldataload\n        /* \"#utility.yul\":1629:1647   */\n      0xffffffffffffffff\n        /* \"#utility.yul\":1621:1627   */\n      dup2\n        /* \"#utility.yul\":1618:1648   */\n      gt\n        /* \"#utility.yul\":1615:1732   */\n      iszero\n      tag_148\n      jumpi\n        /* \"#utility.yul\":1651:1730   */\n      tag_149\n      tag_143\n      jump\t// in\n    tag_149:\n        /* \"#utility.yul\":1615:1732   */\n    tag_148:\n        /* \"#utility.yul\":1756:1819   */\n      tag_150\n        /* \"#utility.yul\":1811:1818   */\n      dup6\n        /* \"#utility.yul\":1802:1808   */\n      dup3\n        /* \"#utility.yul\":1791:1800   */\n      dup7\n        /* \"#utility.yul\":1787:1809   */\n      add\n        /* \"#utility.yul\":1756:1819   */\n      tag_131\n      jump\t// in\n    tag_150:\n        /* \"#utility.yul\":1746:1819   */\n      swap3\n      pop\n        /* \"#utility.yul\":1542:1829   */\n      pop\n        /* \"#utility.yul\":1896:1898   */\n      0x20\n        /* \"#utility.yul\":1885:1894   */\n      dup4\n        /* \"#utility.yul\":1881:1899   */\n      add\n        /* \"#utility.yul\":1868:1900   */\n      calldataload\n        /* \"#utility.yul\":1927:1945   */\n      0xffffffffffffffff\n        /* \"#utility.yul\":1919:1925   */\n      dup2\n        /* \"#utility.yul\":1916:1946   */\n      gt\n        /* \"#utility.yul\":1913:2030   */\n      iszero\n      tag_151\n      jumpi\n        /* \"#utility.yul\":1949:2028   */\n      tag_152\n      tag_143\n      jump\t// in\n    tag_152:\n        /* \"#utility.yul\":1913:2030   */\n    tag_151:\n        /* \"#utility.yul\":2054:2117   */\n      tag_153\n        /* \"#utility.yul\":2109:2116   */\n      dup6\n        /* \"#utility.yul\":2100:2106   */\n      dup3\n        /* \"#utility.yul\":2089:2098   */\n      dup7\n        /* \"#utility.yul\":2085:2107   */\n      add\n        /* \"#utility.yul\":2054:2117   */\n      tag_131\n      jump\t// in\n    tag_153:\n        /* \"#utility.yul\":2044:2117   */\n      swap2\n      pop\n        /* \"#utility.yul\":1839:2127   */\n      pop\n        /* \"#utility.yul\":1300:2134   */\n      swap3\n      pop\n      swap3\n      swap1\n      pop\n      jump\t// out\n        /* \"#utility.yul\":2140:2484   */\n    tag_154:\n        /* \"#utility.yul\":2218:2221   */\n      0x00\n        /* \"#utility.yul\":2246:2285   */\n      tag_156\n        /* \"#utility.yul\":2279:2284   */\n      dup3\n        /* \"#utility.yul\":2246:2285   */\n      tag_157\n      jump\t// in\n    tag_156:\n        /* \"#utility.yul\":2301:2362   */\n      tag_158\n        /* \"#utility.yul\":2355:2361   */\n      dup2\n        /* \"#utility.yul\":2350:2353   */\n      dup6\n        /* \"#utility.yul\":2301:2362   */\n      tag_159\n      jump\t// in\n    tag_158:\n        /* \"#utility.yul\":2294:2362   */\n      swap4\n      pop\n        /* \"#utility.yul\":2371:2423   */\n      tag_160\n        /* \"#utility.yul\":2416:2422   */\n      dup2\n        /* \"#utility.yul\":2411:2414   */\n      dup6\n        /* \"#utility.yul\":2404:2408   */\n      0x20\n        /* \"#utility.yul\":2397:2402   */\n      dup7\n        /* \"#utility.yul\":2393:2409   */\n      add\n        /* \"#utility.yul\":2371:2423   */\n      tag_161\n      jump\t// in\n    tag_160:\n        /* \"#utility.yul\":2448:2477   */\n      tag_162\n        /* \"#utility.yul\":2470:2476   */\n      dup2\n        /* \"#utility.yul\":2448:2477   */\n      tag_163\n      jump\t// in\n    tag_162:\n        /* \"#utility.yul\":2443:2446   */\n      dup5\n        /* \"#utility.yul\":2439:2478   */\n      add\n        /* \"#utility.yul\":2432:2478   */\n      swap2\n      pop\n        /* \"#utility.yul\":2222:2484   */\n      pop\n        /* \"#utility.yul\":2140:2484   */\n      swap3\n      swap2\n      pop\n      pop\n      jump\t// out\n        /* \"#utility.yul\":2490:2867   */\n    tag_164:\n        /* \"#utility.yul\":2596:2599   */\n      0x00\n        /* \"#utility.yul\":2624:2663   */\n      tag_166\n        /* \"#utility.yul\":2657:2662   */\n      dup3\n        /* \"#utility.yul\":2624:2663   */\n      tag_157\n      jump\t// in\n    tag_166:\n        /* \"#utility.yul\":2679:2768   */\n      tag_167\n        /* \"#utility.yul\":2761:2767   */\n      dup2\n        /* \"#utility.yul\":2756:2759   */\n      dup6\n        /* \"#utility.yul\":2679:2768   */\n      tag_168\n      jump\t// in\n    tag_167:\n        /* \"#utility.yul\":2672:2768   */\n      swap4\n      pop\n        /* \"#utility.yul\":2777:2829   */\n      tag_169\n        /* \"#utility.yul\":2822:2828   */\n      dup2\n        /* \"#utility.yul\":2817:2820   */\n      dup6\n        /* \"#utility.yul\":2810:2814   */\n      0x20\n        /* \"#utility.yul\":2803:2808   */\n      dup7\n        /* \"#utility.yul\":2799:2815   */\n      add\n        /* \"#utility.yul\":2777:2829   */\n      tag_161\n      jump\t// in\n    tag_169:\n        /* \"#utility.yul\":2854:2860   */\n      dup1\n        /* \"#utility.yul\":2849:2852   */\n      dup5\n        /* \"#utility.yul\":2845:2861   */\n      add\n        /* \"#utility.yul\":2838:2861   */\n      swap2\n      pop\n        /* \"#utility.yul\":2600:2867   */\n      pop\n        /* \"#utility.yul\":2490:2867   */\n      swap3\n      swap2\n      pop\n      pop\n      jump\t// out\n        /* \"#utility.yul\":2873:3239   */\n    tag_170:\n        /* \"#utility.yul\":3015:3018   */\n      0x00\n        /* \"#utility.yul\":3036:3103   */\n      tag_172\n        /* \"#utility.yul\":3100:3102   */\n      0x1b\n        /* \"#utility.yul\":3095:3098   */\n      dup4\n        /* \"#utility.yul\":3036:3103   */\n      tag_173\n      jump\t// in\n    tag_172:\n        /* \"#utility.yul\":3029:3103   */\n      swap2\n      pop\n        /* \"#utility.yul\":3112:3205   */\n      tag_174\n        /* \"#utility.yul\":3201:3204   */\n      dup3\n        /* \"#utility.yul\":3112:3205   */\n      tag_175\n      jump\t// in\n    tag_174:\n        /* \"#utility.yul\":3230:3232   */\n      0x20\n        /* \"#utility.yul\":3225:3228   */\n      dup3\n        /* \"#utility.yul\":3221:3233   */\n      add\n        /* \"#utility.yul\":3214:3233   */\n      swap1\n      pop\n        /* \"#utility.yul\":2873:3239   */\n      swap2\n      swap1\n      pop\n      jump\t// out\n        /* \"#utility.yul\":3245:3611   */\n    tag_176:\n        /* \"#utility.yul\":3387:3390   */\n      0x00\n        /* \"#utility.yul\":3408:3475   */\n      tag_178\n        /* \"#utility.yul\":3472:3474   */\n      0x14\n        /* \"#utility.yul\":3467:3470   */\n      dup4\n        /* \"#utility.yul\":3408:3475   */\n      tag_173\n      jump\t// in\n    tag_178:\n        /* \"#utility.yul\":3401:3475   */\n      swap2\n      pop\n        /* \"#utility.yul\":3484:3577   */\n      tag_179\n        /* \"#utility.yul\":3573:3576   */\n      dup3\n        /* \"#utility.yul\":3484:3577   */\n      tag_180\n      jump\t// in\n    tag_179:\n        /* \"#utility.yul\":3602:3604   */\n      0x20\n        /* \"#utility.yul\":3597:3600   */\n      dup3\n        /* \"#utility.yul\":3593:3605   */\n      add\n        /* \"#utility.yul\":3586:3605   */\n      swap1\n      pop\n        /* \"#utility.yul\":3245:3611   */\n      swap2\n      swap1\n      pop\n      jump\t// out\n        /* \"#utility.yul\":3617:3983   */\n    tag_181:\n        /* \"#utility.yul\":3759:3762   */\n      0x00\n        /* \"#utility.yul\":3780:3847   */\n      tag_183\n        /* \"#utility.yul\":3844:3846   */\n      0x17\n        /* \"#utility.yul\":3839:3842   */\n      dup4\n        /* \"#utility.yul\":3780:3847   */\n      tag_173\n      jump\t// in\n    tag_183:\n        /* \"#utility.yul\":3773:3847   */\n      swap2\n      pop\n        /* \"#utility.yul\":3856:3949   */\n      tag_184\n        /* \"#utility.yul\":3945:3948   */\n      dup3\n        /* \"#utility.yul\":3856:3949   */\n      tag_185\n      jump\t// in\n    tag_184:\n        /* \"#utility.yul\":3974:3976   */\n      0x20\n        /* \"#utility.yul\":3969:3972   */\n      dup3\n        /* \"#utility.yul\":3965:3977   */\n      add\n        /* \"#utility.yul\":3958:3977   */\n      swap1\n      pop\n        /* \"#utility.yul\":3617:3983   */\n      swap2\n      swap1\n      pop\n      jump\t// out\n        /* \"#utility.yul\":3989:4355   */\n    tag_186:\n        /* \"#utility.yul\":4131:4134   */\n      0x00\n        /* \"#utility.yul\":4152:4219   */\n      tag_188\n        /* \"#utility.yul\":4216:4218   */\n      0x15\n        /* \"#utility.yul\":4211:4214   */\n      dup4\n        /* \"#utility.yul\":4152:4219   */\n      tag_173\n      jump\t// in\n    tag_188:\n        /* \"#utility.yul\":4145:4219   */\n      swap2\n      pop\n        /* \"#utility.yul\":4228:4321   */\n      tag_189\n        /* \"#utility.yul\":4317:4320   */\n      dup3\n        /* \"#utility.yul\":4228:4321   */\n      tag_190\n      jump\t// in\n    tag_189:\n        /* \"#utility.yul\":4346:4348   */\n      0x20\n        /* \"#utility.yul\":4341:4344   */\n      dup3\n        /* \"#utility.yul\":4337:4349   */\n      add\n        /* \"#utility.yul\":4330:4349   */\n      swap1\n      pop\n        /* \"#utility.yul\":3989:4355   */\n      swap2\n      swap1\n      pop\n      jump\t// out\n        /* \"#utility.yul\":4361:4727   */\n    tag_191:\n        /* \"#utility.yul\":4503:4506   */\n      0x00\n        /* \"#utility.yul\":4524:4591   */\n      tag_193\n        /* \"#utility.yul\":4588:4590   */\n      0x10\n        /* \"#utility.yul\":4583:4586   */\n      dup4\n        /* \"#utility.yul\":4524:4591   */\n      tag_173\n      jump\t// in\n    tag_193:\n        /* \"#utility.yul\":4517:4591   */\n      swap2\n      pop\n        /* \"#utility.yul\":4600:4693   */\n      tag_194\n        /* \"#utility.yul\":4689:4692   */\n      dup3\n        /* \"#utility.yul\":4600:4693   */\n      tag_195\n      jump\t// in\n    tag_194:\n        /* \"#utility.yul\":4718:4720   */\n      0x20\n        /* \"#utility.yul\":4713:4716   */\n      dup3\n        /* \"#utility.yul\":4709:4721   */\n      add\n        /* \"#utility.yul\":4702:4721   */\n      swap1\n      pop\n        /* \"#utility.yul\":4361:4727   */\n      swap2\n      swap1\n      pop\n      jump\t// out\n        /* \"#utility.yul\":4733:5099   */\n    tag_196:\n        /* \"#utility.yul\":4875:4878   */\n      0x00\n        /* \"#utility.yul\":4896:4963   */\n      tag_198\n        /* \"#utility.yul\":4960:4962   */\n      0x27\n        /* \"#utility.yul\":4955:4958   */\n      dup4\n        /* \"#utility.yul\":4896:4963   */\n      tag_173\n      jump\t// in\n    tag_198:\n        /* \"#utility.yul\":4889:4963   */\n      swap2\n      pop\n        /* \"#utility.yul\":4972:5065   */\n      tag_199\n        /* \"#utility.yul\":5061:5064   */\n      dup3\n        /* \"#utility.yul\":4972:5065   */\n      tag_200\n      jump\t// in\n    tag_199:\n        /* \"#utility.yul\":5090:5092   */\n      0x40\n        /* \"#utility.yul\":5085:5088   */\n      dup3\n        /* \"#utility.yul\":5081:5093   */\n      add\n        /* \"#utility.yul\":5074:5093   */\n      swap1\n      pop\n        /* \"#utility.yul\":4733:5099   */\n      swap2\n      swap1\n      pop\n      jump\t// out\n        /* \"#utility.yul\":5105:5471   */\n    tag_201:\n        /* \"#utility.yul\":5247:5250   */\n      0x00\n        /* \"#utility.yul\":5268:5335   */\n      tag_203\n        /* \"#utility.yul\":5332:5334   */\n      0x0d\n        /* \"#utility.yul\":5327:5330   */\n      dup4\n        /* \"#utility.yul\":5268:5335   */\n      tag_173\n      jump\t// in\n    tag_203:\n        /* \"#utility.yul\":5261:5335   */\n      swap2\n      pop\n        /* \"#utility.yul\":5344:5437   */\n      tag_204\n        /* \"#utility.yul\":5433:5436   */\n      dup3\n        /* \"#utility.yul\":5344:5437   */\n      tag_205\n      jump\t// in\n    tag_204:\n        /* \"#utility.yul\":5462:5464   */\n      0x20\n        /* \"#utility.yul\":5457:5460   */\n      dup3\n        /* \"#utility.yul\":5453:5465   */\n      add\n        /* \"#utility.yul\":5446:5465   */\n      swap1\n      pop\n        /* \"#utility.yul\":5105:5471   */\n      swap2\n      swap1\n      pop\n      jump\t// out\n        /* \"#utility.yul\":5477:5843   */\n    tag_206:\n        /* \"#utility.yul\":5619:5622   */\n      0x00\n        /* \"#utility.yul\":5640:5707   */\n      tag_208\n        /* \"#utility.yul\":5704:5706   */\n      0x13\n        /* \"#utility.yul\":5699:5702   */\n      dup4\n        /* \"#utility.yul\":5640:5707   */\n      tag_173\n      jump\t// in\n    tag_208:\n        /* \"#utility.yul\":5633:5707   */\n      swap2\n      pop\n        /* \"#utility.yul\":5716:5809   */\n      tag_209\n        /* \"#utility.yul\":5805:5808   */\n      dup3\n        /* \"#utility.yul\":5716:5809   */\n      tag_210\n      jump\t// in\n    tag_209:\n        /* \"#utility.yul\":5834:5836   */\n      0x20\n        /* \"#utility.yul\":5829:5832   */\n      dup3\n        /* \"#utility.yul\":5825:5837   */\n      add\n        /* \"#utility.yul\":5818:5837   */\n      swap1\n      pop\n        /* \"#utility.yul\":5477:5843   */\n      swap2\n      swap1\n      pop\n      jump\t// out\n        /* \"#utility.yul\":5849:6215   */\n    tag_211:\n        /* \"#utility.yul\":5991:5994   */\n      0x00\n        /* \"#utility.yul\":6012:6079   */\n      tag_213\n        /* \"#utility.yul\":6076:6078   */\n      0x27\n        /* \"#utility.yul\":6071:6074   */\n      dup4\n        /* \"#utility.yul\":6012:6079   */\n      tag_173\n      jump\t// in\n    tag_213:\n        /* \"#utility.yul\":6005:6079   */\n      swap2\n      pop\n        /* \"#utility.yul\":6088:6181   */\n      tag_214\n        /* \"#utility.yul\":6177:6180   */\n      dup3\n        /* \"#utility.yul\":6088:6181   */\n      tag_215\n      jump\t// in\n    tag_214:\n        /* \"#utility.yul\":6206:6208   */\n      0x40\n        /* \"#utility.yul\":6201:6204   */\n      dup3\n        /* \"#utility.yul\":6197:6209   */\n      add\n        /* \"#utility.yul\":6190:6209   */\n      swap1\n      pop\n        /* \"#utility.yul\":5849:6215   */\n      swap2\n      swap1\n      pop\n      jump\t// out\n        /* \"#utility.yul\":6295:6906   */\n    tag_216:\n        /* \"#utility.yul\":6414:6417   */\n      0x00\n        /* \"#utility.yul\":6450:6454   */\n      0x40\n        /* \"#utility.yul\":6445:6448   */\n      dup4\n        /* \"#utility.yul\":6441:6455   */\n      add\n        /* \"#utility.yul\":6537:6541   */\n      0x00\n        /* \"#utility.yul\":6530:6535   */\n      dup4\n        /* \"#utility.yul\":6526:6542   */\n      add\n        /* \"#utility.yul\":6520:6543   */\n      mload\n        /* \"#utility.yul\":6590:6593   */\n      dup5\n        /* \"#utility.yul\":6584:6588   */\n      dup3\n        /* \"#utility.yul\":6580:6594   */\n      sub\n        /* \"#utility.yul\":6573:6577   */\n      0x00\n        /* \"#utility.yul\":6568:6571   */\n      dup7\n        /* \"#utility.yul\":6564:6578   */\n      add\n        /* \"#utility.yul\":6557:6595   */\n      mstore\n        /* \"#utility.yul\":6616:6689   */\n      tag_218\n        /* \"#utility.yul\":6684:6688   */\n      dup3\n        /* \"#utility.yul\":6670:6682   */\n      dup3\n        /* \"#utility.yul\":6616:6689   */\n      tag_154\n      jump\t// in\n    tag_218:\n        /* \"#utility.yul\":6608:6689   */\n      swap2\n      pop\n        /* \"#utility.yul\":6465:6700   */\n      pop\n        /* \"#utility.yul\":6787:6791   */\n      0x20\n        /* \"#utility.yul\":6780:6785   */\n      dup4\n        /* \"#utility.yul\":6776:6792   */\n      add\n        /* \"#utility.yul\":6770:6793   */\n      mload\n        /* \"#utility.yul\":6806:6869   */\n      tag_219\n        /* \"#utility.yul\":6863:6867   */\n      0x20\n        /* \"#utility.yul\":6858:6861   */\n      dup7\n        /* \"#utility.yul\":6854:6868   */\n      add\n        /* \"#utility.yul\":6840:6852   */\n      dup3\n        /* \"#utility.yul\":6806:6869   */\n      tag_220\n      jump\t// in\n    tag_219:\n        /* \"#utility.yul\":6710:6879   */\n      pop\n        /* \"#utility.yul\":6896:6900   */\n      dup1\n        /* \"#utility.yul\":6889:6900   */\n      swap2\n      pop\n        /* \"#utility.yul\":6419:6906   */\n      pop\n        /* \"#utility.yul\":6295:6906   */\n      swap3\n      swap2\n      pop\n      pop\n      jump\t// out\n        /* \"#utility.yul\":6912:7020   */\n    tag_220:\n        /* \"#utility.yul\":6989:7013   */\n      tag_222\n        /* \"#utility.yul\":7007:7012   */\n      dup2\n        /* \"#utility.yul\":6989:7013   */\n      tag_223\n      jump\t// in\n    tag_222:\n        /* \"#utility.yul\":6984:6987   */\n      dup3\n        /* \"#utility.yul\":6977:7014   */\n      mstore\n        /* \"#utility.yul\":6912:7020   */\n      pop\n      pop\n      jump\t// out\n        /* \"#utility.yul\":7026:7301   */\n    tag_48:\n        /* \"#utility.yul\":7158:7161   */\n      0x00\n        /* \"#utility.yul\":7180:7275   */\n      tag_225\n        /* \"#utility.yul\":7271:7274   */\n      dup3\n        /* \"#utility.yul\":7262:7268   */\n      dup5\n        /* \"#utility.yul\":7180:7275   */\n      tag_164\n      jump\t// in\n    tag_225:\n        /* \"#utility.yul\":7173:7275   */\n      swap2\n      pop\n        /* \"#utility.yul\":7292:7295   */\n      dup2\n        /* \"#utility.yul\":7285:7295   */\n      swap1\n      pop\n        /* \"#utility.yul\":7026:7301   */\n      swap3\n      swap2\n      pop\n      pop\n      jump\t// out\n        /* \"#utility.yul\":7307:7726   */\n    tag_94:\n        /* \"#utility.yul\":7473:7477   */\n      0x00\n        /* \"#utility.yul\":7511:7513   */\n      0x20\n        /* \"#utility.yul\":7500:7509   */\n      dup3\n        /* \"#utility.yul\":7496:7514   */\n      add\n        /* \"#utility.yul\":7488:7514   */\n      swap1\n      pop\n        /* \"#utility.yul\":7560:7569   */\n      dup2\n        /* \"#utility.yul\":7554:7558   */\n      dup2\n        /* \"#utility.yul\":7550:7570   */\n      sub\n        /* \"#utility.yul\":7546:7547   */\n      0x00\n        /* \"#utility.yul\":7535:7544   */\n      dup4\n        /* \"#utility.yul\":7531:7548   */\n      add\n        /* \"#utility.yul\":7524:7571   */\n      mstore\n        /* \"#utility.yul\":7588:7719   */\n      tag_227\n        /* \"#utility.yul\":7714:7718   */\n      dup2\n        /* \"#utility.yul\":7588:7719   */\n      tag_170\n      jump\t// in\n    tag_227:\n        /* \"#utility.yul\":7580:7719   */\n      swap1\n      pop\n        /* \"#utility.yul\":7307:7726   */\n      swap2\n      swap1\n      pop\n      jump\t// out\n        /* \"#utility.yul\":7732:8151   */\n    tag_32:\n        /* \"#utility.yul\":7898:7902   */\n      0x00\n        /* \"#utility.yul\":7936:7938   */\n      0x20\n        /* \"#utility.yul\":7925:7934   */\n      dup3\n        /* \"#utility.yul\":7921:7939   */\n      add\n        /* \"#utility.yul\":7913:7939   */\n      swap1\n      pop\n        /* \"#utility.yul\":7985:7994   */\n      dup2\n        /* \"#utility.yul\":7979:7983   */\n      dup2\n        /* \"#utility.yul\":7975:7995   */\n      sub\n        /* \"#utility.yul\":7971:7972   */\n      0x00\n        /* \"#utility.yul\":7960:7969   */\n      dup4\n        /* \"#utility.yul\":7956:7973   */\n      add\n        /* \"#utility.yul\":7949:7996   */\n      mstore\n        /* \"#utility.yul\":8013:8144   */\n      tag_229\n        /* \"#utility.yul\":8139:8143   */\n      dup2\n        /* \"#utility.yul\":8013:8144   */\n      tag_176\n      jump\t// in\n    tag_229:\n        /* \"#utility.yul\":8005:8144   */\n      swap1\n      pop\n        /* \"#utility.yul\":7732:8151   */\n      swap2\n      swap1\n      pop\n      jump\t// out\n        /* \"#utility.yul\":8157:8576   */\n    tag_104:\n        /* \"#utility.yul\":8323:8327   */\n      0x00\n        /* \"#utility.yul\":8361:8363   */\n      0x20\n        /* \"#utility.yul\":8350:8359   */\n      dup3\n        /* \"#utility.yul\":8346:8364   */\n      add\n        /* \"#utility.yul\":8338:8364   */\n      swap1\n      pop\n        /* \"#utility.yul\":8410:8419   */\n      dup2\n        /* \"#utility.yul\":8404:8408   */\n      dup2\n        /* \"#utility.yul\":8400:8420   */\n      sub\n        /* \"#utility.yul\":8396:8397   */\n      0x00\n        /* \"#utility.yul\":8385:8394   */\n      dup4\n        /* \"#utility.yul\":8381:8398   */\n      add\n        /* \"#utility.yul\":8374:8421   */\n      mstore\n        /* \"#utility.yul\":8438:8569   */\n      tag_231\n        /* \"#utility.yul\":8564:8568   */\n      dup2\n        /* \"#utility.yul\":8438:8569   */\n      tag_181\n      jump\t// in\n    tag_231:\n        /* \"#utility.yul\":8430:8569   */\n      swap1\n      pop\n        /* \"#utility.yul\":8157:8576   */\n      swap2\n      swap1\n      pop\n      jump\t// out\n        /* \"#utility.yul\":8582:9001   */\n    tag_43:\n        /* \"#utility.yul\":8748:8752   */\n      0x00\n        /* \"#utility.yul\":8786:8788   */\n      0x20\n        /* \"#utility.yul\":8775:8784   */\n      dup3\n        /* \"#utility.yul\":8771:8789   */\n      add\n        /* \"#utility.yul\":8763:8789   */\n      swap1\n      pop\n        /* \"#utility.yul\":8835:8844   */\n      dup2\n        /* \"#utility.yul\":8829:8833   */\n      dup2\n        /* \"#utility.yul\":8825:8845   */\n      sub\n        /* \"#utility.yul\":8821:8822   */\n      0x00\n        /* \"#utility.yul\":8810:8819   */\n      dup4\n        /* \"#utility.yul\":8806:8823   */\n      add\n        /* \"#utility.yul\":8799:8846   */\n      mstore\n        /* \"#utility.yul\":8863:8994   */\n      tag_233\n        /* \"#utility.yul\":8989:8993   */\n      dup2\n        /* \"#utility.yul\":8863:8994   */\n      tag_186\n      jump\t// in\n    tag_233:\n        /* \"#utility.yul\":8855:8994   */\n      swap1\n      pop\n        /* \"#utility.yul\":8582:9001   */\n      swap2\n      swap1\n      pop\n      jump\t// out\n        /* \"#utility.yul\":9007:9426   */\n    tag_36:\n        /* \"#utility.yul\":9173:9177   */\n      0x00\n        /* \"#utility.yul\":9211:9213   */\n      0x20\n        /* \"#utility.yul\":9200:9209   */\n      dup3\n        /* \"#utility.yul\":9196:9214   */\n      add\n        /* \"#utility.yul\":9188:9214   */\n      swap1\n      pop\n        /* \"#utility.yul\":9260:9269   */\n      dup2\n        /* \"#utility.yul\":9254:9258   */\n      dup2\n        /* \"#utility.yul\":9250:9270   */\n      sub\n        /* \"#utility.yul\":9246:9247   */\n      0x00\n        /* \"#utility.yul\":9235:9244   */\n      dup4\n        /* \"#utility.yul\":9231:9248   */\n      add\n        /* \"#utility.yul\":9224:9271   */\n      mstore\n        /* \"#utility.yul\":9288:9419   */\n      tag_235\n        /* \"#utility.yul\":9414:9418   */\n      dup2\n        /* \"#utility.yul\":9288:9419   */\n      tag_191\n      jump\t// in\n    tag_235:\n        /* \"#utility.yul\":9280:9419   */\n      swap1\n      pop\n        /* \"#utility.yul\":9007:9426   */\n      swap2\n      swap1\n      pop\n      jump\t// out\n        /* \"#utility.yul\":9432:9851   */\n    tag_79:\n        /* \"#utility.yul\":9598:9602   */\n      0x00\n        /* \"#utility.yul\":9636:9638   */\n      0x20\n        /* \"#utility.yul\":9625:9634   */\n      dup3\n        /* \"#utility.yul\":9621:9639   */\n      add\n        /* \"#utility.yul\":9613:9639   */\n      swap1\n      pop\n        /* \"#utility.yul\":9685:9694   */\n      dup2\n        /* \"#utility.yul\":9679:9683   */\n      dup2\n        /* \"#utility.yul\":9675:9695   */\n      sub\n        /* \"#utility.yul\":9671:9672   */\n      0x00\n        /* \"#utility.yul\":9660:9669   */\n      dup4\n        /* \"#utility.yul\":9656:9673   */\n      add\n        /* \"#utility.yul\":9649:9696   */\n      mstore\n        /* \"#utility.yul\":9713:9844   */\n      tag_237\n        /* \"#utility.yul\":9839:9843   */\n      dup2\n        /* \"#utility.yul\":9713:9844   */\n      tag_196\n      jump\t// in\n    tag_237:\n        /* \"#utility.yul\":9705:9844   */\n      swap1\n      pop\n        /* \"#utility.yul\":9432:9851   */\n      swap2\n      swap1\n      pop\n      jump\t// out\n        /* \"#utility.yul\":9857:10276   */\n    tag_69:\n        /* \"#utility.yul\":10023:10027   */\n      0x00\n        /* \"#utility.yul\":10061:10063   */\n      0x20\n        /* \"#utility.yul\":10050:10059   */\n      dup3\n        /* \"#utility.yul\":10046:10064   */\n      add\n        /* \"#utility.yul\":10038:10064   */\n      swap1\n      pop\n        /* \"#utility.yul\":10110:10119   */\n      dup2\n        /* \"#utility.yul\":10104:10108   */\n      dup2\n        /* \"#utility.yul\":10100:10120   */\n      sub\n        /* \"#utility.yul\":10096:10097   */\n      0x00\n        /* \"#utility.yul\":10085:10094   */\n      dup4\n        /* \"#utility.yul\":10081:10098   */\n      add\n        /* \"#utility.yul\":10074:10121   */\n      mstore\n        /* \"#utility.yul\":10138:10269   */\n      tag_239\n        /* \"#utility.yul\":10264:10268   */\n      dup2\n        /* \"#utility.yul\":10138:10269   */\n      tag_201\n      jump\t// in\n    tag_239:\n        /* \"#utility.yul\":10130:10269   */\n      swap1\n      pop\n        /* \"#utility.yul\":9857:10276   */\n      swap2\n      swap1\n      pop\n      jump\t// out\n        /* \"#utility.yul\":10282:10701   */\n    tag_40:\n        /* \"#utility.yul\":10448:10452   */\n      0x00\n        /* \"#utility.yul\":10486:10488   */\n      0x20\n        /* \"#utility.yul\":10475:10484   */\n      dup3\n        /* \"#utility.yul\":10471:10489   */\n      add\n        /* \"#utility.yul\":10463:10489   */\n      swap1\n      pop\n        /* \"#utility.yul\":10535:10544   */\n      dup2\n        /* \"#utility.yul\":10529:10533   */\n      dup2\n        /* \"#utility.yul\":10525:10545   */\n      sub\n        /* \"#utility.yul\":10521:10522   */\n      0x00\n        /* \"#utility.yul\":10510:10519   */\n      dup4\n        /* \"#utility.yul\":10506:10523   */\n      add\n        /* \"#utility.yul\":10499:10546   */\n      mstore\n        /* \"#utility.yul\":10563:10694   */\n      tag_241\n        /* \"#utility.yul\":10689:10693   */\n      dup2\n        /* \"#utility.yul\":10563:10694   */\n      tag_206\n      jump\t// in\n    tag_241:\n        /* \"#utility.yul\":10555:10694   */\n      swap1\n      pop\n        /* \"#utility.yul\":10282:10701   */\n      swap2\n      swap1\n      pop\n      jump\t// out\n        /* \"#utility.yul\":10707:11126   */\n    tag_91:\n        /* \"#utility.yul\":10873:10877   */\n      0x00\n        /* \"#utility.yul\":10911:10913   */\n      0x20\n        /* \"#utility.yul\":10900:10909   */\n      dup3\n        /* \"#utility.yul\":10896:10914   */\n      add\n        /* \"#utility.yul\":10888:10914   */\n      swap1\n      pop\n        /* \"#utility.yul\":10960:10969   */\n      dup2\n        /* \"#utility.yul\":10954:10958   */\n      dup2\n        /* \"#utility.yul\":10950:10970   */\n      sub\n        /* \"#utility.yul\":10946:10947   */\n      0x00\n        /* \"#utility.yul\":10935:10944   */\n      dup4\n        /* \"#utility.yul\":10931:10948   */\n      add\n        /* \"#utility.yul\":10924:10971   */\n      mstore\n        /* \"#utility.yul\":10988:11119   */\n      tag_243\n        /* \"#utility.yul\":11114:11118   */\n      dup2\n        /* \"#utility.yul\":10988:11119   */\n      tag_211\n      jump\t// in\n    tag_243:\n        /* \"#utility.yul\":10980:11119   */\n      swap1\n      pop\n        /* \"#utility.yul\":10707:11126   */\n      swap2\n      swap1\n      pop\n      jump\t// out\n        /* \"#utility.yul\":11132:11505   */\n    tag_18:\n        /* \"#utility.yul\":11275:11279   */\n      0x00\n        /* \"#utility.yul\":11313:11315   */\n      0x20\n        /* \"#utility.yul\":11302:11311   */\n      dup3\n        /* \"#utility.yul\":11298:11316   */\n      add\n        /* \"#utility.yul\":11290:11316   */\n      swap1\n      pop\n        /* \"#utility.yul\":11362:11371   */\n      dup2\n        /* \"#utility.yul\":11356:11360   */\n      dup2\n        /* \"#utility.yul\":11352:11372   */\n      sub\n        /* \"#utility.yul\":11348:11349   */\n      0x00\n        /* \"#utility.yul\":11337:11346   */\n      dup4\n        /* \"#utility.yul\":11333:11350   */\n      add\n        /* \"#utility.yul\":11326:11373   */\n      mstore\n        /* \"#utility.yul\":11390:11498   */\n      tag_245\n        /* \"#utility.yul\":11493:11497   */\n      dup2\n        /* \"#utility.yul\":11484:11490   */\n      dup5\n        /* \"#utility.yul\":11390:11498   */\n      tag_216\n      jump\t// in\n    tag_245:\n        /* \"#utility.yul\":11382:11498   */\n      swap1\n      pop\n        /* \"#utility.yul\":11132:11505   */\n      swap3\n      swap2\n      pop\n      pop\n      jump\t// out\n        /* \"#utility.yul\":11511:11640   */\n    tag_125:\n        /* \"#utility.yul\":11545:11551   */\n      0x00\n        /* \"#utility.yul\":11572:11592   */\n      tag_247\n      tag_248\n      jump\t// in\n    tag_247:\n        /* \"#utility.yul\":11562:11592   */\n      swap1\n      pop\n        /* \"#utility.yul\":11601:11634   */\n      tag_249\n        /* \"#utility.yul\":11629:11633   */\n      dup3\n        /* \"#utility.yul\":11621:11627   */\n      dup3\n        /* \"#utility.yul\":11601:11634   */\n      tag_250\n      jump\t// in\n    tag_249:\n        /* \"#utility.yul\":11511:11640   */\n      swap2\n      swap1\n      pop\n      jump\t// out\n        /* \"#utility.yul\":11646:11721   */\n    tag_248:\n        /* \"#utility.yul\":11679:11685   */\n      0x00\n        /* \"#utility.yul\":11712:11714   */\n      0x40\n        /* \"#utility.yul\":11706:11715   */\n      mload\n        /* \"#utility.yul\":11696:11715   */\n      swap1\n      pop\n        /* \"#utility.yul\":11646:11721   */\n      swap1\n      jump\t// out\n        /* \"#utility.yul\":11727:12035   */\n    tag_124:\n        /* \"#utility.yul\":11789:11793   */\n      0x00\n        /* \"#utility.yul\":11879:11897   */\n      0xffffffffffffffff\n        /* \"#utility.yul\":11871:11877   */\n      dup3\n        /* \"#utility.yul\":11868:11898   */\n      gt\n        /* \"#utility.yul\":11865:11921   */\n      iszero\n      tag_253\n      jumpi\n        /* \"#utility.yul\":11901:11919   */\n      tag_254\n      tag_255\n      jump\t// in\n    tag_254:\n        /* \"#utility.yul\":11865:11921   */\n    tag_253:\n        /* \"#utility.yul\":11939:11968   */\n      tag_256\n        /* \"#utility.yul\":11961:11967   */\n      dup3\n        /* \"#utility.yul\":11939:11968   */\n      tag_163\n      jump\t// in\n    tag_256:\n        /* \"#utility.yul\":11931:11968   */\n      swap1\n      pop\n        /* \"#utility.yul\":12023:12027   */\n      0x20\n        /* \"#utility.yul\":12017:12021   */\n      dup2\n        /* \"#utility.yul\":12013:12028   */\n      add\n        /* \"#utility.yul\":12005:12028   */\n      swap1\n      pop\n        /* \"#utility.yul\":11727:12035   */\n      swap2\n      swap1\n      pop\n      jump\t// out\n        /* \"#utility.yul\":12041:12140   */\n    tag_157:\n        /* \"#utility.yul\":12093:12099   */\n      0x00\n        /* \"#utility.yul\":12127:12132   */\n      dup2\n        /* \"#utility.yul\":12121:12133   */\n      mload\n        /* \"#utility.yul\":12111:12133   */\n      swap1\n      pop\n        /* \"#utility.yul\":12041:12140   */\n      swap2\n      swap1\n      pop\n      jump\t// out\n        /* \"#utility.yul\":12146:12305   */\n    tag_159:\n        /* \"#utility.yul\":12220:12231   */\n      0x00\n        /* \"#utility.yul\":12254:12260   */\n      dup3\n        /* \"#utility.yul\":12249:12252   */\n      dup3\n        /* \"#utility.yul\":12242:12261   */\n      mstore\n        /* \"#utility.yul\":12294:12298   */\n      0x20\n        /* \"#utility.yul\":12289:12292   */\n      dup3\n        /* \"#utility.yul\":12285:12299   */\n      add\n        /* \"#utility.yul\":12270:12299   */\n      swap1\n      pop\n        /* \"#utility.yul\":12146:12305   */\n      swap3\n      swap2\n      pop\n      pop\n      jump\t// out\n        /* \"#utility.yul\":12311:12480   */\n    tag_173:\n        /* \"#utility.yul\":12395:12406   */\n      0x00\n        /* \"#utility.yul\":12429:12435   */\n      dup3\n        /* \"#utility.yul\":12424:12427   */\n      dup3\n        /* \"#utility.yul\":12417:12436   */\n      mstore\n        /* \"#utility.yul\":12469:12473   */\n      0x20\n        /* \"#utility.yul\":12464:12467   */\n      dup3\n        /* \"#utility.yul\":12460:12474   */\n      add\n        /* \"#utility.yul\":12445:12474   */\n      swap1\n      pop\n        /* \"#utility.yul\":12311:12480   */\n      swap3\n      swap2\n      pop\n      pop\n      jump\t// out\n        /* \"#utility.yul\":12486:12634   */\n    tag_168:\n        /* \"#utility.yul\":12588:12599   */\n      0x00\n        /* \"#utility.yul\":12625:12628   */\n      dup2\n        /* \"#utility.yul\":12610:12628   */\n      swap1\n      pop\n        /* \"#utility.yul\":12486:12634   */\n      swap3\n      swap2\n      pop\n      pop\n      jump\t// out\n        /* \"#utility.yul\":12640:12945   */\n    tag_72:\n        /* \"#utility.yul\":12680:12683   */\n      0x00\n        /* \"#utility.yul\":12699:12719   */\n      tag_262\n        /* \"#utility.yul\":12717:12718   */\n      dup3\n        /* \"#utility.yul\":12699:12719   */\n      tag_223\n      jump\t// in\n    tag_262:\n        /* \"#utility.yul\":12694:12719   */\n      swap2\n      pop\n        /* \"#utility.yul\":12733:12753   */\n      tag_263\n        /* \"#utility.yul\":12751:12752   */\n      dup4\n        /* \"#utility.yul\":12733:12753   */\n      tag_223\n      jump\t// in\n    tag_263:\n        /* \"#utility.yul\":12728:12753   */\n      swap3\n      pop\n        /* \"#utility.yul\":12887:12888   */\n      dup3\n        /* \"#utility.yul\":12819:12885   */\n      0xffffffffffffffffffffffffffffffffffffffffffffffffffffffffffffffff\n        /* \"#utility.yul\":12815:12889   */\n      sub\n        /* \"#utility.yul\":12812:12813   */\n      dup3\n        /* \"#utility.yul\":12809:12890   */\n      gt\n        /* \"#utility.yul\":12806:12913   */\n      iszero\n      tag_264\n      jumpi\n        /* \"#utility.yul\":12893:12911   */\n      tag_265\n      tag_266\n      jump\t// in\n    tag_265:\n        /* \"#utility.yul\":12806:12913   */\n    tag_264:\n        /* \"#utility.yul\":12937:12938   */\n      dup3\n        /* \"#utility.yul\":12934:12935   */\n      dup3\n        /* \"#utility.yul\":12930:12939   */\n      add\n        /* \"#utility.yul\":12923:12939   */\n      swap1\n      pop\n        /* \"#utility.yul\":12640:12945   */\n      swap3\n      swap2\n      pop\n      pop\n      jump\t// out\n        /* \"#utility.yul\":12951:13028   */\n    tag_223:\n        /* \"#utility.yul\":12988:12995   */\n      0x00\n        /* \"#utility.yul\":13017:13022   */\n      dup2\n        /* \"#utility.yul\":13006:13022   */\n      swap1\n      pop\n        /* \"#utility.yul\":12951:13028   */\n      swap2\n      swap1\n      pop\n      jump\t// out\n        /* \"#utility.yul\":13034:13188   */\n    tag_130:\n        /* \"#utility.yul\":13118:13124   */\n      dup3\n        /* \"#utility.yul\":13113:13116   */\n      dup2\n        /* \"#utility.yul\":13108:13111   */\n      dup4\n        /* \"#utility.yul\":13095:13125   */\n      calldatacopy\n        /* \"#utility.yul\":13180:13181   */\n      0x00\n        /* \"#utility.yul\":13171:13177   */\n      dup4\n        /* \"#utility.yul\":13166:13169   */\n      dup4\n        /* \"#utility.yul\":13162:13178   */\n      add\n        /* \"#utility.yul\":13155:13182   */\n      mstore\n        /* \"#utility.yul\":13034:13188   */\n      pop\n      pop\n      pop\n      jump\t// out\n        /* \"#utility.yul\":13194:13501   */\n    tag_161:\n        /* \"#utility.yul\":13262:13263   */\n      0x00\n        /* \"#utility.yul\":13272:13385   */\n    tag_270:\n        /* \"#utility.yul\":13286:13292   */\n      dup4\n        /* \"#utility.yul\":13283:13284   */\n      dup2\n        /* \"#utility.yul\":13280:13293   */\n      lt\n        /* \"#utility.yul\":13272:13385   */\n      iszero\n      tag_272\n      jumpi\n        /* \"#utility.yul\":13371:13372   */\n      dup1\n        /* \"#utility.yul\":13366:13369   */\n      dup3\n        /* \"#utility.yul\":13362:13373   */\n      add\n        /* \"#utility.yul\":13356:13374   */\n      mload\n        /* \"#utility.yul\":13352:13353   */\n      dup2\n        /* \"#utility.yul\":13347:13350   */\n      dup5\n        /* \"#utility.yul\":13343:13354   */\n      add\n        /* \"#utility.yul\":13336:13375   */\n      mstore\n        /* \"#utility.yul\":13308:13310   */\n      0x20\n        /* \"#utility.yul\":13305:13306   */\n      dup2\n        /* \"#utility.yul\":13301:13311   */\n      add\n        /* \"#utility.yul\":13296:13311   */\n      swap1\n      pop\n        /* \"#utility.yul\":13272:13385   */\n      jump(tag_270)\n    tag_272:\n        /* \"#utility.yul\":13403:13409   */\n      dup4\n        /* \"#utility.yul\":13400:13401   */\n      dup2\n        /* \"#utility.yul\":13397:13410   */\n      gt\n        /* \"#utility.yul\":13394:13495   */\n      iszero\n      tag_273\n      jumpi\n        /* \"#utility.yul\":13483:13484   */\n      0x00\n        /* \"#utility.yul\":13474:13480   */\n      dup5\n        /* \"#utility.yul\":13469:13472   */\n      dup5\n        /* \"#utility.yul\":13465:13481   */\n      add\n        /* \"#utility.yul\":13458:13485   */\n      mstore\n        /* \"#utility.yul\":13394:13495   */\n    tag_273:\n        /* \"#utility.yul\":13243:13501   */\n      pop\n        /* \"#utility.yul\":13194:13501   */\n      pop\n      pop\n      pop\n      jump\t// out\n        /* \"#utility.yul\":13507:13827   */\n    tag_56:\n        /* \"#utility.yul\":13551:13557   */\n      0x00\n        /* \"#utility.yul\":13588:13589   */\n      0x02\n        /* \"#utility.yul\":13582:13586   */\n      dup3\n        /* \"#utility.yul\":13578:13590   */\n      div\n        /* \"#utility.yul\":13568:13590   */\n      swap1\n      pop\n        /* \"#utility.yul\":13635:13636   */\n      0x01\n        /* \"#utility.yul\":13629:13633   */\n      dup3\n        /* \"#utility.yul\":13625:13637   */\n      and\n        /* \"#utility.yul\":13656:13674   */\n      dup1\n        /* \"#utility.yul\":13646:13727   */\n      tag_275\n      jumpi\n        /* \"#utility.yul\":13712:13716   */\n      0x7f\n        /* \"#utility.yul\":13704:13710   */\n      dup3\n        /* \"#utility.yul\":13700:13717   */\n      and\n        /* \"#utility.yul\":13690:13717   */\n      swap2\n      pop\n        /* \"#utility.yul\":13646:13727   */\n    tag_275:\n        /* \"#utility.yul\":13774:13776   */\n      0x20\n        /* \"#utility.yul\":13766:13772   */\n      dup3\n        /* \"#utility.yul\":13763:13777   */\n      lt\n        /* \"#utility.yul\":13743:13761   */\n      dup2\n        /* \"#utility.yul\":13740:13778   */\n      eq\n        /* \"#utility.yul\":13737:13821   */\n      iszero\n      tag_276\n      jumpi\n        /* \"#utility.yul\":13793:13811   */\n      tag_277\n      tag_278\n      jump\t// in\n    tag_277:\n        /* \"#utility.yul\":13737:13821   */\n    tag_276:\n        /* \"#utility.yul\":13558:13827   */\n      pop\n        /* \"#utility.yul\":13507:13827   */\n      swap2\n      swap1\n      pop\n      jump\t// out\n        /* \"#utility.yul\":13833:14114   */\n    tag_250:\n        /* \"#utility.yul\":13916:13943   */\n      tag_280\n        /* \"#utility.yul\":13938:13942   */\n      dup3\n        /* \"#utility.yul\":13916:13943   */\n      tag_163\n      jump\t// in\n    tag_280:\n        /* \"#utility.yul\":13908:13914   */\n      dup2\n        /* \"#utility.yul\":13904:13944   */\n      add\n        /* \"#utility.yul\":14046:14052   */\n      dup2\n        /* \"#utility.yul\":14034:14044   */\n      dup2\n        /* \"#utility.yul\":14031:14053   */\n      lt\n        /* \"#utility.yul\":14010:14028   */\n      0xffffffffffffffff\n        /* \"#utility.yul\":13998:14008   */\n      dup3\n        /* \"#utility.yul\":13995:14029   */\n      gt\n        /* \"#utility.yul\":13992:14054   */\n      or\n        /* \"#utility.yul\":13989:14077   */\n      iszero\n      tag_281\n      jumpi\n        /* \"#utility.yul\":14057:14075   */\n      tag_282\n      tag_255\n      jump\t// in\n    tag_282:\n        /* \"#utility.yul\":13989:14077   */\n    tag_281:\n        /* \"#utility.yul\":14097:14107   */\n      dup1\n        /* \"#utility.yul\":14093:14095   */\n      0x40\n        /* \"#utility.yul\":14086:14108   */\n      mstore\n        /* \"#utility.yul\":13876:14114   */\n      pop\n        /* \"#utility.yul\":13833:14114   */\n      pop\n      pop\n      jump\t// out\n        /* \"#utility.yul\":14120:14300   */\n    tag_266:\n        /* \"#utility.yul\":14168:14245   */\n      0x4e487b7100000000000000000000000000000000000000000000000000000000\n        /* \"#utility.yul\":14165:14166   */\n      0x00\n        /* \"#utility.yul\":14158:14246   */\n      mstore\n        /* \"#utility.yul\":14265:14269   */\n      0x11\n        /* \"#utility.yul\":14262:14263   */\n      0x04\n        /* \"#utility.yul\":14255:14270   */\n      mstore\n        /* \"#utility.yul\":14289:14293   */\n      0x24\n        /* \"#utility.yul\":14286:14287   */\n      0x00\n        /* \"#utility.yul\":14279:14294   */\n      revert\n        /* \"#utility.yul\":14306:14486   */\n    tag_278:\n        /* \"#utility.yul\":14354:14431   */\n      0x4e487b7100000000000000000000000000000000000000000000000000000000\n        /* \"#utility.yul\":14351:14352   */\n      0x00\n        /* \"#utility.yul\":14344:14432   */\n      mstore\n        /* \"#utility.yul\":14451:14455   */\n      0x22\n        /* \"#utility.yul\":14448:14449   */\n      0x04\n        /* \"#utility.yul\":14441:14456   */\n      mstore\n        /* \"#utility.yul\":14475:14479   */\n      0x24\n        /* \"#utility.yul\":14472:14473   */\n      0x00\n        /* \"#utility.yul\":14465:14480   */\n      revert\n        /* \"#utility.yul\":14492:14672   */\n    tag_255:\n        /* \"#utility.yul\":14540:14617   */\n      0x4e487b7100000000000000000000000000000000000000000000000000000000\n        /* \"#utility.yul\":14537:14538   */\n      0x00\n        /* \"#utility.yul\":14530:14618   */\n      mstore\n        /* \"#utility.yul\":14637:14641   */\n      0x41\n        /* \"#utility.yul\":14634:14635   */\n      0x04\n        /* \"#utility.yul\":14627:14642   */\n      mstore\n        /* \"#utility.yul\":14661:14665   */\n      0x24\n        /* \"#utility.yul\":14658:14659   */\n      0x00\n        /* \"#utility.yul\":14651:14666   */\n      revert\n        /* \"#utility.yul\":14678:14795   */\n    tag_135:\n        /* \"#utility.yul\":14787:14788   */\n      0x00\n        /* \"#utility.yul\":14784:14785   */\n      dup1\n        /* \"#utility.yul\":14777:14789   */\n      revert\n        /* \"#utility.yul\":14801:14918   */\n    tag_128:\n        /* \"#utility.yul\":14910:14911   */\n      0x00\n        /* \"#utility.yul\":14907:14908   */\n      dup1\n        /* \"#utility.yul\":14900:14912   */\n      revert\n        /* \"#utility.yul\":14924:15041   */\n    tag_143:\n        /* \"#utility.yul\":15033:15034   */\n      0x00\n        /* \"#utility.yul\":15030:15031   */\n      dup1\n        /* \"#utility.yul\":15023:15035   */\n      revert\n        /* \"#utility.yul\":15047:15164   */\n    tag_140:\n        /* \"#utility.yul\":15156:15157   */\n      0x00\n        /* \"#utility.yul\":15153:15154   */\n      dup1\n        /* \"#utility.yul\":15146:15158   */\n      revert\n        /* \"#utility.yul\":15170:15272   */\n    tag_163:\n        /* \"#utility.yul\":15211:15217   */\n      0x00\n        /* \"#utility.yul\":15262:15264   */\n      0x1f\n        /* \"#utility.yul\":15258:15265   */\n      not\n        /* \"#utility.yul\":15253:15255   */\n      0x1f\n        /* \"#utility.yul\":15246:15251   */\n      dup4\n        /* \"#utility.yul\":15242:15256   */\n      add\n        /* \"#utility.yul\":15238:15266   */\n      and\n        /* \"#utility.yul\":15228:15266   */\n      swap1\n      pop\n        /* \"#utility.yul\":15170:15272   */\n      swap2\n      swap1\n      pop\n      jump\t// out\n        /* \"#utility.yul\":15278:15455   */\n    tag_175:\n        /* \"#utility.yul\":15418:15447   */\n      0x596f752063616e27742072656d6f76652063616e6469646174652e0000000000\n        /* \"#utility.yul\":15414:15415   */\n      0x00\n        /* \"#utility.yul\":15406:15412   */\n      dup3\n        /* \"#utility.yul\":15402:15416   */\n      add\n        /* \"#utility.yul\":15395:15448   */\n      mstore\n        /* \"#utility.yul\":15278:15455   */\n      pop\n      jump\t// out\n        /* \"#utility.yul\":15461:15631   */\n    tag_180:\n        /* \"#utility.yul\":15601:15623   */\n      0x556e617574686f72697a6564204163636573732e000000000000000000000000\n        /* \"#utility.yul\":15597:15598   */\n      0x00\n        /* \"#utility.yul\":15589:15595   */\n      dup3\n        /* \"#utility.yul\":15585:15599   */\n      add\n        /* \"#utility.yul\":15578:15624   */\n      mstore\n        /* \"#utility.yul\":15461:15631   */\n      pop\n      jump\t// out\n        /* \"#utility.yul\":15637:15810   */\n    tag_185:\n        /* \"#utility.yul\":15777:15802   */\n      0x566f74696e67206e6f742073746172746564207965742e000000000000000000\n        /* \"#utility.yul\":15773:15774   */\n      0x00\n        /* \"#utility.yul\":15765:15771   */\n      dup3\n        /* \"#utility.yul\":15761:15775   */\n      add\n        /* \"#utility.yul\":15754:15803   */\n      mstore\n        /* \"#utility.yul\":15637:15810   */\n      pop\n      jump\t// out\n        /* \"#utility.yul\":15816:15987   */\n    tag_190:\n        /* \"#utility.yul\":15956:15979   */\n      0x53796d626f6c2063616e277420626520656d7074790000000000000000000000\n        /* \"#utility.yul\":15952:15953   */\n      0x00\n        /* \"#utility.yul\":15944:15950   */\n      dup3\n        /* \"#utility.yul\":15940:15954   */\n      add\n        /* \"#utility.yul\":15933:15980   */\n      mstore\n        /* \"#utility.yul\":15816:15987   */\n      pop\n      jump\t// out\n        /* \"#utility.yul\":15993:16159   */\n    tag_195:\n        /* \"#utility.yul\":16133:16151   */\n      0x416c726561647920537461727465642e00000000000000000000000000000000\n        /* \"#utility.yul\":16129:16130   */\n      0x00\n        /* \"#utility.yul\":16121:16127   */\n      dup3\n        /* \"#utility.yul\":16117:16131   */\n      add\n        /* \"#utility.yul\":16110:16152   */\n      mstore\n        /* \"#utility.yul\":15993:16159   */\n      pop\n      jump\t// out\n        /* \"#utility.yul\":16165:16391   */\n    tag_200:\n        /* \"#utility.yul\":16305:16339   */\n      0x41746c6561737420322063616e646964617465206d7573742062652072656769\n        /* \"#utility.yul\":16301:16302   */\n      0x00\n        /* \"#utility.yul\":16293:16299   */\n      dup3\n        /* \"#utility.yul\":16289:16303   */\n      add\n        /* \"#utility.yul\":16282:16340   */\n      mstore\n        /* \"#utility.yul\":16374:16383   */\n      0x7374657265642e00000000000000000000000000000000000000000000000000\n        /* \"#utility.yul\":16369:16371   */\n      0x20\n        /* \"#utility.yul\":16361:16367   */\n      dup3\n        /* \"#utility.yul\":16357:16372   */\n      add\n        /* \"#utility.yul\":16350:16384   */\n      mstore\n        /* \"#utility.yul\":16165:16391   */\n      pop\n      jump\t// out\n        /* \"#utility.yul\":16397:16560   */\n    tag_205:\n        /* \"#utility.yul\":16537:16552   */\n      0x496e76616c696420496e70757400000000000000000000000000000000000000\n        /* \"#utility.yul\":16533:16534   */\n      0x00\n        /* \"#utility.yul\":16525:16531   */\n      dup3\n        /* \"#utility.yul\":16521:16535   */\n      add\n        /* \"#utility.yul\":16514:16553   */\n      mstore\n        /* \"#utility.yul\":16397:16560   */\n      pop\n      jump\t// out\n        /* \"#utility.yul\":16566:16735   */\n    tag_210:\n        /* \"#utility.yul\":16706:16727   */\n      0x4e616d652043616e277420626520656d70747900000000000000000000000000\n        /* \"#utility.yul\":16702:16703   */\n      0x00\n        /* \"#utility.yul\":16694:16700   */\n      dup3\n        /* \"#utility.yul\":16690:16704   */\n      add\n        /* \"#utility.yul\":16683:16728   */\n      mstore\n        /* \"#utility.yul\":16566:16735   */\n      pop\n      jump\t// out\n        /* \"#utility.yul\":16741:16967   */\n    tag_215:\n        /* \"#utility.yul\":16881:16915   */\n      0x41746c6561737420312063616e646964617465206d7573742062652072656769\n        /* \"#utility.yul\":16877:16878   */\n      0x00\n        /* \"#utility.yul\":16869:16875   */\n      dup3\n        /* \"#utility.yul\":16865:16879   */\n      add\n        /* \"#utility.yul\":16858:16916   */\n      mstore\n        /* \"#utility.yul\":16950:16959   */\n      0x7374657265642e00000000000000000000000000000000000000000000000000\n        /* \"#utility.yul\":16945:16947   */\n      0x20\n        /* \"#utility.yul\":16937:16943   */\n      dup3\n        /* \"#utility.yul\":16933:16948   */\n      add\n        /* \"#utility.yul\":16926:16960   */\n      mstore\n        /* \"#utility.yul\":16741:16967   */\n      pop\n      jump\t// out\n\n    auxdata: 0xa2646970667358221220948f3a12f8d33a7dc2b9a464c1a61f212b9701e35d19f29b1c9640d3779d7a9c64736f6c63430008070033\n}\n",
				"bytecode": {
					"linkReferences": {},
					"object": "608060405260008060006101000a81548160ff0219169083151502179055506000600260146101000a81548160ff02191690831515021790555034801561004557600080fd5b5033600260006101000a81548173ffffffffffffffffffffffffffffffffffffffff021916908373ffffffffffffffffffffffffffffffffffffffff1602179055506112b9806100966000396000f3fe608060405234801561001057600080fd5b50600436106100625760003560e01c8063137967a614610067578063196b2e24146100835780631f6d52c5146100b35780634c0a6af0146100cf57806388feb516146100d9578063fab2f86b146100f5575b600080fd5b610081600480360381019061007c9190610abf565b6100ff565b005b61009d60048036038101906100989190610a76565b61030c565b6040516100aa9190610e5f565b60405180910390f35b6100cd60048036038101906100c89190610a76565b6103e0565b005b6100d76104e3565b005b6100f360048036038101906100ee9190610a76565b610648565b005b6100fd610806565b005b600260009054906101000a900473ffffffffffffffffffffffffffffffffffffffff1673ffffffffffffffffffffffffffffffffffffffff163373ffffffffffffffffffffffffffffffffffffffff161461018f576040517f08c379a000000000000000000000000000000000000000000000000000000000815260040161018690610d5f565b60405180910390fd5b60011515600260149054906101000a900460ff161515146101e5576040517f08c379a00000000000000000000000000000000000000000000000000000000081526004016101dc90610dbf565b60405180910390fd5b60008251141561022a576040517f08c379a000000000000000000000000000000000000000000000000000000000815260040161022190610e1f565b60405180910390fd5b60008151141561026f576040517f08c379a000000000000000000000000000000000000000000000000000000000815260040161026690610d9f565b60405180910390fd5b6003819080600181540180825580915050600190039060005260206000200160009091909190915090805190602001906102aa929190610909565b50816004826040516102bc9190610d28565b908152602001604051809103902060000190805190602001906102e0929190610909565b5060006004826040516102f39190610d28565b9081526020016040518091039020600101819055505050565b61031461098f565b6004826040516103249190610d28565b908152602001604051809103902060405180604001604052908160008201805461034d90610fb1565b80601f016020809104026020016040519081016040528092919081815260200182805461037990610fb1565b80156103c65780601f1061039b576101008083540402835291602001916103c6565b820191906000526020600020905b8154815290600101906020018083116103a957829003601f168201915b505050505081526020016001820154815250509050919050565b60011515600260149054906101000a900460ff16151514610436576040517f08c379a000000000000000000000000000000000000000000000000000000000815260040161042d90610dbf565b60405180910390fd5b60006004826040516104489190610d28565b9081526020016040518091039020600001805461046490610fb1565b905014156104a7576040517f08c379a000000000000000000000000000000000000000000000000000000000815260040161049e90610dff565b60405180910390fd5b60016004826040516104b99190610d28565b908152602001604051809103902060010160008282546104d99190610f0f565b9250508190555050565b600260009054906101000a900473ffffffffffffffffffffffffffffffffffffffff1673ffffffffffffffffffffffffffffffffffffffff163373ffffffffffffffffffffffffffffffffffffffff1614610573576040517f08c379a000000000000000000000000000000000000000000000000000000000815260040161056a90610d5f565b60405180910390fd5b6000600380549050116105bb576040517f08c379a00000000000000000000000000000000000000000000000000000000081526004016105b290610ddf565b60405180910390fd5b60001515600260149054906101000a900460ff16151514610611576040517f08c379a000000000000000000000000000000000000000000000000000000000815260040161060890610dbf565b60405180910390fd5b6001600260146101000a81548160ff02191690831515021790555060016000806101000a81548160ff021916908315150217905550565b600260009054906101000a900473ffffffffffffffffffffffffffffffffffffffff1673ffffffffffffffffffffffffffffffffffffffff163373ffffffffffffffffffffffffffffffffffffffff16146106d8576040517f08c379a00000000000000000000000000000000000000000000000000000000081526004016106cf90610d5f565b60405180910390fd5b60011515600260149054906101000a900460ff1615151461072e576040517f08c379a000000000000000000000000000000000000000000000000000000000815260040161072590610dbf565b60405180910390fd5b600060038054905011610776576040517f08c379a000000000000000000000000000000000000000000000000000000000815260040161076d90610e3f565b60405180910390fd5b6000151560008054906101000a900460ff161515146107ca576040517f08c379a00000000000000000000000000000000000000000000000000000000081526004016107c190610d3f565b60405180910390fd5b6004816040516107da9190610d28565b9081526020016040518091039020600080820160006107f991906109a9565b6001820160009055505050565b600260009054906101000a900473ffffffffffffffffffffffffffffffffffffffff1673ffffffffffffffffffffffffffffffffffffffff163373ffffffffffffffffffffffffffffffffffffffff1614610896576040517f08c379a000000000000000000000000000000000000000000000000000000000815260040161088d90610d5f565b60405180910390fd5b60011515600260149054906101000a900460ff161515146108ec576040517f08c379a00000000000000000000000000000000000000000000000000000000081526004016108e390610d7f565b60405180910390fd5b6000600260146101000a81548160ff021916908315150217905550565b82805461091590610fb1565b90600052602060002090601f016020900481019282610937576000855561097e565b82601f1061095057805160ff191683800117855561097e565b8280016001018555821561097e579182015b8281111561097d578251825591602001919060010190610962565b5b50905061098b91906109e9565b5090565b604051806040016040528060608152602001600081525090565b5080546109b590610fb1565b6000825580601f106109c757506109e6565b601f0160209004906000526020600020908101906109e591906109e9565b5b50565b5b80821115610a025760008160009055506001016109ea565b5090565b6000610a19610a1484610ea6565b610e81565b905082815260208101848484011115610a3557610a346110a6565b5b610a40848285610f6f565b509392505050565b600082601f830112610a5d57610a5c6110a1565b5b8135610a6d848260208601610a06565b91505092915050565b600060208284031215610a8c57610a8b6110b0565b5b600082013567ffffffffffffffff811115610aaa57610aa96110ab565b5b610ab684828501610a48565b91505092915050565b60008060408385031215610ad657610ad56110b0565b5b600083013567ffffffffffffffff811115610af457610af36110ab565b5b610b0085828601610a48565b925050602083013567ffffffffffffffff811115610b2157610b206110ab565b5b610b2d85828601610a48565b9150509250929050565b6000610b4282610ed7565b610b4c8185610ee2565b9350610b5c818560208601610f7e565b610b65816110b5565b840191505092915050565b6000610b7b82610ed7565b610b858185610f04565b9350610b95818560208601610f7e565b80840191505092915050565b6000610bae601b83610ef3565b9150610bb9826110c6565b602082019050919050565b6000610bd1601483610ef3565b9150610bdc826110ef565b602082019050919050565b6000610bf4601783610ef3565b9150610bff82611118565b602082019050919050565b6000610c17601583610ef3565b9150610c2282611141565b602082019050919050565b6000610c3a601083610ef3565b9150610c458261116a565b602082019050919050565b6000610c5d602783610ef3565b9150610c6882611193565b604082019050919050565b6000610c80600d83610ef3565b9150610c8b826111e2565b602082019050919050565b6000610ca3601383610ef3565b9150610cae8261120b565b602082019050919050565b6000610cc6602783610ef3565b9150610cd182611234565b604082019050919050565b60006040830160008301518482036000860152610cf98282610b37565b9150506020830151610d0e6020860182610d19565b508091505092915050565b610d2281610f65565b82525050565b6000610d348284610b70565b915081905092915050565b60006020820190508181036000830152610d5881610ba1565b9050919050565b60006020820190508181036000830152610d7881610bc4565b9050919050565b60006020820190508181036000830152610d9881610be7565b9050919050565b60006020820190508181036000830152610db881610c0a565b9050919050565b60006020820190508181036000830152610dd881610c2d565b9050919050565b60006020820190508181036000830152610df881610c50565b9050919050565b60006020820190508181036000830152610e1881610c73565b9050919050565b60006020820190508181036000830152610e3881610c96565b9050919050565b60006020820190508181036000830152610e5881610cb9565b9050919050565b60006020820190508181036000830152610e798184610cdc565b905092915050565b6000610e8b610e9c565b9050610e978282610fe3565b919050565b6000604051905090565b600067ffffffffffffffff821115610ec157610ec0611072565b5b610eca826110b5565b9050602081019050919050565b600081519050919050565b600082825260208201905092915050565b600082825260208201905092915050565b600081905092915050565b6000610f1a82610f65565b9150610f2583610f65565b9250827fffffffffffffffffffffffffffffffffffffffffffffffffffffffffffffffff03821115610f5a57610f59611014565b5b828201905092915050565b6000819050919050565b82818337600083830152505050565b60005b83811015610f9c578082015181840152602081019050610f81565b83811115610fab576000848401525b50505050565b60006002820490506001821680610fc957607f821691505b60208210811415610fdd57610fdc611043565b5b50919050565b610fec826110b5565b810181811067ffffffffffffffff8211171561100b5761100a611072565b5b80604052505050565b7f4e487b7100000000000000000000000000000000000000000000000000000000600052601160045260246000fd5b7f4e487b7100000000000000000000000000000000000000000000000000000000600052602260045260246000fd5b7f4e487b7100000000000000000000000000000000000000000000000000000000600052604160045260246000fd5b600080fd5b600080fd5b600080fd5b600080fd5b6000601f19601f8301169050919050565b7f596f752063616e27742072656d6f76652063616e6469646174652e0000000000600082015250565b7f556e617574686f72697a6564204163636573732e000000000000000000000000600082015250565b7f566f74696e67206e6f742073746172746564207965742e000000000000000000600082015250565b7f53796d626f6c2063616e277420626520656d7074790000000000000000000000600082015250565b7f416c726561647920537461727465642e00000000000000000000000000000000600082015250565b7f41746c6561737420322063616e646964617465206d757374206265207265676960008201527f7374657265642e00000000000000000000000000000000000000000000000000602082015250565b7f496e76616c696420496e70757400000000000000000000000000000000000000600082015250565b7f4e616d652043616e277420626520656d70747900000000000000000000000000600082015250565b7f41746c6561737420312063616e646964617465206d757374206265207265676960008201527f7374657265642e0000000000000000000000000000000000000000000000000060208201525056fea2646970667358221220948f3a12f8d33a7dc2b9a464c1a61f212b9701e35d19f29b1c9640d3779d7a9c64736f6c63430008070033",
					"opcodes": "PUSH1 0x80 PUSH1 0x40 MSTORE PUSH1 0x0 DUP1 PUSH1 0x0 PUSH2 0x100 EXP DUP2 SLOAD DUP2 PUSH1 0xFF MUL NOT AND SWAP1 DUP4 ISZERO ISZERO MUL OR SWAP1 SSTORE POP PUSH1 0x0 PUSH1 0x2 PUSH1 0x14 PUSH2 0x100 EXP DUP2 SLOAD DUP2 PUSH1 0xFF MUL NOT AND SWAP1 DUP4 ISZERO ISZERO MUL OR SWAP1 SSTORE POP CALLVALUE DUP1 ISZERO PUSH2 0x45 JUMPI PUSH1 0x0 DUP1 REVERT JUMPDEST POP CALLER PUSH1 0x2 PUSH1 0x0 PUSH2 0x100 EXP DUP2 SLOAD DUP2 PUSH20 0xFFFFFFFFFFFFFFFFFFFFFFFFFFFFFFFFFFFFFFFF MUL NOT AND SWAP1 DUP4 PUSH20 0xFFFFFFFFFFFFFFFFFFFFFFFFFFFFFFFFFFFFFFFF AND MUL OR SWAP1 SSTORE POP PUSH2 0x12B9 DUP1 PUSH2 0x96 PUSH1 0x0 CODECOPY PUSH1 0x0 RETURN INVALID PUSH1 0x80 PUSH1 0x40 MSTORE CALLVALUE DUP1 ISZERO PUSH2 0x10 JUMPI PUSH1 0x0 DUP1 REVERT JUMPDEST POP PUSH1 0x4 CALLDATASIZE LT PUSH2 0x62 JUMPI PUSH1 0x0 CALLDATALOAD PUSH1 0xE0 SHR DUP1 PUSH4 0x137967A6 EQ PUSH2 0x67 JUMPI DUP1 PUSH4 0x196B2E24 EQ PUSH2 0x83 JUMPI DUP1 PUSH4 0x1F6D52C5 EQ PUSH2 0xB3 JUMPI DUP1 PUSH4 0x4C0A6AF0 EQ PUSH2 0xCF JUMPI DUP1 PUSH4 0x88FEB516 EQ PUSH2 0xD9 JUMPI DUP1 PUSH4 0xFAB2F86B EQ PUSH2 0xF5 JUMPI JUMPDEST PUSH1 0x0 DUP1 REVERT JUMPDEST PUSH2 0x81 PUSH1 0x4 DUP1 CALLDATASIZE SUB DUP2 ADD SWAP1 PUSH2 0x7C SWAP2 SWAP1 PUSH2 0xABF JUMP JUMPDEST PUSH2 0xFF JUMP JUMPDEST STOP JUMPDEST PUSH2 0x9D PUSH1 0x4 DUP1 CALLDATASIZE SUB DUP2 ADD SWAP1 PUSH2 0x98 SWAP2 SWAP1 PUSH2 0xA76 JUMP JUMPDEST PUSH2 0x30C JUMP JUMPDEST PUSH1 0x40 MLOAD PUSH2 0xAA SWAP2 SWAP1 PUSH2 0xE5F JUMP JUMPDEST PUSH1 0x40 MLOAD DUP1 SWAP2 SUB SWAP1 RETURN JUMPDEST PUSH2 0xCD PUSH1 0x4 DUP1 CALLDATASIZE SUB DUP2 ADD SWAP1 PUSH2 0xC8 SWAP2 SWAP1 PUSH2 0xA76 JUMP JUMPDEST PUSH2 0x3E0 JUMP JUMPDEST STOP JUMPDEST PUSH2 0xD7 PUSH2 0x4E3 JUMP JUMPDEST STOP JUMPDEST PUSH2 0xF3 PUSH1 0x4 DUP1 CALLDATASIZE SUB DUP2 ADD SWAP1 PUSH2 0xEE SWAP2 SWAP1 PUSH2 0xA76 JUMP JUMPDEST PUSH2 0x648 JUMP JUMPDEST STOP JUMPDEST PUSH2 0xFD PUSH2 0x806 JUMP JUMPDEST STOP JUMPDEST PUSH1 0x2 PUSH1 0x0 SWAP1 SLOAD SWAP1 PUSH2 0x100 EXP SWAP1 DIV PUSH20 0xFFFFFFFFFFFFFFFFFFFFFFFFFFFFFFFFFFFFFFFF AND PUSH20 0xFFFFFFFFFFFFFFFFFFFFFFFFFFFFFFFFFFFFFFFF AND CALLER PUSH20 0xFFFFFFFFFFFFFFFFFFFFFFFFFFFFFFFFFFFFFFFF AND EQ PUSH2 0x18F JUMPI PUSH1 0x40 MLOAD PUSH32 0x8C379A000000000000000000000000000000000000000000000000000000000 DUP2 MSTORE PUSH1 0x4 ADD PUSH2 0x186 SWAP1 PUSH2 0xD5F JUMP JUMPDEST PUSH1 0x40 MLOAD DUP1 SWAP2 SUB SWAP1 REVERT JUMPDEST PUSH1 0x1 ISZERO ISZERO PUSH1 0x2 PUSH1 0x14 SWAP1 SLOAD SWAP1 PUSH2 0x100 EXP SWAP1 DIV PUSH1 0xFF AND ISZERO ISZERO EQ PUSH2 0x1E5 JUMPI PUSH1 0x40 MLOAD PUSH32 0x8C379A000000000000000000000000000000000000000000000000000000000 DUP2 MSTORE PUSH1 0x4 ADD PUSH2 0x1DC SWAP1 PUSH2 0xDBF JUMP JUMPDEST PUSH1 0x40 MLOAD DUP1 SWAP2 SUB SWAP1 REVERT JUMPDEST PUSH1 0x0 DUP3 MLOAD EQ ISZERO PUSH2 0x22A JUMPI PUSH1 0x40 MLOAD PUSH32 0x8C379A000000000000000000000000000000000000000000000000000000000 DUP2 MSTORE PUSH1 0x4 ADD PUSH2 0x221 SWAP1 PUSH2 0xE1F JUMP JUMPDEST PUSH1 0x40 MLOAD DUP1 SWAP2 SUB SWAP1 REVERT JUMPDEST PUSH1 0x0 DUP2 MLOAD EQ ISZERO PUSH2 0x26F JUMPI PUSH1 0x40 MLOAD PUSH32 0x8C379A000000000000000000000000000000000000000000000000000000000 DUP2 MSTORE PUSH1 0x4 ADD PUSH2 0x266 SWAP1 PUSH2 0xD9F JUMP JUMPDEST PUSH1 0x40 MLOAD DUP1 SWAP2 SUB SWAP1 REVERT JUMPDEST PUSH1 0x3 DUP2 SWAP1 DUP1 PUSH1 0x1 DUP2 SLOAD ADD DUP1 DUP3 SSTORE DUP1 SWAP2 POP POP PUSH1 0x1 SWAP1 SUB SWAP1 PUSH1 0x0 MSTORE PUSH1 0x20 PUSH1 0x0 KECCAK256 ADD PUSH1 0x0 SWAP1 SWAP2 SWAP1 SWAP2 SWAP1 SWAP2 POP SWAP1 DUP1 MLOAD SWAP1 PUSH1 0x20 ADD SWAP1 PUSH2 0x2AA SWAP3 SWAP2 SWAP1 PUSH2 0x909 JUMP JUMPDEST POP DUP2 PUSH1 0x4 DUP3 PUSH1 0x40 MLOAD PUSH2 0x2BC SWAP2 SWAP1 PUSH2 0xD28 JUMP JUMPDEST SWAP1 DUP2 MSTORE PUSH1 0x20 ADD PUSH1 0x40 MLOAD DUP1 SWAP2 SUB SWAP1 KECCAK256 PUSH1 0x0 ADD SWAP1 DUP1 MLOAD SWAP1 PUSH1 0x20 ADD SWAP1 PUSH2 0x2E0 SWAP3 SWAP2 SWAP1 PUSH2 0x909 JUMP JUMPDEST POP PUSH1 0x0 PUSH1 0x4 DUP3 PUSH1 0x40 MLOAD PUSH2 0x2F3 SWAP2 SWAP1 PUSH2 0xD28 JUMP JUMPDEST SWAP1 DUP2 MSTORE PUSH1 0x20 ADD PUSH1 0x40 MLOAD DUP1 SWAP2 SUB SWAP1 KECCAK256 PUSH1 0x1 ADD DUP2 SWAP1 SSTORE POP POP POP JUMP JUMPDEST PUSH2 0x314 PUSH2 0x98F JUMP JUMPDEST PUSH1 0x4 DUP3 PUSH1 0x40 MLOAD PUSH2 0x324 SWAP2 SWAP1 PUSH2 0xD28 JUMP JUMPDEST SWAP1 DUP2 MSTORE PUSH1 0x20 ADD PUSH1 0x40 MLOAD DUP1 SWAP2 SUB SWAP1 KECCAK256 PUSH1 0x40 MLOAD DUP1 PUSH1 0x40 ADD PUSH1 0x40 MSTORE SWAP1 DUP2 PUSH1 0x0 DUP3 ADD DUP1 SLOAD PUSH2 0x34D SWAP1 PUSH2 0xFB1 JUMP JUMPDEST DUP1 PUSH1 0x1F ADD PUSH1 0x20 DUP1 SWAP2 DIV MUL PUSH1 0x20 ADD PUSH1 0x40 MLOAD SWAP1 DUP2 ADD PUSH1 0x40 MSTORE DUP1 SWAP3 SWAP2 SWAP1 DUP2 DUP2 MSTORE PUSH1 0x20 ADD DUP3 DUP1 SLOAD PUSH2 0x379 SWAP1 PUSH2 0xFB1 JUMP JUMPDEST DUP1 ISZERO PUSH2 0x3C6 JUMPI DUP1 PUSH1 0x1F LT PUSH2 0x39B JUMPI PUSH2 0x100 DUP1 DUP4 SLOAD DIV MUL DUP4 MSTORE SWAP2 PUSH1 0x20 ADD SWAP2 PUSH2 0x3C6 JUMP JUMPDEST DUP3 ADD SWAP2 SWAP1 PUSH1 0x0 MSTORE PUSH1 0x20 PUSH1 0x0 KECCAK256 SWAP1 JUMPDEST DUP2 SLOAD DUP2 MSTORE SWAP1 PUSH1 0x1 ADD SWAP1 PUSH1 0x20 ADD DUP1 DUP4 GT PUSH2 0x3A9 JUMPI DUP3 SWAP1 SUB PUSH1 0x1F AND DUP3 ADD SWAP2 JUMPDEST POP POP POP POP POP DUP2 MSTORE PUSH1 0x20 ADD PUSH1 0x1 DUP3 ADD SLOAD DUP2 MSTORE POP POP SWAP1 POP SWAP2 SWAP1 POP JUMP JUMPDEST PUSH1 0x1 ISZERO ISZERO PUSH1 0x2 PUSH1 0x14 SWAP1 SLOAD SWAP1 PUSH2 0x100 EXP SWAP1 DIV PUSH1 0xFF AND ISZERO ISZERO EQ PUSH2 0x436 JUMPI PUSH1 0x40 MLOAD PUSH32 0x8C379A000000000000000000000000000000000000000000000000000000000 DUP2 MSTORE PUSH1 0x4 ADD PUSH2 0x42D SWAP1 PUSH2 0xDBF JUMP JUMPDEST PUSH1 0x40 MLOAD DUP1 SWAP2 SUB SWAP1 REVERT JUMPDEST PUSH1 0x0 PUSH1 0x4 DUP3 PUSH1 0x40 MLOAD PUSH2 0x448 SWAP2 SWAP1 PUSH2 0xD28 JUMP JUMPDEST SWAP1 DUP2 MSTORE PUSH1 0x20 ADD PUSH1 0x40 MLOAD DUP1 SWAP2 SUB SWAP1 KECCAK256 PUSH1 0x0 ADD DUP1 SLOAD PUSH2 0x464 SWAP1 PUSH2 0xFB1 JUMP JUMPDEST SWAP1 POP EQ ISZERO PUSH2 0x4A7 JUMPI PUSH1 0x40 MLOAD PUSH32 0x8C379A000000000000000000000000000000000000000000000000000000000 DUP2 MSTORE PUSH1 0x4 ADD PUSH2 0x49E SWAP1 PUSH2 0xDFF JUMP JUMPDEST PUSH1 0x40 MLOAD DUP1 SWAP2 SUB SWAP1 REVERT JUMPDEST PUSH1 0x1 PUSH1 0x4 DUP3 PUSH1 0x40 MLOAD PUSH2 0x4B9 SWAP2 SWAP1 PUSH2 0xD28 JUMP JUMPDEST SWAP1 DUP2 MSTORE PUSH1 0x20 ADD PUSH1 0x40 MLOAD DUP1 SWAP2 SUB SWAP1 KECCAK256 PUSH1 0x1 ADD PUSH1 0x0 DUP3 DUP3 SLOAD PUSH2 0x4D9 SWAP2 SWAP1 PUSH2 0xF0F JUMP JUMPDEST SWAP3 POP POP DUP2 SWAP1 SSTORE POP POP JUMP JUMPDEST PUSH1 0x2 PUSH1 0x0 SWAP1 SLOAD SWAP1 PUSH2 0x100 EXP SWAP1 DIV PUSH20 0xFFFFFFFFFFFFFFFFFFFFFFFFFFFFFFFFFFFFFFFF AND PUSH20 0xFFFFFFFFFFFFFFFFFFFFFFFFFFFFFFFFFFFFFFFF AND CALLER PUSH20 0xFFFFFFFFFFFFFFFFFFFFFFFFFFFFFFFFFFFFFFFF AND EQ PUSH2 0x573 JUMPI PUSH1 0x40 MLOAD PUSH32 0x8C379A000000000000000000000000000000000000000000000000000000000 DUP2 MSTORE PUSH1 0x4 ADD PUSH2 0x56A SWAP1 PUSH2 0xD5F JUMP JUMPDEST PUSH1 0x40 MLOAD DUP1 SWAP2 SUB SWAP1 REVERT JUMPDEST PUSH1 0x0 PUSH1 0x3 DUP1 SLOAD SWAP1 POP GT PUSH2 0x5BB JUMPI PUSH1 0x40 MLOAD PUSH32 0x8C379A000000000000000000000000000000000000000000000000000000000 DUP2 MSTORE PUSH1 0x4 ADD PUSH2 0x5B2 SWAP1 PUSH2 0xDDF JUMP JUMPDEST PUSH1 0x40 MLOAD DUP1 SWAP2 SUB SWAP1 REVERT JUMPDEST PUSH1 0x0 ISZERO ISZERO PUSH1 0x2 PUSH1 0x14 SWAP1 SLOAD SWAP1 PUSH2 0x100 EXP SWAP1 DIV PUSH1 0xFF AND ISZERO ISZERO EQ PUSH2 0x611 JUMPI PUSH1 0x40 MLOAD PUSH32 0x8C379A000000000000000000000000000000000000000000000000000000000 DUP2 MSTORE PUSH1 0x4 ADD PUSH2 0x608 SWAP1 PUSH2 0xDBF JUMP JUMPDEST PUSH1 0x40 MLOAD DUP1 SWAP2 SUB SWAP1 REVERT JUMPDEST PUSH1 0x1 PUSH1 0x2 PUSH1 0x14 PUSH2 0x100 EXP DUP2 SLOAD DUP2 PUSH1 0xFF MUL NOT AND SWAP1 DUP4 ISZERO ISZERO MUL OR SWAP1 SSTORE POP PUSH1 0x1 PUSH1 0x0 DUP1 PUSH2 0x100 EXP DUP2 SLOAD DUP2 PUSH1 0xFF MUL NOT AND SWAP1 DUP4 ISZERO ISZERO MUL OR SWAP1 SSTORE POP JUMP JUMPDEST PUSH1 0x2 PUSH1 0x0 SWAP1 SLOAD SWAP1 PUSH2 0x100 EXP SWAP1 DIV PUSH20 0xFFFFFFFFFFFFFFFFFFFFFFFFFFFFFFFFFFFFFFFF AND PUSH20 0xFFFFFFFFFFFFFFFFFFFFFFFFFFFFFFFFFFFFFFFF AND CALLER PUSH20 0xFFFFFFFFFFFFFFFFFFFFFFFFFFFFFFFFFFFFFFFF AND EQ PUSH2 0x6D8 JUMPI PUSH1 0x40 MLOAD PUSH32 0x8C379A000000000000000000000000000000000000000000000000000000000 DUP2 MSTORE PUSH1 0x4 ADD PUSH2 0x6CF SWAP1 PUSH2 0xD5F JUMP JUMPDEST PUSH1 0x40 MLOAD DUP1 SWAP2 SUB SWAP1 REVERT JUMPDEST PUSH1 0x1 ISZERO ISZERO PUSH1 0x2 PUSH1 0x14 SWAP1 SLOAD SWAP1 PUSH2 0x100 EXP SWAP1 DIV PUSH1 0xFF AND ISZERO ISZERO EQ PUSH2 0x72E JUMPI PUSH1 0x40 MLOAD PUSH32 0x8C379A000000000000000000000000000000000000000000000000000000000 DUP2 MSTORE PUSH1 0x4 ADD PUSH2 0x725 SWAP1 PUSH2 0xDBF JUMP JUMPDEST PUSH1 0x40 MLOAD DUP1 SWAP2 SUB SWAP1 REVERT JUMPDEST PUSH1 0x0 PUSH1 0x3 DUP1 SLOAD SWAP1 POP GT PUSH2 0x776 JUMPI PUSH1 0x40 MLOAD PUSH32 0x8C379A000000000000000000000000000000000000000000000000000000000 DUP2 MSTORE PUSH1 0x4 ADD PUSH2 0x76D SWAP1 PUSH2 0xE3F JUMP JUMPDEST PUSH1 0x40 MLOAD DUP1 SWAP2 SUB SWAP1 REVERT JUMPDEST PUSH1 0x0 ISZERO ISZERO PUSH1 0x0 DUP1 SLOAD SWAP1 PUSH2 0x100 EXP SWAP1 DIV PUSH1 0xFF AND ISZERO ISZERO EQ PUSH2 0x7CA JUMPI PUSH1 0x40 MLOAD PUSH32 0x8C379A000000000000000000000000000000000000000000000000000000000 DUP2 MSTORE PUSH1 0x4 ADD PUSH2 0x7C1 SWAP1 PUSH2 0xD3F JUMP JUMPDEST PUSH1 0x40 MLOAD DUP1 SWAP2 SUB SWAP1 REVERT JUMPDEST PUSH1 0x4 DUP2 PUSH1 0x40 MLOAD PUSH2 0x7DA SWAP2 SWAP1 PUSH2 0xD28 JUMP JUMPDEST SWAP1 DUP2 MSTORE PUSH1 0x20 ADD PUSH1 0x40 MLOAD DUP1 SWAP2 SUB SWAP1 KECCAK256 PUSH1 0x0 DUP1 DUP3 ADD PUSH1 0x0 PUSH2 0x7F9 SWAP2 SWAP1 PUSH2 0x9A9 JUMP JUMPDEST PUSH1 0x1 DUP3 ADD PUSH1 0x0 SWAP1 SSTORE POP POP POP JUMP JUMPDEST PUSH1 0x2 PUSH1 0x0 SWAP1 SLOAD SWAP1 PUSH2 0x100 EXP SWAP1 DIV PUSH20 0xFFFFFFFFFFFFFFFFFFFFFFFFFFFFFFFFFFFFFFFF AND PUSH20 0xFFFFFFFFFFFFFFFFFFFFFFFFFFFFFFFFFFFFFFFF AND CALLER PUSH20 0xFFFFFFFFFFFFFFFFFFFFFFFFFFFFFFFFFFFFFFFF AND EQ PUSH2 0x896 JUMPI PUSH1 0x40 MLOAD PUSH32 0x8C379A000000000000000000000000000000000000000000000000000000000 DUP2 MSTORE PUSH1 0x4 ADD PUSH2 0x88D SWAP1 PUSH2 0xD5F JUMP JUMPDEST PUSH1 0x40 MLOAD DUP1 SWAP2 SUB SWAP1 REVERT JUMPDEST PUSH1 0x1 ISZERO ISZERO PUSH1 0x2 PUSH1 0x14 SWAP1 SLOAD SWAP1 PUSH2 0x100 EXP SWAP1 DIV PUSH1 0xFF AND ISZERO ISZERO EQ PUSH2 0x8EC JUMPI PUSH1 0x40 MLOAD PUSH32 0x8C379A000000000000000000000000000000000000000000000000000000000 DUP2 MSTORE PUSH1 0x4 ADD PUSH2 0x8E3 SWAP1 PUSH2 0xD7F JUMP JUMPDEST PUSH1 0x40 MLOAD DUP1 SWAP2 SUB SWAP1 REVERT JUMPDEST PUSH1 0x0 PUSH1 0x2 PUSH1 0x14 PUSH2 0x100 EXP DUP2 SLOAD DUP2 PUSH1 0xFF MUL NOT AND SWAP1 DUP4 ISZERO ISZERO MUL OR SWAP1 SSTORE POP JUMP JUMPDEST DUP3 DUP1 SLOAD PUSH2 0x915 SWAP1 PUSH2 0xFB1 JUMP JUMPDEST SWAP1 PUSH1 0x0 MSTORE PUSH1 0x20 PUSH1 0x0 KECCAK256 SWAP1 PUSH1 0x1F ADD PUSH1 0x20 SWAP1 DIV DUP2 ADD SWAP3 DUP3 PUSH2 0x937 JUMPI PUSH1 0x0 DUP6 SSTORE PUSH2 0x97E JUMP JUMPDEST DUP3 PUSH1 0x1F LT PUSH2 0x950 JUMPI DUP1 MLOAD PUSH1 0xFF NOT AND DUP4 DUP1 ADD OR DUP6 SSTORE PUSH2 0x97E JUMP JUMPDEST DUP3 DUP1 ADD PUSH1 0x1 ADD DUP6 SSTORE DUP3 ISZERO PUSH2 0x97E JUMPI SWAP2 DUP3 ADD JUMPDEST DUP3 DUP2 GT ISZERO PUSH2 0x97D JUMPI DUP3 MLOAD DUP3 SSTORE SWAP2 PUSH1 0x20 ADD SWAP2 SWAP1 PUSH1 0x1 ADD SWAP1 PUSH2 0x962 JUMP JUMPDEST JUMPDEST POP SWAP1 POP PUSH2 0x98B SWAP2 SWAP1 PUSH2 0x9E9 JUMP JUMPDEST POP SWAP1 JUMP JUMPDEST PUSH1 0x40 MLOAD DUP1 PUSH1 0x40 ADD PUSH1 0x40 MSTORE DUP1 PUSH1 0x60 DUP2 MSTORE PUSH1 0x20 ADD PUSH1 0x0 DUP2 MSTORE POP SWAP1 JUMP JUMPDEST POP DUP1 SLOAD PUSH2 0x9B5 SWAP1 PUSH2 0xFB1 JUMP JUMPDEST PUSH1 0x0 DUP3 SSTORE DUP1 PUSH1 0x1F LT PUSH2 0x9C7 JUMPI POP PUSH2 0x9E6 JUMP JUMPDEST PUSH1 0x1F ADD PUSH1 0x20 SWAP1 DIV SWAP1 PUSH1 0x0 MSTORE PUSH1 0x20 PUSH1 0x0 KECCAK256 SWAP1 DUP2 ADD SWAP1 PUSH2 0x9E5 SWAP2 SWAP1 PUSH2 0x9E9 JUMP JUMPDEST JUMPDEST POP JUMP JUMPDEST JUMPDEST DUP1 DUP3 GT ISZERO PUSH2 0xA02 JUMPI PUSH1 0x0 DUP2 PUSH1 0x0 SWAP1 SSTORE POP PUSH1 0x1 ADD PUSH2 0x9EA JUMP JUMPDEST POP SWAP1 JUMP JUMPDEST PUSH1 0x0 PUSH2 0xA19 PUSH2 0xA14 DUP5 PUSH2 0xEA6 JUMP JUMPDEST PUSH2 0xE81 JUMP JUMPDEST SWAP1 POP DUP3 DUP2 MSTORE PUSH1 0x20 DUP2 ADD DUP5 DUP5 DUP5 ADD GT ISZERO PUSH2 0xA35 JUMPI PUSH2 0xA34 PUSH2 0x10A6 JUMP JUMPDEST JUMPDEST PUSH2 0xA40 DUP5 DUP3 DUP6 PUSH2 0xF6F JUMP JUMPDEST POP SWAP4 SWAP3 POP POP POP JUMP JUMPDEST PUSH1 0x0 DUP3 PUSH1 0x1F DUP4 ADD SLT PUSH2 0xA5D JUMPI PUSH2 0xA5C PUSH2 0x10A1 JUMP JUMPDEST JUMPDEST DUP2 CALLDATALOAD PUSH2 0xA6D DUP5 DUP3 PUSH1 0x20 DUP7 ADD PUSH2 0xA06 JUMP JUMPDEST SWAP2 POP POP SWAP3 SWAP2 POP POP JUMP JUMPDEST PUSH1 0x0 PUSH1 0x20 DUP3 DUP5 SUB SLT ISZERO PUSH2 0xA8C JUMPI PUSH2 0xA8B PUSH2 0x10B0 JUMP JUMPDEST JUMPDEST PUSH1 0x0 DUP3 ADD CALLDATALOAD PUSH8 0xFFFFFFFFFFFFFFFF DUP2 GT ISZERO PUSH2 0xAAA JUMPI PUSH2 0xAA9 PUSH2 0x10AB JUMP JUMPDEST JUMPDEST PUSH2 0xAB6 DUP5 DUP3 DUP6 ADD PUSH2 0xA48 JUMP JUMPDEST SWAP2 POP POP SWAP3 SWAP2 POP POP JUMP JUMPDEST PUSH1 0x0 DUP1 PUSH1 0x40 DUP4 DUP6 SUB SLT ISZERO PUSH2 0xAD6 JUMPI PUSH2 0xAD5 PUSH2 0x10B0 JUMP JUMPDEST JUMPDEST PUSH1 0x0 DUP4 ADD CALLDATALOAD PUSH8 0xFFFFFFFFFFFFFFFF DUP2 GT ISZERO PUSH2 0xAF4 JUMPI PUSH2 0xAF3 PUSH2 0x10AB JUMP JUMPDEST JUMPDEST PUSH2 0xB00 DUP6 DUP3 DUP7 ADD PUSH2 0xA48 JUMP JUMPDEST SWAP3 POP POP PUSH1 0x20 DUP4 ADD CALLDATALOAD PUSH8 0xFFFFFFFFFFFFFFFF DUP2 GT ISZERO PUSH2 0xB21 JUMPI PUSH2 0xB20 PUSH2 0x10AB JUMP JUMPDEST JUMPDEST PUSH2 0xB2D DUP6 DUP3 DUP7 ADD PUSH2 0xA48 JUMP JUMPDEST SWAP2 POP POP SWAP3 POP SWAP3 SWAP1 POP JUMP JUMPDEST PUSH1 0x0 PUSH2 0xB42 DUP3 PUSH2 0xED7 JUMP JUMPDEST PUSH2 0xB4C DUP2 DUP6 PUSH2 0xEE2 JUMP JUMPDEST SWAP4 POP PUSH2 0xB5C DUP2 DUP6 PUSH1 0x20 DUP7 ADD PUSH2 0xF7E JUMP JUMPDEST PUSH2 0xB65 DUP2 PUSH2 0x10B5 JUMP JUMPDEST DUP5 ADD SWAP2 POP POP SWAP3 SWAP2 POP POP JUMP JUMPDEST PUSH1 0x0 PUSH2 0xB7B DUP3 PUSH2 0xED7 JUMP JUMPDEST PUSH2 0xB85 DUP2 DUP6 PUSH2 0xF04 JUMP JUMPDEST SWAP4 POP PUSH2 0xB95 DUP2 DUP6 PUSH1 0x20 DUP7 ADD PUSH2 0xF7E JUMP JUMPDEST DUP1 DUP5 ADD SWAP2 POP POP SWAP3 SWAP2 POP POP JUMP JUMPDEST PUSH1 0x0 PUSH2 0xBAE PUSH1 0x1B DUP4 PUSH2 0xEF3 JUMP JUMPDEST SWAP2 POP PUSH2 0xBB9 DUP3 PUSH2 0x10C6 JUMP JUMPDEST PUSH1 0x20 DUP3 ADD SWAP1 POP SWAP2 SWAP1 POP JUMP JUMPDEST PUSH1 0x0 PUSH2 0xBD1 PUSH1 0x14 DUP4 PUSH2 0xEF3 JUMP JUMPDEST SWAP2 POP PUSH2 0xBDC DUP3 PUSH2 0x10EF JUMP JUMPDEST PUSH1 0x20 DUP3 ADD SWAP1 POP SWAP2 SWAP1 POP JUMP JUMPDEST PUSH1 0x0 PUSH2 0xBF4 PUSH1 0x17 DUP4 PUSH2 0xEF3 JUMP JUMPDEST SWAP2 POP PUSH2 0xBFF DUP3 PUSH2 0x1118 JUMP JUMPDEST PUSH1 0x20 DUP3 ADD SWAP1 POP SWAP2 SWAP1 POP JUMP JUMPDEST PUSH1 0x0 PUSH2 0xC17 PUSH1 0x15 DUP4 PUSH2 0xEF3 JUMP JUMPDEST SWAP2 POP PUSH2 0xC22 DUP3 PUSH2 0x1141 JUMP JUMPDEST PUSH1 0x20 DUP3 ADD SWAP1 POP SWAP2 SWAP1 POP JUMP JUMPDEST PUSH1 0x0 PUSH2 0xC3A PUSH1 0x10 DUP4 PUSH2 0xEF3 JUMP JUMPDEST SWAP2 POP PUSH2 0xC45 DUP3 PUSH2 0x116A JUMP JUMPDEST PUSH1 0x20 DUP3 ADD SWAP1 POP SWAP2 SWAP1 POP JUMP JUMPDEST PUSH1 0x0 PUSH2 0xC5D PUSH1 0x27 DUP4 PUSH2 0xEF3 JUMP JUMPDEST SWAP2 POP PUSH2 0xC68 DUP3 PUSH2 0x1193 JUMP JUMPDEST PUSH1 0x40 DUP3 ADD SWAP1 POP SWAP2 SWAP1 POP JUMP JUMPDEST PUSH1 0x0 PUSH2 0xC80 PUSH1 0xD DUP4 PUSH2 0xEF3 JUMP JUMPDEST SWAP2 POP PUSH2 0xC8B DUP3 PUSH2 0x11E2 JUMP JUMPDEST PUSH1 0x20 DUP3 ADD SWAP1 POP SWAP2 SWAP1 POP JUMP JUMPDEST PUSH1 0x0 PUSH2 0xCA3 PUSH1 0x13 DUP4 PUSH2 0xEF3 JUMP JUMPDEST SWAP2 POP PUSH2 0xCAE DUP3 PUSH2 0x120B JUMP JUMPDEST PUSH1 0x20 DUP3 ADD SWAP1 POP SWAP2 SWAP1 POP JUMP JUMPDEST PUSH1 0x0 PUSH2 0xCC6 PUSH1 0x27 DUP4 PUSH2 0xEF3 JUMP JUMPDEST SWAP2 POP PUSH2 0xCD1 DUP3 PUSH2 0x1234 JUMP JUMPDEST PUSH1 0x40 DUP3 ADD SWAP1 POP SWAP2 SWAP1 POP JUMP JUMPDEST PUSH1 0x0 PUSH1 0x40 DUP4 ADD PUSH1 0x0 DUP4 ADD MLOAD DUP5 DUP3 SUB PUSH1 0x0 DUP7 ADD MSTORE PUSH2 0xCF9 DUP3 DUP3 PUSH2 0xB37 JUMP JUMPDEST SWAP2 POP POP PUSH1 0x20 DUP4 ADD MLOAD PUSH2 0xD0E PUSH1 0x20 DUP7 ADD DUP3 PUSH2 0xD19 JUMP JUMPDEST POP DUP1 SWAP2 POP POP SWAP3 SWAP2 POP POP JUMP JUMPDEST PUSH2 0xD22 DUP2 PUSH2 0xF65 JUMP JUMPDEST DUP3 MSTORE POP POP JUMP JUMPDEST PUSH1 0x0 PUSH2 0xD34 DUP3 DUP5 PUSH2 0xB70 JUMP JUMPDEST SWAP2 POP DUP2 SWAP1 POP SWAP3 SWAP2 POP POP JUMP JUMPDEST PUSH1 0x0 PUSH1 0x20 DUP3 ADD SWAP1 POP DUP2 DUP2 SUB PUSH1 0x0 DUP4 ADD MSTORE PUSH2 0xD58 DUP2 PUSH2 0xBA1 JUMP JUMPDEST SWAP1 POP SWAP2 SWAP1 POP JUMP JUMPDEST PUSH1 0x0 PUSH1 0x20 DUP3 ADD SWAP1 POP DUP2 DUP2 SUB PUSH1 0x0 DUP4 ADD MSTORE PUSH2 0xD78 DUP2 PUSH2 0xBC4 JUMP JUMPDEST SWAP1 POP SWAP2 SWAP1 POP JUMP JUMPDEST PUSH1 0x0 PUSH1 0x20 DUP3 ADD SWAP1 POP DUP2 DUP2 SUB PUSH1 0x0 DUP4 ADD MSTORE PUSH2 0xD98 DUP2 PUSH2 0xBE7 JUMP JUMPDEST SWAP1 POP SWAP2 SWAP1 POP JUMP JUMPDEST PUSH1 0x0 PUSH1 0x20 DUP3 ADD SWAP1 POP DUP2 DUP2 SUB PUSH1 0x0 DUP4 ADD MSTORE PUSH2 0xDB8 DUP2 PUSH2 0xC0A JUMP JUMPDEST SWAP1 POP SWAP2 SWAP1 POP JUMP JUMPDEST PUSH1 0x0 PUSH1 0x20 DUP3 ADD SWAP1 POP DUP2 DUP2 SUB PUSH1 0x0 DUP4 ADD MSTORE PUSH2 0xDD8 DUP2 PUSH2 0xC2D JUMP JUMPDEST SWAP1 POP SWAP2 SWAP1 POP JUMP JUMPDEST PUSH1 0x0 PUSH1 0x20 DUP3 ADD SWAP1 POP DUP2 DUP2 SUB PUSH1 0x0 DUP4 ADD MSTORE PUSH2 0xDF8 DUP2 PUSH2 0xC50 JUMP JUMPDEST SWAP1 POP SWAP2 SWAP1 POP JUMP JUMPDEST PUSH1 0x0 PUSH1 0x20 DUP3 ADD SWAP1 POP DUP2 DUP2 SUB PUSH1 0x0 DUP4 ADD MSTORE PUSH2 0xE18 DUP2 PUSH2 0xC73 JUMP JUMPDEST SWAP1 POP SWAP2 SWAP1 POP JUMP JUMPDEST PUSH1 0x0 PUSH1 0x20 DUP3 ADD SWAP1 POP DUP2 DUP2 SUB PUSH1 0x0 DUP4 ADD MSTORE PUSH2 0xE38 DUP2 PUSH2 0xC96 JUMP JUMPDEST SWAP1 POP SWAP2 SWAP1 POP JUMP JUMPDEST PUSH1 0x0 PUSH1 0x20 DUP3 ADD SWAP1 POP DUP2 DUP2 SUB PUSH1 0x0 DUP4 ADD MSTORE PUSH2 0xE58 DUP2 PUSH2 0xCB9 JUMP JUMPDEST SWAP1 POP SWAP2 SWAP1 POP JUMP JUMPDEST PUSH1 0x0 PUSH1 0x20 DUP3 ADD SWAP1 POP DUP2 DUP2 SUB PUSH1 0x0 DUP4 ADD MSTORE PUSH2 0xE79 DUP2 DUP5 PUSH2 0xCDC JUMP JUMPDEST SWAP1 POP SWAP3 SWAP2 POP POP JUMP JUMPDEST PUSH1 0x0 PUSH2 0xE8B PUSH2 0xE9C JUMP JUMPDEST SWAP1 POP PUSH2 0xE97 DUP3 DUP3 PUSH2 0xFE3 JUMP JUMPDEST SWAP2 SWAP1 POP JUMP JUMPDEST PUSH1 0x0 PUSH1 0x40 MLOAD SWAP1 POP SWAP1 JUMP JUMPDEST PUSH1 0x0 PUSH8 0xFFFFFFFFFFFFFFFF DUP3 GT ISZERO PUSH2 0xEC1 JUMPI PUSH2 0xEC0 PUSH2 0x1072 JUMP JUMPDEST JUMPDEST PUSH2 0xECA DUP3 PUSH2 0x10B5 JUMP JUMPDEST SWAP1 POP PUSH1 0x20 DUP2 ADD SWAP1 POP SWAP2 SWAP1 POP JUMP JUMPDEST PUSH1 0x0 DUP2 MLOAD SWAP1 POP SWAP2 SWAP1 POP JUMP JUMPDEST PUSH1 0x0 DUP3 DUP3 MSTORE PUSH1 0x20 DUP3 ADD SWAP1 POP SWAP3 SWAP2 POP POP JUMP JUMPDEST PUSH1 0x0 DUP3 DUP3 MSTORE PUSH1 0x20 DUP3 ADD SWAP1 POP SWAP3 SWAP2 POP POP JUMP JUMPDEST PUSH1 0x0 DUP2 SWAP1 POP SWAP3 SWAP2 POP POP JUMP JUMPDEST PUSH1 0x0 PUSH2 0xF1A DUP3 PUSH2 0xF65 JUMP JUMPDEST SWAP2 POP PUSH2 0xF25 DUP4 PUSH2 0xF65 JUMP JUMPDEST SWAP3 POP DUP3 PUSH32 0xFFFFFFFFFFFFFFFFFFFFFFFFFFFFFFFFFFFFFFFFFFFFFFFFFFFFFFFFFFFFFFFF SUB DUP3 GT ISZERO PUSH2 0xF5A JUMPI PUSH2 0xF59 PUSH2 0x1014 JUMP JUMPDEST JUMPDEST DUP3 DUP3 ADD SWAP1 POP SWAP3 SWAP2 POP POP JUMP JUMPDEST PUSH1 0x0 DUP2 SWAP1 POP SWAP2 SWAP1 POP JUMP JUMPDEST DUP3 DUP2 DUP4 CALLDATACOPY PUSH1 0x0 DUP4 DUP4 ADD MSTORE POP POP POP JUMP JUMPDEST PUSH1 0x0 JUMPDEST DUP4 DUP2 LT ISZERO PUSH2 0xF9C JUMPI DUP1 DUP3 ADD MLOAD DUP2 DUP5 ADD MSTORE PUSH1 0x20 DUP2 ADD SWAP1 POP PUSH2 0xF81 JUMP JUMPDEST DUP4 DUP2 GT ISZERO PUSH2 0xFAB JUMPI PUSH1 0x0 DUP5 DUP5 ADD MSTORE JUMPDEST POP POP POP POP JUMP JUMPDEST PUSH1 0x0 PUSH1 0x2 DUP3 DIV SWAP1 POP PUSH1 0x1 DUP3 AND DUP1 PUSH2 0xFC9 JUMPI PUSH1 0x7F DUP3 AND SWAP2 POP JUMPDEST PUSH1 0x20 DUP3 LT DUP2 EQ ISZERO PUSH2 0xFDD JUMPI PUSH2 0xFDC PUSH2 0x1043 JUMP JUMPDEST JUMPDEST POP SWAP2 SWAP1 POP JUMP JUMPDEST PUSH2 0xFEC DUP3 PUSH2 0x10B5 JUMP JUMPDEST DUP2 ADD DUP2 DUP2 LT PUSH8 0xFFFFFFFFFFFFFFFF DUP3 GT OR ISZERO PUSH2 0x100B JUMPI PUSH2 0x100A PUSH2 0x1072 JUMP JUMPDEST JUMPDEST DUP1 PUSH1 0x40 MSTORE POP POP POP JUMP JUMPDEST PUSH32 0x4E487B7100000000000000000000000000000000000000000000000000000000 PUSH1 0x0 MSTORE PUSH1 0x11 PUSH1 0x4 MSTORE PUSH1 0x24 PUSH1 0x0 REVERT JUMPDEST PUSH32 0x4E487B7100000000000000000000000000000000000000000000000000000000 PUSH1 0x0 MSTORE PUSH1 0x22 PUSH1 0x4 MSTORE PUSH1 0x24 PUSH1 0x0 REVERT JUMPDEST PUSH32 0x4E487B7100000000000000000000000000000000000000000000000000000000 PUSH1 0x0 MSTORE PUSH1 0x41 PUSH1 0x4 MSTORE PUSH1 0x24 PUSH1 0x0 REVERT JUMPDEST PUSH1 0x0 DUP1 REVERT JUMPDEST PUSH1 0x0 DUP1 REVERT JUMPDEST PUSH1 0x0 DUP1 REVERT JUMPDEST PUSH1 0x0 DUP1 REVERT JUMPDEST PUSH1 0x0 PUSH1 0x1F NOT PUSH1 0x1F DUP4 ADD AND SWAP1 POP SWAP2 SWAP1 POP JUMP JUMPDEST PUSH32 0x596F752063616E27742072656D6F76652063616E6469646174652E0000000000 PUSH1 0x0 DUP3 ADD MSTORE POP JUMP JUMPDEST PUSH32 0x556E617574686F72697A6564204163636573732E000000000000000000000000 PUSH1 0x0 DUP3 ADD MSTORE POP JUMP JUMPDEST PUSH32 0x566F74696E67206E6F742073746172746564207965742E000000000000000000 PUSH1 0x0 DUP3 ADD MSTORE POP JUMP JUMPDEST PUSH32 0x53796D626F6C2063616E277420626520656D7074790000000000000000000000 PUSH1 0x0 DUP3 ADD MSTORE POP JUMP JUMPDEST PUSH32 0x416C726561647920537461727465642E00000000000000000000000000000000 PUSH1 0x0 DUP3 ADD MSTORE POP JUMP JUMPDEST PUSH32 0x41746C6561737420322063616E646964617465206D7573742062652072656769 PUSH1 0x0 DUP3 ADD MSTORE PUSH32 0x7374657265642E00000000000000000000000000000000000000000000000000 PUSH1 0x20 DUP3 ADD MSTORE POP JUMP JUMPDEST PUSH32 0x496E76616C696420496E70757400000000000000000000000000000000000000 PUSH1 0x0 DUP3 ADD MSTORE POP JUMP JUMPDEST PUSH32 0x4E616D652043616E277420626520656D70747900000000000000000000000000 PUSH1 0x0 DUP3 ADD MSTORE POP JUMP JUMPDEST PUSH32 0x41746C6561737420312063616E646964617465206D7573742062652072656769 PUSH1 0x0 DUP3 ADD MSTORE PUSH32 0x7374657265642E00000000000000000000000000000000000000000000000000 PUSH1 0x20 DUP3 ADD MSTORE POP JUMP INVALID LOG2 PUSH5 0x6970667358 0x22 SLT KECCAK256 SWAP5 DUP16 GASPRICE SLT 0xF8 0xD3 GASPRICE PUSH30 0xC2B9A464C1A61F212B9701E35D19F29B1C9640D3779D7A9C64736F6C6343 STOP ADDMOD SMOD STOP CALLER "
				},
				"gasEstimates": {
					"creation": {
						"codeDepositCost": "958600",
						"executionCost": "73844",
						"totalCost": "1032444"
					},
					"external": {
						"deleteCandidate(string)": "infinite",
						"giveVotes(string)": "infinite",
						"registrationForCandidate(string,string)": "infinite",
						"startVote()": "55294",
						"stopVoting()": "28940",
						"voteCountStatus(string)": "infinite"
					}
				},
				"methodIdentifiers": {
					"deleteCandidate(string)": "88feb516",
					"giveVotes(string)": "1f6d52c5",
					"registrationForCandidate(string,string)": "137967a6",
					"startVote()": "4c0a6af0",
					"stopVoting()": "fab2f86b",
					"voteCountStatus(string)": "196b2e24"
				}
			},
			"storageLayout": {
				"storage": [
					{
						"astId": 4,
						"contract": "contracts/voting.sol:VotingContract",
						"label": "votingStartEver",
						"offset": 0,
						"slot": "0",
						"type": "t_bool"
					},
					{
						"astId": 7,
						"contract": "contracts/voting.sol:VotingContract",
						"label": "voterList",
						"offset": 0,
						"slot": "1",
						"type": "t_array(t_address)dyn_storage"
					},
					{
						"astId": 9,
						"contract": "contracts/voting.sol:VotingContract",
						"label": "electionCommission",
						"offset": 0,
						"slot": "2",
						"type": "t_address"
					},
					{
						"astId": 12,
						"contract": "contracts/voting.sol:VotingContract",
						"label": "voteStarted",
						"offset": 20,
						"slot": "2",
						"type": "t_bool"
					},
					{
						"astId": 15,
						"contract": "contracts/voting.sol:VotingContract",
						"label": "symbolList",
						"offset": 0,
						"slot": "3",
						"type": "t_array(t_string_storage)dyn_storage"
					},
					{
						"astId": 25,
						"contract": "contracts/voting.sol:VotingContract",
						"label": "Candidates",
						"offset": 0,
						"slot": "4",
						"type": "t_mapping(t_string_memory_ptr,t_struct(candidate)20_storage)"
					}
				],
				"types": {
					"t_address": {
						"encoding": "inplace",
						"label": "address",
						"numberOfBytes": "20"
					},
					"t_array(t_address)dyn_storage": {
						"base": "t_address",
						"encoding": "dynamic_array",
						"label": "address[]",
						"numberOfBytes": "32"
					},
					"t_array(t_string_storage)dyn_storage": {
						"base": "t_string_storage",
						"encoding": "dynamic_array",
						"label": "string[]",
						"numberOfBytes": "32"
					},
					"t_bool": {
						"encoding": "inplace",
						"label": "bool",
						"numberOfBytes": "1"
					},
					"t_mapping(t_string_memory_ptr,t_struct(candidate)20_storage)": {
						"encoding": "mapping",
						"key": "t_string_memory_ptr",
						"label": "mapping(string => struct VotingContract.candidate)",
						"numberOfBytes": "32",
						"value": "t_struct(candidate)20_storage"
					},
					"t_string_memory_ptr": {
						"encoding": "bytes",
						"label": "string",
						"numberOfBytes": "32"
					},
					"t_string_storage": {
						"encoding": "bytes",
						"label": "string",
						"numberOfBytes": "32"
					},
					"t_struct(candidate)20_storage": {
						"encoding": "inplace",
						"label": "struct VotingContract.candidate",
						"members": [
							{
								"astId": 17,
								"contract": "contracts/voting.sol:VotingContract",
								"label": "name",
								"offset": 0,
								"slot": "0",
								"type": "t_string_storage"
							},
							{
								"astId": 19,
								"contract": "contracts/voting.sol:VotingContract",
								"label": "voteCount",
								"offset": 0,
								"slot": "1",
								"type": "t_uint256"
							}
						],
						"numberOfBytes": "64"
					},
					"t_uint256": {
						"encoding": "inplace",
						"label": "uint256",
						"numberOfBytes": "32"
					}
				}
			},
			"userdoc": {
				"kind": "user",
				"methods": {},
				"version": 1
			}
		}
	}
}