{
	"contracts/voting.sol": {
		"VotingContract": {
			"abi": [
				{
					"inputs": [],
					"stateMutability": "nonpayable",
					"type": "constructor"
				},
				{
					"inputs": [
						{
							"internalType": "string",
							"name": "name",
							"type": "string"
						},
						{
							"internalType": "string",
							"name": "symbol",
							"type": "string"
						}
					],
					"name": "registrationForCandidate",
					"outputs": [],
					"stateMutability": "nonpayable",
					"type": "function"
				},
				{
					"inputs": [],
					"name": "startVote",
					"outputs": [],
					"stateMutability": "nonpayable",
					"type": "function"
				}
			],
			"devdoc": {
				"kind": "dev",
				"methods": {},
				"version": 1
			},
			"evm": {
				"assembly": "    /* \"contracts/voting.sol\":59:1397  contract VotingContract{\r... */\n  mstore(0x40, 0x80)\n    /* \"contracts/voting.sol\":198:203  false */\n  0x00\n    /* \"contracts/voting.sol\":179:203  bool voteStarted = false */\n  0x01\n  exp(0x0100, 0x14)\n  dup2\n  sload\n  dup2\n  0xff\n  mul\n  not\n  and\n  swap1\n  dup4\n  iszero\n  iszero\n  mul\n  or\n  swap1\n  sstore\n  pop\n    /* \"contracts/voting.sol\":467:530  constructor(){\r... */\n  callvalue\n  dup1\n  iszero\n  tag_1\n  jumpi\n  0x00\n  dup1\n  revert\ntag_1:\n  pop\n    /* \"contracts/voting.sol\":512:522  msg.sender */\n  caller\n    /* \"contracts/voting.sol\":491:509  electionCommission */\n  0x01\n  0x00\n    /* \"contracts/voting.sol\":491:522  electionCommission = msg.sender */\n  0x0100\n  exp\n  dup2\n  sload\n  dup2\n  0xffffffffffffffffffffffffffffffffffffffff\n  mul\n  not\n  and\n  swap1\n  dup4\n  0xffffffffffffffffffffffffffffffffffffffff\n  and\n  mul\n  or\n  swap1\n  sstore\n  pop\n    /* \"contracts/voting.sol\":59:1397  contract VotingContract{\r... */\n  dataSize(sub_0)\n  dup1\n  dataOffset(sub_0)\n  0x00\n  codecopy\n  0x00\n  return\nstop\n\nsub_0: assembly {\n        /* \"contracts/voting.sol\":59:1397  contract VotingContract{\r... */\n      mstore(0x40, 0x80)\n      callvalue\n      dup1\n      iszero\n      tag_1\n      jumpi\n      0x00\n      dup1\n      revert\n    tag_1:\n      pop\n      jumpi(tag_2, lt(calldatasize, 0x04))\n      shr(0xe0, calldataload(0x00))\n      dup1\n      0x137967a6\n      eq\n      tag_3\n      jumpi\n      dup1\n      0x4c0a6af0\n      eq\n      tag_4\n      jumpi\n    tag_2:\n      0x00\n      dup1\n      revert\n        /* \"contracts/voting.sol\":851:1168  function registrationForCandidate  (string memory name, string memory symbol)public onlyElectionComission votingStarted\r... */\n    tag_3:\n      tag_5\n      0x04\n      dup1\n      calldatasize\n      sub\n      dup2\n      add\n      swap1\n      tag_6\n      swap2\n      swap1\n      tag_7\n      jump\t// in\n    tag_6:\n      tag_8\n      jump\t// in\n    tag_5:\n      stop\n        /* \"contracts/voting.sol\":1198:1379  function startVote() public onlyElectionComission votingStarted{\r... */\n    tag_4:\n      tag_9\n      tag_10\n      jump\t// in\n    tag_9:\n      stop\n        /* \"contracts/voting.sol\":851:1168  function registrationForCandidate  (string memory name, string memory symbol)public onlyElectionComission votingStarted\r... */\n    tag_8:\n        /* \"contracts/voting.sol\":626:644  electionCommission */\n      0x01\n      0x00\n      swap1\n      sload\n      swap1\n      0x0100\n      exp\n      swap1\n      div\n      0xffffffffffffffffffffffffffffffffffffffff\n      and\n        /* \"contracts/voting.sol\":614:644  msg.sender==electionCommission */\n      0xffffffffffffffffffffffffffffffffffffffff\n      and\n        /* \"contracts/voting.sol\":614:624  msg.sender */\n      caller\n        /* \"contracts/voting.sol\":614:644  msg.sender==electionCommission */\n      0xffffffffffffffffffffffffffffffffffffffff\n      and\n      eq\n        /* \"contracts/voting.sol\":606:668  require(msg.sender==electionCommission,\"Unauthorized Access.\") */\n      tag_12\n      jumpi\n      mload(0x40)\n      0x08c379a000000000000000000000000000000000000000000000000000000000\n      dup2\n      mstore\n      0x04\n      add\n      tag_13\n      swap1\n      tag_14\n      jump\t// in\n    tag_13:\n      mload(0x40)\n      dup1\n      swap2\n      sub\n      swap1\n      revert\n    tag_12:\n        /* \"contracts/voting.sol\":772:776  true */\n      0x01\n        /* \"contracts/voting.sol\":759:776  voteStarted==true */\n      iszero\n      iszero\n        /* \"contracts/voting.sol\":759:770  voteStarted */\n      0x01\n      0x14\n      swap1\n      sload\n      swap1\n      0x0100\n      exp\n      swap1\n      div\n      0xff\n      and\n        /* \"contracts/voting.sol\":759:776  voteStarted==true */\n      iszero\n      iszero\n      eq\n        /* \"contracts/voting.sol\":751:796  require(voteStarted==true,\"Already Started.\") */\n      tag_16\n      jumpi\n      mload(0x40)\n      0x08c379a000000000000000000000000000000000000000000000000000000000\n      dup2\n      mstore\n      0x04\n      add\n      tag_17\n      swap1\n      tag_18\n      jump\t// in\n    tag_17:\n      mload(0x40)\n      dup1\n      swap2\n      sub\n      swap1\n      revert\n    tag_16:\n        /* \"contracts/voting.sol\":1016:1017  0 */\n      0x00\n        /* \"contracts/voting.sol\":1002:1006  name */\n      dup3\n        /* \"contracts/voting.sol\":996:1014  bytes(name).length */\n      mload\n        /* \"contracts/voting.sol\":996:1017  bytes(name).length!=0 */\n      eq\n      iszero\n        /* \"contracts/voting.sol\":988:1040  require(bytes(name).length!=0,\"Name Can't be empty\") */\n      tag_20\n      jumpi\n      mload(0x40)\n      0x08c379a000000000000000000000000000000000000000000000000000000000\n      dup2\n      mstore\n      0x04\n      add\n      tag_21\n      swap1\n      tag_22\n      jump\t// in\n    tag_21:\n      mload(0x40)\n      dup1\n      swap2\n      sub\n      swap1\n      revert\n    tag_20:\n        /* \"contracts/voting.sol\":1081:1082  0 */\n      0x00\n        /* \"contracts/voting.sol\":1065:1071  symbol */\n      dup2\n        /* \"contracts/voting.sol\":1059:1079  bytes(symbol).length */\n      mload\n        /* \"contracts/voting.sol\":1059:1082  bytes(symbol).length!=0 */\n      eq\n      iszero\n        /* \"contracts/voting.sol\":1051:1107  require(bytes(symbol).length!=0,\"Symbol can't be empty\") */\n      tag_23\n      jumpi\n      mload(0x40)\n      0x08c379a000000000000000000000000000000000000000000000000000000000\n      dup2\n      mstore\n      0x04\n      add\n      tag_24\n      swap1\n      tag_25\n      jump\t// in\n    tag_24:\n      mload(0x40)\n      dup1\n      swap2\n      sub\n      swap1\n      revert\n    tag_23:\n        /* \"contracts/voting.sol\":1118:1128  Candidates */\n      0x03\n        /* \"contracts/voting.sol\":1134:1158  candidate(name,symbol,0) */\n      mload(0x40)\n      dup1\n      0x60\n      add\n      0x40\n      mstore\n      dup1\n        /* \"contracts/voting.sol\":1144:1148  name */\n      dup5\n        /* \"contracts/voting.sol\":1134:1158  candidate(name,symbol,0) */\n      dup2\n      mstore\n      0x20\n      add\n        /* \"contracts/voting.sol\":1149:1155  symbol */\n      dup4\n        /* \"contracts/voting.sol\":1134:1158  candidate(name,symbol,0) */\n      dup2\n      mstore\n      0x20\n      add\n        /* \"contracts/voting.sol\":1156:1157  0 */\n      0x00\n        /* \"contracts/voting.sol\":1134:1158  candidate(name,symbol,0) */\n      dup2\n      mstore\n      pop\n        /* \"contracts/voting.sol\":1118:1159  Candidates.push(candidate(name,symbol,0)) */\n      swap1\n      dup1\n      0x01\n      dup2\n      sload\n      add\n      dup1\n      dup3\n      sstore\n      dup1\n      swap2\n      pop\n      pop\n      0x01\n      swap1\n      sub\n      swap1\n      0x00\n      mstore\n      keccak256(0x00, 0x20)\n      swap1\n      0x03\n      mul\n      add\n      0x00\n      swap1\n      swap2\n      swap1\n      swap2\n      swap1\n      swap2\n      pop\n      0x00\n      dup3\n      add\n      mload\n      dup2\n      0x00\n      add\n      swap1\n      dup1\n      mload\n      swap1\n      0x20\n      add\n      swap1\n      tag_27\n      swap3\n      swap2\n      swap1\n      tag_28\n      jump\t// in\n    tag_27:\n      pop\n      0x20\n      dup3\n      add\n      mload\n      dup2\n      0x01\n      add\n      swap1\n      dup1\n      mload\n      swap1\n      0x20\n      add\n      swap1\n      tag_29\n      swap3\n      swap2\n      swap1\n      tag_28\n      jump\t// in\n    tag_29:\n      pop\n      0x40\n      dup3\n      add\n      mload\n      dup2\n      0x02\n      add\n      sstore\n      pop\n      pop\n        /* \"contracts/voting.sol\":851:1168  function registrationForCandidate  (string memory name, string memory symbol)public onlyElectionComission votingStarted\r... */\n      pop\n      pop\n      jump\t// out\n        /* \"contracts/voting.sol\":1198:1379  function startVote() public onlyElectionComission votingStarted{\r... */\n    tag_10:\n        /* \"contracts/voting.sol\":626:644  electionCommission */\n      0x01\n      0x00\n      swap1\n      sload\n      swap1\n      0x0100\n      exp\n      swap1\n      div\n      0xffffffffffffffffffffffffffffffffffffffff\n      and\n        /* \"contracts/voting.sol\":614:644  msg.sender==electionCommission */\n      0xffffffffffffffffffffffffffffffffffffffff\n      and\n        /* \"contracts/voting.sol\":614:624  msg.sender */\n      caller\n        /* \"contracts/voting.sol\":614:644  msg.sender==electionCommission */\n      0xffffffffffffffffffffffffffffffffffffffff\n      and\n      eq\n        /* \"contracts/voting.sol\":606:668  require(msg.sender==electionCommission,\"Unauthorized Access.\") */\n      tag_31\n      jumpi\n      mload(0x40)\n      0x08c379a000000000000000000000000000000000000000000000000000000000\n      dup2\n      mstore\n      0x04\n      add\n      tag_32\n      swap1\n      tag_14\n      jump\t// in\n    tag_32:\n      mload(0x40)\n      dup1\n      swap2\n      sub\n      swap1\n      revert\n    tag_31:\n        /* \"contracts/voting.sol\":772:776  true */\n      0x01\n        /* \"contracts/voting.sol\":759:776  voteStarted==true */\n      iszero\n      iszero\n        /* \"contracts/voting.sol\":759:770  voteStarted */\n      0x01\n      0x14\n      swap1\n      sload\n      swap1\n      0x0100\n      exp\n      swap1\n      div\n      0xff\n      and\n        /* \"contracts/voting.sol\":759:776  voteStarted==true */\n      iszero\n      iszero\n      eq\n        /* \"contracts/voting.sol\":751:796  require(voteStarted==true,\"Already Started.\") */\n      tag_34\n      jumpi\n      mload(0x40)\n      0x08c379a000000000000000000000000000000000000000000000000000000000\n      dup2\n      mstore\n      0x04\n      add\n      tag_35\n      swap1\n      tag_18\n      jump\t// in\n    tag_35:\n      mload(0x40)\n      dup1\n      swap2\n      sub\n      swap1\n      revert\n    tag_34:\n        /* \"contracts/voting.sol\":1298:1299  0 */\n      0x00\n        /* \"contracts/voting.sol\":1280:1290  Candidates */\n      0x03\n        /* \"contracts/voting.sol\":1280:1297  Candidates.length */\n      dup1\n      sload\n      swap1\n      pop\n        /* \"contracts/voting.sol\":1280:1299  Candidates.length>0 */\n      gt\n        /* \"contracts/voting.sol\":1272:1341  require(Candidates.length>0,\"Atleast 2 candiate must be registered.\") */\n      tag_37\n      jumpi\n      mload(0x40)\n      0x08c379a000000000000000000000000000000000000000000000000000000000\n      dup2\n      mstore\n      0x04\n      add\n      tag_38\n      swap1\n      tag_39\n      jump\t// in\n    tag_38:\n      mload(0x40)\n      dup1\n      swap2\n      sub\n      swap1\n      revert\n    tag_37:\n        /* \"contracts/voting.sol\":1366:1370  true */\n      0x01\n        /* \"contracts/voting.sol\":1352:1363  voteStarted */\n      dup1\n      0x14\n        /* \"contracts/voting.sol\":1352:1370  voteStarted = true */\n      0x0100\n      exp\n      dup2\n      sload\n      dup2\n      0xff\n      mul\n      not\n      and\n      swap1\n      dup4\n      iszero\n      iszero\n      mul\n      or\n      swap1\n      sstore\n      pop\n        /* \"contracts/voting.sol\":1198:1379  function startVote() public onlyElectionComission votingStarted{\r... */\n      jump\t// out\n    tag_28:\n      dup3\n      dup1\n      sload\n      tag_40\n      swap1\n      tag_41\n      jump\t// in\n    tag_40:\n      swap1\n      0x00\n      mstore\n      keccak256(0x00, 0x20)\n      swap1\n      0x1f\n      add\n      0x20\n      swap1\n      div\n      dup2\n      add\n      swap3\n      dup3\n      tag_43\n      jumpi\n      0x00\n      dup6\n      sstore\n      jump(tag_42)\n    tag_43:\n      dup3\n      0x1f\n      lt\n      tag_44\n      jumpi\n      dup1\n      mload\n      not(0xff)\n      and\n      dup4\n      dup1\n      add\n      or\n      dup6\n      sstore\n      jump(tag_42)\n    tag_44:\n      dup3\n      dup1\n      add\n      0x01\n      add\n      dup6\n      sstore\n      dup3\n      iszero\n      tag_42\n      jumpi\n      swap2\n      dup3\n      add\n    tag_45:\n      dup3\n      dup2\n      gt\n      iszero\n      tag_46\n      jumpi\n      dup3\n      mload\n      dup3\n      sstore\n      swap2\n      0x20\n      add\n      swap2\n      swap1\n      0x01\n      add\n      swap1\n      jump(tag_45)\n    tag_46:\n    tag_42:\n      pop\n      swap1\n      pop\n      tag_47\n      swap2\n      swap1\n      tag_48\n      jump\t// in\n    tag_47:\n      pop\n      swap1\n      jump\t// out\n    tag_48:\n    tag_49:\n      dup1\n      dup3\n      gt\n      iszero\n      tag_50\n      jumpi\n      0x00\n      dup2\n      0x00\n      swap1\n      sstore\n      pop\n      0x01\n      add\n      jump(tag_49)\n    tag_50:\n      pop\n      swap1\n      jump\t// out\n        /* \"#utility.yul\":7:419   */\n    tag_52:\n        /* \"#utility.yul\":85:90   */\n      0x00\n        /* \"#utility.yul\":110:176   */\n      tag_54\n        /* \"#utility.yul\":126:175   */\n      tag_55\n        /* \"#utility.yul\":168:174   */\n      dup5\n        /* \"#utility.yul\":126:175   */\n      tag_56\n      jump\t// in\n    tag_55:\n        /* \"#utility.yul\":110:176   */\n      tag_57\n      jump\t// in\n    tag_54:\n        /* \"#utility.yul\":101:176   */\n      swap1\n      pop\n        /* \"#utility.yul\":199:205   */\n      dup3\n        /* \"#utility.yul\":192:197   */\n      dup2\n        /* \"#utility.yul\":185:206   */\n      mstore\n        /* \"#utility.yul\":237:241   */\n      0x20\n        /* \"#utility.yul\":230:235   */\n      dup2\n        /* \"#utility.yul\":226:242   */\n      add\n        /* \"#utility.yul\":275:278   */\n      dup5\n        /* \"#utility.yul\":266:272   */\n      dup5\n        /* \"#utility.yul\":261:264   */\n      dup5\n        /* \"#utility.yul\":257:273   */\n      add\n        /* \"#utility.yul\":254:279   */\n      gt\n        /* \"#utility.yul\":251:363   */\n      iszero\n      tag_58\n      jumpi\n        /* \"#utility.yul\":282:361   */\n      tag_59\n      tag_60\n      jump\t// in\n    tag_59:\n        /* \"#utility.yul\":251:363   */\n    tag_58:\n        /* \"#utility.yul\":372:413   */\n      tag_61\n        /* \"#utility.yul\":406:412   */\n      dup5\n        /* \"#utility.yul\":401:404   */\n      dup3\n        /* \"#utility.yul\":396:399   */\n      dup6\n        /* \"#utility.yul\":372:413   */\n      tag_62\n      jump\t// in\n    tag_61:\n        /* \"#utility.yul\":91:419   */\n      pop\n        /* \"#utility.yul\":7:419   */\n      swap4\n      swap3\n      pop\n      pop\n      pop\n      jump\t// out\n        /* \"#utility.yul\":439:779   */\n    tag_63:\n        /* \"#utility.yul\":495:500   */\n      0x00\n        /* \"#utility.yul\":544:547   */\n      dup3\n        /* \"#utility.yul\":537:541   */\n      0x1f\n        /* \"#utility.yul\":529:535   */\n      dup4\n        /* \"#utility.yul\":525:542   */\n      add\n        /* \"#utility.yul\":521:548   */\n      slt\n        /* \"#utility.yul\":511:633   */\n      tag_65\n      jumpi\n        /* \"#utility.yul\":552:631   */\n      tag_66\n      tag_67\n      jump\t// in\n    tag_66:\n        /* \"#utility.yul\":511:633   */\n    tag_65:\n        /* \"#utility.yul\":669:675   */\n      dup2\n        /* \"#utility.yul\":656:676   */\n      calldataload\n        /* \"#utility.yul\":694:773   */\n      tag_68\n        /* \"#utility.yul\":769:772   */\n      dup5\n        /* \"#utility.yul\":761:767   */\n      dup3\n        /* \"#utility.yul\":754:758   */\n      0x20\n        /* \"#utility.yul\":746:752   */\n      dup7\n        /* \"#utility.yul\":742:759   */\n      add\n        /* \"#utility.yul\":694:773   */\n      tag_52\n      jump\t// in\n    tag_68:\n        /* \"#utility.yul\":685:773   */\n      swap2\n      pop\n        /* \"#utility.yul\":501:779   */\n      pop\n        /* \"#utility.yul\":439:779   */\n      swap3\n      swap2\n      pop\n      pop\n      jump\t// out\n        /* \"#utility.yul\":785:1619   */\n    tag_7:\n        /* \"#utility.yul\":873:879   */\n      0x00\n        /* \"#utility.yul\":881:887   */\n      dup1\n        /* \"#utility.yul\":930:932   */\n      0x40\n        /* \"#utility.yul\":918:927   */\n      dup4\n        /* \"#utility.yul\":909:916   */\n      dup6\n        /* \"#utility.yul\":905:928   */\n      sub\n        /* \"#utility.yul\":901:933   */\n      slt\n        /* \"#utility.yul\":898:1017   */\n      iszero\n      tag_70\n      jumpi\n        /* \"#utility.yul\":936:1015   */\n      tag_71\n      tag_72\n      jump\t// in\n    tag_71:\n        /* \"#utility.yul\":898:1017   */\n    tag_70:\n        /* \"#utility.yul\":1084:1085   */\n      0x00\n        /* \"#utility.yul\":1073:1082   */\n      dup4\n        /* \"#utility.yul\":1069:1086   */\n      add\n        /* \"#utility.yul\":1056:1087   */\n      calldataload\n        /* \"#utility.yul\":1114:1132   */\n      0xffffffffffffffff\n        /* \"#utility.yul\":1106:1112   */\n      dup2\n        /* \"#utility.yul\":1103:1133   */\n      gt\n        /* \"#utility.yul\":1100:1217   */\n      iszero\n      tag_73\n      jumpi\n        /* \"#utility.yul\":1136:1215   */\n      tag_74\n      tag_75\n      jump\t// in\n    tag_74:\n        /* \"#utility.yul\":1100:1217   */\n    tag_73:\n        /* \"#utility.yul\":1241:1304   */\n      tag_76\n        /* \"#utility.yul\":1296:1303   */\n      dup6\n        /* \"#utility.yul\":1287:1293   */\n      dup3\n        /* \"#utility.yul\":1276:1285   */\n      dup7\n        /* \"#utility.yul\":1272:1294   */\n      add\n        /* \"#utility.yul\":1241:1304   */\n      tag_63\n      jump\t// in\n    tag_76:\n        /* \"#utility.yul\":1231:1304   */\n      swap3\n      pop\n        /* \"#utility.yul\":1027:1314   */\n      pop\n        /* \"#utility.yul\":1381:1383   */\n      0x20\n        /* \"#utility.yul\":1370:1379   */\n      dup4\n        /* \"#utility.yul\":1366:1384   */\n      add\n        /* \"#utility.yul\":1353:1385   */\n      calldataload\n        /* \"#utility.yul\":1412:1430   */\n      0xffffffffffffffff\n        /* \"#utility.yul\":1404:1410   */\n      dup2\n        /* \"#utility.yul\":1401:1431   */\n      gt\n        /* \"#utility.yul\":1398:1515   */\n      iszero\n      tag_77\n      jumpi\n        /* \"#utility.yul\":1434:1513   */\n      tag_78\n      tag_75\n      jump\t// in\n    tag_78:\n        /* \"#utility.yul\":1398:1515   */\n    tag_77:\n        /* \"#utility.yul\":1539:1602   */\n      tag_79\n        /* \"#utility.yul\":1594:1601   */\n      dup6\n        /* \"#utility.yul\":1585:1591   */\n      dup3\n        /* \"#utility.yul\":1574:1583   */\n      dup7\n        /* \"#utility.yul\":1570:1592   */\n      add\n        /* \"#utility.yul\":1539:1602   */\n      tag_63\n      jump\t// in\n    tag_79:\n        /* \"#utility.yul\":1529:1602   */\n      swap2\n      pop\n        /* \"#utility.yul\":1324:1612   */\n      pop\n        /* \"#utility.yul\":785:1619   */\n      swap3\n      pop\n      swap3\n      swap1\n      pop\n      jump\t// out\n        /* \"#utility.yul\":1625:1991   */\n    tag_80:\n        /* \"#utility.yul\":1767:1770   */\n      0x00\n        /* \"#utility.yul\":1788:1855   */\n      tag_82\n        /* \"#utility.yul\":1852:1854   */\n      0x14\n        /* \"#utility.yul\":1847:1850   */\n      dup4\n        /* \"#utility.yul\":1788:1855   */\n      tag_83\n      jump\t// in\n    tag_82:\n        /* \"#utility.yul\":1781:1855   */\n      swap2\n      pop\n        /* \"#utility.yul\":1864:1957   */\n      tag_84\n        /* \"#utility.yul\":1953:1956   */\n      dup3\n        /* \"#utility.yul\":1864:1957   */\n      tag_85\n      jump\t// in\n    tag_84:\n        /* \"#utility.yul\":1982:1984   */\n      0x20\n        /* \"#utility.yul\":1977:1980   */\n      dup3\n        /* \"#utility.yul\":1973:1985   */\n      add\n        /* \"#utility.yul\":1966:1985   */\n      swap1\n      pop\n        /* \"#utility.yul\":1625:1991   */\n      swap2\n      swap1\n      pop\n      jump\t// out\n        /* \"#utility.yul\":1997:2363   */\n    tag_86:\n        /* \"#utility.yul\":2139:2142   */\n      0x00\n        /* \"#utility.yul\":2160:2227   */\n      tag_88\n        /* \"#utility.yul\":2224:2226   */\n      0x15\n        /* \"#utility.yul\":2219:2222   */\n      dup4\n        /* \"#utility.yul\":2160:2227   */\n      tag_83\n      jump\t// in\n    tag_88:\n        /* \"#utility.yul\":2153:2227   */\n      swap2\n      pop\n        /* \"#utility.yul\":2236:2329   */\n      tag_89\n        /* \"#utility.yul\":2325:2328   */\n      dup3\n        /* \"#utility.yul\":2236:2329   */\n      tag_90\n      jump\t// in\n    tag_89:\n        /* \"#utility.yul\":2354:2356   */\n      0x20\n        /* \"#utility.yul\":2349:2352   */\n      dup3\n        /* \"#utility.yul\":2345:2357   */\n      add\n        /* \"#utility.yul\":2338:2357   */\n      swap1\n      pop\n        /* \"#utility.yul\":1997:2363   */\n      swap2\n      swap1\n      pop\n      jump\t// out\n        /* \"#utility.yul\":2369:2735   */\n    tag_91:\n        /* \"#utility.yul\":2511:2514   */\n      0x00\n        /* \"#utility.yul\":2532:2599   */\n      tag_93\n        /* \"#utility.yul\":2596:2598   */\n      0x10\n        /* \"#utility.yul\":2591:2594   */\n      dup4\n        /* \"#utility.yul\":2532:2599   */\n      tag_83\n      jump\t// in\n    tag_93:\n        /* \"#utility.yul\":2525:2599   */\n      swap2\n      pop\n        /* \"#utility.yul\":2608:2701   */\n      tag_94\n        /* \"#utility.yul\":2697:2700   */\n      dup3\n        /* \"#utility.yul\":2608:2701   */\n      tag_95\n      jump\t// in\n    tag_94:\n        /* \"#utility.yul\":2726:2728   */\n      0x20\n        /* \"#utility.yul\":2721:2724   */\n      dup3\n        /* \"#utility.yul\":2717:2729   */\n      add\n        /* \"#utility.yul\":2710:2729   */\n      swap1\n      pop\n        /* \"#utility.yul\":2369:2735   */\n      swap2\n      swap1\n      pop\n      jump\t// out\n        /* \"#utility.yul\":2741:3107   */\n    tag_96:\n        /* \"#utility.yul\":2883:2886   */\n      0x00\n        /* \"#utility.yul\":2904:2971   */\n      tag_98\n        /* \"#utility.yul\":2968:2970   */\n      0x13\n        /* \"#utility.yul\":2963:2966   */\n      dup4\n        /* \"#utility.yul\":2904:2971   */\n      tag_83\n      jump\t// in\n    tag_98:\n        /* \"#utility.yul\":2897:2971   */\n      swap2\n      pop\n        /* \"#utility.yul\":2980:3073   */\n      tag_99\n        /* \"#utility.yul\":3069:3072   */\n      dup3\n        /* \"#utility.yul\":2980:3073   */\n      tag_100\n      jump\t// in\n    tag_99:\n        /* \"#utility.yul\":3098:3100   */\n      0x20\n        /* \"#utility.yul\":3093:3096   */\n      dup3\n        /* \"#utility.yul\":3089:3101   */\n      add\n        /* \"#utility.yul\":3082:3101   */\n      swap1\n      pop\n        /* \"#utility.yul\":2741:3107   */\n      swap2\n      swap1\n      pop\n      jump\t// out\n        /* \"#utility.yul\":3113:3479   */\n    tag_101:\n        /* \"#utility.yul\":3255:3258   */\n      0x00\n        /* \"#utility.yul\":3276:3343   */\n      tag_103\n        /* \"#utility.yul\":3340:3342   */\n      0x26\n        /* \"#utility.yul\":3335:3338   */\n      dup4\n        /* \"#utility.yul\":3276:3343   */\n      tag_83\n      jump\t// in\n    tag_103:\n        /* \"#utility.yul\":3269:3343   */\n      swap2\n      pop\n        /* \"#utility.yul\":3352:3445   */\n      tag_104\n        /* \"#utility.yul\":3441:3444   */\n      dup3\n        /* \"#utility.yul\":3352:3445   */\n      tag_105\n      jump\t// in\n    tag_104:\n        /* \"#utility.yul\":3470:3472   */\n      0x40\n        /* \"#utility.yul\":3465:3468   */\n      dup3\n        /* \"#utility.yul\":3461:3473   */\n      add\n        /* \"#utility.yul\":3454:3473   */\n      swap1\n      pop\n        /* \"#utility.yul\":3113:3479   */\n      swap2\n      swap1\n      pop\n      jump\t// out\n        /* \"#utility.yul\":3485:3904   */\n    tag_14:\n        /* \"#utility.yul\":3651:3655   */\n      0x00\n        /* \"#utility.yul\":3689:3691   */\n      0x20\n        /* \"#utility.yul\":3678:3687   */\n      dup3\n        /* \"#utility.yul\":3674:3692   */\n      add\n        /* \"#utility.yul\":3666:3692   */\n      swap1\n      pop\n        /* \"#utility.yul\":3738:3747   */\n      dup2\n        /* \"#utility.yul\":3732:3736   */\n      dup2\n        /* \"#utility.yul\":3728:3748   */\n      sub\n        /* \"#utility.yul\":3724:3725   */\n      0x00\n        /* \"#utility.yul\":3713:3722   */\n      dup4\n        /* \"#utility.yul\":3709:3726   */\n      add\n        /* \"#utility.yul\":3702:3749   */\n      mstore\n        /* \"#utility.yul\":3766:3897   */\n      tag_107\n        /* \"#utility.yul\":3892:3896   */\n      dup2\n        /* \"#utility.yul\":3766:3897   */\n      tag_80\n      jump\t// in\n    tag_107:\n        /* \"#utility.yul\":3758:3897   */\n      swap1\n      pop\n        /* \"#utility.yul\":3485:3904   */\n      swap2\n      swap1\n      pop\n      jump\t// out\n        /* \"#utility.yul\":3910:4329   */\n    tag_25:\n        /* \"#utility.yul\":4076:4080   */\n      0x00\n        /* \"#utility.yul\":4114:4116   */\n      0x20\n        /* \"#utility.yul\":4103:4112   */\n      dup3\n        /* \"#utility.yul\":4099:4117   */\n      add\n        /* \"#utility.yul\":4091:4117   */\n      swap1\n      pop\n        /* \"#utility.yul\":4163:4172   */\n      dup2\n        /* \"#utility.yul\":4157:4161   */\n      dup2\n        /* \"#utility.yul\":4153:4173   */\n      sub\n        /* \"#utility.yul\":4149:4150   */\n      0x00\n        /* \"#utility.yul\":4138:4147   */\n      dup4\n        /* \"#utility.yul\":4134:4151   */\n      add\n        /* \"#utility.yul\":4127:4174   */\n      mstore\n        /* \"#utility.yul\":4191:4322   */\n      tag_109\n        /* \"#utility.yul\":4317:4321   */\n      dup2\n        /* \"#utility.yul\":4191:4322   */\n      tag_86\n      jump\t// in\n    tag_109:\n        /* \"#utility.yul\":4183:4322   */\n      swap1\n      pop\n        /* \"#utility.yul\":3910:4329   */\n      swap2\n      swap1\n      pop\n      jump\t// out\n        /* \"#utility.yul\":4335:4754   */\n    tag_18:\n        /* \"#utility.yul\":4501:4505   */\n      0x00\n        /* \"#utility.yul\":4539:4541   */\n      0x20\n        /* \"#utility.yul\":4528:4537   */\n      dup3\n        /* \"#utility.yul\":4524:4542   */\n      add\n        /* \"#utility.yul\":4516:4542   */\n      swap1\n      pop\n        /* \"#utility.yul\":4588:4597   */\n      dup2\n        /* \"#utility.yul\":4582:4586   */\n      dup2\n        /* \"#utility.yul\":4578:4598   */\n      sub\n        /* \"#utility.yul\":4574:4575   */\n      0x00\n        /* \"#utility.yul\":4563:4572   */\n      dup4\n        /* \"#utility.yul\":4559:4576   */\n      add\n        /* \"#utility.yul\":4552:4599   */\n      mstore\n        /* \"#utility.yul\":4616:4747   */\n      tag_111\n        /* \"#utility.yul\":4742:4746   */\n      dup2\n        /* \"#utility.yul\":4616:4747   */\n      tag_91\n      jump\t// in\n    tag_111:\n        /* \"#utility.yul\":4608:4747   */\n      swap1\n      pop\n        /* \"#utility.yul\":4335:4754   */\n      swap2\n      swap1\n      pop\n      jump\t// out\n        /* \"#utility.yul\":4760:5179   */\n    tag_22:\n        /* \"#utility.yul\":4926:4930   */\n      0x00\n        /* \"#utility.yul\":4964:4966   */\n      0x20\n        /* \"#utility.yul\":4953:4962   */\n      dup3\n        /* \"#utility.yul\":4949:4967   */\n      add\n        /* \"#utility.yul\":4941:4967   */\n      swap1\n      pop\n        /* \"#utility.yul\":5013:5022   */\n      dup2\n        /* \"#utility.yul\":5007:5011   */\n      dup2\n        /* \"#utility.yul\":5003:5023   */\n      sub\n        /* \"#utility.yul\":4999:5000   */\n      0x00\n        /* \"#utility.yul\":4988:4997   */\n      dup4\n        /* \"#utility.yul\":4984:5001   */\n      add\n        /* \"#utility.yul\":4977:5024   */\n      mstore\n        /* \"#utility.yul\":5041:5172   */\n      tag_113\n        /* \"#utility.yul\":5167:5171   */\n      dup2\n        /* \"#utility.yul\":5041:5172   */\n      tag_96\n      jump\t// in\n    tag_113:\n        /* \"#utility.yul\":5033:5172   */\n      swap1\n      pop\n        /* \"#utility.yul\":4760:5179   */\n      swap2\n      swap1\n      pop\n      jump\t// out\n        /* \"#utility.yul\":5185:5604   */\n    tag_39:\n        /* \"#utility.yul\":5351:5355   */\n      0x00\n        /* \"#utility.yul\":5389:5391   */\n      0x20\n        /* \"#utility.yul\":5378:5387   */\n      dup3\n        /* \"#utility.yul\":5374:5392   */\n      add\n        /* \"#utility.yul\":5366:5392   */\n      swap1\n      pop\n        /* \"#utility.yul\":5438:5447   */\n      dup2\n        /* \"#utility.yul\":5432:5436   */\n      dup2\n        /* \"#utility.yul\":5428:5448   */\n      sub\n        /* \"#utility.yul\":5424:5425   */\n      0x00\n        /* \"#utility.yul\":5413:5422   */\n      dup4\n        /* \"#utility.yul\":5409:5426   */\n      add\n        /* \"#utility.yul\":5402:5449   */\n      mstore\n        /* \"#utility.yul\":5466:5597   */\n      tag_115\n        /* \"#utility.yul\":5592:5596   */\n      dup2\n        /* \"#utility.yul\":5466:5597   */\n      tag_101\n      jump\t// in\n    tag_115:\n        /* \"#utility.yul\":5458:5597   */\n      swap1\n      pop\n        /* \"#utility.yul\":5185:5604   */\n      swap2\n      swap1\n      pop\n      jump\t// out\n        /* \"#utility.yul\":5610:5739   */\n    tag_57:\n        /* \"#utility.yul\":5644:5650   */\n      0x00\n        /* \"#utility.yul\":5671:5691   */\n      tag_117\n      tag_118\n      jump\t// in\n    tag_117:\n        /* \"#utility.yul\":5661:5691   */\n      swap1\n      pop\n        /* \"#utility.yul\":5700:5733   */\n      tag_119\n        /* \"#utility.yul\":5728:5732   */\n      dup3\n        /* \"#utility.yul\":5720:5726   */\n      dup3\n        /* \"#utility.yul\":5700:5733   */\n      tag_120\n      jump\t// in\n    tag_119:\n        /* \"#utility.yul\":5610:5739   */\n      swap2\n      swap1\n      pop\n      jump\t// out\n        /* \"#utility.yul\":5745:5820   */\n    tag_118:\n        /* \"#utility.yul\":5778:5784   */\n      0x00\n        /* \"#utility.yul\":5811:5813   */\n      0x40\n        /* \"#utility.yul\":5805:5814   */\n      mload\n        /* \"#utility.yul\":5795:5814   */\n      swap1\n      pop\n        /* \"#utility.yul\":5745:5820   */\n      swap1\n      jump\t// out\n        /* \"#utility.yul\":5826:6134   */\n    tag_56:\n        /* \"#utility.yul\":5888:5892   */\n      0x00\n        /* \"#utility.yul\":5978:5996   */\n      0xffffffffffffffff\n        /* \"#utility.yul\":5970:5976   */\n      dup3\n        /* \"#utility.yul\":5967:5997   */\n      gt\n        /* \"#utility.yul\":5964:6020   */\n      iszero\n      tag_123\n      jumpi\n        /* \"#utility.yul\":6000:6018   */\n      tag_124\n      tag_125\n      jump\t// in\n    tag_124:\n        /* \"#utility.yul\":5964:6020   */\n    tag_123:\n        /* \"#utility.yul\":6038:6067   */\n      tag_126\n        /* \"#utility.yul\":6060:6066   */\n      dup3\n        /* \"#utility.yul\":6038:6067   */\n      tag_127\n      jump\t// in\n    tag_126:\n        /* \"#utility.yul\":6030:6067   */\n      swap1\n      pop\n        /* \"#utility.yul\":6122:6126   */\n      0x20\n        /* \"#utility.yul\":6116:6120   */\n      dup2\n        /* \"#utility.yul\":6112:6127   */\n      add\n        /* \"#utility.yul\":6104:6127   */\n      swap1\n      pop\n        /* \"#utility.yul\":5826:6134   */\n      swap2\n      swap1\n      pop\n      jump\t// out\n        /* \"#utility.yul\":6140:6309   */\n    tag_83:\n        /* \"#utility.yul\":6224:6235   */\n      0x00\n        /* \"#utility.yul\":6258:6264   */\n      dup3\n        /* \"#utility.yul\":6253:6256   */\n      dup3\n        /* \"#utility.yul\":6246:6265   */\n      mstore\n        /* \"#utility.yul\":6298:6302   */\n      0x20\n        /* \"#utility.yul\":6293:6296   */\n      dup3\n        /* \"#utility.yul\":6289:6303   */\n      add\n        /* \"#utility.yul\":6274:6303   */\n      swap1\n      pop\n        /* \"#utility.yul\":6140:6309   */\n      swap3\n      swap2\n      pop\n      pop\n      jump\t// out\n        /* \"#utility.yul\":6315:6469   */\n    tag_62:\n        /* \"#utility.yul\":6399:6405   */\n      dup3\n        /* \"#utility.yul\":6394:6397   */\n      dup2\n        /* \"#utility.yul\":6389:6392   */\n      dup4\n        /* \"#utility.yul\":6376:6406   */\n      calldatacopy\n        /* \"#utility.yul\":6461:6462   */\n      0x00\n        /* \"#utility.yul\":6452:6458   */\n      dup4\n        /* \"#utility.yul\":6447:6450   */\n      dup4\n        /* \"#utility.yul\":6443:6459   */\n      add\n        /* \"#utility.yul\":6436:6463   */\n      mstore\n        /* \"#utility.yul\":6315:6469   */\n      pop\n      pop\n      pop\n      jump\t// out\n        /* \"#utility.yul\":6475:6795   */\n    tag_41:\n        /* \"#utility.yul\":6519:6525   */\n      0x00\n        /* \"#utility.yul\":6556:6557   */\n      0x02\n        /* \"#utility.yul\":6550:6554   */\n      dup3\n        /* \"#utility.yul\":6546:6558   */\n      div\n        /* \"#utility.yul\":6536:6558   */\n      swap1\n      pop\n        /* \"#utility.yul\":6603:6604   */\n      0x01\n        /* \"#utility.yul\":6597:6601   */\n      dup3\n        /* \"#utility.yul\":6593:6605   */\n      and\n        /* \"#utility.yul\":6624:6642   */\n      dup1\n        /* \"#utility.yul\":6614:6695   */\n      tag_131\n      jumpi\n        /* \"#utility.yul\":6680:6684   */\n      0x7f\n        /* \"#utility.yul\":6672:6678   */\n      dup3\n        /* \"#utility.yul\":6668:6685   */\n      and\n        /* \"#utility.yul\":6658:6685   */\n      swap2\n      pop\n        /* \"#utility.yul\":6614:6695   */\n    tag_131:\n        /* \"#utility.yul\":6742:6744   */\n      0x20\n        /* \"#utility.yul\":6734:6740   */\n      dup3\n        /* \"#utility.yul\":6731:6745   */\n      lt\n        /* \"#utility.yul\":6711:6729   */\n      dup2\n        /* \"#utility.yul\":6708:6746   */\n      eq\n        /* \"#utility.yul\":6705:6789   */\n      iszero\n      tag_132\n      jumpi\n        /* \"#utility.yul\":6761:6779   */\n      tag_133\n      tag_134\n      jump\t// in\n    tag_133:\n        /* \"#utility.yul\":6705:6789   */\n    tag_132:\n        /* \"#utility.yul\":6526:6795   */\n      pop\n        /* \"#utility.yul\":6475:6795   */\n      swap2\n      swap1\n      pop\n      jump\t// out\n        /* \"#utility.yul\":6801:7082   */\n    tag_120:\n        /* \"#utility.yul\":6884:6911   */\n      tag_136\n        /* \"#utility.yul\":6906:6910   */\n      dup3\n        /* \"#utility.yul\":6884:6911   */\n      tag_127\n      jump\t// in\n    tag_136:\n        /* \"#utility.yul\":6876:6882   */\n      dup2\n        /* \"#utility.yul\":6872:6912   */\n      add\n        /* \"#utility.yul\":7014:7020   */\n      dup2\n        /* \"#utility.yul\":7002:7012   */\n      dup2\n        /* \"#utility.yul\":6999:7021   */\n      lt\n        /* \"#utility.yul\":6978:6996   */\n      0xffffffffffffffff\n        /* \"#utility.yul\":6966:6976   */\n      dup3\n        /* \"#utility.yul\":6963:6997   */\n      gt\n        /* \"#utility.yul\":6960:7022   */\n      or\n        /* \"#utility.yul\":6957:7045   */\n      iszero\n      tag_137\n      jumpi\n        /* \"#utility.yul\":7025:7043   */\n      tag_138\n      tag_125\n      jump\t// in\n    tag_138:\n        /* \"#utility.yul\":6957:7045   */\n    tag_137:\n        /* \"#utility.yul\":7065:7075   */\n      dup1\n        /* \"#utility.yul\":7061:7063   */\n      0x40\n        /* \"#utility.yul\":7054:7076   */\n      mstore\n        /* \"#utility.yul\":6844:7082   */\n      pop\n        /* \"#utility.yul\":6801:7082   */\n      pop\n      pop\n      jump\t// out\n        /* \"#utility.yul\":7088:7268   */\n    tag_134:\n        /* \"#utility.yul\":7136:7213   */\n      0x4e487b7100000000000000000000000000000000000000000000000000000000\n        /* \"#utility.yul\":7133:7134   */\n      0x00\n        /* \"#utility.yul\":7126:7214   */\n      mstore\n        /* \"#utility.yul\":7233:7237   */\n      0x22\n        /* \"#utility.yul\":7230:7231   */\n      0x04\n        /* \"#utility.yul\":7223:7238   */\n      mstore\n        /* \"#utility.yul\":7257:7261   */\n      0x24\n        /* \"#utility.yul\":7254:7255   */\n      0x00\n        /* \"#utility.yul\":7247:7262   */\n      revert\n        /* \"#utility.yul\":7274:7454   */\n    tag_125:\n        /* \"#utility.yul\":7322:7399   */\n      0x4e487b7100000000000000000000000000000000000000000000000000000000\n        /* \"#utility.yul\":7319:7320   */\n      0x00\n        /* \"#utility.yul\":7312:7400   */\n      mstore\n        /* \"#utility.yul\":7419:7423   */\n      0x41\n        /* \"#utility.yul\":7416:7417   */\n      0x04\n        /* \"#utility.yul\":7409:7424   */\n      mstore\n        /* \"#utility.yul\":7443:7447   */\n      0x24\n        /* \"#utility.yul\":7440:7441   */\n      0x00\n        /* \"#utility.yul\":7433:7448   */\n      revert\n        /* \"#utility.yul\":7460:7577   */\n    tag_67:\n        /* \"#utility.yul\":7569:7570   */\n      0x00\n        /* \"#utility.yul\":7566:7567   */\n      dup1\n        /* \"#utility.yul\":7559:7571   */\n      revert\n        /* \"#utility.yul\":7583:7700   */\n    tag_60:\n        /* \"#utility.yul\":7692:7693   */\n      0x00\n        /* \"#utility.yul\":7689:7690   */\n      dup1\n        /* \"#utility.yul\":7682:7694   */\n      revert\n        /* \"#utility.yul\":7706:7823   */\n    tag_75:\n        /* \"#utility.yul\":7815:7816   */\n      0x00\n        /* \"#utility.yul\":7812:7813   */\n      dup1\n        /* \"#utility.yul\":7805:7817   */\n      revert\n        /* \"#utility.yul\":7829:7946   */\n    tag_72:\n        /* \"#utility.yul\":7938:7939   */\n      0x00\n        /* \"#utility.yul\":7935:7936   */\n      dup1\n        /* \"#utility.yul\":7928:7940   */\n      revert\n        /* \"#utility.yul\":7952:8054   */\n    tag_127:\n        /* \"#utility.yul\":7993:7999   */\n      0x00\n        /* \"#utility.yul\":8044:8046   */\n      0x1f\n        /* \"#utility.yul\":8040:8047   */\n      not\n        /* \"#utility.yul\":8035:8037   */\n      0x1f\n        /* \"#utility.yul\":8028:8033   */\n      dup4\n        /* \"#utility.yul\":8024:8038   */\n      add\n        /* \"#utility.yul\":8020:8048   */\n      and\n        /* \"#utility.yul\":8010:8048   */\n      swap1\n      pop\n        /* \"#utility.yul\":7952:8054   */\n      swap2\n      swap1\n      pop\n      jump\t// out\n        /* \"#utility.yul\":8060:8230   */\n    tag_85:\n        /* \"#utility.yul\":8200:8222   */\n      0x556e617574686f72697a6564204163636573732e000000000000000000000000\n        /* \"#utility.yul\":8196:8197   */\n      0x00\n        /* \"#utility.yul\":8188:8194   */\n      dup3\n        /* \"#utility.yul\":8184:8198   */\n      add\n        /* \"#utility.yul\":8177:8223   */\n      mstore\n        /* \"#utility.yul\":8060:8230   */\n      pop\n      jump\t// out\n        /* \"#utility.yul\":8236:8407   */\n    tag_90:\n        /* \"#utility.yul\":8376:8399   */\n      0x53796d626f6c2063616e277420626520656d7074790000000000000000000000\n        /* \"#utility.yul\":8372:8373   */\n      0x00\n        /* \"#utility.yul\":8364:8370   */\n      dup3\n        /* \"#utility.yul\":8360:8374   */\n      add\n        /* \"#utility.yul\":8353:8400   */\n      mstore\n        /* \"#utility.yul\":8236:8407   */\n      pop\n      jump\t// out\n        /* \"#utility.yul\":8413:8579   */\n    tag_95:\n        /* \"#utility.yul\":8553:8571   */\n      0x416c726561647920537461727465642e00000000000000000000000000000000\n        /* \"#utility.yul\":8549:8550   */\n      0x00\n        /* \"#utility.yul\":8541:8547   */\n      dup3\n        /* \"#utility.yul\":8537:8551   */\n      add\n        /* \"#utility.yul\":8530:8572   */\n      mstore\n        /* \"#utility.yul\":8413:8579   */\n      pop\n      jump\t// out\n        /* \"#utility.yul\":8585:8754   */\n    tag_100:\n        /* \"#utility.yul\":8725:8746   */\n      0x4e616d652043616e277420626520656d70747900000000000000000000000000\n        /* \"#utility.yul\":8721:8722   */\n      0x00\n        /* \"#utility.yul\":8713:8719   */\n      dup3\n        /* \"#utility.yul\":8709:8723   */\n      add\n        /* \"#utility.yul\":8702:8747   */\n      mstore\n        /* \"#utility.yul\":8585:8754   */\n      pop\n      jump\t// out\n        /* \"#utility.yul\":8760:8985   */\n    tag_105:\n        /* \"#utility.yul\":8900:8934   */\n      0x41746c6561737420322063616e6469617465206d757374206265207265676973\n        /* \"#utility.yul\":8896:8897   */\n      0x00\n        /* \"#utility.yul\":8888:8894   */\n      dup3\n        /* \"#utility.yul\":8884:8898   */\n      add\n        /* \"#utility.yul\":8877:8935   */\n      mstore\n        /* \"#utility.yul\":8969:8977   */\n      0x74657265642e0000000000000000000000000000000000000000000000000000\n        /* \"#utility.yul\":8964:8966   */\n      0x20\n        /* \"#utility.yul\":8956:8962   */\n      dup3\n        /* \"#utility.yul\":8952:8967   */\n      add\n        /* \"#utility.yul\":8945:8978   */\n      mstore\n        /* \"#utility.yul\":8760:8985   */\n      pop\n      jump\t// out\n\n    auxdata: 0xa2646970667358221220f26c6f4d13172b3d29af9aa384b55f3949330da00dcc6dae69c2ea73a814b3cd64736f6c63430008070033\n}\n",
				"bytecode": {
					"linkReferences": {},
					"object": "60806040526000600160146101000a81548160ff02191690831515021790555034801561002b57600080fd5b5033600160006101000a81548173ffffffffffffffffffffffffffffffffffffffff021916908373ffffffffffffffffffffffffffffffffffffffff16021790555061090b8061007c6000396000f3fe608060405234801561001057600080fd5b50600436106100365760003560e01c8063137967a61461003b5780634c0a6af014610057575b600080fd5b610055600480360381019061005091906104bf565b610061565b005b61005f610262565b005b600160009054906101000a900473ffffffffffffffffffffffffffffffffffffffff1673ffffffffffffffffffffffffffffffffffffffff163373ffffffffffffffffffffffffffffffffffffffff16146100f1576040517f08c379a00000000000000000000000000000000000000000000000000000000081526004016100e8906105e6565b60405180910390fd5b60011515600160149054906101000a900460ff16151514610147576040517f08c379a000000000000000000000000000000000000000000000000000000000815260040161013e90610626565b60405180910390fd5b60008251141561018c576040517f08c379a000000000000000000000000000000000000000000000000000000000815260040161018390610646565b60405180910390fd5b6000815114156101d1576040517f08c379a00000000000000000000000000000000000000000000000000000000081526004016101c890610606565b60405180910390fd5b600360405180606001604052808481526020018381526020016000815250908060018154018082558091505060019003906000526020600020906003020160009091909190915060008201518160000190805190602001906102349291906103ac565b5060208201518160010190805190602001906102519291906103ac565b506040820151816002015550505050565b600160009054906101000a900473ffffffffffffffffffffffffffffffffffffffff1673ffffffffffffffffffffffffffffffffffffffff163373ffffffffffffffffffffffffffffffffffffffff16146102f2576040517f08c379a00000000000000000000000000000000000000000000000000000000081526004016102e9906105e6565b60405180910390fd5b60011515600160149054906101000a900460ff16151514610348576040517f08c379a000000000000000000000000000000000000000000000000000000000815260040161033f90610626565b60405180910390fd5b600060038054905011610390576040517f08c379a000000000000000000000000000000000000000000000000000000000815260040161038790610666565b60405180910390fd5b60018060146101000a81548160ff021916908315150217905550565b8280546103b8906106fc565b90600052602060002090601f0160209004810192826103da5760008555610421565b82601f106103f357805160ff1916838001178555610421565b82800160010185558215610421579182015b82811115610420578251825591602001919060010190610405565b5b50905061042e9190610432565b5090565b5b8082111561044b576000816000905550600101610433565b5090565b600061046261045d846106ab565b610686565b90508281526020810184848401111561047e5761047d6107c2565b5b6104898482856106ed565b509392505050565b600082601f8301126104a6576104a56107bd565b5b81356104b684826020860161044f565b91505092915050565b600080604083850312156104d6576104d56107cc565b5b600083013567ffffffffffffffff8111156104f4576104f36107c7565b5b61050085828601610491565b925050602083013567ffffffffffffffff811115610521576105206107c7565b5b61052d85828601610491565b9150509250929050565b60006105446014836106dc565b915061054f826107e2565b602082019050919050565b60006105676015836106dc565b91506105728261080b565b602082019050919050565b600061058a6010836106dc565b915061059582610834565b602082019050919050565b60006105ad6013836106dc565b91506105b88261085d565b602082019050919050565b60006105d06026836106dc565b91506105db82610886565b604082019050919050565b600060208201905081810360008301526105ff81610537565b9050919050565b6000602082019050818103600083015261061f8161055a565b9050919050565b6000602082019050818103600083015261063f8161057d565b9050919050565b6000602082019050818103600083015261065f816105a0565b9050919050565b6000602082019050818103600083015261067f816105c3565b9050919050565b60006106906106a1565b905061069c828261072e565b919050565b6000604051905090565b600067ffffffffffffffff8211156106c6576106c561078e565b5b6106cf826107d1565b9050602081019050919050565b600082825260208201905092915050565b82818337600083830152505050565b6000600282049050600182168061071457607f821691505b602082108114156107285761072761075f565b5b50919050565b610737826107d1565b810181811067ffffffffffffffff821117156107565761075561078e565b5b80604052505050565b7f4e487b7100000000000000000000000000000000000000000000000000000000600052602260045260246000fd5b7f4e487b7100000000000000000000000000000000000000000000000000000000600052604160045260246000fd5b600080fd5b600080fd5b600080fd5b600080fd5b6000601f19601f8301169050919050565b7f556e617574686f72697a6564204163636573732e000000000000000000000000600082015250565b7f53796d626f6c2063616e277420626520656d7074790000000000000000000000600082015250565b7f416c726561647920537461727465642e00000000000000000000000000000000600082015250565b7f4e616d652043616e277420626520656d70747900000000000000000000000000600082015250565b7f41746c6561737420322063616e6469617465206d75737420626520726567697360008201527f74657265642e000000000000000000000000000000000000000000000000000060208201525056fea2646970667358221220f26c6f4d13172b3d29af9aa384b55f3949330da00dcc6dae69c2ea73a814b3cd64736f6c63430008070033",
					"opcodes": "PUSH1 0x80 PUSH1 0x40 MSTORE PUSH1 0x0 PUSH1 0x1 PUSH1 0x14 PUSH2 0x100 EXP DUP2 SLOAD DUP2 PUSH1 0xFF MUL NOT AND SWAP1 DUP4 ISZERO ISZERO MUL OR SWAP1 SSTORE POP CALLVALUE DUP1 ISZERO PUSH2 0x2B JUMPI PUSH1 0x0 DUP1 REVERT JUMPDEST POP CALLER PUSH1 0x1 PUSH1 0x0 PUSH2 0x100 EXP DUP2 SLOAD DUP2 PUSH20 0xFFFFFFFFFFFFFFFFFFFFFFFFFFFFFFFFFFFFFFFF MUL NOT AND SWAP1 DUP4 PUSH20 0xFFFFFFFFFFFFFFFFFFFFFFFFFFFFFFFFFFFFFFFF AND MUL OR SWAP1 SSTORE POP PUSH2 0x90B DUP1 PUSH2 0x7C PUSH1 0x0 CODECOPY PUSH1 0x0 RETURN INVALID PUSH1 0x80 PUSH1 0x40 MSTORE CALLVALUE DUP1 ISZERO PUSH2 0x10 JUMPI PUSH1 0x0 DUP1 REVERT JUMPDEST POP PUSH1 0x4 CALLDATASIZE LT PUSH2 0x36 JUMPI PUSH1 0x0 CALLDATALOAD PUSH1 0xE0 SHR DUP1 PUSH4 0x137967A6 EQ PUSH2 0x3B JUMPI DUP1 PUSH4 0x4C0A6AF0 EQ PUSH2 0x57 JUMPI JUMPDEST PUSH1 0x0 DUP1 REVERT JUMPDEST PUSH2 0x55 PUSH1 0x4 DUP1 CALLDATASIZE SUB DUP2 ADD SWAP1 PUSH2 0x50 SWAP2 SWAP1 PUSH2 0x4BF JUMP JUMPDEST PUSH2 0x61 JUMP JUMPDEST STOP JUMPDEST PUSH2 0x5F PUSH2 0x262 JUMP JUMPDEST STOP JUMPDEST PUSH1 0x1 PUSH1 0x0 SWAP1 SLOAD SWAP1 PUSH2 0x100 EXP SWAP1 DIV PUSH20 0xFFFFFFFFFFFFFFFFFFFFFFFFFFFFFFFFFFFFFFFF AND PUSH20 0xFFFFFFFFFFFFFFFFFFFFFFFFFFFFFFFFFFFFFFFF AND CALLER PUSH20 0xFFFFFFFFFFFFFFFFFFFFFFFFFFFFFFFFFFFFFFFF AND EQ PUSH2 0xF1 JUMPI PUSH1 0x40 MLOAD PUSH32 0x8C379A000000000000000000000000000000000000000000000000000000000 DUP2 MSTORE PUSH1 0x4 ADD PUSH2 0xE8 SWAP1 PUSH2 0x5E6 JUMP JUMPDEST PUSH1 0x40 MLOAD DUP1 SWAP2 SUB SWAP1 REVERT JUMPDEST PUSH1 0x1 ISZERO ISZERO PUSH1 0x1 PUSH1 0x14 SWAP1 SLOAD SWAP1 PUSH2 0x100 EXP SWAP1 DIV PUSH1 0xFF AND ISZERO ISZERO EQ PUSH2 0x147 JUMPI PUSH1 0x40 MLOAD PUSH32 0x8C379A000000000000000000000000000000000000000000000000000000000 DUP2 MSTORE PUSH1 0x4 ADD PUSH2 0x13E SWAP1 PUSH2 0x626 JUMP JUMPDEST PUSH1 0x40 MLOAD DUP1 SWAP2 SUB SWAP1 REVERT JUMPDEST PUSH1 0x0 DUP3 MLOAD EQ ISZERO PUSH2 0x18C JUMPI PUSH1 0x40 MLOAD PUSH32 0x8C379A000000000000000000000000000000000000000000000000000000000 DUP2 MSTORE PUSH1 0x4 ADD PUSH2 0x183 SWAP1 PUSH2 0x646 JUMP JUMPDEST PUSH1 0x40 MLOAD DUP1 SWAP2 SUB SWAP1 REVERT JUMPDEST PUSH1 0x0 DUP2 MLOAD EQ ISZERO PUSH2 0x1D1 JUMPI PUSH1 0x40 MLOAD PUSH32 0x8C379A000000000000000000000000000000000000000000000000000000000 DUP2 MSTORE PUSH1 0x4 ADD PUSH2 0x1C8 SWAP1 PUSH2 0x606 JUMP JUMPDEST PUSH1 0x40 MLOAD DUP1 SWAP2 SUB SWAP1 REVERT JUMPDEST PUSH1 0x3 PUSH1 0x40 MLOAD DUP1 PUSH1 0x60 ADD PUSH1 0x40 MSTORE DUP1 DUP5 DUP2 MSTORE PUSH1 0x20 ADD DUP4 DUP2 MSTORE PUSH1 0x20 ADD PUSH1 0x0 DUP2 MSTORE POP SWAP1 DUP1 PUSH1 0x1 DUP2 SLOAD ADD DUP1 DUP3 SSTORE DUP1 SWAP2 POP POP PUSH1 0x1 SWAP1 SUB SWAP1 PUSH1 0x0 MSTORE PUSH1 0x20 PUSH1 0x0 KECCAK256 SWAP1 PUSH1 0x3 MUL ADD PUSH1 0x0 SWAP1 SWAP2 SWAP1 SWAP2 SWAP1 SWAP2 POP PUSH1 0x0 DUP3 ADD MLOAD DUP2 PUSH1 0x0 ADD SWAP1 DUP1 MLOAD SWAP1 PUSH1 0x20 ADD SWAP1 PUSH2 0x234 SWAP3 SWAP2 SWAP1 PUSH2 0x3AC JUMP JUMPDEST POP PUSH1 0x20 DUP3 ADD MLOAD DUP2 PUSH1 0x1 ADD SWAP1 DUP1 MLOAD SWAP1 PUSH1 0x20 ADD SWAP1 PUSH2 0x251 SWAP3 SWAP2 SWAP1 PUSH2 0x3AC JUMP JUMPDEST POP PUSH1 0x40 DUP3 ADD MLOAD DUP2 PUSH1 0x2 ADD SSTORE POP POP POP POP JUMP JUMPDEST PUSH1 0x1 PUSH1 0x0 SWAP1 SLOAD SWAP1 PUSH2 0x100 EXP SWAP1 DIV PUSH20 0xFFFFFFFFFFFFFFFFFFFFFFFFFFFFFFFFFFFFFFFF AND PUSH20 0xFFFFFFFFFFFFFFFFFFFFFFFFFFFFFFFFFFFFFFFF AND CALLER PUSH20 0xFFFFFFFFFFFFFFFFFFFFFFFFFFFFFFFFFFFFFFFF AND EQ PUSH2 0x2F2 JUMPI PUSH1 0x40 MLOAD PUSH32 0x8C379A000000000000000000000000000000000000000000000000000000000 DUP2 MSTORE PUSH1 0x4 ADD PUSH2 0x2E9 SWAP1 PUSH2 0x5E6 JUMP JUMPDEST PUSH1 0x40 MLOAD DUP1 SWAP2 SUB SWAP1 REVERT JUMPDEST PUSH1 0x1 ISZERO ISZERO PUSH1 0x1 PUSH1 0x14 SWAP1 SLOAD SWAP1 PUSH2 0x100 EXP SWAP1 DIV PUSH1 0xFF AND ISZERO ISZERO EQ PUSH2 0x348 JUMPI PUSH1 0x40 MLOAD PUSH32 0x8C379A000000000000000000000000000000000000000000000000000000000 DUP2 MSTORE PUSH1 0x4 ADD PUSH2 0x33F SWAP1 PUSH2 0x626 JUMP JUMPDEST PUSH1 0x40 MLOAD DUP1 SWAP2 SUB SWAP1 REVERT JUMPDEST PUSH1 0x0 PUSH1 0x3 DUP1 SLOAD SWAP1 POP GT PUSH2 0x390 JUMPI PUSH1 0x40 MLOAD PUSH32 0x8C379A000000000000000000000000000000000000000000000000000000000 DUP2 MSTORE PUSH1 0x4 ADD PUSH2 0x387 SWAP1 PUSH2 0x666 JUMP JUMPDEST PUSH1 0x40 MLOAD DUP1 SWAP2 SUB SWAP1 REVERT JUMPDEST PUSH1 0x1 DUP1 PUSH1 0x14 PUSH2 0x100 EXP DUP2 SLOAD DUP2 PUSH1 0xFF MUL NOT AND SWAP1 DUP4 ISZERO ISZERO MUL OR SWAP1 SSTORE POP JUMP JUMPDEST DUP3 DUP1 SLOAD PUSH2 0x3B8 SWAP1 PUSH2 0x6FC JUMP JUMPDEST SWAP1 PUSH1 0x0 MSTORE PUSH1 0x20 PUSH1 0x0 KECCAK256 SWAP1 PUSH1 0x1F ADD PUSH1 0x20 SWAP1 DIV DUP2 ADD SWAP3 DUP3 PUSH2 0x3DA JUMPI PUSH1 0x0 DUP6 SSTORE PUSH2 0x421 JUMP JUMPDEST DUP3 PUSH1 0x1F LT PUSH2 0x3F3 JUMPI DUP1 MLOAD PUSH1 0xFF NOT AND DUP4 DUP1 ADD OR DUP6 SSTORE PUSH2 0x421 JUMP JUMPDEST DUP3 DUP1 ADD PUSH1 0x1 ADD DUP6 SSTORE DUP3 ISZERO PUSH2 0x421 JUMPI SWAP2 DUP3 ADD JUMPDEST DUP3 DUP2 GT ISZERO PUSH2 0x420 JUMPI DUP3 MLOAD DUP3 SSTORE SWAP2 PUSH1 0x20 ADD SWAP2 SWAP1 PUSH1 0x1 ADD SWAP1 PUSH2 0x405 JUMP JUMPDEST JUMPDEST POP SWAP1 POP PUSH2 0x42E SWAP2 SWAP1 PUSH2 0x432 JUMP JUMPDEST POP SWAP1 JUMP JUMPDEST JUMPDEST DUP1 DUP3 GT ISZERO PUSH2 0x44B JUMPI PUSH1 0x0 DUP2 PUSH1 0x0 SWAP1 SSTORE POP PUSH1 0x1 ADD PUSH2 0x433 JUMP JUMPDEST POP SWAP1 JUMP JUMPDEST PUSH1 0x0 PUSH2 0x462 PUSH2 0x45D DUP5 PUSH2 0x6AB JUMP JUMPDEST PUSH2 0x686 JUMP JUMPDEST SWAP1 POP DUP3 DUP2 MSTORE PUSH1 0x20 DUP2 ADD DUP5 DUP5 DUP5 ADD GT ISZERO PUSH2 0x47E JUMPI PUSH2 0x47D PUSH2 0x7C2 JUMP JUMPDEST JUMPDEST PUSH2 0x489 DUP5 DUP3 DUP6 PUSH2 0x6ED JUMP JUMPDEST POP SWAP4 SWAP3 POP POP POP JUMP JUMPDEST PUSH1 0x0 DUP3 PUSH1 0x1F DUP4 ADD SLT PUSH2 0x4A6 JUMPI PUSH2 0x4A5 PUSH2 0x7BD JUMP JUMPDEST JUMPDEST DUP2 CALLDATALOAD PUSH2 0x4B6 DUP5 DUP3 PUSH1 0x20 DUP7 ADD PUSH2 0x44F JUMP JUMPDEST SWAP2 POP POP SWAP3 SWAP2 POP POP JUMP JUMPDEST PUSH1 0x0 DUP1 PUSH1 0x40 DUP4 DUP6 SUB SLT ISZERO PUSH2 0x4D6 JUMPI PUSH2 0x4D5 PUSH2 0x7CC JUMP JUMPDEST JUMPDEST PUSH1 0x0 DUP4 ADD CALLDATALOAD PUSH8 0xFFFFFFFFFFFFFFFF DUP2 GT ISZERO PUSH2 0x4F4 JUMPI PUSH2 0x4F3 PUSH2 0x7C7 JUMP JUMPDEST JUMPDEST PUSH2 0x500 DUP6 DUP3 DUP7 ADD PUSH2 0x491 JUMP JUMPDEST SWAP3 POP POP PUSH1 0x20 DUP4 ADD CALLDATALOAD PUSH8 0xFFFFFFFFFFFFFFFF DUP2 GT ISZERO PUSH2 0x521 JUMPI PUSH2 0x520 PUSH2 0x7C7 JUMP JUMPDEST JUMPDEST PUSH2 0x52D DUP6 DUP3 DUP7 ADD PUSH2 0x491 JUMP JUMPDEST SWAP2 POP POP SWAP3 POP SWAP3 SWAP1 POP JUMP JUMPDEST PUSH1 0x0 PUSH2 0x544 PUSH1 0x14 DUP4 PUSH2 0x6DC JUMP JUMPDEST SWAP2 POP PUSH2 0x54F DUP3 PUSH2 0x7E2 JUMP JUMPDEST PUSH1 0x20 DUP3 ADD SWAP1 POP SWAP2 SWAP1 POP JUMP JUMPDEST PUSH1 0x0 PUSH2 0x567 PUSH1 0x15 DUP4 PUSH2 0x6DC JUMP JUMPDEST SWAP2 POP PUSH2 0x572 DUP3 PUSH2 0x80B JUMP JUMPDEST PUSH1 0x20 DUP3 ADD SWAP1 POP SWAP2 SWAP1 POP JUMP JUMPDEST PUSH1 0x0 PUSH2 0x58A PUSH1 0x10 DUP4 PUSH2 0x6DC JUMP JUMPDEST SWAP2 POP PUSH2 0x595 DUP3 PUSH2 0x834 JUMP JUMPDEST PUSH1 0x20 DUP3 ADD SWAP1 POP SWAP2 SWAP1 POP JUMP JUMPDEST PUSH1 0x0 PUSH2 0x5AD PUSH1 0x13 DUP4 PUSH2 0x6DC JUMP JUMPDEST SWAP2 POP PUSH2 0x5B8 DUP3 PUSH2 0x85D JUMP JUMPDEST PUSH1 0x20 DUP3 ADD SWAP1 POP SWAP2 SWAP1 POP JUMP JUMPDEST PUSH1 0x0 PUSH2 0x5D0 PUSH1 0x26 DUP4 PUSH2 0x6DC JUMP JUMPDEST SWAP2 POP PUSH2 0x5DB DUP3 PUSH2 0x886 JUMP JUMPDEST PUSH1 0x40 DUP3 ADD SWAP1 POP SWAP2 SWAP1 POP JUMP JUMPDEST PUSH1 0x0 PUSH1 0x20 DUP3 ADD SWAP1 POP DUP2 DUP2 SUB PUSH1 0x0 DUP4 ADD MSTORE PUSH2 0x5FF DUP2 PUSH2 0x537 JUMP JUMPDEST SWAP1 POP SWAP2 SWAP1 POP JUMP JUMPDEST PUSH1 0x0 PUSH1 0x20 DUP3 ADD SWAP1 POP DUP2 DUP2 SUB PUSH1 0x0 DUP4 ADD MSTORE PUSH2 0x61F DUP2 PUSH2 0x55A JUMP JUMPDEST SWAP1 POP SWAP2 SWAP1 POP JUMP JUMPDEST PUSH1 0x0 PUSH1 0x20 DUP3 ADD SWAP1 POP DUP2 DUP2 SUB PUSH1 0x0 DUP4 ADD MSTORE PUSH2 0x63F DUP2 PUSH2 0x57D JUMP JUMPDEST SWAP1 POP SWAP2 SWAP1 POP JUMP JUMPDEST PUSH1 0x0 PUSH1 0x20 DUP3 ADD SWAP1 POP DUP2 DUP2 SUB PUSH1 0x0 DUP4 ADD MSTORE PUSH2 0x65F DUP2 PUSH2 0x5A0 JUMP JUMPDEST SWAP1 POP SWAP2 SWAP1 POP JUMP JUMPDEST PUSH1 0x0 PUSH1 0x20 DUP3 ADD SWAP1 POP DUP2 DUP2 SUB PUSH1 0x0 DUP4 ADD MSTORE PUSH2 0x67F DUP2 PUSH2 0x5C3 JUMP JUMPDEST SWAP1 POP SWAP2 SWAP1 POP JUMP JUMPDEST PUSH1 0x0 PUSH2 0x690 PUSH2 0x6A1 JUMP JUMPDEST SWAP1 POP PUSH2 0x69C DUP3 DUP3 PUSH2 0x72E JUMP JUMPDEST SWAP2 SWAP1 POP JUMP JUMPDEST PUSH1 0x0 PUSH1 0x40 MLOAD SWAP1 POP SWAP1 JUMP JUMPDEST PUSH1 0x0 PUSH8 0xFFFFFFFFFFFFFFFF DUP3 GT ISZERO PUSH2 0x6C6 JUMPI PUSH2 0x6C5 PUSH2 0x78E JUMP JUMPDEST JUMPDEST PUSH2 0x6CF DUP3 PUSH2 0x7D1 JUMP JUMPDEST SWAP1 POP PUSH1 0x20 DUP2 ADD SWAP1 POP SWAP2 SWAP1 POP JUMP JUMPDEST PUSH1 0x0 DUP3 DUP3 MSTORE PUSH1 0x20 DUP3 ADD SWAP1 POP SWAP3 SWAP2 POP POP JUMP JUMPDEST DUP3 DUP2 DUP4 CALLDATACOPY PUSH1 0x0 DUP4 DUP4 ADD MSTORE POP POP POP JUMP JUMPDEST PUSH1 0x0 PUSH1 0x2 DUP3 DIV SWAP1 POP PUSH1 0x1 DUP3 AND DUP1 PUSH2 0x714 JUMPI PUSH1 0x7F DUP3 AND SWAP2 POP JUMPDEST PUSH1 0x20 DUP3 LT DUP2 EQ ISZERO PUSH2 0x728 JUMPI PUSH2 0x727 PUSH2 0x75F JUMP JUMPDEST JUMPDEST POP SWAP2 SWAP1 POP JUMP JUMPDEST PUSH2 0x737 DUP3 PUSH2 0x7D1 JUMP JUMPDEST DUP2 ADD DUP2 DUP2 LT PUSH8 0xFFFFFFFFFFFFFFFF DUP3 GT OR ISZERO PUSH2 0x756 JUMPI PUSH2 0x755 PUSH2 0x78E JUMP JUMPDEST JUMPDEST DUP1 PUSH1 0x40 MSTORE POP POP POP JUMP JUMPDEST PUSH32 0x4E487B7100000000000000000000000000000000000000000000000000000000 PUSH1 0x0 MSTORE PUSH1 0x22 PUSH1 0x4 MSTORE PUSH1 0x24 PUSH1 0x0 REVERT JUMPDEST PUSH32 0x4E487B7100000000000000000000000000000000000000000000000000000000 PUSH1 0x0 MSTORE PUSH1 0x41 PUSH1 0x4 MSTORE PUSH1 0x24 PUSH1 0x0 REVERT JUMPDEST PUSH1 0x0 DUP1 REVERT JUMPDEST PUSH1 0x0 DUP1 REVERT JUMPDEST PUSH1 0x0 DUP1 REVERT JUMPDEST PUSH1 0x0 DUP1 REVERT JUMPDEST PUSH1 0x0 PUSH1 0x1F NOT PUSH1 0x1F DUP4 ADD AND SWAP1 POP SWAP2 SWAP1 POP JUMP JUMPDEST PUSH32 0x556E617574686F72697A6564204163636573732E000000000000000000000000 PUSH1 0x0 DUP3 ADD MSTORE POP JUMP JUMPDEST PUSH32 0x53796D626F6C2063616E277420626520656D7074790000000000000000000000 PUSH1 0x0 DUP3 ADD MSTORE POP JUMP JUMPDEST PUSH32 0x416C726561647920537461727465642E00000000000000000000000000000000 PUSH1 0x0 DUP3 ADD MSTORE POP JUMP JUMPDEST PUSH32 0x4E616D652043616E277420626520656D70747900000000000000000000000000 PUSH1 0x0 DUP3 ADD MSTORE POP JUMP JUMPDEST PUSH32 0x41746C6561737420322063616E6469617465206D757374206265207265676973 PUSH1 0x0 DUP3 ADD MSTORE PUSH32 0x74657265642E0000000000000000000000000000000000000000000000000000 PUSH1 0x20 DUP3 ADD MSTORE POP JUMP INVALID LOG2 PUSH5 0x6970667358 0x22 SLT KECCAK256 CALLCODE PUSH13 0x6F4D13172B3D29AF9AA384B55F CODECOPY 0x49 CALLER 0xD LOG0 0xD 0xCC PUSH14 0xAE69C2EA73A814B3CD64736F6C63 NUMBER STOP ADDMOD SMOD STOP CALLER "
				},
				"gasEstimates": {
					"creation": {
						"codeDepositCost": "463000",
						"executionCost": "49082",
						"totalCost": "512082"
					},
					"external": {
						"registrationForCandidate(string,string)": "infinite",
						"startVote()": "30983"
					}
				},
				"methodIdentifiers": {
					"registrationForCandidate(string,string)": "137967a6",
					"startVote()": "4c0a6af0"
				}
			},
			"storageLayout": {
				"storage": [
					{
						"astId": 4,
						"contract": "contracts/voting.sol:VotingContract",
						"label": "voterList",
						"offset": 0,
						"slot": "0",
						"type": "t_array(t_address)dyn_storage"
					},
					{
						"astId": 6,
						"contract": "contracts/voting.sol:VotingContract",
						"label": "electionCommission",
						"offset": 0,
						"slot": "1",
						"type": "t_address"
					},
					{
						"astId": 9,
						"contract": "contracts/voting.sol:VotingContract",
						"label": "voteStarted",
						"offset": 20,
						"slot": "1",
						"type": "t_bool"
					},
					{
						"astId": 12,
						"contract": "contracts/voting.sol:VotingContract",
						"label": "symbolList",
						"offset": 0,
						"slot": "2",
						"type": "t_array(t_string_storage)dyn_storage"
					},
					{
						"astId": 23,
						"contract": "contracts/voting.sol:VotingContract",
						"label": "Candidates",
						"offset": 0,
						"slot": "3",
						"type": "t_array(t_struct(candidate)19_storage)dyn_storage"
					}
				],
				"types": {
					"t_address": {
						"encoding": "inplace",
						"label": "address",
						"numberOfBytes": "20"
					},
					"t_array(t_address)dyn_storage": {
						"base": "t_address",
						"encoding": "dynamic_array",
						"label": "address[]",
						"numberOfBytes": "32"
					},
					"t_array(t_string_storage)dyn_storage": {
						"base": "t_string_storage",
						"encoding": "dynamic_array",
						"label": "string[]",
						"numberOfBytes": "32"
					},
					"t_array(t_struct(candidate)19_storage)dyn_storage": {
						"base": "t_struct(candidate)19_storage",
						"encoding": "dynamic_array",
						"label": "struct VotingContract.candidate[]",
						"numberOfBytes": "32"
					},
					"t_bool": {
						"encoding": "inplace",
						"label": "bool",
						"numberOfBytes": "1"
					},
					"t_string_storage": {
						"encoding": "bytes",
						"label": "string",
						"numberOfBytes": "32"
					},
					"t_struct(candidate)19_storage": {
						"encoding": "inplace",
						"label": "struct VotingContract.candidate",
						"members": [
							{
								"astId": 14,
								"contract": "contracts/voting.sol:VotingContract",
								"label": "name",
								"offset": 0,
								"slot": "0",
								"type": "t_string_storage"
							},
							{
								"astId": 16,
								"contract": "contracts/voting.sol:VotingContract",
								"label": "symbol",
								"offset": 0,
								"slot": "1",
								"type": "t_string_storage"
							},
							{
								"astId": 18,
								"contract": "contracts/voting.sol:VotingContract",
								"label": "voteCount",
								"offset": 0,
								"slot": "2",
								"type": "t_uint256"
							}
						],
						"numberOfBytes": "96"
					},
					"t_uint256": {
						"encoding": "inplace",
						"label": "uint256",
						"numberOfBytes": "32"
					}
				}
			},
			"userdoc": {
				"kind": "user",
				"methods": {},
				"version": 1
			}
		}
	}
}