{
	"contracts/voting.sol": {
		"VotingContract": {
			"abi": [
				{
					"inputs": [],
					"stateMutability": "nonpayable",
					"type": "constructor"
				},
				{
					"inputs": [
						{
							"internalType": "string",
							"name": "symbol",
							"type": "string"
						}
					],
					"name": "deleteCandidate",
					"outputs": [],
					"stateMutability": "nonpayable",
					"type": "function"
				},
				{
					"inputs": [
						{
							"internalType": "string",
							"name": "symbol",
							"type": "string"
						}
					],
					"name": "giveVotes",
					"outputs": [],
					"stateMutability": "nonpayable",
					"type": "function"
				},
				{
					"inputs": [
						{
							"internalType": "string",
							"name": "name",
							"type": "string"
						},
						{
							"internalType": "string",
							"name": "symbol",
							"type": "string"
						}
					],
					"name": "registrationForCandidate",
					"outputs": [],
					"stateMutability": "nonpayable",
					"type": "function"
				},
				{
					"inputs": [],
					"name": "startVote",
					"outputs": [],
					"stateMutability": "nonpayable",
					"type": "function"
				},
				{
					"inputs": [],
					"name": "stopVoting",
					"outputs": [],
					"stateMutability": "nonpayable",
					"type": "function"
				},
				{
					"inputs": [
						{
							"internalType": "string",
							"name": "symbol",
							"type": "string"
						}
					],
					"name": "voteCountStatus",
					"outputs": [
						{
							"components": [
								{
									"internalType": "string",
									"name": "name",
									"type": "string"
								},
								{
									"internalType": "uint256",
									"name": "voteCount",
									"type": "uint256"
								}
							],
							"internalType": "struct VotingContract.candidate",
							"name": "",
							"type": "tuple"
						}
					],
					"stateMutability": "view",
					"type": "function"
				}
			],
			"devdoc": {
				"kind": "dev",
				"methods": {},
				"version": 1
			},
			"evm": {
				"assembly": "    /* \"contracts/voting.sol\":59:2971  contract VotingContract{\r... */\n  mstore(0x40, 0x80)\n    /* \"contracts/voting.sol\":110:115  false */\n  0x00\n    /* \"contracts/voting.sol\":89:115  bool votingStartEver=false */\n  dup1\n  exp(0x0100, 0x00)\n  dup2\n  sload\n  dup2\n  0xff\n  mul\n  not\n  and\n  swap1\n  dup4\n  iszero\n  iszero\n  mul\n  or\n  swap1\n  sstore\n  pop\n    /* \"contracts/voting.sol\":256:261  false */\n  0x00\n    /* \"contracts/voting.sol\":237:261  bool voteStarted = false */\n  0x02\n  exp(0x0100, 0x14)\n  dup2\n  sload\n  dup2\n  0xff\n  mul\n  not\n  and\n  swap1\n  dup4\n  iszero\n  iszero\n  mul\n  or\n  swap1\n  sstore\n  pop\n    /* \"contracts/voting.sol\":499:562  constructor(){\r... */\n  callvalue\n  dup1\n  iszero\n  tag_1\n  jumpi\n  0x00\n  dup1\n  revert\ntag_1:\n  pop\n    /* \"contracts/voting.sol\":544:554  msg.sender */\n  caller\n    /* \"contracts/voting.sol\":523:541  electionCommission */\n  0x02\n  0x00\n    /* \"contracts/voting.sol\":523:554  electionCommission = msg.sender */\n  0x0100\n  exp\n  dup2\n  sload\n  dup2\n  0xffffffffffffffffffffffffffffffffffffffff\n  mul\n  not\n  and\n  swap1\n  dup4\n  0xffffffffffffffffffffffffffffffffffffffff\n  and\n  mul\n  or\n  swap1\n  sstore\n  pop\n    /* \"contracts/voting.sol\":59:2971  contract VotingContract{\r... */\n  dataSize(sub_0)\n  dup1\n  dataOffset(sub_0)\n  0x00\n  codecopy\n  0x00\n  return\nstop\n\nsub_0: assembly {\n        /* \"contracts/voting.sol\":59:2971  contract VotingContract{\r... */\n      mstore(0x40, 0x80)\n      callvalue\n      dup1\n      iszero\n      tag_1\n      jumpi\n      0x00\n      dup1\n      revert\n    tag_1:\n      pop\n      jumpi(tag_2, lt(calldatasize, 0x04))\n      shr(0xe0, calldataload(0x00))\n      dup1\n      0x137967a6\n      eq\n      tag_3\n      jumpi\n      dup1\n      0x196b2e24\n      eq\n      tag_4\n      jumpi\n      dup1\n      0x1f6d52c5\n      eq\n      tag_5\n      jumpi\n      dup1\n      0x4c0a6af0\n      eq\n      tag_6\n      jumpi\n      dup1\n      0x88feb516\n      eq\n      tag_7\n      jumpi\n      dup1\n      0xfab2f86b\n      eq\n      tag_8\n      jumpi\n    tag_2:\n      0x00\n      dup1\n      revert\n        /* \"contracts/voting.sol\":890:1433  function registrationForCandidate  (string memory name, string memory symbol)public onlyElectionComission\r... */\n    tag_3:\n      tag_9\n      0x04\n      dup1\n      calldatasize\n      sub\n      dup2\n      add\n      swap1\n      tag_10\n      swap2\n      swap1\n      tag_11\n      jump\t// in\n    tag_10:\n      tag_12\n      jump\t// in\n    tag_9:\n      stop\n        /* \"contracts/voting.sol\":2170:2517  function voteCountStatus(string memory symbol) public view returns(candidate memory){\r... */\n    tag_4:\n      tag_13\n      0x04\n      dup1\n      calldatasize\n      sub\n      dup2\n      add\n      swap1\n      tag_14\n      swap2\n      swap1\n      tag_15\n      jump\t// in\n    tag_14:\n      tag_16\n      jump\t// in\n    tag_13:\n      mload(0x40)\n      tag_17\n      swap2\n      swap1\n      tag_18\n      jump\t// in\n    tag_17:\n      mload(0x40)\n      dup1\n      swap2\n      sub\n      swap1\n      return\n        /* \"contracts/voting.sol\":1937:2130  function giveVotes(string memory symbol)  public votingStarted {\r... */\n    tag_5:\n      tag_19\n      0x04\n      dup1\n      calldatasize\n      sub\n      dup2\n      add\n      swap1\n      tag_20\n      swap2\n      swap1\n      tag_15\n      jump\t// in\n    tag_20:\n      tag_21\n      jump\t// in\n    tag_19:\n      stop\n        /* \"contracts/voting.sol\":1463:1721  function startVote() public onlyElectionComission{\r... */\n    tag_6:\n      tag_22\n      tag_23\n      jump\t// in\n    tag_22:\n      stop\n        /* \"contracts/voting.sol\":2551:2968  function deleteCandidate(string memory symbol)public onlyElectionComission{\r... */\n    tag_7:\n      tag_24\n      0x04\n      dup1\n      calldatasize\n      sub\n      dup2\n      add\n      swap1\n      tag_25\n      swap2\n      swap1\n      tag_15\n      jump\t// in\n    tag_25:\n      tag_26\n      jump\t// in\n    tag_24:\n      stop\n        /* \"contracts/voting.sol\":1750:1900  function stopVoting() public onlyElectionComission{\r... */\n    tag_8:\n      tag_27\n      tag_28\n      jump\t// in\n    tag_27:\n      stop\n        /* \"contracts/voting.sol\":890:1433  function registrationForCandidate  (string memory name, string memory symbol)public onlyElectionComission\r... */\n    tag_12:\n        /* \"contracts/voting.sol\":658:676  electionCommission */\n      0x02\n      0x00\n      swap1\n      sload\n      swap1\n      0x0100\n      exp\n      swap1\n      div\n      0xffffffffffffffffffffffffffffffffffffffff\n      and\n        /* \"contracts/voting.sol\":646:676  msg.sender==electionCommission */\n      0xffffffffffffffffffffffffffffffffffffffff\n      and\n        /* \"contracts/voting.sol\":646:656  msg.sender */\n      caller\n        /* \"contracts/voting.sol\":646:676  msg.sender==electionCommission */\n      0xffffffffffffffffffffffffffffffffffffffff\n      and\n      eq\n        /* \"contracts/voting.sol\":638:700  require(msg.sender==electionCommission,\"Unauthorized Access.\") */\n      tag_30\n      jumpi\n      mload(0x40)\n      0x08c379a000000000000000000000000000000000000000000000000000000000\n      dup2\n      mstore\n      0x04\n      add\n      tag_31\n      swap1\n      tag_32\n      jump\t// in\n    tag_31:\n      mload(0x40)\n      dup1\n      swap2\n      sub\n      swap1\n      revert\n    tag_30:\n        /* \"contracts/voting.sol\":1041:1042  0 */\n      0x00\n        /* \"contracts/voting.sol\":1027:1031  name */\n      dup3\n        /* \"contracts/voting.sol\":1021:1039  bytes(name).length */\n      mload\n        /* \"contracts/voting.sol\":1021:1042  bytes(name).length!=0 */\n      eq\n      iszero\n        /* \"contracts/voting.sol\":1013:1065  require(bytes(name).length!=0,\"Name Can't be empty\") */\n      tag_34\n      jumpi\n      mload(0x40)\n      0x08c379a000000000000000000000000000000000000000000000000000000000\n      dup2\n      mstore\n      0x04\n      add\n      tag_35\n      swap1\n      tag_36\n      jump\t// in\n    tag_35:\n      mload(0x40)\n      dup1\n      swap2\n      sub\n      swap1\n      revert\n    tag_34:\n        /* \"contracts/voting.sol\":1106:1107  0 */\n      0x00\n        /* \"contracts/voting.sol\":1090:1096  symbol */\n      dup2\n        /* \"contracts/voting.sol\":1084:1104  bytes(symbol).length */\n      mload\n        /* \"contracts/voting.sol\":1084:1107  bytes(symbol).length!=0 */\n      eq\n      iszero\n        /* \"contracts/voting.sol\":1076:1132  require(bytes(symbol).length!=0,\"Symbol can't be empty\") */\n      tag_37\n      jumpi\n      mload(0x40)\n      0x08c379a000000000000000000000000000000000000000000000000000000000\n      dup2\n      mstore\n      0x04\n      add\n      tag_38\n      swap1\n      tag_39\n      jump\t// in\n    tag_38:\n      mload(0x40)\n      dup1\n      swap2\n      sub\n      swap1\n      revert\n    tag_37:\n        /* \"contracts/voting.sol\":1190:1191  0 */\n      0x00\n        /* \"contracts/voting.sol\":1157:1167  Candidates */\n      0x04\n        /* \"contracts/voting.sol\":1168:1174  symbol */\n      dup3\n        /* \"contracts/voting.sol\":1157:1175  Candidates[symbol] */\n      mload(0x40)\n      tag_40\n      swap2\n      swap1\n      tag_41\n      jump\t// in\n    tag_40:\n      swap1\n      dup2\n      mstore\n      0x20\n      add\n      mload(0x40)\n      dup1\n      swap2\n      sub\n      swap1\n      keccak256\n        /* \"contracts/voting.sol\":1157:1180  Candidates[symbol].name */\n      0x00\n      add\n        /* \"contracts/voting.sol\":1151:1188  bytes(Candidates[symbol].name).length */\n      dup1\n      sload\n      tag_42\n      swap1\n      tag_43\n      jump\t// in\n    tag_42:\n      swap1\n      pop\n        /* \"contracts/voting.sol\":1151:1191  bytes(Candidates[symbol].name).length==0 */\n      eq\n        /* \"contracts/voting.sol\":1143:1225  require(bytes(Candidates[symbol].name).length==0,\"This Symbol was already taken.\") */\n      tag_44\n      jumpi\n      mload(0x40)\n      0x08c379a000000000000000000000000000000000000000000000000000000000\n      dup2\n      mstore\n      0x04\n      add\n      tag_45\n      swap1\n      tag_46\n      jump\t// in\n    tag_45:\n      mload(0x40)\n      dup1\n      swap2\n      sub\n      swap1\n      revert\n    tag_44:\n        /* \"contracts/voting.sol\":1261:1266  false */\n      0x00\n        /* \"contracts/voting.sol\":1244:1266  votingStartEver==false */\n      iszero\n      iszero\n        /* \"contracts/voting.sol\":1244:1259  votingStartEver */\n      0x00\n      dup1\n      sload\n      swap1\n      0x0100\n      exp\n      swap1\n      div\n      0xff\n      and\n        /* \"contracts/voting.sol\":1244:1266  votingStartEver==false */\n      iszero\n      iszero\n      eq\n        /* \"contracts/voting.sol\":1236:1310  require(votingStartEver==false,\"Candidate registration was not possible.\") */\n      tag_47\n      jumpi\n      mload(0x40)\n      0x08c379a000000000000000000000000000000000000000000000000000000000\n      dup2\n      mstore\n      0x04\n      add\n      tag_48\n      swap1\n      tag_49\n      jump\t// in\n    tag_48:\n      mload(0x40)\n      dup1\n      swap2\n      sub\n      swap1\n      revert\n    tag_47:\n        /* \"contracts/voting.sol\":1321:1331  symbolList */\n      0x03\n        /* \"contracts/voting.sol\":1337:1343  symbol */\n      dup2\n        /* \"contracts/voting.sol\":1321:1344  symbolList.push(symbol) */\n      swap1\n      dup1\n      0x01\n      dup2\n      sload\n      add\n      dup1\n      dup3\n      sstore\n      dup1\n      swap2\n      pop\n      pop\n      0x01\n      swap1\n      sub\n      swap1\n      0x00\n      mstore\n      keccak256(0x00, 0x20)\n      add\n      0x00\n      swap1\n      swap2\n      swap1\n      swap2\n      swap1\n      swap2\n      pop\n      swap1\n      dup1\n      mload\n      swap1\n      0x20\n      add\n      swap1\n      tag_51\n      swap3\n      swap2\n      swap1\n      tag_52\n      jump\t// in\n    tag_51:\n      pop\n        /* \"contracts/voting.sol\":1379:1383  name */\n      dup2\n        /* \"contracts/voting.sol\":1355:1365  Candidates */\n      0x04\n        /* \"contracts/voting.sol\":1366:1372  symbol */\n      dup3\n        /* \"contracts/voting.sol\":1355:1373  Candidates[symbol] */\n      mload(0x40)\n      tag_53\n      swap2\n      swap1\n      tag_41\n      jump\t// in\n    tag_53:\n      swap1\n      dup2\n      mstore\n      0x20\n      add\n      mload(0x40)\n      dup1\n      swap2\n      sub\n      swap1\n      keccak256\n        /* \"contracts/voting.sol\":1355:1378  Candidates[symbol].name */\n      0x00\n      add\n        /* \"contracts/voting.sol\":1355:1383  Candidates[symbol].name=name */\n      swap1\n      dup1\n      mload\n      swap1\n      0x20\n      add\n      swap1\n      tag_54\n      swap3\n      swap2\n      swap1\n      tag_52\n      jump\t// in\n    tag_54:\n      pop\n        /* \"contracts/voting.sol\":1423:1424  0 */\n      0x00\n        /* \"contracts/voting.sol\":1394:1404  Candidates */\n      0x04\n        /* \"contracts/voting.sol\":1405:1411  symbol */\n      dup3\n        /* \"contracts/voting.sol\":1394:1412  Candidates[symbol] */\n      mload(0x40)\n      tag_55\n      swap2\n      swap1\n      tag_41\n      jump\t// in\n    tag_55:\n      swap1\n      dup2\n      mstore\n      0x20\n      add\n      mload(0x40)\n      dup1\n      swap2\n      sub\n      swap1\n      keccak256\n        /* \"contracts/voting.sol\":1394:1422  Candidates[symbol].voteCount */\n      0x01\n      add\n        /* \"contracts/voting.sol\":1394:1424  Candidates[symbol].voteCount=0 */\n      dup2\n      swap1\n      sstore\n      pop\n        /* \"contracts/voting.sol\":890:1433  function registrationForCandidate  (string memory name, string memory symbol)public onlyElectionComission\r... */\n      pop\n      pop\n      jump\t// out\n        /* \"contracts/voting.sol\":2170:2517  function voteCountStatus(string memory symbol) public view returns(candidate memory){\r... */\n    tag_16:\n        /* \"contracts/voting.sol\":2237:2253  candidate memory */\n      tag_56\n      tag_57\n      jump\t// in\n    tag_56:\n        /* \"contracts/voting.sol\":2294:2295  0 */\n      0x00\n        /* \"contracts/voting.sol\":2279:2285  symbol */\n      dup3\n        /* \"contracts/voting.sol\":2273:2293  bytes(symbol).length */\n      mload\n        /* \"contracts/voting.sol\":2273:2295  bytes(symbol).length>0 */\n      gt\n        /* \"contracts/voting.sol\":2265:2312  require(bytes(symbol).length>0,\"Invalid Input\") */\n      tag_59\n      jumpi\n      mload(0x40)\n      0x08c379a000000000000000000000000000000000000000000000000000000000\n      dup2\n      mstore\n      0x04\n      add\n      tag_60\n      swap1\n      tag_61\n      jump\t// in\n    tag_60:\n      mload(0x40)\n      dup1\n      swap2\n      sub\n      swap1\n      revert\n    tag_59:\n        /* \"contracts/voting.sol\":2369:2370  0 */\n      0x00\n        /* \"contracts/voting.sol\":2337:2347  Candidates */\n      0x04\n        /* \"contracts/voting.sol\":2348:2354  symbol */\n      dup4\n        /* \"contracts/voting.sol\":2337:2355  Candidates[symbol] */\n      mload(0x40)\n      tag_62\n      swap2\n      swap1\n      tag_41\n      jump\t// in\n    tag_62:\n      swap1\n      dup2\n      mstore\n      0x20\n      add\n      mload(0x40)\n      dup1\n      swap2\n      sub\n      swap1\n      keccak256\n        /* \"contracts/voting.sol\":2337:2360  Candidates[symbol].name */\n      0x00\n      add\n        /* \"contracts/voting.sol\":2331:2368  bytes(Candidates[symbol].name).length */\n      dup1\n      sload\n      tag_63\n      swap1\n      tag_43\n      jump\t// in\n    tag_63:\n      swap1\n      pop\n        /* \"contracts/voting.sol\":2331:2370  bytes(Candidates[symbol].name).length>0 */\n      gt\n        /* \"contracts/voting.sol\":2323:2389  require(bytes(Candidates[symbol].name).length>0,\"No Record Found\") */\n      tag_64\n      jumpi\n      mload(0x40)\n      0x08c379a000000000000000000000000000000000000000000000000000000000\n      dup2\n      mstore\n      0x04\n      add\n      tag_65\n      swap1\n      tag_66\n      jump\t// in\n    tag_65:\n      mload(0x40)\n      dup1\n      swap2\n      sub\n      swap1\n      revert\n    tag_64:\n        /* \"contracts/voting.sol\":2425:2429  true */\n      0x01\n        /* \"contracts/voting.sol\":2408:2429  votingStartEver==true */\n      iszero\n      iszero\n        /* \"contracts/voting.sol\":2408:2423  votingStartEver */\n      0x00\n      dup1\n      sload\n      swap1\n      0x0100\n      exp\n      swap1\n      div\n      0xff\n      and\n        /* \"contracts/voting.sol\":2408:2429  votingStartEver==true */\n      iszero\n      iszero\n      eq\n        /* \"contracts/voting.sol\":2400:2472  require(votingStartEver==true,\"For record voting must be started once.\") */\n      tag_67\n      jumpi\n      mload(0x40)\n      0x08c379a000000000000000000000000000000000000000000000000000000000\n      dup2\n      mstore\n      0x04\n      add\n      tag_68\n      swap1\n      tag_69\n      jump\t// in\n    tag_68:\n      mload(0x40)\n      dup1\n      swap2\n      sub\n      swap1\n      revert\n    tag_67:\n        /* \"contracts/voting.sol\":2490:2500  Candidates */\n      0x04\n        /* \"contracts/voting.sol\":2501:2507  symbol */\n      dup3\n        /* \"contracts/voting.sol\":2490:2508  Candidates[symbol] */\n      mload(0x40)\n      tag_70\n      swap2\n      swap1\n      tag_41\n      jump\t// in\n    tag_70:\n      swap1\n      dup2\n      mstore\n      0x20\n      add\n      mload(0x40)\n      dup1\n      swap2\n      sub\n      swap1\n      keccak256\n        /* \"contracts/voting.sol\":2483:2508  return Candidates[symbol] */\n      mload(0x40)\n      dup1\n      0x40\n      add\n      0x40\n      mstore\n      swap1\n      dup2\n      0x00\n      dup3\n      add\n      dup1\n      sload\n      tag_71\n      swap1\n      tag_43\n      jump\t// in\n    tag_71:\n      dup1\n      0x1f\n      add\n      0x20\n      dup1\n      swap2\n      div\n      mul\n      0x20\n      add\n      mload(0x40)\n      swap1\n      dup2\n      add\n      0x40\n      mstore\n      dup1\n      swap3\n      swap2\n      swap1\n      dup2\n      dup2\n      mstore\n      0x20\n      add\n      dup3\n      dup1\n      sload\n      tag_72\n      swap1\n      tag_43\n      jump\t// in\n    tag_72:\n      dup1\n      iszero\n      tag_73\n      jumpi\n      dup1\n      0x1f\n      lt\n      tag_74\n      jumpi\n      0x0100\n      dup1\n      dup4\n      sload\n      div\n      mul\n      dup4\n      mstore\n      swap2\n      0x20\n      add\n      swap2\n      jump(tag_73)\n    tag_74:\n      dup3\n      add\n      swap2\n      swap1\n      0x00\n      mstore\n      keccak256(0x00, 0x20)\n      swap1\n    tag_75:\n      dup2\n      sload\n      dup2\n      mstore\n      swap1\n      0x01\n      add\n      swap1\n      0x20\n      add\n      dup1\n      dup4\n      gt\n      tag_75\n      jumpi\n      dup3\n      swap1\n      sub\n      0x1f\n      and\n      dup3\n      add\n      swap2\n    tag_73:\n      pop\n      pop\n      pop\n      pop\n      pop\n      dup2\n      mstore\n      0x20\n      add\n      0x01\n      dup3\n      add\n      sload\n      dup2\n      mstore\n      pop\n      pop\n      swap1\n      pop\n        /* \"contracts/voting.sol\":2170:2517  function voteCountStatus(string memory symbol) public view returns(candidate memory){\r... */\n      swap2\n      swap1\n      pop\n      jump\t// out\n        /* \"contracts/voting.sol\":1937:2130  function giveVotes(string memory symbol)  public votingStarted {\r... */\n    tag_21:\n        /* \"contracts/voting.sol\":804:808  true */\n      0x01\n        /* \"contracts/voting.sol\":791:808  voteStarted==true */\n      iszero\n      iszero\n        /* \"contracts/voting.sol\":791:802  voteStarted */\n      0x02\n      0x14\n      swap1\n      sload\n      swap1\n      0x0100\n      exp\n      swap1\n      div\n      0xff\n      and\n        /* \"contracts/voting.sol\":791:808  voteStarted==true */\n      iszero\n      iszero\n      eq\n        /* \"contracts/voting.sol\":783:835  require(voteStarted==true,\"Voting not started yet.\") */\n      tag_77\n      jumpi\n      mload(0x40)\n      0x08c379a000000000000000000000000000000000000000000000000000000000\n      dup2\n      mstore\n      0x04\n      add\n      tag_78\n      swap1\n      tag_79\n      jump\t// in\n    tag_78:\n      mload(0x40)\n      dup1\n      swap2\n      sub\n      swap1\n      revert\n    tag_77:\n        /* \"contracts/voting.sol\":2057:2058  0 */\n      0x00\n        /* \"contracts/voting.sol\":2024:2034  Candidates */\n      0x04\n        /* \"contracts/voting.sol\":2035:2041  symbol */\n      dup3\n        /* \"contracts/voting.sol\":2024:2042  Candidates[symbol] */\n      mload(0x40)\n      tag_81\n      swap2\n      swap1\n      tag_41\n      jump\t// in\n    tag_81:\n      swap1\n      dup2\n      mstore\n      0x20\n      add\n      mload(0x40)\n      dup1\n      swap2\n      sub\n      swap1\n      keccak256\n        /* \"contracts/voting.sol\":2024:2047  Candidates[symbol].name */\n      0x00\n      add\n        /* \"contracts/voting.sol\":2018:2055  bytes(Candidates[symbol].name).length */\n      dup1\n      sload\n      tag_82\n      swap1\n      tag_43\n      jump\t// in\n    tag_82:\n      swap1\n      pop\n        /* \"contracts/voting.sol\":2018:2058  bytes(Candidates[symbol].name).length!=0 */\n      eq\n      iszero\n        /* \"contracts/voting.sol\":2010:2079  require(bytes(Candidates[symbol].name).length!=0,\"Symbol not found.\") */\n      tag_83\n      jumpi\n      mload(0x40)\n      0x08c379a000000000000000000000000000000000000000000000000000000000\n      dup2\n      mstore\n      0x04\n      add\n      tag_84\n      swap1\n      tag_85\n      jump\t// in\n    tag_84:\n      mload(0x40)\n      dup1\n      swap2\n      sub\n      swap1\n      revert\n    tag_83:\n        /* \"contracts/voting.sol\":2120:2121  1 */\n      0x01\n        /* \"contracts/voting.sol\":2090:2100  Candidates */\n      0x04\n        /* \"contracts/voting.sol\":2101:2107  symbol */\n      dup3\n        /* \"contracts/voting.sol\":2090:2108  Candidates[symbol] */\n      mload(0x40)\n      tag_86\n      swap2\n      swap1\n      tag_41\n      jump\t// in\n    tag_86:\n      swap1\n      dup2\n      mstore\n      0x20\n      add\n      mload(0x40)\n      dup1\n      swap2\n      sub\n      swap1\n      keccak256\n        /* \"contracts/voting.sol\":2090:2118  Candidates[symbol].voteCount */\n      0x01\n      add\n      0x00\n        /* \"contracts/voting.sol\":2090:2121  Candidates[symbol].voteCount+=1 */\n      dup3\n      dup3\n      sload\n      tag_87\n      swap2\n      swap1\n      tag_88\n      jump\t// in\n    tag_87:\n      swap3\n      pop\n      pop\n      dup2\n      swap1\n      sstore\n      pop\n        /* \"contracts/voting.sol\":1937:2130  function giveVotes(string memory symbol)  public votingStarted {\r... */\n      pop\n      jump\t// out\n        /* \"contracts/voting.sol\":1463:1721  function startVote() public onlyElectionComission{\r... */\n    tag_23:\n        /* \"contracts/voting.sol\":658:676  electionCommission */\n      0x02\n      0x00\n      swap1\n      sload\n      swap1\n      0x0100\n      exp\n      swap1\n      div\n      0xffffffffffffffffffffffffffffffffffffffff\n      and\n        /* \"contracts/voting.sol\":646:676  msg.sender==electionCommission */\n      0xffffffffffffffffffffffffffffffffffffffff\n      and\n        /* \"contracts/voting.sol\":646:656  msg.sender */\n      caller\n        /* \"contracts/voting.sol\":646:676  msg.sender==electionCommission */\n      0xffffffffffffffffffffffffffffffffffffffff\n      and\n      eq\n        /* \"contracts/voting.sol\":638:700  require(msg.sender==electionCommission,\"Unauthorized Access.\") */\n      tag_90\n      jumpi\n      mload(0x40)\n      0x08c379a000000000000000000000000000000000000000000000000000000000\n      dup2\n      mstore\n      0x04\n      add\n      tag_91\n      swap1\n      tag_32\n      jump\t// in\n    tag_91:\n      mload(0x40)\n      dup1\n      swap2\n      sub\n      swap1\n      revert\n    tag_90:\n        /* \"contracts/voting.sol\":1549:1550  0 */\n      0x00\n        /* \"contracts/voting.sol\":1531:1541  symbolList */\n      0x03\n        /* \"contracts/voting.sol\":1531:1548  symbolList.length */\n      dup1\n      sload\n      swap1\n      pop\n        /* \"contracts/voting.sol\":1531:1550  symbolList.length>0 */\n      gt\n        /* \"contracts/voting.sol\":1523:1593  require(symbolList.length>0,\"Atleast 2 candidate must be registered.\") */\n      tag_93\n      jumpi\n      mload(0x40)\n      0x08c379a000000000000000000000000000000000000000000000000000000000\n      dup2\n      mstore\n      0x04\n      add\n      tag_94\n      swap1\n      tag_95\n      jump\t// in\n    tag_94:\n      mload(0x40)\n      dup1\n      swap2\n      sub\n      swap1\n      revert\n    tag_93:\n        /* \"contracts/voting.sol\":1625:1630  false */\n      0x00\n        /* \"contracts/voting.sol\":1612:1630  voteStarted==false */\n      iszero\n      iszero\n        /* \"contracts/voting.sol\":1612:1623  voteStarted */\n      0x02\n      0x14\n      swap1\n      sload\n      swap1\n      0x0100\n      exp\n      swap1\n      div\n      0xff\n      and\n        /* \"contracts/voting.sol\":1612:1630  voteStarted==false */\n      iszero\n      iszero\n      eq\n        /* \"contracts/voting.sol\":1604:1650  require(voteStarted==false,\"Already Started.\") */\n      tag_96\n      jumpi\n      mload(0x40)\n      0x08c379a000000000000000000000000000000000000000000000000000000000\n      dup2\n      mstore\n      0x04\n      add\n      tag_97\n      swap1\n      tag_98\n      jump\t// in\n    tag_97:\n      mload(0x40)\n      dup1\n      swap2\n      sub\n      swap1\n      revert\n    tag_96:\n        /* \"contracts/voting.sol\":1675:1679  true */\n      0x01\n        /* \"contracts/voting.sol\":1661:1672  voteStarted */\n      0x02\n      0x14\n        /* \"contracts/voting.sol\":1661:1679  voteStarted = true */\n      0x0100\n      exp\n      dup2\n      sload\n      dup2\n      0xff\n      mul\n      not\n      and\n      swap1\n      dup4\n      iszero\n      iszero\n      mul\n      or\n      swap1\n      sstore\n      pop\n        /* \"contracts/voting.sol\":1708:1712  true */\n      0x01\n        /* \"contracts/voting.sol\":1690:1705  votingStartEver */\n      0x00\n      dup1\n        /* \"contracts/voting.sol\":1690:1712  votingStartEver = true */\n      0x0100\n      exp\n      dup2\n      sload\n      dup2\n      0xff\n      mul\n      not\n      and\n      swap1\n      dup4\n      iszero\n      iszero\n      mul\n      or\n      swap1\n      sstore\n      pop\n        /* \"contracts/voting.sol\":1463:1721  function startVote() public onlyElectionComission{\r... */\n      jump\t// out\n        /* \"contracts/voting.sol\":2551:2968  function deleteCandidate(string memory symbol)public onlyElectionComission{\r... */\n    tag_26:\n        /* \"contracts/voting.sol\":658:676  electionCommission */\n      0x02\n      0x00\n      swap1\n      sload\n      swap1\n      0x0100\n      exp\n      swap1\n      div\n      0xffffffffffffffffffffffffffffffffffffffff\n      and\n        /* \"contracts/voting.sol\":646:676  msg.sender==electionCommission */\n      0xffffffffffffffffffffffffffffffffffffffff\n      and\n        /* \"contracts/voting.sol\":646:656  msg.sender */\n      caller\n        /* \"contracts/voting.sol\":646:676  msg.sender==electionCommission */\n      0xffffffffffffffffffffffffffffffffffffffff\n      and\n      eq\n        /* \"contracts/voting.sol\":638:700  require(msg.sender==electionCommission,\"Unauthorized Access.\") */\n      tag_100\n      jumpi\n      mload(0x40)\n      0x08c379a000000000000000000000000000000000000000000000000000000000\n      dup2\n      mstore\n      0x04\n      add\n      tag_101\n      swap1\n      tag_32\n      jump\t// in\n    tag_101:\n      mload(0x40)\n      dup1\n      swap2\n      sub\n      swap1\n      revert\n    tag_100:\n        /* \"contracts/voting.sol\":2662:2663  0 */\n      0x00\n        /* \"contracts/voting.sol\":2644:2654  symbolList */\n      0x03\n        /* \"contracts/voting.sol\":2644:2661  symbolList.length */\n      dup1\n      sload\n      swap1\n      pop\n        /* \"contracts/voting.sol\":2644:2663  symbolList.length>0 */\n      gt\n        /* \"contracts/voting.sol\":2636:2706  require(symbolList.length>0,\"Atleast 1 candidate must be registered.\") */\n      tag_103\n      jumpi\n      mload(0x40)\n      0x08c379a000000000000000000000000000000000000000000000000000000000\n      dup2\n      mstore\n      0x04\n      add\n      tag_104\n      swap1\n      tag_105\n      jump\t// in\n    tag_104:\n      mload(0x40)\n      dup1\n      swap2\n      sub\n      swap1\n      revert\n    tag_103:\n        /* \"contracts/voting.sol\":2747:2748  0 */\n      0x00\n        /* \"contracts/voting.sol\":2731:2737  symbol */\n      dup2\n        /* \"contracts/voting.sol\":2725:2745  bytes(symbol).length */\n      mload\n        /* \"contracts/voting.sol\":2725:2748  bytes(symbol).length!=0 */\n      eq\n      iszero\n        /* \"contracts/voting.sol\":2717:2766  require(bytes(symbol).length!=0,\"Can't be empty\") */\n      tag_106\n      jumpi\n      mload(0x40)\n      0x08c379a000000000000000000000000000000000000000000000000000000000\n      dup2\n      mstore\n      0x04\n      add\n      tag_107\n      swap1\n      tag_108\n      jump\t// in\n    tag_107:\n      mload(0x40)\n      dup1\n      swap2\n      sub\n      swap1\n      revert\n    tag_106:\n        /* \"contracts/voting.sol\":2824:2825  0 */\n      0x00\n        /* \"contracts/voting.sol\":2791:2801  Candidates */\n      0x04\n        /* \"contracts/voting.sol\":2802:2808  symbol */\n      dup3\n        /* \"contracts/voting.sol\":2791:2809  Candidates[symbol] */\n      mload(0x40)\n      tag_109\n      swap2\n      swap1\n      tag_41\n      jump\t// in\n    tag_109:\n      swap1\n      dup2\n      mstore\n      0x20\n      add\n      mload(0x40)\n      dup1\n      swap2\n      sub\n      swap1\n      keccak256\n        /* \"contracts/voting.sol\":2791:2814  Candidates[symbol].name */\n      0x00\n      add\n        /* \"contracts/voting.sol\":2785:2822  bytes(Candidates[symbol].name).length */\n      dup1\n      sload\n      tag_110\n      swap1\n      tag_43\n      jump\t// in\n    tag_110:\n      swap1\n      pop\n        /* \"contracts/voting.sol\":2785:2825  bytes(Candidates[symbol].name).length!=0 */\n      eq\n      iszero\n        /* \"contracts/voting.sol\":2777:2851  require(bytes(Candidates[symbol].name).length!=0,\"Symbol not registered.\") */\n      tag_111\n      jumpi\n      mload(0x40)\n      0x08c379a000000000000000000000000000000000000000000000000000000000\n      dup2\n      mstore\n      0x04\n      add\n      tag_112\n      swap1\n      tag_113\n      jump\t// in\n    tag_112:\n      mload(0x40)\n      dup1\n      swap2\n      sub\n      swap1\n      revert\n    tag_111:\n        /* \"contracts/voting.sol\":2887:2892  false */\n      0x00\n        /* \"contracts/voting.sol\":2870:2892  votingStartEver==false */\n      iszero\n      iszero\n        /* \"contracts/voting.sol\":2870:2885  votingStartEver */\n      0x00\n      dup1\n      sload\n      swap1\n      0x0100\n      exp\n      swap1\n      div\n      0xff\n      and\n        /* \"contracts/voting.sol\":2870:2892  votingStartEver==false */\n      iszero\n      iszero\n      eq\n        /* \"contracts/voting.sol\":2862:2923  require(votingStartEver==false,\"You can't remove candidate.\") */\n      tag_114\n      jumpi\n      mload(0x40)\n      0x08c379a000000000000000000000000000000000000000000000000000000000\n      dup2\n      mstore\n      0x04\n      add\n      tag_115\n      swap1\n      tag_116\n      jump\t// in\n    tag_115:\n      mload(0x40)\n      dup1\n      swap2\n      sub\n      swap1\n      revert\n    tag_114:\n        /* \"contracts/voting.sol\":2941:2951  Candidates */\n      0x04\n        /* \"contracts/voting.sol\":2952:2958  symbol */\n      dup2\n        /* \"contracts/voting.sol\":2941:2959  Candidates[symbol] */\n      mload(0x40)\n      tag_117\n      swap2\n      swap1\n      tag_41\n      jump\t// in\n    tag_117:\n      swap1\n      dup2\n      mstore\n      0x20\n      add\n      mload(0x40)\n      dup1\n      swap2\n      sub\n      swap1\n      keccak256\n      0x00\n        /* \"contracts/voting.sol\":2934:2959  delete Candidates[symbol] */\n      dup1\n      dup3\n      add\n      0x00\n      tag_118\n      swap2\n      swap1\n      tag_119\n      jump\t// in\n    tag_118:\n      0x01\n      dup3\n      add\n      0x00\n      swap1\n      sstore\n      pop\n      pop\n        /* \"contracts/voting.sol\":2551:2968  function deleteCandidate(string memory symbol)public onlyElectionComission{\r... */\n      pop\n      jump\t// out\n        /* \"contracts/voting.sol\":1750:1900  function stopVoting() public onlyElectionComission{\r... */\n    tag_28:\n        /* \"contracts/voting.sol\":658:676  electionCommission */\n      0x02\n      0x00\n      swap1\n      sload\n      swap1\n      0x0100\n      exp\n      swap1\n      div\n      0xffffffffffffffffffffffffffffffffffffffff\n      and\n        /* \"contracts/voting.sol\":646:676  msg.sender==electionCommission */\n      0xffffffffffffffffffffffffffffffffffffffff\n      and\n        /* \"contracts/voting.sol\":646:656  msg.sender */\n      caller\n        /* \"contracts/voting.sol\":646:676  msg.sender==electionCommission */\n      0xffffffffffffffffffffffffffffffffffffffff\n      and\n      eq\n        /* \"contracts/voting.sol\":638:700  require(msg.sender==electionCommission,\"Unauthorized Access.\") */\n      tag_121\n      jumpi\n      mload(0x40)\n      0x08c379a000000000000000000000000000000000000000000000000000000000\n      dup2\n      mstore\n      0x04\n      add\n      tag_122\n      swap1\n      tag_32\n      jump\t// in\n    tag_122:\n      mload(0x40)\n      dup1\n      swap2\n      sub\n      swap1\n      revert\n    tag_121:\n        /* \"contracts/voting.sol\":1832:1836  true */\n      0x01\n        /* \"contracts/voting.sol\":1819:1836  voteStarted==true */\n      iszero\n      iszero\n        /* \"contracts/voting.sol\":1819:1830  voteStarted */\n      0x02\n      0x14\n      swap1\n      sload\n      swap1\n      0x0100\n      exp\n      swap1\n      div\n      0xff\n      and\n        /* \"contracts/voting.sol\":1819:1836  voteStarted==true */\n      iszero\n      iszero\n      eq\n        /* \"contracts/voting.sol\":1811:1863  require(voteStarted==true,\"Voting not started yet.\") */\n      tag_124\n      jumpi\n      mload(0x40)\n      0x08c379a000000000000000000000000000000000000000000000000000000000\n      dup2\n      mstore\n      0x04\n      add\n      tag_125\n      swap1\n      tag_79\n      jump\t// in\n    tag_125:\n      mload(0x40)\n      dup1\n      swap2\n      sub\n      swap1\n      revert\n    tag_124:\n        /* \"contracts/voting.sol\":1886:1891  false */\n      0x00\n        /* \"contracts/voting.sol\":1874:1885  voteStarted */\n      0x02\n      0x14\n        /* \"contracts/voting.sol\":1874:1891  voteStarted=false */\n      0x0100\n      exp\n      dup2\n      sload\n      dup2\n      0xff\n      mul\n      not\n      and\n      swap1\n      dup4\n      iszero\n      iszero\n      mul\n      or\n      swap1\n      sstore\n      pop\n        /* \"contracts/voting.sol\":1750:1900  function stopVoting() public onlyElectionComission{\r... */\n      jump\t// out\n    tag_52:\n      dup3\n      dup1\n      sload\n      tag_126\n      swap1\n      tag_43\n      jump\t// in\n    tag_126:\n      swap1\n      0x00\n      mstore\n      keccak256(0x00, 0x20)\n      swap1\n      0x1f\n      add\n      0x20\n      swap1\n      div\n      dup2\n      add\n      swap3\n      dup3\n      tag_128\n      jumpi\n      0x00\n      dup6\n      sstore\n      jump(tag_127)\n    tag_128:\n      dup3\n      0x1f\n      lt\n      tag_129\n      jumpi\n      dup1\n      mload\n      not(0xff)\n      and\n      dup4\n      dup1\n      add\n      or\n      dup6\n      sstore\n      jump(tag_127)\n    tag_129:\n      dup3\n      dup1\n      add\n      0x01\n      add\n      dup6\n      sstore\n      dup3\n      iszero\n      tag_127\n      jumpi\n      swap2\n      dup3\n      add\n    tag_130:\n      dup3\n      dup2\n      gt\n      iszero\n      tag_131\n      jumpi\n      dup3\n      mload\n      dup3\n      sstore\n      swap2\n      0x20\n      add\n      swap2\n      swap1\n      0x01\n      add\n      swap1\n      jump(tag_130)\n    tag_131:\n    tag_127:\n      pop\n      swap1\n      pop\n      tag_132\n      swap2\n      swap1\n      tag_133\n      jump\t// in\n    tag_132:\n      pop\n      swap1\n      jump\t// out\n    tag_57:\n      mload(0x40)\n      dup1\n      0x40\n      add\n      0x40\n      mstore\n      dup1\n      0x60\n      dup2\n      mstore\n      0x20\n      add\n      0x00\n      dup2\n      mstore\n      pop\n      swap1\n      jump\t// out\n    tag_119:\n      pop\n      dup1\n      sload\n      tag_134\n      swap1\n      tag_43\n      jump\t// in\n    tag_134:\n      0x00\n      dup3\n      sstore\n      dup1\n      0x1f\n      lt\n      tag_136\n      jumpi\n      pop\n      jump(tag_135)\n    tag_136:\n      0x1f\n      add\n      0x20\n      swap1\n      div\n      swap1\n      0x00\n      mstore\n      keccak256(0x00, 0x20)\n      swap1\n      dup2\n      add\n      swap1\n      tag_137\n      swap2\n      swap1\n      tag_133\n      jump\t// in\n    tag_137:\n    tag_135:\n      pop\n      jump\t// out\n    tag_133:\n    tag_138:\n      dup1\n      dup3\n      gt\n      iszero\n      tag_139\n      jumpi\n      0x00\n      dup2\n      0x00\n      swap1\n      sstore\n      pop\n      0x01\n      add\n      jump(tag_138)\n    tag_139:\n      pop\n      swap1\n      jump\t// out\n        /* \"#utility.yul\":7:419   */\n    tag_141:\n        /* \"#utility.yul\":85:90   */\n      0x00\n        /* \"#utility.yul\":110:176   */\n      tag_143\n        /* \"#utility.yul\":126:175   */\n      tag_144\n        /* \"#utility.yul\":168:174   */\n      dup5\n        /* \"#utility.yul\":126:175   */\n      tag_145\n      jump\t// in\n    tag_144:\n        /* \"#utility.yul\":110:176   */\n      tag_146\n      jump\t// in\n    tag_143:\n        /* \"#utility.yul\":101:176   */\n      swap1\n      pop\n        /* \"#utility.yul\":199:205   */\n      dup3\n        /* \"#utility.yul\":192:197   */\n      dup2\n        /* \"#utility.yul\":185:206   */\n      mstore\n        /* \"#utility.yul\":237:241   */\n      0x20\n        /* \"#utility.yul\":230:235   */\n      dup2\n        /* \"#utility.yul\":226:242   */\n      add\n        /* \"#utility.yul\":275:278   */\n      dup5\n        /* \"#utility.yul\":266:272   */\n      dup5\n        /* \"#utility.yul\":261:264   */\n      dup5\n        /* \"#utility.yul\":257:273   */\n      add\n        /* \"#utility.yul\":254:279   */\n      gt\n        /* \"#utility.yul\":251:363   */\n      iszero\n      tag_147\n      jumpi\n        /* \"#utility.yul\":282:361   */\n      tag_148\n      tag_149\n      jump\t// in\n    tag_148:\n        /* \"#utility.yul\":251:363   */\n    tag_147:\n        /* \"#utility.yul\":372:413   */\n      tag_150\n        /* \"#utility.yul\":406:412   */\n      dup5\n        /* \"#utility.yul\":401:404   */\n      dup3\n        /* \"#utility.yul\":396:399   */\n      dup6\n        /* \"#utility.yul\":372:413   */\n      tag_151\n      jump\t// in\n    tag_150:\n        /* \"#utility.yul\":91:419   */\n      pop\n        /* \"#utility.yul\":7:419   */\n      swap4\n      swap3\n      pop\n      pop\n      pop\n      jump\t// out\n        /* \"#utility.yul\":439:779   */\n    tag_152:\n        /* \"#utility.yul\":495:500   */\n      0x00\n        /* \"#utility.yul\":544:547   */\n      dup3\n        /* \"#utility.yul\":537:541   */\n      0x1f\n        /* \"#utility.yul\":529:535   */\n      dup4\n        /* \"#utility.yul\":525:542   */\n      add\n        /* \"#utility.yul\":521:548   */\n      slt\n        /* \"#utility.yul\":511:633   */\n      tag_154\n      jumpi\n        /* \"#utility.yul\":552:631   */\n      tag_155\n      tag_156\n      jump\t// in\n    tag_155:\n        /* \"#utility.yul\":511:633   */\n    tag_154:\n        /* \"#utility.yul\":669:675   */\n      dup2\n        /* \"#utility.yul\":656:676   */\n      calldataload\n        /* \"#utility.yul\":694:773   */\n      tag_157\n        /* \"#utility.yul\":769:772   */\n      dup5\n        /* \"#utility.yul\":761:767   */\n      dup3\n        /* \"#utility.yul\":754:758   */\n      0x20\n        /* \"#utility.yul\":746:752   */\n      dup7\n        /* \"#utility.yul\":742:759   */\n      add\n        /* \"#utility.yul\":694:773   */\n      tag_141\n      jump\t// in\n    tag_157:\n        /* \"#utility.yul\":685:773   */\n      swap2\n      pop\n        /* \"#utility.yul\":501:779   */\n      pop\n        /* \"#utility.yul\":439:779   */\n      swap3\n      swap2\n      pop\n      pop\n      jump\t// out\n        /* \"#utility.yul\":785:1294   */\n    tag_15:\n        /* \"#utility.yul\":854:860   */\n      0x00\n        /* \"#utility.yul\":903:905   */\n      0x20\n        /* \"#utility.yul\":891:900   */\n      dup3\n        /* \"#utility.yul\":882:889   */\n      dup5\n        /* \"#utility.yul\":878:901   */\n      sub\n        /* \"#utility.yul\":874:906   */\n      slt\n        /* \"#utility.yul\":871:990   */\n      iszero\n      tag_159\n      jumpi\n        /* \"#utility.yul\":909:988   */\n      tag_160\n      tag_161\n      jump\t// in\n    tag_160:\n        /* \"#utility.yul\":871:990   */\n    tag_159:\n        /* \"#utility.yul\":1057:1058   */\n      0x00\n        /* \"#utility.yul\":1046:1055   */\n      dup3\n        /* \"#utility.yul\":1042:1059   */\n      add\n        /* \"#utility.yul\":1029:1060   */\n      calldataload\n        /* \"#utility.yul\":1087:1105   */\n      0xffffffffffffffff\n        /* \"#utility.yul\":1079:1085   */\n      dup2\n        /* \"#utility.yul\":1076:1106   */\n      gt\n        /* \"#utility.yul\":1073:1190   */\n      iszero\n      tag_162\n      jumpi\n        /* \"#utility.yul\":1109:1188   */\n      tag_163\n      tag_164\n      jump\t// in\n    tag_163:\n        /* \"#utility.yul\":1073:1190   */\n    tag_162:\n        /* \"#utility.yul\":1214:1277   */\n      tag_165\n        /* \"#utility.yul\":1269:1276   */\n      dup5\n        /* \"#utility.yul\":1260:1266   */\n      dup3\n        /* \"#utility.yul\":1249:1258   */\n      dup6\n        /* \"#utility.yul\":1245:1267   */\n      add\n        /* \"#utility.yul\":1214:1277   */\n      tag_152\n      jump\t// in\n    tag_165:\n        /* \"#utility.yul\":1204:1277   */\n      swap2\n      pop\n        /* \"#utility.yul\":1000:1287   */\n      pop\n        /* \"#utility.yul\":785:1294   */\n      swap3\n      swap2\n      pop\n      pop\n      jump\t// out\n        /* \"#utility.yul\":1300:2134   */\n    tag_11:\n        /* \"#utility.yul\":1388:1394   */\n      0x00\n        /* \"#utility.yul\":1396:1402   */\n      dup1\n        /* \"#utility.yul\":1445:1447   */\n      0x40\n        /* \"#utility.yul\":1433:1442   */\n      dup4\n        /* \"#utility.yul\":1424:1431   */\n      dup6\n        /* \"#utility.yul\":1420:1443   */\n      sub\n        /* \"#utility.yul\":1416:1448   */\n      slt\n        /* \"#utility.yul\":1413:1532   */\n      iszero\n      tag_167\n      jumpi\n        /* \"#utility.yul\":1451:1530   */\n      tag_168\n      tag_161\n      jump\t// in\n    tag_168:\n        /* \"#utility.yul\":1413:1532   */\n    tag_167:\n        /* \"#utility.yul\":1599:1600   */\n      0x00\n        /* \"#utility.yul\":1588:1597   */\n      dup4\n        /* \"#utility.yul\":1584:1601   */\n      add\n        /* \"#utility.yul\":1571:1602   */\n      calldataload\n        /* \"#utility.yul\":1629:1647   */\n      0xffffffffffffffff\n        /* \"#utility.yul\":1621:1627   */\n      dup2\n        /* \"#utility.yul\":1618:1648   */\n      gt\n        /* \"#utility.yul\":1615:1732   */\n      iszero\n      tag_169\n      jumpi\n        /* \"#utility.yul\":1651:1730   */\n      tag_170\n      tag_164\n      jump\t// in\n    tag_170:\n        /* \"#utility.yul\":1615:1732   */\n    tag_169:\n        /* \"#utility.yul\":1756:1819   */\n      tag_171\n        /* \"#utility.yul\":1811:1818   */\n      dup6\n        /* \"#utility.yul\":1802:1808   */\n      dup3\n        /* \"#utility.yul\":1791:1800   */\n      dup7\n        /* \"#utility.yul\":1787:1809   */\n      add\n        /* \"#utility.yul\":1756:1819   */\n      tag_152\n      jump\t// in\n    tag_171:\n        /* \"#utility.yul\":1746:1819   */\n      swap3\n      pop\n        /* \"#utility.yul\":1542:1829   */\n      pop\n        /* \"#utility.yul\":1896:1898   */\n      0x20\n        /* \"#utility.yul\":1885:1894   */\n      dup4\n        /* \"#utility.yul\":1881:1899   */\n      add\n        /* \"#utility.yul\":1868:1900   */\n      calldataload\n        /* \"#utility.yul\":1927:1945   */\n      0xffffffffffffffff\n        /* \"#utility.yul\":1919:1925   */\n      dup2\n        /* \"#utility.yul\":1916:1946   */\n      gt\n        /* \"#utility.yul\":1913:2030   */\n      iszero\n      tag_172\n      jumpi\n        /* \"#utility.yul\":1949:2028   */\n      tag_173\n      tag_164\n      jump\t// in\n    tag_173:\n        /* \"#utility.yul\":1913:2030   */\n    tag_172:\n        /* \"#utility.yul\":2054:2117   */\n      tag_174\n        /* \"#utility.yul\":2109:2116   */\n      dup6\n        /* \"#utility.yul\":2100:2106   */\n      dup3\n        /* \"#utility.yul\":2089:2098   */\n      dup7\n        /* \"#utility.yul\":2085:2107   */\n      add\n        /* \"#utility.yul\":2054:2117   */\n      tag_152\n      jump\t// in\n    tag_174:\n        /* \"#utility.yul\":2044:2117   */\n      swap2\n      pop\n        /* \"#utility.yul\":1839:2127   */\n      pop\n        /* \"#utility.yul\":1300:2134   */\n      swap3\n      pop\n      swap3\n      swap1\n      pop\n      jump\t// out\n        /* \"#utility.yul\":2140:2484   */\n    tag_175:\n        /* \"#utility.yul\":2218:2221   */\n      0x00\n        /* \"#utility.yul\":2246:2285   */\n      tag_177\n        /* \"#utility.yul\":2279:2284   */\n      dup3\n        /* \"#utility.yul\":2246:2285   */\n      tag_178\n      jump\t// in\n    tag_177:\n        /* \"#utility.yul\":2301:2362   */\n      tag_179\n        /* \"#utility.yul\":2355:2361   */\n      dup2\n        /* \"#utility.yul\":2350:2353   */\n      dup6\n        /* \"#utility.yul\":2301:2362   */\n      tag_180\n      jump\t// in\n    tag_179:\n        /* \"#utility.yul\":2294:2362   */\n      swap4\n      pop\n        /* \"#utility.yul\":2371:2423   */\n      tag_181\n        /* \"#utility.yul\":2416:2422   */\n      dup2\n        /* \"#utility.yul\":2411:2414   */\n      dup6\n        /* \"#utility.yul\":2404:2408   */\n      0x20\n        /* \"#utility.yul\":2397:2402   */\n      dup7\n        /* \"#utility.yul\":2393:2409   */\n      add\n        /* \"#utility.yul\":2371:2423   */\n      tag_182\n      jump\t// in\n    tag_181:\n        /* \"#utility.yul\":2448:2477   */\n      tag_183\n        /* \"#utility.yul\":2470:2476   */\n      dup2\n        /* \"#utility.yul\":2448:2477   */\n      tag_184\n      jump\t// in\n    tag_183:\n        /* \"#utility.yul\":2443:2446   */\n      dup5\n        /* \"#utility.yul\":2439:2478   */\n      add\n        /* \"#utility.yul\":2432:2478   */\n      swap2\n      pop\n        /* \"#utility.yul\":2222:2484   */\n      pop\n        /* \"#utility.yul\":2140:2484   */\n      swap3\n      swap2\n      pop\n      pop\n      jump\t// out\n        /* \"#utility.yul\":2490:2867   */\n    tag_185:\n        /* \"#utility.yul\":2596:2599   */\n      0x00\n        /* \"#utility.yul\":2624:2663   */\n      tag_187\n        /* \"#utility.yul\":2657:2662   */\n      dup3\n        /* \"#utility.yul\":2624:2663   */\n      tag_178\n      jump\t// in\n    tag_187:\n        /* \"#utility.yul\":2679:2768   */\n      tag_188\n        /* \"#utility.yul\":2761:2767   */\n      dup2\n        /* \"#utility.yul\":2756:2759   */\n      dup6\n        /* \"#utility.yul\":2679:2768   */\n      tag_189\n      jump\t// in\n    tag_188:\n        /* \"#utility.yul\":2672:2768   */\n      swap4\n      pop\n        /* \"#utility.yul\":2777:2829   */\n      tag_190\n        /* \"#utility.yul\":2822:2828   */\n      dup2\n        /* \"#utility.yul\":2817:2820   */\n      dup6\n        /* \"#utility.yul\":2810:2814   */\n      0x20\n        /* \"#utility.yul\":2803:2808   */\n      dup7\n        /* \"#utility.yul\":2799:2815   */\n      add\n        /* \"#utility.yul\":2777:2829   */\n      tag_182\n      jump\t// in\n    tag_190:\n        /* \"#utility.yul\":2854:2860   */\n      dup1\n        /* \"#utility.yul\":2849:2852   */\n      dup5\n        /* \"#utility.yul\":2845:2861   */\n      add\n        /* \"#utility.yul\":2838:2861   */\n      swap2\n      pop\n        /* \"#utility.yul\":2600:2867   */\n      pop\n        /* \"#utility.yul\":2490:2867   */\n      swap3\n      swap2\n      pop\n      pop\n      jump\t// out\n        /* \"#utility.yul\":2873:3239   */\n    tag_191:\n        /* \"#utility.yul\":3015:3018   */\n      0x00\n        /* \"#utility.yul\":3036:3103   */\n      tag_193\n        /* \"#utility.yul\":3100:3102   */\n      0x1b\n        /* \"#utility.yul\":3095:3098   */\n      dup4\n        /* \"#utility.yul\":3036:3103   */\n      tag_194\n      jump\t// in\n    tag_193:\n        /* \"#utility.yul\":3029:3103   */\n      swap2\n      pop\n        /* \"#utility.yul\":3112:3205   */\n      tag_195\n        /* \"#utility.yul\":3201:3204   */\n      dup3\n        /* \"#utility.yul\":3112:3205   */\n      tag_196\n      jump\t// in\n    tag_195:\n        /* \"#utility.yul\":3230:3232   */\n      0x20\n        /* \"#utility.yul\":3225:3228   */\n      dup3\n        /* \"#utility.yul\":3221:3233   */\n      add\n        /* \"#utility.yul\":3214:3233   */\n      swap1\n      pop\n        /* \"#utility.yul\":2873:3239   */\n      swap2\n      swap1\n      pop\n      jump\t// out\n        /* \"#utility.yul\":3245:3611   */\n    tag_197:\n        /* \"#utility.yul\":3387:3390   */\n      0x00\n        /* \"#utility.yul\":3408:3475   */\n      tag_199\n        /* \"#utility.yul\":3472:3474   */\n      0x14\n        /* \"#utility.yul\":3467:3470   */\n      dup4\n        /* \"#utility.yul\":3408:3475   */\n      tag_194\n      jump\t// in\n    tag_199:\n        /* \"#utility.yul\":3401:3475   */\n      swap2\n      pop\n        /* \"#utility.yul\":3484:3577   */\n      tag_200\n        /* \"#utility.yul\":3573:3576   */\n      dup3\n        /* \"#utility.yul\":3484:3577   */\n      tag_201\n      jump\t// in\n    tag_200:\n        /* \"#utility.yul\":3602:3604   */\n      0x20\n        /* \"#utility.yul\":3597:3600   */\n      dup3\n        /* \"#utility.yul\":3593:3605   */\n      add\n        /* \"#utility.yul\":3586:3605   */\n      swap1\n      pop\n        /* \"#utility.yul\":3245:3611   */\n      swap2\n      swap1\n      pop\n      jump\t// out\n        /* \"#utility.yul\":3617:3983   */\n    tag_202:\n        /* \"#utility.yul\":3759:3762   */\n      0x00\n        /* \"#utility.yul\":3780:3847   */\n      tag_204\n        /* \"#utility.yul\":3844:3846   */\n      0x28\n        /* \"#utility.yul\":3839:3842   */\n      dup4\n        /* \"#utility.yul\":3780:3847   */\n      tag_194\n      jump\t// in\n    tag_204:\n        /* \"#utility.yul\":3773:3847   */\n      swap2\n      pop\n        /* \"#utility.yul\":3856:3949   */\n      tag_205\n        /* \"#utility.yul\":3945:3948   */\n      dup3\n        /* \"#utility.yul\":3856:3949   */\n      tag_206\n      jump\t// in\n    tag_205:\n        /* \"#utility.yul\":3974:3976   */\n      0x40\n        /* \"#utility.yul\":3969:3972   */\n      dup3\n        /* \"#utility.yul\":3965:3977   */\n      add\n        /* \"#utility.yul\":3958:3977   */\n      swap1\n      pop\n        /* \"#utility.yul\":3617:3983   */\n      swap2\n      swap1\n      pop\n      jump\t// out\n        /* \"#utility.yul\":3989:4355   */\n    tag_207:\n        /* \"#utility.yul\":4131:4134   */\n      0x00\n        /* \"#utility.yul\":4152:4219   */\n      tag_209\n        /* \"#utility.yul\":4216:4218   */\n      0x17\n        /* \"#utility.yul\":4211:4214   */\n      dup4\n        /* \"#utility.yul\":4152:4219   */\n      tag_194\n      jump\t// in\n    tag_209:\n        /* \"#utility.yul\":4145:4219   */\n      swap2\n      pop\n        /* \"#utility.yul\":4228:4321   */\n      tag_210\n        /* \"#utility.yul\":4317:4320   */\n      dup3\n        /* \"#utility.yul\":4228:4321   */\n      tag_211\n      jump\t// in\n    tag_210:\n        /* \"#utility.yul\":4346:4348   */\n      0x20\n        /* \"#utility.yul\":4341:4344   */\n      dup3\n        /* \"#utility.yul\":4337:4349   */\n      add\n        /* \"#utility.yul\":4330:4349   */\n      swap1\n      pop\n        /* \"#utility.yul\":3989:4355   */\n      swap2\n      swap1\n      pop\n      jump\t// out\n        /* \"#utility.yul\":4361:4727   */\n    tag_212:\n        /* \"#utility.yul\":4503:4506   */\n      0x00\n        /* \"#utility.yul\":4524:4591   */\n      tag_214\n        /* \"#utility.yul\":4588:4590   */\n      0x15\n        /* \"#utility.yul\":4583:4586   */\n      dup4\n        /* \"#utility.yul\":4524:4591   */\n      tag_194\n      jump\t// in\n    tag_214:\n        /* \"#utility.yul\":4517:4591   */\n      swap2\n      pop\n        /* \"#utility.yul\":4600:4693   */\n      tag_215\n        /* \"#utility.yul\":4689:4692   */\n      dup3\n        /* \"#utility.yul\":4600:4693   */\n      tag_216\n      jump\t// in\n    tag_215:\n        /* \"#utility.yul\":4718:4720   */\n      0x20\n        /* \"#utility.yul\":4713:4716   */\n      dup3\n        /* \"#utility.yul\":4709:4721   */\n      add\n        /* \"#utility.yul\":4702:4721   */\n      swap1\n      pop\n        /* \"#utility.yul\":4361:4727   */\n      swap2\n      swap1\n      pop\n      jump\t// out\n        /* \"#utility.yul\":4733:5099   */\n    tag_217:\n        /* \"#utility.yul\":4875:4878   */\n      0x00\n        /* \"#utility.yul\":4896:4963   */\n      tag_219\n        /* \"#utility.yul\":4960:4962   */\n      0x11\n        /* \"#utility.yul\":4955:4958   */\n      dup4\n        /* \"#utility.yul\":4896:4963   */\n      tag_194\n      jump\t// in\n    tag_219:\n        /* \"#utility.yul\":4889:4963   */\n      swap2\n      pop\n        /* \"#utility.yul\":4972:5065   */\n      tag_220\n        /* \"#utility.yul\":5061:5064   */\n      dup3\n        /* \"#utility.yul\":4972:5065   */\n      tag_221\n      jump\t// in\n    tag_220:\n        /* \"#utility.yul\":5090:5092   */\n      0x20\n        /* \"#utility.yul\":5085:5088   */\n      dup3\n        /* \"#utility.yul\":5081:5093   */\n      add\n        /* \"#utility.yul\":5074:5093   */\n      swap1\n      pop\n        /* \"#utility.yul\":4733:5099   */\n      swap2\n      swap1\n      pop\n      jump\t// out\n        /* \"#utility.yul\":5105:5471   */\n    tag_222:\n        /* \"#utility.yul\":5247:5250   */\n      0x00\n        /* \"#utility.yul\":5268:5335   */\n      tag_224\n        /* \"#utility.yul\":5332:5334   */\n      0x16\n        /* \"#utility.yul\":5327:5330   */\n      dup4\n        /* \"#utility.yul\":5268:5335   */\n      tag_194\n      jump\t// in\n    tag_224:\n        /* \"#utility.yul\":5261:5335   */\n      swap2\n      pop\n        /* \"#utility.yul\":5344:5437   */\n      tag_225\n        /* \"#utility.yul\":5433:5436   */\n      dup3\n        /* \"#utility.yul\":5344:5437   */\n      tag_226\n      jump\t// in\n    tag_225:\n        /* \"#utility.yul\":5462:5464   */\n      0x20\n        /* \"#utility.yul\":5457:5460   */\n      dup3\n        /* \"#utility.yul\":5453:5465   */\n      add\n        /* \"#utility.yul\":5446:5465   */\n      swap1\n      pop\n        /* \"#utility.yul\":5105:5471   */\n      swap2\n      swap1\n      pop\n      jump\t// out\n        /* \"#utility.yul\":5477:5843   */\n    tag_227:\n        /* \"#utility.yul\":5619:5622   */\n      0x00\n        /* \"#utility.yul\":5640:5707   */\n      tag_229\n        /* \"#utility.yul\":5704:5706   */\n      0x27\n        /* \"#utility.yul\":5699:5702   */\n      dup4\n        /* \"#utility.yul\":5640:5707   */\n      tag_194\n      jump\t// in\n    tag_229:\n        /* \"#utility.yul\":5633:5707   */\n      swap2\n      pop\n        /* \"#utility.yul\":5716:5809   */\n      tag_230\n        /* \"#utility.yul\":5805:5808   */\n      dup3\n        /* \"#utility.yul\":5716:5809   */\n      tag_231\n      jump\t// in\n    tag_230:\n        /* \"#utility.yul\":5834:5836   */\n      0x40\n        /* \"#utility.yul\":5829:5832   */\n      dup3\n        /* \"#utility.yul\":5825:5837   */\n      add\n        /* \"#utility.yul\":5818:5837   */\n      swap1\n      pop\n        /* \"#utility.yul\":5477:5843   */\n      swap2\n      swap1\n      pop\n      jump\t// out\n        /* \"#utility.yul\":5849:6215   */\n    tag_232:\n        /* \"#utility.yul\":5991:5994   */\n      0x00\n        /* \"#utility.yul\":6012:6079   */\n      tag_234\n        /* \"#utility.yul\":6076:6078   */\n      0x1e\n        /* \"#utility.yul\":6071:6074   */\n      dup4\n        /* \"#utility.yul\":6012:6079   */\n      tag_194\n      jump\t// in\n    tag_234:\n        /* \"#utility.yul\":6005:6079   */\n      swap2\n      pop\n        /* \"#utility.yul\":6088:6181   */\n      tag_235\n        /* \"#utility.yul\":6177:6180   */\n      dup3\n        /* \"#utility.yul\":6088:6181   */\n      tag_236\n      jump\t// in\n    tag_235:\n        /* \"#utility.yul\":6206:6208   */\n      0x20\n        /* \"#utility.yul\":6201:6204   */\n      dup3\n        /* \"#utility.yul\":6197:6209   */\n      add\n        /* \"#utility.yul\":6190:6209   */\n      swap1\n      pop\n        /* \"#utility.yul\":5849:6215   */\n      swap2\n      swap1\n      pop\n      jump\t// out\n        /* \"#utility.yul\":6221:6587   */\n    tag_237:\n        /* \"#utility.yul\":6363:6366   */\n      0x00\n        /* \"#utility.yul\":6384:6451   */\n      tag_239\n        /* \"#utility.yul\":6448:6450   */\n      0x0f\n        /* \"#utility.yul\":6443:6446   */\n      dup4\n        /* \"#utility.yul\":6384:6451   */\n      tag_194\n      jump\t// in\n    tag_239:\n        /* \"#utility.yul\":6377:6451   */\n      swap2\n      pop\n        /* \"#utility.yul\":6460:6553   */\n      tag_240\n        /* \"#utility.yul\":6549:6552   */\n      dup3\n        /* \"#utility.yul\":6460:6553   */\n      tag_241\n      jump\t// in\n    tag_240:\n        /* \"#utility.yul\":6578:6580   */\n      0x20\n        /* \"#utility.yul\":6573:6576   */\n      dup3\n        /* \"#utility.yul\":6569:6581   */\n      add\n        /* \"#utility.yul\":6562:6581   */\n      swap1\n      pop\n        /* \"#utility.yul\":6221:6587   */\n      swap2\n      swap1\n      pop\n      jump\t// out\n        /* \"#utility.yul\":6593:6959   */\n    tag_242:\n        /* \"#utility.yul\":6735:6738   */\n      0x00\n        /* \"#utility.yul\":6756:6823   */\n      tag_244\n        /* \"#utility.yul\":6820:6822   */\n      0x10\n        /* \"#utility.yul\":6815:6818   */\n      dup4\n        /* \"#utility.yul\":6756:6823   */\n      tag_194\n      jump\t// in\n    tag_244:\n        /* \"#utility.yul\":6749:6823   */\n      swap2\n      pop\n        /* \"#utility.yul\":6832:6925   */\n      tag_245\n        /* \"#utility.yul\":6921:6924   */\n      dup3\n        /* \"#utility.yul\":6832:6925   */\n      tag_246\n      jump\t// in\n    tag_245:\n        /* \"#utility.yul\":6950:6952   */\n      0x20\n        /* \"#utility.yul\":6945:6948   */\n      dup3\n        /* \"#utility.yul\":6941:6953   */\n      add\n        /* \"#utility.yul\":6934:6953   */\n      swap1\n      pop\n        /* \"#utility.yul\":6593:6959   */\n      swap2\n      swap1\n      pop\n      jump\t// out\n        /* \"#utility.yul\":6965:7331   */\n    tag_247:\n        /* \"#utility.yul\":7107:7110   */\n      0x00\n        /* \"#utility.yul\":7128:7195   */\n      tag_249\n        /* \"#utility.yul\":7192:7194   */\n      0x27\n        /* \"#utility.yul\":7187:7190   */\n      dup4\n        /* \"#utility.yul\":7128:7195   */\n      tag_194\n      jump\t// in\n    tag_249:\n        /* \"#utility.yul\":7121:7195   */\n      swap2\n      pop\n        /* \"#utility.yul\":7204:7297   */\n      tag_250\n        /* \"#utility.yul\":7293:7296   */\n      dup3\n        /* \"#utility.yul\":7204:7297   */\n      tag_251\n      jump\t// in\n    tag_250:\n        /* \"#utility.yul\":7322:7324   */\n      0x40\n        /* \"#utility.yul\":7317:7320   */\n      dup3\n        /* \"#utility.yul\":7313:7325   */\n      add\n        /* \"#utility.yul\":7306:7325   */\n      swap1\n      pop\n        /* \"#utility.yul\":6965:7331   */\n      swap2\n      swap1\n      pop\n      jump\t// out\n        /* \"#utility.yul\":7337:7703   */\n    tag_252:\n        /* \"#utility.yul\":7479:7482   */\n      0x00\n        /* \"#utility.yul\":7500:7567   */\n      tag_254\n        /* \"#utility.yul\":7564:7566   */\n      0x0d\n        /* \"#utility.yul\":7559:7562   */\n      dup4\n        /* \"#utility.yul\":7500:7567   */\n      tag_194\n      jump\t// in\n    tag_254:\n        /* \"#utility.yul\":7493:7567   */\n      swap2\n      pop\n        /* \"#utility.yul\":7576:7669   */\n      tag_255\n        /* \"#utility.yul\":7665:7668   */\n      dup3\n        /* \"#utility.yul\":7576:7669   */\n      tag_256\n      jump\t// in\n    tag_255:\n        /* \"#utility.yul\":7694:7696   */\n      0x20\n        /* \"#utility.yul\":7689:7692   */\n      dup3\n        /* \"#utility.yul\":7685:7697   */\n      add\n        /* \"#utility.yul\":7678:7697   */\n      swap1\n      pop\n        /* \"#utility.yul\":7337:7703   */\n      swap2\n      swap1\n      pop\n      jump\t// out\n        /* \"#utility.yul\":7709:8075   */\n    tag_257:\n        /* \"#utility.yul\":7851:7854   */\n      0x00\n        /* \"#utility.yul\":7872:7939   */\n      tag_259\n        /* \"#utility.yul\":7936:7938   */\n      0x13\n        /* \"#utility.yul\":7931:7934   */\n      dup4\n        /* \"#utility.yul\":7872:7939   */\n      tag_194\n      jump\t// in\n    tag_259:\n        /* \"#utility.yul\":7865:7939   */\n      swap2\n      pop\n        /* \"#utility.yul\":7948:8041   */\n      tag_260\n        /* \"#utility.yul\":8037:8040   */\n      dup3\n        /* \"#utility.yul\":7948:8041   */\n      tag_261\n      jump\t// in\n    tag_260:\n        /* \"#utility.yul\":8066:8068   */\n      0x20\n        /* \"#utility.yul\":8061:8064   */\n      dup3\n        /* \"#utility.yul\":8057:8069   */\n      add\n        /* \"#utility.yul\":8050:8069   */\n      swap1\n      pop\n        /* \"#utility.yul\":7709:8075   */\n      swap2\n      swap1\n      pop\n      jump\t// out\n        /* \"#utility.yul\":8081:8447   */\n    tag_262:\n        /* \"#utility.yul\":8223:8226   */\n      0x00\n        /* \"#utility.yul\":8244:8311   */\n      tag_264\n        /* \"#utility.yul\":8308:8310   */\n      0x27\n        /* \"#utility.yul\":8303:8306   */\n      dup4\n        /* \"#utility.yul\":8244:8311   */\n      tag_194\n      jump\t// in\n    tag_264:\n        /* \"#utility.yul\":8237:8311   */\n      swap2\n      pop\n        /* \"#utility.yul\":8320:8413   */\n      tag_265\n        /* \"#utility.yul\":8409:8412   */\n      dup3\n        /* \"#utility.yul\":8320:8413   */\n      tag_266\n      jump\t// in\n    tag_265:\n        /* \"#utility.yul\":8438:8440   */\n      0x40\n        /* \"#utility.yul\":8433:8436   */\n      dup3\n        /* \"#utility.yul\":8429:8441   */\n      add\n        /* \"#utility.yul\":8422:8441   */\n      swap1\n      pop\n        /* \"#utility.yul\":8081:8447   */\n      swap2\n      swap1\n      pop\n      jump\t// out\n        /* \"#utility.yul\":8453:8819   */\n    tag_267:\n        /* \"#utility.yul\":8595:8598   */\n      0x00\n        /* \"#utility.yul\":8616:8683   */\n      tag_269\n        /* \"#utility.yul\":8680:8682   */\n      0x0e\n        /* \"#utility.yul\":8675:8678   */\n      dup4\n        /* \"#utility.yul\":8616:8683   */\n      tag_194\n      jump\t// in\n    tag_269:\n        /* \"#utility.yul\":8609:8683   */\n      swap2\n      pop\n        /* \"#utility.yul\":8692:8785   */\n      tag_270\n        /* \"#utility.yul\":8781:8784   */\n      dup3\n        /* \"#utility.yul\":8692:8785   */\n      tag_271\n      jump\t// in\n    tag_270:\n        /* \"#utility.yul\":8810:8812   */\n      0x20\n        /* \"#utility.yul\":8805:8808   */\n      dup3\n        /* \"#utility.yul\":8801:8813   */\n      add\n        /* \"#utility.yul\":8794:8813   */\n      swap1\n      pop\n        /* \"#utility.yul\":8453:8819   */\n      swap2\n      swap1\n      pop\n      jump\t// out\n        /* \"#utility.yul\":8899:9510   */\n    tag_272:\n        /* \"#utility.yul\":9018:9021   */\n      0x00\n        /* \"#utility.yul\":9054:9058   */\n      0x40\n        /* \"#utility.yul\":9049:9052   */\n      dup4\n        /* \"#utility.yul\":9045:9059   */\n      add\n        /* \"#utility.yul\":9141:9145   */\n      0x00\n        /* \"#utility.yul\":9134:9139   */\n      dup4\n        /* \"#utility.yul\":9130:9146   */\n      add\n        /* \"#utility.yul\":9124:9147   */\n      mload\n        /* \"#utility.yul\":9194:9197   */\n      dup5\n        /* \"#utility.yul\":9188:9192   */\n      dup3\n        /* \"#utility.yul\":9184:9198   */\n      sub\n        /* \"#utility.yul\":9177:9181   */\n      0x00\n        /* \"#utility.yul\":9172:9175   */\n      dup7\n        /* \"#utility.yul\":9168:9182   */\n      add\n        /* \"#utility.yul\":9161:9199   */\n      mstore\n        /* \"#utility.yul\":9220:9293   */\n      tag_274\n        /* \"#utility.yul\":9288:9292   */\n      dup3\n        /* \"#utility.yul\":9274:9286   */\n      dup3\n        /* \"#utility.yul\":9220:9293   */\n      tag_175\n      jump\t// in\n    tag_274:\n        /* \"#utility.yul\":9212:9293   */\n      swap2\n      pop\n        /* \"#utility.yul\":9069:9304   */\n      pop\n        /* \"#utility.yul\":9391:9395   */\n      0x20\n        /* \"#utility.yul\":9384:9389   */\n      dup4\n        /* \"#utility.yul\":9380:9396   */\n      add\n        /* \"#utility.yul\":9374:9397   */\n      mload\n        /* \"#utility.yul\":9410:9473   */\n      tag_275\n        /* \"#utility.yul\":9467:9471   */\n      0x20\n        /* \"#utility.yul\":9462:9465   */\n      dup7\n        /* \"#utility.yul\":9458:9472   */\n      add\n        /* \"#utility.yul\":9444:9456   */\n      dup3\n        /* \"#utility.yul\":9410:9473   */\n      tag_276\n      jump\t// in\n    tag_275:\n        /* \"#utility.yul\":9314:9483   */\n      pop\n        /* \"#utility.yul\":9500:9504   */\n      dup1\n        /* \"#utility.yul\":9493:9504   */\n      swap2\n      pop\n        /* \"#utility.yul\":9023:9510   */\n      pop\n        /* \"#utility.yul\":8899:9510   */\n      swap3\n      swap2\n      pop\n      pop\n      jump\t// out\n        /* \"#utility.yul\":9516:9624   */\n    tag_276:\n        /* \"#utility.yul\":9593:9617   */\n      tag_278\n        /* \"#utility.yul\":9611:9616   */\n      dup2\n        /* \"#utility.yul\":9593:9617   */\n      tag_279\n      jump\t// in\n    tag_278:\n        /* \"#utility.yul\":9588:9591   */\n      dup3\n        /* \"#utility.yul\":9581:9618   */\n      mstore\n        /* \"#utility.yul\":9516:9624   */\n      pop\n      pop\n      jump\t// out\n        /* \"#utility.yul\":9630:9905   */\n    tag_41:\n        /* \"#utility.yul\":9762:9765   */\n      0x00\n        /* \"#utility.yul\":9784:9879   */\n      tag_281\n        /* \"#utility.yul\":9875:9878   */\n      dup3\n        /* \"#utility.yul\":9866:9872   */\n      dup5\n        /* \"#utility.yul\":9784:9879   */\n      tag_185\n      jump\t// in\n    tag_281:\n        /* \"#utility.yul\":9777:9879   */\n      swap2\n      pop\n        /* \"#utility.yul\":9896:9899   */\n      dup2\n        /* \"#utility.yul\":9889:9899   */\n      swap1\n      pop\n        /* \"#utility.yul\":9630:9905   */\n      swap3\n      swap2\n      pop\n      pop\n      jump\t// out\n        /* \"#utility.yul\":9911:10330   */\n    tag_116:\n        /* \"#utility.yul\":10077:10081   */\n      0x00\n        /* \"#utility.yul\":10115:10117   */\n      0x20\n        /* \"#utility.yul\":10104:10113   */\n      dup3\n        /* \"#utility.yul\":10100:10118   */\n      add\n        /* \"#utility.yul\":10092:10118   */\n      swap1\n      pop\n        /* \"#utility.yul\":10164:10173   */\n      dup2\n        /* \"#utility.yul\":10158:10162   */\n      dup2\n        /* \"#utility.yul\":10154:10174   */\n      sub\n        /* \"#utility.yul\":10150:10151   */\n      0x00\n        /* \"#utility.yul\":10139:10148   */\n      dup4\n        /* \"#utility.yul\":10135:10152   */\n      add\n        /* \"#utility.yul\":10128:10175   */\n      mstore\n        /* \"#utility.yul\":10192:10323   */\n      tag_283\n        /* \"#utility.yul\":10318:10322   */\n      dup2\n        /* \"#utility.yul\":10192:10323   */\n      tag_191\n      jump\t// in\n    tag_283:\n        /* \"#utility.yul\":10184:10323   */\n      swap1\n      pop\n        /* \"#utility.yul\":9911:10330   */\n      swap2\n      swap1\n      pop\n      jump\t// out\n        /* \"#utility.yul\":10336:10755   */\n    tag_32:\n        /* \"#utility.yul\":10502:10506   */\n      0x00\n        /* \"#utility.yul\":10540:10542   */\n      0x20\n        /* \"#utility.yul\":10529:10538   */\n      dup3\n        /* \"#utility.yul\":10525:10543   */\n      add\n        /* \"#utility.yul\":10517:10543   */\n      swap1\n      pop\n        /* \"#utility.yul\":10589:10598   */\n      dup2\n        /* \"#utility.yul\":10583:10587   */\n      dup2\n        /* \"#utility.yul\":10579:10599   */\n      sub\n        /* \"#utility.yul\":10575:10576   */\n      0x00\n        /* \"#utility.yul\":10564:10573   */\n      dup4\n        /* \"#utility.yul\":10560:10577   */\n      add\n        /* \"#utility.yul\":10553:10600   */\n      mstore\n        /* \"#utility.yul\":10617:10748   */\n      tag_285\n        /* \"#utility.yul\":10743:10747   */\n      dup2\n        /* \"#utility.yul\":10617:10748   */\n      tag_197\n      jump\t// in\n    tag_285:\n        /* \"#utility.yul\":10609:10748   */\n      swap1\n      pop\n        /* \"#utility.yul\":10336:10755   */\n      swap2\n      swap1\n      pop\n      jump\t// out\n        /* \"#utility.yul\":10761:11180   */\n    tag_49:\n        /* \"#utility.yul\":10927:10931   */\n      0x00\n        /* \"#utility.yul\":10965:10967   */\n      0x20\n        /* \"#utility.yul\":10954:10963   */\n      dup3\n        /* \"#utility.yul\":10950:10968   */\n      add\n        /* \"#utility.yul\":10942:10968   */\n      swap1\n      pop\n        /* \"#utility.yul\":11014:11023   */\n      dup2\n        /* \"#utility.yul\":11008:11012   */\n      dup2\n        /* \"#utility.yul\":11004:11024   */\n      sub\n        /* \"#utility.yul\":11000:11001   */\n      0x00\n        /* \"#utility.yul\":10989:10998   */\n      dup4\n        /* \"#utility.yul\":10985:11002   */\n      add\n        /* \"#utility.yul\":10978:11025   */\n      mstore\n        /* \"#utility.yul\":11042:11173   */\n      tag_287\n        /* \"#utility.yul\":11168:11172   */\n      dup2\n        /* \"#utility.yul\":11042:11173   */\n      tag_202\n      jump\t// in\n    tag_287:\n        /* \"#utility.yul\":11034:11173   */\n      swap1\n      pop\n        /* \"#utility.yul\":10761:11180   */\n      swap2\n      swap1\n      pop\n      jump\t// out\n        /* \"#utility.yul\":11186:11605   */\n    tag_79:\n        /* \"#utility.yul\":11352:11356   */\n      0x00\n        /* \"#utility.yul\":11390:11392   */\n      0x20\n        /* \"#utility.yul\":11379:11388   */\n      dup3\n        /* \"#utility.yul\":11375:11393   */\n      add\n        /* \"#utility.yul\":11367:11393   */\n      swap1\n      pop\n        /* \"#utility.yul\":11439:11448   */\n      dup2\n        /* \"#utility.yul\":11433:11437   */\n      dup2\n        /* \"#utility.yul\":11429:11449   */\n      sub\n        /* \"#utility.yul\":11425:11426   */\n      0x00\n        /* \"#utility.yul\":11414:11423   */\n      dup4\n        /* \"#utility.yul\":11410:11427   */\n      add\n        /* \"#utility.yul\":11403:11450   */\n      mstore\n        /* \"#utility.yul\":11467:11598   */\n      tag_289\n        /* \"#utility.yul\":11593:11597   */\n      dup2\n        /* \"#utility.yul\":11467:11598   */\n      tag_207\n      jump\t// in\n    tag_289:\n        /* \"#utility.yul\":11459:11598   */\n      swap1\n      pop\n        /* \"#utility.yul\":11186:11605   */\n      swap2\n      swap1\n      pop\n      jump\t// out\n        /* \"#utility.yul\":11611:12030   */\n    tag_39:\n        /* \"#utility.yul\":11777:11781   */\n      0x00\n        /* \"#utility.yul\":11815:11817   */\n      0x20\n        /* \"#utility.yul\":11804:11813   */\n      dup3\n        /* \"#utility.yul\":11800:11818   */\n      add\n        /* \"#utility.yul\":11792:11818   */\n      swap1\n      pop\n        /* \"#utility.yul\":11864:11873   */\n      dup2\n        /* \"#utility.yul\":11858:11862   */\n      dup2\n        /* \"#utility.yul\":11854:11874   */\n      sub\n        /* \"#utility.yul\":11850:11851   */\n      0x00\n        /* \"#utility.yul\":11839:11848   */\n      dup4\n        /* \"#utility.yul\":11835:11852   */\n      add\n        /* \"#utility.yul\":11828:11875   */\n      mstore\n        /* \"#utility.yul\":11892:12023   */\n      tag_291\n        /* \"#utility.yul\":12018:12022   */\n      dup2\n        /* \"#utility.yul\":11892:12023   */\n      tag_212\n      jump\t// in\n    tag_291:\n        /* \"#utility.yul\":11884:12023   */\n      swap1\n      pop\n        /* \"#utility.yul\":11611:12030   */\n      swap2\n      swap1\n      pop\n      jump\t// out\n        /* \"#utility.yul\":12036:12455   */\n    tag_85:\n        /* \"#utility.yul\":12202:12206   */\n      0x00\n        /* \"#utility.yul\":12240:12242   */\n      0x20\n        /* \"#utility.yul\":12229:12238   */\n      dup3\n        /* \"#utility.yul\":12225:12243   */\n      add\n        /* \"#utility.yul\":12217:12243   */\n      swap1\n      pop\n        /* \"#utility.yul\":12289:12298   */\n      dup2\n        /* \"#utility.yul\":12283:12287   */\n      dup2\n        /* \"#utility.yul\":12279:12299   */\n      sub\n        /* \"#utility.yul\":12275:12276   */\n      0x00\n        /* \"#utility.yul\":12264:12273   */\n      dup4\n        /* \"#utility.yul\":12260:12277   */\n      add\n        /* \"#utility.yul\":12253:12300   */\n      mstore\n        /* \"#utility.yul\":12317:12448   */\n      tag_293\n        /* \"#utility.yul\":12443:12447   */\n      dup2\n        /* \"#utility.yul\":12317:12448   */\n      tag_217\n      jump\t// in\n    tag_293:\n        /* \"#utility.yul\":12309:12448   */\n      swap1\n      pop\n        /* \"#utility.yul\":12036:12455   */\n      swap2\n      swap1\n      pop\n      jump\t// out\n        /* \"#utility.yul\":12461:12880   */\n    tag_113:\n        /* \"#utility.yul\":12627:12631   */\n      0x00\n        /* \"#utility.yul\":12665:12667   */\n      0x20\n        /* \"#utility.yul\":12654:12663   */\n      dup3\n        /* \"#utility.yul\":12650:12668   */\n      add\n        /* \"#utility.yul\":12642:12668   */\n      swap1\n      pop\n        /* \"#utility.yul\":12714:12723   */\n      dup2\n        /* \"#utility.yul\":12708:12712   */\n      dup2\n        /* \"#utility.yul\":12704:12724   */\n      sub\n        /* \"#utility.yul\":12700:12701   */\n      0x00\n        /* \"#utility.yul\":12689:12698   */\n      dup4\n        /* \"#utility.yul\":12685:12702   */\n      add\n        /* \"#utility.yul\":12678:12725   */\n      mstore\n        /* \"#utility.yul\":12742:12873   */\n      tag_295\n        /* \"#utility.yul\":12868:12872   */\n      dup2\n        /* \"#utility.yul\":12742:12873   */\n      tag_222\n      jump\t// in\n    tag_295:\n        /* \"#utility.yul\":12734:12873   */\n      swap1\n      pop\n        /* \"#utility.yul\":12461:12880   */\n      swap2\n      swap1\n      pop\n      jump\t// out\n        /* \"#utility.yul\":12886:13305   */\n    tag_69:\n        /* \"#utility.yul\":13052:13056   */\n      0x00\n        /* \"#utility.yul\":13090:13092   */\n      0x20\n        /* \"#utility.yul\":13079:13088   */\n      dup3\n        /* \"#utility.yul\":13075:13093   */\n      add\n        /* \"#utility.yul\":13067:13093   */\n      swap1\n      pop\n        /* \"#utility.yul\":13139:13148   */\n      dup2\n        /* \"#utility.yul\":13133:13137   */\n      dup2\n        /* \"#utility.yul\":13129:13149   */\n      sub\n        /* \"#utility.yul\":13125:13126   */\n      0x00\n        /* \"#utility.yul\":13114:13123   */\n      dup4\n        /* \"#utility.yul\":13110:13127   */\n      add\n        /* \"#utility.yul\":13103:13150   */\n      mstore\n        /* \"#utility.yul\":13167:13298   */\n      tag_297\n        /* \"#utility.yul\":13293:13297   */\n      dup2\n        /* \"#utility.yul\":13167:13298   */\n      tag_227\n      jump\t// in\n    tag_297:\n        /* \"#utility.yul\":13159:13298   */\n      swap1\n      pop\n        /* \"#utility.yul\":12886:13305   */\n      swap2\n      swap1\n      pop\n      jump\t// out\n        /* \"#utility.yul\":13311:13730   */\n    tag_46:\n        /* \"#utility.yul\":13477:13481   */\n      0x00\n        /* \"#utility.yul\":13515:13517   */\n      0x20\n        /* \"#utility.yul\":13504:13513   */\n      dup3\n        /* \"#utility.yul\":13500:13518   */\n      add\n        /* \"#utility.yul\":13492:13518   */\n      swap1\n      pop\n        /* \"#utility.yul\":13564:13573   */\n      dup2\n        /* \"#utility.yul\":13558:13562   */\n      dup2\n        /* \"#utility.yul\":13554:13574   */\n      sub\n        /* \"#utility.yul\":13550:13551   */\n      0x00\n        /* \"#utility.yul\":13539:13548   */\n      dup4\n        /* \"#utility.yul\":13535:13552   */\n      add\n        /* \"#utility.yul\":13528:13575   */\n      mstore\n        /* \"#utility.yul\":13592:13723   */\n      tag_299\n        /* \"#utility.yul\":13718:13722   */\n      dup2\n        /* \"#utility.yul\":13592:13723   */\n      tag_232\n      jump\t// in\n    tag_299:\n        /* \"#utility.yul\":13584:13723   */\n      swap1\n      pop\n        /* \"#utility.yul\":13311:13730   */\n      swap2\n      swap1\n      pop\n      jump\t// out\n        /* \"#utility.yul\":13736:14155   */\n    tag_66:\n        /* \"#utility.yul\":13902:13906   */\n      0x00\n        /* \"#utility.yul\":13940:13942   */\n      0x20\n        /* \"#utility.yul\":13929:13938   */\n      dup3\n        /* \"#utility.yul\":13925:13943   */\n      add\n        /* \"#utility.yul\":13917:13943   */\n      swap1\n      pop\n        /* \"#utility.yul\":13989:13998   */\n      dup2\n        /* \"#utility.yul\":13983:13987   */\n      dup2\n        /* \"#utility.yul\":13979:13999   */\n      sub\n        /* \"#utility.yul\":13975:13976   */\n      0x00\n        /* \"#utility.yul\":13964:13973   */\n      dup4\n        /* \"#utility.yul\":13960:13977   */\n      add\n        /* \"#utility.yul\":13953:14000   */\n      mstore\n        /* \"#utility.yul\":14017:14148   */\n      tag_301\n        /* \"#utility.yul\":14143:14147   */\n      dup2\n        /* \"#utility.yul\":14017:14148   */\n      tag_237\n      jump\t// in\n    tag_301:\n        /* \"#utility.yul\":14009:14148   */\n      swap1\n      pop\n        /* \"#utility.yul\":13736:14155   */\n      swap2\n      swap1\n      pop\n      jump\t// out\n        /* \"#utility.yul\":14161:14580   */\n    tag_98:\n        /* \"#utility.yul\":14327:14331   */\n      0x00\n        /* \"#utility.yul\":14365:14367   */\n      0x20\n        /* \"#utility.yul\":14354:14363   */\n      dup3\n        /* \"#utility.yul\":14350:14368   */\n      add\n        /* \"#utility.yul\":14342:14368   */\n      swap1\n      pop\n        /* \"#utility.yul\":14414:14423   */\n      dup2\n        /* \"#utility.yul\":14408:14412   */\n      dup2\n        /* \"#utility.yul\":14404:14424   */\n      sub\n        /* \"#utility.yul\":14400:14401   */\n      0x00\n        /* \"#utility.yul\":14389:14398   */\n      dup4\n        /* \"#utility.yul\":14385:14402   */\n      add\n        /* \"#utility.yul\":14378:14425   */\n      mstore\n        /* \"#utility.yul\":14442:14573   */\n      tag_303\n        /* \"#utility.yul\":14568:14572   */\n      dup2\n        /* \"#utility.yul\":14442:14573   */\n      tag_242\n      jump\t// in\n    tag_303:\n        /* \"#utility.yul\":14434:14573   */\n      swap1\n      pop\n        /* \"#utility.yul\":14161:14580   */\n      swap2\n      swap1\n      pop\n      jump\t// out\n        /* \"#utility.yul\":14586:15005   */\n    tag_95:\n        /* \"#utility.yul\":14752:14756   */\n      0x00\n        /* \"#utility.yul\":14790:14792   */\n      0x20\n        /* \"#utility.yul\":14779:14788   */\n      dup3\n        /* \"#utility.yul\":14775:14793   */\n      add\n        /* \"#utility.yul\":14767:14793   */\n      swap1\n      pop\n        /* \"#utility.yul\":14839:14848   */\n      dup2\n        /* \"#utility.yul\":14833:14837   */\n      dup2\n        /* \"#utility.yul\":14829:14849   */\n      sub\n        /* \"#utility.yul\":14825:14826   */\n      0x00\n        /* \"#utility.yul\":14814:14823   */\n      dup4\n        /* \"#utility.yul\":14810:14827   */\n      add\n        /* \"#utility.yul\":14803:14850   */\n      mstore\n        /* \"#utility.yul\":14867:14998   */\n      tag_305\n        /* \"#utility.yul\":14993:14997   */\n      dup2\n        /* \"#utility.yul\":14867:14998   */\n      tag_247\n      jump\t// in\n    tag_305:\n        /* \"#utility.yul\":14859:14998   */\n      swap1\n      pop\n        /* \"#utility.yul\":14586:15005   */\n      swap2\n      swap1\n      pop\n      jump\t// out\n        /* \"#utility.yul\":15011:15430   */\n    tag_61:\n        /* \"#utility.yul\":15177:15181   */\n      0x00\n        /* \"#utility.yul\":15215:15217   */\n      0x20\n        /* \"#utility.yul\":15204:15213   */\n      dup3\n        /* \"#utility.yul\":15200:15218   */\n      add\n        /* \"#utility.yul\":15192:15218   */\n      swap1\n      pop\n        /* \"#utility.yul\":15264:15273   */\n      dup2\n        /* \"#utility.yul\":15258:15262   */\n      dup2\n        /* \"#utility.yul\":15254:15274   */\n      sub\n        /* \"#utility.yul\":15250:15251   */\n      0x00\n        /* \"#utility.yul\":15239:15248   */\n      dup4\n        /* \"#utility.yul\":15235:15252   */\n      add\n        /* \"#utility.yul\":15228:15275   */\n      mstore\n        /* \"#utility.yul\":15292:15423   */\n      tag_307\n        /* \"#utility.yul\":15418:15422   */\n      dup2\n        /* \"#utility.yul\":15292:15423   */\n      tag_252\n      jump\t// in\n    tag_307:\n        /* \"#utility.yul\":15284:15423   */\n      swap1\n      pop\n        /* \"#utility.yul\":15011:15430   */\n      swap2\n      swap1\n      pop\n      jump\t// out\n        /* \"#utility.yul\":15436:15855   */\n    tag_36:\n        /* \"#utility.yul\":15602:15606   */\n      0x00\n        /* \"#utility.yul\":15640:15642   */\n      0x20\n        /* \"#utility.yul\":15629:15638   */\n      dup3\n        /* \"#utility.yul\":15625:15643   */\n      add\n        /* \"#utility.yul\":15617:15643   */\n      swap1\n      pop\n        /* \"#utility.yul\":15689:15698   */\n      dup2\n        /* \"#utility.yul\":15683:15687   */\n      dup2\n        /* \"#utility.yul\":15679:15699   */\n      sub\n        /* \"#utility.yul\":15675:15676   */\n      0x00\n        /* \"#utility.yul\":15664:15673   */\n      dup4\n        /* \"#utility.yul\":15660:15677   */\n      add\n        /* \"#utility.yul\":15653:15700   */\n      mstore\n        /* \"#utility.yul\":15717:15848   */\n      tag_309\n        /* \"#utility.yul\":15843:15847   */\n      dup2\n        /* \"#utility.yul\":15717:15848   */\n      tag_257\n      jump\t// in\n    tag_309:\n        /* \"#utility.yul\":15709:15848   */\n      swap1\n      pop\n        /* \"#utility.yul\":15436:15855   */\n      swap2\n      swap1\n      pop\n      jump\t// out\n        /* \"#utility.yul\":15861:16280   */\n    tag_105:\n        /* \"#utility.yul\":16027:16031   */\n      0x00\n        /* \"#utility.yul\":16065:16067   */\n      0x20\n        /* \"#utility.yul\":16054:16063   */\n      dup3\n        /* \"#utility.yul\":16050:16068   */\n      add\n        /* \"#utility.yul\":16042:16068   */\n      swap1\n      pop\n        /* \"#utility.yul\":16114:16123   */\n      dup2\n        /* \"#utility.yul\":16108:16112   */\n      dup2\n        /* \"#utility.yul\":16104:16124   */\n      sub\n        /* \"#utility.yul\":16100:16101   */\n      0x00\n        /* \"#utility.yul\":16089:16098   */\n      dup4\n        /* \"#utility.yul\":16085:16102   */\n      add\n        /* \"#utility.yul\":16078:16125   */\n      mstore\n        /* \"#utility.yul\":16142:16273   */\n      tag_311\n        /* \"#utility.yul\":16268:16272   */\n      dup2\n        /* \"#utility.yul\":16142:16273   */\n      tag_262\n      jump\t// in\n    tag_311:\n        /* \"#utility.yul\":16134:16273   */\n      swap1\n      pop\n        /* \"#utility.yul\":15861:16280   */\n      swap2\n      swap1\n      pop\n      jump\t// out\n        /* \"#utility.yul\":16286:16705   */\n    tag_108:\n        /* \"#utility.yul\":16452:16456   */\n      0x00\n        /* \"#utility.yul\":16490:16492   */\n      0x20\n        /* \"#utility.yul\":16479:16488   */\n      dup3\n        /* \"#utility.yul\":16475:16493   */\n      add\n        /* \"#utility.yul\":16467:16493   */\n      swap1\n      pop\n        /* \"#utility.yul\":16539:16548   */\n      dup2\n        /* \"#utility.yul\":16533:16537   */\n      dup2\n        /* \"#utility.yul\":16529:16549   */\n      sub\n        /* \"#utility.yul\":16525:16526   */\n      0x00\n        /* \"#utility.yul\":16514:16523   */\n      dup4\n        /* \"#utility.yul\":16510:16527   */\n      add\n        /* \"#utility.yul\":16503:16550   */\n      mstore\n        /* \"#utility.yul\":16567:16698   */\n      tag_313\n        /* \"#utility.yul\":16693:16697   */\n      dup2\n        /* \"#utility.yul\":16567:16698   */\n      tag_267\n      jump\t// in\n    tag_313:\n        /* \"#utility.yul\":16559:16698   */\n      swap1\n      pop\n        /* \"#utility.yul\":16286:16705   */\n      swap2\n      swap1\n      pop\n      jump\t// out\n        /* \"#utility.yul\":16711:17084   */\n    tag_18:\n        /* \"#utility.yul\":16854:16858   */\n      0x00\n        /* \"#utility.yul\":16892:16894   */\n      0x20\n        /* \"#utility.yul\":16881:16890   */\n      dup3\n        /* \"#utility.yul\":16877:16895   */\n      add\n        /* \"#utility.yul\":16869:16895   */\n      swap1\n      pop\n        /* \"#utility.yul\":16941:16950   */\n      dup2\n        /* \"#utility.yul\":16935:16939   */\n      dup2\n        /* \"#utility.yul\":16931:16951   */\n      sub\n        /* \"#utility.yul\":16927:16928   */\n      0x00\n        /* \"#utility.yul\":16916:16925   */\n      dup4\n        /* \"#utility.yul\":16912:16929   */\n      add\n        /* \"#utility.yul\":16905:16952   */\n      mstore\n        /* \"#utility.yul\":16969:17077   */\n      tag_315\n        /* \"#utility.yul\":17072:17076   */\n      dup2\n        /* \"#utility.yul\":17063:17069   */\n      dup5\n        /* \"#utility.yul\":16969:17077   */\n      tag_272\n      jump\t// in\n    tag_315:\n        /* \"#utility.yul\":16961:17077   */\n      swap1\n      pop\n        /* \"#utility.yul\":16711:17084   */\n      swap3\n      swap2\n      pop\n      pop\n      jump\t// out\n        /* \"#utility.yul\":17090:17219   */\n    tag_146:\n        /* \"#utility.yul\":17124:17130   */\n      0x00\n        /* \"#utility.yul\":17151:17171   */\n      tag_317\n      tag_318\n      jump\t// in\n    tag_317:\n        /* \"#utility.yul\":17141:17171   */\n      swap1\n      pop\n        /* \"#utility.yul\":17180:17213   */\n      tag_319\n        /* \"#utility.yul\":17208:17212   */\n      dup3\n        /* \"#utility.yul\":17200:17206   */\n      dup3\n        /* \"#utility.yul\":17180:17213   */\n      tag_320\n      jump\t// in\n    tag_319:\n        /* \"#utility.yul\":17090:17219   */\n      swap2\n      swap1\n      pop\n      jump\t// out\n        /* \"#utility.yul\":17225:17300   */\n    tag_318:\n        /* \"#utility.yul\":17258:17264   */\n      0x00\n        /* \"#utility.yul\":17291:17293   */\n      0x40\n        /* \"#utility.yul\":17285:17294   */\n      mload\n        /* \"#utility.yul\":17275:17294   */\n      swap1\n      pop\n        /* \"#utility.yul\":17225:17300   */\n      swap1\n      jump\t// out\n        /* \"#utility.yul\":17306:17614   */\n    tag_145:\n        /* \"#utility.yul\":17368:17372   */\n      0x00\n        /* \"#utility.yul\":17458:17476   */\n      0xffffffffffffffff\n        /* \"#utility.yul\":17450:17456   */\n      dup3\n        /* \"#utility.yul\":17447:17477   */\n      gt\n        /* \"#utility.yul\":17444:17500   */\n      iszero\n      tag_323\n      jumpi\n        /* \"#utility.yul\":17480:17498   */\n      tag_324\n      tag_325\n      jump\t// in\n    tag_324:\n        /* \"#utility.yul\":17444:17500   */\n    tag_323:\n        /* \"#utility.yul\":17518:17547   */\n      tag_326\n        /* \"#utility.yul\":17540:17546   */\n      dup3\n        /* \"#utility.yul\":17518:17547   */\n      tag_184\n      jump\t// in\n    tag_326:\n        /* \"#utility.yul\":17510:17547   */\n      swap1\n      pop\n        /* \"#utility.yul\":17602:17606   */\n      0x20\n        /* \"#utility.yul\":17596:17600   */\n      dup2\n        /* \"#utility.yul\":17592:17607   */\n      add\n        /* \"#utility.yul\":17584:17607   */\n      swap1\n      pop\n        /* \"#utility.yul\":17306:17614   */\n      swap2\n      swap1\n      pop\n      jump\t// out\n        /* \"#utility.yul\":17620:17719   */\n    tag_178:\n        /* \"#utility.yul\":17672:17678   */\n      0x00\n        /* \"#utility.yul\":17706:17711   */\n      dup2\n        /* \"#utility.yul\":17700:17712   */\n      mload\n        /* \"#utility.yul\":17690:17712   */\n      swap1\n      pop\n        /* \"#utility.yul\":17620:17719   */\n      swap2\n      swap1\n      pop\n      jump\t// out\n        /* \"#utility.yul\":17725:17884   */\n    tag_180:\n        /* \"#utility.yul\":17799:17810   */\n      0x00\n        /* \"#utility.yul\":17833:17839   */\n      dup3\n        /* \"#utility.yul\":17828:17831   */\n      dup3\n        /* \"#utility.yul\":17821:17840   */\n      mstore\n        /* \"#utility.yul\":17873:17877   */\n      0x20\n        /* \"#utility.yul\":17868:17871   */\n      dup3\n        /* \"#utility.yul\":17864:17878   */\n      add\n        /* \"#utility.yul\":17849:17878   */\n      swap1\n      pop\n        /* \"#utility.yul\":17725:17884   */\n      swap3\n      swap2\n      pop\n      pop\n      jump\t// out\n        /* \"#utility.yul\":17890:18059   */\n    tag_194:\n        /* \"#utility.yul\":17974:17985   */\n      0x00\n        /* \"#utility.yul\":18008:18014   */\n      dup3\n        /* \"#utility.yul\":18003:18006   */\n      dup3\n        /* \"#utility.yul\":17996:18015   */\n      mstore\n        /* \"#utility.yul\":18048:18052   */\n      0x20\n        /* \"#utility.yul\":18043:18046   */\n      dup3\n        /* \"#utility.yul\":18039:18053   */\n      add\n        /* \"#utility.yul\":18024:18053   */\n      swap1\n      pop\n        /* \"#utility.yul\":17890:18059   */\n      swap3\n      swap2\n      pop\n      pop\n      jump\t// out\n        /* \"#utility.yul\":18065:18213   */\n    tag_189:\n        /* \"#utility.yul\":18167:18178   */\n      0x00\n        /* \"#utility.yul\":18204:18207   */\n      dup2\n        /* \"#utility.yul\":18189:18207   */\n      swap1\n      pop\n        /* \"#utility.yul\":18065:18213   */\n      swap3\n      swap2\n      pop\n      pop\n      jump\t// out\n        /* \"#utility.yul\":18219:18524   */\n    tag_88:\n        /* \"#utility.yul\":18259:18262   */\n      0x00\n        /* \"#utility.yul\":18278:18298   */\n      tag_332\n        /* \"#utility.yul\":18296:18297   */\n      dup3\n        /* \"#utility.yul\":18278:18298   */\n      tag_279\n      jump\t// in\n    tag_332:\n        /* \"#utility.yul\":18273:18298   */\n      swap2\n      pop\n        /* \"#utility.yul\":18312:18332   */\n      tag_333\n        /* \"#utility.yul\":18330:18331   */\n      dup4\n        /* \"#utility.yul\":18312:18332   */\n      tag_279\n      jump\t// in\n    tag_333:\n        /* \"#utility.yul\":18307:18332   */\n      swap3\n      pop\n        /* \"#utility.yul\":18466:18467   */\n      dup3\n        /* \"#utility.yul\":18398:18464   */\n      0xffffffffffffffffffffffffffffffffffffffffffffffffffffffffffffffff\n        /* \"#utility.yul\":18394:18468   */\n      sub\n        /* \"#utility.yul\":18391:18392   */\n      dup3\n        /* \"#utility.yul\":18388:18469   */\n      gt\n        /* \"#utility.yul\":18385:18492   */\n      iszero\n      tag_334\n      jumpi\n        /* \"#utility.yul\":18472:18490   */\n      tag_335\n      tag_336\n      jump\t// in\n    tag_335:\n        /* \"#utility.yul\":18385:18492   */\n    tag_334:\n        /* \"#utility.yul\":18516:18517   */\n      dup3\n        /* \"#utility.yul\":18513:18514   */\n      dup3\n        /* \"#utility.yul\":18509:18518   */\n      add\n        /* \"#utility.yul\":18502:18518   */\n      swap1\n      pop\n        /* \"#utility.yul\":18219:18524   */\n      swap3\n      swap2\n      pop\n      pop\n      jump\t// out\n        /* \"#utility.yul\":18530:18607   */\n    tag_279:\n        /* \"#utility.yul\":18567:18574   */\n      0x00\n        /* \"#utility.yul\":18596:18601   */\n      dup2\n        /* \"#utility.yul\":18585:18601   */\n      swap1\n      pop\n        /* \"#utility.yul\":18530:18607   */\n      swap2\n      swap1\n      pop\n      jump\t// out\n        /* \"#utility.yul\":18613:18767   */\n    tag_151:\n        /* \"#utility.yul\":18697:18703   */\n      dup3\n        /* \"#utility.yul\":18692:18695   */\n      dup2\n        /* \"#utility.yul\":18687:18690   */\n      dup4\n        /* \"#utility.yul\":18674:18704   */\n      calldatacopy\n        /* \"#utility.yul\":18759:18760   */\n      0x00\n        /* \"#utility.yul\":18750:18756   */\n      dup4\n        /* \"#utility.yul\":18745:18748   */\n      dup4\n        /* \"#utility.yul\":18741:18757   */\n      add\n        /* \"#utility.yul\":18734:18761   */\n      mstore\n        /* \"#utility.yul\":18613:18767   */\n      pop\n      pop\n      pop\n      jump\t// out\n        /* \"#utility.yul\":18773:19080   */\n    tag_182:\n        /* \"#utility.yul\":18841:18842   */\n      0x00\n        /* \"#utility.yul\":18851:18964   */\n    tag_340:\n        /* \"#utility.yul\":18865:18871   */\n      dup4\n        /* \"#utility.yul\":18862:18863   */\n      dup2\n        /* \"#utility.yul\":18859:18872   */\n      lt\n        /* \"#utility.yul\":18851:18964   */\n      iszero\n      tag_342\n      jumpi\n        /* \"#utility.yul\":18950:18951   */\n      dup1\n        /* \"#utility.yul\":18945:18948   */\n      dup3\n        /* \"#utility.yul\":18941:18952   */\n      add\n        /* \"#utility.yul\":18935:18953   */\n      mload\n        /* \"#utility.yul\":18931:18932   */\n      dup2\n        /* \"#utility.yul\":18926:18929   */\n      dup5\n        /* \"#utility.yul\":18922:18933   */\n      add\n        /* \"#utility.yul\":18915:18954   */\n      mstore\n        /* \"#utility.yul\":18887:18889   */\n      0x20\n        /* \"#utility.yul\":18884:18885   */\n      dup2\n        /* \"#utility.yul\":18880:18890   */\n      add\n        /* \"#utility.yul\":18875:18890   */\n      swap1\n      pop\n        /* \"#utility.yul\":18851:18964   */\n      jump(tag_340)\n    tag_342:\n        /* \"#utility.yul\":18982:18988   */\n      dup4\n        /* \"#utility.yul\":18979:18980   */\n      dup2\n        /* \"#utility.yul\":18976:18989   */\n      gt\n        /* \"#utility.yul\":18973:19074   */\n      iszero\n      tag_343\n      jumpi\n        /* \"#utility.yul\":19062:19063   */\n      0x00\n        /* \"#utility.yul\":19053:19059   */\n      dup5\n        /* \"#utility.yul\":19048:19051   */\n      dup5\n        /* \"#utility.yul\":19044:19060   */\n      add\n        /* \"#utility.yul\":19037:19064   */\n      mstore\n        /* \"#utility.yul\":18973:19074   */\n    tag_343:\n        /* \"#utility.yul\":18822:19080   */\n      pop\n        /* \"#utility.yul\":18773:19080   */\n      pop\n      pop\n      pop\n      jump\t// out\n        /* \"#utility.yul\":19086:19406   */\n    tag_43:\n        /* \"#utility.yul\":19130:19136   */\n      0x00\n        /* \"#utility.yul\":19167:19168   */\n      0x02\n        /* \"#utility.yul\":19161:19165   */\n      dup3\n        /* \"#utility.yul\":19157:19169   */\n      div\n        /* \"#utility.yul\":19147:19169   */\n      swap1\n      pop\n        /* \"#utility.yul\":19214:19215   */\n      0x01\n        /* \"#utility.yul\":19208:19212   */\n      dup3\n        /* \"#utility.yul\":19204:19216   */\n      and\n        /* \"#utility.yul\":19235:19253   */\n      dup1\n        /* \"#utility.yul\":19225:19306   */\n      tag_345\n      jumpi\n        /* \"#utility.yul\":19291:19295   */\n      0x7f\n        /* \"#utility.yul\":19283:19289   */\n      dup3\n        /* \"#utility.yul\":19279:19296   */\n      and\n        /* \"#utility.yul\":19269:19296   */\n      swap2\n      pop\n        /* \"#utility.yul\":19225:19306   */\n    tag_345:\n        /* \"#utility.yul\":19353:19355   */\n      0x20\n        /* \"#utility.yul\":19345:19351   */\n      dup3\n        /* \"#utility.yul\":19342:19356   */\n      lt\n        /* \"#utility.yul\":19322:19340   */\n      dup2\n        /* \"#utility.yul\":19319:19357   */\n      eq\n        /* \"#utility.yul\":19316:19400   */\n      iszero\n      tag_346\n      jumpi\n        /* \"#utility.yul\":19372:19390   */\n      tag_347\n      tag_348\n      jump\t// in\n    tag_347:\n        /* \"#utility.yul\":19316:19400   */\n    tag_346:\n        /* \"#utility.yul\":19137:19406   */\n      pop\n        /* \"#utility.yul\":19086:19406   */\n      swap2\n      swap1\n      pop\n      jump\t// out\n        /* \"#utility.yul\":19412:19693   */\n    tag_320:\n        /* \"#utility.yul\":19495:19522   */\n      tag_350\n        /* \"#utility.yul\":19517:19521   */\n      dup3\n        /* \"#utility.yul\":19495:19522   */\n      tag_184\n      jump\t// in\n    tag_350:\n        /* \"#utility.yul\":19487:19493   */\n      dup2\n        /* \"#utility.yul\":19483:19523   */\n      add\n        /* \"#utility.yul\":19625:19631   */\n      dup2\n        /* \"#utility.yul\":19613:19623   */\n      dup2\n        /* \"#utility.yul\":19610:19632   */\n      lt\n        /* \"#utility.yul\":19589:19607   */\n      0xffffffffffffffff\n        /* \"#utility.yul\":19577:19587   */\n      dup3\n        /* \"#utility.yul\":19574:19608   */\n      gt\n        /* \"#utility.yul\":19571:19633   */\n      or\n        /* \"#utility.yul\":19568:19656   */\n      iszero\n      tag_351\n      jumpi\n        /* \"#utility.yul\":19636:19654   */\n      tag_352\n      tag_325\n      jump\t// in\n    tag_352:\n        /* \"#utility.yul\":19568:19656   */\n    tag_351:\n        /* \"#utility.yul\":19676:19686   */\n      dup1\n        /* \"#utility.yul\":19672:19674   */\n      0x40\n        /* \"#utility.yul\":19665:19687   */\n      mstore\n        /* \"#utility.yul\":19455:19693   */\n      pop\n        /* \"#utility.yul\":19412:19693   */\n      pop\n      pop\n      jump\t// out\n        /* \"#utility.yul\":19699:19879   */\n    tag_336:\n        /* \"#utility.yul\":19747:19824   */\n      0x4e487b7100000000000000000000000000000000000000000000000000000000\n        /* \"#utility.yul\":19744:19745   */\n      0x00\n        /* \"#utility.yul\":19737:19825   */\n      mstore\n        /* \"#utility.yul\":19844:19848   */\n      0x11\n        /* \"#utility.yul\":19841:19842   */\n      0x04\n        /* \"#utility.yul\":19834:19849   */\n      mstore\n        /* \"#utility.yul\":19868:19872   */\n      0x24\n        /* \"#utility.yul\":19865:19866   */\n      0x00\n        /* \"#utility.yul\":19858:19873   */\n      revert\n        /* \"#utility.yul\":19885:20065   */\n    tag_348:\n        /* \"#utility.yul\":19933:20010   */\n      0x4e487b7100000000000000000000000000000000000000000000000000000000\n        /* \"#utility.yul\":19930:19931   */\n      0x00\n        /* \"#utility.yul\":19923:20011   */\n      mstore\n        /* \"#utility.yul\":20030:20034   */\n      0x22\n        /* \"#utility.yul\":20027:20028   */\n      0x04\n        /* \"#utility.yul\":20020:20035   */\n      mstore\n        /* \"#utility.yul\":20054:20058   */\n      0x24\n        /* \"#utility.yul\":20051:20052   */\n      0x00\n        /* \"#utility.yul\":20044:20059   */\n      revert\n        /* \"#utility.yul\":20071:20251   */\n    tag_325:\n        /* \"#utility.yul\":20119:20196   */\n      0x4e487b7100000000000000000000000000000000000000000000000000000000\n        /* \"#utility.yul\":20116:20117   */\n      0x00\n        /* \"#utility.yul\":20109:20197   */\n      mstore\n        /* \"#utility.yul\":20216:20220   */\n      0x41\n        /* \"#utility.yul\":20213:20214   */\n      0x04\n        /* \"#utility.yul\":20206:20221   */\n      mstore\n        /* \"#utility.yul\":20240:20244   */\n      0x24\n        /* \"#utility.yul\":20237:20238   */\n      0x00\n        /* \"#utility.yul\":20230:20245   */\n      revert\n        /* \"#utility.yul\":20257:20374   */\n    tag_156:\n        /* \"#utility.yul\":20366:20367   */\n      0x00\n        /* \"#utility.yul\":20363:20364   */\n      dup1\n        /* \"#utility.yul\":20356:20368   */\n      revert\n        /* \"#utility.yul\":20380:20497   */\n    tag_149:\n        /* \"#utility.yul\":20489:20490   */\n      0x00\n        /* \"#utility.yul\":20486:20487   */\n      dup1\n        /* \"#utility.yul\":20479:20491   */\n      revert\n        /* \"#utility.yul\":20503:20620   */\n    tag_164:\n        /* \"#utility.yul\":20612:20613   */\n      0x00\n        /* \"#utility.yul\":20609:20610   */\n      dup1\n        /* \"#utility.yul\":20602:20614   */\n      revert\n        /* \"#utility.yul\":20626:20743   */\n    tag_161:\n        /* \"#utility.yul\":20735:20736   */\n      0x00\n        /* \"#utility.yul\":20732:20733   */\n      dup1\n        /* \"#utility.yul\":20725:20737   */\n      revert\n        /* \"#utility.yul\":20749:20851   */\n    tag_184:\n        /* \"#utility.yul\":20790:20796   */\n      0x00\n        /* \"#utility.yul\":20841:20843   */\n      0x1f\n        /* \"#utility.yul\":20837:20844   */\n      not\n        /* \"#utility.yul\":20832:20834   */\n      0x1f\n        /* \"#utility.yul\":20825:20830   */\n      dup4\n        /* \"#utility.yul\":20821:20835   */\n      add\n        /* \"#utility.yul\":20817:20845   */\n      and\n        /* \"#utility.yul\":20807:20845   */\n      swap1\n      pop\n        /* \"#utility.yul\":20749:20851   */\n      swap2\n      swap1\n      pop\n      jump\t// out\n        /* \"#utility.yul\":20857:21034   */\n    tag_196:\n        /* \"#utility.yul\":20997:21026   */\n      0x596f752063616e27742072656d6f76652063616e6469646174652e0000000000\n        /* \"#utility.yul\":20993:20994   */\n      0x00\n        /* \"#utility.yul\":20985:20991   */\n      dup3\n        /* \"#utility.yul\":20981:20995   */\n      add\n        /* \"#utility.yul\":20974:21027   */\n      mstore\n        /* \"#utility.yul\":20857:21034   */\n      pop\n      jump\t// out\n        /* \"#utility.yul\":21040:21210   */\n    tag_201:\n        /* \"#utility.yul\":21180:21202   */\n      0x556e617574686f72697a6564204163636573732e000000000000000000000000\n        /* \"#utility.yul\":21176:21177   */\n      0x00\n        /* \"#utility.yul\":21168:21174   */\n      dup3\n        /* \"#utility.yul\":21164:21178   */\n      add\n        /* \"#utility.yul\":21157:21203   */\n      mstore\n        /* \"#utility.yul\":21040:21210   */\n      pop\n      jump\t// out\n        /* \"#utility.yul\":21216:21443   */\n    tag_206:\n        /* \"#utility.yul\":21356:21390   */\n      0x43616e64696461746520726567697374726174696f6e20776173206e6f742070\n        /* \"#utility.yul\":21352:21353   */\n      0x00\n        /* \"#utility.yul\":21344:21350   */\n      dup3\n        /* \"#utility.yul\":21340:21354   */\n      add\n        /* \"#utility.yul\":21333:21391   */\n      mstore\n        /* \"#utility.yul\":21425:21435   */\n      0x6f737369626c652e000000000000000000000000000000000000000000000000\n        /* \"#utility.yul\":21420:21422   */\n      0x20\n        /* \"#utility.yul\":21412:21418   */\n      dup3\n        /* \"#utility.yul\":21408:21423   */\n      add\n        /* \"#utility.yul\":21401:21436   */\n      mstore\n        /* \"#utility.yul\":21216:21443   */\n      pop\n      jump\t// out\n        /* \"#utility.yul\":21449:21622   */\n    tag_211:\n        /* \"#utility.yul\":21589:21614   */\n      0x566f74696e67206e6f742073746172746564207965742e000000000000000000\n        /* \"#utility.yul\":21585:21586   */\n      0x00\n        /* \"#utility.yul\":21577:21583   */\n      dup3\n        /* \"#utility.yul\":21573:21587   */\n      add\n        /* \"#utility.yul\":21566:21615   */\n      mstore\n        /* \"#utility.yul\":21449:21622   */\n      pop\n      jump\t// out\n        /* \"#utility.yul\":21628:21799   */\n    tag_216:\n        /* \"#utility.yul\":21768:21791   */\n      0x53796d626f6c2063616e277420626520656d7074790000000000000000000000\n        /* \"#utility.yul\":21764:21765   */\n      0x00\n        /* \"#utility.yul\":21756:21762   */\n      dup3\n        /* \"#utility.yul\":21752:21766   */\n      add\n        /* \"#utility.yul\":21745:21792   */\n      mstore\n        /* \"#utility.yul\":21628:21799   */\n      pop\n      jump\t// out\n        /* \"#utility.yul\":21805:21972   */\n    tag_221:\n        /* \"#utility.yul\":21945:21964   */\n      0x53796d626f6c206e6f7420666f756e642e000000000000000000000000000000\n        /* \"#utility.yul\":21941:21942   */\n      0x00\n        /* \"#utility.yul\":21933:21939   */\n      dup3\n        /* \"#utility.yul\":21929:21943   */\n      add\n        /* \"#utility.yul\":21922:21965   */\n      mstore\n        /* \"#utility.yul\":21805:21972   */\n      pop\n      jump\t// out\n        /* \"#utility.yul\":21978:22150   */\n    tag_226:\n        /* \"#utility.yul\":22118:22142   */\n      0x53796d626f6c206e6f7420726567697374657265642e00000000000000000000\n        /* \"#utility.yul\":22114:22115   */\n      0x00\n        /* \"#utility.yul\":22106:22112   */\n      dup3\n        /* \"#utility.yul\":22102:22116   */\n      add\n        /* \"#utility.yul\":22095:22143   */\n      mstore\n        /* \"#utility.yul\":21978:22150   */\n      pop\n      jump\t// out\n        /* \"#utility.yul\":22156:22382   */\n    tag_231:\n        /* \"#utility.yul\":22296:22330   */\n      0x466f72207265636f726420766f74696e67206d75737420626520737461727465\n        /* \"#utility.yul\":22292:22293   */\n      0x00\n        /* \"#utility.yul\":22284:22290   */\n      dup3\n        /* \"#utility.yul\":22280:22294   */\n      add\n        /* \"#utility.yul\":22273:22331   */\n      mstore\n        /* \"#utility.yul\":22365:22374   */\n      0x64206f6e63652e00000000000000000000000000000000000000000000000000\n        /* \"#utility.yul\":22360:22362   */\n      0x20\n        /* \"#utility.yul\":22352:22358   */\n      dup3\n        /* \"#utility.yul\":22348:22363   */\n      add\n        /* \"#utility.yul\":22341:22375   */\n      mstore\n        /* \"#utility.yul\":22156:22382   */\n      pop\n      jump\t// out\n        /* \"#utility.yul\":22388:22568   */\n    tag_236:\n        /* \"#utility.yul\":22528:22560   */\n      0x546869732053796d626f6c2077617320616c72656164792074616b656e2e0000\n        /* \"#utility.yul\":22524:22525   */\n      0x00\n        /* \"#utility.yul\":22516:22522   */\n      dup3\n        /* \"#utility.yul\":22512:22526   */\n      add\n        /* \"#utility.yul\":22505:22561   */\n      mstore\n        /* \"#utility.yul\":22388:22568   */\n      pop\n      jump\t// out\n        /* \"#utility.yul\":22574:22739   */\n    tag_241:\n        /* \"#utility.yul\":22714:22731   */\n      0x4e6f205265636f726420466f756e640000000000000000000000000000000000\n        /* \"#utility.yul\":22710:22711   */\n      0x00\n        /* \"#utility.yul\":22702:22708   */\n      dup3\n        /* \"#utility.yul\":22698:22712   */\n      add\n        /* \"#utility.yul\":22691:22732   */\n      mstore\n        /* \"#utility.yul\":22574:22739   */\n      pop\n      jump\t// out\n        /* \"#utility.yul\":22745:22911   */\n    tag_246:\n        /* \"#utility.yul\":22885:22903   */\n      0x416c726561647920537461727465642e00000000000000000000000000000000\n        /* \"#utility.yul\":22881:22882   */\n      0x00\n        /* \"#utility.yul\":22873:22879   */\n      dup3\n        /* \"#utility.yul\":22869:22883   */\n      add\n        /* \"#utility.yul\":22862:22904   */\n      mstore\n        /* \"#utility.yul\":22745:22911   */\n      pop\n      jump\t// out\n        /* \"#utility.yul\":22917:23143   */\n    tag_251:\n        /* \"#utility.yul\":23057:23091   */\n      0x41746c6561737420322063616e646964617465206d7573742062652072656769\n        /* \"#utility.yul\":23053:23054   */\n      0x00\n        /* \"#utility.yul\":23045:23051   */\n      dup3\n        /* \"#utility.yul\":23041:23055   */\n      add\n        /* \"#utility.yul\":23034:23092   */\n      mstore\n        /* \"#utility.yul\":23126:23135   */\n      0x7374657265642e00000000000000000000000000000000000000000000000000\n        /* \"#utility.yul\":23121:23123   */\n      0x20\n        /* \"#utility.yul\":23113:23119   */\n      dup3\n        /* \"#utility.yul\":23109:23124   */\n      add\n        /* \"#utility.yul\":23102:23136   */\n      mstore\n        /* \"#utility.yul\":22917:23143   */\n      pop\n      jump\t// out\n        /* \"#utility.yul\":23149:23312   */\n    tag_256:\n        /* \"#utility.yul\":23289:23304   */\n      0x496e76616c696420496e70757400000000000000000000000000000000000000\n        /* \"#utility.yul\":23285:23286   */\n      0x00\n        /* \"#utility.yul\":23277:23283   */\n      dup3\n        /* \"#utility.yul\":23273:23287   */\n      add\n        /* \"#utility.yul\":23266:23305   */\n      mstore\n        /* \"#utility.yul\":23149:23312   */\n      pop\n      jump\t// out\n        /* \"#utility.yul\":23318:23487   */\n    tag_261:\n        /* \"#utility.yul\":23458:23479   */\n      0x4e616d652043616e277420626520656d70747900000000000000000000000000\n        /* \"#utility.yul\":23454:23455   */\n      0x00\n        /* \"#utility.yul\":23446:23452   */\n      dup3\n        /* \"#utility.yul\":23442:23456   */\n      add\n        /* \"#utility.yul\":23435:23480   */\n      mstore\n        /* \"#utility.yul\":23318:23487   */\n      pop\n      jump\t// out\n        /* \"#utility.yul\":23493:23719   */\n    tag_266:\n        /* \"#utility.yul\":23633:23667   */\n      0x41746c6561737420312063616e646964617465206d7573742062652072656769\n        /* \"#utility.yul\":23629:23630   */\n      0x00\n        /* \"#utility.yul\":23621:23627   */\n      dup3\n        /* \"#utility.yul\":23617:23631   */\n      add\n        /* \"#utility.yul\":23610:23668   */\n      mstore\n        /* \"#utility.yul\":23702:23711   */\n      0x7374657265642e00000000000000000000000000000000000000000000000000\n        /* \"#utility.yul\":23697:23699   */\n      0x20\n        /* \"#utility.yul\":23689:23695   */\n      dup3\n        /* \"#utility.yul\":23685:23700   */\n      add\n        /* \"#utility.yul\":23678:23712   */\n      mstore\n        /* \"#utility.yul\":23493:23719   */\n      pop\n      jump\t// out\n        /* \"#utility.yul\":23725:23889   */\n    tag_271:\n        /* \"#utility.yul\":23865:23881   */\n      0x43616e277420626520656d707479000000000000000000000000000000000000\n        /* \"#utility.yul\":23861:23862   */\n      0x00\n        /* \"#utility.yul\":23853:23859   */\n      dup3\n        /* \"#utility.yul\":23849:23863   */\n      add\n        /* \"#utility.yul\":23842:23882   */\n      mstore\n        /* \"#utility.yul\":23725:23889   */\n      pop\n      jump\t// out\n\n    auxdata: 0xa26469706673582212209b8746532c9a8681bcf8cce4bf9631a85078c9c5e8bbc908a42987d2541e895d64736f6c63430008070033\n}\n",
				"bytecode": {
					"linkReferences": {},
					"object": "608060405260008060006101000a81548160ff0219169083151502179055506000600260146101000a81548160ff02191690831515021790555034801561004557600080fd5b5033600260006101000a81548173ffffffffffffffffffffffffffffffffffffffff021916908373ffffffffffffffffffffffffffffffffffffffff1602179055506117cf806100966000396000f3fe608060405234801561001057600080fd5b50600436106100625760003560e01c8063137967a614610067578063196b2e24146100835780631f6d52c5146100b35780634c0a6af0146100cf57806388feb516146100d9578063fab2f86b146100f5575b600080fd5b610081600480360381019061007c9190610c95565b6100ff565b005b61009d60048036038101906100989190610c4c565b61037a565b6040516100aa919061120a565b60405180910390f35b6100cd60048036038101906100c89190610c4c565b610556565b005b6100d7610659565b005b6100f360048036038101906100ee9190610c4c565b6107be565b005b6100fd6109dc565b005b600260009054906101000a900473ffffffffffffffffffffffffffffffffffffffff1673ffffffffffffffffffffffffffffffffffffffff163373ffffffffffffffffffffffffffffffffffffffff161461018f576040517f08c379a00000000000000000000000000000000000000000000000000000000081526004016101869061102a565b60405180910390fd5b6000825114156101d4576040517f08c379a00000000000000000000000000000000000000000000000000000000081526004016101cb906111aa565b60405180910390fd5b600081511415610219576040517f08c379a00000000000000000000000000000000000000000000000000000000081526004016102109061108a565b60405180910390fd5b600060048260405161022b9190610ff3565b908152602001604051809103902060000180546102479061135c565b905014610289576040517f08c379a00000000000000000000000000000000000000000000000000000000081526004016102809061110a565b60405180910390fd5b6000151560008054906101000a900460ff161515146102dd576040517f08c379a00000000000000000000000000000000000000000000000000000000081526004016102d49061104a565b60405180910390fd5b600381908060018154018082558091505060019003906000526020600020016000909190919091509080519060200190610318929190610adf565b508160048260405161032a9190610ff3565b9081526020016040518091039020600001908051906020019061034e929190610adf565b5060006004826040516103619190610ff3565b9081526020016040518091039020600101819055505050565b610382610b65565b60008251116103c6576040517f08c379a00000000000000000000000000000000000000000000000000000000081526004016103bd9061118a565b60405180910390fd5b60006004836040516103d89190610ff3565b908152602001604051809103902060000180546103f49061135c565b905011610436576040517f08c379a000000000000000000000000000000000000000000000000000000000815260040161042d9061112a565b60405180910390fd5b6001151560008054906101000a900460ff1615151461048a576040517f08c379a0000000000000000000000000000000000000000000000000000000008152600401610481906110ea565b60405180910390fd5b60048260405161049a9190610ff3565b90815260200160405180910390206040518060400160405290816000820180546104c39061135c565b80601f01602080910402602001604051908101604052809291908181526020018280546104ef9061135c565b801561053c5780601f106105115761010080835404028352916020019161053c565b820191906000526020600020905b81548152906001019060200180831161051f57829003601f168201915b505050505081526020016001820154815250509050919050565b60011515600260149054906101000a900460ff161515146105ac576040517f08c379a00000000000000000000000000000000000000000000000000000000081526004016105a39061106a565b60405180910390fd5b60006004826040516105be9190610ff3565b908152602001604051809103902060000180546105da9061135c565b9050141561061d576040517f08c379a0000000000000000000000000000000000000000000000000000000008152600401610614906110aa565b60405180910390fd5b600160048260405161062f9190610ff3565b9081526020016040518091039020600101600082825461064f91906112ba565b9250508190555050565b600260009054906101000a900473ffffffffffffffffffffffffffffffffffffffff1673ffffffffffffffffffffffffffffffffffffffff163373ffffffffffffffffffffffffffffffffffffffff16146106e9576040517f08c379a00000000000000000000000000000000000000000000000000000000081526004016106e09061102a565b60405180910390fd5b600060038054905011610731576040517f08c379a00000000000000000000000000000000000000000000000000000000081526004016107289061116a565b60405180910390fd5b60001515600260149054906101000a900460ff16151514610787576040517f08c379a000000000000000000000000000000000000000000000000000000000815260040161077e9061114a565b60405180910390fd5b6001600260146101000a81548160ff02191690831515021790555060016000806101000a81548160ff021916908315150217905550565b600260009054906101000a900473ffffffffffffffffffffffffffffffffffffffff1673ffffffffffffffffffffffffffffffffffffffff163373ffffffffffffffffffffffffffffffffffffffff161461084e576040517f08c379a00000000000000000000000000000000000000000000000000000000081526004016108459061102a565b60405180910390fd5b600060038054905011610896576040517f08c379a000000000000000000000000000000000000000000000000000000000815260040161088d906111ca565b60405180910390fd5b6000815114156108db576040517f08c379a00000000000000000000000000000000000000000000000000000000081526004016108d2906111ea565b60405180910390fd5b60006004826040516108ed9190610ff3565b908152602001604051809103902060000180546109099061135c565b9050141561094c576040517f08c379a0000000000000000000000000000000000000000000000000000000008152600401610943906110ca565b60405180910390fd5b6000151560008054906101000a900460ff161515146109a0576040517f08c379a00000000000000000000000000000000000000000000000000000000081526004016109979061100a565b60405180910390fd5b6004816040516109b09190610ff3565b9081526020016040518091039020600080820160006109cf9190610b7f565b6001820160009055505050565b600260009054906101000a900473ffffffffffffffffffffffffffffffffffffffff1673ffffffffffffffffffffffffffffffffffffffff163373ffffffffffffffffffffffffffffffffffffffff1614610a6c576040517f08c379a0000000000000000000000000000000000000000000000000000000008152600401610a639061102a565b60405180910390fd5b60011515600260149054906101000a900460ff16151514610ac2576040517f08c379a0000000000000000000000000000000000000000000000000000000008152600401610ab99061106a565b60405180910390fd5b6000600260146101000a81548160ff021916908315150217905550565b828054610aeb9061135c565b90600052602060002090601f016020900481019282610b0d5760008555610b54565b82601f10610b2657805160ff1916838001178555610b54565b82800160010185558215610b54579182015b82811115610b53578251825591602001919060010190610b38565b5b509050610b619190610bbf565b5090565b604051806040016040528060608152602001600081525090565b508054610b8b9061135c565b6000825580601f10610b9d5750610bbc565b601f016020900490600052602060002090810190610bbb9190610bbf565b5b50565b5b80821115610bd8576000816000905550600101610bc0565b5090565b6000610bef610bea84611251565b61122c565b905082815260208101848484011115610c0b57610c0a611451565b5b610c1684828561131a565b509392505050565b600082601f830112610c3357610c3261144c565b5b8135610c43848260208601610bdc565b91505092915050565b600060208284031215610c6257610c6161145b565b5b600082013567ffffffffffffffff811115610c8057610c7f611456565b5b610c8c84828501610c1e565b91505092915050565b60008060408385031215610cac57610cab61145b565b5b600083013567ffffffffffffffff811115610cca57610cc9611456565b5b610cd685828601610c1e565b925050602083013567ffffffffffffffff811115610cf757610cf6611456565b5b610d0385828601610c1e565b9150509250929050565b6000610d1882611282565b610d22818561128d565b9350610d32818560208601611329565b610d3b81611460565b840191505092915050565b6000610d5182611282565b610d5b81856112af565b9350610d6b818560208601611329565b80840191505092915050565b6000610d84601b8361129e565b9150610d8f82611471565b602082019050919050565b6000610da760148361129e565b9150610db28261149a565b602082019050919050565b6000610dca60288361129e565b9150610dd5826114c3565b604082019050919050565b6000610ded60178361129e565b9150610df882611512565b602082019050919050565b6000610e1060158361129e565b9150610e1b8261153b565b602082019050919050565b6000610e3360118361129e565b9150610e3e82611564565b602082019050919050565b6000610e5660168361129e565b9150610e618261158d565b602082019050919050565b6000610e7960278361129e565b9150610e84826115b6565b604082019050919050565b6000610e9c601e8361129e565b9150610ea782611605565b602082019050919050565b6000610ebf600f8361129e565b9150610eca8261162e565b602082019050919050565b6000610ee260108361129e565b9150610eed82611657565b602082019050919050565b6000610f0560278361129e565b9150610f1082611680565b604082019050919050565b6000610f28600d8361129e565b9150610f33826116cf565b602082019050919050565b6000610f4b60138361129e565b9150610f56826116f8565b602082019050919050565b6000610f6e60278361129e565b9150610f7982611721565b604082019050919050565b6000610f91600e8361129e565b9150610f9c82611770565b602082019050919050565b60006040830160008301518482036000860152610fc48282610d0d565b9150506020830151610fd96020860182610fe4565b508091505092915050565b610fed81611310565b82525050565b6000610fff8284610d46565b915081905092915050565b6000602082019050818103600083015261102381610d77565b9050919050565b6000602082019050818103600083015261104381610d9a565b9050919050565b6000602082019050818103600083015261106381610dbd565b9050919050565b6000602082019050818103600083015261108381610de0565b9050919050565b600060208201905081810360008301526110a381610e03565b9050919050565b600060208201905081810360008301526110c381610e26565b9050919050565b600060208201905081810360008301526110e381610e49565b9050919050565b6000602082019050818103600083015261110381610e6c565b9050919050565b6000602082019050818103600083015261112381610e8f565b9050919050565b6000602082019050818103600083015261114381610eb2565b9050919050565b6000602082019050818103600083015261116381610ed5565b9050919050565b6000602082019050818103600083015261118381610ef8565b9050919050565b600060208201905081810360008301526111a381610f1b565b9050919050565b600060208201905081810360008301526111c381610f3e565b9050919050565b600060208201905081810360008301526111e381610f61565b9050919050565b6000602082019050818103600083015261120381610f84565b9050919050565b600060208201905081810360008301526112248184610fa7565b905092915050565b6000611236611247565b9050611242828261138e565b919050565b6000604051905090565b600067ffffffffffffffff82111561126c5761126b61141d565b5b61127582611460565b9050602081019050919050565b600081519050919050565b600082825260208201905092915050565b600082825260208201905092915050565b600081905092915050565b60006112c582611310565b91506112d083611310565b9250827fffffffffffffffffffffffffffffffffffffffffffffffffffffffffffffffff03821115611305576113046113bf565b5b828201905092915050565b6000819050919050565b82818337600083830152505050565b60005b8381101561134757808201518184015260208101905061132c565b83811115611356576000848401525b50505050565b6000600282049050600182168061137457607f821691505b60208210811415611388576113876113ee565b5b50919050565b61139782611460565b810181811067ffffffffffffffff821117156113b6576113b561141d565b5b80604052505050565b7f4e487b7100000000000000000000000000000000000000000000000000000000600052601160045260246000fd5b7f4e487b7100000000000000000000000000000000000000000000000000000000600052602260045260246000fd5b7f4e487b7100000000000000000000000000000000000000000000000000000000600052604160045260246000fd5b600080fd5b600080fd5b600080fd5b600080fd5b6000601f19601f8301169050919050565b7f596f752063616e27742072656d6f76652063616e6469646174652e0000000000600082015250565b7f556e617574686f72697a6564204163636573732e000000000000000000000000600082015250565b7f43616e64696461746520726567697374726174696f6e20776173206e6f74207060008201527f6f737369626c652e000000000000000000000000000000000000000000000000602082015250565b7f566f74696e67206e6f742073746172746564207965742e000000000000000000600082015250565b7f53796d626f6c2063616e277420626520656d7074790000000000000000000000600082015250565b7f53796d626f6c206e6f7420666f756e642e000000000000000000000000000000600082015250565b7f53796d626f6c206e6f7420726567697374657265642e00000000000000000000600082015250565b7f466f72207265636f726420766f74696e67206d7573742062652073746172746560008201527f64206f6e63652e00000000000000000000000000000000000000000000000000602082015250565b7f546869732053796d626f6c2077617320616c72656164792074616b656e2e0000600082015250565b7f4e6f205265636f726420466f756e640000000000000000000000000000000000600082015250565b7f416c726561647920537461727465642e00000000000000000000000000000000600082015250565b7f41746c6561737420322063616e646964617465206d757374206265207265676960008201527f7374657265642e00000000000000000000000000000000000000000000000000602082015250565b7f496e76616c696420496e70757400000000000000000000000000000000000000600082015250565b7f4e616d652043616e277420626520656d70747900000000000000000000000000600082015250565b7f41746c6561737420312063616e646964617465206d757374206265207265676960008201527f7374657265642e00000000000000000000000000000000000000000000000000602082015250565b7f43616e277420626520656d70747900000000000000000000000000000000000060008201525056fea26469706673582212209b8746532c9a8681bcf8cce4bf9631a85078c9c5e8bbc908a42987d2541e895d64736f6c63430008070033",
					"opcodes": "PUSH1 0x80 PUSH1 0x40 MSTORE PUSH1 0x0 DUP1 PUSH1 0x0 PUSH2 0x100 EXP DUP2 SLOAD DUP2 PUSH1 0xFF MUL NOT AND SWAP1 DUP4 ISZERO ISZERO MUL OR SWAP1 SSTORE POP PUSH1 0x0 PUSH1 0x2 PUSH1 0x14 PUSH2 0x100 EXP DUP2 SLOAD DUP2 PUSH1 0xFF MUL NOT AND SWAP1 DUP4 ISZERO ISZERO MUL OR SWAP1 SSTORE POP CALLVALUE DUP1 ISZERO PUSH2 0x45 JUMPI PUSH1 0x0 DUP1 REVERT JUMPDEST POP CALLER PUSH1 0x2 PUSH1 0x0 PUSH2 0x100 EXP DUP2 SLOAD DUP2 PUSH20 0xFFFFFFFFFFFFFFFFFFFFFFFFFFFFFFFFFFFFFFFF MUL NOT AND SWAP1 DUP4 PUSH20 0xFFFFFFFFFFFFFFFFFFFFFFFFFFFFFFFFFFFFFFFF AND MUL OR SWAP1 SSTORE POP PUSH2 0x17CF DUP1 PUSH2 0x96 PUSH1 0x0 CODECOPY PUSH1 0x0 RETURN INVALID PUSH1 0x80 PUSH1 0x40 MSTORE CALLVALUE DUP1 ISZERO PUSH2 0x10 JUMPI PUSH1 0x0 DUP1 REVERT JUMPDEST POP PUSH1 0x4 CALLDATASIZE LT PUSH2 0x62 JUMPI PUSH1 0x0 CALLDATALOAD PUSH1 0xE0 SHR DUP1 PUSH4 0x137967A6 EQ PUSH2 0x67 JUMPI DUP1 PUSH4 0x196B2E24 EQ PUSH2 0x83 JUMPI DUP1 PUSH4 0x1F6D52C5 EQ PUSH2 0xB3 JUMPI DUP1 PUSH4 0x4C0A6AF0 EQ PUSH2 0xCF JUMPI DUP1 PUSH4 0x88FEB516 EQ PUSH2 0xD9 JUMPI DUP1 PUSH4 0xFAB2F86B EQ PUSH2 0xF5 JUMPI JUMPDEST PUSH1 0x0 DUP1 REVERT JUMPDEST PUSH2 0x81 PUSH1 0x4 DUP1 CALLDATASIZE SUB DUP2 ADD SWAP1 PUSH2 0x7C SWAP2 SWAP1 PUSH2 0xC95 JUMP JUMPDEST PUSH2 0xFF JUMP JUMPDEST STOP JUMPDEST PUSH2 0x9D PUSH1 0x4 DUP1 CALLDATASIZE SUB DUP2 ADD SWAP1 PUSH2 0x98 SWAP2 SWAP1 PUSH2 0xC4C JUMP JUMPDEST PUSH2 0x37A JUMP JUMPDEST PUSH1 0x40 MLOAD PUSH2 0xAA SWAP2 SWAP1 PUSH2 0x120A JUMP JUMPDEST PUSH1 0x40 MLOAD DUP1 SWAP2 SUB SWAP1 RETURN JUMPDEST PUSH2 0xCD PUSH1 0x4 DUP1 CALLDATASIZE SUB DUP2 ADD SWAP1 PUSH2 0xC8 SWAP2 SWAP1 PUSH2 0xC4C JUMP JUMPDEST PUSH2 0x556 JUMP JUMPDEST STOP JUMPDEST PUSH2 0xD7 PUSH2 0x659 JUMP JUMPDEST STOP JUMPDEST PUSH2 0xF3 PUSH1 0x4 DUP1 CALLDATASIZE SUB DUP2 ADD SWAP1 PUSH2 0xEE SWAP2 SWAP1 PUSH2 0xC4C JUMP JUMPDEST PUSH2 0x7BE JUMP JUMPDEST STOP JUMPDEST PUSH2 0xFD PUSH2 0x9DC JUMP JUMPDEST STOP JUMPDEST PUSH1 0x2 PUSH1 0x0 SWAP1 SLOAD SWAP1 PUSH2 0x100 EXP SWAP1 DIV PUSH20 0xFFFFFFFFFFFFFFFFFFFFFFFFFFFFFFFFFFFFFFFF AND PUSH20 0xFFFFFFFFFFFFFFFFFFFFFFFFFFFFFFFFFFFFFFFF AND CALLER PUSH20 0xFFFFFFFFFFFFFFFFFFFFFFFFFFFFFFFFFFFFFFFF AND EQ PUSH2 0x18F JUMPI PUSH1 0x40 MLOAD PUSH32 0x8C379A000000000000000000000000000000000000000000000000000000000 DUP2 MSTORE PUSH1 0x4 ADD PUSH2 0x186 SWAP1 PUSH2 0x102A JUMP JUMPDEST PUSH1 0x40 MLOAD DUP1 SWAP2 SUB SWAP1 REVERT JUMPDEST PUSH1 0x0 DUP3 MLOAD EQ ISZERO PUSH2 0x1D4 JUMPI PUSH1 0x40 MLOAD PUSH32 0x8C379A000000000000000000000000000000000000000000000000000000000 DUP2 MSTORE PUSH1 0x4 ADD PUSH2 0x1CB SWAP1 PUSH2 0x11AA JUMP JUMPDEST PUSH1 0x40 MLOAD DUP1 SWAP2 SUB SWAP1 REVERT JUMPDEST PUSH1 0x0 DUP2 MLOAD EQ ISZERO PUSH2 0x219 JUMPI PUSH1 0x40 MLOAD PUSH32 0x8C379A000000000000000000000000000000000000000000000000000000000 DUP2 MSTORE PUSH1 0x4 ADD PUSH2 0x210 SWAP1 PUSH2 0x108A JUMP JUMPDEST PUSH1 0x40 MLOAD DUP1 SWAP2 SUB SWAP1 REVERT JUMPDEST PUSH1 0x0 PUSH1 0x4 DUP3 PUSH1 0x40 MLOAD PUSH2 0x22B SWAP2 SWAP1 PUSH2 0xFF3 JUMP JUMPDEST SWAP1 DUP2 MSTORE PUSH1 0x20 ADD PUSH1 0x40 MLOAD DUP1 SWAP2 SUB SWAP1 KECCAK256 PUSH1 0x0 ADD DUP1 SLOAD PUSH2 0x247 SWAP1 PUSH2 0x135C JUMP JUMPDEST SWAP1 POP EQ PUSH2 0x289 JUMPI PUSH1 0x40 MLOAD PUSH32 0x8C379A000000000000000000000000000000000000000000000000000000000 DUP2 MSTORE PUSH1 0x4 ADD PUSH2 0x280 SWAP1 PUSH2 0x110A JUMP JUMPDEST PUSH1 0x40 MLOAD DUP1 SWAP2 SUB SWAP1 REVERT JUMPDEST PUSH1 0x0 ISZERO ISZERO PUSH1 0x0 DUP1 SLOAD SWAP1 PUSH2 0x100 EXP SWAP1 DIV PUSH1 0xFF AND ISZERO ISZERO EQ PUSH2 0x2DD JUMPI PUSH1 0x40 MLOAD PUSH32 0x8C379A000000000000000000000000000000000000000000000000000000000 DUP2 MSTORE PUSH1 0x4 ADD PUSH2 0x2D4 SWAP1 PUSH2 0x104A JUMP JUMPDEST PUSH1 0x40 MLOAD DUP1 SWAP2 SUB SWAP1 REVERT JUMPDEST PUSH1 0x3 DUP2 SWAP1 DUP1 PUSH1 0x1 DUP2 SLOAD ADD DUP1 DUP3 SSTORE DUP1 SWAP2 POP POP PUSH1 0x1 SWAP1 SUB SWAP1 PUSH1 0x0 MSTORE PUSH1 0x20 PUSH1 0x0 KECCAK256 ADD PUSH1 0x0 SWAP1 SWAP2 SWAP1 SWAP2 SWAP1 SWAP2 POP SWAP1 DUP1 MLOAD SWAP1 PUSH1 0x20 ADD SWAP1 PUSH2 0x318 SWAP3 SWAP2 SWAP1 PUSH2 0xADF JUMP JUMPDEST POP DUP2 PUSH1 0x4 DUP3 PUSH1 0x40 MLOAD PUSH2 0x32A SWAP2 SWAP1 PUSH2 0xFF3 JUMP JUMPDEST SWAP1 DUP2 MSTORE PUSH1 0x20 ADD PUSH1 0x40 MLOAD DUP1 SWAP2 SUB SWAP1 KECCAK256 PUSH1 0x0 ADD SWAP1 DUP1 MLOAD SWAP1 PUSH1 0x20 ADD SWAP1 PUSH2 0x34E SWAP3 SWAP2 SWAP1 PUSH2 0xADF JUMP JUMPDEST POP PUSH1 0x0 PUSH1 0x4 DUP3 PUSH1 0x40 MLOAD PUSH2 0x361 SWAP2 SWAP1 PUSH2 0xFF3 JUMP JUMPDEST SWAP1 DUP2 MSTORE PUSH1 0x20 ADD PUSH1 0x40 MLOAD DUP1 SWAP2 SUB SWAP1 KECCAK256 PUSH1 0x1 ADD DUP2 SWAP1 SSTORE POP POP POP JUMP JUMPDEST PUSH2 0x382 PUSH2 0xB65 JUMP JUMPDEST PUSH1 0x0 DUP3 MLOAD GT PUSH2 0x3C6 JUMPI PUSH1 0x40 MLOAD PUSH32 0x8C379A000000000000000000000000000000000000000000000000000000000 DUP2 MSTORE PUSH1 0x4 ADD PUSH2 0x3BD SWAP1 PUSH2 0x118A JUMP JUMPDEST PUSH1 0x40 MLOAD DUP1 SWAP2 SUB SWAP1 REVERT JUMPDEST PUSH1 0x0 PUSH1 0x4 DUP4 PUSH1 0x40 MLOAD PUSH2 0x3D8 SWAP2 SWAP1 PUSH2 0xFF3 JUMP JUMPDEST SWAP1 DUP2 MSTORE PUSH1 0x20 ADD PUSH1 0x40 MLOAD DUP1 SWAP2 SUB SWAP1 KECCAK256 PUSH1 0x0 ADD DUP1 SLOAD PUSH2 0x3F4 SWAP1 PUSH2 0x135C JUMP JUMPDEST SWAP1 POP GT PUSH2 0x436 JUMPI PUSH1 0x40 MLOAD PUSH32 0x8C379A000000000000000000000000000000000000000000000000000000000 DUP2 MSTORE PUSH1 0x4 ADD PUSH2 0x42D SWAP1 PUSH2 0x112A JUMP JUMPDEST PUSH1 0x40 MLOAD DUP1 SWAP2 SUB SWAP1 REVERT JUMPDEST PUSH1 0x1 ISZERO ISZERO PUSH1 0x0 DUP1 SLOAD SWAP1 PUSH2 0x100 EXP SWAP1 DIV PUSH1 0xFF AND ISZERO ISZERO EQ PUSH2 0x48A JUMPI PUSH1 0x40 MLOAD PUSH32 0x8C379A000000000000000000000000000000000000000000000000000000000 DUP2 MSTORE PUSH1 0x4 ADD PUSH2 0x481 SWAP1 PUSH2 0x10EA JUMP JUMPDEST PUSH1 0x40 MLOAD DUP1 SWAP2 SUB SWAP1 REVERT JUMPDEST PUSH1 0x4 DUP3 PUSH1 0x40 MLOAD PUSH2 0x49A SWAP2 SWAP1 PUSH2 0xFF3 JUMP JUMPDEST SWAP1 DUP2 MSTORE PUSH1 0x20 ADD PUSH1 0x40 MLOAD DUP1 SWAP2 SUB SWAP1 KECCAK256 PUSH1 0x40 MLOAD DUP1 PUSH1 0x40 ADD PUSH1 0x40 MSTORE SWAP1 DUP2 PUSH1 0x0 DUP3 ADD DUP1 SLOAD PUSH2 0x4C3 SWAP1 PUSH2 0x135C JUMP JUMPDEST DUP1 PUSH1 0x1F ADD PUSH1 0x20 DUP1 SWAP2 DIV MUL PUSH1 0x20 ADD PUSH1 0x40 MLOAD SWAP1 DUP2 ADD PUSH1 0x40 MSTORE DUP1 SWAP3 SWAP2 SWAP1 DUP2 DUP2 MSTORE PUSH1 0x20 ADD DUP3 DUP1 SLOAD PUSH2 0x4EF SWAP1 PUSH2 0x135C JUMP JUMPDEST DUP1 ISZERO PUSH2 0x53C JUMPI DUP1 PUSH1 0x1F LT PUSH2 0x511 JUMPI PUSH2 0x100 DUP1 DUP4 SLOAD DIV MUL DUP4 MSTORE SWAP2 PUSH1 0x20 ADD SWAP2 PUSH2 0x53C JUMP JUMPDEST DUP3 ADD SWAP2 SWAP1 PUSH1 0x0 MSTORE PUSH1 0x20 PUSH1 0x0 KECCAK256 SWAP1 JUMPDEST DUP2 SLOAD DUP2 MSTORE SWAP1 PUSH1 0x1 ADD SWAP1 PUSH1 0x20 ADD DUP1 DUP4 GT PUSH2 0x51F JUMPI DUP3 SWAP1 SUB PUSH1 0x1F AND DUP3 ADD SWAP2 JUMPDEST POP POP POP POP POP DUP2 MSTORE PUSH1 0x20 ADD PUSH1 0x1 DUP3 ADD SLOAD DUP2 MSTORE POP POP SWAP1 POP SWAP2 SWAP1 POP JUMP JUMPDEST PUSH1 0x1 ISZERO ISZERO PUSH1 0x2 PUSH1 0x14 SWAP1 SLOAD SWAP1 PUSH2 0x100 EXP SWAP1 DIV PUSH1 0xFF AND ISZERO ISZERO EQ PUSH2 0x5AC JUMPI PUSH1 0x40 MLOAD PUSH32 0x8C379A000000000000000000000000000000000000000000000000000000000 DUP2 MSTORE PUSH1 0x4 ADD PUSH2 0x5A3 SWAP1 PUSH2 0x106A JUMP JUMPDEST PUSH1 0x40 MLOAD DUP1 SWAP2 SUB SWAP1 REVERT JUMPDEST PUSH1 0x0 PUSH1 0x4 DUP3 PUSH1 0x40 MLOAD PUSH2 0x5BE SWAP2 SWAP1 PUSH2 0xFF3 JUMP JUMPDEST SWAP1 DUP2 MSTORE PUSH1 0x20 ADD PUSH1 0x40 MLOAD DUP1 SWAP2 SUB SWAP1 KECCAK256 PUSH1 0x0 ADD DUP1 SLOAD PUSH2 0x5DA SWAP1 PUSH2 0x135C JUMP JUMPDEST SWAP1 POP EQ ISZERO PUSH2 0x61D JUMPI PUSH1 0x40 MLOAD PUSH32 0x8C379A000000000000000000000000000000000000000000000000000000000 DUP2 MSTORE PUSH1 0x4 ADD PUSH2 0x614 SWAP1 PUSH2 0x10AA JUMP JUMPDEST PUSH1 0x40 MLOAD DUP1 SWAP2 SUB SWAP1 REVERT JUMPDEST PUSH1 0x1 PUSH1 0x4 DUP3 PUSH1 0x40 MLOAD PUSH2 0x62F SWAP2 SWAP1 PUSH2 0xFF3 JUMP JUMPDEST SWAP1 DUP2 MSTORE PUSH1 0x20 ADD PUSH1 0x40 MLOAD DUP1 SWAP2 SUB SWAP1 KECCAK256 PUSH1 0x1 ADD PUSH1 0x0 DUP3 DUP3 SLOAD PUSH2 0x64F SWAP2 SWAP1 PUSH2 0x12BA JUMP JUMPDEST SWAP3 POP POP DUP2 SWAP1 SSTORE POP POP JUMP JUMPDEST PUSH1 0x2 PUSH1 0x0 SWAP1 SLOAD SWAP1 PUSH2 0x100 EXP SWAP1 DIV PUSH20 0xFFFFFFFFFFFFFFFFFFFFFFFFFFFFFFFFFFFFFFFF AND PUSH20 0xFFFFFFFFFFFFFFFFFFFFFFFFFFFFFFFFFFFFFFFF AND CALLER PUSH20 0xFFFFFFFFFFFFFFFFFFFFFFFFFFFFFFFFFFFFFFFF AND EQ PUSH2 0x6E9 JUMPI PUSH1 0x40 MLOAD PUSH32 0x8C379A000000000000000000000000000000000000000000000000000000000 DUP2 MSTORE PUSH1 0x4 ADD PUSH2 0x6E0 SWAP1 PUSH2 0x102A JUMP JUMPDEST PUSH1 0x40 MLOAD DUP1 SWAP2 SUB SWAP1 REVERT JUMPDEST PUSH1 0x0 PUSH1 0x3 DUP1 SLOAD SWAP1 POP GT PUSH2 0x731 JUMPI PUSH1 0x40 MLOAD PUSH32 0x8C379A000000000000000000000000000000000000000000000000000000000 DUP2 MSTORE PUSH1 0x4 ADD PUSH2 0x728 SWAP1 PUSH2 0x116A JUMP JUMPDEST PUSH1 0x40 MLOAD DUP1 SWAP2 SUB SWAP1 REVERT JUMPDEST PUSH1 0x0 ISZERO ISZERO PUSH1 0x2 PUSH1 0x14 SWAP1 SLOAD SWAP1 PUSH2 0x100 EXP SWAP1 DIV PUSH1 0xFF AND ISZERO ISZERO EQ PUSH2 0x787 JUMPI PUSH1 0x40 MLOAD PUSH32 0x8C379A000000000000000000000000000000000000000000000000000000000 DUP2 MSTORE PUSH1 0x4 ADD PUSH2 0x77E SWAP1 PUSH2 0x114A JUMP JUMPDEST PUSH1 0x40 MLOAD DUP1 SWAP2 SUB SWAP1 REVERT JUMPDEST PUSH1 0x1 PUSH1 0x2 PUSH1 0x14 PUSH2 0x100 EXP DUP2 SLOAD DUP2 PUSH1 0xFF MUL NOT AND SWAP1 DUP4 ISZERO ISZERO MUL OR SWAP1 SSTORE POP PUSH1 0x1 PUSH1 0x0 DUP1 PUSH2 0x100 EXP DUP2 SLOAD DUP2 PUSH1 0xFF MUL NOT AND SWAP1 DUP4 ISZERO ISZERO MUL OR SWAP1 SSTORE POP JUMP JUMPDEST PUSH1 0x2 PUSH1 0x0 SWAP1 SLOAD SWAP1 PUSH2 0x100 EXP SWAP1 DIV PUSH20 0xFFFFFFFFFFFFFFFFFFFFFFFFFFFFFFFFFFFFFFFF AND PUSH20 0xFFFFFFFFFFFFFFFFFFFFFFFFFFFFFFFFFFFFFFFF AND CALLER PUSH20 0xFFFFFFFFFFFFFFFFFFFFFFFFFFFFFFFFFFFFFFFF AND EQ PUSH2 0x84E JUMPI PUSH1 0x40 MLOAD PUSH32 0x8C379A000000000000000000000000000000000000000000000000000000000 DUP2 MSTORE PUSH1 0x4 ADD PUSH2 0x845 SWAP1 PUSH2 0x102A JUMP JUMPDEST PUSH1 0x40 MLOAD DUP1 SWAP2 SUB SWAP1 REVERT JUMPDEST PUSH1 0x0 PUSH1 0x3 DUP1 SLOAD SWAP1 POP GT PUSH2 0x896 JUMPI PUSH1 0x40 MLOAD PUSH32 0x8C379A000000000000000000000000000000000000000000000000000000000 DUP2 MSTORE PUSH1 0x4 ADD PUSH2 0x88D SWAP1 PUSH2 0x11CA JUMP JUMPDEST PUSH1 0x40 MLOAD DUP1 SWAP2 SUB SWAP1 REVERT JUMPDEST PUSH1 0x0 DUP2 MLOAD EQ ISZERO PUSH2 0x8DB JUMPI PUSH1 0x40 MLOAD PUSH32 0x8C379A000000000000000000000000000000000000000000000000000000000 DUP2 MSTORE PUSH1 0x4 ADD PUSH2 0x8D2 SWAP1 PUSH2 0x11EA JUMP JUMPDEST PUSH1 0x40 MLOAD DUP1 SWAP2 SUB SWAP1 REVERT JUMPDEST PUSH1 0x0 PUSH1 0x4 DUP3 PUSH1 0x40 MLOAD PUSH2 0x8ED SWAP2 SWAP1 PUSH2 0xFF3 JUMP JUMPDEST SWAP1 DUP2 MSTORE PUSH1 0x20 ADD PUSH1 0x40 MLOAD DUP1 SWAP2 SUB SWAP1 KECCAK256 PUSH1 0x0 ADD DUP1 SLOAD PUSH2 0x909 SWAP1 PUSH2 0x135C JUMP JUMPDEST SWAP1 POP EQ ISZERO PUSH2 0x94C JUMPI PUSH1 0x40 MLOAD PUSH32 0x8C379A000000000000000000000000000000000000000000000000000000000 DUP2 MSTORE PUSH1 0x4 ADD PUSH2 0x943 SWAP1 PUSH2 0x10CA JUMP JUMPDEST PUSH1 0x40 MLOAD DUP1 SWAP2 SUB SWAP1 REVERT JUMPDEST PUSH1 0x0 ISZERO ISZERO PUSH1 0x0 DUP1 SLOAD SWAP1 PUSH2 0x100 EXP SWAP1 DIV PUSH1 0xFF AND ISZERO ISZERO EQ PUSH2 0x9A0 JUMPI PUSH1 0x40 MLOAD PUSH32 0x8C379A000000000000000000000000000000000000000000000000000000000 DUP2 MSTORE PUSH1 0x4 ADD PUSH2 0x997 SWAP1 PUSH2 0x100A JUMP JUMPDEST PUSH1 0x40 MLOAD DUP1 SWAP2 SUB SWAP1 REVERT JUMPDEST PUSH1 0x4 DUP2 PUSH1 0x40 MLOAD PUSH2 0x9B0 SWAP2 SWAP1 PUSH2 0xFF3 JUMP JUMPDEST SWAP1 DUP2 MSTORE PUSH1 0x20 ADD PUSH1 0x40 MLOAD DUP1 SWAP2 SUB SWAP1 KECCAK256 PUSH1 0x0 DUP1 DUP3 ADD PUSH1 0x0 PUSH2 0x9CF SWAP2 SWAP1 PUSH2 0xB7F JUMP JUMPDEST PUSH1 0x1 DUP3 ADD PUSH1 0x0 SWAP1 SSTORE POP POP POP JUMP JUMPDEST PUSH1 0x2 PUSH1 0x0 SWAP1 SLOAD SWAP1 PUSH2 0x100 EXP SWAP1 DIV PUSH20 0xFFFFFFFFFFFFFFFFFFFFFFFFFFFFFFFFFFFFFFFF AND PUSH20 0xFFFFFFFFFFFFFFFFFFFFFFFFFFFFFFFFFFFFFFFF AND CALLER PUSH20 0xFFFFFFFFFFFFFFFFFFFFFFFFFFFFFFFFFFFFFFFF AND EQ PUSH2 0xA6C JUMPI PUSH1 0x40 MLOAD PUSH32 0x8C379A000000000000000000000000000000000000000000000000000000000 DUP2 MSTORE PUSH1 0x4 ADD PUSH2 0xA63 SWAP1 PUSH2 0x102A JUMP JUMPDEST PUSH1 0x40 MLOAD DUP1 SWAP2 SUB SWAP1 REVERT JUMPDEST PUSH1 0x1 ISZERO ISZERO PUSH1 0x2 PUSH1 0x14 SWAP1 SLOAD SWAP1 PUSH2 0x100 EXP SWAP1 DIV PUSH1 0xFF AND ISZERO ISZERO EQ PUSH2 0xAC2 JUMPI PUSH1 0x40 MLOAD PUSH32 0x8C379A000000000000000000000000000000000000000000000000000000000 DUP2 MSTORE PUSH1 0x4 ADD PUSH2 0xAB9 SWAP1 PUSH2 0x106A JUMP JUMPDEST PUSH1 0x40 MLOAD DUP1 SWAP2 SUB SWAP1 REVERT JUMPDEST PUSH1 0x0 PUSH1 0x2 PUSH1 0x14 PUSH2 0x100 EXP DUP2 SLOAD DUP2 PUSH1 0xFF MUL NOT AND SWAP1 DUP4 ISZERO ISZERO MUL OR SWAP1 SSTORE POP JUMP JUMPDEST DUP3 DUP1 SLOAD PUSH2 0xAEB SWAP1 PUSH2 0x135C JUMP JUMPDEST SWAP1 PUSH1 0x0 MSTORE PUSH1 0x20 PUSH1 0x0 KECCAK256 SWAP1 PUSH1 0x1F ADD PUSH1 0x20 SWAP1 DIV DUP2 ADD SWAP3 DUP3 PUSH2 0xB0D JUMPI PUSH1 0x0 DUP6 SSTORE PUSH2 0xB54 JUMP JUMPDEST DUP3 PUSH1 0x1F LT PUSH2 0xB26 JUMPI DUP1 MLOAD PUSH1 0xFF NOT AND DUP4 DUP1 ADD OR DUP6 SSTORE PUSH2 0xB54 JUMP JUMPDEST DUP3 DUP1 ADD PUSH1 0x1 ADD DUP6 SSTORE DUP3 ISZERO PUSH2 0xB54 JUMPI SWAP2 DUP3 ADD JUMPDEST DUP3 DUP2 GT ISZERO PUSH2 0xB53 JUMPI DUP3 MLOAD DUP3 SSTORE SWAP2 PUSH1 0x20 ADD SWAP2 SWAP1 PUSH1 0x1 ADD SWAP1 PUSH2 0xB38 JUMP JUMPDEST JUMPDEST POP SWAP1 POP PUSH2 0xB61 SWAP2 SWAP1 PUSH2 0xBBF JUMP JUMPDEST POP SWAP1 JUMP JUMPDEST PUSH1 0x40 MLOAD DUP1 PUSH1 0x40 ADD PUSH1 0x40 MSTORE DUP1 PUSH1 0x60 DUP2 MSTORE PUSH1 0x20 ADD PUSH1 0x0 DUP2 MSTORE POP SWAP1 JUMP JUMPDEST POP DUP1 SLOAD PUSH2 0xB8B SWAP1 PUSH2 0x135C JUMP JUMPDEST PUSH1 0x0 DUP3 SSTORE DUP1 PUSH1 0x1F LT PUSH2 0xB9D JUMPI POP PUSH2 0xBBC JUMP JUMPDEST PUSH1 0x1F ADD PUSH1 0x20 SWAP1 DIV SWAP1 PUSH1 0x0 MSTORE PUSH1 0x20 PUSH1 0x0 KECCAK256 SWAP1 DUP2 ADD SWAP1 PUSH2 0xBBB SWAP2 SWAP1 PUSH2 0xBBF JUMP JUMPDEST JUMPDEST POP JUMP JUMPDEST JUMPDEST DUP1 DUP3 GT ISZERO PUSH2 0xBD8 JUMPI PUSH1 0x0 DUP2 PUSH1 0x0 SWAP1 SSTORE POP PUSH1 0x1 ADD PUSH2 0xBC0 JUMP JUMPDEST POP SWAP1 JUMP JUMPDEST PUSH1 0x0 PUSH2 0xBEF PUSH2 0xBEA DUP5 PUSH2 0x1251 JUMP JUMPDEST PUSH2 0x122C JUMP JUMPDEST SWAP1 POP DUP3 DUP2 MSTORE PUSH1 0x20 DUP2 ADD DUP5 DUP5 DUP5 ADD GT ISZERO PUSH2 0xC0B JUMPI PUSH2 0xC0A PUSH2 0x1451 JUMP JUMPDEST JUMPDEST PUSH2 0xC16 DUP5 DUP3 DUP6 PUSH2 0x131A JUMP JUMPDEST POP SWAP4 SWAP3 POP POP POP JUMP JUMPDEST PUSH1 0x0 DUP3 PUSH1 0x1F DUP4 ADD SLT PUSH2 0xC33 JUMPI PUSH2 0xC32 PUSH2 0x144C JUMP JUMPDEST JUMPDEST DUP2 CALLDATALOAD PUSH2 0xC43 DUP5 DUP3 PUSH1 0x20 DUP7 ADD PUSH2 0xBDC JUMP JUMPDEST SWAP2 POP POP SWAP3 SWAP2 POP POP JUMP JUMPDEST PUSH1 0x0 PUSH1 0x20 DUP3 DUP5 SUB SLT ISZERO PUSH2 0xC62 JUMPI PUSH2 0xC61 PUSH2 0x145B JUMP JUMPDEST JUMPDEST PUSH1 0x0 DUP3 ADD CALLDATALOAD PUSH8 0xFFFFFFFFFFFFFFFF DUP2 GT ISZERO PUSH2 0xC80 JUMPI PUSH2 0xC7F PUSH2 0x1456 JUMP JUMPDEST JUMPDEST PUSH2 0xC8C DUP5 DUP3 DUP6 ADD PUSH2 0xC1E JUMP JUMPDEST SWAP2 POP POP SWAP3 SWAP2 POP POP JUMP JUMPDEST PUSH1 0x0 DUP1 PUSH1 0x40 DUP4 DUP6 SUB SLT ISZERO PUSH2 0xCAC JUMPI PUSH2 0xCAB PUSH2 0x145B JUMP JUMPDEST JUMPDEST PUSH1 0x0 DUP4 ADD CALLDATALOAD PUSH8 0xFFFFFFFFFFFFFFFF DUP2 GT ISZERO PUSH2 0xCCA JUMPI PUSH2 0xCC9 PUSH2 0x1456 JUMP JUMPDEST JUMPDEST PUSH2 0xCD6 DUP6 DUP3 DUP7 ADD PUSH2 0xC1E JUMP JUMPDEST SWAP3 POP POP PUSH1 0x20 DUP4 ADD CALLDATALOAD PUSH8 0xFFFFFFFFFFFFFFFF DUP2 GT ISZERO PUSH2 0xCF7 JUMPI PUSH2 0xCF6 PUSH2 0x1456 JUMP JUMPDEST JUMPDEST PUSH2 0xD03 DUP6 DUP3 DUP7 ADD PUSH2 0xC1E JUMP JUMPDEST SWAP2 POP POP SWAP3 POP SWAP3 SWAP1 POP JUMP JUMPDEST PUSH1 0x0 PUSH2 0xD18 DUP3 PUSH2 0x1282 JUMP JUMPDEST PUSH2 0xD22 DUP2 DUP6 PUSH2 0x128D JUMP JUMPDEST SWAP4 POP PUSH2 0xD32 DUP2 DUP6 PUSH1 0x20 DUP7 ADD PUSH2 0x1329 JUMP JUMPDEST PUSH2 0xD3B DUP2 PUSH2 0x1460 JUMP JUMPDEST DUP5 ADD SWAP2 POP POP SWAP3 SWAP2 POP POP JUMP JUMPDEST PUSH1 0x0 PUSH2 0xD51 DUP3 PUSH2 0x1282 JUMP JUMPDEST PUSH2 0xD5B DUP2 DUP6 PUSH2 0x12AF JUMP JUMPDEST SWAP4 POP PUSH2 0xD6B DUP2 DUP6 PUSH1 0x20 DUP7 ADD PUSH2 0x1329 JUMP JUMPDEST DUP1 DUP5 ADD SWAP2 POP POP SWAP3 SWAP2 POP POP JUMP JUMPDEST PUSH1 0x0 PUSH2 0xD84 PUSH1 0x1B DUP4 PUSH2 0x129E JUMP JUMPDEST SWAP2 POP PUSH2 0xD8F DUP3 PUSH2 0x1471 JUMP JUMPDEST PUSH1 0x20 DUP3 ADD SWAP1 POP SWAP2 SWAP1 POP JUMP JUMPDEST PUSH1 0x0 PUSH2 0xDA7 PUSH1 0x14 DUP4 PUSH2 0x129E JUMP JUMPDEST SWAP2 POP PUSH2 0xDB2 DUP3 PUSH2 0x149A JUMP JUMPDEST PUSH1 0x20 DUP3 ADD SWAP1 POP SWAP2 SWAP1 POP JUMP JUMPDEST PUSH1 0x0 PUSH2 0xDCA PUSH1 0x28 DUP4 PUSH2 0x129E JUMP JUMPDEST SWAP2 POP PUSH2 0xDD5 DUP3 PUSH2 0x14C3 JUMP JUMPDEST PUSH1 0x40 DUP3 ADD SWAP1 POP SWAP2 SWAP1 POP JUMP JUMPDEST PUSH1 0x0 PUSH2 0xDED PUSH1 0x17 DUP4 PUSH2 0x129E JUMP JUMPDEST SWAP2 POP PUSH2 0xDF8 DUP3 PUSH2 0x1512 JUMP JUMPDEST PUSH1 0x20 DUP3 ADD SWAP1 POP SWAP2 SWAP1 POP JUMP JUMPDEST PUSH1 0x0 PUSH2 0xE10 PUSH1 0x15 DUP4 PUSH2 0x129E JUMP JUMPDEST SWAP2 POP PUSH2 0xE1B DUP3 PUSH2 0x153B JUMP JUMPDEST PUSH1 0x20 DUP3 ADD SWAP1 POP SWAP2 SWAP1 POP JUMP JUMPDEST PUSH1 0x0 PUSH2 0xE33 PUSH1 0x11 DUP4 PUSH2 0x129E JUMP JUMPDEST SWAP2 POP PUSH2 0xE3E DUP3 PUSH2 0x1564 JUMP JUMPDEST PUSH1 0x20 DUP3 ADD SWAP1 POP SWAP2 SWAP1 POP JUMP JUMPDEST PUSH1 0x0 PUSH2 0xE56 PUSH1 0x16 DUP4 PUSH2 0x129E JUMP JUMPDEST SWAP2 POP PUSH2 0xE61 DUP3 PUSH2 0x158D JUMP JUMPDEST PUSH1 0x20 DUP3 ADD SWAP1 POP SWAP2 SWAP1 POP JUMP JUMPDEST PUSH1 0x0 PUSH2 0xE79 PUSH1 0x27 DUP4 PUSH2 0x129E JUMP JUMPDEST SWAP2 POP PUSH2 0xE84 DUP3 PUSH2 0x15B6 JUMP JUMPDEST PUSH1 0x40 DUP3 ADD SWAP1 POP SWAP2 SWAP1 POP JUMP JUMPDEST PUSH1 0x0 PUSH2 0xE9C PUSH1 0x1E DUP4 PUSH2 0x129E JUMP JUMPDEST SWAP2 POP PUSH2 0xEA7 DUP3 PUSH2 0x1605 JUMP JUMPDEST PUSH1 0x20 DUP3 ADD SWAP1 POP SWAP2 SWAP1 POP JUMP JUMPDEST PUSH1 0x0 PUSH2 0xEBF PUSH1 0xF DUP4 PUSH2 0x129E JUMP JUMPDEST SWAP2 POP PUSH2 0xECA DUP3 PUSH2 0x162E JUMP JUMPDEST PUSH1 0x20 DUP3 ADD SWAP1 POP SWAP2 SWAP1 POP JUMP JUMPDEST PUSH1 0x0 PUSH2 0xEE2 PUSH1 0x10 DUP4 PUSH2 0x129E JUMP JUMPDEST SWAP2 POP PUSH2 0xEED DUP3 PUSH2 0x1657 JUMP JUMPDEST PUSH1 0x20 DUP3 ADD SWAP1 POP SWAP2 SWAP1 POP JUMP JUMPDEST PUSH1 0x0 PUSH2 0xF05 PUSH1 0x27 DUP4 PUSH2 0x129E JUMP JUMPDEST SWAP2 POP PUSH2 0xF10 DUP3 PUSH2 0x1680 JUMP JUMPDEST PUSH1 0x40 DUP3 ADD SWAP1 POP SWAP2 SWAP1 POP JUMP JUMPDEST PUSH1 0x0 PUSH2 0xF28 PUSH1 0xD DUP4 PUSH2 0x129E JUMP JUMPDEST SWAP2 POP PUSH2 0xF33 DUP3 PUSH2 0x16CF JUMP JUMPDEST PUSH1 0x20 DUP3 ADD SWAP1 POP SWAP2 SWAP1 POP JUMP JUMPDEST PUSH1 0x0 PUSH2 0xF4B PUSH1 0x13 DUP4 PUSH2 0x129E JUMP JUMPDEST SWAP2 POP PUSH2 0xF56 DUP3 PUSH2 0x16F8 JUMP JUMPDEST PUSH1 0x20 DUP3 ADD SWAP1 POP SWAP2 SWAP1 POP JUMP JUMPDEST PUSH1 0x0 PUSH2 0xF6E PUSH1 0x27 DUP4 PUSH2 0x129E JUMP JUMPDEST SWAP2 POP PUSH2 0xF79 DUP3 PUSH2 0x1721 JUMP JUMPDEST PUSH1 0x40 DUP3 ADD SWAP1 POP SWAP2 SWAP1 POP JUMP JUMPDEST PUSH1 0x0 PUSH2 0xF91 PUSH1 0xE DUP4 PUSH2 0x129E JUMP JUMPDEST SWAP2 POP PUSH2 0xF9C DUP3 PUSH2 0x1770 JUMP JUMPDEST PUSH1 0x20 DUP3 ADD SWAP1 POP SWAP2 SWAP1 POP JUMP JUMPDEST PUSH1 0x0 PUSH1 0x40 DUP4 ADD PUSH1 0x0 DUP4 ADD MLOAD DUP5 DUP3 SUB PUSH1 0x0 DUP7 ADD MSTORE PUSH2 0xFC4 DUP3 DUP3 PUSH2 0xD0D JUMP JUMPDEST SWAP2 POP POP PUSH1 0x20 DUP4 ADD MLOAD PUSH2 0xFD9 PUSH1 0x20 DUP7 ADD DUP3 PUSH2 0xFE4 JUMP JUMPDEST POP DUP1 SWAP2 POP POP SWAP3 SWAP2 POP POP JUMP JUMPDEST PUSH2 0xFED DUP2 PUSH2 0x1310 JUMP JUMPDEST DUP3 MSTORE POP POP JUMP JUMPDEST PUSH1 0x0 PUSH2 0xFFF DUP3 DUP5 PUSH2 0xD46 JUMP JUMPDEST SWAP2 POP DUP2 SWAP1 POP SWAP3 SWAP2 POP POP JUMP JUMPDEST PUSH1 0x0 PUSH1 0x20 DUP3 ADD SWAP1 POP DUP2 DUP2 SUB PUSH1 0x0 DUP4 ADD MSTORE PUSH2 0x1023 DUP2 PUSH2 0xD77 JUMP JUMPDEST SWAP1 POP SWAP2 SWAP1 POP JUMP JUMPDEST PUSH1 0x0 PUSH1 0x20 DUP3 ADD SWAP1 POP DUP2 DUP2 SUB PUSH1 0x0 DUP4 ADD MSTORE PUSH2 0x1043 DUP2 PUSH2 0xD9A JUMP JUMPDEST SWAP1 POP SWAP2 SWAP1 POP JUMP JUMPDEST PUSH1 0x0 PUSH1 0x20 DUP3 ADD SWAP1 POP DUP2 DUP2 SUB PUSH1 0x0 DUP4 ADD MSTORE PUSH2 0x1063 DUP2 PUSH2 0xDBD JUMP JUMPDEST SWAP1 POP SWAP2 SWAP1 POP JUMP JUMPDEST PUSH1 0x0 PUSH1 0x20 DUP3 ADD SWAP1 POP DUP2 DUP2 SUB PUSH1 0x0 DUP4 ADD MSTORE PUSH2 0x1083 DUP2 PUSH2 0xDE0 JUMP JUMPDEST SWAP1 POP SWAP2 SWAP1 POP JUMP JUMPDEST PUSH1 0x0 PUSH1 0x20 DUP3 ADD SWAP1 POP DUP2 DUP2 SUB PUSH1 0x0 DUP4 ADD MSTORE PUSH2 0x10A3 DUP2 PUSH2 0xE03 JUMP JUMPDEST SWAP1 POP SWAP2 SWAP1 POP JUMP JUMPDEST PUSH1 0x0 PUSH1 0x20 DUP3 ADD SWAP1 POP DUP2 DUP2 SUB PUSH1 0x0 DUP4 ADD MSTORE PUSH2 0x10C3 DUP2 PUSH2 0xE26 JUMP JUMPDEST SWAP1 POP SWAP2 SWAP1 POP JUMP JUMPDEST PUSH1 0x0 PUSH1 0x20 DUP3 ADD SWAP1 POP DUP2 DUP2 SUB PUSH1 0x0 DUP4 ADD MSTORE PUSH2 0x10E3 DUP2 PUSH2 0xE49 JUMP JUMPDEST SWAP1 POP SWAP2 SWAP1 POP JUMP JUMPDEST PUSH1 0x0 PUSH1 0x20 DUP3 ADD SWAP1 POP DUP2 DUP2 SUB PUSH1 0x0 DUP4 ADD MSTORE PUSH2 0x1103 DUP2 PUSH2 0xE6C JUMP JUMPDEST SWAP1 POP SWAP2 SWAP1 POP JUMP JUMPDEST PUSH1 0x0 PUSH1 0x20 DUP3 ADD SWAP1 POP DUP2 DUP2 SUB PUSH1 0x0 DUP4 ADD MSTORE PUSH2 0x1123 DUP2 PUSH2 0xE8F JUMP JUMPDEST SWAP1 POP SWAP2 SWAP1 POP JUMP JUMPDEST PUSH1 0x0 PUSH1 0x20 DUP3 ADD SWAP1 POP DUP2 DUP2 SUB PUSH1 0x0 DUP4 ADD MSTORE PUSH2 0x1143 DUP2 PUSH2 0xEB2 JUMP JUMPDEST SWAP1 POP SWAP2 SWAP1 POP JUMP JUMPDEST PUSH1 0x0 PUSH1 0x20 DUP3 ADD SWAP1 POP DUP2 DUP2 SUB PUSH1 0x0 DUP4 ADD MSTORE PUSH2 0x1163 DUP2 PUSH2 0xED5 JUMP JUMPDEST SWAP1 POP SWAP2 SWAP1 POP JUMP JUMPDEST PUSH1 0x0 PUSH1 0x20 DUP3 ADD SWAP1 POP DUP2 DUP2 SUB PUSH1 0x0 DUP4 ADD MSTORE PUSH2 0x1183 DUP2 PUSH2 0xEF8 JUMP JUMPDEST SWAP1 POP SWAP2 SWAP1 POP JUMP JUMPDEST PUSH1 0x0 PUSH1 0x20 DUP3 ADD SWAP1 POP DUP2 DUP2 SUB PUSH1 0x0 DUP4 ADD MSTORE PUSH2 0x11A3 DUP2 PUSH2 0xF1B JUMP JUMPDEST SWAP1 POP SWAP2 SWAP1 POP JUMP JUMPDEST PUSH1 0x0 PUSH1 0x20 DUP3 ADD SWAP1 POP DUP2 DUP2 SUB PUSH1 0x0 DUP4 ADD MSTORE PUSH2 0x11C3 DUP2 PUSH2 0xF3E JUMP JUMPDEST SWAP1 POP SWAP2 SWAP1 POP JUMP JUMPDEST PUSH1 0x0 PUSH1 0x20 DUP3 ADD SWAP1 POP DUP2 DUP2 SUB PUSH1 0x0 DUP4 ADD MSTORE PUSH2 0x11E3 DUP2 PUSH2 0xF61 JUMP JUMPDEST SWAP1 POP SWAP2 SWAP1 POP JUMP JUMPDEST PUSH1 0x0 PUSH1 0x20 DUP3 ADD SWAP1 POP DUP2 DUP2 SUB PUSH1 0x0 DUP4 ADD MSTORE PUSH2 0x1203 DUP2 PUSH2 0xF84 JUMP JUMPDEST SWAP1 POP SWAP2 SWAP1 POP JUMP JUMPDEST PUSH1 0x0 PUSH1 0x20 DUP3 ADD SWAP1 POP DUP2 DUP2 SUB PUSH1 0x0 DUP4 ADD MSTORE PUSH2 0x1224 DUP2 DUP5 PUSH2 0xFA7 JUMP JUMPDEST SWAP1 POP SWAP3 SWAP2 POP POP JUMP JUMPDEST PUSH1 0x0 PUSH2 0x1236 PUSH2 0x1247 JUMP JUMPDEST SWAP1 POP PUSH2 0x1242 DUP3 DUP3 PUSH2 0x138E JUMP JUMPDEST SWAP2 SWAP1 POP JUMP JUMPDEST PUSH1 0x0 PUSH1 0x40 MLOAD SWAP1 POP SWAP1 JUMP JUMPDEST PUSH1 0x0 PUSH8 0xFFFFFFFFFFFFFFFF DUP3 GT ISZERO PUSH2 0x126C JUMPI PUSH2 0x126B PUSH2 0x141D JUMP JUMPDEST JUMPDEST PUSH2 0x1275 DUP3 PUSH2 0x1460 JUMP JUMPDEST SWAP1 POP PUSH1 0x20 DUP2 ADD SWAP1 POP SWAP2 SWAP1 POP JUMP JUMPDEST PUSH1 0x0 DUP2 MLOAD SWAP1 POP SWAP2 SWAP1 POP JUMP JUMPDEST PUSH1 0x0 DUP3 DUP3 MSTORE PUSH1 0x20 DUP3 ADD SWAP1 POP SWAP3 SWAP2 POP POP JUMP JUMPDEST PUSH1 0x0 DUP3 DUP3 MSTORE PUSH1 0x20 DUP3 ADD SWAP1 POP SWAP3 SWAP2 POP POP JUMP JUMPDEST PUSH1 0x0 DUP2 SWAP1 POP SWAP3 SWAP2 POP POP JUMP JUMPDEST PUSH1 0x0 PUSH2 0x12C5 DUP3 PUSH2 0x1310 JUMP JUMPDEST SWAP2 POP PUSH2 0x12D0 DUP4 PUSH2 0x1310 JUMP JUMPDEST SWAP3 POP DUP3 PUSH32 0xFFFFFFFFFFFFFFFFFFFFFFFFFFFFFFFFFFFFFFFFFFFFFFFFFFFFFFFFFFFFFFFF SUB DUP3 GT ISZERO PUSH2 0x1305 JUMPI PUSH2 0x1304 PUSH2 0x13BF JUMP JUMPDEST JUMPDEST DUP3 DUP3 ADD SWAP1 POP SWAP3 SWAP2 POP POP JUMP JUMPDEST PUSH1 0x0 DUP2 SWAP1 POP SWAP2 SWAP1 POP JUMP JUMPDEST DUP3 DUP2 DUP4 CALLDATACOPY PUSH1 0x0 DUP4 DUP4 ADD MSTORE POP POP POP JUMP JUMPDEST PUSH1 0x0 JUMPDEST DUP4 DUP2 LT ISZERO PUSH2 0x1347 JUMPI DUP1 DUP3 ADD MLOAD DUP2 DUP5 ADD MSTORE PUSH1 0x20 DUP2 ADD SWAP1 POP PUSH2 0x132C JUMP JUMPDEST DUP4 DUP2 GT ISZERO PUSH2 0x1356 JUMPI PUSH1 0x0 DUP5 DUP5 ADD MSTORE JUMPDEST POP POP POP POP JUMP JUMPDEST PUSH1 0x0 PUSH1 0x2 DUP3 DIV SWAP1 POP PUSH1 0x1 DUP3 AND DUP1 PUSH2 0x1374 JUMPI PUSH1 0x7F DUP3 AND SWAP2 POP JUMPDEST PUSH1 0x20 DUP3 LT DUP2 EQ ISZERO PUSH2 0x1388 JUMPI PUSH2 0x1387 PUSH2 0x13EE JUMP JUMPDEST JUMPDEST POP SWAP2 SWAP1 POP JUMP JUMPDEST PUSH2 0x1397 DUP3 PUSH2 0x1460 JUMP JUMPDEST DUP2 ADD DUP2 DUP2 LT PUSH8 0xFFFFFFFFFFFFFFFF DUP3 GT OR ISZERO PUSH2 0x13B6 JUMPI PUSH2 0x13B5 PUSH2 0x141D JUMP JUMPDEST JUMPDEST DUP1 PUSH1 0x40 MSTORE POP POP POP JUMP JUMPDEST PUSH32 0x4E487B7100000000000000000000000000000000000000000000000000000000 PUSH1 0x0 MSTORE PUSH1 0x11 PUSH1 0x4 MSTORE PUSH1 0x24 PUSH1 0x0 REVERT JUMPDEST PUSH32 0x4E487B7100000000000000000000000000000000000000000000000000000000 PUSH1 0x0 MSTORE PUSH1 0x22 PUSH1 0x4 MSTORE PUSH1 0x24 PUSH1 0x0 REVERT JUMPDEST PUSH32 0x4E487B7100000000000000000000000000000000000000000000000000000000 PUSH1 0x0 MSTORE PUSH1 0x41 PUSH1 0x4 MSTORE PUSH1 0x24 PUSH1 0x0 REVERT JUMPDEST PUSH1 0x0 DUP1 REVERT JUMPDEST PUSH1 0x0 DUP1 REVERT JUMPDEST PUSH1 0x0 DUP1 REVERT JUMPDEST PUSH1 0x0 DUP1 REVERT JUMPDEST PUSH1 0x0 PUSH1 0x1F NOT PUSH1 0x1F DUP4 ADD AND SWAP1 POP SWAP2 SWAP1 POP JUMP JUMPDEST PUSH32 0x596F752063616E27742072656D6F76652063616E6469646174652E0000000000 PUSH1 0x0 DUP3 ADD MSTORE POP JUMP JUMPDEST PUSH32 0x556E617574686F72697A6564204163636573732E000000000000000000000000 PUSH1 0x0 DUP3 ADD MSTORE POP JUMP JUMPDEST PUSH32 0x43616E64696461746520726567697374726174696F6E20776173206E6F742070 PUSH1 0x0 DUP3 ADD MSTORE PUSH32 0x6F737369626C652E000000000000000000000000000000000000000000000000 PUSH1 0x20 DUP3 ADD MSTORE POP JUMP JUMPDEST PUSH32 0x566F74696E67206E6F742073746172746564207965742E000000000000000000 PUSH1 0x0 DUP3 ADD MSTORE POP JUMP JUMPDEST PUSH32 0x53796D626F6C2063616E277420626520656D7074790000000000000000000000 PUSH1 0x0 DUP3 ADD MSTORE POP JUMP JUMPDEST PUSH32 0x53796D626F6C206E6F7420666F756E642E000000000000000000000000000000 PUSH1 0x0 DUP3 ADD MSTORE POP JUMP JUMPDEST PUSH32 0x53796D626F6C206E6F7420726567697374657265642E00000000000000000000 PUSH1 0x0 DUP3 ADD MSTORE POP JUMP JUMPDEST PUSH32 0x466F72207265636F726420766F74696E67206D75737420626520737461727465 PUSH1 0x0 DUP3 ADD MSTORE PUSH32 0x64206F6E63652E00000000000000000000000000000000000000000000000000 PUSH1 0x20 DUP3 ADD MSTORE POP JUMP JUMPDEST PUSH32 0x546869732053796D626F6C2077617320616C72656164792074616B656E2E0000 PUSH1 0x0 DUP3 ADD MSTORE POP JUMP JUMPDEST PUSH32 0x4E6F205265636F726420466F756E640000000000000000000000000000000000 PUSH1 0x0 DUP3 ADD MSTORE POP JUMP JUMPDEST PUSH32 0x416C726561647920537461727465642E00000000000000000000000000000000 PUSH1 0x0 DUP3 ADD MSTORE POP JUMP JUMPDEST PUSH32 0x41746C6561737420322063616E646964617465206D7573742062652072656769 PUSH1 0x0 DUP3 ADD MSTORE PUSH32 0x7374657265642E00000000000000000000000000000000000000000000000000 PUSH1 0x20 DUP3 ADD MSTORE POP JUMP JUMPDEST PUSH32 0x496E76616C696420496E70757400000000000000000000000000000000000000 PUSH1 0x0 DUP3 ADD MSTORE POP JUMP JUMPDEST PUSH32 0x4E616D652043616E277420626520656D70747900000000000000000000000000 PUSH1 0x0 DUP3 ADD MSTORE POP JUMP JUMPDEST PUSH32 0x41746C6561737420312063616E646964617465206D7573742062652072656769 PUSH1 0x0 DUP3 ADD MSTORE PUSH32 0x7374657265642E00000000000000000000000000000000000000000000000000 PUSH1 0x20 DUP3 ADD MSTORE POP JUMP JUMPDEST PUSH32 0x43616E277420626520656D707479000000000000000000000000000000000000 PUSH1 0x0 DUP3 ADD MSTORE POP JUMP INVALID LOG2 PUSH5 0x6970667358 0x22 SLT KECCAK256 SWAP12 DUP8 CHAINID MSTORE8 0x2C SWAP11 DUP7 DUP2 0xBC 0xF8 0xCC 0xE4 0xBF SWAP7 BALANCE 0xA8 POP PUSH25 0xC9C5E8BBC908A42987D2541E895D64736F6C63430008070033 "
				},
				"gasEstimates": {
					"creation": {
						"codeDepositCost": "1219000",
						"executionCost": "74118",
						"totalCost": "1293118"
					},
					"external": {
						"deleteCandidate(string)": "infinite",
						"giveVotes(string)": "infinite",
						"registrationForCandidate(string,string)": "infinite",
						"startVote()": "55294",
						"stopVoting()": "28940",
						"voteCountStatus(string)": "infinite"
					}
				},
				"methodIdentifiers": {
					"deleteCandidate(string)": "88feb516",
					"giveVotes(string)": "1f6d52c5",
					"registrationForCandidate(string,string)": "137967a6",
					"startVote()": "4c0a6af0",
					"stopVoting()": "fab2f86b",
					"voteCountStatus(string)": "196b2e24"
				}
			},
			"storageLayout": {
				"storage": [
					{
						"astId": 4,
						"contract": "contracts/voting.sol:VotingContract",
						"label": "votingStartEver",
						"offset": 0,
						"slot": "0",
						"type": "t_bool"
					},
					{
						"astId": 7,
						"contract": "contracts/voting.sol:VotingContract",
						"label": "voterList",
						"offset": 0,
						"slot": "1",
						"type": "t_array(t_address)dyn_storage"
					},
					{
						"astId": 9,
						"contract": "contracts/voting.sol:VotingContract",
						"label": "electionCommission",
						"offset": 0,
						"slot": "2",
						"type": "t_address"
					},
					{
						"astId": 12,
						"contract": "contracts/voting.sol:VotingContract",
						"label": "voteStarted",
						"offset": 20,
						"slot": "2",
						"type": "t_bool"
					},
					{
						"astId": 15,
						"contract": "contracts/voting.sol:VotingContract",
						"label": "symbolList",
						"offset": 0,
						"slot": "3",
						"type": "t_array(t_string_storage)dyn_storage"
					},
					{
						"astId": 25,
						"contract": "contracts/voting.sol:VotingContract",
						"label": "Candidates",
						"offset": 0,
						"slot": "4",
						"type": "t_mapping(t_string_memory_ptr,t_struct(candidate)20_storage)"
					}
				],
				"types": {
					"t_address": {
						"encoding": "inplace",
						"label": "address",
						"numberOfBytes": "20"
					},
					"t_array(t_address)dyn_storage": {
						"base": "t_address",
						"encoding": "dynamic_array",
						"label": "address[]",
						"numberOfBytes": "32"
					},
					"t_array(t_string_storage)dyn_storage": {
						"base": "t_string_storage",
						"encoding": "dynamic_array",
						"label": "string[]",
						"numberOfBytes": "32"
					},
					"t_bool": {
						"encoding": "inplace",
						"label": "bool",
						"numberOfBytes": "1"
					},
					"t_mapping(t_string_memory_ptr,t_struct(candidate)20_storage)": {
						"encoding": "mapping",
						"key": "t_string_memory_ptr",
						"label": "mapping(string => struct VotingContract.candidate)",
						"numberOfBytes": "32",
						"value": "t_struct(candidate)20_storage"
					},
					"t_string_memory_ptr": {
						"encoding": "bytes",
						"label": "string",
						"numberOfBytes": "32"
					},
					"t_string_storage": {
						"encoding": "bytes",
						"label": "string",
						"numberOfBytes": "32"
					},
					"t_struct(candidate)20_storage": {
						"encoding": "inplace",
						"label": "struct VotingContract.candidate",
						"members": [
							{
								"astId": 17,
								"contract": "contracts/voting.sol:VotingContract",
								"label": "name",
								"offset": 0,
								"slot": "0",
								"type": "t_string_storage"
							},
							{
								"astId": 19,
								"contract": "contracts/voting.sol:VotingContract",
								"label": "voteCount",
								"offset": 0,
								"slot": "1",
								"type": "t_uint256"
							}
						],
						"numberOfBytes": "64"
					},
					"t_uint256": {
						"encoding": "inplace",
						"label": "uint256",
						"numberOfBytes": "32"
					}
				}
			},
			"userdoc": {
				"kind": "user",
				"methods": {},
				"version": 1
			}
		}
	}
}