{
	"contracts/votingSystem.sol": {
		"VotingContract": {
			"abi": [
				{
					"inputs": [],
					"name": "getAllCandidates",
					"outputs": [
						{
							"components": [
								{
									"internalType": "string",
									"name": "candidateName",
									"type": "string"
								},
								{
									"internalType": "string",
									"name": "symbols",
									"type": "string"
								},
								{
									"internalType": "bytes32",
									"name": "identifire",
									"type": "bytes32"
								}
							],
							"internalType": "struct VotingContract.candidateInfo[]",
							"name": "",
							"type": "tuple[]"
						}
					],
					"stateMutability": "view",
					"type": "function"
				},
				{
					"inputs": [
						{
							"internalType": "string",
							"name": "_name",
							"type": "string"
						},
						{
							"internalType": "string",
							"name": "_symbol",
							"type": "string"
						}
					],
					"name": "registerCandidates",
					"outputs": [],
					"stateMutability": "nonpayable",
					"type": "function"
				}
			],
			"devdoc": {
				"kind": "dev",
				"methods": {},
				"version": 1
			},
			"evm": {
				"assembly": "    /* \"contracts/votingSystem.sol\":60:779  contract VotingContract{\r... */\n  mstore(0x40, 0x80)\n    /* \"contracts/votingSystem.sol\":261:271  msg.sender */\n  caller\n    /* \"contracts/votingSystem.sol\":235:271  address electionOfficer = msg.sender */\n  0x00\n  dup1\n  0x0100\n  exp\n  dup2\n  sload\n  dup2\n  0xffffffffffffffffffffffffffffffffffffffff\n  mul\n  not\n  and\n  swap1\n  dup4\n  0xffffffffffffffffffffffffffffffffffffffff\n  and\n  mul\n  or\n  swap1\n  sstore\n  pop\n    /* \"contracts/votingSystem.sol\":60:779  contract VotingContract{\r... */\n  callvalue\n  dup1\n  iszero\n  tag_1\n  jumpi\n  0x00\n  dup1\n  revert\ntag_1:\n  pop\n  dataSize(sub_0)\n  dup1\n  dataOffset(sub_0)\n  0x00\n  codecopy\n  0x00\n  return\nstop\n\nsub_0: assembly {\n        /* \"contracts/votingSystem.sol\":60:779  contract VotingContract{\r... */\n      mstore(0x40, 0x80)\n      callvalue\n      dup1\n      iszero\n      tag_1\n      jumpi\n      0x00\n      dup1\n      revert\n    tag_1:\n      pop\n      jumpi(tag_2, lt(calldatasize, 0x04))\n      shr(0xe0, calldataload(0x00))\n      dup1\n      0x2e6997fe\n      eq\n      tag_3\n      jumpi\n      dup1\n      0xc1700e00\n      eq\n      tag_4\n      jumpi\n    tag_2:\n      0x00\n      dup1\n      revert\n        /* \"contracts/votingSystem.sol\":661:766  function getAllCandidates()view public returns(candidateInfo[] memory){\r... */\n    tag_3:\n      tag_5\n      tag_6\n      jump\t// in\n    tag_5:\n      mload(0x40)\n      tag_7\n      swap2\n      swap1\n      tag_8\n      jump\t// in\n    tag_7:\n      mload(0x40)\n      dup1\n      swap2\n      sub\n      swap1\n      return\n        /* \"contracts/votingSystem.sol\":358:653  function registerCandidates(string memory _name,string memory _symbol) public {\r... */\n    tag_4:\n      tag_9\n      0x04\n      dup1\n      calldatasize\n      sub\n      dup2\n      add\n      swap1\n      tag_10\n      swap2\n      swap1\n      tag_11\n      jump\t// in\n    tag_10:\n      tag_12\n      jump\t// in\n    tag_9:\n      stop\n        /* \"contracts/votingSystem.sol\":661:766  function getAllCandidates()view public returns(candidateInfo[] memory){\r... */\n    tag_6:\n        /* \"contracts/votingSystem.sol\":708:730  candidateInfo[] memory */\n      0x60\n        /* \"contracts/votingSystem.sol\":745:758  candidateList */\n      0x01\n        /* \"contracts/votingSystem.sol\":738:758  return candidateList */\n      dup1\n      sload\n      dup1\n      0x20\n      mul\n      0x20\n      add\n      mload(0x40)\n      swap1\n      dup2\n      add\n      0x40\n      mstore\n      dup1\n      swap3\n      swap2\n      swap1\n      dup2\n      dup2\n      mstore\n      0x20\n      add\n      0x00\n      swap1\n    tag_14:\n      dup3\n      dup3\n      lt\n      iszero\n      tag_15\n      jumpi\n      dup4\n      dup3\n      swap1\n      0x00\n      mstore\n      keccak256(0x00, 0x20)\n      swap1\n      0x03\n      mul\n      add\n      mload(0x40)\n      dup1\n      0x60\n      add\n      0x40\n      mstore\n      swap1\n      dup2\n      0x00\n      dup3\n      add\n      dup1\n      sload\n      tag_17\n      swap1\n      tag_18\n      jump\t// in\n    tag_17:\n      dup1\n      0x1f\n      add\n      0x20\n      dup1\n      swap2\n      div\n      mul\n      0x20\n      add\n      mload(0x40)\n      swap1\n      dup2\n      add\n      0x40\n      mstore\n      dup1\n      swap3\n      swap2\n      swap1\n      dup2\n      dup2\n      mstore\n      0x20\n      add\n      dup3\n      dup1\n      sload\n      tag_19\n      swap1\n      tag_18\n      jump\t// in\n    tag_19:\n      dup1\n      iszero\n      tag_20\n      jumpi\n      dup1\n      0x1f\n      lt\n      tag_21\n      jumpi\n      0x0100\n      dup1\n      dup4\n      sload\n      div\n      mul\n      dup4\n      mstore\n      swap2\n      0x20\n      add\n      swap2\n      jump(tag_20)\n    tag_21:\n      dup3\n      add\n      swap2\n      swap1\n      0x00\n      mstore\n      keccak256(0x00, 0x20)\n      swap1\n    tag_22:\n      dup2\n      sload\n      dup2\n      mstore\n      swap1\n      0x01\n      add\n      swap1\n      0x20\n      add\n      dup1\n      dup4\n      gt\n      tag_22\n      jumpi\n      dup3\n      swap1\n      sub\n      0x1f\n      and\n      dup3\n      add\n      swap2\n    tag_20:\n      pop\n      pop\n      pop\n      pop\n      pop\n      dup2\n      mstore\n      0x20\n      add\n      0x01\n      dup3\n      add\n      dup1\n      sload\n      tag_23\n      swap1\n      tag_18\n      jump\t// in\n    tag_23:\n      dup1\n      0x1f\n      add\n      0x20\n      dup1\n      swap2\n      div\n      mul\n      0x20\n      add\n      mload(0x40)\n      swap1\n      dup2\n      add\n      0x40\n      mstore\n      dup1\n      swap3\n      swap2\n      swap1\n      dup2\n      dup2\n      mstore\n      0x20\n      add\n      dup3\n      dup1\n      sload\n      tag_24\n      swap1\n      tag_18\n      jump\t// in\n    tag_24:\n      dup1\n      iszero\n      tag_25\n      jumpi\n      dup1\n      0x1f\n      lt\n      tag_26\n      jumpi\n      0x0100\n      dup1\n      dup4\n      sload\n      div\n      mul\n      dup4\n      mstore\n      swap2\n      0x20\n      add\n      swap2\n      jump(tag_25)\n    tag_26:\n      dup3\n      add\n      swap2\n      swap1\n      0x00\n      mstore\n      keccak256(0x00, 0x20)\n      swap1\n    tag_27:\n      dup2\n      sload\n      dup2\n      mstore\n      swap1\n      0x01\n      add\n      swap1\n      0x20\n      add\n      dup1\n      dup4\n      gt\n      tag_27\n      jumpi\n      dup3\n      swap1\n      sub\n      0x1f\n      and\n      dup3\n      add\n      swap2\n    tag_25:\n      pop\n      pop\n      pop\n      pop\n      pop\n      dup2\n      mstore\n      0x20\n      add\n      0x02\n      dup3\n      add\n      sload\n      dup2\n      mstore\n      pop\n      pop\n      dup2\n      mstore\n      0x20\n      add\n      swap1\n      0x01\n      add\n      swap1\n      jump(tag_14)\n    tag_15:\n      pop\n      pop\n      pop\n      pop\n      swap1\n      pop\n        /* \"contracts/votingSystem.sol\":661:766  function getAllCandidates()view public returns(candidateInfo[] memory){\r... */\n      swap1\n      jump\t// out\n        /* \"contracts/votingSystem.sol\":358:653  function registerCandidates(string memory _name,string memory _symbol) public {\r... */\n    tag_12:\n        /* \"contracts/votingSystem.sol\":467:482  electionOfficer */\n      0x00\n      dup1\n      sload\n      swap1\n      0x0100\n      exp\n      swap1\n      div\n      0xffffffffffffffffffffffffffffffffffffffff\n      and\n        /* \"contracts/votingSystem.sol\":455:482  msg.sender==electionOfficer */\n      0xffffffffffffffffffffffffffffffffffffffff\n      and\n        /* \"contracts/votingSystem.sol\":455:465  msg.sender */\n      caller\n        /* \"contracts/votingSystem.sol\":455:482  msg.sender==electionOfficer */\n      0xffffffffffffffffffffffffffffffffffffffff\n      and\n      eq\n        /* \"contracts/votingSystem.sol\":447:505  require(msg.sender==electionOfficer,\"Unauthorized Person\") */\n      tag_29\n      jumpi\n      mload(0x40)\n      0x08c379a000000000000000000000000000000000000000000000000000000000\n      dup2\n      mstore\n      0x04\n      add\n      tag_30\n      swap1\n      tag_31\n      jump\t// in\n    tag_30:\n      mload(0x40)\n      dup1\n      swap2\n      sub\n      swap1\n      revert\n    tag_29:\n        /* \"contracts/votingSystem.sol\":516:529  candidateList */\n      0x01\n        /* \"contracts/votingSystem.sol\":535:634  candidateInfo(\r... */\n      mload(0x40)\n      dup1\n      0x60\n      add\n      0x40\n      mstore\n      dup1\n        /* \"contracts/votingSystem.sol\":563:568  _name */\n      dup5\n        /* \"contracts/votingSystem.sol\":535:634  candidateInfo(\r... */\n      dup2\n      mstore\n      0x20\n      add\n        /* \"contracts/votingSystem.sol\":569:576  _symbol */\n      dup4\n        /* \"contracts/votingSystem.sol\":535:634  candidateInfo(\r... */\n      dup2\n      mstore\n      0x20\n      add\n        /* \"contracts/votingSystem.sol\":618:623  _name */\n      dup5\n        /* \"contracts/votingSystem.sol\":624:631  _symbol */\n      dup5\n        /* \"contracts/votingSystem.sol\":601:632  abi.encodePacked(_name,_symbol) */\n      add(0x20, mload(0x40))\n      tag_32\n      swap3\n      swap2\n      swap1\n      tag_33\n      jump\t// in\n    tag_32:\n      mload(0x40)\n      0x20\n      dup2\n      dup4\n      sub\n      sub\n      dup2\n      mstore\n      swap1\n      0x40\n      mstore\n        /* \"contracts/votingSystem.sol\":591:633  keccak256(abi.encodePacked(_name,_symbol)) */\n      dup1\n      mload\n      swap1\n      0x20\n      add\n      keccak256\n        /* \"contracts/votingSystem.sol\":535:634  candidateInfo(\r... */\n      dup2\n      mstore\n      pop\n        /* \"contracts/votingSystem.sol\":516:645  candidateList.push(candidateInfo(\r... */\n      swap1\n      dup1\n      0x01\n      dup2\n      sload\n      add\n      dup1\n      dup3\n      sstore\n      dup1\n      swap2\n      pop\n      pop\n      0x01\n      swap1\n      sub\n      swap1\n      0x00\n      mstore\n      keccak256(0x00, 0x20)\n      swap1\n      0x03\n      mul\n      add\n      0x00\n      swap1\n      swap2\n      swap1\n      swap2\n      swap1\n      swap2\n      pop\n      0x00\n      dup3\n      add\n      mload\n      dup2\n      0x00\n      add\n      swap1\n      dup1\n      mload\n      swap1\n      0x20\n      add\n      swap1\n      tag_35\n      swap3\n      swap2\n      swap1\n      tag_36\n      jump\t// in\n    tag_35:\n      pop\n      0x20\n      dup3\n      add\n      mload\n      dup2\n      0x01\n      add\n      swap1\n      dup1\n      mload\n      swap1\n      0x20\n      add\n      swap1\n      tag_37\n      swap3\n      swap2\n      swap1\n      tag_36\n      jump\t// in\n    tag_37:\n      pop\n      0x40\n      dup3\n      add\n      mload\n      dup2\n      0x02\n      add\n      sstore\n      pop\n      pop\n        /* \"contracts/votingSystem.sol\":358:653  function registerCandidates(string memory _name,string memory _symbol) public {\r... */\n      pop\n      pop\n      jump\t// out\n    tag_36:\n      dup3\n      dup1\n      sload\n      tag_38\n      swap1\n      tag_18\n      jump\t// in\n    tag_38:\n      swap1\n      0x00\n      mstore\n      keccak256(0x00, 0x20)\n      swap1\n      0x1f\n      add\n      0x20\n      swap1\n      div\n      dup2\n      add\n      swap3\n      dup3\n      tag_40\n      jumpi\n      0x00\n      dup6\n      sstore\n      jump(tag_39)\n    tag_40:\n      dup3\n      0x1f\n      lt\n      tag_41\n      jumpi\n      dup1\n      mload\n      not(0xff)\n      and\n      dup4\n      dup1\n      add\n      or\n      dup6\n      sstore\n      jump(tag_39)\n    tag_41:\n      dup3\n      dup1\n      add\n      0x01\n      add\n      dup6\n      sstore\n      dup3\n      iszero\n      tag_39\n      jumpi\n      swap2\n      dup3\n      add\n    tag_42:\n      dup3\n      dup2\n      gt\n      iszero\n      tag_43\n      jumpi\n      dup3\n      mload\n      dup3\n      sstore\n      swap2\n      0x20\n      add\n      swap2\n      swap1\n      0x01\n      add\n      swap1\n      jump(tag_42)\n    tag_43:\n    tag_39:\n      pop\n      swap1\n      pop\n      tag_44\n      swap2\n      swap1\n      tag_45\n      jump\t// in\n    tag_44:\n      pop\n      swap1\n      jump\t// out\n    tag_45:\n    tag_46:\n      dup1\n      dup3\n      gt\n      iszero\n      tag_47\n      jumpi\n      0x00\n      dup2\n      0x00\n      swap1\n      sstore\n      pop\n      0x01\n      add\n      jump(tag_46)\n    tag_47:\n      pop\n      swap1\n      jump\t// out\n        /* \"#utility.yul\":7:419   */\n    tag_49:\n        /* \"#utility.yul\":85:90   */\n      0x00\n        /* \"#utility.yul\":110:176   */\n      tag_51\n        /* \"#utility.yul\":126:175   */\n      tag_52\n        /* \"#utility.yul\":168:174   */\n      dup5\n        /* \"#utility.yul\":126:175   */\n      tag_53\n      jump\t// in\n    tag_52:\n        /* \"#utility.yul\":110:176   */\n      tag_54\n      jump\t// in\n    tag_51:\n        /* \"#utility.yul\":101:176   */\n      swap1\n      pop\n        /* \"#utility.yul\":199:205   */\n      dup3\n        /* \"#utility.yul\":192:197   */\n      dup2\n        /* \"#utility.yul\":185:206   */\n      mstore\n        /* \"#utility.yul\":237:241   */\n      0x20\n        /* \"#utility.yul\":230:235   */\n      dup2\n        /* \"#utility.yul\":226:242   */\n      add\n        /* \"#utility.yul\":275:278   */\n      dup5\n        /* \"#utility.yul\":266:272   */\n      dup5\n        /* \"#utility.yul\":261:264   */\n      dup5\n        /* \"#utility.yul\":257:273   */\n      add\n        /* \"#utility.yul\":254:279   */\n      gt\n        /* \"#utility.yul\":251:363   */\n      iszero\n      tag_55\n      jumpi\n        /* \"#utility.yul\":282:361   */\n      tag_56\n      tag_57\n      jump\t// in\n    tag_56:\n        /* \"#utility.yul\":251:363   */\n    tag_55:\n        /* \"#utility.yul\":372:413   */\n      tag_58\n        /* \"#utility.yul\":406:412   */\n      dup5\n        /* \"#utility.yul\":401:404   */\n      dup3\n        /* \"#utility.yul\":396:399   */\n      dup6\n        /* \"#utility.yul\":372:413   */\n      tag_59\n      jump\t// in\n    tag_58:\n        /* \"#utility.yul\":91:419   */\n      pop\n        /* \"#utility.yul\":7:419   */\n      swap4\n      swap3\n      pop\n      pop\n      pop\n      jump\t// out\n        /* \"#utility.yul\":439:779   */\n    tag_60:\n        /* \"#utility.yul\":495:500   */\n      0x00\n        /* \"#utility.yul\":544:547   */\n      dup3\n        /* \"#utility.yul\":537:541   */\n      0x1f\n        /* \"#utility.yul\":529:535   */\n      dup4\n        /* \"#utility.yul\":525:542   */\n      add\n        /* \"#utility.yul\":521:548   */\n      slt\n        /* \"#utility.yul\":511:633   */\n      tag_62\n      jumpi\n        /* \"#utility.yul\":552:631   */\n      tag_63\n      tag_64\n      jump\t// in\n    tag_63:\n        /* \"#utility.yul\":511:633   */\n    tag_62:\n        /* \"#utility.yul\":669:675   */\n      dup2\n        /* \"#utility.yul\":656:676   */\n      calldataload\n        /* \"#utility.yul\":694:773   */\n      tag_65\n        /* \"#utility.yul\":769:772   */\n      dup5\n        /* \"#utility.yul\":761:767   */\n      dup3\n        /* \"#utility.yul\":754:758   */\n      0x20\n        /* \"#utility.yul\":746:752   */\n      dup7\n        /* \"#utility.yul\":742:759   */\n      add\n        /* \"#utility.yul\":694:773   */\n      tag_49\n      jump\t// in\n    tag_65:\n        /* \"#utility.yul\":685:773   */\n      swap2\n      pop\n        /* \"#utility.yul\":501:779   */\n      pop\n        /* \"#utility.yul\":439:779   */\n      swap3\n      swap2\n      pop\n      pop\n      jump\t// out\n        /* \"#utility.yul\":785:1619   */\n    tag_11:\n        /* \"#utility.yul\":873:879   */\n      0x00\n        /* \"#utility.yul\":881:887   */\n      dup1\n        /* \"#utility.yul\":930:932   */\n      0x40\n        /* \"#utility.yul\":918:927   */\n      dup4\n        /* \"#utility.yul\":909:916   */\n      dup6\n        /* \"#utility.yul\":905:928   */\n      sub\n        /* \"#utility.yul\":901:933   */\n      slt\n        /* \"#utility.yul\":898:1017   */\n      iszero\n      tag_67\n      jumpi\n        /* \"#utility.yul\":936:1015   */\n      tag_68\n      tag_69\n      jump\t// in\n    tag_68:\n        /* \"#utility.yul\":898:1017   */\n    tag_67:\n        /* \"#utility.yul\":1084:1085   */\n      0x00\n        /* \"#utility.yul\":1073:1082   */\n      dup4\n        /* \"#utility.yul\":1069:1086   */\n      add\n        /* \"#utility.yul\":1056:1087   */\n      calldataload\n        /* \"#utility.yul\":1114:1132   */\n      0xffffffffffffffff\n        /* \"#utility.yul\":1106:1112   */\n      dup2\n        /* \"#utility.yul\":1103:1133   */\n      gt\n        /* \"#utility.yul\":1100:1217   */\n      iszero\n      tag_70\n      jumpi\n        /* \"#utility.yul\":1136:1215   */\n      tag_71\n      tag_72\n      jump\t// in\n    tag_71:\n        /* \"#utility.yul\":1100:1217   */\n    tag_70:\n        /* \"#utility.yul\":1241:1304   */\n      tag_73\n        /* \"#utility.yul\":1296:1303   */\n      dup6\n        /* \"#utility.yul\":1287:1293   */\n      dup3\n        /* \"#utility.yul\":1276:1285   */\n      dup7\n        /* \"#utility.yul\":1272:1294   */\n      add\n        /* \"#utility.yul\":1241:1304   */\n      tag_60\n      jump\t// in\n    tag_73:\n        /* \"#utility.yul\":1231:1304   */\n      swap3\n      pop\n        /* \"#utility.yul\":1027:1314   */\n      pop\n        /* \"#utility.yul\":1381:1383   */\n      0x20\n        /* \"#utility.yul\":1370:1379   */\n      dup4\n        /* \"#utility.yul\":1366:1384   */\n      add\n        /* \"#utility.yul\":1353:1385   */\n      calldataload\n        /* \"#utility.yul\":1412:1430   */\n      0xffffffffffffffff\n        /* \"#utility.yul\":1404:1410   */\n      dup2\n        /* \"#utility.yul\":1401:1431   */\n      gt\n        /* \"#utility.yul\":1398:1515   */\n      iszero\n      tag_74\n      jumpi\n        /* \"#utility.yul\":1434:1513   */\n      tag_75\n      tag_72\n      jump\t// in\n    tag_75:\n        /* \"#utility.yul\":1398:1515   */\n    tag_74:\n        /* \"#utility.yul\":1539:1602   */\n      tag_76\n        /* \"#utility.yul\":1594:1601   */\n      dup6\n        /* \"#utility.yul\":1585:1591   */\n      dup3\n        /* \"#utility.yul\":1574:1583   */\n      dup7\n        /* \"#utility.yul\":1570:1592   */\n      add\n        /* \"#utility.yul\":1539:1602   */\n      tag_60\n      jump\t// in\n    tag_76:\n        /* \"#utility.yul\":1529:1602   */\n      swap2\n      pop\n        /* \"#utility.yul\":1324:1612   */\n      pop\n        /* \"#utility.yul\":785:1619   */\n      swap3\n      pop\n      swap3\n      swap1\n      pop\n      jump\t// out\n        /* \"#utility.yul\":1625:1893   */\n    tag_77:\n        /* \"#utility.yul\":1750:1760   */\n      0x00\n        /* \"#utility.yul\":1785:1887   */\n      tag_79\n        /* \"#utility.yul\":1883:1886   */\n      dup4\n        /* \"#utility.yul\":1875:1881   */\n      dup4\n        /* \"#utility.yul\":1785:1887   */\n      tag_80\n      jump\t// in\n    tag_79:\n        /* \"#utility.yul\":1771:1887   */\n      swap1\n      pop\n        /* \"#utility.yul\":1625:1893   */\n      swap3\n      swap2\n      pop\n      pop\n      jump\t// out\n        /* \"#utility.yul\":1985:3120   */\n    tag_81:\n        /* \"#utility.yul\":2160:2163   */\n      0x00\n        /* \"#utility.yul\":2189:2271   */\n      tag_83\n        /* \"#utility.yul\":2265:2270   */\n      dup3\n        /* \"#utility.yul\":2189:2271   */\n      tag_84\n      jump\t// in\n    tag_83:\n        /* \"#utility.yul\":2287:2401   */\n      tag_85\n        /* \"#utility.yul\":2394:2400   */\n      dup2\n        /* \"#utility.yul\":2389:2392   */\n      dup6\n        /* \"#utility.yul\":2287:2401   */\n      tag_86\n      jump\t// in\n    tag_85:\n        /* \"#utility.yul\":2280:2401   */\n      swap4\n      pop\n        /* \"#utility.yul\":2427:2430   */\n      dup4\n        /* \"#utility.yul\":2472:2476   */\n      0x20\n        /* \"#utility.yul\":2464:2470   */\n      dup3\n        /* \"#utility.yul\":2460:2477   */\n      mul\n        /* \"#utility.yul\":2455:2458   */\n      dup6\n        /* \"#utility.yul\":2451:2478   */\n      add\n        /* \"#utility.yul\":2502:2586   */\n      tag_87\n        /* \"#utility.yul\":2580:2585   */\n      dup6\n        /* \"#utility.yul\":2502:2586   */\n      tag_88\n      jump\t// in\n    tag_87:\n        /* \"#utility.yul\":2609:2616   */\n      dup1\n        /* \"#utility.yul\":2640:2641   */\n      0x00\n        /* \"#utility.yul\":2625:3075   */\n    tag_89:\n        /* \"#utility.yul\":2650:2656   */\n      dup6\n        /* \"#utility.yul\":2647:2648   */\n      dup2\n        /* \"#utility.yul\":2644:2657   */\n      lt\n        /* \"#utility.yul\":2625:3075   */\n      iszero\n      tag_91\n      jumpi\n        /* \"#utility.yul\":2721:2730   */\n      dup5\n        /* \"#utility.yul\":2715:2719   */\n      dup5\n        /* \"#utility.yul\":2711:2731   */\n      sub\n        /* \"#utility.yul\":2706:2709   */\n      dup10\n        /* \"#utility.yul\":2699:2732   */\n      mstore\n        /* \"#utility.yul\":2772:2778   */\n      dup2\n        /* \"#utility.yul\":2766:2779   */\n      mload\n        /* \"#utility.yul\":2800:2920   */\n      tag_92\n        /* \"#utility.yul\":2915:2919   */\n      dup6\n        /* \"#utility.yul\":2900:2913   */\n      dup3\n        /* \"#utility.yul\":2800:2920   */\n      tag_77\n      jump\t// in\n    tag_92:\n        /* \"#utility.yul\":2792:2920   */\n      swap5\n      pop\n        /* \"#utility.yul\":2943:3031   */\n      tag_93\n        /* \"#utility.yul\":3024:3030   */\n      dup4\n        /* \"#utility.yul\":2943:3031   */\n      tag_94\n      jump\t// in\n    tag_93:\n        /* \"#utility.yul\":2933:3031   */\n      swap3\n      pop\n        /* \"#utility.yul\":3060:3064   */\n      0x20\n        /* \"#utility.yul\":3055:3058   */\n      dup11\n        /* \"#utility.yul\":3051:3065   */\n      add\n        /* \"#utility.yul\":3044:3065   */\n      swap10\n      pop\n        /* \"#utility.yul\":2685:3075   */\n      pop\n        /* \"#utility.yul\":2672:2673   */\n      0x01\n        /* \"#utility.yul\":2669:2670   */\n      dup2\n        /* \"#utility.yul\":2665:2674   */\n      add\n        /* \"#utility.yul\":2660:2674   */\n      swap1\n      pop\n        /* \"#utility.yul\":2625:3075   */\n      jump(tag_89)\n    tag_91:\n        /* \"#utility.yul\":2629:2643   */\n      pop\n        /* \"#utility.yul\":3091:3095   */\n      dup3\n        /* \"#utility.yul\":3084:3095   */\n      swap8\n      pop\n        /* \"#utility.yul\":3111:3114   */\n      dup8\n        /* \"#utility.yul\":3104:3114   */\n      swap6\n      pop\n        /* \"#utility.yul\":2165:3120   */\n      pop\n      pop\n      pop\n      pop\n      pop\n        /* \"#utility.yul\":1985:3120   */\n      swap3\n      swap2\n      pop\n      pop\n      jump\t// out\n        /* \"#utility.yul\":3126:3234   */\n    tag_95:\n        /* \"#utility.yul\":3203:3227   */\n      tag_97\n        /* \"#utility.yul\":3221:3226   */\n      dup2\n        /* \"#utility.yul\":3203:3227   */\n      tag_98\n      jump\t// in\n    tag_97:\n        /* \"#utility.yul\":3198:3201   */\n      dup3\n        /* \"#utility.yul\":3191:3228   */\n      mstore\n        /* \"#utility.yul\":3126:3234   */\n      pop\n      pop\n      jump\t// out\n        /* \"#utility.yul\":3240:3584   */\n    tag_99:\n        /* \"#utility.yul\":3318:3321   */\n      0x00\n        /* \"#utility.yul\":3346:3385   */\n      tag_101\n        /* \"#utility.yul\":3379:3384   */\n      dup3\n        /* \"#utility.yul\":3346:3385   */\n      tag_102\n      jump\t// in\n    tag_101:\n        /* \"#utility.yul\":3401:3462   */\n      tag_103\n        /* \"#utility.yul\":3455:3461   */\n      dup2\n        /* \"#utility.yul\":3450:3453   */\n      dup6\n        /* \"#utility.yul\":3401:3462   */\n      tag_104\n      jump\t// in\n    tag_103:\n        /* \"#utility.yul\":3394:3462   */\n      swap4\n      pop\n        /* \"#utility.yul\":3471:3523   */\n      tag_105\n        /* \"#utility.yul\":3516:3522   */\n      dup2\n        /* \"#utility.yul\":3511:3514   */\n      dup6\n        /* \"#utility.yul\":3504:3508   */\n      0x20\n        /* \"#utility.yul\":3497:3502   */\n      dup7\n        /* \"#utility.yul\":3493:3509   */\n      add\n        /* \"#utility.yul\":3471:3523   */\n      tag_106\n      jump\t// in\n    tag_105:\n        /* \"#utility.yul\":3548:3577   */\n      tag_107\n        /* \"#utility.yul\":3570:3576   */\n      dup2\n        /* \"#utility.yul\":3548:3577   */\n      tag_108\n      jump\t// in\n    tag_107:\n        /* \"#utility.yul\":3543:3546   */\n      dup5\n        /* \"#utility.yul\":3539:3578   */\n      add\n        /* \"#utility.yul\":3532:3578   */\n      swap2\n      pop\n        /* \"#utility.yul\":3322:3584   */\n      pop\n        /* \"#utility.yul\":3240:3584   */\n      swap3\n      swap2\n      pop\n      pop\n      jump\t// out\n        /* \"#utility.yul\":3590:3967   */\n    tag_109:\n        /* \"#utility.yul\":3696:3699   */\n      0x00\n        /* \"#utility.yul\":3724:3763   */\n      tag_111\n        /* \"#utility.yul\":3757:3762   */\n      dup3\n        /* \"#utility.yul\":3724:3763   */\n      tag_102\n      jump\t// in\n    tag_111:\n        /* \"#utility.yul\":3779:3868   */\n      tag_112\n        /* \"#utility.yul\":3861:3867   */\n      dup2\n        /* \"#utility.yul\":3856:3859   */\n      dup6\n        /* \"#utility.yul\":3779:3868   */\n      tag_113\n      jump\t// in\n    tag_112:\n        /* \"#utility.yul\":3772:3868   */\n      swap4\n      pop\n        /* \"#utility.yul\":3877:3929   */\n      tag_114\n        /* \"#utility.yul\":3922:3928   */\n      dup2\n        /* \"#utility.yul\":3917:3920   */\n      dup6\n        /* \"#utility.yul\":3910:3914   */\n      0x20\n        /* \"#utility.yul\":3903:3908   */\n      dup7\n        /* \"#utility.yul\":3899:3915   */\n      add\n        /* \"#utility.yul\":3877:3929   */\n      tag_106\n      jump\t// in\n    tag_114:\n        /* \"#utility.yul\":3954:3960   */\n      dup1\n        /* \"#utility.yul\":3949:3952   */\n      dup5\n        /* \"#utility.yul\":3945:3961   */\n      add\n        /* \"#utility.yul\":3938:3961   */\n      swap2\n      pop\n        /* \"#utility.yul\":3700:3967   */\n      pop\n        /* \"#utility.yul\":3590:3967   */\n      swap3\n      swap2\n      pop\n      pop\n      jump\t// out\n        /* \"#utility.yul\":3973:4339   */\n    tag_115:\n        /* \"#utility.yul\":4115:4118   */\n      0x00\n        /* \"#utility.yul\":4136:4203   */\n      tag_117\n        /* \"#utility.yul\":4200:4202   */\n      0x13\n        /* \"#utility.yul\":4195:4198   */\n      dup4\n        /* \"#utility.yul\":4136:4203   */\n      tag_118\n      jump\t// in\n    tag_117:\n        /* \"#utility.yul\":4129:4203   */\n      swap2\n      pop\n        /* \"#utility.yul\":4212:4305   */\n      tag_119\n        /* \"#utility.yul\":4301:4304   */\n      dup3\n        /* \"#utility.yul\":4212:4305   */\n      tag_120\n      jump\t// in\n    tag_119:\n        /* \"#utility.yul\":4330:4332   */\n      0x20\n        /* \"#utility.yul\":4325:4328   */\n      dup3\n        /* \"#utility.yul\":4321:4333   */\n      add\n        /* \"#utility.yul\":4314:4333   */\n      swap1\n      pop\n        /* \"#utility.yul\":3973:4339   */\n      swap2\n      swap1\n      pop\n      jump\t// out\n        /* \"#utility.yul\":4427:5292   */\n    tag_80:\n        /* \"#utility.yul\":4542:4545   */\n      0x00\n        /* \"#utility.yul\":4578:4582   */\n      0x60\n        /* \"#utility.yul\":4573:4576   */\n      dup4\n        /* \"#utility.yul\":4569:4583   */\n      add\n        /* \"#utility.yul\":4674:4678   */\n      0x00\n        /* \"#utility.yul\":4667:4672   */\n      dup4\n        /* \"#utility.yul\":4663:4679   */\n      add\n        /* \"#utility.yul\":4657:4680   */\n      mload\n        /* \"#utility.yul\":4727:4730   */\n      dup5\n        /* \"#utility.yul\":4721:4725   */\n      dup3\n        /* \"#utility.yul\":4717:4731   */\n      sub\n        /* \"#utility.yul\":4710:4714   */\n      0x00\n        /* \"#utility.yul\":4705:4708   */\n      dup7\n        /* \"#utility.yul\":4701:4715   */\n      add\n        /* \"#utility.yul\":4694:4732   */\n      mstore\n        /* \"#utility.yul\":4753:4826   */\n      tag_122\n        /* \"#utility.yul\":4821:4825   */\n      dup3\n        /* \"#utility.yul\":4807:4819   */\n      dup3\n        /* \"#utility.yul\":4753:4826   */\n      tag_99\n      jump\t// in\n    tag_122:\n        /* \"#utility.yul\":4745:4826   */\n      swap2\n      pop\n        /* \"#utility.yul\":4593:4837   */\n      pop\n        /* \"#utility.yul\":4922:4926   */\n      0x20\n        /* \"#utility.yul\":4915:4920   */\n      dup4\n        /* \"#utility.yul\":4911:4927   */\n      add\n        /* \"#utility.yul\":4905:4928   */\n      mload\n        /* \"#utility.yul\":4975:4978   */\n      dup5\n        /* \"#utility.yul\":4969:4973   */\n      dup3\n        /* \"#utility.yul\":4965:4979   */\n      sub\n        /* \"#utility.yul\":4958:4962   */\n      0x20\n        /* \"#utility.yul\":4953:4956   */\n      dup7\n        /* \"#utility.yul\":4949:4963   */\n      add\n        /* \"#utility.yul\":4942:4980   */\n      mstore\n        /* \"#utility.yul\":5001:5074   */\n      tag_123\n        /* \"#utility.yul\":5069:5073   */\n      dup3\n        /* \"#utility.yul\":5055:5067   */\n      dup3\n        /* \"#utility.yul\":5001:5074   */\n      tag_99\n      jump\t// in\n    tag_123:\n        /* \"#utility.yul\":4993:5074   */\n      swap2\n      pop\n        /* \"#utility.yul\":4847:5085   */\n      pop\n        /* \"#utility.yul\":5173:5177   */\n      0x40\n        /* \"#utility.yul\":5166:5171   */\n      dup4\n        /* \"#utility.yul\":5162:5178   */\n      add\n        /* \"#utility.yul\":5156:5179   */\n      mload\n        /* \"#utility.yul\":5192:5255   */\n      tag_124\n        /* \"#utility.yul\":5249:5253   */\n      0x40\n        /* \"#utility.yul\":5244:5247   */\n      dup7\n        /* \"#utility.yul\":5240:5254   */\n      add\n        /* \"#utility.yul\":5226:5238   */\n      dup3\n        /* \"#utility.yul\":5192:5255   */\n      tag_95\n      jump\t// in\n    tag_124:\n        /* \"#utility.yul\":5095:5265   */\n      pop\n        /* \"#utility.yul\":5282:5286   */\n      dup1\n        /* \"#utility.yul\":5275:5286   */\n      swap2\n      pop\n        /* \"#utility.yul\":4547:5292   */\n      pop\n        /* \"#utility.yul\":4427:5292   */\n      swap3\n      swap2\n      pop\n      pop\n      jump\t// out\n        /* \"#utility.yul\":5298:5733   */\n    tag_33:\n        /* \"#utility.yul\":5478:5481   */\n      0x00\n        /* \"#utility.yul\":5500:5595   */\n      tag_126\n        /* \"#utility.yul\":5591:5594   */\n      dup3\n        /* \"#utility.yul\":5582:5588   */\n      dup6\n        /* \"#utility.yul\":5500:5595   */\n      tag_109\n      jump\t// in\n    tag_126:\n        /* \"#utility.yul\":5493:5595   */\n      swap2\n      pop\n        /* \"#utility.yul\":5612:5707   */\n      tag_127\n        /* \"#utility.yul\":5703:5706   */\n      dup3\n        /* \"#utility.yul\":5694:5700   */\n      dup5\n        /* \"#utility.yul\":5612:5707   */\n      tag_109\n      jump\t// in\n    tag_127:\n        /* \"#utility.yul\":5605:5707   */\n      swap2\n      pop\n        /* \"#utility.yul\":5724:5727   */\n      dup2\n        /* \"#utility.yul\":5717:5727   */\n      swap1\n      pop\n        /* \"#utility.yul\":5298:5733   */\n      swap4\n      swap3\n      pop\n      pop\n      pop\n      jump\t// out\n        /* \"#utility.yul\":5739:6224   */\n    tag_8:\n        /* \"#utility.yul\":5938:5942   */\n      0x00\n        /* \"#utility.yul\":5976:5978   */\n      0x20\n        /* \"#utility.yul\":5965:5974   */\n      dup3\n        /* \"#utility.yul\":5961:5979   */\n      add\n        /* \"#utility.yul\":5953:5979   */\n      swap1\n      pop\n        /* \"#utility.yul\":6025:6034   */\n      dup2\n        /* \"#utility.yul\":6019:6023   */\n      dup2\n        /* \"#utility.yul\":6015:6035   */\n      sub\n        /* \"#utility.yul\":6011:6012   */\n      0x00\n        /* \"#utility.yul\":6000:6009   */\n      dup4\n        /* \"#utility.yul\":5996:6013   */\n      add\n        /* \"#utility.yul\":5989:6036   */\n      mstore\n        /* \"#utility.yul\":6053:6217   */\n      tag_129\n        /* \"#utility.yul\":6212:6216   */\n      dup2\n        /* \"#utility.yul\":6203:6209   */\n      dup5\n        /* \"#utility.yul\":6053:6217   */\n      tag_81\n      jump\t// in\n    tag_129:\n        /* \"#utility.yul\":6045:6217   */\n      swap1\n      pop\n        /* \"#utility.yul\":5739:6224   */\n      swap3\n      swap2\n      pop\n      pop\n      jump\t// out\n        /* \"#utility.yul\":6230:6649   */\n    tag_31:\n        /* \"#utility.yul\":6396:6400   */\n      0x00\n        /* \"#utility.yul\":6434:6436   */\n      0x20\n        /* \"#utility.yul\":6423:6432   */\n      dup3\n        /* \"#utility.yul\":6419:6437   */\n      add\n        /* \"#utility.yul\":6411:6437   */\n      swap1\n      pop\n        /* \"#utility.yul\":6483:6492   */\n      dup2\n        /* \"#utility.yul\":6477:6481   */\n      dup2\n        /* \"#utility.yul\":6473:6493   */\n      sub\n        /* \"#utility.yul\":6469:6470   */\n      0x00\n        /* \"#utility.yul\":6458:6467   */\n      dup4\n        /* \"#utility.yul\":6454:6471   */\n      add\n        /* \"#utility.yul\":6447:6494   */\n      mstore\n        /* \"#utility.yul\":6511:6642   */\n      tag_131\n        /* \"#utility.yul\":6637:6641   */\n      dup2\n        /* \"#utility.yul\":6511:6642   */\n      tag_115\n      jump\t// in\n    tag_131:\n        /* \"#utility.yul\":6503:6642   */\n      swap1\n      pop\n        /* \"#utility.yul\":6230:6649   */\n      swap2\n      swap1\n      pop\n      jump\t// out\n        /* \"#utility.yul\":6655:6784   */\n    tag_54:\n        /* \"#utility.yul\":6689:6695   */\n      0x00\n        /* \"#utility.yul\":6716:6736   */\n      tag_133\n      tag_134\n      jump\t// in\n    tag_133:\n        /* \"#utility.yul\":6706:6736   */\n      swap1\n      pop\n        /* \"#utility.yul\":6745:6778   */\n      tag_135\n        /* \"#utility.yul\":6773:6777   */\n      dup3\n        /* \"#utility.yul\":6765:6771   */\n      dup3\n        /* \"#utility.yul\":6745:6778   */\n      tag_136\n      jump\t// in\n    tag_135:\n        /* \"#utility.yul\":6655:6784   */\n      swap2\n      swap1\n      pop\n      jump\t// out\n        /* \"#utility.yul\":6790:6865   */\n    tag_134:\n        /* \"#utility.yul\":6823:6829   */\n      0x00\n        /* \"#utility.yul\":6856:6858   */\n      0x40\n        /* \"#utility.yul\":6850:6859   */\n      mload\n        /* \"#utility.yul\":6840:6859   */\n      swap1\n      pop\n        /* \"#utility.yul\":6790:6865   */\n      swap1\n      jump\t// out\n        /* \"#utility.yul\":6871:7179   */\n    tag_53:\n        /* \"#utility.yul\":6933:6937   */\n      0x00\n        /* \"#utility.yul\":7023:7041   */\n      0xffffffffffffffff\n        /* \"#utility.yul\":7015:7021   */\n      dup3\n        /* \"#utility.yul\":7012:7042   */\n      gt\n        /* \"#utility.yul\":7009:7065   */\n      iszero\n      tag_139\n      jumpi\n        /* \"#utility.yul\":7045:7063   */\n      tag_140\n      tag_141\n      jump\t// in\n    tag_140:\n        /* \"#utility.yul\":7009:7065   */\n    tag_139:\n        /* \"#utility.yul\":7083:7112   */\n      tag_142\n        /* \"#utility.yul\":7105:7111   */\n      dup3\n        /* \"#utility.yul\":7083:7112   */\n      tag_108\n      jump\t// in\n    tag_142:\n        /* \"#utility.yul\":7075:7112   */\n      swap1\n      pop\n        /* \"#utility.yul\":7167:7171   */\n      0x20\n        /* \"#utility.yul\":7161:7165   */\n      dup2\n        /* \"#utility.yul\":7157:7172   */\n      add\n        /* \"#utility.yul\":7149:7172   */\n      swap1\n      pop\n        /* \"#utility.yul\":6871:7179   */\n      swap2\n      swap1\n      pop\n      jump\t// out\n        /* \"#utility.yul\":7185:7345   */\n    tag_88:\n        /* \"#utility.yul\":7280:7284   */\n      0x00\n        /* \"#utility.yul\":7303:7306   */\n      dup2\n        /* \"#utility.yul\":7295:7306   */\n      swap1\n      pop\n        /* \"#utility.yul\":7333:7337   */\n      0x20\n        /* \"#utility.yul\":7328:7331   */\n      dup3\n        /* \"#utility.yul\":7324:7338   */\n      add\n        /* \"#utility.yul\":7316:7338   */\n      swap1\n      pop\n        /* \"#utility.yul\":7185:7345   */\n      swap2\n      swap1\n      pop\n      jump\t// out\n        /* \"#utility.yul\":7351:7493   */\n    tag_84:\n        /* \"#utility.yul\":7446:7452   */\n      0x00\n        /* \"#utility.yul\":7480:7485   */\n      dup2\n        /* \"#utility.yul\":7474:7486   */\n      mload\n        /* \"#utility.yul\":7464:7486   */\n      swap1\n      pop\n        /* \"#utility.yul\":7351:7493   */\n      swap2\n      swap1\n      pop\n      jump\t// out\n        /* \"#utility.yul\":7499:7598   */\n    tag_102:\n        /* \"#utility.yul\":7551:7557   */\n      0x00\n        /* \"#utility.yul\":7585:7590   */\n      dup2\n        /* \"#utility.yul\":7579:7591   */\n      mload\n        /* \"#utility.yul\":7569:7591   */\n      swap1\n      pop\n        /* \"#utility.yul\":7499:7598   */\n      swap2\n      swap1\n      pop\n      jump\t// out\n        /* \"#utility.yul\":7604:7745   */\n    tag_94:\n        /* \"#utility.yul\":7702:7706   */\n      0x00\n        /* \"#utility.yul\":7734:7738   */\n      0x20\n        /* \"#utility.yul\":7729:7732   */\n      dup3\n        /* \"#utility.yul\":7725:7739   */\n      add\n        /* \"#utility.yul\":7717:7739   */\n      swap1\n      pop\n        /* \"#utility.yul\":7604:7745   */\n      swap2\n      swap1\n      pop\n      jump\t// out\n        /* \"#utility.yul\":7751:7963   */\n    tag_86:\n        /* \"#utility.yul\":7878:7889   */\n      0x00\n        /* \"#utility.yul\":7912:7918   */\n      dup3\n        /* \"#utility.yul\":7907:7910   */\n      dup3\n        /* \"#utility.yul\":7900:7919   */\n      mstore\n        /* \"#utility.yul\":7952:7956   */\n      0x20\n        /* \"#utility.yul\":7947:7950   */\n      dup3\n        /* \"#utility.yul\":7943:7957   */\n      add\n        /* \"#utility.yul\":7928:7957   */\n      swap1\n      pop\n        /* \"#utility.yul\":7751:7963   */\n      swap3\n      swap2\n      pop\n      pop\n      jump\t// out\n        /* \"#utility.yul\":7969:8128   */\n    tag_104:\n        /* \"#utility.yul\":8043:8054   */\n      0x00\n        /* \"#utility.yul\":8077:8083   */\n      dup3\n        /* \"#utility.yul\":8072:8075   */\n      dup3\n        /* \"#utility.yul\":8065:8084   */\n      mstore\n        /* \"#utility.yul\":8117:8121   */\n      0x20\n        /* \"#utility.yul\":8112:8115   */\n      dup3\n        /* \"#utility.yul\":8108:8122   */\n      add\n        /* \"#utility.yul\":8093:8122   */\n      swap1\n      pop\n        /* \"#utility.yul\":7969:8128   */\n      swap3\n      swap2\n      pop\n      pop\n      jump\t// out\n        /* \"#utility.yul\":8134:8303   */\n    tag_118:\n        /* \"#utility.yul\":8218:8229   */\n      0x00\n        /* \"#utility.yul\":8252:8258   */\n      dup3\n        /* \"#utility.yul\":8247:8250   */\n      dup3\n        /* \"#utility.yul\":8240:8259   */\n      mstore\n        /* \"#utility.yul\":8292:8296   */\n      0x20\n        /* \"#utility.yul\":8287:8290   */\n      dup3\n        /* \"#utility.yul\":8283:8297   */\n      add\n        /* \"#utility.yul\":8268:8297   */\n      swap1\n      pop\n        /* \"#utility.yul\":8134:8303   */\n      swap3\n      swap2\n      pop\n      pop\n      jump\t// out\n        /* \"#utility.yul\":8309:8457   */\n    tag_113:\n        /* \"#utility.yul\":8411:8422   */\n      0x00\n        /* \"#utility.yul\":8448:8451   */\n      dup2\n        /* \"#utility.yul\":8433:8451   */\n      swap1\n      pop\n        /* \"#utility.yul\":8309:8457   */\n      swap3\n      swap2\n      pop\n      pop\n      jump\t// out\n        /* \"#utility.yul\":8463:8540   */\n    tag_98:\n        /* \"#utility.yul\":8500:8507   */\n      0x00\n        /* \"#utility.yul\":8529:8534   */\n      dup2\n        /* \"#utility.yul\":8518:8534   */\n      swap1\n      pop\n        /* \"#utility.yul\":8463:8540   */\n      swap2\n      swap1\n      pop\n      jump\t// out\n        /* \"#utility.yul\":8546:8700   */\n    tag_59:\n        /* \"#utility.yul\":8630:8636   */\n      dup3\n        /* \"#utility.yul\":8625:8628   */\n      dup2\n        /* \"#utility.yul\":8620:8623   */\n      dup4\n        /* \"#utility.yul\":8607:8637   */\n      calldatacopy\n        /* \"#utility.yul\":8692:8693   */\n      0x00\n        /* \"#utility.yul\":8683:8689   */\n      dup4\n        /* \"#utility.yul\":8678:8681   */\n      dup4\n        /* \"#utility.yul\":8674:8690   */\n      add\n        /* \"#utility.yul\":8667:8694   */\n      mstore\n        /* \"#utility.yul\":8546:8700   */\n      pop\n      pop\n      pop\n      jump\t// out\n        /* \"#utility.yul\":8706:9013   */\n    tag_106:\n        /* \"#utility.yul\":8774:8775   */\n      0x00\n        /* \"#utility.yul\":8784:8897   */\n    tag_154:\n        /* \"#utility.yul\":8798:8804   */\n      dup4\n        /* \"#utility.yul\":8795:8796   */\n      dup2\n        /* \"#utility.yul\":8792:8805   */\n      lt\n        /* \"#utility.yul\":8784:8897   */\n      iszero\n      tag_156\n      jumpi\n        /* \"#utility.yul\":8883:8884   */\n      dup1\n        /* \"#utility.yul\":8878:8881   */\n      dup3\n        /* \"#utility.yul\":8874:8885   */\n      add\n        /* \"#utility.yul\":8868:8886   */\n      mload\n        /* \"#utility.yul\":8864:8865   */\n      dup2\n        /* \"#utility.yul\":8859:8862   */\n      dup5\n        /* \"#utility.yul\":8855:8866   */\n      add\n        /* \"#utility.yul\":8848:8887   */\n      mstore\n        /* \"#utility.yul\":8820:8822   */\n      0x20\n        /* \"#utility.yul\":8817:8818   */\n      dup2\n        /* \"#utility.yul\":8813:8823   */\n      add\n        /* \"#utility.yul\":8808:8823   */\n      swap1\n      pop\n        /* \"#utility.yul\":8784:8897   */\n      jump(tag_154)\n    tag_156:\n        /* \"#utility.yul\":8915:8921   */\n      dup4\n        /* \"#utility.yul\":8912:8913   */\n      dup2\n        /* \"#utility.yul\":8909:8922   */\n      gt\n        /* \"#utility.yul\":8906:9007   */\n      iszero\n      tag_157\n      jumpi\n        /* \"#utility.yul\":8995:8996   */\n      0x00\n        /* \"#utility.yul\":8986:8992   */\n      dup5\n        /* \"#utility.yul\":8981:8984   */\n      dup5\n        /* \"#utility.yul\":8977:8993   */\n      add\n        /* \"#utility.yul\":8970:8997   */\n      mstore\n        /* \"#utility.yul\":8906:9007   */\n    tag_157:\n        /* \"#utility.yul\":8755:9013   */\n      pop\n        /* \"#utility.yul\":8706:9013   */\n      pop\n      pop\n      pop\n      jump\t// out\n        /* \"#utility.yul\":9019:9339   */\n    tag_18:\n        /* \"#utility.yul\":9063:9069   */\n      0x00\n        /* \"#utility.yul\":9100:9101   */\n      0x02\n        /* \"#utility.yul\":9094:9098   */\n      dup3\n        /* \"#utility.yul\":9090:9102   */\n      div\n        /* \"#utility.yul\":9080:9102   */\n      swap1\n      pop\n        /* \"#utility.yul\":9147:9148   */\n      0x01\n        /* \"#utility.yul\":9141:9145   */\n      dup3\n        /* \"#utility.yul\":9137:9149   */\n      and\n        /* \"#utility.yul\":9168:9186   */\n      dup1\n        /* \"#utility.yul\":9158:9239   */\n      tag_159\n      jumpi\n        /* \"#utility.yul\":9224:9228   */\n      0x7f\n        /* \"#utility.yul\":9216:9222   */\n      dup3\n        /* \"#utility.yul\":9212:9229   */\n      and\n        /* \"#utility.yul\":9202:9229   */\n      swap2\n      pop\n        /* \"#utility.yul\":9158:9239   */\n    tag_159:\n        /* \"#utility.yul\":9286:9288   */\n      0x20\n        /* \"#utility.yul\":9278:9284   */\n      dup3\n        /* \"#utility.yul\":9275:9289   */\n      lt\n        /* \"#utility.yul\":9255:9273   */\n      dup2\n        /* \"#utility.yul\":9252:9290   */\n      eq\n        /* \"#utility.yul\":9249:9333   */\n      iszero\n      tag_160\n      jumpi\n        /* \"#utility.yul\":9305:9323   */\n      tag_161\n      tag_162\n      jump\t// in\n    tag_161:\n        /* \"#utility.yul\":9249:9333   */\n    tag_160:\n        /* \"#utility.yul\":9070:9339   */\n      pop\n        /* \"#utility.yul\":9019:9339   */\n      swap2\n      swap1\n      pop\n      jump\t// out\n        /* \"#utility.yul\":9345:9626   */\n    tag_136:\n        /* \"#utility.yul\":9428:9455   */\n      tag_164\n        /* \"#utility.yul\":9450:9454   */\n      dup3\n        /* \"#utility.yul\":9428:9455   */\n      tag_108\n      jump\t// in\n    tag_164:\n        /* \"#utility.yul\":9420:9426   */\n      dup2\n        /* \"#utility.yul\":9416:9456   */\n      add\n        /* \"#utility.yul\":9558:9564   */\n      dup2\n        /* \"#utility.yul\":9546:9556   */\n      dup2\n        /* \"#utility.yul\":9543:9565   */\n      lt\n        /* \"#utility.yul\":9522:9540   */\n      0xffffffffffffffff\n        /* \"#utility.yul\":9510:9520   */\n      dup3\n        /* \"#utility.yul\":9507:9541   */\n      gt\n        /* \"#utility.yul\":9504:9566   */\n      or\n        /* \"#utility.yul\":9501:9589   */\n      iszero\n      tag_165\n      jumpi\n        /* \"#utility.yul\":9569:9587   */\n      tag_166\n      tag_141\n      jump\t// in\n    tag_166:\n        /* \"#utility.yul\":9501:9589   */\n    tag_165:\n        /* \"#utility.yul\":9609:9619   */\n      dup1\n        /* \"#utility.yul\":9605:9607   */\n      0x40\n        /* \"#utility.yul\":9598:9620   */\n      mstore\n        /* \"#utility.yul\":9388:9626   */\n      pop\n        /* \"#utility.yul\":9345:9626   */\n      pop\n      pop\n      jump\t// out\n        /* \"#utility.yul\":9632:9812   */\n    tag_162:\n        /* \"#utility.yul\":9680:9757   */\n      0x4e487b7100000000000000000000000000000000000000000000000000000000\n        /* \"#utility.yul\":9677:9678   */\n      0x00\n        /* \"#utility.yul\":9670:9758   */\n      mstore\n        /* \"#utility.yul\":9777:9781   */\n      0x22\n        /* \"#utility.yul\":9774:9775   */\n      0x04\n        /* \"#utility.yul\":9767:9782   */\n      mstore\n        /* \"#utility.yul\":9801:9805   */\n      0x24\n        /* \"#utility.yul\":9798:9799   */\n      0x00\n        /* \"#utility.yul\":9791:9806   */\n      revert\n        /* \"#utility.yul\":9818:9998   */\n    tag_141:\n        /* \"#utility.yul\":9866:9943   */\n      0x4e487b7100000000000000000000000000000000000000000000000000000000\n        /* \"#utility.yul\":9863:9864   */\n      0x00\n        /* \"#utility.yul\":9856:9944   */\n      mstore\n        /* \"#utility.yul\":9963:9967   */\n      0x41\n        /* \"#utility.yul\":9960:9961   */\n      0x04\n        /* \"#utility.yul\":9953:9968   */\n      mstore\n        /* \"#utility.yul\":9987:9991   */\n      0x24\n        /* \"#utility.yul\":9984:9985   */\n      0x00\n        /* \"#utility.yul\":9977:9992   */\n      revert\n        /* \"#utility.yul\":10004:10121   */\n    tag_64:\n        /* \"#utility.yul\":10113:10114   */\n      0x00\n        /* \"#utility.yul\":10110:10111   */\n      dup1\n        /* \"#utility.yul\":10103:10115   */\n      revert\n        /* \"#utility.yul\":10127:10244   */\n    tag_57:\n        /* \"#utility.yul\":10236:10237   */\n      0x00\n        /* \"#utility.yul\":10233:10234   */\n      dup1\n        /* \"#utility.yul\":10226:10238   */\n      revert\n        /* \"#utility.yul\":10250:10367   */\n    tag_72:\n        /* \"#utility.yul\":10359:10360   */\n      0x00\n        /* \"#utility.yul\":10356:10357   */\n      dup1\n        /* \"#utility.yul\":10349:10361   */\n      revert\n        /* \"#utility.yul\":10373:10490   */\n    tag_69:\n        /* \"#utility.yul\":10482:10483   */\n      0x00\n        /* \"#utility.yul\":10479:10480   */\n      dup1\n        /* \"#utility.yul\":10472:10484   */\n      revert\n        /* \"#utility.yul\":10496:10598   */\n    tag_108:\n        /* \"#utility.yul\":10537:10543   */\n      0x00\n        /* \"#utility.yul\":10588:10590   */\n      0x1f\n        /* \"#utility.yul\":10584:10591   */\n      not\n        /* \"#utility.yul\":10579:10581   */\n      0x1f\n        /* \"#utility.yul\":10572:10577   */\n      dup4\n        /* \"#utility.yul\":10568:10582   */\n      add\n        /* \"#utility.yul\":10564:10592   */\n      and\n        /* \"#utility.yul\":10554:10592   */\n      swap1\n      pop\n        /* \"#utility.yul\":10496:10598   */\n      swap2\n      swap1\n      pop\n      jump\t// out\n        /* \"#utility.yul\":10604:10773   */\n    tag_120:\n        /* \"#utility.yul\":10744:10765   */\n      0x556e617574686f72697a656420506572736f6e00000000000000000000000000\n        /* \"#utility.yul\":10740:10741   */\n      0x00\n        /* \"#utility.yul\":10732:10738   */\n      dup3\n        /* \"#utility.yul\":10728:10742   */\n      add\n        /* \"#utility.yul\":10721:10766   */\n      mstore\n        /* \"#utility.yul\":10604:10773   */\n      pop\n      jump\t// out\n\n    auxdata: 0xa264697066735822122070c2eb428f0dd04db3cbfc8d728496a1737025e484b49604320321c23ddbc20564736f6c63430008070033\n}\n",
				"bytecode": {
					"linkReferences": {},
					"object": "6080604052336000806101000a81548173ffffffffffffffffffffffffffffffffffffffff021916908373ffffffffffffffffffffffffffffffffffffffff16021790555034801561005057600080fd5b5061090d806100606000396000f3fe608060405234801561001057600080fd5b50600436106100365760003560e01c80632e6997fe1461003b578063c1700e0014610059575b600080fd5b610043610075565b6040516100509190610673565b60405180910390f35b610073600480360381019061006e919061045b565b610202565b005b60606001805480602002602001604051908101604052809291908181526020016000905b828210156101f957838290600052602060002090600302016040518060600160405290816000820180546100cc906107c8565b80601f01602080910402602001604051908101604052809291908181526020018280546100f8906107c8565b80156101455780601f1061011a57610100808354040283529160200191610145565b820191906000526020600020905b81548152906001019060200180831161012857829003601f168201915b5050505050815260200160018201805461015e906107c8565b80601f016020809104026020016040519081016040528092919081815260200182805461018a906107c8565b80156101d75780601f106101ac576101008083540402835291602001916101d7565b820191906000526020600020905b8154815290600101906020018083116101ba57829003601f168201915b5050505050815260200160028201548152505081526020019060010190610099565b50505050905090565b60008054906101000a900473ffffffffffffffffffffffffffffffffffffffff1673ffffffffffffffffffffffffffffffffffffffff163373ffffffffffffffffffffffffffffffffffffffff1614610290576040517f08c379a000000000000000000000000000000000000000000000000000000000815260040161028790610695565b60405180910390fd5b6001604051806060016040528084815260200183815260200184846040516020016102bc92919061064f565b604051602081830303815290604052805190602001208152509080600181540180825580915050600190039060005260206000209060030201600090919091909150600082015181600001908051906020019061031a929190610348565b506020820151816001019080519060200190610337929190610348565b506040820151816002015550505050565b828054610354906107c8565b90600052602060002090601f01602090048101928261037657600085556103bd565b82601f1061038f57805160ff19168380011785556103bd565b828001600101855582156103bd579182015b828111156103bc5782518255916020019190600101906103a1565b5b5090506103ca91906103ce565b5090565b5b808211156103e75760008160009055506001016103cf565b5090565b60006103fe6103f9846106da565b6106b5565b90508281526020810184848401111561041a5761041961088e565b5b610425848285610786565b509392505050565b600082601f83011261044257610441610889565b5b81356104528482602086016103eb565b91505092915050565b6000806040838503121561047257610471610898565b5b600083013567ffffffffffffffff8111156104905761048f610893565b5b61049c8582860161042d565b925050602083013567ffffffffffffffff8111156104bd576104bc610893565b5b6104c98582860161042d565b9150509250929050565b60006104df83836105f8565b905092915050565b60006104f28261071b565b6104fc818561073e565b93508360208202850161050e8561070b565b8060005b8581101561054a578484038952815161052b85826104d3565b945061053683610731565b925060208a01995050600181019050610512565b50829750879550505050505092915050565b6105658161077c565b82525050565b600061057682610726565b610580818561074f565b9350610590818560208601610795565b6105998161089d565b840191505092915050565b60006105af82610726565b6105b98185610771565b93506105c9818560208601610795565b80840191505092915050565b60006105e2601383610760565b91506105ed826108ae565b602082019050919050565b60006060830160008301518482036000860152610615828261056b565b9150506020830151848203602086015261062f828261056b565b9150506040830151610644604086018261055c565b508091505092915050565b600061065b82856105a4565b915061066782846105a4565b91508190509392505050565b6000602082019050818103600083015261068d81846104e7565b905092915050565b600060208201905081810360008301526106ae816105d5565b9050919050565b60006106bf6106d0565b90506106cb82826107fa565b919050565b6000604051905090565b600067ffffffffffffffff8211156106f5576106f461085a565b5b6106fe8261089d565b9050602081019050919050565b6000819050602082019050919050565b600081519050919050565b600081519050919050565b6000602082019050919050565b600082825260208201905092915050565b600082825260208201905092915050565b600082825260208201905092915050565b600081905092915050565b6000819050919050565b82818337600083830152505050565b60005b838110156107b3578082015181840152602081019050610798565b838111156107c2576000848401525b50505050565b600060028204905060018216806107e057607f821691505b602082108114156107f4576107f361082b565b5b50919050565b6108038261089d565b810181811067ffffffffffffffff821117156108225761082161085a565b5b80604052505050565b7f4e487b7100000000000000000000000000000000000000000000000000000000600052602260045260246000fd5b7f4e487b7100000000000000000000000000000000000000000000000000000000600052604160045260246000fd5b600080fd5b600080fd5b600080fd5b600080fd5b6000601f19601f8301169050919050565b7f556e617574686f72697a656420506572736f6e0000000000000000000000000060008201525056fea264697066735822122070c2eb428f0dd04db3cbfc8d728496a1737025e484b49604320321c23ddbc20564736f6c63430008070033",
					"opcodes": "PUSH1 0x80 PUSH1 0x40 MSTORE CALLER PUSH1 0x0 DUP1 PUSH2 0x100 EXP DUP2 SLOAD DUP2 PUSH20 0xFFFFFFFFFFFFFFFFFFFFFFFFFFFFFFFFFFFFFFFF MUL NOT AND SWAP1 DUP4 PUSH20 0xFFFFFFFFFFFFFFFFFFFFFFFFFFFFFFFFFFFFFFFF AND MUL OR SWAP1 SSTORE POP CALLVALUE DUP1 ISZERO PUSH2 0x50 JUMPI PUSH1 0x0 DUP1 REVERT JUMPDEST POP PUSH2 0x90D DUP1 PUSH2 0x60 PUSH1 0x0 CODECOPY PUSH1 0x0 RETURN INVALID PUSH1 0x80 PUSH1 0x40 MSTORE CALLVALUE DUP1 ISZERO PUSH2 0x10 JUMPI PUSH1 0x0 DUP1 REVERT JUMPDEST POP PUSH1 0x4 CALLDATASIZE LT PUSH2 0x36 JUMPI PUSH1 0x0 CALLDATALOAD PUSH1 0xE0 SHR DUP1 PUSH4 0x2E6997FE EQ PUSH2 0x3B JUMPI DUP1 PUSH4 0xC1700E00 EQ PUSH2 0x59 JUMPI JUMPDEST PUSH1 0x0 DUP1 REVERT JUMPDEST PUSH2 0x43 PUSH2 0x75 JUMP JUMPDEST PUSH1 0x40 MLOAD PUSH2 0x50 SWAP2 SWAP1 PUSH2 0x673 JUMP JUMPDEST PUSH1 0x40 MLOAD DUP1 SWAP2 SUB SWAP1 RETURN JUMPDEST PUSH2 0x73 PUSH1 0x4 DUP1 CALLDATASIZE SUB DUP2 ADD SWAP1 PUSH2 0x6E SWAP2 SWAP1 PUSH2 0x45B JUMP JUMPDEST PUSH2 0x202 JUMP JUMPDEST STOP JUMPDEST PUSH1 0x60 PUSH1 0x1 DUP1 SLOAD DUP1 PUSH1 0x20 MUL PUSH1 0x20 ADD PUSH1 0x40 MLOAD SWAP1 DUP2 ADD PUSH1 0x40 MSTORE DUP1 SWAP3 SWAP2 SWAP1 DUP2 DUP2 MSTORE PUSH1 0x20 ADD PUSH1 0x0 SWAP1 JUMPDEST DUP3 DUP3 LT ISZERO PUSH2 0x1F9 JUMPI DUP4 DUP3 SWAP1 PUSH1 0x0 MSTORE PUSH1 0x20 PUSH1 0x0 KECCAK256 SWAP1 PUSH1 0x3 MUL ADD PUSH1 0x40 MLOAD DUP1 PUSH1 0x60 ADD PUSH1 0x40 MSTORE SWAP1 DUP2 PUSH1 0x0 DUP3 ADD DUP1 SLOAD PUSH2 0xCC SWAP1 PUSH2 0x7C8 JUMP JUMPDEST DUP1 PUSH1 0x1F ADD PUSH1 0x20 DUP1 SWAP2 DIV MUL PUSH1 0x20 ADD PUSH1 0x40 MLOAD SWAP1 DUP2 ADD PUSH1 0x40 MSTORE DUP1 SWAP3 SWAP2 SWAP1 DUP2 DUP2 MSTORE PUSH1 0x20 ADD DUP3 DUP1 SLOAD PUSH2 0xF8 SWAP1 PUSH2 0x7C8 JUMP JUMPDEST DUP1 ISZERO PUSH2 0x145 JUMPI DUP1 PUSH1 0x1F LT PUSH2 0x11A JUMPI PUSH2 0x100 DUP1 DUP4 SLOAD DIV MUL DUP4 MSTORE SWAP2 PUSH1 0x20 ADD SWAP2 PUSH2 0x145 JUMP JUMPDEST DUP3 ADD SWAP2 SWAP1 PUSH1 0x0 MSTORE PUSH1 0x20 PUSH1 0x0 KECCAK256 SWAP1 JUMPDEST DUP2 SLOAD DUP2 MSTORE SWAP1 PUSH1 0x1 ADD SWAP1 PUSH1 0x20 ADD DUP1 DUP4 GT PUSH2 0x128 JUMPI DUP3 SWAP1 SUB PUSH1 0x1F AND DUP3 ADD SWAP2 JUMPDEST POP POP POP POP POP DUP2 MSTORE PUSH1 0x20 ADD PUSH1 0x1 DUP3 ADD DUP1 SLOAD PUSH2 0x15E SWAP1 PUSH2 0x7C8 JUMP JUMPDEST DUP1 PUSH1 0x1F ADD PUSH1 0x20 DUP1 SWAP2 DIV MUL PUSH1 0x20 ADD PUSH1 0x40 MLOAD SWAP1 DUP2 ADD PUSH1 0x40 MSTORE DUP1 SWAP3 SWAP2 SWAP1 DUP2 DUP2 MSTORE PUSH1 0x20 ADD DUP3 DUP1 SLOAD PUSH2 0x18A SWAP1 PUSH2 0x7C8 JUMP JUMPDEST DUP1 ISZERO PUSH2 0x1D7 JUMPI DUP1 PUSH1 0x1F LT PUSH2 0x1AC JUMPI PUSH2 0x100 DUP1 DUP4 SLOAD DIV MUL DUP4 MSTORE SWAP2 PUSH1 0x20 ADD SWAP2 PUSH2 0x1D7 JUMP JUMPDEST DUP3 ADD SWAP2 SWAP1 PUSH1 0x0 MSTORE PUSH1 0x20 PUSH1 0x0 KECCAK256 SWAP1 JUMPDEST DUP2 SLOAD DUP2 MSTORE SWAP1 PUSH1 0x1 ADD SWAP1 PUSH1 0x20 ADD DUP1 DUP4 GT PUSH2 0x1BA JUMPI DUP3 SWAP1 SUB PUSH1 0x1F AND DUP3 ADD SWAP2 JUMPDEST POP POP POP POP POP DUP2 MSTORE PUSH1 0x20 ADD PUSH1 0x2 DUP3 ADD SLOAD DUP2 MSTORE POP POP DUP2 MSTORE PUSH1 0x20 ADD SWAP1 PUSH1 0x1 ADD SWAP1 PUSH2 0x99 JUMP JUMPDEST POP POP POP POP SWAP1 POP SWAP1 JUMP JUMPDEST PUSH1 0x0 DUP1 SLOAD SWAP1 PUSH2 0x100 EXP SWAP1 DIV PUSH20 0xFFFFFFFFFFFFFFFFFFFFFFFFFFFFFFFFFFFFFFFF AND PUSH20 0xFFFFFFFFFFFFFFFFFFFFFFFFFFFFFFFFFFFFFFFF AND CALLER PUSH20 0xFFFFFFFFFFFFFFFFFFFFFFFFFFFFFFFFFFFFFFFF AND EQ PUSH2 0x290 JUMPI PUSH1 0x40 MLOAD PUSH32 0x8C379A000000000000000000000000000000000000000000000000000000000 DUP2 MSTORE PUSH1 0x4 ADD PUSH2 0x287 SWAP1 PUSH2 0x695 JUMP JUMPDEST PUSH1 0x40 MLOAD DUP1 SWAP2 SUB SWAP1 REVERT JUMPDEST PUSH1 0x1 PUSH1 0x40 MLOAD DUP1 PUSH1 0x60 ADD PUSH1 0x40 MSTORE DUP1 DUP5 DUP2 MSTORE PUSH1 0x20 ADD DUP4 DUP2 MSTORE PUSH1 0x20 ADD DUP5 DUP5 PUSH1 0x40 MLOAD PUSH1 0x20 ADD PUSH2 0x2BC SWAP3 SWAP2 SWAP1 PUSH2 0x64F JUMP JUMPDEST PUSH1 0x40 MLOAD PUSH1 0x20 DUP2 DUP4 SUB SUB DUP2 MSTORE SWAP1 PUSH1 0x40 MSTORE DUP1 MLOAD SWAP1 PUSH1 0x20 ADD KECCAK256 DUP2 MSTORE POP SWAP1 DUP1 PUSH1 0x1 DUP2 SLOAD ADD DUP1 DUP3 SSTORE DUP1 SWAP2 POP POP PUSH1 0x1 SWAP1 SUB SWAP1 PUSH1 0x0 MSTORE PUSH1 0x20 PUSH1 0x0 KECCAK256 SWAP1 PUSH1 0x3 MUL ADD PUSH1 0x0 SWAP1 SWAP2 SWAP1 SWAP2 SWAP1 SWAP2 POP PUSH1 0x0 DUP3 ADD MLOAD DUP2 PUSH1 0x0 ADD SWAP1 DUP1 MLOAD SWAP1 PUSH1 0x20 ADD SWAP1 PUSH2 0x31A SWAP3 SWAP2 SWAP1 PUSH2 0x348 JUMP JUMPDEST POP PUSH1 0x20 DUP3 ADD MLOAD DUP2 PUSH1 0x1 ADD SWAP1 DUP1 MLOAD SWAP1 PUSH1 0x20 ADD SWAP1 PUSH2 0x337 SWAP3 SWAP2 SWAP1 PUSH2 0x348 JUMP JUMPDEST POP PUSH1 0x40 DUP3 ADD MLOAD DUP2 PUSH1 0x2 ADD SSTORE POP POP POP POP JUMP JUMPDEST DUP3 DUP1 SLOAD PUSH2 0x354 SWAP1 PUSH2 0x7C8 JUMP JUMPDEST SWAP1 PUSH1 0x0 MSTORE PUSH1 0x20 PUSH1 0x0 KECCAK256 SWAP1 PUSH1 0x1F ADD PUSH1 0x20 SWAP1 DIV DUP2 ADD SWAP3 DUP3 PUSH2 0x376 JUMPI PUSH1 0x0 DUP6 SSTORE PUSH2 0x3BD JUMP JUMPDEST DUP3 PUSH1 0x1F LT PUSH2 0x38F JUMPI DUP1 MLOAD PUSH1 0xFF NOT AND DUP4 DUP1 ADD OR DUP6 SSTORE PUSH2 0x3BD JUMP JUMPDEST DUP3 DUP1 ADD PUSH1 0x1 ADD DUP6 SSTORE DUP3 ISZERO PUSH2 0x3BD JUMPI SWAP2 DUP3 ADD JUMPDEST DUP3 DUP2 GT ISZERO PUSH2 0x3BC JUMPI DUP3 MLOAD DUP3 SSTORE SWAP2 PUSH1 0x20 ADD SWAP2 SWAP1 PUSH1 0x1 ADD SWAP1 PUSH2 0x3A1 JUMP JUMPDEST JUMPDEST POP SWAP1 POP PUSH2 0x3CA SWAP2 SWAP1 PUSH2 0x3CE JUMP JUMPDEST POP SWAP1 JUMP JUMPDEST JUMPDEST DUP1 DUP3 GT ISZERO PUSH2 0x3E7 JUMPI PUSH1 0x0 DUP2 PUSH1 0x0 SWAP1 SSTORE POP PUSH1 0x1 ADD PUSH2 0x3CF JUMP JUMPDEST POP SWAP1 JUMP JUMPDEST PUSH1 0x0 PUSH2 0x3FE PUSH2 0x3F9 DUP5 PUSH2 0x6DA JUMP JUMPDEST PUSH2 0x6B5 JUMP JUMPDEST SWAP1 POP DUP3 DUP2 MSTORE PUSH1 0x20 DUP2 ADD DUP5 DUP5 DUP5 ADD GT ISZERO PUSH2 0x41A JUMPI PUSH2 0x419 PUSH2 0x88E JUMP JUMPDEST JUMPDEST PUSH2 0x425 DUP5 DUP3 DUP6 PUSH2 0x786 JUMP JUMPDEST POP SWAP4 SWAP3 POP POP POP JUMP JUMPDEST PUSH1 0x0 DUP3 PUSH1 0x1F DUP4 ADD SLT PUSH2 0x442 JUMPI PUSH2 0x441 PUSH2 0x889 JUMP JUMPDEST JUMPDEST DUP2 CALLDATALOAD PUSH2 0x452 DUP5 DUP3 PUSH1 0x20 DUP7 ADD PUSH2 0x3EB JUMP JUMPDEST SWAP2 POP POP SWAP3 SWAP2 POP POP JUMP JUMPDEST PUSH1 0x0 DUP1 PUSH1 0x40 DUP4 DUP6 SUB SLT ISZERO PUSH2 0x472 JUMPI PUSH2 0x471 PUSH2 0x898 JUMP JUMPDEST JUMPDEST PUSH1 0x0 DUP4 ADD CALLDATALOAD PUSH8 0xFFFFFFFFFFFFFFFF DUP2 GT ISZERO PUSH2 0x490 JUMPI PUSH2 0x48F PUSH2 0x893 JUMP JUMPDEST JUMPDEST PUSH2 0x49C DUP6 DUP3 DUP7 ADD PUSH2 0x42D JUMP JUMPDEST SWAP3 POP POP PUSH1 0x20 DUP4 ADD CALLDATALOAD PUSH8 0xFFFFFFFFFFFFFFFF DUP2 GT ISZERO PUSH2 0x4BD JUMPI PUSH2 0x4BC PUSH2 0x893 JUMP JUMPDEST JUMPDEST PUSH2 0x4C9 DUP6 DUP3 DUP7 ADD PUSH2 0x42D JUMP JUMPDEST SWAP2 POP POP SWAP3 POP SWAP3 SWAP1 POP JUMP JUMPDEST PUSH1 0x0 PUSH2 0x4DF DUP4 DUP4 PUSH2 0x5F8 JUMP JUMPDEST SWAP1 POP SWAP3 SWAP2 POP POP JUMP JUMPDEST PUSH1 0x0 PUSH2 0x4F2 DUP3 PUSH2 0x71B JUMP JUMPDEST PUSH2 0x4FC DUP2 DUP6 PUSH2 0x73E JUMP JUMPDEST SWAP4 POP DUP4 PUSH1 0x20 DUP3 MUL DUP6 ADD PUSH2 0x50E DUP6 PUSH2 0x70B JUMP JUMPDEST DUP1 PUSH1 0x0 JUMPDEST DUP6 DUP2 LT ISZERO PUSH2 0x54A JUMPI DUP5 DUP5 SUB DUP10 MSTORE DUP2 MLOAD PUSH2 0x52B DUP6 DUP3 PUSH2 0x4D3 JUMP JUMPDEST SWAP5 POP PUSH2 0x536 DUP4 PUSH2 0x731 JUMP JUMPDEST SWAP3 POP PUSH1 0x20 DUP11 ADD SWAP10 POP POP PUSH1 0x1 DUP2 ADD SWAP1 POP PUSH2 0x512 JUMP JUMPDEST POP DUP3 SWAP8 POP DUP8 SWAP6 POP POP POP POP POP POP SWAP3 SWAP2 POP POP JUMP JUMPDEST PUSH2 0x565 DUP2 PUSH2 0x77C JUMP JUMPDEST DUP3 MSTORE POP POP JUMP JUMPDEST PUSH1 0x0 PUSH2 0x576 DUP3 PUSH2 0x726 JUMP JUMPDEST PUSH2 0x580 DUP2 DUP6 PUSH2 0x74F JUMP JUMPDEST SWAP4 POP PUSH2 0x590 DUP2 DUP6 PUSH1 0x20 DUP7 ADD PUSH2 0x795 JUMP JUMPDEST PUSH2 0x599 DUP2 PUSH2 0x89D JUMP JUMPDEST DUP5 ADD SWAP2 POP POP SWAP3 SWAP2 POP POP JUMP JUMPDEST PUSH1 0x0 PUSH2 0x5AF DUP3 PUSH2 0x726 JUMP JUMPDEST PUSH2 0x5B9 DUP2 DUP6 PUSH2 0x771 JUMP JUMPDEST SWAP4 POP PUSH2 0x5C9 DUP2 DUP6 PUSH1 0x20 DUP7 ADD PUSH2 0x795 JUMP JUMPDEST DUP1 DUP5 ADD SWAP2 POP POP SWAP3 SWAP2 POP POP JUMP JUMPDEST PUSH1 0x0 PUSH2 0x5E2 PUSH1 0x13 DUP4 PUSH2 0x760 JUMP JUMPDEST SWAP2 POP PUSH2 0x5ED DUP3 PUSH2 0x8AE JUMP JUMPDEST PUSH1 0x20 DUP3 ADD SWAP1 POP SWAP2 SWAP1 POP JUMP JUMPDEST PUSH1 0x0 PUSH1 0x60 DUP4 ADD PUSH1 0x0 DUP4 ADD MLOAD DUP5 DUP3 SUB PUSH1 0x0 DUP7 ADD MSTORE PUSH2 0x615 DUP3 DUP3 PUSH2 0x56B JUMP JUMPDEST SWAP2 POP POP PUSH1 0x20 DUP4 ADD MLOAD DUP5 DUP3 SUB PUSH1 0x20 DUP7 ADD MSTORE PUSH2 0x62F DUP3 DUP3 PUSH2 0x56B JUMP JUMPDEST SWAP2 POP POP PUSH1 0x40 DUP4 ADD MLOAD PUSH2 0x644 PUSH1 0x40 DUP7 ADD DUP3 PUSH2 0x55C JUMP JUMPDEST POP DUP1 SWAP2 POP POP SWAP3 SWAP2 POP POP JUMP JUMPDEST PUSH1 0x0 PUSH2 0x65B DUP3 DUP6 PUSH2 0x5A4 JUMP JUMPDEST SWAP2 POP PUSH2 0x667 DUP3 DUP5 PUSH2 0x5A4 JUMP JUMPDEST SWAP2 POP DUP2 SWAP1 POP SWAP4 SWAP3 POP POP POP JUMP JUMPDEST PUSH1 0x0 PUSH1 0x20 DUP3 ADD SWAP1 POP DUP2 DUP2 SUB PUSH1 0x0 DUP4 ADD MSTORE PUSH2 0x68D DUP2 DUP5 PUSH2 0x4E7 JUMP JUMPDEST SWAP1 POP SWAP3 SWAP2 POP POP JUMP JUMPDEST PUSH1 0x0 PUSH1 0x20 DUP3 ADD SWAP1 POP DUP2 DUP2 SUB PUSH1 0x0 DUP4 ADD MSTORE PUSH2 0x6AE DUP2 PUSH2 0x5D5 JUMP JUMPDEST SWAP1 POP SWAP2 SWAP1 POP JUMP JUMPDEST PUSH1 0x0 PUSH2 0x6BF PUSH2 0x6D0 JUMP JUMPDEST SWAP1 POP PUSH2 0x6CB DUP3 DUP3 PUSH2 0x7FA JUMP JUMPDEST SWAP2 SWAP1 POP JUMP JUMPDEST PUSH1 0x0 PUSH1 0x40 MLOAD SWAP1 POP SWAP1 JUMP JUMPDEST PUSH1 0x0 PUSH8 0xFFFFFFFFFFFFFFFF DUP3 GT ISZERO PUSH2 0x6F5 JUMPI PUSH2 0x6F4 PUSH2 0x85A JUMP JUMPDEST JUMPDEST PUSH2 0x6FE DUP3 PUSH2 0x89D JUMP JUMPDEST SWAP1 POP PUSH1 0x20 DUP2 ADD SWAP1 POP SWAP2 SWAP1 POP JUMP JUMPDEST PUSH1 0x0 DUP2 SWAP1 POP PUSH1 0x20 DUP3 ADD SWAP1 POP SWAP2 SWAP1 POP JUMP JUMPDEST PUSH1 0x0 DUP2 MLOAD SWAP1 POP SWAP2 SWAP1 POP JUMP JUMPDEST PUSH1 0x0 DUP2 MLOAD SWAP1 POP SWAP2 SWAP1 POP JUMP JUMPDEST PUSH1 0x0 PUSH1 0x20 DUP3 ADD SWAP1 POP SWAP2 SWAP1 POP JUMP JUMPDEST PUSH1 0x0 DUP3 DUP3 MSTORE PUSH1 0x20 DUP3 ADD SWAP1 POP SWAP3 SWAP2 POP POP JUMP JUMPDEST PUSH1 0x0 DUP3 DUP3 MSTORE PUSH1 0x20 DUP3 ADD SWAP1 POP SWAP3 SWAP2 POP POP JUMP JUMPDEST PUSH1 0x0 DUP3 DUP3 MSTORE PUSH1 0x20 DUP3 ADD SWAP1 POP SWAP3 SWAP2 POP POP JUMP JUMPDEST PUSH1 0x0 DUP2 SWAP1 POP SWAP3 SWAP2 POP POP JUMP JUMPDEST PUSH1 0x0 DUP2 SWAP1 POP SWAP2 SWAP1 POP JUMP JUMPDEST DUP3 DUP2 DUP4 CALLDATACOPY PUSH1 0x0 DUP4 DUP4 ADD MSTORE POP POP POP JUMP JUMPDEST PUSH1 0x0 JUMPDEST DUP4 DUP2 LT ISZERO PUSH2 0x7B3 JUMPI DUP1 DUP3 ADD MLOAD DUP2 DUP5 ADD MSTORE PUSH1 0x20 DUP2 ADD SWAP1 POP PUSH2 0x798 JUMP JUMPDEST DUP4 DUP2 GT ISZERO PUSH2 0x7C2 JUMPI PUSH1 0x0 DUP5 DUP5 ADD MSTORE JUMPDEST POP POP POP POP JUMP JUMPDEST PUSH1 0x0 PUSH1 0x2 DUP3 DIV SWAP1 POP PUSH1 0x1 DUP3 AND DUP1 PUSH2 0x7E0 JUMPI PUSH1 0x7F DUP3 AND SWAP2 POP JUMPDEST PUSH1 0x20 DUP3 LT DUP2 EQ ISZERO PUSH2 0x7F4 JUMPI PUSH2 0x7F3 PUSH2 0x82B JUMP JUMPDEST JUMPDEST POP SWAP2 SWAP1 POP JUMP JUMPDEST PUSH2 0x803 DUP3 PUSH2 0x89D JUMP JUMPDEST DUP2 ADD DUP2 DUP2 LT PUSH8 0xFFFFFFFFFFFFFFFF DUP3 GT OR ISZERO PUSH2 0x822 JUMPI PUSH2 0x821 PUSH2 0x85A JUMP JUMPDEST JUMPDEST DUP1 PUSH1 0x40 MSTORE POP POP POP JUMP JUMPDEST PUSH32 0x4E487B7100000000000000000000000000000000000000000000000000000000 PUSH1 0x0 MSTORE PUSH1 0x22 PUSH1 0x4 MSTORE PUSH1 0x24 PUSH1 0x0 REVERT JUMPDEST PUSH32 0x4E487B7100000000000000000000000000000000000000000000000000000000 PUSH1 0x0 MSTORE PUSH1 0x41 PUSH1 0x4 MSTORE PUSH1 0x24 PUSH1 0x0 REVERT JUMPDEST PUSH1 0x0 DUP1 REVERT JUMPDEST PUSH1 0x0 DUP1 REVERT JUMPDEST PUSH1 0x0 DUP1 REVERT JUMPDEST PUSH1 0x0 DUP1 REVERT JUMPDEST PUSH1 0x0 PUSH1 0x1F NOT PUSH1 0x1F DUP4 ADD AND SWAP1 POP SWAP2 SWAP1 POP JUMP JUMPDEST PUSH32 0x556E617574686F72697A656420506572736F6E00000000000000000000000000 PUSH1 0x0 DUP3 ADD MSTORE POP JUMP INVALID LOG2 PUSH5 0x6970667358 0x22 SLT KECCAK256 PUSH17 0xC2EB428F0DD04DB3CBFC8D728496A17370 0x25 0xE4 DUP5 0xB4 SWAP7 DIV ORIGIN SUB 0x21 0xC2 RETURNDATASIZE 0xDB 0xC2 SDIV PUSH5 0x736F6C6343 STOP ADDMOD SMOD STOP CALLER "
				},
				"gasEstimates": {
					"creation": {
						"codeDepositCost": "463400",
						"executionCost": "24765",
						"totalCost": "488165"
					},
					"external": {
						"getAllCandidates()": "infinite",
						"registerCandidates(string,string)": "infinite"
					}
				},
				"methodIdentifiers": {
					"getAllCandidates()": "2e6997fe",
					"registerCandidates(string,string)": "c1700e00"
				}
			},
			"storageLayout": {
				"storage": [
					{
						"astId": 12,
						"contract": "contracts/votingSystem.sol:VotingContract",
						"label": "electionOfficer",
						"offset": 0,
						"slot": "0",
						"type": "t_address"
					},
					{
						"astId": 16,
						"contract": "contracts/votingSystem.sol:VotingContract",
						"label": "candidateList",
						"offset": 0,
						"slot": "1",
						"type": "t_array(t_struct(candidateInfo)8_storage)dyn_storage"
					}
				],
				"types": {
					"t_address": {
						"encoding": "inplace",
						"label": "address",
						"numberOfBytes": "20"
					},
					"t_array(t_struct(candidateInfo)8_storage)dyn_storage": {
						"base": "t_struct(candidateInfo)8_storage",
						"encoding": "dynamic_array",
						"label": "struct VotingContract.candidateInfo[]",
						"numberOfBytes": "32"
					},
					"t_bytes32": {
						"encoding": "inplace",
						"label": "bytes32",
						"numberOfBytes": "32"
					},
					"t_string_storage": {
						"encoding": "bytes",
						"label": "string",
						"numberOfBytes": "32"
					},
					"t_struct(candidateInfo)8_storage": {
						"encoding": "inplace",
						"label": "struct VotingContract.candidateInfo",
						"members": [
							{
								"astId": 3,
								"contract": "contracts/votingSystem.sol:VotingContract",
								"label": "candidateName",
								"offset": 0,
								"slot": "0",
								"type": "t_string_storage"
							},
							{
								"astId": 5,
								"contract": "contracts/votingSystem.sol:VotingContract",
								"label": "symbols",
								"offset": 0,
								"slot": "1",
								"type": "t_string_storage"
							},
							{
								"astId": 7,
								"contract": "contracts/votingSystem.sol:VotingContract",
								"label": "identifire",
								"offset": 0,
								"slot": "2",
								"type": "t_bytes32"
							}
						],
						"numberOfBytes": "96"
					}
				}
			},
			"userdoc": {
				"kind": "user",
				"methods": {},
				"version": 1
			}
		}
	}
}