{
	"contracts/voting.sol": {
		"VotingContract": {
			"abi": [
				{
					"inputs": [],
					"stateMutability": "nonpayable",
					"type": "constructor"
				},
				{
					"inputs": [
						{
							"internalType": "string",
							"name": "name",
							"type": "string"
						},
						{
							"internalType": "string",
							"name": "symbol",
							"type": "string"
						}
					],
					"name": "registrationForCandidate",
					"outputs": [],
					"stateMutability": "nonpayable",
					"type": "function"
				},
				{
					"inputs": [],
					"name": "startVote",
					"outputs": [],
					"stateMutability": "nonpayable",
					"type": "function"
				}
			],
			"devdoc": {
				"kind": "dev",
				"methods": {},
				"version": 1
			},
			"evm": {
				"assembly": "    /* \"contracts/voting.sol\":59:988  contract VotingContract{\r... */\n  mstore(0x40, 0x80)\n    /* \"contracts/voting.sol\":198:203  false */\n  0x00\n    /* \"contracts/voting.sol\":179:203  bool voteStarted = false */\n  0x01\n  exp(0x0100, 0x14)\n  dup2\n  sload\n  dup2\n  0xff\n  mul\n  not\n  and\n  swap1\n  dup4\n  iszero\n  iszero\n  mul\n  or\n  swap1\n  sstore\n  pop\n    /* \"contracts/voting.sol\":418:481  constructor(){\r... */\n  callvalue\n  dup1\n  iszero\n  tag_1\n  jumpi\n  0x00\n  dup1\n  revert\ntag_1:\n  pop\n    /* \"contracts/voting.sol\":463:473  msg.sender */\n  caller\n    /* \"contracts/voting.sol\":442:460  electionCommission */\n  0x01\n  0x00\n    /* \"contracts/voting.sol\":442:473  electionCommission = msg.sender */\n  0x0100\n  exp\n  dup2\n  sload\n  dup2\n  0xffffffffffffffffffffffffffffffffffffffff\n  mul\n  not\n  and\n  swap1\n  dup4\n  0xffffffffffffffffffffffffffffffffffffffff\n  and\n  mul\n  or\n  swap1\n  sstore\n  pop\n    /* \"contracts/voting.sol\":59:988  contract VotingContract{\r... */\n  dataSize(sub_0)\n  dup1\n  dataOffset(sub_0)\n  0x00\n  codecopy\n  0x00\n  return\nstop\n\nsub_0: assembly {\n        /* \"contracts/voting.sol\":59:988  contract VotingContract{\r... */\n      mstore(0x40, 0x80)\n      callvalue\n      dup1\n      iszero\n      tag_1\n      jumpi\n      0x00\n      dup1\n      revert\n    tag_1:\n      pop\n      jumpi(tag_2, lt(calldatasize, 0x04))\n      shr(0xe0, calldataload(0x00))\n      dup1\n      0x137967a6\n      eq\n      tag_3\n      jumpi\n      dup1\n      0x4c0a6af0\n      eq\n      tag_4\n      jumpi\n    tag_2:\n      0x00\n      dup1\n      revert\n        /* \"contracts/voting.sol\":488:840  function registrationForCandidate  (string memory name, string memory symbol)public\r... */\n    tag_3:\n      tag_5\n      0x04\n      dup1\n      calldatasize\n      sub\n      dup2\n      add\n      swap1\n      tag_6\n      swap2\n      swap1\n      tag_7\n      jump\t// in\n    tag_6:\n      tag_8\n      jump\t// in\n    tag_5:\n      stop\n        /* \"contracts/voting.sol\":847:970  function startVote() public{\r... */\n    tag_4:\n      tag_9\n      tag_10\n      jump\t// in\n    tag_9:\n      stop\n        /* \"contracts/voting.sol\":488:840  function registrationForCandidate  (string memory name, string memory symbol)public\r... */\n    tag_8:\n        /* \"contracts/voting.sol\":609:627  electionCommission */\n      0x01\n      0x00\n      swap1\n      sload\n      swap1\n      0x0100\n      exp\n      swap1\n      div\n      0xffffffffffffffffffffffffffffffffffffffff\n      and\n        /* \"contracts/voting.sol\":597:627  msg.sender!=electionCommission */\n      0xffffffffffffffffffffffffffffffffffffffff\n      and\n        /* \"contracts/voting.sol\":597:607  msg.sender */\n      caller\n        /* \"contracts/voting.sol\":597:627  msg.sender!=electionCommission */\n      0xffffffffffffffffffffffffffffffffffffffff\n      and\n      eq\n      iszero\n        /* \"contracts/voting.sol\":589:649  require(msg.sender!=electionCommission,\"Unauthorized Acess\") */\n      tag_12\n      jumpi\n      mload(0x40)\n      0x08c379a000000000000000000000000000000000000000000000000000000000\n      dup2\n      mstore\n      0x04\n      add\n      tag_13\n      swap1\n      tag_14\n      jump\t// in\n    tag_13:\n      mload(0x40)\n      dup1\n      swap2\n      sub\n      swap1\n      revert\n    tag_12:\n        /* \"contracts/voting.sol\":688:689  0 */\n      0x00\n        /* \"contracts/voting.sol\":674:678  name */\n      dup3\n        /* \"contracts/voting.sol\":668:686  bytes(name).length */\n      mload\n        /* \"contracts/voting.sol\":668:689  bytes(name).length!=0 */\n      eq\n      iszero\n        /* \"contracts/voting.sol\":660:712  require(bytes(name).length!=0,\"Name Can't be empty\") */\n      tag_15\n      jumpi\n      mload(0x40)\n      0x08c379a000000000000000000000000000000000000000000000000000000000\n      dup2\n      mstore\n      0x04\n      add\n      tag_16\n      swap1\n      tag_17\n      jump\t// in\n    tag_16:\n      mload(0x40)\n      dup1\n      swap2\n      sub\n      swap1\n      revert\n    tag_15:\n        /* \"contracts/voting.sol\":753:754  0 */\n      0x00\n        /* \"contracts/voting.sol\":737:743  symbol */\n      dup2\n        /* \"contracts/voting.sol\":731:751  bytes(symbol).length */\n      mload\n        /* \"contracts/voting.sol\":731:754  bytes(symbol).length!=0 */\n      eq\n      iszero\n        /* \"contracts/voting.sol\":723:779  require(bytes(symbol).length!=0,\"Symbol can't be empty\") */\n      tag_18\n      jumpi\n      mload(0x40)\n      0x08c379a000000000000000000000000000000000000000000000000000000000\n      dup2\n      mstore\n      0x04\n      add\n      tag_19\n      swap1\n      tag_20\n      jump\t// in\n    tag_19:\n      mload(0x40)\n      dup1\n      swap2\n      sub\n      swap1\n      revert\n    tag_18:\n        /* \"contracts/voting.sol\":790:800  Candidates */\n      0x02\n        /* \"contracts/voting.sol\":806:830  candidate(name,symbol,0) */\n      mload(0x40)\n      dup1\n      0x60\n      add\n      0x40\n      mstore\n      dup1\n        /* \"contracts/voting.sol\":816:820  name */\n      dup5\n        /* \"contracts/voting.sol\":806:830  candidate(name,symbol,0) */\n      dup2\n      mstore\n      0x20\n      add\n        /* \"contracts/voting.sol\":821:827  symbol */\n      dup4\n        /* \"contracts/voting.sol\":806:830  candidate(name,symbol,0) */\n      dup2\n      mstore\n      0x20\n      add\n        /* \"contracts/voting.sol\":828:829  0 */\n      0x00\n        /* \"contracts/voting.sol\":806:830  candidate(name,symbol,0) */\n      dup2\n      mstore\n      pop\n        /* \"contracts/voting.sol\":790:831  Candidates.push(candidate(name,symbol,0)) */\n      swap1\n      dup1\n      0x01\n      dup2\n      sload\n      add\n      dup1\n      dup3\n      sstore\n      dup1\n      swap2\n      pop\n      pop\n      0x01\n      swap1\n      sub\n      swap1\n      0x00\n      mstore\n      keccak256(0x00, 0x20)\n      swap1\n      0x03\n      mul\n      add\n      0x00\n      swap1\n      swap2\n      swap1\n      swap2\n      swap1\n      swap2\n      pop\n      0x00\n      dup3\n      add\n      mload\n      dup2\n      0x00\n      add\n      swap1\n      dup1\n      mload\n      swap1\n      0x20\n      add\n      swap1\n      tag_22\n      swap3\n      swap2\n      swap1\n      tag_23\n      jump\t// in\n    tag_22:\n      pop\n      0x20\n      dup3\n      add\n      mload\n      dup2\n      0x01\n      add\n      swap1\n      dup1\n      mload\n      swap1\n      0x20\n      add\n      swap1\n      tag_24\n      swap3\n      swap2\n      swap1\n      tag_23\n      jump\t// in\n    tag_24:\n      pop\n      0x40\n      dup3\n      add\n      mload\n      dup2\n      0x02\n      add\n      sstore\n      pop\n      pop\n        /* \"contracts/voting.sol\":488:840  function registrationForCandidate  (string memory name, string memory symbol)public\r... */\n      pop\n      pop\n      jump\t// out\n        /* \"contracts/voting.sol\":847:970  function startVote() public{\r... */\n    tag_10:\n        /* \"contracts/voting.sol\":907:912  false */\n      0x00\n        /* \"contracts/voting.sol\":894:912  voteStarted!=false */\n      iszero\n      iszero\n        /* \"contracts/voting.sol\":894:905  voteStarted */\n      0x01\n      0x14\n      swap1\n      sload\n      swap1\n      0x0100\n      exp\n      swap1\n      div\n      0xff\n      and\n        /* \"contracts/voting.sol\":894:912  voteStarted!=false */\n      iszero\n      iszero\n      eq\n      iszero\n        /* \"contracts/voting.sol\":886:931  require(voteStarted!=false,\"Already Started\") */\n      tag_26\n      jumpi\n      mload(0x40)\n      0x08c379a000000000000000000000000000000000000000000000000000000000\n      dup2\n      mstore\n      0x04\n      add\n      tag_27\n      swap1\n      tag_28\n      jump\t// in\n    tag_27:\n      mload(0x40)\n      dup1\n      swap2\n      sub\n      swap1\n      revert\n    tag_26:\n        /* \"contracts/voting.sol\":957:961  true */\n      0x01\n        /* \"contracts/voting.sol\":943:954  voteStarted */\n      dup1\n      0x14\n        /* \"contracts/voting.sol\":943:961  voteStarted = true */\n      0x0100\n      exp\n      dup2\n      sload\n      dup2\n      0xff\n      mul\n      not\n      and\n      swap1\n      dup4\n      iszero\n      iszero\n      mul\n      or\n      swap1\n      sstore\n      pop\n        /* \"contracts/voting.sol\":847:970  function startVote() public{\r... */\n      jump\t// out\n    tag_23:\n      dup3\n      dup1\n      sload\n      tag_29\n      swap1\n      tag_30\n      jump\t// in\n    tag_29:\n      swap1\n      0x00\n      mstore\n      keccak256(0x00, 0x20)\n      swap1\n      0x1f\n      add\n      0x20\n      swap1\n      div\n      dup2\n      add\n      swap3\n      dup3\n      tag_32\n      jumpi\n      0x00\n      dup6\n      sstore\n      jump(tag_31)\n    tag_32:\n      dup3\n      0x1f\n      lt\n      tag_33\n      jumpi\n      dup1\n      mload\n      not(0xff)\n      and\n      dup4\n      dup1\n      add\n      or\n      dup6\n      sstore\n      jump(tag_31)\n    tag_33:\n      dup3\n      dup1\n      add\n      0x01\n      add\n      dup6\n      sstore\n      dup3\n      iszero\n      tag_31\n      jumpi\n      swap2\n      dup3\n      add\n    tag_34:\n      dup3\n      dup2\n      gt\n      iszero\n      tag_35\n      jumpi\n      dup3\n      mload\n      dup3\n      sstore\n      swap2\n      0x20\n      add\n      swap2\n      swap1\n      0x01\n      add\n      swap1\n      jump(tag_34)\n    tag_35:\n    tag_31:\n      pop\n      swap1\n      pop\n      tag_36\n      swap2\n      swap1\n      tag_37\n      jump\t// in\n    tag_36:\n      pop\n      swap1\n      jump\t// out\n    tag_37:\n    tag_38:\n      dup1\n      dup3\n      gt\n      iszero\n      tag_39\n      jumpi\n      0x00\n      dup2\n      0x00\n      swap1\n      sstore\n      pop\n      0x01\n      add\n      jump(tag_38)\n    tag_39:\n      pop\n      swap1\n      jump\t// out\n        /* \"#utility.yul\":7:419   */\n    tag_41:\n        /* \"#utility.yul\":85:90   */\n      0x00\n        /* \"#utility.yul\":110:176   */\n      tag_43\n        /* \"#utility.yul\":126:175   */\n      tag_44\n        /* \"#utility.yul\":168:174   */\n      dup5\n        /* \"#utility.yul\":126:175   */\n      tag_45\n      jump\t// in\n    tag_44:\n        /* \"#utility.yul\":110:176   */\n      tag_46\n      jump\t// in\n    tag_43:\n        /* \"#utility.yul\":101:176   */\n      swap1\n      pop\n        /* \"#utility.yul\":199:205   */\n      dup3\n        /* \"#utility.yul\":192:197   */\n      dup2\n        /* \"#utility.yul\":185:206   */\n      mstore\n        /* \"#utility.yul\":237:241   */\n      0x20\n        /* \"#utility.yul\":230:235   */\n      dup2\n        /* \"#utility.yul\":226:242   */\n      add\n        /* \"#utility.yul\":275:278   */\n      dup5\n        /* \"#utility.yul\":266:272   */\n      dup5\n        /* \"#utility.yul\":261:264   */\n      dup5\n        /* \"#utility.yul\":257:273   */\n      add\n        /* \"#utility.yul\":254:279   */\n      gt\n        /* \"#utility.yul\":251:363   */\n      iszero\n      tag_47\n      jumpi\n        /* \"#utility.yul\":282:361   */\n      tag_48\n      tag_49\n      jump\t// in\n    tag_48:\n        /* \"#utility.yul\":251:363   */\n    tag_47:\n        /* \"#utility.yul\":372:413   */\n      tag_50\n        /* \"#utility.yul\":406:412   */\n      dup5\n        /* \"#utility.yul\":401:404   */\n      dup3\n        /* \"#utility.yul\":396:399   */\n      dup6\n        /* \"#utility.yul\":372:413   */\n      tag_51\n      jump\t// in\n    tag_50:\n        /* \"#utility.yul\":91:419   */\n      pop\n        /* \"#utility.yul\":7:419   */\n      swap4\n      swap3\n      pop\n      pop\n      pop\n      jump\t// out\n        /* \"#utility.yul\":439:779   */\n    tag_52:\n        /* \"#utility.yul\":495:500   */\n      0x00\n        /* \"#utility.yul\":544:547   */\n      dup3\n        /* \"#utility.yul\":537:541   */\n      0x1f\n        /* \"#utility.yul\":529:535   */\n      dup4\n        /* \"#utility.yul\":525:542   */\n      add\n        /* \"#utility.yul\":521:548   */\n      slt\n        /* \"#utility.yul\":511:633   */\n      tag_54\n      jumpi\n        /* \"#utility.yul\":552:631   */\n      tag_55\n      tag_56\n      jump\t// in\n    tag_55:\n        /* \"#utility.yul\":511:633   */\n    tag_54:\n        /* \"#utility.yul\":669:675   */\n      dup2\n        /* \"#utility.yul\":656:676   */\n      calldataload\n        /* \"#utility.yul\":694:773   */\n      tag_57\n        /* \"#utility.yul\":769:772   */\n      dup5\n        /* \"#utility.yul\":761:767   */\n      dup3\n        /* \"#utility.yul\":754:758   */\n      0x20\n        /* \"#utility.yul\":746:752   */\n      dup7\n        /* \"#utility.yul\":742:759   */\n      add\n        /* \"#utility.yul\":694:773   */\n      tag_41\n      jump\t// in\n    tag_57:\n        /* \"#utility.yul\":685:773   */\n      swap2\n      pop\n        /* \"#utility.yul\":501:779   */\n      pop\n        /* \"#utility.yul\":439:779   */\n      swap3\n      swap2\n      pop\n      pop\n      jump\t// out\n        /* \"#utility.yul\":785:1619   */\n    tag_7:\n        /* \"#utility.yul\":873:879   */\n      0x00\n        /* \"#utility.yul\":881:887   */\n      dup1\n        /* \"#utility.yul\":930:932   */\n      0x40\n        /* \"#utility.yul\":918:927   */\n      dup4\n        /* \"#utility.yul\":909:916   */\n      dup6\n        /* \"#utility.yul\":905:928   */\n      sub\n        /* \"#utility.yul\":901:933   */\n      slt\n        /* \"#utility.yul\":898:1017   */\n      iszero\n      tag_59\n      jumpi\n        /* \"#utility.yul\":936:1015   */\n      tag_60\n      tag_61\n      jump\t// in\n    tag_60:\n        /* \"#utility.yul\":898:1017   */\n    tag_59:\n        /* \"#utility.yul\":1084:1085   */\n      0x00\n        /* \"#utility.yul\":1073:1082   */\n      dup4\n        /* \"#utility.yul\":1069:1086   */\n      add\n        /* \"#utility.yul\":1056:1087   */\n      calldataload\n        /* \"#utility.yul\":1114:1132   */\n      0xffffffffffffffff\n        /* \"#utility.yul\":1106:1112   */\n      dup2\n        /* \"#utility.yul\":1103:1133   */\n      gt\n        /* \"#utility.yul\":1100:1217   */\n      iszero\n      tag_62\n      jumpi\n        /* \"#utility.yul\":1136:1215   */\n      tag_63\n      tag_64\n      jump\t// in\n    tag_63:\n        /* \"#utility.yul\":1100:1217   */\n    tag_62:\n        /* \"#utility.yul\":1241:1304   */\n      tag_65\n        /* \"#utility.yul\":1296:1303   */\n      dup6\n        /* \"#utility.yul\":1287:1293   */\n      dup3\n        /* \"#utility.yul\":1276:1285   */\n      dup7\n        /* \"#utility.yul\":1272:1294   */\n      add\n        /* \"#utility.yul\":1241:1304   */\n      tag_52\n      jump\t// in\n    tag_65:\n        /* \"#utility.yul\":1231:1304   */\n      swap3\n      pop\n        /* \"#utility.yul\":1027:1314   */\n      pop\n        /* \"#utility.yul\":1381:1383   */\n      0x20\n        /* \"#utility.yul\":1370:1379   */\n      dup4\n        /* \"#utility.yul\":1366:1384   */\n      add\n        /* \"#utility.yul\":1353:1385   */\n      calldataload\n        /* \"#utility.yul\":1412:1430   */\n      0xffffffffffffffff\n        /* \"#utility.yul\":1404:1410   */\n      dup2\n        /* \"#utility.yul\":1401:1431   */\n      gt\n        /* \"#utility.yul\":1398:1515   */\n      iszero\n      tag_66\n      jumpi\n        /* \"#utility.yul\":1434:1513   */\n      tag_67\n      tag_64\n      jump\t// in\n    tag_67:\n        /* \"#utility.yul\":1398:1515   */\n    tag_66:\n        /* \"#utility.yul\":1539:1602   */\n      tag_68\n        /* \"#utility.yul\":1594:1601   */\n      dup6\n        /* \"#utility.yul\":1585:1591   */\n      dup3\n        /* \"#utility.yul\":1574:1583   */\n      dup7\n        /* \"#utility.yul\":1570:1592   */\n      add\n        /* \"#utility.yul\":1539:1602   */\n      tag_52\n      jump\t// in\n    tag_68:\n        /* \"#utility.yul\":1529:1602   */\n      swap2\n      pop\n        /* \"#utility.yul\":1324:1612   */\n      pop\n        /* \"#utility.yul\":785:1619   */\n      swap3\n      pop\n      swap3\n      swap1\n      pop\n      jump\t// out\n        /* \"#utility.yul\":1625:1991   */\n    tag_69:\n        /* \"#utility.yul\":1767:1770   */\n      0x00\n        /* \"#utility.yul\":1788:1855   */\n      tag_71\n        /* \"#utility.yul\":1852:1854   */\n      0x15\n        /* \"#utility.yul\":1847:1850   */\n      dup4\n        /* \"#utility.yul\":1788:1855   */\n      tag_72\n      jump\t// in\n    tag_71:\n        /* \"#utility.yul\":1781:1855   */\n      swap2\n      pop\n        /* \"#utility.yul\":1864:1957   */\n      tag_73\n        /* \"#utility.yul\":1953:1956   */\n      dup3\n        /* \"#utility.yul\":1864:1957   */\n      tag_74\n      jump\t// in\n    tag_73:\n        /* \"#utility.yul\":1982:1984   */\n      0x20\n        /* \"#utility.yul\":1977:1980   */\n      dup3\n        /* \"#utility.yul\":1973:1985   */\n      add\n        /* \"#utility.yul\":1966:1985   */\n      swap1\n      pop\n        /* \"#utility.yul\":1625:1991   */\n      swap2\n      swap1\n      pop\n      jump\t// out\n        /* \"#utility.yul\":1997:2363   */\n    tag_75:\n        /* \"#utility.yul\":2139:2142   */\n      0x00\n        /* \"#utility.yul\":2160:2227   */\n      tag_77\n        /* \"#utility.yul\":2224:2226   */\n      0x0f\n        /* \"#utility.yul\":2219:2222   */\n      dup4\n        /* \"#utility.yul\":2160:2227   */\n      tag_72\n      jump\t// in\n    tag_77:\n        /* \"#utility.yul\":2153:2227   */\n      swap2\n      pop\n        /* \"#utility.yul\":2236:2329   */\n      tag_78\n        /* \"#utility.yul\":2325:2328   */\n      dup3\n        /* \"#utility.yul\":2236:2329   */\n      tag_79\n      jump\t// in\n    tag_78:\n        /* \"#utility.yul\":2354:2356   */\n      0x20\n        /* \"#utility.yul\":2349:2352   */\n      dup3\n        /* \"#utility.yul\":2345:2357   */\n      add\n        /* \"#utility.yul\":2338:2357   */\n      swap1\n      pop\n        /* \"#utility.yul\":1997:2363   */\n      swap2\n      swap1\n      pop\n      jump\t// out\n        /* \"#utility.yul\":2369:2735   */\n    tag_80:\n        /* \"#utility.yul\":2511:2514   */\n      0x00\n        /* \"#utility.yul\":2532:2599   */\n      tag_82\n        /* \"#utility.yul\":2596:2598   */\n      0x13\n        /* \"#utility.yul\":2591:2594   */\n      dup4\n        /* \"#utility.yul\":2532:2599   */\n      tag_72\n      jump\t// in\n    tag_82:\n        /* \"#utility.yul\":2525:2599   */\n      swap2\n      pop\n        /* \"#utility.yul\":2608:2701   */\n      tag_83\n        /* \"#utility.yul\":2697:2700   */\n      dup3\n        /* \"#utility.yul\":2608:2701   */\n      tag_84\n      jump\t// in\n    tag_83:\n        /* \"#utility.yul\":2726:2728   */\n      0x20\n        /* \"#utility.yul\":2721:2724   */\n      dup3\n        /* \"#utility.yul\":2717:2729   */\n      add\n        /* \"#utility.yul\":2710:2729   */\n      swap1\n      pop\n        /* \"#utility.yul\":2369:2735   */\n      swap2\n      swap1\n      pop\n      jump\t// out\n        /* \"#utility.yul\":2741:3107   */\n    tag_85:\n        /* \"#utility.yul\":2883:2886   */\n      0x00\n        /* \"#utility.yul\":2904:2971   */\n      tag_87\n        /* \"#utility.yul\":2968:2970   */\n      0x12\n        /* \"#utility.yul\":2963:2966   */\n      dup4\n        /* \"#utility.yul\":2904:2971   */\n      tag_72\n      jump\t// in\n    tag_87:\n        /* \"#utility.yul\":2897:2971   */\n      swap2\n      pop\n        /* \"#utility.yul\":2980:3073   */\n      tag_88\n        /* \"#utility.yul\":3069:3072   */\n      dup3\n        /* \"#utility.yul\":2980:3073   */\n      tag_89\n      jump\t// in\n    tag_88:\n        /* \"#utility.yul\":3098:3100   */\n      0x20\n        /* \"#utility.yul\":3093:3096   */\n      dup3\n        /* \"#utility.yul\":3089:3101   */\n      add\n        /* \"#utility.yul\":3082:3101   */\n      swap1\n      pop\n        /* \"#utility.yul\":2741:3107   */\n      swap2\n      swap1\n      pop\n      jump\t// out\n        /* \"#utility.yul\":3113:3532   */\n    tag_20:\n        /* \"#utility.yul\":3279:3283   */\n      0x00\n        /* \"#utility.yul\":3317:3319   */\n      0x20\n        /* \"#utility.yul\":3306:3315   */\n      dup3\n        /* \"#utility.yul\":3302:3320   */\n      add\n        /* \"#utility.yul\":3294:3320   */\n      swap1\n      pop\n        /* \"#utility.yul\":3366:3375   */\n      dup2\n        /* \"#utility.yul\":3360:3364   */\n      dup2\n        /* \"#utility.yul\":3356:3376   */\n      sub\n        /* \"#utility.yul\":3352:3353   */\n      0x00\n        /* \"#utility.yul\":3341:3350   */\n      dup4\n        /* \"#utility.yul\":3337:3354   */\n      add\n        /* \"#utility.yul\":3330:3377   */\n      mstore\n        /* \"#utility.yul\":3394:3525   */\n      tag_91\n        /* \"#utility.yul\":3520:3524   */\n      dup2\n        /* \"#utility.yul\":3394:3525   */\n      tag_69\n      jump\t// in\n    tag_91:\n        /* \"#utility.yul\":3386:3525   */\n      swap1\n      pop\n        /* \"#utility.yul\":3113:3532   */\n      swap2\n      swap1\n      pop\n      jump\t// out\n        /* \"#utility.yul\":3538:3957   */\n    tag_28:\n        /* \"#utility.yul\":3704:3708   */\n      0x00\n        /* \"#utility.yul\":3742:3744   */\n      0x20\n        /* \"#utility.yul\":3731:3740   */\n      dup3\n        /* \"#utility.yul\":3727:3745   */\n      add\n        /* \"#utility.yul\":3719:3745   */\n      swap1\n      pop\n        /* \"#utility.yul\":3791:3800   */\n      dup2\n        /* \"#utility.yul\":3785:3789   */\n      dup2\n        /* \"#utility.yul\":3781:3801   */\n      sub\n        /* \"#utility.yul\":3777:3778   */\n      0x00\n        /* \"#utility.yul\":3766:3775   */\n      dup4\n        /* \"#utility.yul\":3762:3779   */\n      add\n        /* \"#utility.yul\":3755:3802   */\n      mstore\n        /* \"#utility.yul\":3819:3950   */\n      tag_93\n        /* \"#utility.yul\":3945:3949   */\n      dup2\n        /* \"#utility.yul\":3819:3950   */\n      tag_75\n      jump\t// in\n    tag_93:\n        /* \"#utility.yul\":3811:3950   */\n      swap1\n      pop\n        /* \"#utility.yul\":3538:3957   */\n      swap2\n      swap1\n      pop\n      jump\t// out\n        /* \"#utility.yul\":3963:4382   */\n    tag_17:\n        /* \"#utility.yul\":4129:4133   */\n      0x00\n        /* \"#utility.yul\":4167:4169   */\n      0x20\n        /* \"#utility.yul\":4156:4165   */\n      dup3\n        /* \"#utility.yul\":4152:4170   */\n      add\n        /* \"#utility.yul\":4144:4170   */\n      swap1\n      pop\n        /* \"#utility.yul\":4216:4225   */\n      dup2\n        /* \"#utility.yul\":4210:4214   */\n      dup2\n        /* \"#utility.yul\":4206:4226   */\n      sub\n        /* \"#utility.yul\":4202:4203   */\n      0x00\n        /* \"#utility.yul\":4191:4200   */\n      dup4\n        /* \"#utility.yul\":4187:4204   */\n      add\n        /* \"#utility.yul\":4180:4227   */\n      mstore\n        /* \"#utility.yul\":4244:4375   */\n      tag_95\n        /* \"#utility.yul\":4370:4374   */\n      dup2\n        /* \"#utility.yul\":4244:4375   */\n      tag_80\n      jump\t// in\n    tag_95:\n        /* \"#utility.yul\":4236:4375   */\n      swap1\n      pop\n        /* \"#utility.yul\":3963:4382   */\n      swap2\n      swap1\n      pop\n      jump\t// out\n        /* \"#utility.yul\":4388:4807   */\n    tag_14:\n        /* \"#utility.yul\":4554:4558   */\n      0x00\n        /* \"#utility.yul\":4592:4594   */\n      0x20\n        /* \"#utility.yul\":4581:4590   */\n      dup3\n        /* \"#utility.yul\":4577:4595   */\n      add\n        /* \"#utility.yul\":4569:4595   */\n      swap1\n      pop\n        /* \"#utility.yul\":4641:4650   */\n      dup2\n        /* \"#utility.yul\":4635:4639   */\n      dup2\n        /* \"#utility.yul\":4631:4651   */\n      sub\n        /* \"#utility.yul\":4627:4628   */\n      0x00\n        /* \"#utility.yul\":4616:4625   */\n      dup4\n        /* \"#utility.yul\":4612:4629   */\n      add\n        /* \"#utility.yul\":4605:4652   */\n      mstore\n        /* \"#utility.yul\":4669:4800   */\n      tag_97\n        /* \"#utility.yul\":4795:4799   */\n      dup2\n        /* \"#utility.yul\":4669:4800   */\n      tag_85\n      jump\t// in\n    tag_97:\n        /* \"#utility.yul\":4661:4800   */\n      swap1\n      pop\n        /* \"#utility.yul\":4388:4807   */\n      swap2\n      swap1\n      pop\n      jump\t// out\n        /* \"#utility.yul\":4813:4942   */\n    tag_46:\n        /* \"#utility.yul\":4847:4853   */\n      0x00\n        /* \"#utility.yul\":4874:4894   */\n      tag_99\n      tag_100\n      jump\t// in\n    tag_99:\n        /* \"#utility.yul\":4864:4894   */\n      swap1\n      pop\n        /* \"#utility.yul\":4903:4936   */\n      tag_101\n        /* \"#utility.yul\":4931:4935   */\n      dup3\n        /* \"#utility.yul\":4923:4929   */\n      dup3\n        /* \"#utility.yul\":4903:4936   */\n      tag_102\n      jump\t// in\n    tag_101:\n        /* \"#utility.yul\":4813:4942   */\n      swap2\n      swap1\n      pop\n      jump\t// out\n        /* \"#utility.yul\":4948:5023   */\n    tag_100:\n        /* \"#utility.yul\":4981:4987   */\n      0x00\n        /* \"#utility.yul\":5014:5016   */\n      0x40\n        /* \"#utility.yul\":5008:5017   */\n      mload\n        /* \"#utility.yul\":4998:5017   */\n      swap1\n      pop\n        /* \"#utility.yul\":4948:5023   */\n      swap1\n      jump\t// out\n        /* \"#utility.yul\":5029:5337   */\n    tag_45:\n        /* \"#utility.yul\":5091:5095   */\n      0x00\n        /* \"#utility.yul\":5181:5199   */\n      0xffffffffffffffff\n        /* \"#utility.yul\":5173:5179   */\n      dup3\n        /* \"#utility.yul\":5170:5200   */\n      gt\n        /* \"#utility.yul\":5167:5223   */\n      iszero\n      tag_105\n      jumpi\n        /* \"#utility.yul\":5203:5221   */\n      tag_106\n      tag_107\n      jump\t// in\n    tag_106:\n        /* \"#utility.yul\":5167:5223   */\n    tag_105:\n        /* \"#utility.yul\":5241:5270   */\n      tag_108\n        /* \"#utility.yul\":5263:5269   */\n      dup3\n        /* \"#utility.yul\":5241:5270   */\n      tag_109\n      jump\t// in\n    tag_108:\n        /* \"#utility.yul\":5233:5270   */\n      swap1\n      pop\n        /* \"#utility.yul\":5325:5329   */\n      0x20\n        /* \"#utility.yul\":5319:5323   */\n      dup2\n        /* \"#utility.yul\":5315:5330   */\n      add\n        /* \"#utility.yul\":5307:5330   */\n      swap1\n      pop\n        /* \"#utility.yul\":5029:5337   */\n      swap2\n      swap1\n      pop\n      jump\t// out\n        /* \"#utility.yul\":5343:5512   */\n    tag_72:\n        /* \"#utility.yul\":5427:5438   */\n      0x00\n        /* \"#utility.yul\":5461:5467   */\n      dup3\n        /* \"#utility.yul\":5456:5459   */\n      dup3\n        /* \"#utility.yul\":5449:5468   */\n      mstore\n        /* \"#utility.yul\":5501:5505   */\n      0x20\n        /* \"#utility.yul\":5496:5499   */\n      dup3\n        /* \"#utility.yul\":5492:5506   */\n      add\n        /* \"#utility.yul\":5477:5506   */\n      swap1\n      pop\n        /* \"#utility.yul\":5343:5512   */\n      swap3\n      swap2\n      pop\n      pop\n      jump\t// out\n        /* \"#utility.yul\":5518:5672   */\n    tag_51:\n        /* \"#utility.yul\":5602:5608   */\n      dup3\n        /* \"#utility.yul\":5597:5600   */\n      dup2\n        /* \"#utility.yul\":5592:5595   */\n      dup4\n        /* \"#utility.yul\":5579:5609   */\n      calldatacopy\n        /* \"#utility.yul\":5664:5665   */\n      0x00\n        /* \"#utility.yul\":5655:5661   */\n      dup4\n        /* \"#utility.yul\":5650:5653   */\n      dup4\n        /* \"#utility.yul\":5646:5662   */\n      add\n        /* \"#utility.yul\":5639:5666   */\n      mstore\n        /* \"#utility.yul\":5518:5672   */\n      pop\n      pop\n      pop\n      jump\t// out\n        /* \"#utility.yul\":5678:5998   */\n    tag_30:\n        /* \"#utility.yul\":5722:5728   */\n      0x00\n        /* \"#utility.yul\":5759:5760   */\n      0x02\n        /* \"#utility.yul\":5753:5757   */\n      dup3\n        /* \"#utility.yul\":5749:5761   */\n      div\n        /* \"#utility.yul\":5739:5761   */\n      swap1\n      pop\n        /* \"#utility.yul\":5806:5807   */\n      0x01\n        /* \"#utility.yul\":5800:5804   */\n      dup3\n        /* \"#utility.yul\":5796:5808   */\n      and\n        /* \"#utility.yul\":5827:5845   */\n      dup1\n        /* \"#utility.yul\":5817:5898   */\n      tag_113\n      jumpi\n        /* \"#utility.yul\":5883:5887   */\n      0x7f\n        /* \"#utility.yul\":5875:5881   */\n      dup3\n        /* \"#utility.yul\":5871:5888   */\n      and\n        /* \"#utility.yul\":5861:5888   */\n      swap2\n      pop\n        /* \"#utility.yul\":5817:5898   */\n    tag_113:\n        /* \"#utility.yul\":5945:5947   */\n      0x20\n        /* \"#utility.yul\":5937:5943   */\n      dup3\n        /* \"#utility.yul\":5934:5948   */\n      lt\n        /* \"#utility.yul\":5914:5932   */\n      dup2\n        /* \"#utility.yul\":5911:5949   */\n      eq\n        /* \"#utility.yul\":5908:5992   */\n      iszero\n      tag_114\n      jumpi\n        /* \"#utility.yul\":5964:5982   */\n      tag_115\n      tag_116\n      jump\t// in\n    tag_115:\n        /* \"#utility.yul\":5908:5992   */\n    tag_114:\n        /* \"#utility.yul\":5729:5998   */\n      pop\n        /* \"#utility.yul\":5678:5998   */\n      swap2\n      swap1\n      pop\n      jump\t// out\n        /* \"#utility.yul\":6004:6285   */\n    tag_102:\n        /* \"#utility.yul\":6087:6114   */\n      tag_118\n        /* \"#utility.yul\":6109:6113   */\n      dup3\n        /* \"#utility.yul\":6087:6114   */\n      tag_109\n      jump\t// in\n    tag_118:\n        /* \"#utility.yul\":6079:6085   */\n      dup2\n        /* \"#utility.yul\":6075:6115   */\n      add\n        /* \"#utility.yul\":6217:6223   */\n      dup2\n        /* \"#utility.yul\":6205:6215   */\n      dup2\n        /* \"#utility.yul\":6202:6224   */\n      lt\n        /* \"#utility.yul\":6181:6199   */\n      0xffffffffffffffff\n        /* \"#utility.yul\":6169:6179   */\n      dup3\n        /* \"#utility.yul\":6166:6200   */\n      gt\n        /* \"#utility.yul\":6163:6225   */\n      or\n        /* \"#utility.yul\":6160:6248   */\n      iszero\n      tag_119\n      jumpi\n        /* \"#utility.yul\":6228:6246   */\n      tag_120\n      tag_107\n      jump\t// in\n    tag_120:\n        /* \"#utility.yul\":6160:6248   */\n    tag_119:\n        /* \"#utility.yul\":6268:6278   */\n      dup1\n        /* \"#utility.yul\":6264:6266   */\n      0x40\n        /* \"#utility.yul\":6257:6279   */\n      mstore\n        /* \"#utility.yul\":6047:6285   */\n      pop\n        /* \"#utility.yul\":6004:6285   */\n      pop\n      pop\n      jump\t// out\n        /* \"#utility.yul\":6291:6471   */\n    tag_116:\n        /* \"#utility.yul\":6339:6416   */\n      0x4e487b7100000000000000000000000000000000000000000000000000000000\n        /* \"#utility.yul\":6336:6337   */\n      0x00\n        /* \"#utility.yul\":6329:6417   */\n      mstore\n        /* \"#utility.yul\":6436:6440   */\n      0x22\n        /* \"#utility.yul\":6433:6434   */\n      0x04\n        /* \"#utility.yul\":6426:6441   */\n      mstore\n        /* \"#utility.yul\":6460:6464   */\n      0x24\n        /* \"#utility.yul\":6457:6458   */\n      0x00\n        /* \"#utility.yul\":6450:6465   */\n      revert\n        /* \"#utility.yul\":6477:6657   */\n    tag_107:\n        /* \"#utility.yul\":6525:6602   */\n      0x4e487b7100000000000000000000000000000000000000000000000000000000\n        /* \"#utility.yul\":6522:6523   */\n      0x00\n        /* \"#utility.yul\":6515:6603   */\n      mstore\n        /* \"#utility.yul\":6622:6626   */\n      0x41\n        /* \"#utility.yul\":6619:6620   */\n      0x04\n        /* \"#utility.yul\":6612:6627   */\n      mstore\n        /* \"#utility.yul\":6646:6650   */\n      0x24\n        /* \"#utility.yul\":6643:6644   */\n      0x00\n        /* \"#utility.yul\":6636:6651   */\n      revert\n        /* \"#utility.yul\":6663:6780   */\n    tag_56:\n        /* \"#utility.yul\":6772:6773   */\n      0x00\n        /* \"#utility.yul\":6769:6770   */\n      dup1\n        /* \"#utility.yul\":6762:6774   */\n      revert\n        /* \"#utility.yul\":6786:6903   */\n    tag_49:\n        /* \"#utility.yul\":6895:6896   */\n      0x00\n        /* \"#utility.yul\":6892:6893   */\n      dup1\n        /* \"#utility.yul\":6885:6897   */\n      revert\n        /* \"#utility.yul\":6909:7026   */\n    tag_64:\n        /* \"#utility.yul\":7018:7019   */\n      0x00\n        /* \"#utility.yul\":7015:7016   */\n      dup1\n        /* \"#utility.yul\":7008:7020   */\n      revert\n        /* \"#utility.yul\":7032:7149   */\n    tag_61:\n        /* \"#utility.yul\":7141:7142   */\n      0x00\n        /* \"#utility.yul\":7138:7139   */\n      dup1\n        /* \"#utility.yul\":7131:7143   */\n      revert\n        /* \"#utility.yul\":7155:7257   */\n    tag_109:\n        /* \"#utility.yul\":7196:7202   */\n      0x00\n        /* \"#utility.yul\":7247:7249   */\n      0x1f\n        /* \"#utility.yul\":7243:7250   */\n      not\n        /* \"#utility.yul\":7238:7240   */\n      0x1f\n        /* \"#utility.yul\":7231:7236   */\n      dup4\n        /* \"#utility.yul\":7227:7241   */\n      add\n        /* \"#utility.yul\":7223:7251   */\n      and\n        /* \"#utility.yul\":7213:7251   */\n      swap1\n      pop\n        /* \"#utility.yul\":7155:7257   */\n      swap2\n      swap1\n      pop\n      jump\t// out\n        /* \"#utility.yul\":7263:7434   */\n    tag_74:\n        /* \"#utility.yul\":7403:7426   */\n      0x53796d626f6c2063616e277420626520656d7074790000000000000000000000\n        /* \"#utility.yul\":7399:7400   */\n      0x00\n        /* \"#utility.yul\":7391:7397   */\n      dup3\n        /* \"#utility.yul\":7387:7401   */\n      add\n        /* \"#utility.yul\":7380:7427   */\n      mstore\n        /* \"#utility.yul\":7263:7434   */\n      pop\n      jump\t// out\n        /* \"#utility.yul\":7440:7605   */\n    tag_79:\n        /* \"#utility.yul\":7580:7597   */\n      0x416c726561647920537461727465640000000000000000000000000000000000\n        /* \"#utility.yul\":7576:7577   */\n      0x00\n        /* \"#utility.yul\":7568:7574   */\n      dup3\n        /* \"#utility.yul\":7564:7578   */\n      add\n        /* \"#utility.yul\":7557:7598   */\n      mstore\n        /* \"#utility.yul\":7440:7605   */\n      pop\n      jump\t// out\n        /* \"#utility.yul\":7611:7780   */\n    tag_84:\n        /* \"#utility.yul\":7751:7772   */\n      0x4e616d652043616e277420626520656d70747900000000000000000000000000\n        /* \"#utility.yul\":7747:7748   */\n      0x00\n        /* \"#utility.yul\":7739:7745   */\n      dup3\n        /* \"#utility.yul\":7735:7749   */\n      add\n        /* \"#utility.yul\":7728:7773   */\n      mstore\n        /* \"#utility.yul\":7611:7780   */\n      pop\n      jump\t// out\n        /* \"#utility.yul\":7786:7954   */\n    tag_89:\n        /* \"#utility.yul\":7926:7946   */\n      0x556e617574686f72697a65642041636573730000000000000000000000000000\n        /* \"#utility.yul\":7922:7923   */\n      0x00\n        /* \"#utility.yul\":7914:7920   */\n      dup3\n        /* \"#utility.yul\":7910:7924   */\n      add\n        /* \"#utility.yul\":7903:7947   */\n      mstore\n        /* \"#utility.yul\":7786:7954   */\n      pop\n      jump\t// out\n\n    auxdata: 0xa264697066735822122027f19c1e1eaf84f9441cf2899d9e5d575f7c371977970d5f9fb5a8ef4645980364736f6c63430008070033\n}\n",
				"bytecode": {
					"linkReferences": {},
					"object": "60806040526000600160146101000a81548160ff02191690831515021790555034801561002b57600080fd5b5033600160006101000a81548173ffffffffffffffffffffffffffffffffffffffff021916908373ffffffffffffffffffffffffffffffffffffffff16021790555061074d8061007c6000396000f3fe608060405234801561001057600080fd5b50600436106100365760003560e01c8063137967a61461003b5780634c0a6af014610057575b600080fd5b61005560048036038101906100509190610393565b610061565b005b61005f61020d565b005b600160009054906101000a900473ffffffffffffffffffffffffffffffffffffffff1673ffffffffffffffffffffffffffffffffffffffff163373ffffffffffffffffffffffffffffffffffffffff1614156100f2576040517f08c379a00000000000000000000000000000000000000000000000000000000081526004016100e9906104f7565b60405180910390fd5b600082511415610137576040517f08c379a000000000000000000000000000000000000000000000000000000000815260040161012e906104d7565b60405180910390fd5b60008151141561017c576040517f08c379a000000000000000000000000000000000000000000000000000000000815260040161017390610497565b60405180910390fd5b600260405180606001604052808481526020018381526020016000815250908060018154018082558091505060019003906000526020600020906003020160009091909190915060008201518160000190805190602001906101df929190610280565b5060208201518160010190805190602001906101fc929190610280565b506040820151816002015550505050565b60001515600160149054906101000a900460ff1615151415610264576040517f08c379a000000000000000000000000000000000000000000000000000000000815260040161025b906104b7565b60405180910390fd5b60018060146101000a81548160ff021916908315150217905550565b82805461028c9061058d565b90600052602060002090601f0160209004810192826102ae57600085556102f5565b82601f106102c757805160ff19168380011785556102f5565b828001600101855582156102f5579182015b828111156102f45782518255916020019190600101906102d9565b5b5090506103029190610306565b5090565b5b8082111561031f576000816000905550600101610307565b5090565b60006103366103318461053c565b610517565b90508281526020810184848401111561035257610351610653565b5b61035d84828561057e565b509392505050565b600082601f83011261037a5761037961064e565b5b813561038a848260208601610323565b91505092915050565b600080604083850312156103aa576103a961065d565b5b600083013567ffffffffffffffff8111156103c8576103c7610658565b5b6103d485828601610365565b925050602083013567ffffffffffffffff8111156103f5576103f4610658565b5b61040185828601610365565b9150509250929050565b600061041860158361056d565b915061042382610673565b602082019050919050565b600061043b600f8361056d565b91506104468261069c565b602082019050919050565b600061045e60138361056d565b9150610469826106c5565b602082019050919050565b600061048160128361056d565b915061048c826106ee565b602082019050919050565b600060208201905081810360008301526104b08161040b565b9050919050565b600060208201905081810360008301526104d08161042e565b9050919050565b600060208201905081810360008301526104f081610451565b9050919050565b6000602082019050818103600083015261051081610474565b9050919050565b6000610521610532565b905061052d82826105bf565b919050565b6000604051905090565b600067ffffffffffffffff8211156105575761055661061f565b5b61056082610662565b9050602081019050919050565b600082825260208201905092915050565b82818337600083830152505050565b600060028204905060018216806105a557607f821691505b602082108114156105b9576105b86105f0565b5b50919050565b6105c882610662565b810181811067ffffffffffffffff821117156105e7576105e661061f565b5b80604052505050565b7f4e487b7100000000000000000000000000000000000000000000000000000000600052602260045260246000fd5b7f4e487b7100000000000000000000000000000000000000000000000000000000600052604160045260246000fd5b600080fd5b600080fd5b600080fd5b600080fd5b6000601f19601f8301169050919050565b7f53796d626f6c2063616e277420626520656d7074790000000000000000000000600082015250565b7f416c726561647920537461727465640000000000000000000000000000000000600082015250565b7f4e616d652043616e277420626520656d70747900000000000000000000000000600082015250565b7f556e617574686f72697a6564204163657373000000000000000000000000000060008201525056fea264697066735822122027f19c1e1eaf84f9441cf2899d9e5d575f7c371977970d5f9fb5a8ef4645980364736f6c63430008070033",
					"opcodes": "PUSH1 0x80 PUSH1 0x40 MSTORE PUSH1 0x0 PUSH1 0x1 PUSH1 0x14 PUSH2 0x100 EXP DUP2 SLOAD DUP2 PUSH1 0xFF MUL NOT AND SWAP1 DUP4 ISZERO ISZERO MUL OR SWAP1 SSTORE POP CALLVALUE DUP1 ISZERO PUSH2 0x2B JUMPI PUSH1 0x0 DUP1 REVERT JUMPDEST POP CALLER PUSH1 0x1 PUSH1 0x0 PUSH2 0x100 EXP DUP2 SLOAD DUP2 PUSH20 0xFFFFFFFFFFFFFFFFFFFFFFFFFFFFFFFFFFFFFFFF MUL NOT AND SWAP1 DUP4 PUSH20 0xFFFFFFFFFFFFFFFFFFFFFFFFFFFFFFFFFFFFFFFF AND MUL OR SWAP1 SSTORE POP PUSH2 0x74D DUP1 PUSH2 0x7C PUSH1 0x0 CODECOPY PUSH1 0x0 RETURN INVALID PUSH1 0x80 PUSH1 0x40 MSTORE CALLVALUE DUP1 ISZERO PUSH2 0x10 JUMPI PUSH1 0x0 DUP1 REVERT JUMPDEST POP PUSH1 0x4 CALLDATASIZE LT PUSH2 0x36 JUMPI PUSH1 0x0 CALLDATALOAD PUSH1 0xE0 SHR DUP1 PUSH4 0x137967A6 EQ PUSH2 0x3B JUMPI DUP1 PUSH4 0x4C0A6AF0 EQ PUSH2 0x57 JUMPI JUMPDEST PUSH1 0x0 DUP1 REVERT JUMPDEST PUSH2 0x55 PUSH1 0x4 DUP1 CALLDATASIZE SUB DUP2 ADD SWAP1 PUSH2 0x50 SWAP2 SWAP1 PUSH2 0x393 JUMP JUMPDEST PUSH2 0x61 JUMP JUMPDEST STOP JUMPDEST PUSH2 0x5F PUSH2 0x20D JUMP JUMPDEST STOP JUMPDEST PUSH1 0x1 PUSH1 0x0 SWAP1 SLOAD SWAP1 PUSH2 0x100 EXP SWAP1 DIV PUSH20 0xFFFFFFFFFFFFFFFFFFFFFFFFFFFFFFFFFFFFFFFF AND PUSH20 0xFFFFFFFFFFFFFFFFFFFFFFFFFFFFFFFFFFFFFFFF AND CALLER PUSH20 0xFFFFFFFFFFFFFFFFFFFFFFFFFFFFFFFFFFFFFFFF AND EQ ISZERO PUSH2 0xF2 JUMPI PUSH1 0x40 MLOAD PUSH32 0x8C379A000000000000000000000000000000000000000000000000000000000 DUP2 MSTORE PUSH1 0x4 ADD PUSH2 0xE9 SWAP1 PUSH2 0x4F7 JUMP JUMPDEST PUSH1 0x40 MLOAD DUP1 SWAP2 SUB SWAP1 REVERT JUMPDEST PUSH1 0x0 DUP3 MLOAD EQ ISZERO PUSH2 0x137 JUMPI PUSH1 0x40 MLOAD PUSH32 0x8C379A000000000000000000000000000000000000000000000000000000000 DUP2 MSTORE PUSH1 0x4 ADD PUSH2 0x12E SWAP1 PUSH2 0x4D7 JUMP JUMPDEST PUSH1 0x40 MLOAD DUP1 SWAP2 SUB SWAP1 REVERT JUMPDEST PUSH1 0x0 DUP2 MLOAD EQ ISZERO PUSH2 0x17C JUMPI PUSH1 0x40 MLOAD PUSH32 0x8C379A000000000000000000000000000000000000000000000000000000000 DUP2 MSTORE PUSH1 0x4 ADD PUSH2 0x173 SWAP1 PUSH2 0x497 JUMP JUMPDEST PUSH1 0x40 MLOAD DUP1 SWAP2 SUB SWAP1 REVERT JUMPDEST PUSH1 0x2 PUSH1 0x40 MLOAD DUP1 PUSH1 0x60 ADD PUSH1 0x40 MSTORE DUP1 DUP5 DUP2 MSTORE PUSH1 0x20 ADD DUP4 DUP2 MSTORE PUSH1 0x20 ADD PUSH1 0x0 DUP2 MSTORE POP SWAP1 DUP1 PUSH1 0x1 DUP2 SLOAD ADD DUP1 DUP3 SSTORE DUP1 SWAP2 POP POP PUSH1 0x1 SWAP1 SUB SWAP1 PUSH1 0x0 MSTORE PUSH1 0x20 PUSH1 0x0 KECCAK256 SWAP1 PUSH1 0x3 MUL ADD PUSH1 0x0 SWAP1 SWAP2 SWAP1 SWAP2 SWAP1 SWAP2 POP PUSH1 0x0 DUP3 ADD MLOAD DUP2 PUSH1 0x0 ADD SWAP1 DUP1 MLOAD SWAP1 PUSH1 0x20 ADD SWAP1 PUSH2 0x1DF SWAP3 SWAP2 SWAP1 PUSH2 0x280 JUMP JUMPDEST POP PUSH1 0x20 DUP3 ADD MLOAD DUP2 PUSH1 0x1 ADD SWAP1 DUP1 MLOAD SWAP1 PUSH1 0x20 ADD SWAP1 PUSH2 0x1FC SWAP3 SWAP2 SWAP1 PUSH2 0x280 JUMP JUMPDEST POP PUSH1 0x40 DUP3 ADD MLOAD DUP2 PUSH1 0x2 ADD SSTORE POP POP POP POP JUMP JUMPDEST PUSH1 0x0 ISZERO ISZERO PUSH1 0x1 PUSH1 0x14 SWAP1 SLOAD SWAP1 PUSH2 0x100 EXP SWAP1 DIV PUSH1 0xFF AND ISZERO ISZERO EQ ISZERO PUSH2 0x264 JUMPI PUSH1 0x40 MLOAD PUSH32 0x8C379A000000000000000000000000000000000000000000000000000000000 DUP2 MSTORE PUSH1 0x4 ADD PUSH2 0x25B SWAP1 PUSH2 0x4B7 JUMP JUMPDEST PUSH1 0x40 MLOAD DUP1 SWAP2 SUB SWAP1 REVERT JUMPDEST PUSH1 0x1 DUP1 PUSH1 0x14 PUSH2 0x100 EXP DUP2 SLOAD DUP2 PUSH1 0xFF MUL NOT AND SWAP1 DUP4 ISZERO ISZERO MUL OR SWAP1 SSTORE POP JUMP JUMPDEST DUP3 DUP1 SLOAD PUSH2 0x28C SWAP1 PUSH2 0x58D JUMP JUMPDEST SWAP1 PUSH1 0x0 MSTORE PUSH1 0x20 PUSH1 0x0 KECCAK256 SWAP1 PUSH1 0x1F ADD PUSH1 0x20 SWAP1 DIV DUP2 ADD SWAP3 DUP3 PUSH2 0x2AE JUMPI PUSH1 0x0 DUP6 SSTORE PUSH2 0x2F5 JUMP JUMPDEST DUP3 PUSH1 0x1F LT PUSH2 0x2C7 JUMPI DUP1 MLOAD PUSH1 0xFF NOT AND DUP4 DUP1 ADD OR DUP6 SSTORE PUSH2 0x2F5 JUMP JUMPDEST DUP3 DUP1 ADD PUSH1 0x1 ADD DUP6 SSTORE DUP3 ISZERO PUSH2 0x2F5 JUMPI SWAP2 DUP3 ADD JUMPDEST DUP3 DUP2 GT ISZERO PUSH2 0x2F4 JUMPI DUP3 MLOAD DUP3 SSTORE SWAP2 PUSH1 0x20 ADD SWAP2 SWAP1 PUSH1 0x1 ADD SWAP1 PUSH2 0x2D9 JUMP JUMPDEST JUMPDEST POP SWAP1 POP PUSH2 0x302 SWAP2 SWAP1 PUSH2 0x306 JUMP JUMPDEST POP SWAP1 JUMP JUMPDEST JUMPDEST DUP1 DUP3 GT ISZERO PUSH2 0x31F JUMPI PUSH1 0x0 DUP2 PUSH1 0x0 SWAP1 SSTORE POP PUSH1 0x1 ADD PUSH2 0x307 JUMP JUMPDEST POP SWAP1 JUMP JUMPDEST PUSH1 0x0 PUSH2 0x336 PUSH2 0x331 DUP5 PUSH2 0x53C JUMP JUMPDEST PUSH2 0x517 JUMP JUMPDEST SWAP1 POP DUP3 DUP2 MSTORE PUSH1 0x20 DUP2 ADD DUP5 DUP5 DUP5 ADD GT ISZERO PUSH2 0x352 JUMPI PUSH2 0x351 PUSH2 0x653 JUMP JUMPDEST JUMPDEST PUSH2 0x35D DUP5 DUP3 DUP6 PUSH2 0x57E JUMP JUMPDEST POP SWAP4 SWAP3 POP POP POP JUMP JUMPDEST PUSH1 0x0 DUP3 PUSH1 0x1F DUP4 ADD SLT PUSH2 0x37A JUMPI PUSH2 0x379 PUSH2 0x64E JUMP JUMPDEST JUMPDEST DUP2 CALLDATALOAD PUSH2 0x38A DUP5 DUP3 PUSH1 0x20 DUP7 ADD PUSH2 0x323 JUMP JUMPDEST SWAP2 POP POP SWAP3 SWAP2 POP POP JUMP JUMPDEST PUSH1 0x0 DUP1 PUSH1 0x40 DUP4 DUP6 SUB SLT ISZERO PUSH2 0x3AA JUMPI PUSH2 0x3A9 PUSH2 0x65D JUMP JUMPDEST JUMPDEST PUSH1 0x0 DUP4 ADD CALLDATALOAD PUSH8 0xFFFFFFFFFFFFFFFF DUP2 GT ISZERO PUSH2 0x3C8 JUMPI PUSH2 0x3C7 PUSH2 0x658 JUMP JUMPDEST JUMPDEST PUSH2 0x3D4 DUP6 DUP3 DUP7 ADD PUSH2 0x365 JUMP JUMPDEST SWAP3 POP POP PUSH1 0x20 DUP4 ADD CALLDATALOAD PUSH8 0xFFFFFFFFFFFFFFFF DUP2 GT ISZERO PUSH2 0x3F5 JUMPI PUSH2 0x3F4 PUSH2 0x658 JUMP JUMPDEST JUMPDEST PUSH2 0x401 DUP6 DUP3 DUP7 ADD PUSH2 0x365 JUMP JUMPDEST SWAP2 POP POP SWAP3 POP SWAP3 SWAP1 POP JUMP JUMPDEST PUSH1 0x0 PUSH2 0x418 PUSH1 0x15 DUP4 PUSH2 0x56D JUMP JUMPDEST SWAP2 POP PUSH2 0x423 DUP3 PUSH2 0x673 JUMP JUMPDEST PUSH1 0x20 DUP3 ADD SWAP1 POP SWAP2 SWAP1 POP JUMP JUMPDEST PUSH1 0x0 PUSH2 0x43B PUSH1 0xF DUP4 PUSH2 0x56D JUMP JUMPDEST SWAP2 POP PUSH2 0x446 DUP3 PUSH2 0x69C JUMP JUMPDEST PUSH1 0x20 DUP3 ADD SWAP1 POP SWAP2 SWAP1 POP JUMP JUMPDEST PUSH1 0x0 PUSH2 0x45E PUSH1 0x13 DUP4 PUSH2 0x56D JUMP JUMPDEST SWAP2 POP PUSH2 0x469 DUP3 PUSH2 0x6C5 JUMP JUMPDEST PUSH1 0x20 DUP3 ADD SWAP1 POP SWAP2 SWAP1 POP JUMP JUMPDEST PUSH1 0x0 PUSH2 0x481 PUSH1 0x12 DUP4 PUSH2 0x56D JUMP JUMPDEST SWAP2 POP PUSH2 0x48C DUP3 PUSH2 0x6EE JUMP JUMPDEST PUSH1 0x20 DUP3 ADD SWAP1 POP SWAP2 SWAP1 POP JUMP JUMPDEST PUSH1 0x0 PUSH1 0x20 DUP3 ADD SWAP1 POP DUP2 DUP2 SUB PUSH1 0x0 DUP4 ADD MSTORE PUSH2 0x4B0 DUP2 PUSH2 0x40B JUMP JUMPDEST SWAP1 POP SWAP2 SWAP1 POP JUMP JUMPDEST PUSH1 0x0 PUSH1 0x20 DUP3 ADD SWAP1 POP DUP2 DUP2 SUB PUSH1 0x0 DUP4 ADD MSTORE PUSH2 0x4D0 DUP2 PUSH2 0x42E JUMP JUMPDEST SWAP1 POP SWAP2 SWAP1 POP JUMP JUMPDEST PUSH1 0x0 PUSH1 0x20 DUP3 ADD SWAP1 POP DUP2 DUP2 SUB PUSH1 0x0 DUP4 ADD MSTORE PUSH2 0x4F0 DUP2 PUSH2 0x451 JUMP JUMPDEST SWAP1 POP SWAP2 SWAP1 POP JUMP JUMPDEST PUSH1 0x0 PUSH1 0x20 DUP3 ADD SWAP1 POP DUP2 DUP2 SUB PUSH1 0x0 DUP4 ADD MSTORE PUSH2 0x510 DUP2 PUSH2 0x474 JUMP JUMPDEST SWAP1 POP SWAP2 SWAP1 POP JUMP JUMPDEST PUSH1 0x0 PUSH2 0x521 PUSH2 0x532 JUMP JUMPDEST SWAP1 POP PUSH2 0x52D DUP3 DUP3 PUSH2 0x5BF JUMP JUMPDEST SWAP2 SWAP1 POP JUMP JUMPDEST PUSH1 0x0 PUSH1 0x40 MLOAD SWAP1 POP SWAP1 JUMP JUMPDEST PUSH1 0x0 PUSH8 0xFFFFFFFFFFFFFFFF DUP3 GT ISZERO PUSH2 0x557 JUMPI PUSH2 0x556 PUSH2 0x61F JUMP JUMPDEST JUMPDEST PUSH2 0x560 DUP3 PUSH2 0x662 JUMP JUMPDEST SWAP1 POP PUSH1 0x20 DUP2 ADD SWAP1 POP SWAP2 SWAP1 POP JUMP JUMPDEST PUSH1 0x0 DUP3 DUP3 MSTORE PUSH1 0x20 DUP3 ADD SWAP1 POP SWAP3 SWAP2 POP POP JUMP JUMPDEST DUP3 DUP2 DUP4 CALLDATACOPY PUSH1 0x0 DUP4 DUP4 ADD MSTORE POP POP POP JUMP JUMPDEST PUSH1 0x0 PUSH1 0x2 DUP3 DIV SWAP1 POP PUSH1 0x1 DUP3 AND DUP1 PUSH2 0x5A5 JUMPI PUSH1 0x7F DUP3 AND SWAP2 POP JUMPDEST PUSH1 0x20 DUP3 LT DUP2 EQ ISZERO PUSH2 0x5B9 JUMPI PUSH2 0x5B8 PUSH2 0x5F0 JUMP JUMPDEST JUMPDEST POP SWAP2 SWAP1 POP JUMP JUMPDEST PUSH2 0x5C8 DUP3 PUSH2 0x662 JUMP JUMPDEST DUP2 ADD DUP2 DUP2 LT PUSH8 0xFFFFFFFFFFFFFFFF DUP3 GT OR ISZERO PUSH2 0x5E7 JUMPI PUSH2 0x5E6 PUSH2 0x61F JUMP JUMPDEST JUMPDEST DUP1 PUSH1 0x40 MSTORE POP POP POP JUMP JUMPDEST PUSH32 0x4E487B7100000000000000000000000000000000000000000000000000000000 PUSH1 0x0 MSTORE PUSH1 0x22 PUSH1 0x4 MSTORE PUSH1 0x24 PUSH1 0x0 REVERT JUMPDEST PUSH32 0x4E487B7100000000000000000000000000000000000000000000000000000000 PUSH1 0x0 MSTORE PUSH1 0x41 PUSH1 0x4 MSTORE PUSH1 0x24 PUSH1 0x0 REVERT JUMPDEST PUSH1 0x0 DUP1 REVERT JUMPDEST PUSH1 0x0 DUP1 REVERT JUMPDEST PUSH1 0x0 DUP1 REVERT JUMPDEST PUSH1 0x0 DUP1 REVERT JUMPDEST PUSH1 0x0 PUSH1 0x1F NOT PUSH1 0x1F DUP4 ADD AND SWAP1 POP SWAP2 SWAP1 POP JUMP JUMPDEST PUSH32 0x53796D626F6C2063616E277420626520656D7074790000000000000000000000 PUSH1 0x0 DUP3 ADD MSTORE POP JUMP JUMPDEST PUSH32 0x416C726561647920537461727465640000000000000000000000000000000000 PUSH1 0x0 DUP3 ADD MSTORE POP JUMP JUMPDEST PUSH32 0x4E616D652043616E277420626520656D70747900000000000000000000000000 PUSH1 0x0 DUP3 ADD MSTORE POP JUMP JUMPDEST PUSH32 0x556E617574686F72697A65642041636573730000000000000000000000000000 PUSH1 0x0 DUP3 ADD MSTORE POP JUMP INVALID LOG2 PUSH5 0x6970667358 0x22 SLT KECCAK256 0x27 CALL SWAP13 0x1E 0x1E 0xAF DUP5 0xF9 DIFFICULTY SHR CALLCODE DUP10 SWAP14 SWAP15 0x5D JUMPI 0x5F PUSH29 0x371977970D5F9FB5A8EF4645980364736F6C6343000807003300000000 "
				},
				"gasEstimates": {
					"creation": {
						"codeDepositCost": "373800",
						"executionCost": "48994",
						"totalCost": "422794"
					},
					"external": {
						"registrationForCandidate(string,string)": "infinite",
						"startVote()": "26685"
					}
				},
				"methodIdentifiers": {
					"registrationForCandidate(string,string)": "137967a6",
					"startVote()": "4c0a6af0"
				}
			},
			"storageLayout": {
				"storage": [
					{
						"astId": 4,
						"contract": "contracts/voting.sol:VotingContract",
						"label": "voterList",
						"offset": 0,
						"slot": "0",
						"type": "t_array(t_address)dyn_storage"
					},
					{
						"astId": 6,
						"contract": "contracts/voting.sol:VotingContract",
						"label": "electionCommission",
						"offset": 0,
						"slot": "1",
						"type": "t_address"
					},
					{
						"astId": 9,
						"contract": "contracts/voting.sol:VotingContract",
						"label": "voteStarted",
						"offset": 20,
						"slot": "1",
						"type": "t_bool"
					},
					{
						"astId": 20,
						"contract": "contracts/voting.sol:VotingContract",
						"label": "Candidates",
						"offset": 0,
						"slot": "2",
						"type": "t_array(t_struct(candidate)16_storage)dyn_storage"
					}
				],
				"types": {
					"t_address": {
						"encoding": "inplace",
						"label": "address",
						"numberOfBytes": "20"
					},
					"t_array(t_address)dyn_storage": {
						"base": "t_address",
						"encoding": "dynamic_array",
						"label": "address[]",
						"numberOfBytes": "32"
					},
					"t_array(t_struct(candidate)16_storage)dyn_storage": {
						"base": "t_struct(candidate)16_storage",
						"encoding": "dynamic_array",
						"label": "struct VotingContract.candidate[]",
						"numberOfBytes": "32"
					},
					"t_bool": {
						"encoding": "inplace",
						"label": "bool",
						"numberOfBytes": "1"
					},
					"t_string_storage": {
						"encoding": "bytes",
						"label": "string",
						"numberOfBytes": "32"
					},
					"t_struct(candidate)16_storage": {
						"encoding": "inplace",
						"label": "struct VotingContract.candidate",
						"members": [
							{
								"astId": 11,
								"contract": "contracts/voting.sol:VotingContract",
								"label": "name",
								"offset": 0,
								"slot": "0",
								"type": "t_string_storage"
							},
							{
								"astId": 13,
								"contract": "contracts/voting.sol:VotingContract",
								"label": "symbol",
								"offset": 0,
								"slot": "1",
								"type": "t_string_storage"
							},
							{
								"astId": 15,
								"contract": "contracts/voting.sol:VotingContract",
								"label": "voteCount",
								"offset": 0,
								"slot": "2",
								"type": "t_uint256"
							}
						],
						"numberOfBytes": "96"
					},
					"t_uint256": {
						"encoding": "inplace",
						"label": "uint256",
						"numberOfBytes": "32"
					}
				}
			},
			"userdoc": {
				"kind": "user",
				"methods": {},
				"version": 1
			}
		}
	}
}