{
	"contracts/votingSystem.sol": {
		"VotingContract": {
			"abi": [
				{
					"inputs": [],
					"name": "getAllCandidates",
					"outputs": [
						{
							"components": [
								{
									"internalType": "string",
									"name": "candidateName",
									"type": "string"
								},
								{
									"internalType": "string",
									"name": "symbols",
									"type": "string"
								}
							],
							"internalType": "struct VotingContract.candidateInfo[]",
							"name": "",
							"type": "tuple[]"
						}
					],
					"stateMutability": "view",
					"type": "function"
				},
				{
					"inputs": [
						{
							"internalType": "string",
							"name": "_name",
							"type": "string"
						},
						{
							"internalType": "string",
							"name": "_symbol",
							"type": "string"
						}
					],
					"name": "registerCandidates",
					"outputs": [],
					"stateMutability": "nonpayable",
					"type": "function"
				}
			],
			"devdoc": {
				"kind": "dev",
				"methods": {},
				"version": 1
			},
			"evm": {
				"assembly": "    /* \"contracts/votingSystem.sol\":60:626  contract VotingContract{\r... */\n  mstore(0x40, 0x80)\n    /* \"contracts/votingSystem.sol\":234:244  msg.sender */\n  caller\n    /* \"contracts/votingSystem.sol\":208:244  address electionOfficer = msg.sender */\n  0x00\n  dup1\n  0x0100\n  exp\n  dup2\n  sload\n  dup2\n  0xffffffffffffffffffffffffffffffffffffffff\n  mul\n  not\n  and\n  swap1\n  dup4\n  0xffffffffffffffffffffffffffffffffffffffff\n  and\n  mul\n  or\n  swap1\n  sstore\n  pop\n    /* \"contracts/votingSystem.sol\":60:626  contract VotingContract{\r... */\n  callvalue\n  dup1\n  iszero\n  tag_1\n  jumpi\n  0x00\n  dup1\n  revert\ntag_1:\n  pop\n  dataSize(sub_0)\n  dup1\n  dataOffset(sub_0)\n  0x00\n  codecopy\n  0x00\n  return\nstop\n\nsub_0: assembly {\n        /* \"contracts/votingSystem.sol\":60:626  contract VotingContract{\r... */\n      mstore(0x40, 0x80)\n      callvalue\n      dup1\n      iszero\n      tag_1\n      jumpi\n      0x00\n      dup1\n      revert\n    tag_1:\n      pop\n      jumpi(tag_2, lt(calldatasize, 0x04))\n      shr(0xe0, calldataload(0x00))\n      dup1\n      0x2e6997fe\n      eq\n      tag_3\n      jumpi\n      dup1\n      0xc1700e00\n      eq\n      tag_4\n      jumpi\n    tag_2:\n      0x00\n      dup1\n      revert\n        /* \"contracts/votingSystem.sol\":508:613  function getAllCandidates()view public returns(candidateInfo[] memory){\r... */\n    tag_3:\n      tag_5\n      tag_6\n      jump\t// in\n    tag_5:\n      mload(0x40)\n      tag_7\n      swap2\n      swap1\n      tag_8\n      jump\t// in\n    tag_7:\n      mload(0x40)\n      dup1\n      swap2\n      sub\n      swap1\n      return\n        /* \"contracts/votingSystem.sol\":288:502  function registerCandidates(string memory _name,string memory _symbol) public {\r... */\n    tag_4:\n      tag_9\n      0x04\n      dup1\n      calldatasize\n      sub\n      dup2\n      add\n      swap1\n      tag_10\n      swap2\n      swap1\n      tag_11\n      jump\t// in\n    tag_10:\n      tag_12\n      jump\t// in\n    tag_9:\n      stop\n        /* \"contracts/votingSystem.sol\":508:613  function getAllCandidates()view public returns(candidateInfo[] memory){\r... */\n    tag_6:\n        /* \"contracts/votingSystem.sol\":555:577  candidateInfo[] memory */\n      0x60\n        /* \"contracts/votingSystem.sol\":592:605  candidateList */\n      0x01\n        /* \"contracts/votingSystem.sol\":585:605  return candidateList */\n      dup1\n      sload\n      dup1\n      0x20\n      mul\n      0x20\n      add\n      mload(0x40)\n      swap1\n      dup2\n      add\n      0x40\n      mstore\n      dup1\n      swap3\n      swap2\n      swap1\n      dup2\n      dup2\n      mstore\n      0x20\n      add\n      0x00\n      swap1\n    tag_14:\n      dup3\n      dup3\n      lt\n      iszero\n      tag_15\n      jumpi\n      dup4\n      dup3\n      swap1\n      0x00\n      mstore\n      keccak256(0x00, 0x20)\n      swap1\n      0x02\n      mul\n      add\n      mload(0x40)\n      dup1\n      0x40\n      add\n      0x40\n      mstore\n      swap1\n      dup2\n      0x00\n      dup3\n      add\n      dup1\n      sload\n      tag_17\n      swap1\n      tag_18\n      jump\t// in\n    tag_17:\n      dup1\n      0x1f\n      add\n      0x20\n      dup1\n      swap2\n      div\n      mul\n      0x20\n      add\n      mload(0x40)\n      swap1\n      dup2\n      add\n      0x40\n      mstore\n      dup1\n      swap3\n      swap2\n      swap1\n      dup2\n      dup2\n      mstore\n      0x20\n      add\n      dup3\n      dup1\n      sload\n      tag_19\n      swap1\n      tag_18\n      jump\t// in\n    tag_19:\n      dup1\n      iszero\n      tag_20\n      jumpi\n      dup1\n      0x1f\n      lt\n      tag_21\n      jumpi\n      0x0100\n      dup1\n      dup4\n      sload\n      div\n      mul\n      dup4\n      mstore\n      swap2\n      0x20\n      add\n      swap2\n      jump(tag_20)\n    tag_21:\n      dup3\n      add\n      swap2\n      swap1\n      0x00\n      mstore\n      keccak256(0x00, 0x20)\n      swap1\n    tag_22:\n      dup2\n      sload\n      dup2\n      mstore\n      swap1\n      0x01\n      add\n      swap1\n      0x20\n      add\n      dup1\n      dup4\n      gt\n      tag_22\n      jumpi\n      dup3\n      swap1\n      sub\n      0x1f\n      and\n      dup3\n      add\n      swap2\n    tag_20:\n      pop\n      pop\n      pop\n      pop\n      pop\n      dup2\n      mstore\n      0x20\n      add\n      0x01\n      dup3\n      add\n      dup1\n      sload\n      tag_23\n      swap1\n      tag_18\n      jump\t// in\n    tag_23:\n      dup1\n      0x1f\n      add\n      0x20\n      dup1\n      swap2\n      div\n      mul\n      0x20\n      add\n      mload(0x40)\n      swap1\n      dup2\n      add\n      0x40\n      mstore\n      dup1\n      swap3\n      swap2\n      swap1\n      dup2\n      dup2\n      mstore\n      0x20\n      add\n      dup3\n      dup1\n      sload\n      tag_24\n      swap1\n      tag_18\n      jump\t// in\n    tag_24:\n      dup1\n      iszero\n      tag_25\n      jumpi\n      dup1\n      0x1f\n      lt\n      tag_26\n      jumpi\n      0x0100\n      dup1\n      dup4\n      sload\n      div\n      mul\n      dup4\n      mstore\n      swap2\n      0x20\n      add\n      swap2\n      jump(tag_25)\n    tag_26:\n      dup3\n      add\n      swap2\n      swap1\n      0x00\n      mstore\n      keccak256(0x00, 0x20)\n      swap1\n    tag_27:\n      dup2\n      sload\n      dup2\n      mstore\n      swap1\n      0x01\n      add\n      swap1\n      0x20\n      add\n      dup1\n      dup4\n      gt\n      tag_27\n      jumpi\n      dup3\n      swap1\n      sub\n      0x1f\n      and\n      dup3\n      add\n      swap2\n    tag_25:\n      pop\n      pop\n      pop\n      pop\n      pop\n      dup2\n      mstore\n      pop\n      pop\n      dup2\n      mstore\n      0x20\n      add\n      swap1\n      0x01\n      add\n      swap1\n      jump(tag_14)\n    tag_15:\n      pop\n      pop\n      pop\n      pop\n      swap1\n      pop\n        /* \"contracts/votingSystem.sol\":508:613  function getAllCandidates()view public returns(candidateInfo[] memory){\r... */\n      swap1\n      jump\t// out\n        /* \"contracts/votingSystem.sol\":288:502  function registerCandidates(string memory _name,string memory _symbol) public {\r... */\n    tag_12:\n        /* \"contracts/votingSystem.sol\":397:412  electionOfficer */\n      0x00\n      dup1\n      sload\n      swap1\n      0x0100\n      exp\n      swap1\n      div\n      0xffffffffffffffffffffffffffffffffffffffff\n      and\n        /* \"contracts/votingSystem.sol\":385:412  msg.sender==electionOfficer */\n      0xffffffffffffffffffffffffffffffffffffffff\n      and\n        /* \"contracts/votingSystem.sol\":385:395  msg.sender */\n      caller\n        /* \"contracts/votingSystem.sol\":385:412  msg.sender==electionOfficer */\n      0xffffffffffffffffffffffffffffffffffffffff\n      and\n      eq\n        /* \"contracts/votingSystem.sol\":377:435  require(msg.sender==electionOfficer,\"Unauthorized Person\") */\n      tag_29\n      jumpi\n      mload(0x40)\n      0x08c379a000000000000000000000000000000000000000000000000000000000\n      dup2\n      mstore\n      0x04\n      add\n      tag_30\n      swap1\n      tag_31\n      jump\t// in\n    tag_30:\n      mload(0x40)\n      dup1\n      swap2\n      sub\n      swap1\n      revert\n    tag_29:\n        /* \"contracts/votingSystem.sol\":446:459  candidateList */\n      0x01\n        /* \"contracts/votingSystem.sol\":465:493  candidateInfo(_name,_symbol) */\n      mload(0x40)\n      dup1\n      0x40\n      add\n      0x40\n      mstore\n      dup1\n        /* \"contracts/votingSystem.sol\":479:484  _name */\n      dup5\n        /* \"contracts/votingSystem.sol\":465:493  candidateInfo(_name,_symbol) */\n      dup2\n      mstore\n      0x20\n      add\n        /* \"contracts/votingSystem.sol\":485:492  _symbol */\n      dup4\n        /* \"contracts/votingSystem.sol\":465:493  candidateInfo(_name,_symbol) */\n      dup2\n      mstore\n      pop\n        /* \"contracts/votingSystem.sol\":446:494  candidateList.push(candidateInfo(_name,_symbol)) */\n      swap1\n      dup1\n      0x01\n      dup2\n      sload\n      add\n      dup1\n      dup3\n      sstore\n      dup1\n      swap2\n      pop\n      pop\n      0x01\n      swap1\n      sub\n      swap1\n      0x00\n      mstore\n      keccak256(0x00, 0x20)\n      swap1\n      0x02\n      mul\n      add\n      0x00\n      swap1\n      swap2\n      swap1\n      swap2\n      swap1\n      swap2\n      pop\n      0x00\n      dup3\n      add\n      mload\n      dup2\n      0x00\n      add\n      swap1\n      dup1\n      mload\n      swap1\n      0x20\n      add\n      swap1\n      tag_33\n      swap3\n      swap2\n      swap1\n      tag_34\n      jump\t// in\n    tag_33:\n      pop\n      0x20\n      dup3\n      add\n      mload\n      dup2\n      0x01\n      add\n      swap1\n      dup1\n      mload\n      swap1\n      0x20\n      add\n      swap1\n      tag_35\n      swap3\n      swap2\n      swap1\n      tag_34\n      jump\t// in\n    tag_35:\n      pop\n      pop\n      pop\n        /* \"contracts/votingSystem.sol\":288:502  function registerCandidates(string memory _name,string memory _symbol) public {\r... */\n      pop\n      pop\n      jump\t// out\n    tag_34:\n      dup3\n      dup1\n      sload\n      tag_36\n      swap1\n      tag_18\n      jump\t// in\n    tag_36:\n      swap1\n      0x00\n      mstore\n      keccak256(0x00, 0x20)\n      swap1\n      0x1f\n      add\n      0x20\n      swap1\n      div\n      dup2\n      add\n      swap3\n      dup3\n      tag_38\n      jumpi\n      0x00\n      dup6\n      sstore\n      jump(tag_37)\n    tag_38:\n      dup3\n      0x1f\n      lt\n      tag_39\n      jumpi\n      dup1\n      mload\n      not(0xff)\n      and\n      dup4\n      dup1\n      add\n      or\n      dup6\n      sstore\n      jump(tag_37)\n    tag_39:\n      dup3\n      dup1\n      add\n      0x01\n      add\n      dup6\n      sstore\n      dup3\n      iszero\n      tag_37\n      jumpi\n      swap2\n      dup3\n      add\n    tag_40:\n      dup3\n      dup2\n      gt\n      iszero\n      tag_41\n      jumpi\n      dup3\n      mload\n      dup3\n      sstore\n      swap2\n      0x20\n      add\n      swap2\n      swap1\n      0x01\n      add\n      swap1\n      jump(tag_40)\n    tag_41:\n    tag_37:\n      pop\n      swap1\n      pop\n      tag_42\n      swap2\n      swap1\n      tag_43\n      jump\t// in\n    tag_42:\n      pop\n      swap1\n      jump\t// out\n    tag_43:\n    tag_44:\n      dup1\n      dup3\n      gt\n      iszero\n      tag_45\n      jumpi\n      0x00\n      dup2\n      0x00\n      swap1\n      sstore\n      pop\n      0x01\n      add\n      jump(tag_44)\n    tag_45:\n      pop\n      swap1\n      jump\t// out\n        /* \"#utility.yul\":7:419   */\n    tag_47:\n        /* \"#utility.yul\":85:90   */\n      0x00\n        /* \"#utility.yul\":110:176   */\n      tag_49\n        /* \"#utility.yul\":126:175   */\n      tag_50\n        /* \"#utility.yul\":168:174   */\n      dup5\n        /* \"#utility.yul\":126:175   */\n      tag_51\n      jump\t// in\n    tag_50:\n        /* \"#utility.yul\":110:176   */\n      tag_52\n      jump\t// in\n    tag_49:\n        /* \"#utility.yul\":101:176   */\n      swap1\n      pop\n        /* \"#utility.yul\":199:205   */\n      dup3\n        /* \"#utility.yul\":192:197   */\n      dup2\n        /* \"#utility.yul\":185:206   */\n      mstore\n        /* \"#utility.yul\":237:241   */\n      0x20\n        /* \"#utility.yul\":230:235   */\n      dup2\n        /* \"#utility.yul\":226:242   */\n      add\n        /* \"#utility.yul\":275:278   */\n      dup5\n        /* \"#utility.yul\":266:272   */\n      dup5\n        /* \"#utility.yul\":261:264   */\n      dup5\n        /* \"#utility.yul\":257:273   */\n      add\n        /* \"#utility.yul\":254:279   */\n      gt\n        /* \"#utility.yul\":251:363   */\n      iszero\n      tag_53\n      jumpi\n        /* \"#utility.yul\":282:361   */\n      tag_54\n      tag_55\n      jump\t// in\n    tag_54:\n        /* \"#utility.yul\":251:363   */\n    tag_53:\n        /* \"#utility.yul\":372:413   */\n      tag_56\n        /* \"#utility.yul\":406:412   */\n      dup5\n        /* \"#utility.yul\":401:404   */\n      dup3\n        /* \"#utility.yul\":396:399   */\n      dup6\n        /* \"#utility.yul\":372:413   */\n      tag_57\n      jump\t// in\n    tag_56:\n        /* \"#utility.yul\":91:419   */\n      pop\n        /* \"#utility.yul\":7:419   */\n      swap4\n      swap3\n      pop\n      pop\n      pop\n      jump\t// out\n        /* \"#utility.yul\":439:779   */\n    tag_58:\n        /* \"#utility.yul\":495:500   */\n      0x00\n        /* \"#utility.yul\":544:547   */\n      dup3\n        /* \"#utility.yul\":537:541   */\n      0x1f\n        /* \"#utility.yul\":529:535   */\n      dup4\n        /* \"#utility.yul\":525:542   */\n      add\n        /* \"#utility.yul\":521:548   */\n      slt\n        /* \"#utility.yul\":511:633   */\n      tag_60\n      jumpi\n        /* \"#utility.yul\":552:631   */\n      tag_61\n      tag_62\n      jump\t// in\n    tag_61:\n        /* \"#utility.yul\":511:633   */\n    tag_60:\n        /* \"#utility.yul\":669:675   */\n      dup2\n        /* \"#utility.yul\":656:676   */\n      calldataload\n        /* \"#utility.yul\":694:773   */\n      tag_63\n        /* \"#utility.yul\":769:772   */\n      dup5\n        /* \"#utility.yul\":761:767   */\n      dup3\n        /* \"#utility.yul\":754:758   */\n      0x20\n        /* \"#utility.yul\":746:752   */\n      dup7\n        /* \"#utility.yul\":742:759   */\n      add\n        /* \"#utility.yul\":694:773   */\n      tag_47\n      jump\t// in\n    tag_63:\n        /* \"#utility.yul\":685:773   */\n      swap2\n      pop\n        /* \"#utility.yul\":501:779   */\n      pop\n        /* \"#utility.yul\":439:779   */\n      swap3\n      swap2\n      pop\n      pop\n      jump\t// out\n        /* \"#utility.yul\":785:1619   */\n    tag_11:\n        /* \"#utility.yul\":873:879   */\n      0x00\n        /* \"#utility.yul\":881:887   */\n      dup1\n        /* \"#utility.yul\":930:932   */\n      0x40\n        /* \"#utility.yul\":918:927   */\n      dup4\n        /* \"#utility.yul\":909:916   */\n      dup6\n        /* \"#utility.yul\":905:928   */\n      sub\n        /* \"#utility.yul\":901:933   */\n      slt\n        /* \"#utility.yul\":898:1017   */\n      iszero\n      tag_65\n      jumpi\n        /* \"#utility.yul\":936:1015   */\n      tag_66\n      tag_67\n      jump\t// in\n    tag_66:\n        /* \"#utility.yul\":898:1017   */\n    tag_65:\n        /* \"#utility.yul\":1084:1085   */\n      0x00\n        /* \"#utility.yul\":1073:1082   */\n      dup4\n        /* \"#utility.yul\":1069:1086   */\n      add\n        /* \"#utility.yul\":1056:1087   */\n      calldataload\n        /* \"#utility.yul\":1114:1132   */\n      0xffffffffffffffff\n        /* \"#utility.yul\":1106:1112   */\n      dup2\n        /* \"#utility.yul\":1103:1133   */\n      gt\n        /* \"#utility.yul\":1100:1217   */\n      iszero\n      tag_68\n      jumpi\n        /* \"#utility.yul\":1136:1215   */\n      tag_69\n      tag_70\n      jump\t// in\n    tag_69:\n        /* \"#utility.yul\":1100:1217   */\n    tag_68:\n        /* \"#utility.yul\":1241:1304   */\n      tag_71\n        /* \"#utility.yul\":1296:1303   */\n      dup6\n        /* \"#utility.yul\":1287:1293   */\n      dup3\n        /* \"#utility.yul\":1276:1285   */\n      dup7\n        /* \"#utility.yul\":1272:1294   */\n      add\n        /* \"#utility.yul\":1241:1304   */\n      tag_58\n      jump\t// in\n    tag_71:\n        /* \"#utility.yul\":1231:1304   */\n      swap3\n      pop\n        /* \"#utility.yul\":1027:1314   */\n      pop\n        /* \"#utility.yul\":1381:1383   */\n      0x20\n        /* \"#utility.yul\":1370:1379   */\n      dup4\n        /* \"#utility.yul\":1366:1384   */\n      add\n        /* \"#utility.yul\":1353:1385   */\n      calldataload\n        /* \"#utility.yul\":1412:1430   */\n      0xffffffffffffffff\n        /* \"#utility.yul\":1404:1410   */\n      dup2\n        /* \"#utility.yul\":1401:1431   */\n      gt\n        /* \"#utility.yul\":1398:1515   */\n      iszero\n      tag_72\n      jumpi\n        /* \"#utility.yul\":1434:1513   */\n      tag_73\n      tag_70\n      jump\t// in\n    tag_73:\n        /* \"#utility.yul\":1398:1515   */\n    tag_72:\n        /* \"#utility.yul\":1539:1602   */\n      tag_74\n        /* \"#utility.yul\":1594:1601   */\n      dup6\n        /* \"#utility.yul\":1585:1591   */\n      dup3\n        /* \"#utility.yul\":1574:1583   */\n      dup7\n        /* \"#utility.yul\":1570:1592   */\n      add\n        /* \"#utility.yul\":1539:1602   */\n      tag_58\n      jump\t// in\n    tag_74:\n        /* \"#utility.yul\":1529:1602   */\n      swap2\n      pop\n        /* \"#utility.yul\":1324:1612   */\n      pop\n        /* \"#utility.yul\":785:1619   */\n      swap3\n      pop\n      swap3\n      swap1\n      pop\n      jump\t// out\n        /* \"#utility.yul\":1625:1893   */\n    tag_75:\n        /* \"#utility.yul\":1750:1760   */\n      0x00\n        /* \"#utility.yul\":1785:1887   */\n      tag_77\n        /* \"#utility.yul\":1883:1886   */\n      dup4\n        /* \"#utility.yul\":1875:1881   */\n      dup4\n        /* \"#utility.yul\":1785:1887   */\n      tag_78\n      jump\t// in\n    tag_77:\n        /* \"#utility.yul\":1771:1887   */\n      swap1\n      pop\n        /* \"#utility.yul\":1625:1893   */\n      swap3\n      swap2\n      pop\n      pop\n      jump\t// out\n        /* \"#utility.yul\":1985:3120   */\n    tag_79:\n        /* \"#utility.yul\":2160:2163   */\n      0x00\n        /* \"#utility.yul\":2189:2271   */\n      tag_81\n        /* \"#utility.yul\":2265:2270   */\n      dup3\n        /* \"#utility.yul\":2189:2271   */\n      tag_82\n      jump\t// in\n    tag_81:\n        /* \"#utility.yul\":2287:2401   */\n      tag_83\n        /* \"#utility.yul\":2394:2400   */\n      dup2\n        /* \"#utility.yul\":2389:2392   */\n      dup6\n        /* \"#utility.yul\":2287:2401   */\n      tag_84\n      jump\t// in\n    tag_83:\n        /* \"#utility.yul\":2280:2401   */\n      swap4\n      pop\n        /* \"#utility.yul\":2427:2430   */\n      dup4\n        /* \"#utility.yul\":2472:2476   */\n      0x20\n        /* \"#utility.yul\":2464:2470   */\n      dup3\n        /* \"#utility.yul\":2460:2477   */\n      mul\n        /* \"#utility.yul\":2455:2458   */\n      dup6\n        /* \"#utility.yul\":2451:2478   */\n      add\n        /* \"#utility.yul\":2502:2586   */\n      tag_85\n        /* \"#utility.yul\":2580:2585   */\n      dup6\n        /* \"#utility.yul\":2502:2586   */\n      tag_86\n      jump\t// in\n    tag_85:\n        /* \"#utility.yul\":2609:2616   */\n      dup1\n        /* \"#utility.yul\":2640:2641   */\n      0x00\n        /* \"#utility.yul\":2625:3075   */\n    tag_87:\n        /* \"#utility.yul\":2650:2656   */\n      dup6\n        /* \"#utility.yul\":2647:2648   */\n      dup2\n        /* \"#utility.yul\":2644:2657   */\n      lt\n        /* \"#utility.yul\":2625:3075   */\n      iszero\n      tag_89\n      jumpi\n        /* \"#utility.yul\":2721:2730   */\n      dup5\n        /* \"#utility.yul\":2715:2719   */\n      dup5\n        /* \"#utility.yul\":2711:2731   */\n      sub\n        /* \"#utility.yul\":2706:2709   */\n      dup10\n        /* \"#utility.yul\":2699:2732   */\n      mstore\n        /* \"#utility.yul\":2772:2778   */\n      dup2\n        /* \"#utility.yul\":2766:2779   */\n      mload\n        /* \"#utility.yul\":2800:2920   */\n      tag_90\n        /* \"#utility.yul\":2915:2919   */\n      dup6\n        /* \"#utility.yul\":2900:2913   */\n      dup3\n        /* \"#utility.yul\":2800:2920   */\n      tag_75\n      jump\t// in\n    tag_90:\n        /* \"#utility.yul\":2792:2920   */\n      swap5\n      pop\n        /* \"#utility.yul\":2943:3031   */\n      tag_91\n        /* \"#utility.yul\":3024:3030   */\n      dup4\n        /* \"#utility.yul\":2943:3031   */\n      tag_92\n      jump\t// in\n    tag_91:\n        /* \"#utility.yul\":2933:3031   */\n      swap3\n      pop\n        /* \"#utility.yul\":3060:3064   */\n      0x20\n        /* \"#utility.yul\":3055:3058   */\n      dup11\n        /* \"#utility.yul\":3051:3065   */\n      add\n        /* \"#utility.yul\":3044:3065   */\n      swap10\n      pop\n        /* \"#utility.yul\":2685:3075   */\n      pop\n        /* \"#utility.yul\":2672:2673   */\n      0x01\n        /* \"#utility.yul\":2669:2670   */\n      dup2\n        /* \"#utility.yul\":2665:2674   */\n      add\n        /* \"#utility.yul\":2660:2674   */\n      swap1\n      pop\n        /* \"#utility.yul\":2625:3075   */\n      jump(tag_87)\n    tag_89:\n        /* \"#utility.yul\":2629:2643   */\n      pop\n        /* \"#utility.yul\":3091:3095   */\n      dup3\n        /* \"#utility.yul\":3084:3095   */\n      swap8\n      pop\n        /* \"#utility.yul\":3111:3114   */\n      dup8\n        /* \"#utility.yul\":3104:3114   */\n      swap6\n      pop\n        /* \"#utility.yul\":2165:3120   */\n      pop\n      pop\n      pop\n      pop\n      pop\n        /* \"#utility.yul\":1985:3120   */\n      swap3\n      swap2\n      pop\n      pop\n      jump\t// out\n        /* \"#utility.yul\":3126:3470   */\n    tag_93:\n        /* \"#utility.yul\":3204:3207   */\n      0x00\n        /* \"#utility.yul\":3232:3271   */\n      tag_95\n        /* \"#utility.yul\":3265:3270   */\n      dup3\n        /* \"#utility.yul\":3232:3271   */\n      tag_96\n      jump\t// in\n    tag_95:\n        /* \"#utility.yul\":3287:3348   */\n      tag_97\n        /* \"#utility.yul\":3341:3347   */\n      dup2\n        /* \"#utility.yul\":3336:3339   */\n      dup6\n        /* \"#utility.yul\":3287:3348   */\n      tag_98\n      jump\t// in\n    tag_97:\n        /* \"#utility.yul\":3280:3348   */\n      swap4\n      pop\n        /* \"#utility.yul\":3357:3409   */\n      tag_99\n        /* \"#utility.yul\":3402:3408   */\n      dup2\n        /* \"#utility.yul\":3397:3400   */\n      dup6\n        /* \"#utility.yul\":3390:3394   */\n      0x20\n        /* \"#utility.yul\":3383:3388   */\n      dup7\n        /* \"#utility.yul\":3379:3395   */\n      add\n        /* \"#utility.yul\":3357:3409   */\n      tag_100\n      jump\t// in\n    tag_99:\n        /* \"#utility.yul\":3434:3463   */\n      tag_101\n        /* \"#utility.yul\":3456:3462   */\n      dup2\n        /* \"#utility.yul\":3434:3463   */\n      tag_102\n      jump\t// in\n    tag_101:\n        /* \"#utility.yul\":3429:3432   */\n      dup5\n        /* \"#utility.yul\":3425:3464   */\n      add\n        /* \"#utility.yul\":3418:3464   */\n      swap2\n      pop\n        /* \"#utility.yul\":3208:3470   */\n      pop\n        /* \"#utility.yul\":3126:3470   */\n      swap3\n      swap2\n      pop\n      pop\n      jump\t// out\n        /* \"#utility.yul\":3476:3842   */\n    tag_103:\n        /* \"#utility.yul\":3618:3621   */\n      0x00\n        /* \"#utility.yul\":3639:3706   */\n      tag_105\n        /* \"#utility.yul\":3703:3705   */\n      0x13\n        /* \"#utility.yul\":3698:3701   */\n      dup4\n        /* \"#utility.yul\":3639:3706   */\n      tag_106\n      jump\t// in\n    tag_105:\n        /* \"#utility.yul\":3632:3706   */\n      swap2\n      pop\n        /* \"#utility.yul\":3715:3808   */\n      tag_107\n        /* \"#utility.yul\":3804:3807   */\n      dup3\n        /* \"#utility.yul\":3715:3808   */\n      tag_108\n      jump\t// in\n    tag_107:\n        /* \"#utility.yul\":3833:3835   */\n      0x20\n        /* \"#utility.yul\":3828:3831   */\n      dup3\n        /* \"#utility.yul\":3824:3836   */\n      add\n        /* \"#utility.yul\":3817:3836   */\n      swap1\n      pop\n        /* \"#utility.yul\":3476:3842   */\n      swap2\n      swap1\n      pop\n      jump\t// out\n        /* \"#utility.yul\":3930:4615   */\n    tag_78:\n        /* \"#utility.yul\":4045:4048   */\n      0x00\n        /* \"#utility.yul\":4081:4085   */\n      0x40\n        /* \"#utility.yul\":4076:4079   */\n      dup4\n        /* \"#utility.yul\":4072:4086   */\n      add\n        /* \"#utility.yul\":4177:4181   */\n      0x00\n        /* \"#utility.yul\":4170:4175   */\n      dup4\n        /* \"#utility.yul\":4166:4182   */\n      add\n        /* \"#utility.yul\":4160:4183   */\n      mload\n        /* \"#utility.yul\":4230:4233   */\n      dup5\n        /* \"#utility.yul\":4224:4228   */\n      dup3\n        /* \"#utility.yul\":4220:4234   */\n      sub\n        /* \"#utility.yul\":4213:4217   */\n      0x00\n        /* \"#utility.yul\":4208:4211   */\n      dup7\n        /* \"#utility.yul\":4204:4218   */\n      add\n        /* \"#utility.yul\":4197:4235   */\n      mstore\n        /* \"#utility.yul\":4256:4329   */\n      tag_110\n        /* \"#utility.yul\":4324:4328   */\n      dup3\n        /* \"#utility.yul\":4310:4322   */\n      dup3\n        /* \"#utility.yul\":4256:4329   */\n      tag_93\n      jump\t// in\n    tag_110:\n        /* \"#utility.yul\":4248:4329   */\n      swap2\n      pop\n        /* \"#utility.yul\":4096:4340   */\n      pop\n        /* \"#utility.yul\":4425:4429   */\n      0x20\n        /* \"#utility.yul\":4418:4423   */\n      dup4\n        /* \"#utility.yul\":4414:4430   */\n      add\n        /* \"#utility.yul\":4408:4431   */\n      mload\n        /* \"#utility.yul\":4478:4481   */\n      dup5\n        /* \"#utility.yul\":4472:4476   */\n      dup3\n        /* \"#utility.yul\":4468:4482   */\n      sub\n        /* \"#utility.yul\":4461:4465   */\n      0x20\n        /* \"#utility.yul\":4456:4459   */\n      dup7\n        /* \"#utility.yul\":4452:4466   */\n      add\n        /* \"#utility.yul\":4445:4483   */\n      mstore\n        /* \"#utility.yul\":4504:4577   */\n      tag_111\n        /* \"#utility.yul\":4572:4576   */\n      dup3\n        /* \"#utility.yul\":4558:4570   */\n      dup3\n        /* \"#utility.yul\":4504:4577   */\n      tag_93\n      jump\t// in\n    tag_111:\n        /* \"#utility.yul\":4496:4577   */\n      swap2\n      pop\n        /* \"#utility.yul\":4350:4588   */\n      pop\n        /* \"#utility.yul\":4605:4609   */\n      dup1\n        /* \"#utility.yul\":4598:4609   */\n      swap2\n      pop\n        /* \"#utility.yul\":4050:4615   */\n      pop\n        /* \"#utility.yul\":3930:4615   */\n      swap3\n      swap2\n      pop\n      pop\n      jump\t// out\n        /* \"#utility.yul\":4621:5106   */\n    tag_8:\n        /* \"#utility.yul\":4820:4824   */\n      0x00\n        /* \"#utility.yul\":4858:4860   */\n      0x20\n        /* \"#utility.yul\":4847:4856   */\n      dup3\n        /* \"#utility.yul\":4843:4861   */\n      add\n        /* \"#utility.yul\":4835:4861   */\n      swap1\n      pop\n        /* \"#utility.yul\":4907:4916   */\n      dup2\n        /* \"#utility.yul\":4901:4905   */\n      dup2\n        /* \"#utility.yul\":4897:4917   */\n      sub\n        /* \"#utility.yul\":4893:4894   */\n      0x00\n        /* \"#utility.yul\":4882:4891   */\n      dup4\n        /* \"#utility.yul\":4878:4895   */\n      add\n        /* \"#utility.yul\":4871:4918   */\n      mstore\n        /* \"#utility.yul\":4935:5099   */\n      tag_113\n        /* \"#utility.yul\":5094:5098   */\n      dup2\n        /* \"#utility.yul\":5085:5091   */\n      dup5\n        /* \"#utility.yul\":4935:5099   */\n      tag_79\n      jump\t// in\n    tag_113:\n        /* \"#utility.yul\":4927:5099   */\n      swap1\n      pop\n        /* \"#utility.yul\":4621:5106   */\n      swap3\n      swap2\n      pop\n      pop\n      jump\t// out\n        /* \"#utility.yul\":5112:5531   */\n    tag_31:\n        /* \"#utility.yul\":5278:5282   */\n      0x00\n        /* \"#utility.yul\":5316:5318   */\n      0x20\n        /* \"#utility.yul\":5305:5314   */\n      dup3\n        /* \"#utility.yul\":5301:5319   */\n      add\n        /* \"#utility.yul\":5293:5319   */\n      swap1\n      pop\n        /* \"#utility.yul\":5365:5374   */\n      dup2\n        /* \"#utility.yul\":5359:5363   */\n      dup2\n        /* \"#utility.yul\":5355:5375   */\n      sub\n        /* \"#utility.yul\":5351:5352   */\n      0x00\n        /* \"#utility.yul\":5340:5349   */\n      dup4\n        /* \"#utility.yul\":5336:5353   */\n      add\n        /* \"#utility.yul\":5329:5376   */\n      mstore\n        /* \"#utility.yul\":5393:5524   */\n      tag_115\n        /* \"#utility.yul\":5519:5523   */\n      dup2\n        /* \"#utility.yul\":5393:5524   */\n      tag_103\n      jump\t// in\n    tag_115:\n        /* \"#utility.yul\":5385:5524   */\n      swap1\n      pop\n        /* \"#utility.yul\":5112:5531   */\n      swap2\n      swap1\n      pop\n      jump\t// out\n        /* \"#utility.yul\":5537:5666   */\n    tag_52:\n        /* \"#utility.yul\":5571:5577   */\n      0x00\n        /* \"#utility.yul\":5598:5618   */\n      tag_117\n      tag_118\n      jump\t// in\n    tag_117:\n        /* \"#utility.yul\":5588:5618   */\n      swap1\n      pop\n        /* \"#utility.yul\":5627:5660   */\n      tag_119\n        /* \"#utility.yul\":5655:5659   */\n      dup3\n        /* \"#utility.yul\":5647:5653   */\n      dup3\n        /* \"#utility.yul\":5627:5660   */\n      tag_120\n      jump\t// in\n    tag_119:\n        /* \"#utility.yul\":5537:5666   */\n      swap2\n      swap1\n      pop\n      jump\t// out\n        /* \"#utility.yul\":5672:5747   */\n    tag_118:\n        /* \"#utility.yul\":5705:5711   */\n      0x00\n        /* \"#utility.yul\":5738:5740   */\n      0x40\n        /* \"#utility.yul\":5732:5741   */\n      mload\n        /* \"#utility.yul\":5722:5741   */\n      swap1\n      pop\n        /* \"#utility.yul\":5672:5747   */\n      swap1\n      jump\t// out\n        /* \"#utility.yul\":5753:6061   */\n    tag_51:\n        /* \"#utility.yul\":5815:5819   */\n      0x00\n        /* \"#utility.yul\":5905:5923   */\n      0xffffffffffffffff\n        /* \"#utility.yul\":5897:5903   */\n      dup3\n        /* \"#utility.yul\":5894:5924   */\n      gt\n        /* \"#utility.yul\":5891:5947   */\n      iszero\n      tag_123\n      jumpi\n        /* \"#utility.yul\":5927:5945   */\n      tag_124\n      tag_125\n      jump\t// in\n    tag_124:\n        /* \"#utility.yul\":5891:5947   */\n    tag_123:\n        /* \"#utility.yul\":5965:5994   */\n      tag_126\n        /* \"#utility.yul\":5987:5993   */\n      dup3\n        /* \"#utility.yul\":5965:5994   */\n      tag_102\n      jump\t// in\n    tag_126:\n        /* \"#utility.yul\":5957:5994   */\n      swap1\n      pop\n        /* \"#utility.yul\":6049:6053   */\n      0x20\n        /* \"#utility.yul\":6043:6047   */\n      dup2\n        /* \"#utility.yul\":6039:6054   */\n      add\n        /* \"#utility.yul\":6031:6054   */\n      swap1\n      pop\n        /* \"#utility.yul\":5753:6061   */\n      swap2\n      swap1\n      pop\n      jump\t// out\n        /* \"#utility.yul\":6067:6227   */\n    tag_86:\n        /* \"#utility.yul\":6162:6166   */\n      0x00\n        /* \"#utility.yul\":6185:6188   */\n      dup2\n        /* \"#utility.yul\":6177:6188   */\n      swap1\n      pop\n        /* \"#utility.yul\":6215:6219   */\n      0x20\n        /* \"#utility.yul\":6210:6213   */\n      dup3\n        /* \"#utility.yul\":6206:6220   */\n      add\n        /* \"#utility.yul\":6198:6220   */\n      swap1\n      pop\n        /* \"#utility.yul\":6067:6227   */\n      swap2\n      swap1\n      pop\n      jump\t// out\n        /* \"#utility.yul\":6233:6375   */\n    tag_82:\n        /* \"#utility.yul\":6328:6334   */\n      0x00\n        /* \"#utility.yul\":6362:6367   */\n      dup2\n        /* \"#utility.yul\":6356:6368   */\n      mload\n        /* \"#utility.yul\":6346:6368   */\n      swap1\n      pop\n        /* \"#utility.yul\":6233:6375   */\n      swap2\n      swap1\n      pop\n      jump\t// out\n        /* \"#utility.yul\":6381:6480   */\n    tag_96:\n        /* \"#utility.yul\":6433:6439   */\n      0x00\n        /* \"#utility.yul\":6467:6472   */\n      dup2\n        /* \"#utility.yul\":6461:6473   */\n      mload\n        /* \"#utility.yul\":6451:6473   */\n      swap1\n      pop\n        /* \"#utility.yul\":6381:6480   */\n      swap2\n      swap1\n      pop\n      jump\t// out\n        /* \"#utility.yul\":6486:6627   */\n    tag_92:\n        /* \"#utility.yul\":6584:6588   */\n      0x00\n        /* \"#utility.yul\":6616:6620   */\n      0x20\n        /* \"#utility.yul\":6611:6614   */\n      dup3\n        /* \"#utility.yul\":6607:6621   */\n      add\n        /* \"#utility.yul\":6599:6621   */\n      swap1\n      pop\n        /* \"#utility.yul\":6486:6627   */\n      swap2\n      swap1\n      pop\n      jump\t// out\n        /* \"#utility.yul\":6633:6845   */\n    tag_84:\n        /* \"#utility.yul\":6760:6771   */\n      0x00\n        /* \"#utility.yul\":6794:6800   */\n      dup3\n        /* \"#utility.yul\":6789:6792   */\n      dup3\n        /* \"#utility.yul\":6782:6801   */\n      mstore\n        /* \"#utility.yul\":6834:6838   */\n      0x20\n        /* \"#utility.yul\":6829:6832   */\n      dup3\n        /* \"#utility.yul\":6825:6839   */\n      add\n        /* \"#utility.yul\":6810:6839   */\n      swap1\n      pop\n        /* \"#utility.yul\":6633:6845   */\n      swap3\n      swap2\n      pop\n      pop\n      jump\t// out\n        /* \"#utility.yul\":6851:7010   */\n    tag_98:\n        /* \"#utility.yul\":6925:6936   */\n      0x00\n        /* \"#utility.yul\":6959:6965   */\n      dup3\n        /* \"#utility.yul\":6954:6957   */\n      dup3\n        /* \"#utility.yul\":6947:6966   */\n      mstore\n        /* \"#utility.yul\":6999:7003   */\n      0x20\n        /* \"#utility.yul\":6994:6997   */\n      dup3\n        /* \"#utility.yul\":6990:7004   */\n      add\n        /* \"#utility.yul\":6975:7004   */\n      swap1\n      pop\n        /* \"#utility.yul\":6851:7010   */\n      swap3\n      swap2\n      pop\n      pop\n      jump\t// out\n        /* \"#utility.yul\":7016:7185   */\n    tag_106:\n        /* \"#utility.yul\":7100:7111   */\n      0x00\n        /* \"#utility.yul\":7134:7140   */\n      dup3\n        /* \"#utility.yul\":7129:7132   */\n      dup3\n        /* \"#utility.yul\":7122:7141   */\n      mstore\n        /* \"#utility.yul\":7174:7178   */\n      0x20\n        /* \"#utility.yul\":7169:7172   */\n      dup3\n        /* \"#utility.yul\":7165:7179   */\n      add\n        /* \"#utility.yul\":7150:7179   */\n      swap1\n      pop\n        /* \"#utility.yul\":7016:7185   */\n      swap3\n      swap2\n      pop\n      pop\n      jump\t// out\n        /* \"#utility.yul\":7191:7345   */\n    tag_57:\n        /* \"#utility.yul\":7275:7281   */\n      dup3\n        /* \"#utility.yul\":7270:7273   */\n      dup2\n        /* \"#utility.yul\":7265:7268   */\n      dup4\n        /* \"#utility.yul\":7252:7282   */\n      calldatacopy\n        /* \"#utility.yul\":7337:7338   */\n      0x00\n        /* \"#utility.yul\":7328:7334   */\n      dup4\n        /* \"#utility.yul\":7323:7326   */\n      dup4\n        /* \"#utility.yul\":7319:7335   */\n      add\n        /* \"#utility.yul\":7312:7339   */\n      mstore\n        /* \"#utility.yul\":7191:7345   */\n      pop\n      pop\n      pop\n      jump\t// out\n        /* \"#utility.yul\":7351:7658   */\n    tag_100:\n        /* \"#utility.yul\":7419:7420   */\n      0x00\n        /* \"#utility.yul\":7429:7542   */\n    tag_136:\n        /* \"#utility.yul\":7443:7449   */\n      dup4\n        /* \"#utility.yul\":7440:7441   */\n      dup2\n        /* \"#utility.yul\":7437:7450   */\n      lt\n        /* \"#utility.yul\":7429:7542   */\n      iszero\n      tag_138\n      jumpi\n        /* \"#utility.yul\":7528:7529   */\n      dup1\n        /* \"#utility.yul\":7523:7526   */\n      dup3\n        /* \"#utility.yul\":7519:7530   */\n      add\n        /* \"#utility.yul\":7513:7531   */\n      mload\n        /* \"#utility.yul\":7509:7510   */\n      dup2\n        /* \"#utility.yul\":7504:7507   */\n      dup5\n        /* \"#utility.yul\":7500:7511   */\n      add\n        /* \"#utility.yul\":7493:7532   */\n      mstore\n        /* \"#utility.yul\":7465:7467   */\n      0x20\n        /* \"#utility.yul\":7462:7463   */\n      dup2\n        /* \"#utility.yul\":7458:7468   */\n      add\n        /* \"#utility.yul\":7453:7468   */\n      swap1\n      pop\n        /* \"#utility.yul\":7429:7542   */\n      jump(tag_136)\n    tag_138:\n        /* \"#utility.yul\":7560:7566   */\n      dup4\n        /* \"#utility.yul\":7557:7558   */\n      dup2\n        /* \"#utility.yul\":7554:7567   */\n      gt\n        /* \"#utility.yul\":7551:7652   */\n      iszero\n      tag_139\n      jumpi\n        /* \"#utility.yul\":7640:7641   */\n      0x00\n        /* \"#utility.yul\":7631:7637   */\n      dup5\n        /* \"#utility.yul\":7626:7629   */\n      dup5\n        /* \"#utility.yul\":7622:7638   */\n      add\n        /* \"#utility.yul\":7615:7642   */\n      mstore\n        /* \"#utility.yul\":7551:7652   */\n    tag_139:\n        /* \"#utility.yul\":7400:7658   */\n      pop\n        /* \"#utility.yul\":7351:7658   */\n      pop\n      pop\n      pop\n      jump\t// out\n        /* \"#utility.yul\":7664:7984   */\n    tag_18:\n        /* \"#utility.yul\":7708:7714   */\n      0x00\n        /* \"#utility.yul\":7745:7746   */\n      0x02\n        /* \"#utility.yul\":7739:7743   */\n      dup3\n        /* \"#utility.yul\":7735:7747   */\n      div\n        /* \"#utility.yul\":7725:7747   */\n      swap1\n      pop\n        /* \"#utility.yul\":7792:7793   */\n      0x01\n        /* \"#utility.yul\":7786:7790   */\n      dup3\n        /* \"#utility.yul\":7782:7794   */\n      and\n        /* \"#utility.yul\":7813:7831   */\n      dup1\n        /* \"#utility.yul\":7803:7884   */\n      tag_141\n      jumpi\n        /* \"#utility.yul\":7869:7873   */\n      0x7f\n        /* \"#utility.yul\":7861:7867   */\n      dup3\n        /* \"#utility.yul\":7857:7874   */\n      and\n        /* \"#utility.yul\":7847:7874   */\n      swap2\n      pop\n        /* \"#utility.yul\":7803:7884   */\n    tag_141:\n        /* \"#utility.yul\":7931:7933   */\n      0x20\n        /* \"#utility.yul\":7923:7929   */\n      dup3\n        /* \"#utility.yul\":7920:7934   */\n      lt\n        /* \"#utility.yul\":7900:7918   */\n      dup2\n        /* \"#utility.yul\":7897:7935   */\n      eq\n        /* \"#utility.yul\":7894:7978   */\n      iszero\n      tag_142\n      jumpi\n        /* \"#utility.yul\":7950:7968   */\n      tag_143\n      tag_144\n      jump\t// in\n    tag_143:\n        /* \"#utility.yul\":7894:7978   */\n    tag_142:\n        /* \"#utility.yul\":7715:7984   */\n      pop\n        /* \"#utility.yul\":7664:7984   */\n      swap2\n      swap1\n      pop\n      jump\t// out\n        /* \"#utility.yul\":7990:8271   */\n    tag_120:\n        /* \"#utility.yul\":8073:8100   */\n      tag_146\n        /* \"#utility.yul\":8095:8099   */\n      dup3\n        /* \"#utility.yul\":8073:8100   */\n      tag_102\n      jump\t// in\n    tag_146:\n        /* \"#utility.yul\":8065:8071   */\n      dup2\n        /* \"#utility.yul\":8061:8101   */\n      add\n        /* \"#utility.yul\":8203:8209   */\n      dup2\n        /* \"#utility.yul\":8191:8201   */\n      dup2\n        /* \"#utility.yul\":8188:8210   */\n      lt\n        /* \"#utility.yul\":8167:8185   */\n      0xffffffffffffffff\n        /* \"#utility.yul\":8155:8165   */\n      dup3\n        /* \"#utility.yul\":8152:8186   */\n      gt\n        /* \"#utility.yul\":8149:8211   */\n      or\n        /* \"#utility.yul\":8146:8234   */\n      iszero\n      tag_147\n      jumpi\n        /* \"#utility.yul\":8214:8232   */\n      tag_148\n      tag_125\n      jump\t// in\n    tag_148:\n        /* \"#utility.yul\":8146:8234   */\n    tag_147:\n        /* \"#utility.yul\":8254:8264   */\n      dup1\n        /* \"#utility.yul\":8250:8252   */\n      0x40\n        /* \"#utility.yul\":8243:8265   */\n      mstore\n        /* \"#utility.yul\":8033:8271   */\n      pop\n        /* \"#utility.yul\":7990:8271   */\n      pop\n      pop\n      jump\t// out\n        /* \"#utility.yul\":8277:8457   */\n    tag_144:\n        /* \"#utility.yul\":8325:8402   */\n      0x4e487b7100000000000000000000000000000000000000000000000000000000\n        /* \"#utility.yul\":8322:8323   */\n      0x00\n        /* \"#utility.yul\":8315:8403   */\n      mstore\n        /* \"#utility.yul\":8422:8426   */\n      0x22\n        /* \"#utility.yul\":8419:8420   */\n      0x04\n        /* \"#utility.yul\":8412:8427   */\n      mstore\n        /* \"#utility.yul\":8446:8450   */\n      0x24\n        /* \"#utility.yul\":8443:8444   */\n      0x00\n        /* \"#utility.yul\":8436:8451   */\n      revert\n        /* \"#utility.yul\":8463:8643   */\n    tag_125:\n        /* \"#utility.yul\":8511:8588   */\n      0x4e487b7100000000000000000000000000000000000000000000000000000000\n        /* \"#utility.yul\":8508:8509   */\n      0x00\n        /* \"#utility.yul\":8501:8589   */\n      mstore\n        /* \"#utility.yul\":8608:8612   */\n      0x41\n        /* \"#utility.yul\":8605:8606   */\n      0x04\n        /* \"#utility.yul\":8598:8613   */\n      mstore\n        /* \"#utility.yul\":8632:8636   */\n      0x24\n        /* \"#utility.yul\":8629:8630   */\n      0x00\n        /* \"#utility.yul\":8622:8637   */\n      revert\n        /* \"#utility.yul\":8649:8766   */\n    tag_62:\n        /* \"#utility.yul\":8758:8759   */\n      0x00\n        /* \"#utility.yul\":8755:8756   */\n      dup1\n        /* \"#utility.yul\":8748:8760   */\n      revert\n        /* \"#utility.yul\":8772:8889   */\n    tag_55:\n        /* \"#utility.yul\":8881:8882   */\n      0x00\n        /* \"#utility.yul\":8878:8879   */\n      dup1\n        /* \"#utility.yul\":8871:8883   */\n      revert\n        /* \"#utility.yul\":8895:9012   */\n    tag_70:\n        /* \"#utility.yul\":9004:9005   */\n      0x00\n        /* \"#utility.yul\":9001:9002   */\n      dup1\n        /* \"#utility.yul\":8994:9006   */\n      revert\n        /* \"#utility.yul\":9018:9135   */\n    tag_67:\n        /* \"#utility.yul\":9127:9128   */\n      0x00\n        /* \"#utility.yul\":9124:9125   */\n      dup1\n        /* \"#utility.yul\":9117:9129   */\n      revert\n        /* \"#utility.yul\":9141:9243   */\n    tag_102:\n        /* \"#utility.yul\":9182:9188   */\n      0x00\n        /* \"#utility.yul\":9233:9235   */\n      0x1f\n        /* \"#utility.yul\":9229:9236   */\n      not\n        /* \"#utility.yul\":9224:9226   */\n      0x1f\n        /* \"#utility.yul\":9217:9222   */\n      dup4\n        /* \"#utility.yul\":9213:9227   */\n      add\n        /* \"#utility.yul\":9209:9237   */\n      and\n        /* \"#utility.yul\":9199:9237   */\n      swap1\n      pop\n        /* \"#utility.yul\":9141:9243   */\n      swap2\n      swap1\n      pop\n      jump\t// out\n        /* \"#utility.yul\":9249:9418   */\n    tag_108:\n        /* \"#utility.yul\":9389:9410   */\n      0x556e617574686f72697a656420506572736f6e00000000000000000000000000\n        /* \"#utility.yul\":9385:9386   */\n      0x00\n        /* \"#utility.yul\":9377:9383   */\n      dup3\n        /* \"#utility.yul\":9373:9387   */\n      add\n        /* \"#utility.yul\":9366:9411   */\n      mstore\n        /* \"#utility.yul\":9249:9418   */\n      pop\n      jump\t// out\n\n    auxdata: 0xa2646970667358221220738297612a3cc3d1e9b48ab509b2ca340a10609cee0875fed1933a8d8dbb200664736f6c63430008070033\n}\n",
				"bytecode": {
					"linkReferences": {},
					"object": "6080604052336000806101000a81548173ffffffffffffffffffffffffffffffffffffffff021916908373ffffffffffffffffffffffffffffffffffffffff16021790555034801561005057600080fd5b5061083f806100606000396000f3fe608060405234801561001057600080fd5b50600436106100365760003560e01c80632e6997fe1461003b578063c1700e0014610059575b600080fd5b610043610075565b60405161005091906105ba565b60405180910390f35b610073600480360381019061006e9190610419565b6101f8565b005b60606001805480602002602001604051908101604052809291908181526020016000905b828210156101ef57838290600052602060002090600202016040518060400160405290816000820180546100cc906106fa565b80601f01602080910402602001604051908101604052809291908181526020018280546100f8906106fa565b80156101455780601f1061011a57610100808354040283529160200191610145565b820191906000526020600020905b81548152906001019060200180831161012857829003601f168201915b5050505050815260200160018201805461015e906106fa565b80601f016020809104026020016040519081016040528092919081815260200182805461018a906106fa565b80156101d75780601f106101ac576101008083540402835291602001916101d7565b820191906000526020600020905b8154815290600101906020018083116101ba57829003601f168201915b50505050508152505081526020019060010190610099565b50505050905090565b60008054906101000a900473ffffffffffffffffffffffffffffffffffffffff1673ffffffffffffffffffffffffffffffffffffffff163373ffffffffffffffffffffffffffffffffffffffff1614610286576040517f08c379a000000000000000000000000000000000000000000000000000000000815260040161027d906105dc565b60405180910390fd5b6001604051806040016040528084815260200183815250908060018154018082558091505060019003906000526020600020906002020160009091909190915060008201518160000190805190602001906102e2929190610306565b5060208201518160010190805190602001906102ff929190610306565b5050505050565b828054610312906106fa565b90600052602060002090601f016020900481019282610334576000855561037b565b82601f1061034d57805160ff191683800117855561037b565b8280016001018555821561037b579182015b8281111561037a57825182559160200191906001019061035f565b5b509050610388919061038c565b5090565b5b808211156103a557600081600090555060010161038d565b5090565b60006103bc6103b784610621565b6105fc565b9050828152602081018484840111156103d8576103d76107c0565b5b6103e38482856106b8565b509392505050565b600082601f830112610400576103ff6107bb565b5b81356104108482602086016103a9565b91505092915050565b600080604083850312156104305761042f6107ca565b5b600083013567ffffffffffffffff81111561044e5761044d6107c5565b5b61045a858286016103eb565b925050602083013567ffffffffffffffff81111561047b5761047a6107c5565b5b610487858286016103eb565b9150509250929050565b600061049d8383610576565b905092915050565b60006104b082610662565b6104ba8185610685565b9350836020820285016104cc85610652565b8060005b8581101561050857848403895281516104e98582610491565b94506104f483610678565b925060208a019950506001810190506104d0565b50829750879550505050505092915050565b60006105258261066d565b61052f8185610696565b935061053f8185602086016106c7565b610548816107cf565b840191505092915050565b60006105606013836106a7565b915061056b826107e0565b602082019050919050565b60006040830160008301518482036000860152610593828261051a565b915050602083015184820360208601526105ad828261051a565b9150508091505092915050565b600060208201905081810360008301526105d481846104a5565b905092915050565b600060208201905081810360008301526105f581610553565b9050919050565b6000610606610617565b9050610612828261072c565b919050565b6000604051905090565b600067ffffffffffffffff82111561063c5761063b61078c565b5b610645826107cf565b9050602081019050919050565b6000819050602082019050919050565b600081519050919050565b600081519050919050565b6000602082019050919050565b600082825260208201905092915050565b600082825260208201905092915050565b600082825260208201905092915050565b82818337600083830152505050565b60005b838110156106e55780820151818401526020810190506106ca565b838111156106f4576000848401525b50505050565b6000600282049050600182168061071257607f821691505b602082108114156107265761072561075d565b5b50919050565b610735826107cf565b810181811067ffffffffffffffff821117156107545761075361078c565b5b80604052505050565b7f4e487b7100000000000000000000000000000000000000000000000000000000600052602260045260246000fd5b7f4e487b7100000000000000000000000000000000000000000000000000000000600052604160045260246000fd5b600080fd5b600080fd5b600080fd5b600080fd5b6000601f19601f8301169050919050565b7f556e617574686f72697a656420506572736f6e0000000000000000000000000060008201525056fea2646970667358221220738297612a3cc3d1e9b48ab509b2ca340a10609cee0875fed1933a8d8dbb200664736f6c63430008070033",
					"opcodes": "PUSH1 0x80 PUSH1 0x40 MSTORE CALLER PUSH1 0x0 DUP1 PUSH2 0x100 EXP DUP2 SLOAD DUP2 PUSH20 0xFFFFFFFFFFFFFFFFFFFFFFFFFFFFFFFFFFFFFFFF MUL NOT AND SWAP1 DUP4 PUSH20 0xFFFFFFFFFFFFFFFFFFFFFFFFFFFFFFFFFFFFFFFF AND MUL OR SWAP1 SSTORE POP CALLVALUE DUP1 ISZERO PUSH2 0x50 JUMPI PUSH1 0x0 DUP1 REVERT JUMPDEST POP PUSH2 0x83F DUP1 PUSH2 0x60 PUSH1 0x0 CODECOPY PUSH1 0x0 RETURN INVALID PUSH1 0x80 PUSH1 0x40 MSTORE CALLVALUE DUP1 ISZERO PUSH2 0x10 JUMPI PUSH1 0x0 DUP1 REVERT JUMPDEST POP PUSH1 0x4 CALLDATASIZE LT PUSH2 0x36 JUMPI PUSH1 0x0 CALLDATALOAD PUSH1 0xE0 SHR DUP1 PUSH4 0x2E6997FE EQ PUSH2 0x3B JUMPI DUP1 PUSH4 0xC1700E00 EQ PUSH2 0x59 JUMPI JUMPDEST PUSH1 0x0 DUP1 REVERT JUMPDEST PUSH2 0x43 PUSH2 0x75 JUMP JUMPDEST PUSH1 0x40 MLOAD PUSH2 0x50 SWAP2 SWAP1 PUSH2 0x5BA JUMP JUMPDEST PUSH1 0x40 MLOAD DUP1 SWAP2 SUB SWAP1 RETURN JUMPDEST PUSH2 0x73 PUSH1 0x4 DUP1 CALLDATASIZE SUB DUP2 ADD SWAP1 PUSH2 0x6E SWAP2 SWAP1 PUSH2 0x419 JUMP JUMPDEST PUSH2 0x1F8 JUMP JUMPDEST STOP JUMPDEST PUSH1 0x60 PUSH1 0x1 DUP1 SLOAD DUP1 PUSH1 0x20 MUL PUSH1 0x20 ADD PUSH1 0x40 MLOAD SWAP1 DUP2 ADD PUSH1 0x40 MSTORE DUP1 SWAP3 SWAP2 SWAP1 DUP2 DUP2 MSTORE PUSH1 0x20 ADD PUSH1 0x0 SWAP1 JUMPDEST DUP3 DUP3 LT ISZERO PUSH2 0x1EF JUMPI DUP4 DUP3 SWAP1 PUSH1 0x0 MSTORE PUSH1 0x20 PUSH1 0x0 KECCAK256 SWAP1 PUSH1 0x2 MUL ADD PUSH1 0x40 MLOAD DUP1 PUSH1 0x40 ADD PUSH1 0x40 MSTORE SWAP1 DUP2 PUSH1 0x0 DUP3 ADD DUP1 SLOAD PUSH2 0xCC SWAP1 PUSH2 0x6FA JUMP JUMPDEST DUP1 PUSH1 0x1F ADD PUSH1 0x20 DUP1 SWAP2 DIV MUL PUSH1 0x20 ADD PUSH1 0x40 MLOAD SWAP1 DUP2 ADD PUSH1 0x40 MSTORE DUP1 SWAP3 SWAP2 SWAP1 DUP2 DUP2 MSTORE PUSH1 0x20 ADD DUP3 DUP1 SLOAD PUSH2 0xF8 SWAP1 PUSH2 0x6FA JUMP JUMPDEST DUP1 ISZERO PUSH2 0x145 JUMPI DUP1 PUSH1 0x1F LT PUSH2 0x11A JUMPI PUSH2 0x100 DUP1 DUP4 SLOAD DIV MUL DUP4 MSTORE SWAP2 PUSH1 0x20 ADD SWAP2 PUSH2 0x145 JUMP JUMPDEST DUP3 ADD SWAP2 SWAP1 PUSH1 0x0 MSTORE PUSH1 0x20 PUSH1 0x0 KECCAK256 SWAP1 JUMPDEST DUP2 SLOAD DUP2 MSTORE SWAP1 PUSH1 0x1 ADD SWAP1 PUSH1 0x20 ADD DUP1 DUP4 GT PUSH2 0x128 JUMPI DUP3 SWAP1 SUB PUSH1 0x1F AND DUP3 ADD SWAP2 JUMPDEST POP POP POP POP POP DUP2 MSTORE PUSH1 0x20 ADD PUSH1 0x1 DUP3 ADD DUP1 SLOAD PUSH2 0x15E SWAP1 PUSH2 0x6FA JUMP JUMPDEST DUP1 PUSH1 0x1F ADD PUSH1 0x20 DUP1 SWAP2 DIV MUL PUSH1 0x20 ADD PUSH1 0x40 MLOAD SWAP1 DUP2 ADD PUSH1 0x40 MSTORE DUP1 SWAP3 SWAP2 SWAP1 DUP2 DUP2 MSTORE PUSH1 0x20 ADD DUP3 DUP1 SLOAD PUSH2 0x18A SWAP1 PUSH2 0x6FA JUMP JUMPDEST DUP1 ISZERO PUSH2 0x1D7 JUMPI DUP1 PUSH1 0x1F LT PUSH2 0x1AC JUMPI PUSH2 0x100 DUP1 DUP4 SLOAD DIV MUL DUP4 MSTORE SWAP2 PUSH1 0x20 ADD SWAP2 PUSH2 0x1D7 JUMP JUMPDEST DUP3 ADD SWAP2 SWAP1 PUSH1 0x0 MSTORE PUSH1 0x20 PUSH1 0x0 KECCAK256 SWAP1 JUMPDEST DUP2 SLOAD DUP2 MSTORE SWAP1 PUSH1 0x1 ADD SWAP1 PUSH1 0x20 ADD DUP1 DUP4 GT PUSH2 0x1BA JUMPI DUP3 SWAP1 SUB PUSH1 0x1F AND DUP3 ADD SWAP2 JUMPDEST POP POP POP POP POP DUP2 MSTORE POP POP DUP2 MSTORE PUSH1 0x20 ADD SWAP1 PUSH1 0x1 ADD SWAP1 PUSH2 0x99 JUMP JUMPDEST POP POP POP POP SWAP1 POP SWAP1 JUMP JUMPDEST PUSH1 0x0 DUP1 SLOAD SWAP1 PUSH2 0x100 EXP SWAP1 DIV PUSH20 0xFFFFFFFFFFFFFFFFFFFFFFFFFFFFFFFFFFFFFFFF AND PUSH20 0xFFFFFFFFFFFFFFFFFFFFFFFFFFFFFFFFFFFFFFFF AND CALLER PUSH20 0xFFFFFFFFFFFFFFFFFFFFFFFFFFFFFFFFFFFFFFFF AND EQ PUSH2 0x286 JUMPI PUSH1 0x40 MLOAD PUSH32 0x8C379A000000000000000000000000000000000000000000000000000000000 DUP2 MSTORE PUSH1 0x4 ADD PUSH2 0x27D SWAP1 PUSH2 0x5DC JUMP JUMPDEST PUSH1 0x40 MLOAD DUP1 SWAP2 SUB SWAP1 REVERT JUMPDEST PUSH1 0x1 PUSH1 0x40 MLOAD DUP1 PUSH1 0x40 ADD PUSH1 0x40 MSTORE DUP1 DUP5 DUP2 MSTORE PUSH1 0x20 ADD DUP4 DUP2 MSTORE POP SWAP1 DUP1 PUSH1 0x1 DUP2 SLOAD ADD DUP1 DUP3 SSTORE DUP1 SWAP2 POP POP PUSH1 0x1 SWAP1 SUB SWAP1 PUSH1 0x0 MSTORE PUSH1 0x20 PUSH1 0x0 KECCAK256 SWAP1 PUSH1 0x2 MUL ADD PUSH1 0x0 SWAP1 SWAP2 SWAP1 SWAP2 SWAP1 SWAP2 POP PUSH1 0x0 DUP3 ADD MLOAD DUP2 PUSH1 0x0 ADD SWAP1 DUP1 MLOAD SWAP1 PUSH1 0x20 ADD SWAP1 PUSH2 0x2E2 SWAP3 SWAP2 SWAP1 PUSH2 0x306 JUMP JUMPDEST POP PUSH1 0x20 DUP3 ADD MLOAD DUP2 PUSH1 0x1 ADD SWAP1 DUP1 MLOAD SWAP1 PUSH1 0x20 ADD SWAP1 PUSH2 0x2FF SWAP3 SWAP2 SWAP1 PUSH2 0x306 JUMP JUMPDEST POP POP POP POP POP JUMP JUMPDEST DUP3 DUP1 SLOAD PUSH2 0x312 SWAP1 PUSH2 0x6FA JUMP JUMPDEST SWAP1 PUSH1 0x0 MSTORE PUSH1 0x20 PUSH1 0x0 KECCAK256 SWAP1 PUSH1 0x1F ADD PUSH1 0x20 SWAP1 DIV DUP2 ADD SWAP3 DUP3 PUSH2 0x334 JUMPI PUSH1 0x0 DUP6 SSTORE PUSH2 0x37B JUMP JUMPDEST DUP3 PUSH1 0x1F LT PUSH2 0x34D JUMPI DUP1 MLOAD PUSH1 0xFF NOT AND DUP4 DUP1 ADD OR DUP6 SSTORE PUSH2 0x37B JUMP JUMPDEST DUP3 DUP1 ADD PUSH1 0x1 ADD DUP6 SSTORE DUP3 ISZERO PUSH2 0x37B JUMPI SWAP2 DUP3 ADD JUMPDEST DUP3 DUP2 GT ISZERO PUSH2 0x37A JUMPI DUP3 MLOAD DUP3 SSTORE SWAP2 PUSH1 0x20 ADD SWAP2 SWAP1 PUSH1 0x1 ADD SWAP1 PUSH2 0x35F JUMP JUMPDEST JUMPDEST POP SWAP1 POP PUSH2 0x388 SWAP2 SWAP1 PUSH2 0x38C JUMP JUMPDEST POP SWAP1 JUMP JUMPDEST JUMPDEST DUP1 DUP3 GT ISZERO PUSH2 0x3A5 JUMPI PUSH1 0x0 DUP2 PUSH1 0x0 SWAP1 SSTORE POP PUSH1 0x1 ADD PUSH2 0x38D JUMP JUMPDEST POP SWAP1 JUMP JUMPDEST PUSH1 0x0 PUSH2 0x3BC PUSH2 0x3B7 DUP5 PUSH2 0x621 JUMP JUMPDEST PUSH2 0x5FC JUMP JUMPDEST SWAP1 POP DUP3 DUP2 MSTORE PUSH1 0x20 DUP2 ADD DUP5 DUP5 DUP5 ADD GT ISZERO PUSH2 0x3D8 JUMPI PUSH2 0x3D7 PUSH2 0x7C0 JUMP JUMPDEST JUMPDEST PUSH2 0x3E3 DUP5 DUP3 DUP6 PUSH2 0x6B8 JUMP JUMPDEST POP SWAP4 SWAP3 POP POP POP JUMP JUMPDEST PUSH1 0x0 DUP3 PUSH1 0x1F DUP4 ADD SLT PUSH2 0x400 JUMPI PUSH2 0x3FF PUSH2 0x7BB JUMP JUMPDEST JUMPDEST DUP2 CALLDATALOAD PUSH2 0x410 DUP5 DUP3 PUSH1 0x20 DUP7 ADD PUSH2 0x3A9 JUMP JUMPDEST SWAP2 POP POP SWAP3 SWAP2 POP POP JUMP JUMPDEST PUSH1 0x0 DUP1 PUSH1 0x40 DUP4 DUP6 SUB SLT ISZERO PUSH2 0x430 JUMPI PUSH2 0x42F PUSH2 0x7CA JUMP JUMPDEST JUMPDEST PUSH1 0x0 DUP4 ADD CALLDATALOAD PUSH8 0xFFFFFFFFFFFFFFFF DUP2 GT ISZERO PUSH2 0x44E JUMPI PUSH2 0x44D PUSH2 0x7C5 JUMP JUMPDEST JUMPDEST PUSH2 0x45A DUP6 DUP3 DUP7 ADD PUSH2 0x3EB JUMP JUMPDEST SWAP3 POP POP PUSH1 0x20 DUP4 ADD CALLDATALOAD PUSH8 0xFFFFFFFFFFFFFFFF DUP2 GT ISZERO PUSH2 0x47B JUMPI PUSH2 0x47A PUSH2 0x7C5 JUMP JUMPDEST JUMPDEST PUSH2 0x487 DUP6 DUP3 DUP7 ADD PUSH2 0x3EB JUMP JUMPDEST SWAP2 POP POP SWAP3 POP SWAP3 SWAP1 POP JUMP JUMPDEST PUSH1 0x0 PUSH2 0x49D DUP4 DUP4 PUSH2 0x576 JUMP JUMPDEST SWAP1 POP SWAP3 SWAP2 POP POP JUMP JUMPDEST PUSH1 0x0 PUSH2 0x4B0 DUP3 PUSH2 0x662 JUMP JUMPDEST PUSH2 0x4BA DUP2 DUP6 PUSH2 0x685 JUMP JUMPDEST SWAP4 POP DUP4 PUSH1 0x20 DUP3 MUL DUP6 ADD PUSH2 0x4CC DUP6 PUSH2 0x652 JUMP JUMPDEST DUP1 PUSH1 0x0 JUMPDEST DUP6 DUP2 LT ISZERO PUSH2 0x508 JUMPI DUP5 DUP5 SUB DUP10 MSTORE DUP2 MLOAD PUSH2 0x4E9 DUP6 DUP3 PUSH2 0x491 JUMP JUMPDEST SWAP5 POP PUSH2 0x4F4 DUP4 PUSH2 0x678 JUMP JUMPDEST SWAP3 POP PUSH1 0x20 DUP11 ADD SWAP10 POP POP PUSH1 0x1 DUP2 ADD SWAP1 POP PUSH2 0x4D0 JUMP JUMPDEST POP DUP3 SWAP8 POP DUP8 SWAP6 POP POP POP POP POP POP SWAP3 SWAP2 POP POP JUMP JUMPDEST PUSH1 0x0 PUSH2 0x525 DUP3 PUSH2 0x66D JUMP JUMPDEST PUSH2 0x52F DUP2 DUP6 PUSH2 0x696 JUMP JUMPDEST SWAP4 POP PUSH2 0x53F DUP2 DUP6 PUSH1 0x20 DUP7 ADD PUSH2 0x6C7 JUMP JUMPDEST PUSH2 0x548 DUP2 PUSH2 0x7CF JUMP JUMPDEST DUP5 ADD SWAP2 POP POP SWAP3 SWAP2 POP POP JUMP JUMPDEST PUSH1 0x0 PUSH2 0x560 PUSH1 0x13 DUP4 PUSH2 0x6A7 JUMP JUMPDEST SWAP2 POP PUSH2 0x56B DUP3 PUSH2 0x7E0 JUMP JUMPDEST PUSH1 0x20 DUP3 ADD SWAP1 POP SWAP2 SWAP1 POP JUMP JUMPDEST PUSH1 0x0 PUSH1 0x40 DUP4 ADD PUSH1 0x0 DUP4 ADD MLOAD DUP5 DUP3 SUB PUSH1 0x0 DUP7 ADD MSTORE PUSH2 0x593 DUP3 DUP3 PUSH2 0x51A JUMP JUMPDEST SWAP2 POP POP PUSH1 0x20 DUP4 ADD MLOAD DUP5 DUP3 SUB PUSH1 0x20 DUP7 ADD MSTORE PUSH2 0x5AD DUP3 DUP3 PUSH2 0x51A JUMP JUMPDEST SWAP2 POP POP DUP1 SWAP2 POP POP SWAP3 SWAP2 POP POP JUMP JUMPDEST PUSH1 0x0 PUSH1 0x20 DUP3 ADD SWAP1 POP DUP2 DUP2 SUB PUSH1 0x0 DUP4 ADD MSTORE PUSH2 0x5D4 DUP2 DUP5 PUSH2 0x4A5 JUMP JUMPDEST SWAP1 POP SWAP3 SWAP2 POP POP JUMP JUMPDEST PUSH1 0x0 PUSH1 0x20 DUP3 ADD SWAP1 POP DUP2 DUP2 SUB PUSH1 0x0 DUP4 ADD MSTORE PUSH2 0x5F5 DUP2 PUSH2 0x553 JUMP JUMPDEST SWAP1 POP SWAP2 SWAP1 POP JUMP JUMPDEST PUSH1 0x0 PUSH2 0x606 PUSH2 0x617 JUMP JUMPDEST SWAP1 POP PUSH2 0x612 DUP3 DUP3 PUSH2 0x72C JUMP JUMPDEST SWAP2 SWAP1 POP JUMP JUMPDEST PUSH1 0x0 PUSH1 0x40 MLOAD SWAP1 POP SWAP1 JUMP JUMPDEST PUSH1 0x0 PUSH8 0xFFFFFFFFFFFFFFFF DUP3 GT ISZERO PUSH2 0x63C JUMPI PUSH2 0x63B PUSH2 0x78C JUMP JUMPDEST JUMPDEST PUSH2 0x645 DUP3 PUSH2 0x7CF JUMP JUMPDEST SWAP1 POP PUSH1 0x20 DUP2 ADD SWAP1 POP SWAP2 SWAP1 POP JUMP JUMPDEST PUSH1 0x0 DUP2 SWAP1 POP PUSH1 0x20 DUP3 ADD SWAP1 POP SWAP2 SWAP1 POP JUMP JUMPDEST PUSH1 0x0 DUP2 MLOAD SWAP1 POP SWAP2 SWAP1 POP JUMP JUMPDEST PUSH1 0x0 DUP2 MLOAD SWAP1 POP SWAP2 SWAP1 POP JUMP JUMPDEST PUSH1 0x0 PUSH1 0x20 DUP3 ADD SWAP1 POP SWAP2 SWAP1 POP JUMP JUMPDEST PUSH1 0x0 DUP3 DUP3 MSTORE PUSH1 0x20 DUP3 ADD SWAP1 POP SWAP3 SWAP2 POP POP JUMP JUMPDEST PUSH1 0x0 DUP3 DUP3 MSTORE PUSH1 0x20 DUP3 ADD SWAP1 POP SWAP3 SWAP2 POP POP JUMP JUMPDEST PUSH1 0x0 DUP3 DUP3 MSTORE PUSH1 0x20 DUP3 ADD SWAP1 POP SWAP3 SWAP2 POP POP JUMP JUMPDEST DUP3 DUP2 DUP4 CALLDATACOPY PUSH1 0x0 DUP4 DUP4 ADD MSTORE POP POP POP JUMP JUMPDEST PUSH1 0x0 JUMPDEST DUP4 DUP2 LT ISZERO PUSH2 0x6E5 JUMPI DUP1 DUP3 ADD MLOAD DUP2 DUP5 ADD MSTORE PUSH1 0x20 DUP2 ADD SWAP1 POP PUSH2 0x6CA JUMP JUMPDEST DUP4 DUP2 GT ISZERO PUSH2 0x6F4 JUMPI PUSH1 0x0 DUP5 DUP5 ADD MSTORE JUMPDEST POP POP POP POP JUMP JUMPDEST PUSH1 0x0 PUSH1 0x2 DUP3 DIV SWAP1 POP PUSH1 0x1 DUP3 AND DUP1 PUSH2 0x712 JUMPI PUSH1 0x7F DUP3 AND SWAP2 POP JUMPDEST PUSH1 0x20 DUP3 LT DUP2 EQ ISZERO PUSH2 0x726 JUMPI PUSH2 0x725 PUSH2 0x75D JUMP JUMPDEST JUMPDEST POP SWAP2 SWAP1 POP JUMP JUMPDEST PUSH2 0x735 DUP3 PUSH2 0x7CF JUMP JUMPDEST DUP2 ADD DUP2 DUP2 LT PUSH8 0xFFFFFFFFFFFFFFFF DUP3 GT OR ISZERO PUSH2 0x754 JUMPI PUSH2 0x753 PUSH2 0x78C JUMP JUMPDEST JUMPDEST DUP1 PUSH1 0x40 MSTORE POP POP POP JUMP JUMPDEST PUSH32 0x4E487B7100000000000000000000000000000000000000000000000000000000 PUSH1 0x0 MSTORE PUSH1 0x22 PUSH1 0x4 MSTORE PUSH1 0x24 PUSH1 0x0 REVERT JUMPDEST PUSH32 0x4E487B7100000000000000000000000000000000000000000000000000000000 PUSH1 0x0 MSTORE PUSH1 0x41 PUSH1 0x4 MSTORE PUSH1 0x24 PUSH1 0x0 REVERT JUMPDEST PUSH1 0x0 DUP1 REVERT JUMPDEST PUSH1 0x0 DUP1 REVERT JUMPDEST PUSH1 0x0 DUP1 REVERT JUMPDEST PUSH1 0x0 DUP1 REVERT JUMPDEST PUSH1 0x0 PUSH1 0x1F NOT PUSH1 0x1F DUP4 ADD AND SWAP1 POP SWAP2 SWAP1 POP JUMP JUMPDEST PUSH32 0x556E617574686F72697A656420506572736F6E00000000000000000000000000 PUSH1 0x0 DUP3 ADD MSTORE POP JUMP INVALID LOG2 PUSH5 0x6970667358 0x22 SLT KECCAK256 PUSH20 0x8297612A3CC3D1E9B48AB509B2CA340A10609CEE ADDMOD PUSH22 0xFED1933A8D8DBB200664736F6C634300080700330000 "
				},
				"gasEstimates": {
					"creation": {
						"codeDepositCost": "422200",
						"executionCost": "24721",
						"totalCost": "446921"
					},
					"external": {
						"getAllCandidates()": "infinite",
						"registerCandidates(string,string)": "infinite"
					}
				},
				"methodIdentifiers": {
					"getAllCandidates()": "2e6997fe",
					"registerCandidates(string,string)": "c1700e00"
				}
			},
			"storageLayout": {
				"storage": [
					{
						"astId": 10,
						"contract": "contracts/votingSystem.sol:VotingContract",
						"label": "electionOfficer",
						"offset": 0,
						"slot": "0",
						"type": "t_address"
					},
					{
						"astId": 14,
						"contract": "contracts/votingSystem.sol:VotingContract",
						"label": "candidateList",
						"offset": 0,
						"slot": "1",
						"type": "t_array(t_struct(candidateInfo)6_storage)dyn_storage"
					}
				],
				"types": {
					"t_address": {
						"encoding": "inplace",
						"label": "address",
						"numberOfBytes": "20"
					},
					"t_array(t_struct(candidateInfo)6_storage)dyn_storage": {
						"base": "t_struct(candidateInfo)6_storage",
						"encoding": "dynamic_array",
						"label": "struct VotingContract.candidateInfo[]",
						"numberOfBytes": "32"
					},
					"t_string_storage": {
						"encoding": "bytes",
						"label": "string",
						"numberOfBytes": "32"
					},
					"t_struct(candidateInfo)6_storage": {
						"encoding": "inplace",
						"label": "struct VotingContract.candidateInfo",
						"members": [
							{
								"astId": 3,
								"contract": "contracts/votingSystem.sol:VotingContract",
								"label": "candidateName",
								"offset": 0,
								"slot": "0",
								"type": "t_string_storage"
							},
							{
								"astId": 5,
								"contract": "contracts/votingSystem.sol:VotingContract",
								"label": "symbols",
								"offset": 0,
								"slot": "1",
								"type": "t_string_storage"
							}
						],
						"numberOfBytes": "64"
					}
				}
			},
			"userdoc": {
				"kind": "user",
				"methods": {},
				"version": 1
			}
		}
	}
}