{
	"contracts/voting.sol": {
		"VotingContract": {
			"abi": [
				{
					"inputs": [],
					"stateMutability": "nonpayable",
					"type": "constructor"
				},
				{
					"inputs": [
						{
							"internalType": "string",
							"name": "name",
							"type": "string"
						},
						{
							"internalType": "string",
							"name": "symbol",
							"type": "string"
						}
					],
					"name": "registrationForCandidate",
					"outputs": [],
					"stateMutability": "nonpayable",
					"type": "function"
				},
				{
					"inputs": [],
					"name": "startVote",
					"outputs": [],
					"stateMutability": "nonpayable",
					"type": "function"
				},
				{
					"inputs": [
						{
							"internalType": "string",
							"name": "symbol",
							"type": "string"
						}
					],
					"name": "voteCountStatus",
					"outputs": [
						{
							"components": [
								{
									"internalType": "string",
									"name": "name",
									"type": "string"
								},
								{
									"internalType": "uint256",
									"name": "voteCount",
									"type": "uint256"
								}
							],
							"internalType": "struct VotingContract.candidate",
							"name": "",
							"type": "tuple"
						}
					],
					"stateMutability": "view",
					"type": "function"
				}
			],
			"devdoc": {
				"kind": "dev",
				"methods": {},
				"version": 1
			},
			"evm": {
				"assembly": "    /* \"contracts/voting.sol\":59:1599  contract VotingContract{\r... */\n  mstore(0x40, 0x80)\n    /* \"contracts/voting.sol\":225:230  false */\n  0x00\n    /* \"contracts/voting.sol\":206:230  bool voteStarted = false */\n  0x01\n  exp(0x0100, 0x14)\n  dup2\n  sload\n  dup2\n  0xff\n  mul\n  not\n  and\n  swap1\n  dup4\n  iszero\n  iszero\n  mul\n  or\n  swap1\n  sstore\n  pop\n    /* \"contracts/voting.sol\":469:532  constructor(){\r... */\n  callvalue\n  dup1\n  iszero\n  tag_1\n  jumpi\n  0x00\n  dup1\n  revert\ntag_1:\n  pop\n    /* \"contracts/voting.sol\":514:524  msg.sender */\n  caller\n    /* \"contracts/voting.sol\":493:511  electionCommission */\n  0x01\n  0x00\n    /* \"contracts/voting.sol\":493:524  electionCommission = msg.sender */\n  0x0100\n  exp\n  dup2\n  sload\n  dup2\n  0xffffffffffffffffffffffffffffffffffffffff\n  mul\n  not\n  and\n  swap1\n  dup4\n  0xffffffffffffffffffffffffffffffffffffffff\n  and\n  mul\n  or\n  swap1\n  sstore\n  pop\n    /* \"contracts/voting.sol\":59:1599  contract VotingContract{\r... */\n  dataSize(sub_0)\n  dup1\n  dataOffset(sub_0)\n  0x00\n  codecopy\n  0x00\n  return\nstop\n\nsub_0: assembly {\n        /* \"contracts/voting.sol\":59:1599  contract VotingContract{\r... */\n      mstore(0x40, 0x80)\n      callvalue\n      dup1\n      iszero\n      tag_1\n      jumpi\n      0x00\n      dup1\n      revert\n    tag_1:\n      pop\n      jumpi(tag_2, lt(calldatasize, 0x04))\n      shr(0xe0, calldataload(0x00))\n      dup1\n      0x137967a6\n      eq\n      tag_3\n      jumpi\n      dup1\n      0x196b2e24\n      eq\n      tag_4\n      jumpi\n      dup1\n      0x4c0a6af0\n      eq\n      tag_5\n      jumpi\n    tag_2:\n      0x00\n      dup1\n      revert\n        /* \"contracts/voting.sol\":853:1232  function registrationForCandidate  (string memory name, string memory symbol)public onlyElectionComission votingStarted\r... */\n    tag_3:\n      tag_6\n      0x04\n      dup1\n      calldatasize\n      sub\n      dup2\n      add\n      swap1\n      tag_7\n      swap2\n      swap1\n      tag_8\n      jump\t// in\n    tag_7:\n      tag_9\n      jump\t// in\n    tag_6:\n      stop\n        /* \"contracts/voting.sol\":1453:1583  function voteCountStatus(string memory symbol) public view returns(candidate memory){\r... */\n    tag_4:\n      tag_10\n      0x04\n      dup1\n      calldatasize\n      sub\n      dup2\n      add\n      swap1\n      tag_11\n      swap2\n      swap1\n      tag_12\n      jump\t// in\n    tag_11:\n      tag_13\n      jump\t// in\n    tag_10:\n      mload(0x40)\n      tag_14\n      swap2\n      swap1\n      tag_15\n      jump\t// in\n    tag_14:\n      mload(0x40)\n      dup1\n      swap2\n      sub\n      swap1\n      return\n        /* \"contracts/voting.sol\":1262:1444  function startVote() public onlyElectionComission votingStarted{\r... */\n    tag_5:\n      tag_16\n      tag_17\n      jump\t// in\n    tag_16:\n      stop\n        /* \"contracts/voting.sol\":853:1232  function registrationForCandidate  (string memory name, string memory symbol)public onlyElectionComission votingStarted\r... */\n    tag_9:\n        /* \"contracts/voting.sol\":628:646  electionCommission */\n      0x01\n      0x00\n      swap1\n      sload\n      swap1\n      0x0100\n      exp\n      swap1\n      div\n      0xffffffffffffffffffffffffffffffffffffffff\n      and\n        /* \"contracts/voting.sol\":616:646  msg.sender==electionCommission */\n      0xffffffffffffffffffffffffffffffffffffffff\n      and\n        /* \"contracts/voting.sol\":616:626  msg.sender */\n      caller\n        /* \"contracts/voting.sol\":616:646  msg.sender==electionCommission */\n      0xffffffffffffffffffffffffffffffffffffffff\n      and\n      eq\n        /* \"contracts/voting.sol\":608:670  require(msg.sender==electionCommission,\"Unauthorized Access.\") */\n      tag_19\n      jumpi\n      mload(0x40)\n      0x08c379a000000000000000000000000000000000000000000000000000000000\n      dup2\n      mstore\n      0x04\n      add\n      tag_20\n      swap1\n      tag_21\n      jump\t// in\n    tag_20:\n      mload(0x40)\n      dup1\n      swap2\n      sub\n      swap1\n      revert\n    tag_19:\n        /* \"contracts/voting.sol\":774:778  true */\n      0x01\n        /* \"contracts/voting.sol\":761:778  voteStarted==true */\n      iszero\n      iszero\n        /* \"contracts/voting.sol\":761:772  voteStarted */\n      0x01\n      0x14\n      swap1\n      sload\n      swap1\n      0x0100\n      exp\n      swap1\n      div\n      0xff\n      and\n        /* \"contracts/voting.sol\":761:778  voteStarted==true */\n      iszero\n      iszero\n      eq\n        /* \"contracts/voting.sol\":753:798  require(voteStarted==true,\"Already Started.\") */\n      tag_23\n      jumpi\n      mload(0x40)\n      0x08c379a000000000000000000000000000000000000000000000000000000000\n      dup2\n      mstore\n      0x04\n      add\n      tag_24\n      swap1\n      tag_25\n      jump\t// in\n    tag_24:\n      mload(0x40)\n      dup1\n      swap2\n      sub\n      swap1\n      revert\n    tag_23:\n        /* \"contracts/voting.sol\":1018:1019  0 */\n      0x00\n        /* \"contracts/voting.sol\":1004:1008  name */\n      dup3\n        /* \"contracts/voting.sol\":998:1016  bytes(name).length */\n      mload\n        /* \"contracts/voting.sol\":998:1019  bytes(name).length!=0 */\n      eq\n      iszero\n        /* \"contracts/voting.sol\":990:1042  require(bytes(name).length!=0,\"Name Can't be empty\") */\n      tag_27\n      jumpi\n      mload(0x40)\n      0x08c379a000000000000000000000000000000000000000000000000000000000\n      dup2\n      mstore\n      0x04\n      add\n      tag_28\n      swap1\n      tag_29\n      jump\t// in\n    tag_28:\n      mload(0x40)\n      dup1\n      swap2\n      sub\n      swap1\n      revert\n    tag_27:\n        /* \"contracts/voting.sol\":1083:1084  0 */\n      0x00\n        /* \"contracts/voting.sol\":1067:1073  symbol */\n      dup2\n        /* \"contracts/voting.sol\":1061:1081  bytes(symbol).length */\n      mload\n        /* \"contracts/voting.sol\":1061:1084  bytes(symbol).length!=0 */\n      eq\n      iszero\n        /* \"contracts/voting.sol\":1053:1109  require(bytes(symbol).length!=0,\"Symbol can't be empty\") */\n      tag_30\n      jumpi\n      mload(0x40)\n      0x08c379a000000000000000000000000000000000000000000000000000000000\n      dup2\n      mstore\n      0x04\n      add\n      tag_31\n      swap1\n      tag_32\n      jump\t// in\n    tag_31:\n      mload(0x40)\n      dup1\n      swap2\n      sub\n      swap1\n      revert\n    tag_30:\n        /* \"contracts/voting.sol\":1120:1130  symbolList */\n      0x02\n        /* \"contracts/voting.sol\":1136:1142  symbol */\n      dup2\n        /* \"contracts/voting.sol\":1120:1143  symbolList.push(symbol) */\n      swap1\n      dup1\n      0x01\n      dup2\n      sload\n      add\n      dup1\n      dup3\n      sstore\n      dup1\n      swap2\n      pop\n      pop\n      0x01\n      swap1\n      sub\n      swap1\n      0x00\n      mstore\n      keccak256(0x00, 0x20)\n      add\n      0x00\n      swap1\n      swap2\n      swap1\n      swap2\n      swap1\n      swap2\n      pop\n      swap1\n      dup1\n      mload\n      swap1\n      0x20\n      add\n      swap1\n      tag_34\n      swap3\n      swap2\n      swap1\n      tag_35\n      jump\t// in\n    tag_34:\n      pop\n        /* \"contracts/voting.sol\":1178:1182  name */\n      dup2\n        /* \"contracts/voting.sol\":1154:1164  Candidates */\n      0x03\n        /* \"contracts/voting.sol\":1165:1171  symbol */\n      dup3\n        /* \"contracts/voting.sol\":1154:1172  Candidates[symbol] */\n      mload(0x40)\n      tag_36\n      swap2\n      swap1\n      tag_37\n      jump\t// in\n    tag_36:\n      swap1\n      dup2\n      mstore\n      0x20\n      add\n      mload(0x40)\n      dup1\n      swap2\n      sub\n      swap1\n      keccak256\n        /* \"contracts/voting.sol\":1154:1177  Candidates[symbol].name */\n      0x00\n      add\n        /* \"contracts/voting.sol\":1154:1182  Candidates[symbol].name=name */\n      swap1\n      dup1\n      mload\n      swap1\n      0x20\n      add\n      swap1\n      tag_38\n      swap3\n      swap2\n      swap1\n      tag_35\n      jump\t// in\n    tag_38:\n      pop\n        /* \"contracts/voting.sol\":1222:1223  0 */\n      0x00\n        /* \"contracts/voting.sol\":1193:1203  Candidates */\n      0x03\n        /* \"contracts/voting.sol\":1204:1210  symbol */\n      dup3\n        /* \"contracts/voting.sol\":1193:1211  Candidates[symbol] */\n      mload(0x40)\n      tag_39\n      swap2\n      swap1\n      tag_37\n      jump\t// in\n    tag_39:\n      swap1\n      dup2\n      mstore\n      0x20\n      add\n      mload(0x40)\n      dup1\n      swap2\n      sub\n      swap1\n      keccak256\n        /* \"contracts/voting.sol\":1193:1221  Candidates[symbol].voteCount */\n      0x01\n      add\n        /* \"contracts/voting.sol\":1193:1223  Candidates[symbol].voteCount=0 */\n      dup2\n      swap1\n      sstore\n      pop\n        /* \"contracts/voting.sol\":853:1232  function registrationForCandidate  (string memory name, string memory symbol)public onlyElectionComission votingStarted\r... */\n      pop\n      pop\n      jump\t// out\n        /* \"contracts/voting.sol\":1453:1583  function voteCountStatus(string memory symbol) public view returns(candidate memory){\r... */\n    tag_13:\n        /* \"contracts/voting.sol\":1520:1536  candidate memory */\n      tag_40\n      tag_41\n      jump\t// in\n    tag_40:\n        /* \"contracts/voting.sol\":1556:1566  Candidates */\n      0x03\n        /* \"contracts/voting.sol\":1567:1573  symbol */\n      dup3\n        /* \"contracts/voting.sol\":1556:1574  Candidates[symbol] */\n      mload(0x40)\n      tag_43\n      swap2\n      swap1\n      tag_37\n      jump\t// in\n    tag_43:\n      swap1\n      dup2\n      mstore\n      0x20\n      add\n      mload(0x40)\n      dup1\n      swap2\n      sub\n      swap1\n      keccak256\n        /* \"contracts/voting.sol\":1549:1574  return Candidates[symbol] */\n      mload(0x40)\n      dup1\n      0x40\n      add\n      0x40\n      mstore\n      swap1\n      dup2\n      0x00\n      dup3\n      add\n      dup1\n      sload\n      tag_44\n      swap1\n      tag_45\n      jump\t// in\n    tag_44:\n      dup1\n      0x1f\n      add\n      0x20\n      dup1\n      swap2\n      div\n      mul\n      0x20\n      add\n      mload(0x40)\n      swap1\n      dup2\n      add\n      0x40\n      mstore\n      dup1\n      swap3\n      swap2\n      swap1\n      dup2\n      dup2\n      mstore\n      0x20\n      add\n      dup3\n      dup1\n      sload\n      tag_46\n      swap1\n      tag_45\n      jump\t// in\n    tag_46:\n      dup1\n      iszero\n      tag_47\n      jumpi\n      dup1\n      0x1f\n      lt\n      tag_48\n      jumpi\n      0x0100\n      dup1\n      dup4\n      sload\n      div\n      mul\n      dup4\n      mstore\n      swap2\n      0x20\n      add\n      swap2\n      jump(tag_47)\n    tag_48:\n      dup3\n      add\n      swap2\n      swap1\n      0x00\n      mstore\n      keccak256(0x00, 0x20)\n      swap1\n    tag_49:\n      dup2\n      sload\n      dup2\n      mstore\n      swap1\n      0x01\n      add\n      swap1\n      0x20\n      add\n      dup1\n      dup4\n      gt\n      tag_49\n      jumpi\n      dup3\n      swap1\n      sub\n      0x1f\n      and\n      dup3\n      add\n      swap2\n    tag_47:\n      pop\n      pop\n      pop\n      pop\n      pop\n      dup2\n      mstore\n      0x20\n      add\n      0x01\n      dup3\n      add\n      sload\n      dup2\n      mstore\n      pop\n      pop\n      swap1\n      pop\n        /* \"contracts/voting.sol\":1453:1583  function voteCountStatus(string memory symbol) public view returns(candidate memory){\r... */\n      swap2\n      swap1\n      pop\n      jump\t// out\n        /* \"contracts/voting.sol\":1262:1444  function startVote() public onlyElectionComission votingStarted{\r... */\n    tag_17:\n        /* \"contracts/voting.sol\":628:646  electionCommission */\n      0x01\n      0x00\n      swap1\n      sload\n      swap1\n      0x0100\n      exp\n      swap1\n      div\n      0xffffffffffffffffffffffffffffffffffffffff\n      and\n        /* \"contracts/voting.sol\":616:646  msg.sender==electionCommission */\n      0xffffffffffffffffffffffffffffffffffffffff\n      and\n        /* \"contracts/voting.sol\":616:626  msg.sender */\n      caller\n        /* \"contracts/voting.sol\":616:646  msg.sender==electionCommission */\n      0xffffffffffffffffffffffffffffffffffffffff\n      and\n      eq\n        /* \"contracts/voting.sol\":608:670  require(msg.sender==electionCommission,\"Unauthorized Access.\") */\n      tag_51\n      jumpi\n      mload(0x40)\n      0x08c379a000000000000000000000000000000000000000000000000000000000\n      dup2\n      mstore\n      0x04\n      add\n      tag_52\n      swap1\n      tag_21\n      jump\t// in\n    tag_52:\n      mload(0x40)\n      dup1\n      swap2\n      sub\n      swap1\n      revert\n    tag_51:\n        /* \"contracts/voting.sol\":774:778  true */\n      0x01\n        /* \"contracts/voting.sol\":761:778  voteStarted==true */\n      iszero\n      iszero\n        /* \"contracts/voting.sol\":761:772  voteStarted */\n      0x01\n      0x14\n      swap1\n      sload\n      swap1\n      0x0100\n      exp\n      swap1\n      div\n      0xff\n      and\n        /* \"contracts/voting.sol\":761:778  voteStarted==true */\n      iszero\n      iszero\n      eq\n        /* \"contracts/voting.sol\":753:798  require(voteStarted==true,\"Already Started.\") */\n      tag_54\n      jumpi\n      mload(0x40)\n      0x08c379a000000000000000000000000000000000000000000000000000000000\n      dup2\n      mstore\n      0x04\n      add\n      tag_55\n      swap1\n      tag_25\n      jump\t// in\n    tag_55:\n      mload(0x40)\n      dup1\n      swap2\n      sub\n      swap1\n      revert\n    tag_54:\n        /* \"contracts/voting.sol\":1362:1363  0 */\n      0x00\n        /* \"contracts/voting.sol\":1344:1354  symbolList */\n      0x02\n        /* \"contracts/voting.sol\":1344:1361  symbolList.length */\n      dup1\n      sload\n      swap1\n      pop\n        /* \"contracts/voting.sol\":1344:1363  symbolList.length>0 */\n      gt\n        /* \"contracts/voting.sol\":1336:1406  require(symbolList.length>0,\"Atleast 2 candidate must be registered.\") */\n      tag_57\n      jumpi\n      mload(0x40)\n      0x08c379a000000000000000000000000000000000000000000000000000000000\n      dup2\n      mstore\n      0x04\n      add\n      tag_58\n      swap1\n      tag_59\n      jump\t// in\n    tag_58:\n      mload(0x40)\n      dup1\n      swap2\n      sub\n      swap1\n      revert\n    tag_57:\n        /* \"contracts/voting.sol\":1431:1435  true */\n      0x01\n        /* \"contracts/voting.sol\":1417:1428  voteStarted */\n      dup1\n      0x14\n        /* \"contracts/voting.sol\":1417:1435  voteStarted = true */\n      0x0100\n      exp\n      dup2\n      sload\n      dup2\n      0xff\n      mul\n      not\n      and\n      swap1\n      dup4\n      iszero\n      iszero\n      mul\n      or\n      swap1\n      sstore\n      pop\n        /* \"contracts/voting.sol\":1262:1444  function startVote() public onlyElectionComission votingStarted{\r... */\n      jump\t// out\n    tag_35:\n      dup3\n      dup1\n      sload\n      tag_60\n      swap1\n      tag_45\n      jump\t// in\n    tag_60:\n      swap1\n      0x00\n      mstore\n      keccak256(0x00, 0x20)\n      swap1\n      0x1f\n      add\n      0x20\n      swap1\n      div\n      dup2\n      add\n      swap3\n      dup3\n      tag_62\n      jumpi\n      0x00\n      dup6\n      sstore\n      jump(tag_61)\n    tag_62:\n      dup3\n      0x1f\n      lt\n      tag_63\n      jumpi\n      dup1\n      mload\n      not(0xff)\n      and\n      dup4\n      dup1\n      add\n      or\n      dup6\n      sstore\n      jump(tag_61)\n    tag_63:\n      dup3\n      dup1\n      add\n      0x01\n      add\n      dup6\n      sstore\n      dup3\n      iszero\n      tag_61\n      jumpi\n      swap2\n      dup3\n      add\n    tag_64:\n      dup3\n      dup2\n      gt\n      iszero\n      tag_65\n      jumpi\n      dup3\n      mload\n      dup3\n      sstore\n      swap2\n      0x20\n      add\n      swap2\n      swap1\n      0x01\n      add\n      swap1\n      jump(tag_64)\n    tag_65:\n    tag_61:\n      pop\n      swap1\n      pop\n      tag_66\n      swap2\n      swap1\n      tag_67\n      jump\t// in\n    tag_66:\n      pop\n      swap1\n      jump\t// out\n    tag_41:\n      mload(0x40)\n      dup1\n      0x40\n      add\n      0x40\n      mstore\n      dup1\n      0x60\n      dup2\n      mstore\n      0x20\n      add\n      0x00\n      dup2\n      mstore\n      pop\n      swap1\n      jump\t// out\n    tag_67:\n    tag_68:\n      dup1\n      dup3\n      gt\n      iszero\n      tag_69\n      jumpi\n      0x00\n      dup2\n      0x00\n      swap1\n      sstore\n      pop\n      0x01\n      add\n      jump(tag_68)\n    tag_69:\n      pop\n      swap1\n      jump\t// out\n        /* \"#utility.yul\":7:419   */\n    tag_71:\n        /* \"#utility.yul\":85:90   */\n      0x00\n        /* \"#utility.yul\":110:176   */\n      tag_73\n        /* \"#utility.yul\":126:175   */\n      tag_74\n        /* \"#utility.yul\":168:174   */\n      dup5\n        /* \"#utility.yul\":126:175   */\n      tag_75\n      jump\t// in\n    tag_74:\n        /* \"#utility.yul\":110:176   */\n      tag_76\n      jump\t// in\n    tag_73:\n        /* \"#utility.yul\":101:176   */\n      swap1\n      pop\n        /* \"#utility.yul\":199:205   */\n      dup3\n        /* \"#utility.yul\":192:197   */\n      dup2\n        /* \"#utility.yul\":185:206   */\n      mstore\n        /* \"#utility.yul\":237:241   */\n      0x20\n        /* \"#utility.yul\":230:235   */\n      dup2\n        /* \"#utility.yul\":226:242   */\n      add\n        /* \"#utility.yul\":275:278   */\n      dup5\n        /* \"#utility.yul\":266:272   */\n      dup5\n        /* \"#utility.yul\":261:264   */\n      dup5\n        /* \"#utility.yul\":257:273   */\n      add\n        /* \"#utility.yul\":254:279   */\n      gt\n        /* \"#utility.yul\":251:363   */\n      iszero\n      tag_77\n      jumpi\n        /* \"#utility.yul\":282:361   */\n      tag_78\n      tag_79\n      jump\t// in\n    tag_78:\n        /* \"#utility.yul\":251:363   */\n    tag_77:\n        /* \"#utility.yul\":372:413   */\n      tag_80\n        /* \"#utility.yul\":406:412   */\n      dup5\n        /* \"#utility.yul\":401:404   */\n      dup3\n        /* \"#utility.yul\":396:399   */\n      dup6\n        /* \"#utility.yul\":372:413   */\n      tag_81\n      jump\t// in\n    tag_80:\n        /* \"#utility.yul\":91:419   */\n      pop\n        /* \"#utility.yul\":7:419   */\n      swap4\n      swap3\n      pop\n      pop\n      pop\n      jump\t// out\n        /* \"#utility.yul\":439:779   */\n    tag_82:\n        /* \"#utility.yul\":495:500   */\n      0x00\n        /* \"#utility.yul\":544:547   */\n      dup3\n        /* \"#utility.yul\":537:541   */\n      0x1f\n        /* \"#utility.yul\":529:535   */\n      dup4\n        /* \"#utility.yul\":525:542   */\n      add\n        /* \"#utility.yul\":521:548   */\n      slt\n        /* \"#utility.yul\":511:633   */\n      tag_84\n      jumpi\n        /* \"#utility.yul\":552:631   */\n      tag_85\n      tag_86\n      jump\t// in\n    tag_85:\n        /* \"#utility.yul\":511:633   */\n    tag_84:\n        /* \"#utility.yul\":669:675   */\n      dup2\n        /* \"#utility.yul\":656:676   */\n      calldataload\n        /* \"#utility.yul\":694:773   */\n      tag_87\n        /* \"#utility.yul\":769:772   */\n      dup5\n        /* \"#utility.yul\":761:767   */\n      dup3\n        /* \"#utility.yul\":754:758   */\n      0x20\n        /* \"#utility.yul\":746:752   */\n      dup7\n        /* \"#utility.yul\":742:759   */\n      add\n        /* \"#utility.yul\":694:773   */\n      tag_71\n      jump\t// in\n    tag_87:\n        /* \"#utility.yul\":685:773   */\n      swap2\n      pop\n        /* \"#utility.yul\":501:779   */\n      pop\n        /* \"#utility.yul\":439:779   */\n      swap3\n      swap2\n      pop\n      pop\n      jump\t// out\n        /* \"#utility.yul\":785:1294   */\n    tag_12:\n        /* \"#utility.yul\":854:860   */\n      0x00\n        /* \"#utility.yul\":903:905   */\n      0x20\n        /* \"#utility.yul\":891:900   */\n      dup3\n        /* \"#utility.yul\":882:889   */\n      dup5\n        /* \"#utility.yul\":878:901   */\n      sub\n        /* \"#utility.yul\":874:906   */\n      slt\n        /* \"#utility.yul\":871:990   */\n      iszero\n      tag_89\n      jumpi\n        /* \"#utility.yul\":909:988   */\n      tag_90\n      tag_91\n      jump\t// in\n    tag_90:\n        /* \"#utility.yul\":871:990   */\n    tag_89:\n        /* \"#utility.yul\":1057:1058   */\n      0x00\n        /* \"#utility.yul\":1046:1055   */\n      dup3\n        /* \"#utility.yul\":1042:1059   */\n      add\n        /* \"#utility.yul\":1029:1060   */\n      calldataload\n        /* \"#utility.yul\":1087:1105   */\n      0xffffffffffffffff\n        /* \"#utility.yul\":1079:1085   */\n      dup2\n        /* \"#utility.yul\":1076:1106   */\n      gt\n        /* \"#utility.yul\":1073:1190   */\n      iszero\n      tag_92\n      jumpi\n        /* \"#utility.yul\":1109:1188   */\n      tag_93\n      tag_94\n      jump\t// in\n    tag_93:\n        /* \"#utility.yul\":1073:1190   */\n    tag_92:\n        /* \"#utility.yul\":1214:1277   */\n      tag_95\n        /* \"#utility.yul\":1269:1276   */\n      dup5\n        /* \"#utility.yul\":1260:1266   */\n      dup3\n        /* \"#utility.yul\":1249:1258   */\n      dup6\n        /* \"#utility.yul\":1245:1267   */\n      add\n        /* \"#utility.yul\":1214:1277   */\n      tag_82\n      jump\t// in\n    tag_95:\n        /* \"#utility.yul\":1204:1277   */\n      swap2\n      pop\n        /* \"#utility.yul\":1000:1287   */\n      pop\n        /* \"#utility.yul\":785:1294   */\n      swap3\n      swap2\n      pop\n      pop\n      jump\t// out\n        /* \"#utility.yul\":1300:2134   */\n    tag_8:\n        /* \"#utility.yul\":1388:1394   */\n      0x00\n        /* \"#utility.yul\":1396:1402   */\n      dup1\n        /* \"#utility.yul\":1445:1447   */\n      0x40\n        /* \"#utility.yul\":1433:1442   */\n      dup4\n        /* \"#utility.yul\":1424:1431   */\n      dup6\n        /* \"#utility.yul\":1420:1443   */\n      sub\n        /* \"#utility.yul\":1416:1448   */\n      slt\n        /* \"#utility.yul\":1413:1532   */\n      iszero\n      tag_97\n      jumpi\n        /* \"#utility.yul\":1451:1530   */\n      tag_98\n      tag_91\n      jump\t// in\n    tag_98:\n        /* \"#utility.yul\":1413:1532   */\n    tag_97:\n        /* \"#utility.yul\":1599:1600   */\n      0x00\n        /* \"#utility.yul\":1588:1597   */\n      dup4\n        /* \"#utility.yul\":1584:1601   */\n      add\n        /* \"#utility.yul\":1571:1602   */\n      calldataload\n        /* \"#utility.yul\":1629:1647   */\n      0xffffffffffffffff\n        /* \"#utility.yul\":1621:1627   */\n      dup2\n        /* \"#utility.yul\":1618:1648   */\n      gt\n        /* \"#utility.yul\":1615:1732   */\n      iszero\n      tag_99\n      jumpi\n        /* \"#utility.yul\":1651:1730   */\n      tag_100\n      tag_94\n      jump\t// in\n    tag_100:\n        /* \"#utility.yul\":1615:1732   */\n    tag_99:\n        /* \"#utility.yul\":1756:1819   */\n      tag_101\n        /* \"#utility.yul\":1811:1818   */\n      dup6\n        /* \"#utility.yul\":1802:1808   */\n      dup3\n        /* \"#utility.yul\":1791:1800   */\n      dup7\n        /* \"#utility.yul\":1787:1809   */\n      add\n        /* \"#utility.yul\":1756:1819   */\n      tag_82\n      jump\t// in\n    tag_101:\n        /* \"#utility.yul\":1746:1819   */\n      swap3\n      pop\n        /* \"#utility.yul\":1542:1829   */\n      pop\n        /* \"#utility.yul\":1896:1898   */\n      0x20\n        /* \"#utility.yul\":1885:1894   */\n      dup4\n        /* \"#utility.yul\":1881:1899   */\n      add\n        /* \"#utility.yul\":1868:1900   */\n      calldataload\n        /* \"#utility.yul\":1927:1945   */\n      0xffffffffffffffff\n        /* \"#utility.yul\":1919:1925   */\n      dup2\n        /* \"#utility.yul\":1916:1946   */\n      gt\n        /* \"#utility.yul\":1913:2030   */\n      iszero\n      tag_102\n      jumpi\n        /* \"#utility.yul\":1949:2028   */\n      tag_103\n      tag_94\n      jump\t// in\n    tag_103:\n        /* \"#utility.yul\":1913:2030   */\n    tag_102:\n        /* \"#utility.yul\":2054:2117   */\n      tag_104\n        /* \"#utility.yul\":2109:2116   */\n      dup6\n        /* \"#utility.yul\":2100:2106   */\n      dup3\n        /* \"#utility.yul\":2089:2098   */\n      dup7\n        /* \"#utility.yul\":2085:2107   */\n      add\n        /* \"#utility.yul\":2054:2117   */\n      tag_82\n      jump\t// in\n    tag_104:\n        /* \"#utility.yul\":2044:2117   */\n      swap2\n      pop\n        /* \"#utility.yul\":1839:2127   */\n      pop\n        /* \"#utility.yul\":1300:2134   */\n      swap3\n      pop\n      swap3\n      swap1\n      pop\n      jump\t// out\n        /* \"#utility.yul\":2140:2484   */\n    tag_105:\n        /* \"#utility.yul\":2218:2221   */\n      0x00\n        /* \"#utility.yul\":2246:2285   */\n      tag_107\n        /* \"#utility.yul\":2279:2284   */\n      dup3\n        /* \"#utility.yul\":2246:2285   */\n      tag_108\n      jump\t// in\n    tag_107:\n        /* \"#utility.yul\":2301:2362   */\n      tag_109\n        /* \"#utility.yul\":2355:2361   */\n      dup2\n        /* \"#utility.yul\":2350:2353   */\n      dup6\n        /* \"#utility.yul\":2301:2362   */\n      tag_110\n      jump\t// in\n    tag_109:\n        /* \"#utility.yul\":2294:2362   */\n      swap4\n      pop\n        /* \"#utility.yul\":2371:2423   */\n      tag_111\n        /* \"#utility.yul\":2416:2422   */\n      dup2\n        /* \"#utility.yul\":2411:2414   */\n      dup6\n        /* \"#utility.yul\":2404:2408   */\n      0x20\n        /* \"#utility.yul\":2397:2402   */\n      dup7\n        /* \"#utility.yul\":2393:2409   */\n      add\n        /* \"#utility.yul\":2371:2423   */\n      tag_112\n      jump\t// in\n    tag_111:\n        /* \"#utility.yul\":2448:2477   */\n      tag_113\n        /* \"#utility.yul\":2470:2476   */\n      dup2\n        /* \"#utility.yul\":2448:2477   */\n      tag_114\n      jump\t// in\n    tag_113:\n        /* \"#utility.yul\":2443:2446   */\n      dup5\n        /* \"#utility.yul\":2439:2478   */\n      add\n        /* \"#utility.yul\":2432:2478   */\n      swap2\n      pop\n        /* \"#utility.yul\":2222:2484   */\n      pop\n        /* \"#utility.yul\":2140:2484   */\n      swap3\n      swap2\n      pop\n      pop\n      jump\t// out\n        /* \"#utility.yul\":2490:2867   */\n    tag_115:\n        /* \"#utility.yul\":2596:2599   */\n      0x00\n        /* \"#utility.yul\":2624:2663   */\n      tag_117\n        /* \"#utility.yul\":2657:2662   */\n      dup3\n        /* \"#utility.yul\":2624:2663   */\n      tag_108\n      jump\t// in\n    tag_117:\n        /* \"#utility.yul\":2679:2768   */\n      tag_118\n        /* \"#utility.yul\":2761:2767   */\n      dup2\n        /* \"#utility.yul\":2756:2759   */\n      dup6\n        /* \"#utility.yul\":2679:2768   */\n      tag_119\n      jump\t// in\n    tag_118:\n        /* \"#utility.yul\":2672:2768   */\n      swap4\n      pop\n        /* \"#utility.yul\":2777:2829   */\n      tag_120\n        /* \"#utility.yul\":2822:2828   */\n      dup2\n        /* \"#utility.yul\":2817:2820   */\n      dup6\n        /* \"#utility.yul\":2810:2814   */\n      0x20\n        /* \"#utility.yul\":2803:2808   */\n      dup7\n        /* \"#utility.yul\":2799:2815   */\n      add\n        /* \"#utility.yul\":2777:2829   */\n      tag_112\n      jump\t// in\n    tag_120:\n        /* \"#utility.yul\":2854:2860   */\n      dup1\n        /* \"#utility.yul\":2849:2852   */\n      dup5\n        /* \"#utility.yul\":2845:2861   */\n      add\n        /* \"#utility.yul\":2838:2861   */\n      swap2\n      pop\n        /* \"#utility.yul\":2600:2867   */\n      pop\n        /* \"#utility.yul\":2490:2867   */\n      swap3\n      swap2\n      pop\n      pop\n      jump\t// out\n        /* \"#utility.yul\":2873:3239   */\n    tag_121:\n        /* \"#utility.yul\":3015:3018   */\n      0x00\n        /* \"#utility.yul\":3036:3103   */\n      tag_123\n        /* \"#utility.yul\":3100:3102   */\n      0x14\n        /* \"#utility.yul\":3095:3098   */\n      dup4\n        /* \"#utility.yul\":3036:3103   */\n      tag_124\n      jump\t// in\n    tag_123:\n        /* \"#utility.yul\":3029:3103   */\n      swap2\n      pop\n        /* \"#utility.yul\":3112:3205   */\n      tag_125\n        /* \"#utility.yul\":3201:3204   */\n      dup3\n        /* \"#utility.yul\":3112:3205   */\n      tag_126\n      jump\t// in\n    tag_125:\n        /* \"#utility.yul\":3230:3232   */\n      0x20\n        /* \"#utility.yul\":3225:3228   */\n      dup3\n        /* \"#utility.yul\":3221:3233   */\n      add\n        /* \"#utility.yul\":3214:3233   */\n      swap1\n      pop\n        /* \"#utility.yul\":2873:3239   */\n      swap2\n      swap1\n      pop\n      jump\t// out\n        /* \"#utility.yul\":3245:3611   */\n    tag_127:\n        /* \"#utility.yul\":3387:3390   */\n      0x00\n        /* \"#utility.yul\":3408:3475   */\n      tag_129\n        /* \"#utility.yul\":3472:3474   */\n      0x15\n        /* \"#utility.yul\":3467:3470   */\n      dup4\n        /* \"#utility.yul\":3408:3475   */\n      tag_124\n      jump\t// in\n    tag_129:\n        /* \"#utility.yul\":3401:3475   */\n      swap2\n      pop\n        /* \"#utility.yul\":3484:3577   */\n      tag_130\n        /* \"#utility.yul\":3573:3576   */\n      dup3\n        /* \"#utility.yul\":3484:3577   */\n      tag_131\n      jump\t// in\n    tag_130:\n        /* \"#utility.yul\":3602:3604   */\n      0x20\n        /* \"#utility.yul\":3597:3600   */\n      dup3\n        /* \"#utility.yul\":3593:3605   */\n      add\n        /* \"#utility.yul\":3586:3605   */\n      swap1\n      pop\n        /* \"#utility.yul\":3245:3611   */\n      swap2\n      swap1\n      pop\n      jump\t// out\n        /* \"#utility.yul\":3617:3983   */\n    tag_132:\n        /* \"#utility.yul\":3759:3762   */\n      0x00\n        /* \"#utility.yul\":3780:3847   */\n      tag_134\n        /* \"#utility.yul\":3844:3846   */\n      0x10\n        /* \"#utility.yul\":3839:3842   */\n      dup4\n        /* \"#utility.yul\":3780:3847   */\n      tag_124\n      jump\t// in\n    tag_134:\n        /* \"#utility.yul\":3773:3847   */\n      swap2\n      pop\n        /* \"#utility.yul\":3856:3949   */\n      tag_135\n        /* \"#utility.yul\":3945:3948   */\n      dup3\n        /* \"#utility.yul\":3856:3949   */\n      tag_136\n      jump\t// in\n    tag_135:\n        /* \"#utility.yul\":3974:3976   */\n      0x20\n        /* \"#utility.yul\":3969:3972   */\n      dup3\n        /* \"#utility.yul\":3965:3977   */\n      add\n        /* \"#utility.yul\":3958:3977   */\n      swap1\n      pop\n        /* \"#utility.yul\":3617:3983   */\n      swap2\n      swap1\n      pop\n      jump\t// out\n        /* \"#utility.yul\":3989:4355   */\n    tag_137:\n        /* \"#utility.yul\":4131:4134   */\n      0x00\n        /* \"#utility.yul\":4152:4219   */\n      tag_139\n        /* \"#utility.yul\":4216:4218   */\n      0x27\n        /* \"#utility.yul\":4211:4214   */\n      dup4\n        /* \"#utility.yul\":4152:4219   */\n      tag_124\n      jump\t// in\n    tag_139:\n        /* \"#utility.yul\":4145:4219   */\n      swap2\n      pop\n        /* \"#utility.yul\":4228:4321   */\n      tag_140\n        /* \"#utility.yul\":4317:4320   */\n      dup3\n        /* \"#utility.yul\":4228:4321   */\n      tag_141\n      jump\t// in\n    tag_140:\n        /* \"#utility.yul\":4346:4348   */\n      0x40\n        /* \"#utility.yul\":4341:4344   */\n      dup3\n        /* \"#utility.yul\":4337:4349   */\n      add\n        /* \"#utility.yul\":4330:4349   */\n      swap1\n      pop\n        /* \"#utility.yul\":3989:4355   */\n      swap2\n      swap1\n      pop\n      jump\t// out\n        /* \"#utility.yul\":4361:4727   */\n    tag_142:\n        /* \"#utility.yul\":4503:4506   */\n      0x00\n        /* \"#utility.yul\":4524:4591   */\n      tag_144\n        /* \"#utility.yul\":4588:4590   */\n      0x13\n        /* \"#utility.yul\":4583:4586   */\n      dup4\n        /* \"#utility.yul\":4524:4591   */\n      tag_124\n      jump\t// in\n    tag_144:\n        /* \"#utility.yul\":4517:4591   */\n      swap2\n      pop\n        /* \"#utility.yul\":4600:4693   */\n      tag_145\n        /* \"#utility.yul\":4689:4692   */\n      dup3\n        /* \"#utility.yul\":4600:4693   */\n      tag_146\n      jump\t// in\n    tag_145:\n        /* \"#utility.yul\":4718:4720   */\n      0x20\n        /* \"#utility.yul\":4713:4716   */\n      dup3\n        /* \"#utility.yul\":4709:4721   */\n      add\n        /* \"#utility.yul\":4702:4721   */\n      swap1\n      pop\n        /* \"#utility.yul\":4361:4727   */\n      swap2\n      swap1\n      pop\n      jump\t// out\n        /* \"#utility.yul\":4807:5418   */\n    tag_147:\n        /* \"#utility.yul\":4926:4929   */\n      0x00\n        /* \"#utility.yul\":4962:4966   */\n      0x40\n        /* \"#utility.yul\":4957:4960   */\n      dup4\n        /* \"#utility.yul\":4953:4967   */\n      add\n        /* \"#utility.yul\":5049:5053   */\n      0x00\n        /* \"#utility.yul\":5042:5047   */\n      dup4\n        /* \"#utility.yul\":5038:5054   */\n      add\n        /* \"#utility.yul\":5032:5055   */\n      mload\n        /* \"#utility.yul\":5102:5105   */\n      dup5\n        /* \"#utility.yul\":5096:5100   */\n      dup3\n        /* \"#utility.yul\":5092:5106   */\n      sub\n        /* \"#utility.yul\":5085:5089   */\n      0x00\n        /* \"#utility.yul\":5080:5083   */\n      dup7\n        /* \"#utility.yul\":5076:5090   */\n      add\n        /* \"#utility.yul\":5069:5107   */\n      mstore\n        /* \"#utility.yul\":5128:5201   */\n      tag_149\n        /* \"#utility.yul\":5196:5200   */\n      dup3\n        /* \"#utility.yul\":5182:5194   */\n      dup3\n        /* \"#utility.yul\":5128:5201   */\n      tag_105\n      jump\t// in\n    tag_149:\n        /* \"#utility.yul\":5120:5201   */\n      swap2\n      pop\n        /* \"#utility.yul\":4977:5212   */\n      pop\n        /* \"#utility.yul\":5299:5303   */\n      0x20\n        /* \"#utility.yul\":5292:5297   */\n      dup4\n        /* \"#utility.yul\":5288:5304   */\n      add\n        /* \"#utility.yul\":5282:5305   */\n      mload\n        /* \"#utility.yul\":5318:5381   */\n      tag_150\n        /* \"#utility.yul\":5375:5379   */\n      0x20\n        /* \"#utility.yul\":5370:5373   */\n      dup7\n        /* \"#utility.yul\":5366:5380   */\n      add\n        /* \"#utility.yul\":5352:5364   */\n      dup3\n        /* \"#utility.yul\":5318:5381   */\n      tag_151\n      jump\t// in\n    tag_150:\n        /* \"#utility.yul\":5222:5391   */\n      pop\n        /* \"#utility.yul\":5408:5412   */\n      dup1\n        /* \"#utility.yul\":5401:5412   */\n      swap2\n      pop\n        /* \"#utility.yul\":4931:5418   */\n      pop\n        /* \"#utility.yul\":4807:5418   */\n      swap3\n      swap2\n      pop\n      pop\n      jump\t// out\n        /* \"#utility.yul\":5424:5532   */\n    tag_151:\n        /* \"#utility.yul\":5501:5525   */\n      tag_153\n        /* \"#utility.yul\":5519:5524   */\n      dup2\n        /* \"#utility.yul\":5501:5525   */\n      tag_154\n      jump\t// in\n    tag_153:\n        /* \"#utility.yul\":5496:5499   */\n      dup3\n        /* \"#utility.yul\":5489:5526   */\n      mstore\n        /* \"#utility.yul\":5424:5532   */\n      pop\n      pop\n      jump\t// out\n        /* \"#utility.yul\":5538:5813   */\n    tag_37:\n        /* \"#utility.yul\":5670:5673   */\n      0x00\n        /* \"#utility.yul\":5692:5787   */\n      tag_156\n        /* \"#utility.yul\":5783:5786   */\n      dup3\n        /* \"#utility.yul\":5774:5780   */\n      dup5\n        /* \"#utility.yul\":5692:5787   */\n      tag_115\n      jump\t// in\n    tag_156:\n        /* \"#utility.yul\":5685:5787   */\n      swap2\n      pop\n        /* \"#utility.yul\":5804:5807   */\n      dup2\n        /* \"#utility.yul\":5797:5807   */\n      swap1\n      pop\n        /* \"#utility.yul\":5538:5813   */\n      swap3\n      swap2\n      pop\n      pop\n      jump\t// out\n        /* \"#utility.yul\":5819:6238   */\n    tag_21:\n        /* \"#utility.yul\":5985:5989   */\n      0x00\n        /* \"#utility.yul\":6023:6025   */\n      0x20\n        /* \"#utility.yul\":6012:6021   */\n      dup3\n        /* \"#utility.yul\":6008:6026   */\n      add\n        /* \"#utility.yul\":6000:6026   */\n      swap1\n      pop\n        /* \"#utility.yul\":6072:6081   */\n      dup2\n        /* \"#utility.yul\":6066:6070   */\n      dup2\n        /* \"#utility.yul\":6062:6082   */\n      sub\n        /* \"#utility.yul\":6058:6059   */\n      0x00\n        /* \"#utility.yul\":6047:6056   */\n      dup4\n        /* \"#utility.yul\":6043:6060   */\n      add\n        /* \"#utility.yul\":6036:6083   */\n      mstore\n        /* \"#utility.yul\":6100:6231   */\n      tag_158\n        /* \"#utility.yul\":6226:6230   */\n      dup2\n        /* \"#utility.yul\":6100:6231   */\n      tag_121\n      jump\t// in\n    tag_158:\n        /* \"#utility.yul\":6092:6231   */\n      swap1\n      pop\n        /* \"#utility.yul\":5819:6238   */\n      swap2\n      swap1\n      pop\n      jump\t// out\n        /* \"#utility.yul\":6244:6663   */\n    tag_32:\n        /* \"#utility.yul\":6410:6414   */\n      0x00\n        /* \"#utility.yul\":6448:6450   */\n      0x20\n        /* \"#utility.yul\":6437:6446   */\n      dup3\n        /* \"#utility.yul\":6433:6451   */\n      add\n        /* \"#utility.yul\":6425:6451   */\n      swap1\n      pop\n        /* \"#utility.yul\":6497:6506   */\n      dup2\n        /* \"#utility.yul\":6491:6495   */\n      dup2\n        /* \"#utility.yul\":6487:6507   */\n      sub\n        /* \"#utility.yul\":6483:6484   */\n      0x00\n        /* \"#utility.yul\":6472:6481   */\n      dup4\n        /* \"#utility.yul\":6468:6485   */\n      add\n        /* \"#utility.yul\":6461:6508   */\n      mstore\n        /* \"#utility.yul\":6525:6656   */\n      tag_160\n        /* \"#utility.yul\":6651:6655   */\n      dup2\n        /* \"#utility.yul\":6525:6656   */\n      tag_127\n      jump\t// in\n    tag_160:\n        /* \"#utility.yul\":6517:6656   */\n      swap1\n      pop\n        /* \"#utility.yul\":6244:6663   */\n      swap2\n      swap1\n      pop\n      jump\t// out\n        /* \"#utility.yul\":6669:7088   */\n    tag_25:\n        /* \"#utility.yul\":6835:6839   */\n      0x00\n        /* \"#utility.yul\":6873:6875   */\n      0x20\n        /* \"#utility.yul\":6862:6871   */\n      dup3\n        /* \"#utility.yul\":6858:6876   */\n      add\n        /* \"#utility.yul\":6850:6876   */\n      swap1\n      pop\n        /* \"#utility.yul\":6922:6931   */\n      dup2\n        /* \"#utility.yul\":6916:6920   */\n      dup2\n        /* \"#utility.yul\":6912:6932   */\n      sub\n        /* \"#utility.yul\":6908:6909   */\n      0x00\n        /* \"#utility.yul\":6897:6906   */\n      dup4\n        /* \"#utility.yul\":6893:6910   */\n      add\n        /* \"#utility.yul\":6886:6933   */\n      mstore\n        /* \"#utility.yul\":6950:7081   */\n      tag_162\n        /* \"#utility.yul\":7076:7080   */\n      dup2\n        /* \"#utility.yul\":6950:7081   */\n      tag_132\n      jump\t// in\n    tag_162:\n        /* \"#utility.yul\":6942:7081   */\n      swap1\n      pop\n        /* \"#utility.yul\":6669:7088   */\n      swap2\n      swap1\n      pop\n      jump\t// out\n        /* \"#utility.yul\":7094:7513   */\n    tag_59:\n        /* \"#utility.yul\":7260:7264   */\n      0x00\n        /* \"#utility.yul\":7298:7300   */\n      0x20\n        /* \"#utility.yul\":7287:7296   */\n      dup3\n        /* \"#utility.yul\":7283:7301   */\n      add\n        /* \"#utility.yul\":7275:7301   */\n      swap1\n      pop\n        /* \"#utility.yul\":7347:7356   */\n      dup2\n        /* \"#utility.yul\":7341:7345   */\n      dup2\n        /* \"#utility.yul\":7337:7357   */\n      sub\n        /* \"#utility.yul\":7333:7334   */\n      0x00\n        /* \"#utility.yul\":7322:7331   */\n      dup4\n        /* \"#utility.yul\":7318:7335   */\n      add\n        /* \"#utility.yul\":7311:7358   */\n      mstore\n        /* \"#utility.yul\":7375:7506   */\n      tag_164\n        /* \"#utility.yul\":7501:7505   */\n      dup2\n        /* \"#utility.yul\":7375:7506   */\n      tag_137\n      jump\t// in\n    tag_164:\n        /* \"#utility.yul\":7367:7506   */\n      swap1\n      pop\n        /* \"#utility.yul\":7094:7513   */\n      swap2\n      swap1\n      pop\n      jump\t// out\n        /* \"#utility.yul\":7519:7938   */\n    tag_29:\n        /* \"#utility.yul\":7685:7689   */\n      0x00\n        /* \"#utility.yul\":7723:7725   */\n      0x20\n        /* \"#utility.yul\":7712:7721   */\n      dup3\n        /* \"#utility.yul\":7708:7726   */\n      add\n        /* \"#utility.yul\":7700:7726   */\n      swap1\n      pop\n        /* \"#utility.yul\":7772:7781   */\n      dup2\n        /* \"#utility.yul\":7766:7770   */\n      dup2\n        /* \"#utility.yul\":7762:7782   */\n      sub\n        /* \"#utility.yul\":7758:7759   */\n      0x00\n        /* \"#utility.yul\":7747:7756   */\n      dup4\n        /* \"#utility.yul\":7743:7760   */\n      add\n        /* \"#utility.yul\":7736:7783   */\n      mstore\n        /* \"#utility.yul\":7800:7931   */\n      tag_166\n        /* \"#utility.yul\":7926:7930   */\n      dup2\n        /* \"#utility.yul\":7800:7931   */\n      tag_142\n      jump\t// in\n    tag_166:\n        /* \"#utility.yul\":7792:7931   */\n      swap1\n      pop\n        /* \"#utility.yul\":7519:7938   */\n      swap2\n      swap1\n      pop\n      jump\t// out\n        /* \"#utility.yul\":7944:8317   */\n    tag_15:\n        /* \"#utility.yul\":8087:8091   */\n      0x00\n        /* \"#utility.yul\":8125:8127   */\n      0x20\n        /* \"#utility.yul\":8114:8123   */\n      dup3\n        /* \"#utility.yul\":8110:8128   */\n      add\n        /* \"#utility.yul\":8102:8128   */\n      swap1\n      pop\n        /* \"#utility.yul\":8174:8183   */\n      dup2\n        /* \"#utility.yul\":8168:8172   */\n      dup2\n        /* \"#utility.yul\":8164:8184   */\n      sub\n        /* \"#utility.yul\":8160:8161   */\n      0x00\n        /* \"#utility.yul\":8149:8158   */\n      dup4\n        /* \"#utility.yul\":8145:8162   */\n      add\n        /* \"#utility.yul\":8138:8185   */\n      mstore\n        /* \"#utility.yul\":8202:8310   */\n      tag_168\n        /* \"#utility.yul\":8305:8309   */\n      dup2\n        /* \"#utility.yul\":8296:8302   */\n      dup5\n        /* \"#utility.yul\":8202:8310   */\n      tag_147\n      jump\t// in\n    tag_168:\n        /* \"#utility.yul\":8194:8310   */\n      swap1\n      pop\n        /* \"#utility.yul\":7944:8317   */\n      swap3\n      swap2\n      pop\n      pop\n      jump\t// out\n        /* \"#utility.yul\":8323:8452   */\n    tag_76:\n        /* \"#utility.yul\":8357:8363   */\n      0x00\n        /* \"#utility.yul\":8384:8404   */\n      tag_170\n      tag_171\n      jump\t// in\n    tag_170:\n        /* \"#utility.yul\":8374:8404   */\n      swap1\n      pop\n        /* \"#utility.yul\":8413:8446   */\n      tag_172\n        /* \"#utility.yul\":8441:8445   */\n      dup3\n        /* \"#utility.yul\":8433:8439   */\n      dup3\n        /* \"#utility.yul\":8413:8446   */\n      tag_173\n      jump\t// in\n    tag_172:\n        /* \"#utility.yul\":8323:8452   */\n      swap2\n      swap1\n      pop\n      jump\t// out\n        /* \"#utility.yul\":8458:8533   */\n    tag_171:\n        /* \"#utility.yul\":8491:8497   */\n      0x00\n        /* \"#utility.yul\":8524:8526   */\n      0x40\n        /* \"#utility.yul\":8518:8527   */\n      mload\n        /* \"#utility.yul\":8508:8527   */\n      swap1\n      pop\n        /* \"#utility.yul\":8458:8533   */\n      swap1\n      jump\t// out\n        /* \"#utility.yul\":8539:8847   */\n    tag_75:\n        /* \"#utility.yul\":8601:8605   */\n      0x00\n        /* \"#utility.yul\":8691:8709   */\n      0xffffffffffffffff\n        /* \"#utility.yul\":8683:8689   */\n      dup3\n        /* \"#utility.yul\":8680:8710   */\n      gt\n        /* \"#utility.yul\":8677:8733   */\n      iszero\n      tag_176\n      jumpi\n        /* \"#utility.yul\":8713:8731   */\n      tag_177\n      tag_178\n      jump\t// in\n    tag_177:\n        /* \"#utility.yul\":8677:8733   */\n    tag_176:\n        /* \"#utility.yul\":8751:8780   */\n      tag_179\n        /* \"#utility.yul\":8773:8779   */\n      dup3\n        /* \"#utility.yul\":8751:8780   */\n      tag_114\n      jump\t// in\n    tag_179:\n        /* \"#utility.yul\":8743:8780   */\n      swap1\n      pop\n        /* \"#utility.yul\":8835:8839   */\n      0x20\n        /* \"#utility.yul\":8829:8833   */\n      dup2\n        /* \"#utility.yul\":8825:8840   */\n      add\n        /* \"#utility.yul\":8817:8840   */\n      swap1\n      pop\n        /* \"#utility.yul\":8539:8847   */\n      swap2\n      swap1\n      pop\n      jump\t// out\n        /* \"#utility.yul\":8853:8952   */\n    tag_108:\n        /* \"#utility.yul\":8905:8911   */\n      0x00\n        /* \"#utility.yul\":8939:8944   */\n      dup2\n        /* \"#utility.yul\":8933:8945   */\n      mload\n        /* \"#utility.yul\":8923:8945   */\n      swap1\n      pop\n        /* \"#utility.yul\":8853:8952   */\n      swap2\n      swap1\n      pop\n      jump\t// out\n        /* \"#utility.yul\":8958:9117   */\n    tag_110:\n        /* \"#utility.yul\":9032:9043   */\n      0x00\n        /* \"#utility.yul\":9066:9072   */\n      dup3\n        /* \"#utility.yul\":9061:9064   */\n      dup3\n        /* \"#utility.yul\":9054:9073   */\n      mstore\n        /* \"#utility.yul\":9106:9110   */\n      0x20\n        /* \"#utility.yul\":9101:9104   */\n      dup3\n        /* \"#utility.yul\":9097:9111   */\n      add\n        /* \"#utility.yul\":9082:9111   */\n      swap1\n      pop\n        /* \"#utility.yul\":8958:9117   */\n      swap3\n      swap2\n      pop\n      pop\n      jump\t// out\n        /* \"#utility.yul\":9123:9292   */\n    tag_124:\n        /* \"#utility.yul\":9207:9218   */\n      0x00\n        /* \"#utility.yul\":9241:9247   */\n      dup3\n        /* \"#utility.yul\":9236:9239   */\n      dup3\n        /* \"#utility.yul\":9229:9248   */\n      mstore\n        /* \"#utility.yul\":9281:9285   */\n      0x20\n        /* \"#utility.yul\":9276:9279   */\n      dup3\n        /* \"#utility.yul\":9272:9286   */\n      add\n        /* \"#utility.yul\":9257:9286   */\n      swap1\n      pop\n        /* \"#utility.yul\":9123:9292   */\n      swap3\n      swap2\n      pop\n      pop\n      jump\t// out\n        /* \"#utility.yul\":9298:9446   */\n    tag_119:\n        /* \"#utility.yul\":9400:9411   */\n      0x00\n        /* \"#utility.yul\":9437:9440   */\n      dup2\n        /* \"#utility.yul\":9422:9440   */\n      swap1\n      pop\n        /* \"#utility.yul\":9298:9446   */\n      swap3\n      swap2\n      pop\n      pop\n      jump\t// out\n        /* \"#utility.yul\":9452:9529   */\n    tag_154:\n        /* \"#utility.yul\":9489:9496   */\n      0x00\n        /* \"#utility.yul\":9518:9523   */\n      dup2\n        /* \"#utility.yul\":9507:9523   */\n      swap1\n      pop\n        /* \"#utility.yul\":9452:9529   */\n      swap2\n      swap1\n      pop\n      jump\t// out\n        /* \"#utility.yul\":9535:9689   */\n    tag_81:\n        /* \"#utility.yul\":9619:9625   */\n      dup3\n        /* \"#utility.yul\":9614:9617   */\n      dup2\n        /* \"#utility.yul\":9609:9612   */\n      dup4\n        /* \"#utility.yul\":9596:9626   */\n      calldatacopy\n        /* \"#utility.yul\":9681:9682   */\n      0x00\n        /* \"#utility.yul\":9672:9678   */\n      dup4\n        /* \"#utility.yul\":9667:9670   */\n      dup4\n        /* \"#utility.yul\":9663:9679   */\n      add\n        /* \"#utility.yul\":9656:9683   */\n      mstore\n        /* \"#utility.yul\":9535:9689   */\n      pop\n      pop\n      pop\n      jump\t// out\n        /* \"#utility.yul\":9695:10002   */\n    tag_112:\n        /* \"#utility.yul\":9763:9764   */\n      0x00\n        /* \"#utility.yul\":9773:9886   */\n    tag_187:\n        /* \"#utility.yul\":9787:9793   */\n      dup4\n        /* \"#utility.yul\":9784:9785   */\n      dup2\n        /* \"#utility.yul\":9781:9794   */\n      lt\n        /* \"#utility.yul\":9773:9886   */\n      iszero\n      tag_189\n      jumpi\n        /* \"#utility.yul\":9872:9873   */\n      dup1\n        /* \"#utility.yul\":9867:9870   */\n      dup3\n        /* \"#utility.yul\":9863:9874   */\n      add\n        /* \"#utility.yul\":9857:9875   */\n      mload\n        /* \"#utility.yul\":9853:9854   */\n      dup2\n        /* \"#utility.yul\":9848:9851   */\n      dup5\n        /* \"#utility.yul\":9844:9855   */\n      add\n        /* \"#utility.yul\":9837:9876   */\n      mstore\n        /* \"#utility.yul\":9809:9811   */\n      0x20\n        /* \"#utility.yul\":9806:9807   */\n      dup2\n        /* \"#utility.yul\":9802:9812   */\n      add\n        /* \"#utility.yul\":9797:9812   */\n      swap1\n      pop\n        /* \"#utility.yul\":9773:9886   */\n      jump(tag_187)\n    tag_189:\n        /* \"#utility.yul\":9904:9910   */\n      dup4\n        /* \"#utility.yul\":9901:9902   */\n      dup2\n        /* \"#utility.yul\":9898:9911   */\n      gt\n        /* \"#utility.yul\":9895:9996   */\n      iszero\n      tag_190\n      jumpi\n        /* \"#utility.yul\":9984:9985   */\n      0x00\n        /* \"#utility.yul\":9975:9981   */\n      dup5\n        /* \"#utility.yul\":9970:9973   */\n      dup5\n        /* \"#utility.yul\":9966:9982   */\n      add\n        /* \"#utility.yul\":9959:9986   */\n      mstore\n        /* \"#utility.yul\":9895:9996   */\n    tag_190:\n        /* \"#utility.yul\":9744:10002   */\n      pop\n        /* \"#utility.yul\":9695:10002   */\n      pop\n      pop\n      pop\n      jump\t// out\n        /* \"#utility.yul\":10008:10328   */\n    tag_45:\n        /* \"#utility.yul\":10052:10058   */\n      0x00\n        /* \"#utility.yul\":10089:10090   */\n      0x02\n        /* \"#utility.yul\":10083:10087   */\n      dup3\n        /* \"#utility.yul\":10079:10091   */\n      div\n        /* \"#utility.yul\":10069:10091   */\n      swap1\n      pop\n        /* \"#utility.yul\":10136:10137   */\n      0x01\n        /* \"#utility.yul\":10130:10134   */\n      dup3\n        /* \"#utility.yul\":10126:10138   */\n      and\n        /* \"#utility.yul\":10157:10175   */\n      dup1\n        /* \"#utility.yul\":10147:10228   */\n      tag_192\n      jumpi\n        /* \"#utility.yul\":10213:10217   */\n      0x7f\n        /* \"#utility.yul\":10205:10211   */\n      dup3\n        /* \"#utility.yul\":10201:10218   */\n      and\n        /* \"#utility.yul\":10191:10218   */\n      swap2\n      pop\n        /* \"#utility.yul\":10147:10228   */\n    tag_192:\n        /* \"#utility.yul\":10275:10277   */\n      0x20\n        /* \"#utility.yul\":10267:10273   */\n      dup3\n        /* \"#utility.yul\":10264:10278   */\n      lt\n        /* \"#utility.yul\":10244:10262   */\n      dup2\n        /* \"#utility.yul\":10241:10279   */\n      eq\n        /* \"#utility.yul\":10238:10322   */\n      iszero\n      tag_193\n      jumpi\n        /* \"#utility.yul\":10294:10312   */\n      tag_194\n      tag_195\n      jump\t// in\n    tag_194:\n        /* \"#utility.yul\":10238:10322   */\n    tag_193:\n        /* \"#utility.yul\":10059:10328   */\n      pop\n        /* \"#utility.yul\":10008:10328   */\n      swap2\n      swap1\n      pop\n      jump\t// out\n        /* \"#utility.yul\":10334:10615   */\n    tag_173:\n        /* \"#utility.yul\":10417:10444   */\n      tag_197\n        /* \"#utility.yul\":10439:10443   */\n      dup3\n        /* \"#utility.yul\":10417:10444   */\n      tag_114\n      jump\t// in\n    tag_197:\n        /* \"#utility.yul\":10409:10415   */\n      dup2\n        /* \"#utility.yul\":10405:10445   */\n      add\n        /* \"#utility.yul\":10547:10553   */\n      dup2\n        /* \"#utility.yul\":10535:10545   */\n      dup2\n        /* \"#utility.yul\":10532:10554   */\n      lt\n        /* \"#utility.yul\":10511:10529   */\n      0xffffffffffffffff\n        /* \"#utility.yul\":10499:10509   */\n      dup3\n        /* \"#utility.yul\":10496:10530   */\n      gt\n        /* \"#utility.yul\":10493:10555   */\n      or\n        /* \"#utility.yul\":10490:10578   */\n      iszero\n      tag_198\n      jumpi\n        /* \"#utility.yul\":10558:10576   */\n      tag_199\n      tag_178\n      jump\t// in\n    tag_199:\n        /* \"#utility.yul\":10490:10578   */\n    tag_198:\n        /* \"#utility.yul\":10598:10608   */\n      dup1\n        /* \"#utility.yul\":10594:10596   */\n      0x40\n        /* \"#utility.yul\":10587:10609   */\n      mstore\n        /* \"#utility.yul\":10377:10615   */\n      pop\n        /* \"#utility.yul\":10334:10615   */\n      pop\n      pop\n      jump\t// out\n        /* \"#utility.yul\":10621:10801   */\n    tag_195:\n        /* \"#utility.yul\":10669:10746   */\n      0x4e487b7100000000000000000000000000000000000000000000000000000000\n        /* \"#utility.yul\":10666:10667   */\n      0x00\n        /* \"#utility.yul\":10659:10747   */\n      mstore\n        /* \"#utility.yul\":10766:10770   */\n      0x22\n        /* \"#utility.yul\":10763:10764   */\n      0x04\n        /* \"#utility.yul\":10756:10771   */\n      mstore\n        /* \"#utility.yul\":10790:10794   */\n      0x24\n        /* \"#utility.yul\":10787:10788   */\n      0x00\n        /* \"#utility.yul\":10780:10795   */\n      revert\n        /* \"#utility.yul\":10807:10987   */\n    tag_178:\n        /* \"#utility.yul\":10855:10932   */\n      0x4e487b7100000000000000000000000000000000000000000000000000000000\n        /* \"#utility.yul\":10852:10853   */\n      0x00\n        /* \"#utility.yul\":10845:10933   */\n      mstore\n        /* \"#utility.yul\":10952:10956   */\n      0x41\n        /* \"#utility.yul\":10949:10950   */\n      0x04\n        /* \"#utility.yul\":10942:10957   */\n      mstore\n        /* \"#utility.yul\":10976:10980   */\n      0x24\n        /* \"#utility.yul\":10973:10974   */\n      0x00\n        /* \"#utility.yul\":10966:10981   */\n      revert\n        /* \"#utility.yul\":10993:11110   */\n    tag_86:\n        /* \"#utility.yul\":11102:11103   */\n      0x00\n        /* \"#utility.yul\":11099:11100   */\n      dup1\n        /* \"#utility.yul\":11092:11104   */\n      revert\n        /* \"#utility.yul\":11116:11233   */\n    tag_79:\n        /* \"#utility.yul\":11225:11226   */\n      0x00\n        /* \"#utility.yul\":11222:11223   */\n      dup1\n        /* \"#utility.yul\":11215:11227   */\n      revert\n        /* \"#utility.yul\":11239:11356   */\n    tag_94:\n        /* \"#utility.yul\":11348:11349   */\n      0x00\n        /* \"#utility.yul\":11345:11346   */\n      dup1\n        /* \"#utility.yul\":11338:11350   */\n      revert\n        /* \"#utility.yul\":11362:11479   */\n    tag_91:\n        /* \"#utility.yul\":11471:11472   */\n      0x00\n        /* \"#utility.yul\":11468:11469   */\n      dup1\n        /* \"#utility.yul\":11461:11473   */\n      revert\n        /* \"#utility.yul\":11485:11587   */\n    tag_114:\n        /* \"#utility.yul\":11526:11532   */\n      0x00\n        /* \"#utility.yul\":11577:11579   */\n      0x1f\n        /* \"#utility.yul\":11573:11580   */\n      not\n        /* \"#utility.yul\":11568:11570   */\n      0x1f\n        /* \"#utility.yul\":11561:11566   */\n      dup4\n        /* \"#utility.yul\":11557:11571   */\n      add\n        /* \"#utility.yul\":11553:11581   */\n      and\n        /* \"#utility.yul\":11543:11581   */\n      swap1\n      pop\n        /* \"#utility.yul\":11485:11587   */\n      swap2\n      swap1\n      pop\n      jump\t// out\n        /* \"#utility.yul\":11593:11763   */\n    tag_126:\n        /* \"#utility.yul\":11733:11755   */\n      0x556e617574686f72697a6564204163636573732e000000000000000000000000\n        /* \"#utility.yul\":11729:11730   */\n      0x00\n        /* \"#utility.yul\":11721:11727   */\n      dup3\n        /* \"#utility.yul\":11717:11731   */\n      add\n        /* \"#utility.yul\":11710:11756   */\n      mstore\n        /* \"#utility.yul\":11593:11763   */\n      pop\n      jump\t// out\n        /* \"#utility.yul\":11769:11940   */\n    tag_131:\n        /* \"#utility.yul\":11909:11932   */\n      0x53796d626f6c2063616e277420626520656d7074790000000000000000000000\n        /* \"#utility.yul\":11905:11906   */\n      0x00\n        /* \"#utility.yul\":11897:11903   */\n      dup3\n        /* \"#utility.yul\":11893:11907   */\n      add\n        /* \"#utility.yul\":11886:11933   */\n      mstore\n        /* \"#utility.yul\":11769:11940   */\n      pop\n      jump\t// out\n        /* \"#utility.yul\":11946:12112   */\n    tag_136:\n        /* \"#utility.yul\":12086:12104   */\n      0x416c726561647920537461727465642e00000000000000000000000000000000\n        /* \"#utility.yul\":12082:12083   */\n      0x00\n        /* \"#utility.yul\":12074:12080   */\n      dup3\n        /* \"#utility.yul\":12070:12084   */\n      add\n        /* \"#utility.yul\":12063:12105   */\n      mstore\n        /* \"#utility.yul\":11946:12112   */\n      pop\n      jump\t// out\n        /* \"#utility.yul\":12118:12344   */\n    tag_141:\n        /* \"#utility.yul\":12258:12292   */\n      0x41746c6561737420322063616e646964617465206d7573742062652072656769\n        /* \"#utility.yul\":12254:12255   */\n      0x00\n        /* \"#utility.yul\":12246:12252   */\n      dup3\n        /* \"#utility.yul\":12242:12256   */\n      add\n        /* \"#utility.yul\":12235:12293   */\n      mstore\n        /* \"#utility.yul\":12327:12336   */\n      0x7374657265642e00000000000000000000000000000000000000000000000000\n        /* \"#utility.yul\":12322:12324   */\n      0x20\n        /* \"#utility.yul\":12314:12320   */\n      dup3\n        /* \"#utility.yul\":12310:12325   */\n      add\n        /* \"#utility.yul\":12303:12337   */\n      mstore\n        /* \"#utility.yul\":12118:12344   */\n      pop\n      jump\t// out\n        /* \"#utility.yul\":12350:12519   */\n    tag_146:\n        /* \"#utility.yul\":12490:12511   */\n      0x4e616d652043616e277420626520656d70747900000000000000000000000000\n        /* \"#utility.yul\":12486:12487   */\n      0x00\n        /* \"#utility.yul\":12478:12484   */\n      dup3\n        /* \"#utility.yul\":12474:12488   */\n      add\n        /* \"#utility.yul\":12467:12512   */\n      mstore\n        /* \"#utility.yul\":12350:12519   */\n      pop\n      jump\t// out\n\n    auxdata: 0xa2646970667358221220e477c2a2777881d48c40820617f278e0805326356d8ed7860a116c803342d5a164736f6c63430008070033\n}\n",
				"bytecode": {
					"linkReferences": {},
					"object": "60806040526000600160146101000a81548160ff02191690831515021790555034801561002b57600080fd5b5033600160006101000a81548173ffffffffffffffffffffffffffffffffffffffff021916908373ffffffffffffffffffffffffffffffffffffffff160217905550610bdc8061007c6000396000f3fe608060405234801561001057600080fd5b50600436106100415760003560e01c8063137967a614610046578063196b2e24146100625780634c0a6af014610092575b600080fd5b610060600480360381019061005b919061063d565b61009c565b005b61007c600480360381019061007791906105f4565b6102a9565b60405161008991906108d1565b60405180910390f35b61009a61037d565b005b600160009054906101000a900473ffffffffffffffffffffffffffffffffffffffff1673ffffffffffffffffffffffffffffffffffffffff163373ffffffffffffffffffffffffffffffffffffffff161461012c576040517f08c379a000000000000000000000000000000000000000000000000000000000815260040161012390610831565b60405180910390fd5b60011515600160149054906101000a900460ff16151514610182576040517f08c379a000000000000000000000000000000000000000000000000000000000815260040161017990610871565b60405180910390fd5b6000825114156101c7576040517f08c379a00000000000000000000000000000000000000000000000000000000081526004016101be906108b1565b60405180910390fd5b60008151141561020c576040517f08c379a000000000000000000000000000000000000000000000000000000000815260040161020390610851565b60405180910390fd5b6002819080600181540180825580915050600190039060005260206000200160009091909190915090805190602001906102479291906104c7565b5081600382604051610259919061081a565b9081526020016040518091039020600001908051906020019061027d9291906104c7565b506000600382604051610290919061081a565b9081526020016040518091039020600101819055505050565b6102b161054d565b6003826040516102c1919061081a565b90815260200160405180910390206040518060400160405290816000820180546102ea906109cd565b80601f0160208091040260200160405190810160405280929190818152602001828054610316906109cd565b80156103635780601f1061033857610100808354040283529160200191610363565b820191906000526020600020905b81548152906001019060200180831161034657829003601f168201915b505050505081526020016001820154815250509050919050565b600160009054906101000a900473ffffffffffffffffffffffffffffffffffffffff1673ffffffffffffffffffffffffffffffffffffffff163373ffffffffffffffffffffffffffffffffffffffff161461040d576040517f08c379a000000000000000000000000000000000000000000000000000000000815260040161040490610831565b60405180910390fd5b60011515600160149054906101000a900460ff16151514610463576040517f08c379a000000000000000000000000000000000000000000000000000000000815260040161045a90610871565b60405180910390fd5b6000600280549050116104ab576040517f08c379a00000000000000000000000000000000000000000000000000000000081526004016104a290610891565b60405180910390fd5b60018060146101000a81548160ff021916908315150217905550565b8280546104d3906109cd565b90600052602060002090601f0160209004810192826104f5576000855561053c565b82601f1061050e57805160ff191683800117855561053c565b8280016001018555821561053c579182015b8281111561053b578251825591602001919060010190610520565b5b5090506105499190610567565b5090565b604051806040016040528060608152602001600081525090565b5b80821115610580576000816000905550600101610568565b5090565b600061059761059284610918565b6108f3565b9050828152602081018484840111156105b3576105b2610a93565b5b6105be84828561098b565b509392505050565b600082601f8301126105db576105da610a8e565b5b81356105eb848260208601610584565b91505092915050565b60006020828403121561060a57610609610a9d565b5b600082013567ffffffffffffffff81111561062857610627610a98565b5b610634848285016105c6565b91505092915050565b6000806040838503121561065457610653610a9d565b5b600083013567ffffffffffffffff81111561067257610671610a98565b5b61067e858286016105c6565b925050602083013567ffffffffffffffff81111561069f5761069e610a98565b5b6106ab858286016105c6565b9150509250929050565b60006106c082610949565b6106ca8185610954565b93506106da81856020860161099a565b6106e381610aa2565b840191505092915050565b60006106f982610949565b6107038185610976565b935061071381856020860161099a565b80840191505092915050565b600061072c601483610965565b915061073782610ab3565b602082019050919050565b600061074f601583610965565b915061075a82610adc565b602082019050919050565b6000610772601083610965565b915061077d82610b05565b602082019050919050565b6000610795602783610965565b91506107a082610b2e565b604082019050919050565b60006107b8601383610965565b91506107c382610b7d565b602082019050919050565b600060408301600083015184820360008601526107eb82826106b5565b9150506020830151610800602086018261080b565b508091505092915050565b61081481610981565b82525050565b600061082682846106ee565b915081905092915050565b6000602082019050818103600083015261084a8161071f565b9050919050565b6000602082019050818103600083015261086a81610742565b9050919050565b6000602082019050818103600083015261088a81610765565b9050919050565b600060208201905081810360008301526108aa81610788565b9050919050565b600060208201905081810360008301526108ca816107ab565b9050919050565b600060208201905081810360008301526108eb81846107ce565b905092915050565b60006108fd61090e565b905061090982826109ff565b919050565b6000604051905090565b600067ffffffffffffffff82111561093357610932610a5f565b5b61093c82610aa2565b9050602081019050919050565b600081519050919050565b600082825260208201905092915050565b600082825260208201905092915050565b600081905092915050565b6000819050919050565b82818337600083830152505050565b60005b838110156109b857808201518184015260208101905061099d565b838111156109c7576000848401525b50505050565b600060028204905060018216806109e557607f821691505b602082108114156109f9576109f8610a30565b5b50919050565b610a0882610aa2565b810181811067ffffffffffffffff82111715610a2757610a26610a5f565b5b80604052505050565b7f4e487b7100000000000000000000000000000000000000000000000000000000600052602260045260246000fd5b7f4e487b7100000000000000000000000000000000000000000000000000000000600052604160045260246000fd5b600080fd5b600080fd5b600080fd5b600080fd5b6000601f19601f8301169050919050565b7f556e617574686f72697a6564204163636573732e000000000000000000000000600082015250565b7f53796d626f6c2063616e277420626520656d7074790000000000000000000000600082015250565b7f416c726561647920537461727465642e00000000000000000000000000000000600082015250565b7f41746c6561737420322063616e646964617465206d757374206265207265676960008201527f7374657265642e00000000000000000000000000000000000000000000000000602082015250565b7f4e616d652043616e277420626520656d7074790000000000000000000000000060008201525056fea2646970667358221220e477c2a2777881d48c40820617f278e0805326356d8ed7860a116c803342d5a164736f6c63430008070033",
					"opcodes": "PUSH1 0x80 PUSH1 0x40 MSTORE PUSH1 0x0 PUSH1 0x1 PUSH1 0x14 PUSH2 0x100 EXP DUP2 SLOAD DUP2 PUSH1 0xFF MUL NOT AND SWAP1 DUP4 ISZERO ISZERO MUL OR SWAP1 SSTORE POP CALLVALUE DUP1 ISZERO PUSH2 0x2B JUMPI PUSH1 0x0 DUP1 REVERT JUMPDEST POP CALLER PUSH1 0x1 PUSH1 0x0 PUSH2 0x100 EXP DUP2 SLOAD DUP2 PUSH20 0xFFFFFFFFFFFFFFFFFFFFFFFFFFFFFFFFFFFFFFFF MUL NOT AND SWAP1 DUP4 PUSH20 0xFFFFFFFFFFFFFFFFFFFFFFFFFFFFFFFFFFFFFFFF AND MUL OR SWAP1 SSTORE POP PUSH2 0xBDC DUP1 PUSH2 0x7C PUSH1 0x0 CODECOPY PUSH1 0x0 RETURN INVALID PUSH1 0x80 PUSH1 0x40 MSTORE CALLVALUE DUP1 ISZERO PUSH2 0x10 JUMPI PUSH1 0x0 DUP1 REVERT JUMPDEST POP PUSH1 0x4 CALLDATASIZE LT PUSH2 0x41 JUMPI PUSH1 0x0 CALLDATALOAD PUSH1 0xE0 SHR DUP1 PUSH4 0x137967A6 EQ PUSH2 0x46 JUMPI DUP1 PUSH4 0x196B2E24 EQ PUSH2 0x62 JUMPI DUP1 PUSH4 0x4C0A6AF0 EQ PUSH2 0x92 JUMPI JUMPDEST PUSH1 0x0 DUP1 REVERT JUMPDEST PUSH2 0x60 PUSH1 0x4 DUP1 CALLDATASIZE SUB DUP2 ADD SWAP1 PUSH2 0x5B SWAP2 SWAP1 PUSH2 0x63D JUMP JUMPDEST PUSH2 0x9C JUMP JUMPDEST STOP JUMPDEST PUSH2 0x7C PUSH1 0x4 DUP1 CALLDATASIZE SUB DUP2 ADD SWAP1 PUSH2 0x77 SWAP2 SWAP1 PUSH2 0x5F4 JUMP JUMPDEST PUSH2 0x2A9 JUMP JUMPDEST PUSH1 0x40 MLOAD PUSH2 0x89 SWAP2 SWAP1 PUSH2 0x8D1 JUMP JUMPDEST PUSH1 0x40 MLOAD DUP1 SWAP2 SUB SWAP1 RETURN JUMPDEST PUSH2 0x9A PUSH2 0x37D JUMP JUMPDEST STOP JUMPDEST PUSH1 0x1 PUSH1 0x0 SWAP1 SLOAD SWAP1 PUSH2 0x100 EXP SWAP1 DIV PUSH20 0xFFFFFFFFFFFFFFFFFFFFFFFFFFFFFFFFFFFFFFFF AND PUSH20 0xFFFFFFFFFFFFFFFFFFFFFFFFFFFFFFFFFFFFFFFF AND CALLER PUSH20 0xFFFFFFFFFFFFFFFFFFFFFFFFFFFFFFFFFFFFFFFF AND EQ PUSH2 0x12C JUMPI PUSH1 0x40 MLOAD PUSH32 0x8C379A000000000000000000000000000000000000000000000000000000000 DUP2 MSTORE PUSH1 0x4 ADD PUSH2 0x123 SWAP1 PUSH2 0x831 JUMP JUMPDEST PUSH1 0x40 MLOAD DUP1 SWAP2 SUB SWAP1 REVERT JUMPDEST PUSH1 0x1 ISZERO ISZERO PUSH1 0x1 PUSH1 0x14 SWAP1 SLOAD SWAP1 PUSH2 0x100 EXP SWAP1 DIV PUSH1 0xFF AND ISZERO ISZERO EQ PUSH2 0x182 JUMPI PUSH1 0x40 MLOAD PUSH32 0x8C379A000000000000000000000000000000000000000000000000000000000 DUP2 MSTORE PUSH1 0x4 ADD PUSH2 0x179 SWAP1 PUSH2 0x871 JUMP JUMPDEST PUSH1 0x40 MLOAD DUP1 SWAP2 SUB SWAP1 REVERT JUMPDEST PUSH1 0x0 DUP3 MLOAD EQ ISZERO PUSH2 0x1C7 JUMPI PUSH1 0x40 MLOAD PUSH32 0x8C379A000000000000000000000000000000000000000000000000000000000 DUP2 MSTORE PUSH1 0x4 ADD PUSH2 0x1BE SWAP1 PUSH2 0x8B1 JUMP JUMPDEST PUSH1 0x40 MLOAD DUP1 SWAP2 SUB SWAP1 REVERT JUMPDEST PUSH1 0x0 DUP2 MLOAD EQ ISZERO PUSH2 0x20C JUMPI PUSH1 0x40 MLOAD PUSH32 0x8C379A000000000000000000000000000000000000000000000000000000000 DUP2 MSTORE PUSH1 0x4 ADD PUSH2 0x203 SWAP1 PUSH2 0x851 JUMP JUMPDEST PUSH1 0x40 MLOAD DUP1 SWAP2 SUB SWAP1 REVERT JUMPDEST PUSH1 0x2 DUP2 SWAP1 DUP1 PUSH1 0x1 DUP2 SLOAD ADD DUP1 DUP3 SSTORE DUP1 SWAP2 POP POP PUSH1 0x1 SWAP1 SUB SWAP1 PUSH1 0x0 MSTORE PUSH1 0x20 PUSH1 0x0 KECCAK256 ADD PUSH1 0x0 SWAP1 SWAP2 SWAP1 SWAP2 SWAP1 SWAP2 POP SWAP1 DUP1 MLOAD SWAP1 PUSH1 0x20 ADD SWAP1 PUSH2 0x247 SWAP3 SWAP2 SWAP1 PUSH2 0x4C7 JUMP JUMPDEST POP DUP2 PUSH1 0x3 DUP3 PUSH1 0x40 MLOAD PUSH2 0x259 SWAP2 SWAP1 PUSH2 0x81A JUMP JUMPDEST SWAP1 DUP2 MSTORE PUSH1 0x20 ADD PUSH1 0x40 MLOAD DUP1 SWAP2 SUB SWAP1 KECCAK256 PUSH1 0x0 ADD SWAP1 DUP1 MLOAD SWAP1 PUSH1 0x20 ADD SWAP1 PUSH2 0x27D SWAP3 SWAP2 SWAP1 PUSH2 0x4C7 JUMP JUMPDEST POP PUSH1 0x0 PUSH1 0x3 DUP3 PUSH1 0x40 MLOAD PUSH2 0x290 SWAP2 SWAP1 PUSH2 0x81A JUMP JUMPDEST SWAP1 DUP2 MSTORE PUSH1 0x20 ADD PUSH1 0x40 MLOAD DUP1 SWAP2 SUB SWAP1 KECCAK256 PUSH1 0x1 ADD DUP2 SWAP1 SSTORE POP POP POP JUMP JUMPDEST PUSH2 0x2B1 PUSH2 0x54D JUMP JUMPDEST PUSH1 0x3 DUP3 PUSH1 0x40 MLOAD PUSH2 0x2C1 SWAP2 SWAP1 PUSH2 0x81A JUMP JUMPDEST SWAP1 DUP2 MSTORE PUSH1 0x20 ADD PUSH1 0x40 MLOAD DUP1 SWAP2 SUB SWAP1 KECCAK256 PUSH1 0x40 MLOAD DUP1 PUSH1 0x40 ADD PUSH1 0x40 MSTORE SWAP1 DUP2 PUSH1 0x0 DUP3 ADD DUP1 SLOAD PUSH2 0x2EA SWAP1 PUSH2 0x9CD JUMP JUMPDEST DUP1 PUSH1 0x1F ADD PUSH1 0x20 DUP1 SWAP2 DIV MUL PUSH1 0x20 ADD PUSH1 0x40 MLOAD SWAP1 DUP2 ADD PUSH1 0x40 MSTORE DUP1 SWAP3 SWAP2 SWAP1 DUP2 DUP2 MSTORE PUSH1 0x20 ADD DUP3 DUP1 SLOAD PUSH2 0x316 SWAP1 PUSH2 0x9CD JUMP JUMPDEST DUP1 ISZERO PUSH2 0x363 JUMPI DUP1 PUSH1 0x1F LT PUSH2 0x338 JUMPI PUSH2 0x100 DUP1 DUP4 SLOAD DIV MUL DUP4 MSTORE SWAP2 PUSH1 0x20 ADD SWAP2 PUSH2 0x363 JUMP JUMPDEST DUP3 ADD SWAP2 SWAP1 PUSH1 0x0 MSTORE PUSH1 0x20 PUSH1 0x0 KECCAK256 SWAP1 JUMPDEST DUP2 SLOAD DUP2 MSTORE SWAP1 PUSH1 0x1 ADD SWAP1 PUSH1 0x20 ADD DUP1 DUP4 GT PUSH2 0x346 JUMPI DUP3 SWAP1 SUB PUSH1 0x1F AND DUP3 ADD SWAP2 JUMPDEST POP POP POP POP POP DUP2 MSTORE PUSH1 0x20 ADD PUSH1 0x1 DUP3 ADD SLOAD DUP2 MSTORE POP POP SWAP1 POP SWAP2 SWAP1 POP JUMP JUMPDEST PUSH1 0x1 PUSH1 0x0 SWAP1 SLOAD SWAP1 PUSH2 0x100 EXP SWAP1 DIV PUSH20 0xFFFFFFFFFFFFFFFFFFFFFFFFFFFFFFFFFFFFFFFF AND PUSH20 0xFFFFFFFFFFFFFFFFFFFFFFFFFFFFFFFFFFFFFFFF AND CALLER PUSH20 0xFFFFFFFFFFFFFFFFFFFFFFFFFFFFFFFFFFFFFFFF AND EQ PUSH2 0x40D JUMPI PUSH1 0x40 MLOAD PUSH32 0x8C379A000000000000000000000000000000000000000000000000000000000 DUP2 MSTORE PUSH1 0x4 ADD PUSH2 0x404 SWAP1 PUSH2 0x831 JUMP JUMPDEST PUSH1 0x40 MLOAD DUP1 SWAP2 SUB SWAP1 REVERT JUMPDEST PUSH1 0x1 ISZERO ISZERO PUSH1 0x1 PUSH1 0x14 SWAP1 SLOAD SWAP1 PUSH2 0x100 EXP SWAP1 DIV PUSH1 0xFF AND ISZERO ISZERO EQ PUSH2 0x463 JUMPI PUSH1 0x40 MLOAD PUSH32 0x8C379A000000000000000000000000000000000000000000000000000000000 DUP2 MSTORE PUSH1 0x4 ADD PUSH2 0x45A SWAP1 PUSH2 0x871 JUMP JUMPDEST PUSH1 0x40 MLOAD DUP1 SWAP2 SUB SWAP1 REVERT JUMPDEST PUSH1 0x0 PUSH1 0x2 DUP1 SLOAD SWAP1 POP GT PUSH2 0x4AB JUMPI PUSH1 0x40 MLOAD PUSH32 0x8C379A000000000000000000000000000000000000000000000000000000000 DUP2 MSTORE PUSH1 0x4 ADD PUSH2 0x4A2 SWAP1 PUSH2 0x891 JUMP JUMPDEST PUSH1 0x40 MLOAD DUP1 SWAP2 SUB SWAP1 REVERT JUMPDEST PUSH1 0x1 DUP1 PUSH1 0x14 PUSH2 0x100 EXP DUP2 SLOAD DUP2 PUSH1 0xFF MUL NOT AND SWAP1 DUP4 ISZERO ISZERO MUL OR SWAP1 SSTORE POP JUMP JUMPDEST DUP3 DUP1 SLOAD PUSH2 0x4D3 SWAP1 PUSH2 0x9CD JUMP JUMPDEST SWAP1 PUSH1 0x0 MSTORE PUSH1 0x20 PUSH1 0x0 KECCAK256 SWAP1 PUSH1 0x1F ADD PUSH1 0x20 SWAP1 DIV DUP2 ADD SWAP3 DUP3 PUSH2 0x4F5 JUMPI PUSH1 0x0 DUP6 SSTORE PUSH2 0x53C JUMP JUMPDEST DUP3 PUSH1 0x1F LT PUSH2 0x50E JUMPI DUP1 MLOAD PUSH1 0xFF NOT AND DUP4 DUP1 ADD OR DUP6 SSTORE PUSH2 0x53C JUMP JUMPDEST DUP3 DUP1 ADD PUSH1 0x1 ADD DUP6 SSTORE DUP3 ISZERO PUSH2 0x53C JUMPI SWAP2 DUP3 ADD JUMPDEST DUP3 DUP2 GT ISZERO PUSH2 0x53B JUMPI DUP3 MLOAD DUP3 SSTORE SWAP2 PUSH1 0x20 ADD SWAP2 SWAP1 PUSH1 0x1 ADD SWAP1 PUSH2 0x520 JUMP JUMPDEST JUMPDEST POP SWAP1 POP PUSH2 0x549 SWAP2 SWAP1 PUSH2 0x567 JUMP JUMPDEST POP SWAP1 JUMP JUMPDEST PUSH1 0x40 MLOAD DUP1 PUSH1 0x40 ADD PUSH1 0x40 MSTORE DUP1 PUSH1 0x60 DUP2 MSTORE PUSH1 0x20 ADD PUSH1 0x0 DUP2 MSTORE POP SWAP1 JUMP JUMPDEST JUMPDEST DUP1 DUP3 GT ISZERO PUSH2 0x580 JUMPI PUSH1 0x0 DUP2 PUSH1 0x0 SWAP1 SSTORE POP PUSH1 0x1 ADD PUSH2 0x568 JUMP JUMPDEST POP SWAP1 JUMP JUMPDEST PUSH1 0x0 PUSH2 0x597 PUSH2 0x592 DUP5 PUSH2 0x918 JUMP JUMPDEST PUSH2 0x8F3 JUMP JUMPDEST SWAP1 POP DUP3 DUP2 MSTORE PUSH1 0x20 DUP2 ADD DUP5 DUP5 DUP5 ADD GT ISZERO PUSH2 0x5B3 JUMPI PUSH2 0x5B2 PUSH2 0xA93 JUMP JUMPDEST JUMPDEST PUSH2 0x5BE DUP5 DUP3 DUP6 PUSH2 0x98B JUMP JUMPDEST POP SWAP4 SWAP3 POP POP POP JUMP JUMPDEST PUSH1 0x0 DUP3 PUSH1 0x1F DUP4 ADD SLT PUSH2 0x5DB JUMPI PUSH2 0x5DA PUSH2 0xA8E JUMP JUMPDEST JUMPDEST DUP2 CALLDATALOAD PUSH2 0x5EB DUP5 DUP3 PUSH1 0x20 DUP7 ADD PUSH2 0x584 JUMP JUMPDEST SWAP2 POP POP SWAP3 SWAP2 POP POP JUMP JUMPDEST PUSH1 0x0 PUSH1 0x20 DUP3 DUP5 SUB SLT ISZERO PUSH2 0x60A JUMPI PUSH2 0x609 PUSH2 0xA9D JUMP JUMPDEST JUMPDEST PUSH1 0x0 DUP3 ADD CALLDATALOAD PUSH8 0xFFFFFFFFFFFFFFFF DUP2 GT ISZERO PUSH2 0x628 JUMPI PUSH2 0x627 PUSH2 0xA98 JUMP JUMPDEST JUMPDEST PUSH2 0x634 DUP5 DUP3 DUP6 ADD PUSH2 0x5C6 JUMP JUMPDEST SWAP2 POP POP SWAP3 SWAP2 POP POP JUMP JUMPDEST PUSH1 0x0 DUP1 PUSH1 0x40 DUP4 DUP6 SUB SLT ISZERO PUSH2 0x654 JUMPI PUSH2 0x653 PUSH2 0xA9D JUMP JUMPDEST JUMPDEST PUSH1 0x0 DUP4 ADD CALLDATALOAD PUSH8 0xFFFFFFFFFFFFFFFF DUP2 GT ISZERO PUSH2 0x672 JUMPI PUSH2 0x671 PUSH2 0xA98 JUMP JUMPDEST JUMPDEST PUSH2 0x67E DUP6 DUP3 DUP7 ADD PUSH2 0x5C6 JUMP JUMPDEST SWAP3 POP POP PUSH1 0x20 DUP4 ADD CALLDATALOAD PUSH8 0xFFFFFFFFFFFFFFFF DUP2 GT ISZERO PUSH2 0x69F JUMPI PUSH2 0x69E PUSH2 0xA98 JUMP JUMPDEST JUMPDEST PUSH2 0x6AB DUP6 DUP3 DUP7 ADD PUSH2 0x5C6 JUMP JUMPDEST SWAP2 POP POP SWAP3 POP SWAP3 SWAP1 POP JUMP JUMPDEST PUSH1 0x0 PUSH2 0x6C0 DUP3 PUSH2 0x949 JUMP JUMPDEST PUSH2 0x6CA DUP2 DUP6 PUSH2 0x954 JUMP JUMPDEST SWAP4 POP PUSH2 0x6DA DUP2 DUP6 PUSH1 0x20 DUP7 ADD PUSH2 0x99A JUMP JUMPDEST PUSH2 0x6E3 DUP2 PUSH2 0xAA2 JUMP JUMPDEST DUP5 ADD SWAP2 POP POP SWAP3 SWAP2 POP POP JUMP JUMPDEST PUSH1 0x0 PUSH2 0x6F9 DUP3 PUSH2 0x949 JUMP JUMPDEST PUSH2 0x703 DUP2 DUP6 PUSH2 0x976 JUMP JUMPDEST SWAP4 POP PUSH2 0x713 DUP2 DUP6 PUSH1 0x20 DUP7 ADD PUSH2 0x99A JUMP JUMPDEST DUP1 DUP5 ADD SWAP2 POP POP SWAP3 SWAP2 POP POP JUMP JUMPDEST PUSH1 0x0 PUSH2 0x72C PUSH1 0x14 DUP4 PUSH2 0x965 JUMP JUMPDEST SWAP2 POP PUSH2 0x737 DUP3 PUSH2 0xAB3 JUMP JUMPDEST PUSH1 0x20 DUP3 ADD SWAP1 POP SWAP2 SWAP1 POP JUMP JUMPDEST PUSH1 0x0 PUSH2 0x74F PUSH1 0x15 DUP4 PUSH2 0x965 JUMP JUMPDEST SWAP2 POP PUSH2 0x75A DUP3 PUSH2 0xADC JUMP JUMPDEST PUSH1 0x20 DUP3 ADD SWAP1 POP SWAP2 SWAP1 POP JUMP JUMPDEST PUSH1 0x0 PUSH2 0x772 PUSH1 0x10 DUP4 PUSH2 0x965 JUMP JUMPDEST SWAP2 POP PUSH2 0x77D DUP3 PUSH2 0xB05 JUMP JUMPDEST PUSH1 0x20 DUP3 ADD SWAP1 POP SWAP2 SWAP1 POP JUMP JUMPDEST PUSH1 0x0 PUSH2 0x795 PUSH1 0x27 DUP4 PUSH2 0x965 JUMP JUMPDEST SWAP2 POP PUSH2 0x7A0 DUP3 PUSH2 0xB2E JUMP JUMPDEST PUSH1 0x40 DUP3 ADD SWAP1 POP SWAP2 SWAP1 POP JUMP JUMPDEST PUSH1 0x0 PUSH2 0x7B8 PUSH1 0x13 DUP4 PUSH2 0x965 JUMP JUMPDEST SWAP2 POP PUSH2 0x7C3 DUP3 PUSH2 0xB7D JUMP JUMPDEST PUSH1 0x20 DUP3 ADD SWAP1 POP SWAP2 SWAP1 POP JUMP JUMPDEST PUSH1 0x0 PUSH1 0x40 DUP4 ADD PUSH1 0x0 DUP4 ADD MLOAD DUP5 DUP3 SUB PUSH1 0x0 DUP7 ADD MSTORE PUSH2 0x7EB DUP3 DUP3 PUSH2 0x6B5 JUMP JUMPDEST SWAP2 POP POP PUSH1 0x20 DUP4 ADD MLOAD PUSH2 0x800 PUSH1 0x20 DUP7 ADD DUP3 PUSH2 0x80B JUMP JUMPDEST POP DUP1 SWAP2 POP POP SWAP3 SWAP2 POP POP JUMP JUMPDEST PUSH2 0x814 DUP2 PUSH2 0x981 JUMP JUMPDEST DUP3 MSTORE POP POP JUMP JUMPDEST PUSH1 0x0 PUSH2 0x826 DUP3 DUP5 PUSH2 0x6EE JUMP JUMPDEST SWAP2 POP DUP2 SWAP1 POP SWAP3 SWAP2 POP POP JUMP JUMPDEST PUSH1 0x0 PUSH1 0x20 DUP3 ADD SWAP1 POP DUP2 DUP2 SUB PUSH1 0x0 DUP4 ADD MSTORE PUSH2 0x84A DUP2 PUSH2 0x71F JUMP JUMPDEST SWAP1 POP SWAP2 SWAP1 POP JUMP JUMPDEST PUSH1 0x0 PUSH1 0x20 DUP3 ADD SWAP1 POP DUP2 DUP2 SUB PUSH1 0x0 DUP4 ADD MSTORE PUSH2 0x86A DUP2 PUSH2 0x742 JUMP JUMPDEST SWAP1 POP SWAP2 SWAP1 POP JUMP JUMPDEST PUSH1 0x0 PUSH1 0x20 DUP3 ADD SWAP1 POP DUP2 DUP2 SUB PUSH1 0x0 DUP4 ADD MSTORE PUSH2 0x88A DUP2 PUSH2 0x765 JUMP JUMPDEST SWAP1 POP SWAP2 SWAP1 POP JUMP JUMPDEST PUSH1 0x0 PUSH1 0x20 DUP3 ADD SWAP1 POP DUP2 DUP2 SUB PUSH1 0x0 DUP4 ADD MSTORE PUSH2 0x8AA DUP2 PUSH2 0x788 JUMP JUMPDEST SWAP1 POP SWAP2 SWAP1 POP JUMP JUMPDEST PUSH1 0x0 PUSH1 0x20 DUP3 ADD SWAP1 POP DUP2 DUP2 SUB PUSH1 0x0 DUP4 ADD MSTORE PUSH2 0x8CA DUP2 PUSH2 0x7AB JUMP JUMPDEST SWAP1 POP SWAP2 SWAP1 POP JUMP JUMPDEST PUSH1 0x0 PUSH1 0x20 DUP3 ADD SWAP1 POP DUP2 DUP2 SUB PUSH1 0x0 DUP4 ADD MSTORE PUSH2 0x8EB DUP2 DUP5 PUSH2 0x7CE JUMP JUMPDEST SWAP1 POP SWAP3 SWAP2 POP POP JUMP JUMPDEST PUSH1 0x0 PUSH2 0x8FD PUSH2 0x90E JUMP JUMPDEST SWAP1 POP PUSH2 0x909 DUP3 DUP3 PUSH2 0x9FF JUMP JUMPDEST SWAP2 SWAP1 POP JUMP JUMPDEST PUSH1 0x0 PUSH1 0x40 MLOAD SWAP1 POP SWAP1 JUMP JUMPDEST PUSH1 0x0 PUSH8 0xFFFFFFFFFFFFFFFF DUP3 GT ISZERO PUSH2 0x933 JUMPI PUSH2 0x932 PUSH2 0xA5F JUMP JUMPDEST JUMPDEST PUSH2 0x93C DUP3 PUSH2 0xAA2 JUMP JUMPDEST SWAP1 POP PUSH1 0x20 DUP2 ADD SWAP1 POP SWAP2 SWAP1 POP JUMP JUMPDEST PUSH1 0x0 DUP2 MLOAD SWAP1 POP SWAP2 SWAP1 POP JUMP JUMPDEST PUSH1 0x0 DUP3 DUP3 MSTORE PUSH1 0x20 DUP3 ADD SWAP1 POP SWAP3 SWAP2 POP POP JUMP JUMPDEST PUSH1 0x0 DUP3 DUP3 MSTORE PUSH1 0x20 DUP3 ADD SWAP1 POP SWAP3 SWAP2 POP POP JUMP JUMPDEST PUSH1 0x0 DUP2 SWAP1 POP SWAP3 SWAP2 POP POP JUMP JUMPDEST PUSH1 0x0 DUP2 SWAP1 POP SWAP2 SWAP1 POP JUMP JUMPDEST DUP3 DUP2 DUP4 CALLDATACOPY PUSH1 0x0 DUP4 DUP4 ADD MSTORE POP POP POP JUMP JUMPDEST PUSH1 0x0 JUMPDEST DUP4 DUP2 LT ISZERO PUSH2 0x9B8 JUMPI DUP1 DUP3 ADD MLOAD DUP2 DUP5 ADD MSTORE PUSH1 0x20 DUP2 ADD SWAP1 POP PUSH2 0x99D JUMP JUMPDEST DUP4 DUP2 GT ISZERO PUSH2 0x9C7 JUMPI PUSH1 0x0 DUP5 DUP5 ADD MSTORE JUMPDEST POP POP POP POP JUMP JUMPDEST PUSH1 0x0 PUSH1 0x2 DUP3 DIV SWAP1 POP PUSH1 0x1 DUP3 AND DUP1 PUSH2 0x9E5 JUMPI PUSH1 0x7F DUP3 AND SWAP2 POP JUMPDEST PUSH1 0x20 DUP3 LT DUP2 EQ ISZERO PUSH2 0x9F9 JUMPI PUSH2 0x9F8 PUSH2 0xA30 JUMP JUMPDEST JUMPDEST POP SWAP2 SWAP1 POP JUMP JUMPDEST PUSH2 0xA08 DUP3 PUSH2 0xAA2 JUMP JUMPDEST DUP2 ADD DUP2 DUP2 LT PUSH8 0xFFFFFFFFFFFFFFFF DUP3 GT OR ISZERO PUSH2 0xA27 JUMPI PUSH2 0xA26 PUSH2 0xA5F JUMP JUMPDEST JUMPDEST DUP1 PUSH1 0x40 MSTORE POP POP POP JUMP JUMPDEST PUSH32 0x4E487B7100000000000000000000000000000000000000000000000000000000 PUSH1 0x0 MSTORE PUSH1 0x22 PUSH1 0x4 MSTORE PUSH1 0x24 PUSH1 0x0 REVERT JUMPDEST PUSH32 0x4E487B7100000000000000000000000000000000000000000000000000000000 PUSH1 0x0 MSTORE PUSH1 0x41 PUSH1 0x4 MSTORE PUSH1 0x24 PUSH1 0x0 REVERT JUMPDEST PUSH1 0x0 DUP1 REVERT JUMPDEST PUSH1 0x0 DUP1 REVERT JUMPDEST PUSH1 0x0 DUP1 REVERT JUMPDEST PUSH1 0x0 DUP1 REVERT JUMPDEST PUSH1 0x0 PUSH1 0x1F NOT PUSH1 0x1F DUP4 ADD AND SWAP1 POP SWAP2 SWAP1 POP JUMP JUMPDEST PUSH32 0x556E617574686F72697A6564204163636573732E000000000000000000000000 PUSH1 0x0 DUP3 ADD MSTORE POP JUMP JUMPDEST PUSH32 0x53796D626F6C2063616E277420626520656D7074790000000000000000000000 PUSH1 0x0 DUP3 ADD MSTORE POP JUMP JUMPDEST PUSH32 0x416C726561647920537461727465642E00000000000000000000000000000000 PUSH1 0x0 DUP3 ADD MSTORE POP JUMP JUMPDEST PUSH32 0x41746C6561737420322063616E646964617465206D7573742062652072656769 PUSH1 0x0 DUP3 ADD MSTORE PUSH32 0x7374657265642E00000000000000000000000000000000000000000000000000 PUSH1 0x20 DUP3 ADD MSTORE POP JUMP JUMPDEST PUSH32 0x4E616D652043616E277420626520656D70747900000000000000000000000000 PUSH1 0x0 DUP3 ADD MSTORE POP JUMP INVALID LOG2 PUSH5 0x6970667358 0x22 SLT KECCAK256 0xE4 PUSH24 0xC2A2777881D48C40820617F278E0805326356D8ED7860A11 PUSH13 0x803342D5A164736F6C63430008 SMOD STOP CALLER "
				},
				"gasEstimates": {
					"creation": {
						"codeDepositCost": "607200",
						"executionCost": "49221",
						"totalCost": "656421"
					},
					"external": {
						"registrationForCandidate(string,string)": "infinite",
						"startVote()": "31005",
						"voteCountStatus(string)": "infinite"
					}
				},
				"methodIdentifiers": {
					"registrationForCandidate(string,string)": "137967a6",
					"startVote()": "4c0a6af0",
					"voteCountStatus(string)": "196b2e24"
				}
			},
			"storageLayout": {
				"storage": [
					{
						"astId": 4,
						"contract": "contracts/voting.sol:VotingContract",
						"label": "voterList",
						"offset": 0,
						"slot": "0",
						"type": "t_array(t_address)dyn_storage"
					},
					{
						"astId": 6,
						"contract": "contracts/voting.sol:VotingContract",
						"label": "electionCommission",
						"offset": 0,
						"slot": "1",
						"type": "t_address"
					},
					{
						"astId": 9,
						"contract": "contracts/voting.sol:VotingContract",
						"label": "voteStarted",
						"offset": 20,
						"slot": "1",
						"type": "t_bool"
					},
					{
						"astId": 12,
						"contract": "contracts/voting.sol:VotingContract",
						"label": "symbolList",
						"offset": 0,
						"slot": "2",
						"type": "t_array(t_string_storage)dyn_storage"
					},
					{
						"astId": 22,
						"contract": "contracts/voting.sol:VotingContract",
						"label": "Candidates",
						"offset": 0,
						"slot": "3",
						"type": "t_mapping(t_string_memory_ptr,t_struct(candidate)17_storage)"
					}
				],
				"types": {
					"t_address": {
						"encoding": "inplace",
						"label": "address",
						"numberOfBytes": "20"
					},
					"t_array(t_address)dyn_storage": {
						"base": "t_address",
						"encoding": "dynamic_array",
						"label": "address[]",
						"numberOfBytes": "32"
					},
					"t_array(t_string_storage)dyn_storage": {
						"base": "t_string_storage",
						"encoding": "dynamic_array",
						"label": "string[]",
						"numberOfBytes": "32"
					},
					"t_bool": {
						"encoding": "inplace",
						"label": "bool",
						"numberOfBytes": "1"
					},
					"t_mapping(t_string_memory_ptr,t_struct(candidate)17_storage)": {
						"encoding": "mapping",
						"key": "t_string_memory_ptr",
						"label": "mapping(string => struct VotingContract.candidate)",
						"numberOfBytes": "32",
						"value": "t_struct(candidate)17_storage"
					},
					"t_string_memory_ptr": {
						"encoding": "bytes",
						"label": "string",
						"numberOfBytes": "32"
					},
					"t_string_storage": {
						"encoding": "bytes",
						"label": "string",
						"numberOfBytes": "32"
					},
					"t_struct(candidate)17_storage": {
						"encoding": "inplace",
						"label": "struct VotingContract.candidate",
						"members": [
							{
								"astId": 14,
								"contract": "contracts/voting.sol:VotingContract",
								"label": "name",
								"offset": 0,
								"slot": "0",
								"type": "t_string_storage"
							},
							{
								"astId": 16,
								"contract": "contracts/voting.sol:VotingContract",
								"label": "voteCount",
								"offset": 0,
								"slot": "1",
								"type": "t_uint256"
							}
						],
						"numberOfBytes": "64"
					},
					"t_uint256": {
						"encoding": "inplace",
						"label": "uint256",
						"numberOfBytes": "32"
					}
				}
			},
			"userdoc": {
				"kind": "user",
				"methods": {},
				"version": 1
			}
		}
	}
}