{
	"contracts/voting.sol": {
		"VotingContract": {
			"abi": [
				{
					"inputs": [],
					"stateMutability": "nonpayable",
					"type": "constructor"
				},
				{
					"inputs": [
						{
							"internalType": "string",
							"name": "name",
							"type": "string"
						},
						{
							"internalType": "string",
							"name": "symbol",
							"type": "string"
						}
					],
					"name": "registrationForCandidate",
					"outputs": [],
					"stateMutability": "nonpayable",
					"type": "function"
				}
			],
			"devdoc": {
				"kind": "dev",
				"methods": {},
				"version": 1
			},
			"evm": {
				"assembly": "    /* \"contracts/voting.sol\":59:596  contract VotingContract{\r... */\n  mstore(0x40, 0x80)\n    /* \"contracts/voting.sol\":333:396  constructor(){\r... */\n  callvalue\n  dup1\n  iszero\n  tag_1\n  jumpi\n  0x00\n  dup1\n  revert\ntag_1:\n  pop\n    /* \"contracts/voting.sol\":378:388  msg.sender */\n  caller\n    /* \"contracts/voting.sol\":357:375  electionCommission */\n  0x00\n  dup1\n    /* \"contracts/voting.sol\":357:388  electionCommission = msg.sender */\n  0x0100\n  exp\n  dup2\n  sload\n  dup2\n  0xffffffffffffffffffffffffffffffffffffffff\n  mul\n  not\n  and\n  swap1\n  dup4\n  0xffffffffffffffffffffffffffffffffffffffff\n  and\n  mul\n  or\n  swap1\n  sstore\n  pop\n    /* \"contracts/voting.sol\":59:596  contract VotingContract{\r... */\n  dataSize(sub_0)\n  dup1\n  dataOffset(sub_0)\n  0x00\n  codecopy\n  0x00\n  return\nstop\n\nsub_0: assembly {\n        /* \"contracts/voting.sol\":59:596  contract VotingContract{\r... */\n      mstore(0x40, 0x80)\n      callvalue\n      dup1\n      iszero\n      tag_1\n      jumpi\n      0x00\n      dup1\n      revert\n    tag_1:\n      pop\n      jumpi(tag_2, lt(calldatasize, 0x04))\n      shr(0xe0, calldataload(0x00))\n      dup1\n      0x137967a6\n      eq\n      tag_3\n      jumpi\n    tag_2:\n      0x00\n      dup1\n      revert\n        /* \"contracts/voting.sol\":403:587  function registrationForCandidate  (string memory name, string memory symbol)public\r... */\n    tag_3:\n      tag_4\n      0x04\n      dup1\n      calldatasize\n      sub\n      dup2\n      add\n      swap1\n      tag_5\n      swap2\n      swap1\n      tag_6\n      jump\t// in\n    tag_5:\n      tag_7\n      jump\t// in\n    tag_4:\n      stop\n    tag_7:\n        /* \"contracts/voting.sol\":525:543  electionCommission */\n      0x00\n      dup1\n      sload\n      swap1\n      0x0100\n      exp\n      swap1\n      div\n      0xffffffffffffffffffffffffffffffffffffffff\n      and\n        /* \"contracts/voting.sol\":513:543  msg.sender!=electionCommission */\n      0xffffffffffffffffffffffffffffffffffffffff\n      and\n        /* \"contracts/voting.sol\":513:523  msg.sender */\n      caller\n        /* \"contracts/voting.sol\":513:543  msg.sender!=electionCommission */\n      0xffffffffffffffffffffffffffffffffffffffff\n      and\n      eq\n      iszero\n        /* \"contracts/voting.sol\":505:565  require(msg.sender!=electionCommission,\"Unauthorized Acess\") */\n      tag_9\n      jumpi\n      mload(0x40)\n      0x08c379a000000000000000000000000000000000000000000000000000000000\n      dup2\n      mstore\n      0x04\n      add\n      tag_10\n      swap1\n      tag_11\n      jump\t// in\n    tag_10:\n      mload(0x40)\n      dup1\n      swap2\n      sub\n      swap1\n      revert\n    tag_9:\n        /* \"contracts/voting.sol\":403:587  function registrationForCandidate  (string memory name, string memory symbol)public\r... */\n      pop\n      pop\n      jump\t// out\n        /* \"#utility.yul\":7:419   */\n    tag_13:\n        /* \"#utility.yul\":85:90   */\n      0x00\n        /* \"#utility.yul\":110:176   */\n      tag_15\n        /* \"#utility.yul\":126:175   */\n      tag_16\n        /* \"#utility.yul\":168:174   */\n      dup5\n        /* \"#utility.yul\":126:175   */\n      tag_17\n      jump\t// in\n    tag_16:\n        /* \"#utility.yul\":110:176   */\n      tag_18\n      jump\t// in\n    tag_15:\n        /* \"#utility.yul\":101:176   */\n      swap1\n      pop\n        /* \"#utility.yul\":199:205   */\n      dup3\n        /* \"#utility.yul\":192:197   */\n      dup2\n        /* \"#utility.yul\":185:206   */\n      mstore\n        /* \"#utility.yul\":237:241   */\n      0x20\n        /* \"#utility.yul\":230:235   */\n      dup2\n        /* \"#utility.yul\":226:242   */\n      add\n        /* \"#utility.yul\":275:278   */\n      dup5\n        /* \"#utility.yul\":266:272   */\n      dup5\n        /* \"#utility.yul\":261:264   */\n      dup5\n        /* \"#utility.yul\":257:273   */\n      add\n        /* \"#utility.yul\":254:279   */\n      gt\n        /* \"#utility.yul\":251:363   */\n      iszero\n      tag_19\n      jumpi\n        /* \"#utility.yul\":282:361   */\n      tag_20\n      tag_21\n      jump\t// in\n    tag_20:\n        /* \"#utility.yul\":251:363   */\n    tag_19:\n        /* \"#utility.yul\":372:413   */\n      tag_22\n        /* \"#utility.yul\":406:412   */\n      dup5\n        /* \"#utility.yul\":401:404   */\n      dup3\n        /* \"#utility.yul\":396:399   */\n      dup6\n        /* \"#utility.yul\":372:413   */\n      tag_23\n      jump\t// in\n    tag_22:\n        /* \"#utility.yul\":91:419   */\n      pop\n        /* \"#utility.yul\":7:419   */\n      swap4\n      swap3\n      pop\n      pop\n      pop\n      jump\t// out\n        /* \"#utility.yul\":439:779   */\n    tag_24:\n        /* \"#utility.yul\":495:500   */\n      0x00\n        /* \"#utility.yul\":544:547   */\n      dup3\n        /* \"#utility.yul\":537:541   */\n      0x1f\n        /* \"#utility.yul\":529:535   */\n      dup4\n        /* \"#utility.yul\":525:542   */\n      add\n        /* \"#utility.yul\":521:548   */\n      slt\n        /* \"#utility.yul\":511:633   */\n      tag_26\n      jumpi\n        /* \"#utility.yul\":552:631   */\n      tag_27\n      tag_28\n      jump\t// in\n    tag_27:\n        /* \"#utility.yul\":511:633   */\n    tag_26:\n        /* \"#utility.yul\":669:675   */\n      dup2\n        /* \"#utility.yul\":656:676   */\n      calldataload\n        /* \"#utility.yul\":694:773   */\n      tag_29\n        /* \"#utility.yul\":769:772   */\n      dup5\n        /* \"#utility.yul\":761:767   */\n      dup3\n        /* \"#utility.yul\":754:758   */\n      0x20\n        /* \"#utility.yul\":746:752   */\n      dup7\n        /* \"#utility.yul\":742:759   */\n      add\n        /* \"#utility.yul\":694:773   */\n      tag_13\n      jump\t// in\n    tag_29:\n        /* \"#utility.yul\":685:773   */\n      swap2\n      pop\n        /* \"#utility.yul\":501:779   */\n      pop\n        /* \"#utility.yul\":439:779   */\n      swap3\n      swap2\n      pop\n      pop\n      jump\t// out\n        /* \"#utility.yul\":785:1619   */\n    tag_6:\n        /* \"#utility.yul\":873:879   */\n      0x00\n        /* \"#utility.yul\":881:887   */\n      dup1\n        /* \"#utility.yul\":930:932   */\n      0x40\n        /* \"#utility.yul\":918:927   */\n      dup4\n        /* \"#utility.yul\":909:916   */\n      dup6\n        /* \"#utility.yul\":905:928   */\n      sub\n        /* \"#utility.yul\":901:933   */\n      slt\n        /* \"#utility.yul\":898:1017   */\n      iszero\n      tag_31\n      jumpi\n        /* \"#utility.yul\":936:1015   */\n      tag_32\n      tag_33\n      jump\t// in\n    tag_32:\n        /* \"#utility.yul\":898:1017   */\n    tag_31:\n        /* \"#utility.yul\":1084:1085   */\n      0x00\n        /* \"#utility.yul\":1073:1082   */\n      dup4\n        /* \"#utility.yul\":1069:1086   */\n      add\n        /* \"#utility.yul\":1056:1087   */\n      calldataload\n        /* \"#utility.yul\":1114:1132   */\n      0xffffffffffffffff\n        /* \"#utility.yul\":1106:1112   */\n      dup2\n        /* \"#utility.yul\":1103:1133   */\n      gt\n        /* \"#utility.yul\":1100:1217   */\n      iszero\n      tag_34\n      jumpi\n        /* \"#utility.yul\":1136:1215   */\n      tag_35\n      tag_36\n      jump\t// in\n    tag_35:\n        /* \"#utility.yul\":1100:1217   */\n    tag_34:\n        /* \"#utility.yul\":1241:1304   */\n      tag_37\n        /* \"#utility.yul\":1296:1303   */\n      dup6\n        /* \"#utility.yul\":1287:1293   */\n      dup3\n        /* \"#utility.yul\":1276:1285   */\n      dup7\n        /* \"#utility.yul\":1272:1294   */\n      add\n        /* \"#utility.yul\":1241:1304   */\n      tag_24\n      jump\t// in\n    tag_37:\n        /* \"#utility.yul\":1231:1304   */\n      swap3\n      pop\n        /* \"#utility.yul\":1027:1314   */\n      pop\n        /* \"#utility.yul\":1381:1383   */\n      0x20\n        /* \"#utility.yul\":1370:1379   */\n      dup4\n        /* \"#utility.yul\":1366:1384   */\n      add\n        /* \"#utility.yul\":1353:1385   */\n      calldataload\n        /* \"#utility.yul\":1412:1430   */\n      0xffffffffffffffff\n        /* \"#utility.yul\":1404:1410   */\n      dup2\n        /* \"#utility.yul\":1401:1431   */\n      gt\n        /* \"#utility.yul\":1398:1515   */\n      iszero\n      tag_38\n      jumpi\n        /* \"#utility.yul\":1434:1513   */\n      tag_39\n      tag_36\n      jump\t// in\n    tag_39:\n        /* \"#utility.yul\":1398:1515   */\n    tag_38:\n        /* \"#utility.yul\":1539:1602   */\n      tag_40\n        /* \"#utility.yul\":1594:1601   */\n      dup6\n        /* \"#utility.yul\":1585:1591   */\n      dup3\n        /* \"#utility.yul\":1574:1583   */\n      dup7\n        /* \"#utility.yul\":1570:1592   */\n      add\n        /* \"#utility.yul\":1539:1602   */\n      tag_24\n      jump\t// in\n    tag_40:\n        /* \"#utility.yul\":1529:1602   */\n      swap2\n      pop\n        /* \"#utility.yul\":1324:1612   */\n      pop\n        /* \"#utility.yul\":785:1619   */\n      swap3\n      pop\n      swap3\n      swap1\n      pop\n      jump\t// out\n        /* \"#utility.yul\":1625:1991   */\n    tag_41:\n        /* \"#utility.yul\":1767:1770   */\n      0x00\n        /* \"#utility.yul\":1788:1855   */\n      tag_43\n        /* \"#utility.yul\":1852:1854   */\n      0x12\n        /* \"#utility.yul\":1847:1850   */\n      dup4\n        /* \"#utility.yul\":1788:1855   */\n      tag_44\n      jump\t// in\n    tag_43:\n        /* \"#utility.yul\":1781:1855   */\n      swap2\n      pop\n        /* \"#utility.yul\":1864:1957   */\n      tag_45\n        /* \"#utility.yul\":1953:1956   */\n      dup3\n        /* \"#utility.yul\":1864:1957   */\n      tag_46\n      jump\t// in\n    tag_45:\n        /* \"#utility.yul\":1982:1984   */\n      0x20\n        /* \"#utility.yul\":1977:1980   */\n      dup3\n        /* \"#utility.yul\":1973:1985   */\n      add\n        /* \"#utility.yul\":1966:1985   */\n      swap1\n      pop\n        /* \"#utility.yul\":1625:1991   */\n      swap2\n      swap1\n      pop\n      jump\t// out\n        /* \"#utility.yul\":1997:2416   */\n    tag_11:\n        /* \"#utility.yul\":2163:2167   */\n      0x00\n        /* \"#utility.yul\":2201:2203   */\n      0x20\n        /* \"#utility.yul\":2190:2199   */\n      dup3\n        /* \"#utility.yul\":2186:2204   */\n      add\n        /* \"#utility.yul\":2178:2204   */\n      swap1\n      pop\n        /* \"#utility.yul\":2250:2259   */\n      dup2\n        /* \"#utility.yul\":2244:2248   */\n      dup2\n        /* \"#utility.yul\":2240:2260   */\n      sub\n        /* \"#utility.yul\":2236:2237   */\n      0x00\n        /* \"#utility.yul\":2225:2234   */\n      dup4\n        /* \"#utility.yul\":2221:2238   */\n      add\n        /* \"#utility.yul\":2214:2261   */\n      mstore\n        /* \"#utility.yul\":2278:2409   */\n      tag_48\n        /* \"#utility.yul\":2404:2408   */\n      dup2\n        /* \"#utility.yul\":2278:2409   */\n      tag_41\n      jump\t// in\n    tag_48:\n        /* \"#utility.yul\":2270:2409   */\n      swap1\n      pop\n        /* \"#utility.yul\":1997:2416   */\n      swap2\n      swap1\n      pop\n      jump\t// out\n        /* \"#utility.yul\":2422:2551   */\n    tag_18:\n        /* \"#utility.yul\":2456:2462   */\n      0x00\n        /* \"#utility.yul\":2483:2503   */\n      tag_50\n      tag_51\n      jump\t// in\n    tag_50:\n        /* \"#utility.yul\":2473:2503   */\n      swap1\n      pop\n        /* \"#utility.yul\":2512:2545   */\n      tag_52\n        /* \"#utility.yul\":2540:2544   */\n      dup3\n        /* \"#utility.yul\":2532:2538   */\n      dup3\n        /* \"#utility.yul\":2512:2545   */\n      tag_53\n      jump\t// in\n    tag_52:\n        /* \"#utility.yul\":2422:2551   */\n      swap2\n      swap1\n      pop\n      jump\t// out\n        /* \"#utility.yul\":2557:2632   */\n    tag_51:\n        /* \"#utility.yul\":2590:2596   */\n      0x00\n        /* \"#utility.yul\":2623:2625   */\n      0x40\n        /* \"#utility.yul\":2617:2626   */\n      mload\n        /* \"#utility.yul\":2607:2626   */\n      swap1\n      pop\n        /* \"#utility.yul\":2557:2632   */\n      swap1\n      jump\t// out\n        /* \"#utility.yul\":2638:2946   */\n    tag_17:\n        /* \"#utility.yul\":2700:2704   */\n      0x00\n        /* \"#utility.yul\":2790:2808   */\n      0xffffffffffffffff\n        /* \"#utility.yul\":2782:2788   */\n      dup3\n        /* \"#utility.yul\":2779:2809   */\n      gt\n        /* \"#utility.yul\":2776:2832   */\n      iszero\n      tag_56\n      jumpi\n        /* \"#utility.yul\":2812:2830   */\n      tag_57\n      tag_58\n      jump\t// in\n    tag_57:\n        /* \"#utility.yul\":2776:2832   */\n    tag_56:\n        /* \"#utility.yul\":2850:2879   */\n      tag_59\n        /* \"#utility.yul\":2872:2878   */\n      dup3\n        /* \"#utility.yul\":2850:2879   */\n      tag_60\n      jump\t// in\n    tag_59:\n        /* \"#utility.yul\":2842:2879   */\n      swap1\n      pop\n        /* \"#utility.yul\":2934:2938   */\n      0x20\n        /* \"#utility.yul\":2928:2932   */\n      dup2\n        /* \"#utility.yul\":2924:2939   */\n      add\n        /* \"#utility.yul\":2916:2939   */\n      swap1\n      pop\n        /* \"#utility.yul\":2638:2946   */\n      swap2\n      swap1\n      pop\n      jump\t// out\n        /* \"#utility.yul\":2952:3121   */\n    tag_44:\n        /* \"#utility.yul\":3036:3047   */\n      0x00\n        /* \"#utility.yul\":3070:3076   */\n      dup3\n        /* \"#utility.yul\":3065:3068   */\n      dup3\n        /* \"#utility.yul\":3058:3077   */\n      mstore\n        /* \"#utility.yul\":3110:3114   */\n      0x20\n        /* \"#utility.yul\":3105:3108   */\n      dup3\n        /* \"#utility.yul\":3101:3115   */\n      add\n        /* \"#utility.yul\":3086:3115   */\n      swap1\n      pop\n        /* \"#utility.yul\":2952:3121   */\n      swap3\n      swap2\n      pop\n      pop\n      jump\t// out\n        /* \"#utility.yul\":3127:3281   */\n    tag_23:\n        /* \"#utility.yul\":3211:3217   */\n      dup3\n        /* \"#utility.yul\":3206:3209   */\n      dup2\n        /* \"#utility.yul\":3201:3204   */\n      dup4\n        /* \"#utility.yul\":3188:3218   */\n      calldatacopy\n        /* \"#utility.yul\":3273:3274   */\n      0x00\n        /* \"#utility.yul\":3264:3270   */\n      dup4\n        /* \"#utility.yul\":3259:3262   */\n      dup4\n        /* \"#utility.yul\":3255:3271   */\n      add\n        /* \"#utility.yul\":3248:3275   */\n      mstore\n        /* \"#utility.yul\":3127:3281   */\n      pop\n      pop\n      pop\n      jump\t// out\n        /* \"#utility.yul\":3287:3568   */\n    tag_53:\n        /* \"#utility.yul\":3370:3397   */\n      tag_64\n        /* \"#utility.yul\":3392:3396   */\n      dup3\n        /* \"#utility.yul\":3370:3397   */\n      tag_60\n      jump\t// in\n    tag_64:\n        /* \"#utility.yul\":3362:3368   */\n      dup2\n        /* \"#utility.yul\":3358:3398   */\n      add\n        /* \"#utility.yul\":3500:3506   */\n      dup2\n        /* \"#utility.yul\":3488:3498   */\n      dup2\n        /* \"#utility.yul\":3485:3507   */\n      lt\n        /* \"#utility.yul\":3464:3482   */\n      0xffffffffffffffff\n        /* \"#utility.yul\":3452:3462   */\n      dup3\n        /* \"#utility.yul\":3449:3483   */\n      gt\n        /* \"#utility.yul\":3446:3508   */\n      or\n        /* \"#utility.yul\":3443:3531   */\n      iszero\n      tag_65\n      jumpi\n        /* \"#utility.yul\":3511:3529   */\n      tag_66\n      tag_58\n      jump\t// in\n    tag_66:\n        /* \"#utility.yul\":3443:3531   */\n    tag_65:\n        /* \"#utility.yul\":3551:3561   */\n      dup1\n        /* \"#utility.yul\":3547:3549   */\n      0x40\n        /* \"#utility.yul\":3540:3562   */\n      mstore\n        /* \"#utility.yul\":3330:3568   */\n      pop\n        /* \"#utility.yul\":3287:3568   */\n      pop\n      pop\n      jump\t// out\n        /* \"#utility.yul\":3574:3754   */\n    tag_58:\n        /* \"#utility.yul\":3622:3699   */\n      0x4e487b7100000000000000000000000000000000000000000000000000000000\n        /* \"#utility.yul\":3619:3620   */\n      0x00\n        /* \"#utility.yul\":3612:3700   */\n      mstore\n        /* \"#utility.yul\":3719:3723   */\n      0x41\n        /* \"#utility.yul\":3716:3717   */\n      0x04\n        /* \"#utility.yul\":3709:3724   */\n      mstore\n        /* \"#utility.yul\":3743:3747   */\n      0x24\n        /* \"#utility.yul\":3740:3741   */\n      0x00\n        /* \"#utility.yul\":3733:3748   */\n      revert\n        /* \"#utility.yul\":3760:3877   */\n    tag_28:\n        /* \"#utility.yul\":3869:3870   */\n      0x00\n        /* \"#utility.yul\":3866:3867   */\n      dup1\n        /* \"#utility.yul\":3859:3871   */\n      revert\n        /* \"#utility.yul\":3883:4000   */\n    tag_21:\n        /* \"#utility.yul\":3992:3993   */\n      0x00\n        /* \"#utility.yul\":3989:3990   */\n      dup1\n        /* \"#utility.yul\":3982:3994   */\n      revert\n        /* \"#utility.yul\":4006:4123   */\n    tag_36:\n        /* \"#utility.yul\":4115:4116   */\n      0x00\n        /* \"#utility.yul\":4112:4113   */\n      dup1\n        /* \"#utility.yul\":4105:4117   */\n      revert\n        /* \"#utility.yul\":4129:4246   */\n    tag_33:\n        /* \"#utility.yul\":4238:4239   */\n      0x00\n        /* \"#utility.yul\":4235:4236   */\n      dup1\n        /* \"#utility.yul\":4228:4240   */\n      revert\n        /* \"#utility.yul\":4252:4354   */\n    tag_60:\n        /* \"#utility.yul\":4293:4299   */\n      0x00\n        /* \"#utility.yul\":4344:4346   */\n      0x1f\n        /* \"#utility.yul\":4340:4347   */\n      not\n        /* \"#utility.yul\":4335:4337   */\n      0x1f\n        /* \"#utility.yul\":4328:4333   */\n      dup4\n        /* \"#utility.yul\":4324:4338   */\n      add\n        /* \"#utility.yul\":4320:4348   */\n      and\n        /* \"#utility.yul\":4310:4348   */\n      swap1\n      pop\n        /* \"#utility.yul\":4252:4354   */\n      swap2\n      swap1\n      pop\n      jump\t// out\n        /* \"#utility.yul\":4360:4528   */\n    tag_46:\n        /* \"#utility.yul\":4500:4520   */\n      0x556e617574686f72697a65642041636573730000000000000000000000000000\n        /* \"#utility.yul\":4496:4497   */\n      0x00\n        /* \"#utility.yul\":4488:4494   */\n      dup3\n        /* \"#utility.yul\":4484:4498   */\n      add\n        /* \"#utility.yul\":4477:4521   */\n      mstore\n        /* \"#utility.yul\":4360:4528   */\n      pop\n      jump\t// out\n\n    auxdata: 0xa264697066735822122047f44a12858b96f8267484bcf191c8f016113758734ed40a98d61835bf92d56864736f6c63430008070033\n}\n",
				"bytecode": {
					"linkReferences": {},
					"object": "608060405234801561001057600080fd5b50336000806101000a81548173ffffffffffffffffffffffffffffffffffffffff021916908373ffffffffffffffffffffffffffffffffffffffff160217905550610364806100606000396000f3fe608060405234801561001057600080fd5b506004361061002b5760003560e01c8063137967a614610030575b600080fd5b61004a6004803603810190610045919061014f565b61004c565b005b60008054906101000a900473ffffffffffffffffffffffffffffffffffffffff1673ffffffffffffffffffffffffffffffffffffffff163373ffffffffffffffffffffffffffffffffffffffff1614156100db576040517f08c379a00000000000000000000000000000000000000000000000000000000081526004016100d2906101ea565b60405180910390fd5b5050565b60006100f26100ed8461022f565b61020a565b90508281526020810184848401111561010e5761010d6102e5565b5b610119848285610271565b509392505050565b600082601f830112610136576101356102e0565b5b81356101468482602086016100df565b91505092915050565b60008060408385031215610166576101656102ef565b5b600083013567ffffffffffffffff811115610184576101836102ea565b5b61019085828601610121565b925050602083013567ffffffffffffffff8111156101b1576101b06102ea565b5b6101bd85828601610121565b9150509250929050565b60006101d4601283610260565b91506101df82610305565b602082019050919050565b60006020820190508181036000830152610203816101c7565b9050919050565b6000610214610225565b90506102208282610280565b919050565b6000604051905090565b600067ffffffffffffffff82111561024a576102496102b1565b5b610253826102f4565b9050602081019050919050565b600082825260208201905092915050565b82818337600083830152505050565b610289826102f4565b810181811067ffffffffffffffff821117156102a8576102a76102b1565b5b80604052505050565b7f4e487b7100000000000000000000000000000000000000000000000000000000600052604160045260246000fd5b600080fd5b600080fd5b600080fd5b600080fd5b6000601f19601f8301169050919050565b7f556e617574686f72697a6564204163657373000000000000000000000000000060008201525056fea264697066735822122047f44a12858b96f8267484bcf191c8f016113758734ed40a98d61835bf92d56864736f6c63430008070033",
					"opcodes": "PUSH1 0x80 PUSH1 0x40 MSTORE CALLVALUE DUP1 ISZERO PUSH2 0x10 JUMPI PUSH1 0x0 DUP1 REVERT JUMPDEST POP CALLER PUSH1 0x0 DUP1 PUSH2 0x100 EXP DUP2 SLOAD DUP2 PUSH20 0xFFFFFFFFFFFFFFFFFFFFFFFFFFFFFFFFFFFFFFFF MUL NOT AND SWAP1 DUP4 PUSH20 0xFFFFFFFFFFFFFFFFFFFFFFFFFFFFFFFFFFFFFFFF AND MUL OR SWAP1 SSTORE POP PUSH2 0x364 DUP1 PUSH2 0x60 PUSH1 0x0 CODECOPY PUSH1 0x0 RETURN INVALID PUSH1 0x80 PUSH1 0x40 MSTORE CALLVALUE DUP1 ISZERO PUSH2 0x10 JUMPI PUSH1 0x0 DUP1 REVERT JUMPDEST POP PUSH1 0x4 CALLDATASIZE LT PUSH2 0x2B JUMPI PUSH1 0x0 CALLDATALOAD PUSH1 0xE0 SHR DUP1 PUSH4 0x137967A6 EQ PUSH2 0x30 JUMPI JUMPDEST PUSH1 0x0 DUP1 REVERT JUMPDEST PUSH2 0x4A PUSH1 0x4 DUP1 CALLDATASIZE SUB DUP2 ADD SWAP1 PUSH2 0x45 SWAP2 SWAP1 PUSH2 0x14F JUMP JUMPDEST PUSH2 0x4C JUMP JUMPDEST STOP JUMPDEST PUSH1 0x0 DUP1 SLOAD SWAP1 PUSH2 0x100 EXP SWAP1 DIV PUSH20 0xFFFFFFFFFFFFFFFFFFFFFFFFFFFFFFFFFFFFFFFF AND PUSH20 0xFFFFFFFFFFFFFFFFFFFFFFFFFFFFFFFFFFFFFFFF AND CALLER PUSH20 0xFFFFFFFFFFFFFFFFFFFFFFFFFFFFFFFFFFFFFFFF AND EQ ISZERO PUSH2 0xDB JUMPI PUSH1 0x40 MLOAD PUSH32 0x8C379A000000000000000000000000000000000000000000000000000000000 DUP2 MSTORE PUSH1 0x4 ADD PUSH2 0xD2 SWAP1 PUSH2 0x1EA JUMP JUMPDEST PUSH1 0x40 MLOAD DUP1 SWAP2 SUB SWAP1 REVERT JUMPDEST POP POP JUMP JUMPDEST PUSH1 0x0 PUSH2 0xF2 PUSH2 0xED DUP5 PUSH2 0x22F JUMP JUMPDEST PUSH2 0x20A JUMP JUMPDEST SWAP1 POP DUP3 DUP2 MSTORE PUSH1 0x20 DUP2 ADD DUP5 DUP5 DUP5 ADD GT ISZERO PUSH2 0x10E JUMPI PUSH2 0x10D PUSH2 0x2E5 JUMP JUMPDEST JUMPDEST PUSH2 0x119 DUP5 DUP3 DUP6 PUSH2 0x271 JUMP JUMPDEST POP SWAP4 SWAP3 POP POP POP JUMP JUMPDEST PUSH1 0x0 DUP3 PUSH1 0x1F DUP4 ADD SLT PUSH2 0x136 JUMPI PUSH2 0x135 PUSH2 0x2E0 JUMP JUMPDEST JUMPDEST DUP2 CALLDATALOAD PUSH2 0x146 DUP5 DUP3 PUSH1 0x20 DUP7 ADD PUSH2 0xDF JUMP JUMPDEST SWAP2 POP POP SWAP3 SWAP2 POP POP JUMP JUMPDEST PUSH1 0x0 DUP1 PUSH1 0x40 DUP4 DUP6 SUB SLT ISZERO PUSH2 0x166 JUMPI PUSH2 0x165 PUSH2 0x2EF JUMP JUMPDEST JUMPDEST PUSH1 0x0 DUP4 ADD CALLDATALOAD PUSH8 0xFFFFFFFFFFFFFFFF DUP2 GT ISZERO PUSH2 0x184 JUMPI PUSH2 0x183 PUSH2 0x2EA JUMP JUMPDEST JUMPDEST PUSH2 0x190 DUP6 DUP3 DUP7 ADD PUSH2 0x121 JUMP JUMPDEST SWAP3 POP POP PUSH1 0x20 DUP4 ADD CALLDATALOAD PUSH8 0xFFFFFFFFFFFFFFFF DUP2 GT ISZERO PUSH2 0x1B1 JUMPI PUSH2 0x1B0 PUSH2 0x2EA JUMP JUMPDEST JUMPDEST PUSH2 0x1BD DUP6 DUP3 DUP7 ADD PUSH2 0x121 JUMP JUMPDEST SWAP2 POP POP SWAP3 POP SWAP3 SWAP1 POP JUMP JUMPDEST PUSH1 0x0 PUSH2 0x1D4 PUSH1 0x12 DUP4 PUSH2 0x260 JUMP JUMPDEST SWAP2 POP PUSH2 0x1DF DUP3 PUSH2 0x305 JUMP JUMPDEST PUSH1 0x20 DUP3 ADD SWAP1 POP SWAP2 SWAP1 POP JUMP JUMPDEST PUSH1 0x0 PUSH1 0x20 DUP3 ADD SWAP1 POP DUP2 DUP2 SUB PUSH1 0x0 DUP4 ADD MSTORE PUSH2 0x203 DUP2 PUSH2 0x1C7 JUMP JUMPDEST SWAP1 POP SWAP2 SWAP1 POP JUMP JUMPDEST PUSH1 0x0 PUSH2 0x214 PUSH2 0x225 JUMP JUMPDEST SWAP1 POP PUSH2 0x220 DUP3 DUP3 PUSH2 0x280 JUMP JUMPDEST SWAP2 SWAP1 POP JUMP JUMPDEST PUSH1 0x0 PUSH1 0x40 MLOAD SWAP1 POP SWAP1 JUMP JUMPDEST PUSH1 0x0 PUSH8 0xFFFFFFFFFFFFFFFF DUP3 GT ISZERO PUSH2 0x24A JUMPI PUSH2 0x249 PUSH2 0x2B1 JUMP JUMPDEST JUMPDEST PUSH2 0x253 DUP3 PUSH2 0x2F4 JUMP JUMPDEST SWAP1 POP PUSH1 0x20 DUP2 ADD SWAP1 POP SWAP2 SWAP1 POP JUMP JUMPDEST PUSH1 0x0 DUP3 DUP3 MSTORE PUSH1 0x20 DUP3 ADD SWAP1 POP SWAP3 SWAP2 POP POP JUMP JUMPDEST DUP3 DUP2 DUP4 CALLDATACOPY PUSH1 0x0 DUP4 DUP4 ADD MSTORE POP POP POP JUMP JUMPDEST PUSH2 0x289 DUP3 PUSH2 0x2F4 JUMP JUMPDEST DUP2 ADD DUP2 DUP2 LT PUSH8 0xFFFFFFFFFFFFFFFF DUP3 GT OR ISZERO PUSH2 0x2A8 JUMPI PUSH2 0x2A7 PUSH2 0x2B1 JUMP JUMPDEST JUMPDEST DUP1 PUSH1 0x40 MSTORE POP POP POP JUMP JUMPDEST PUSH32 0x4E487B7100000000000000000000000000000000000000000000000000000000 PUSH1 0x0 MSTORE PUSH1 0x41 PUSH1 0x4 MSTORE PUSH1 0x24 PUSH1 0x0 REVERT JUMPDEST PUSH1 0x0 DUP1 REVERT JUMPDEST PUSH1 0x0 DUP1 REVERT JUMPDEST PUSH1 0x0 DUP1 REVERT JUMPDEST PUSH1 0x0 DUP1 REVERT JUMPDEST PUSH1 0x0 PUSH1 0x1F NOT PUSH1 0x1F DUP4 ADD AND SWAP1 POP SWAP2 SWAP1 POP JUMP JUMPDEST PUSH32 0x556E617574686F72697A65642041636573730000000000000000000000000000 PUSH1 0x0 DUP3 ADD MSTORE POP JUMP INVALID LOG2 PUSH5 0x6970667358 0x22 SLT KECCAK256 SELFBALANCE DELEGATECALL 0x4A SLT DUP6 DUP12 SWAP7 0xF8 0x26 PUSH21 0x84BCF191C8F016113758734ED40A98D61835BF92D5 PUSH9 0x64736F6C6343000807 STOP CALLER "
				},
				"gasEstimates": {
					"creation": {
						"codeDepositCost": "173600",
						"executionCost": "24486",
						"totalCost": "198086"
					},
					"external": {
						"registrationForCandidate(string,string)": "infinite"
					}
				},
				"methodIdentifiers": {
					"registrationForCandidate(string,string)": "137967a6"
				}
			},
			"storageLayout": {
				"storage": [
					{
						"astId": 3,
						"contract": "contracts/voting.sol:VotingContract",
						"label": "electionCommission",
						"offset": 0,
						"slot": "0",
						"type": "t_address"
					},
					{
						"astId": 14,
						"contract": "contracts/voting.sol:VotingContract",
						"label": "Candidates",
						"offset": 0,
						"slot": "1",
						"type": "t_array(t_struct(candidate)10_storage)dyn_storage"
					}
				],
				"types": {
					"t_address": {
						"encoding": "inplace",
						"label": "address",
						"numberOfBytes": "20"
					},
					"t_array(t_struct(candidate)10_storage)dyn_storage": {
						"base": "t_struct(candidate)10_storage",
						"encoding": "dynamic_array",
						"label": "struct VotingContract.candidate[]",
						"numberOfBytes": "32"
					},
					"t_string_storage": {
						"encoding": "bytes",
						"label": "string",
						"numberOfBytes": "32"
					},
					"t_struct(candidate)10_storage": {
						"encoding": "inplace",
						"label": "struct VotingContract.candidate",
						"members": [
							{
								"astId": 5,
								"contract": "contracts/voting.sol:VotingContract",
								"label": "name",
								"offset": 0,
								"slot": "0",
								"type": "t_string_storage"
							},
							{
								"astId": 7,
								"contract": "contracts/voting.sol:VotingContract",
								"label": "symbol",
								"offset": 0,
								"slot": "1",
								"type": "t_string_storage"
							},
							{
								"astId": 9,
								"contract": "contracts/voting.sol:VotingContract",
								"label": "voteCount",
								"offset": 0,
								"slot": "2",
								"type": "t_uint256"
							}
						],
						"numberOfBytes": "96"
					},
					"t_uint256": {
						"encoding": "inplace",
						"label": "uint256",
						"numberOfBytes": "32"
					}
				}
			},
			"userdoc": {
				"kind": "user",
				"methods": {},
				"version": 1
			}
		}
	}
}